{"abi":[{"type":"constructor","inputs":[{"name":"initialCheckpointHeight","type":"uint256","internalType":"uint256"},{"name":"initialBlockHash","type":"bytes32","internalType":"bytes32"},{"name":"initialRetargetBlockHash","type":"bytes32","internalType":"bytes32"},{"name":"verifierContractAddress","type":"address","internalType":"address"},{"name":"depositTokenAddress","type":"address","internalType":"address"},{"name":"_proverReward","type":"uint256","internalType":"uint256"},{"name":"_releaserReward","type":"uint256","internalType":"uint256"},{"name":"_protocolAddress","type":"address","internalType":"address payable"},{"name":"_owner","type":"address","internalType":"address"},{"name":"_circuitVerificationKey","type":"bytes32","internalType":"bytes32"}],"stateMutability":"nonpayable"},{"type":"function","name":"CHALLENGE_PERIOD","inputs":[],"outputs":[{"name":"","type":"uint256","internalType":"uint256"}],"stateMutability":"view"},{"type":"function","name":"DEPOSIT_TOKEN","inputs":[],"outputs":[{"name":"","type":"address","internalType":"contract IERC20"}],"stateMutability":"view"},{"type":"function","name":"MAX_DEPOSIT_OUTPUTS","inputs":[],"outputs":[{"name":"","type":"uint16","internalType":"uint16"}],"stateMutability":"view"},{"type":"function","name":"MIN_ORDER_GAS_MULTIPLIER","inputs":[],"outputs":[{"name":"","type":"uint256","internalType":"uint256"}],"stateMutability":"view"},{"type":"function","name":"PROOF_GAS_COST","inputs":[],"outputs":[{"name":"","type":"uint256","internalType":"uint256"}],"stateMutability":"view"},{"type":"function","name":"RELEASE_GAS_COST","inputs":[],"outputs":[{"name":"","type":"uint256","internalType":"uint256"}],"stateMutability":"view"},{"type":"function","name":"RESERVATION_LOCKUP_PERIOD","inputs":[],"outputs":[{"name":"","type":"uint256","internalType":"uint256"}],"stateMutability":"view"},{"type":"function","name":"SAMPLING_SIZE","inputs":[],"outputs":[{"name":"","type":"uint8","internalType":"uint8"}],"stateMutability":"view"},{"type":"function","name":"TOKEN_DECIMALS","inputs":[],"outputs":[{"name":"","type":"uint8","internalType":"uint8"}],"stateMutability":"view"},{"type":"function","name":"addBlock","inputs":[{"name":"safeBlockHeight","type":"uint256","internalType":"uint256"},{"name":"proposedBlockHeight","type":"uint256","internalType":"uint256"},{"name":"confirmationBlockHeight","type":"uint256","internalType":"uint256"},{"name":"blockHashes","type":"bytes32[]","internalType":"bytes32[]"},{"name":"proposedBlockIndex","type":"uint256","internalType":"uint256"}],"outputs":[],"stateMutability":"nonpayable"},{"type":"function","name":"buildProofPublicInputs","inputs":[{"name":"inputs","type":"tuple","internalType":"struct RiftExchange.ProofPublicInputs","components":[{"name":"natural_txid","type":"bytes32","internalType":"bytes32"},{"name":"lp_reservation_hash","type":"bytes32","internalType":"bytes32"},{"name":"order_nonce","type":"bytes32","internalType":"bytes32"},{"name":"expected_payout","type":"uint64","internalType":"uint64"},{"name":"lp_count","type":"uint64","internalType":"uint64"},{"name":"retarget_block_hash","type":"bytes32","internalType":"bytes32"},{"name":"safe_block_height","type":"uint64","internalType":"uint64"},{"name":"safe_block_height_delta","type":"uint64","internalType":"uint64"},{"name":"confirmation_block_height_delta","type":"uint64","internalType":"uint64"},{"name":"retarget_block_height","type":"uint64","internalType":"uint64"},{"name":"block_hashes","type":"bytes32[]","internalType":"bytes32[]"}]}],"outputs":[{"name":"","type":"bytes","internalType":"bytes"}],"stateMutability":"pure"},{"type":"function","name":"circuitVerificationKey","inputs":[],"outputs":[{"name":"","type":"bytes32","internalType":"bytes32"}],"stateMutability":"view"},{"type":"function","name":"currentConfirmationHeight","inputs":[],"outputs":[{"name":"","type":"uint256","internalType":"uint256"}],"stateMutability":"view"},{"type":"function","name":"currentHeight","inputs":[],"outputs":[{"name":"","type":"uint256","internalType":"uint256"}],"stateMutability":"view"},{"type":"function","name":"depositLiquidity","inputs":[{"name":"depositAmount","type":"uint256","internalType":"uint256"},{"name":"exchangeRate","type":"uint64","internalType":"uint64"},{"name":"btcPayoutLockingScript","type":"bytes22","internalType":"bytes22"},{"name":"vaultIndexToOverwrite","type":"int256","internalType":"int256"},{"name":"vaultIndexWithSameExchangeRate","type":"int256","internalType":"int256"}],"outputs":[],"stateMutability":"nonpayable"},{"type":"function","name":"depositVaults","inputs":[{"name":"","type":"uint256","internalType":"uint256"}],"outputs":[{"name":"initialBalance","type":"uint256","internalType":"uint256"},{"name":"unreservedBalance","type":"uint256","internalType":"uint256"},{"name":"withdrawnAmount","type":"uint256","internalType":"uint256"},{"name":"exchangeRate","type":"uint64","internalType":"uint64"},{"name":"btcPayoutLockingScript","type":"bytes22","internalType":"bytes22"}],"stateMutability":"view"},{"type":"function","name":"emptyDepositVault","inputs":[{"name":"vaultIndex","type":"uint256","internalType":"uint256"}],"outputs":[],"stateMutability":"nonpayable"},{"type":"function","name":"getBlockHash","inputs":[{"name":"blockHeight","type":"uint256","internalType":"uint256"}],"outputs":[{"name":"","type":"bytes32","internalType":"bytes32"}],"stateMutability":"view"},{"type":"function","name":"getDepositVault","inputs":[{"name":"depositIndex","type":"uint256","internalType":"uint256"}],"outputs":[{"name":"","type":"tuple","internalType":"struct RiftExchange.DepositVault","components":[{"name":"initialBalance","type":"uint256","internalType":"uint256"},{"name":"unreservedBalance","type":"uint256","internalType":"uint256"},{"name":"withdrawnAmount","type":"uint256","internalType":"uint256"},{"name":"exchangeRate","type":"uint64","internalType":"uint64"},{"name":"btcPayoutLockingScript","type":"bytes22","internalType":"bytes22"}]}],"stateMutability":"view"},{"type":"function","name":"getDepositVaultUnreservedBalance","inputs":[{"name":"depositIndex","type":"uint256","internalType":"uint256"}],"outputs":[{"name":"","type":"uint256","internalType":"uint256"}],"stateMutability":"view"},{"type":"function","name":"getDepositVaultsLength","inputs":[],"outputs":[{"name":"","type":"uint256","internalType":"uint256"}],"stateMutability":"view"},{"type":"function","name":"getLiquidityProvider","inputs":[{"name":"lpAddress","type":"address","internalType":"address"}],"outputs":[{"name":"","type":"tuple","internalType":"struct RiftExchange.LiquidityProvider","components":[{"name":"depositVaultIndexes","type":"uint256[]","internalType":"uint256[]"}]}],"stateMutability":"view"},{"type":"function","name":"getReservation","inputs":[{"name":"reservationIndex","type":"uint256","internalType":"uint256"}],"outputs":[{"name":"","type":"tuple","internalType":"struct RiftExchange.SwapReservation","components":[{"name":"confirmationBlockHeight","type":"uint32","internalType":"uint32"},{"name":"reservationTimestamp","type":"uint32","internalType":"uint32"},{"name":"unlockTimestamp","type":"uint32","internalType":"uint32"},{"name":"state","type":"uint8","internalType":"enum RiftExchange.ReservationState"},{"name":"ethPayoutAddress","type":"address","internalType":"address"},{"name":"lpReservationHash","type":"bytes32","internalType":"bytes32"},{"name":"nonce","type":"bytes32","internalType":"bytes32"},{"name":"totalSatsInputInlcudingProxyFee","type":"uint256","internalType":"uint256"},{"name":"totalSwapOutputAmount","type":"uint256","internalType":"uint256"},{"name":"prepaidFeeAmount","type":"int256","internalType":"int256"},{"name":"proposedBlockHeight","type":"uint256","internalType":"uint256"},{"name":"proposedBlockHash","type":"bytes32","internalType":"bytes32"},{"name":"vaultIndexes","type":"uint256[]","internalType":"uint256[]"},{"name":"amountsToReserve","type":"uint192[]","internalType":"uint192[]"}]}],"stateMutability":"view"},{"type":"function","name":"getReservationLength","inputs":[],"outputs":[{"name":"","type":"uint256","internalType":"uint256"}],"stateMutability":"view"},{"type":"function","name":"owner","inputs":[],"outputs":[{"name":"","type":"address","internalType":"address"}],"stateMutability":"view"},{"type":"function","name":"proposeTransactionProof","inputs":[{"name":"swapReservationIndex","type":"uint256","internalType":"uint256"},{"name":"bitcoinTxId","type":"bytes32","internalType":"bytes32"},{"name":"safeBlockHeight","type":"uint32","internalType":"uint32"},{"name":"proposedBlockHeight","type":"uint64","internalType":"uint64"},{"name":"confirmationBlockHeight","type":"uint64","internalType":"uint64"},{"name":"blockHashes","type":"bytes32[]","internalType":"bytes32[]"},{"name":"proof","type":"bytes","internalType":"bytes"}],"outputs":[],"stateMutability":"nonpayable"},{"type":"function","name":"protocolFeeBP","inputs":[],"outputs":[{"name":"","type":"uint8","internalType":"uint8"}],"stateMutability":"view"},{"type":"function","name":"proverReward","inputs":[],"outputs":[{"name":"","type":"uint256","internalType":"uint256"}],"stateMutability":"view"},{"type":"function","name":"releaseLiquidity","inputs":[{"name":"swapReservationIndex","type":"uint256","internalType":"uint256"}],"outputs":[],"stateMutability":"nonpayable"},{"type":"function","name":"releaserReward","inputs":[],"outputs":[{"name":"","type":"uint256","internalType":"uint256"}],"stateMutability":"view"},{"type":"function","name":"reserveLiquidity","inputs":[{"name":"vaultIndexesToReserve","type":"uint256[]","internalType":"uint256[]"},{"name":"amountsToReserve","type":"uint192[]","internalType":"uint192[]"},{"name":"ethPayoutAddress","type":"address","internalType":"address"},{"name":"totalSatsInputInlcudingProxyFee","type":"uint256","internalType":"uint256"},{"name":"expiredSwapReservationIndexes","type":"uint256[]","internalType":"uint256[]"}],"outputs":[],"stateMutability":"nonpayable"},{"type":"function","name":"swapReservations","inputs":[{"name":"","type":"uint256","internalType":"uint256"}],"outputs":[{"name":"confirmationBlockHeight","type":"uint32","internalType":"uint32"},{"name":"reservationTimestamp","type":"uint32","internalType":"uint32"},{"name":"unlockTimestamp","type":"uint32","internalType":"uint32"},{"name":"state","type":"uint8","internalType":"enum RiftExchange.ReservationState"},{"name":"ethPayoutAddress","type":"address","internalType":"address"},{"name":"lpReservationHash","type":"bytes32","internalType":"bytes32"},{"name":"nonce","type":"bytes32","internalType":"bytes32"},{"name":"totalSatsInputInlcudingProxyFee","type":"uint256","internalType":"uint256"},{"name":"totalSwapOutputAmount","type":"uint256","internalType":"uint256"},{"name":"prepaidFeeAmount","type":"int256","internalType":"int256"},{"name":"proposedBlockHeight","type":"uint256","internalType":"uint256"},{"name":"proposedBlockHash","type":"bytes32","internalType":"bytes32"}],"stateMutability":"view"},{"type":"function","name":"transferOwnership","inputs":[{"name":"newOwner","type":"address","internalType":"address"}],"outputs":[],"stateMutability":"nonpayable"},{"type":"function","name":"updateExchangeRate","inputs":[{"name":"globalVaultIndex","type":"uint256","internalType":"uint256"},{"name":"localVaultIndex","type":"uint256","internalType":"uint256"},{"name":"newexchangeRate","type":"uint64","internalType":"uint64"},{"name":"expiredReservationIndexes","type":"uint256[]","internalType":"uint256[]"}],"outputs":[],"stateMutability":"nonpayable"},{"type":"function","name":"updateProtocolAddress","inputs":[{"name":"newProtocolAddress","type":"address","internalType":"address payable"}],"outputs":[],"stateMutability":"nonpayable"},{"type":"function","name":"updateProtocolFee","inputs":[{"name":"newProtocolFeeBP","type":"uint8","internalType":"uint8"}],"outputs":[],"stateMutability":"nonpayable"},{"type":"function","name":"updateRewards","inputs":[{"name":"newProverReward","type":"uint256","internalType":"uint256"},{"name":"newReleaserReward","type":"uint256","internalType":"uint256"}],"outputs":[],"stateMutability":"nonpayable"},{"type":"function","name":"validateBlockExists","inputs":[{"name":"blockHeight","type":"uint256","internalType":"uint256"}],"outputs":[],"stateMutability":"view"},{"type":"function","name":"verifierContract","inputs":[],"outputs":[{"name":"","type":"address","internalType":"contract ISP1Verifier"}],"stateMutability":"view"},{"type":"function","name":"withdrawLiquidity","inputs":[{"name":"globalVaultIndex","type":"uint256","internalType":"uint256"},{"name":"localVaultIndex","type":"uint256","internalType":"uint256"},{"name":"amountToWithdraw","type":"uint192","internalType":"uint192"},{"name":"expiredReservationIndexes","type":"uint256[]","internalType":"uint256[]"}],"outputs":[],"stateMutability":"nonpayable"},{"type":"event","name":"BlocksAdded","inputs":[{"name":"startBlockHeight","type":"uint256","indexed":false,"internalType":"uint256"},{"name":"count","type":"uint256","indexed":false,"internalType":"uint256"}],"anonymous":false},{"type":"event","name":"LiquidityReserved","inputs":[{"name":"reserver","type":"address","indexed":true,"internalType":"address"},{"name":"swapReservationIndex","type":"uint256","indexed":false,"internalType":"uint256"},{"name":"orderNonce","type":"bytes32","indexed":false,"internalType":"bytes32"}],"anonymous":false},{"type":"event","name":"OwnershipTransferred","inputs":[{"name":"user","type":"address","indexed":true,"internalType":"address"},{"name":"newOwner","type":"address","indexed":true,"internalType":"address"}],"anonymous":false},{"type":"event","name":"ProofProposed","inputs":[{"name":"prover","type":"address","indexed":true,"internalType":"address"},{"name":"swapReservationIndex","type":"uint256","indexed":false,"internalType":"uint256"},{"name":"orderNonce","type":"bytes32","indexed":false,"internalType":"bytes32"}],"anonymous":false},{"type":"event","name":"SwapComplete","inputs":[{"name":"swapReservationIndex","type":"uint256","indexed":false,"internalType":"uint256"},{"name":"orderNonce","type":"bytes32","indexed":false,"internalType":"bytes32"}],"anonymous":false},{"type":"error","name":"BlockDoesNotExist","inputs":[]},{"type":"error","name":"InvaidSameExchangeRatevaultIndex","inputs":[]},{"type":"error","name":"InvalidConfirmationBlock","inputs":[]},{"type":"error","name":"InvalidProposedBlockOverwrite","inputs":[]},{"type":"error","name":"InvalidSafeBlock","inputs":[]},{"type":"error","name":"InvalidUpdateWithActiveReservations","inputs":[]},{"type":"error","name":"InvalidVaultIndex","inputs":[]},{"type":"error","name":"InvalidVaultUpdate","inputs":[]},{"type":"error","name":"NotEnoughLiquidity","inputs":[]},{"type":"error","name":"NotVaultOwner","inputs":[]},{"type":"error","name":"OverwrittenProposedBlock","inputs":[]},{"type":"error","name":"ReservationNotExpired","inputs":[]},{"type":"error","name":"ReservationNotUnlocked","inputs":[]},{"type":"error","name":"StillInChallengePeriod","inputs":[]},{"type":"error","name":"WithdrawalAmountError","inputs":[]},{"type":"error","name":"exchangeRateZero","inputs":[]}],"bytecode":{"object":"0x61010060405260038054600560a11b60ff60a01b19909116179055600980546001600160a01b03191673f39fd6e51aad88f6f4ce6ab8827279cfffb9226617905534801561004c57600080fd5b506040516138d83803806138d883398101604081905261006b91610367565b60018a905560008a81526020819052604081208a905582908b908b908b9081908061009586610234565b6001600160401b0316815260208101919091526040908101600090812092909255600380546001600160a01b0319166001600160a01b03881690811790915590519094509092507f8be0079c531659141344cd1fd0a4f28419497f9722a3daafe3b4186f6b6457e091508290a35060e08190526001600160a01b0380881660c052861660805260408051808201909152600f81526e02222a827a9a4aa2faa27a5a2a71d1608d1b602082015261014a90610252565b6080516101569061029c565b6080516001600160a01b031663313ce5676040518163ffffffff1660e01b8152600401602060405180830381865afa158015610196573d6000803e3d6000fd5b505050506040513d601f19601f820116820180604052508101906101ba919061040d565b60ff1660a05260408051808201909152601081526f02a27a5a2a72fa222a1a4a6a0a6299d160851b60208201526101f090610252565b60a0516101ff9060ff166102e8565b5050600492909255600555600980546001600160a01b0319166001600160a01b03909216919091179055506104ef9350505050565b60006102426107e083610437565b61024c9083610474565b92915050565b6102998160405160240161026691906104a1565b60408051601f198184030181529190526020810180516001600160e01b0390811663104c13eb60e21b1790915261033116565b50565b6040516001600160a01b03821660248201526102999060440160408051601f198184030181529190526020810180516001600160e01b0390811663161765e160e11b1790915261033116565b610299816040516024016102fe91815260200190565b60408051601f198184030181529190526020810180516001600160e01b0390811663f5b1bba960e01b1790915261033116565b80516a636f6e736f6c652e6c6f67602083016000808483855afa5050505050565b6001600160a01b038116811461029957600080fd5b6000806000806000806000806000806101408b8d03121561038757600080fd5b8a5160208c015160408d015160608e0151929c50909a5098506103a981610352565b60808c01519097506103ba81610352565b60a08c015160c08d015160e08e015192985090965094506103da81610352565b6101008c01519093506103ec81610352565b8092505060006101208c01519050809150509295989b9194979a5092959850565b60006020828403121561041f57600080fd5b815160ff8116811461043057600080fd5b9392505050565b60006001600160401b0383168061045e57634e487b7160e01b600052601260045260246000fd5b6001600160401b03929092169190910692915050565b6001600160401b03828116828216039081111561024c57634e487b7160e01b600052601160045260246000fd5b602081526000825180602084015260005b818110156104cf57602081860181015160408684010152016104b2565b506000604082850101526040601f19601f83011684010191505092915050565b60805160a05160c05160e0516133716105676000396000818161034b0152611d020152600081816105770152611cd5015260006103be01526000818161027a01528181610d8101528181610e5f0152818161162a015281816119fd01528181611aef01528181611ddc01526120e601526133716000f3fe608060405234801561001057600080fd5b50600436106102485760003560e01c80638da5cb5b1161013b578063c5fba0b8116100b8578063eb6c75221161007c578063eb6c7522146105e1578063ed8b2b32146105eb578063ee82ac5e146105fe578063f2fde38b1461061e578063fba781661461063157600080fd5b8063c5fba0b81461055e578063cf69568814610572578063d57763c314610599578063e118f0e6146105b9578063ea6fe03e146105d957600080fd5b80639cc7eab9116100ff5780639cc7eab9146105165780639cdb8e5a1461051f578063ad062e551461053a578063aeacb2e714610542578063c3a079ed1461055557600080fd5b80638da5cb5b146104b35780638f805ac9146104c657806397e50818146104d957806398f9e757146104ec5780639a64279c1461050c57600080fd5b806358e2b676116101c95780636b994abb1161018d5780636b994abb1461045b5780636dcc17c814610486578063778919071461048f5780637dce5550146104a257806389a11f7a146104aa57600080fd5b806358e2b676146103a65780635b7f415c146103b95780635f4d0610146103f25780635f5d5b6a146104405780636512d0571461044857600080fd5b80632d908c02116102105780632d908c02146103335780633d7b22b314610346578063490d4c5f1461036d57806351a7f1cd1461038057806356fe6f861461039357600080fd5b80630140e1831461024d5780630a7aa2931461026257806313f6658714610275578063163de0c5146102b9578063276d080e146102d0575b600080fd5b61026061025b36600461287d565b61063a565b005b61026061027036600461298a565b610f58565b61029c7f000000000000000000000000000000000000000000000000000000000000000081565b6040516001600160a01b0390911681526020015b60405180910390f35b6102c260015481565b6040519081526020016102b0565b6102e36102de3660046129b4565b610fab565b6040516102b091908151815260208083015190820152604080830151908201526060808301516001600160401b0316908201526080918201516001600160501b0319169181019190915260a00190565b6102606103413660046129cd565b611054565b6102c27f000000000000000000000000000000000000000000000000000000000000000081565b61026061037b3660046129b4565b611286565b61026061038e366004612a45565b6112ca565b6102606103a1366004612aa2565b6116a8565b6102606103b4366004612b02565b61179a565b6103e07f000000000000000000000000000000000000000000000000000000000000000081565b60405160ff90911681526020016102b0565b6104056104003660046129b4565b6117e6565b604080519586526020860194909452928401919091526001600160401b031660608301526001600160501b031916608082015260a0016102b0565b6102c2600281565b6102c26104563660046129b4565b611835565b61046e6104693660046129b4565b611863565b6040516102b09c9b9a99989796959493929190612b57565b6102c260045481565b61026061049d3660046129b4565b6118eb565b6008546102c2565b6102c261708081565b60035461029c906001600160a01b031681565b6102606104d4366004612c3e565b611bb6565b6102606104e7366004612cf5565b611ee5565b6104ff6104fa366004612b02565b611f1a565b6040516102b09190612d53565b6102c26203345081565b6102c260055481565b610527603281565b60405161ffff90911681526020016102b0565b6103e0600a81565b610260610550366004612d76565b611f9d565b6102c261025881565b6003546103e090600160a01b900460ff1681565b61029c7f000000000000000000000000000000000000000000000000000000000000000081565b6105ac6105a73660046129b4565b61211d565b6040516102b09190612dde565b6105cc6105c7366004612edd565b61235c565b6040516102b09190613031565b6007546102c2565b6102c2620668a081565b6102606105f93660046129b4565b612385565b6102c261060c3660046129b4565b60009081526020819052604090205490565b61026061062c366004612b02565b6123b4565b6102c260025481565b6000805b855181101561067f5785818151811061065957610659613044565b60200260200101516001600160c01b0316826106759190613070565b915060010161063e565b506106bf6040518060400160405280601a81526020017f636f6d62696e6564416d6f756e7473546f526573657276653a200000000000008152508261242a565b60006106d5670de0b6b3a7640000612710613083565b600354600160a01b900460ff166106f4670de0b6b3a764000085613083565b6106fe9190613083565b61070891906130b0565b90506107396040518060400160405280600d81526020016c0383937ba37b1b7b62332b29d1609d1b8152508261242a565b60045460408051808201909152600b81526a0383937bb32b92332b29d160ad1b6020820152610768908261242a565b60055460408051808201909152600d81526c03932b632b0b9b2b92332b29d1609d1b6020820152610799908261242a565b6107a285612473565b6107ab856124fe565b6000805b8a518110156109935760028a82815181106107cc576107cc613044565b602002602001015160088d84815181106107e8576107e8613044565b60200260200101518154811061080057610800613044565b906000526020600020906004020160030160009054906101000a90046001600160401b031660088e858151811061083957610839613044565b60200260200101518154811061085157610851613044565b600091825260209182902060036004909202010154604080516001600160c01b03909516928501929092526001600160401b03909216908301526001600160501b0319600160401b90910460501b1660608201526080810184905260a00160408051601f19818403018152908290526108c9916130c4565b602060405180830381855afa1580156108e6573d6000803e3d6000fd5b5050506040513d601f19601f8201168201806040525081019061090991906130e0565b915060088b828151811061091f5761091f613044565b60200260200101518154811061093757610937613044565b9060005260206000209060040201600101548a828151811061095b5761095b613044565b60200260200101516001600160c01b0316111561098b57604051634323a55560e01b815260040160405180910390fd5b6001016107af565b50855115610abe5760006007876000815181106109b2576109b2613044565b6020026020010151815481106109ca576109ca613044565b60009182526020909120600b9091020180546001820180546001600160a01b0319166001600160a01b038d16179055600160601b6cffffffffffffffffff00000000199091166401000000004263ffffffff16026bffffffff00000000000000001916171781559050610a3d8385613070565b600682015560058101869055600754604051610a64918b91429146918791906020016130f9565b60408051601f1981840301815291905280516020918201206003830155600482018990558b51610a9c916009840191908e019061268d565b508951610ab290600a83019060208d01906126d8565b50600201819055610cee565b604080516101c08101825260008082524263ffffffff1660208301529181019190915260079060608101600181526020018a6001600160a01b031681526020018381526020018a424686600780549050604051602001610b229594939291906130f9565b6040516020818303038152906040528051906020012081526020018981526020018781526020018486610b559190613070565b8152602001600081526020016000801b81526020018c81526020018b81525090806001815401808255809150506001900390600052602060002090600b020160009091909190915060008201518160000160006101000a81548163ffffffff021916908363ffffffff16021790555060208201518160000160046101000a81548163ffffffff021916908363ffffffff16021790555060408201518160000160086101000a81548163ffffffff021916908363ffffffff160217905550606082015181600001600c6101000a81548160ff02191690836004811115610c3c57610c3c612b1f565b021790555060808201516001820180546001600160a01b0319166001600160a01b0390921691909117905560a0820151600282015560c0820151600382015560e0820151600482015561010082015160058201556101208201516006820155610140820151600782015561016082015160088201556101808201518051610ccd91600984019160209091019061268d565b506101a08201518051610cea91600a8401916020909101906126d8565b5050505b60005b8a51811015610d7657898181518110610d0c57610d0c613044565b60200260200101516001600160c01b031660088c8381518110610d3157610d31613044565b602002602001015181548110610d4957610d49613044565b90600052602060002090600402016001016000828254610d699190613127565b9091555050600101610cf1565b506001600160a01b037f0000000000000000000000000000000000000000000000000000000000000000166323b872dd333085610db38989613070565b610dbd9190613070565b6040516001600160e01b031960e086901b1681526001600160a01b03938416600482015292909116602483015260448201526064016020604051808303816000875af1158015610e11573d6000803e3d6000fd5b505050506040513d601f19601f82011682018060405250810190610e35919061313a565b5060095460405163a9059cbb60e01b81526001600160a01b039182166004820152602481018690527f00000000000000000000000000000000000000000000000000000000000000009091169063a9059cbb906044016020604051808303816000875af1158015610eaa573d6000803e3d6000fd5b505050506040513d601f19601f82011682018060405250810190610ece919061313a565b50337f5956135c9be999a50f7ff4ea49ddf1485bc321ab333dc7a0877633eeb47528936001610efc60075490565b610f069190613127565b600754604051610f21918d91429146918991906020016130f9565b60408051601f198184030181528282528051602091820120938352820192909252015b60405180910390a250505050505050505050565b6003546001600160a01b03163314610f8b5760405162461bcd60e51b8152600401610f829061315c565b60405180910390fd5b6003805460ff909216600160a01b0260ff60a01b19909216919091179055565b6040805160a08101825260008082526020820181905291810182905260608101829052608081019190915260088281548110610fe957610fe9613044565b60009182526020918290206040805160a0810182526004909302909101805483526001810154938301939093526002830154908201526003909101546001600160401b03811660608301526001600160501b0319600160401b90910460501b16608082015292915050565b60015460056110638686613127565b10156110be576000848152602081905260409020548351849061108890600190613127565b8151811061109857611098613044565b6020026020010151146110be576040516341305f6360e01b815260040160405180910390fd5b808611156110df5760405163575f3da360e01b815260040160405180910390fd5b8282815181106110f1576110f1613044565b60200260200101516000808781526020019081526020016000205403611117575061127f565b6000858152602081905260409020541580159061113657508360025410155b15611154576040516371e98f3d60e11b815260040160405180910390fd5b808511156111f8578086036111985782828151811061117557611175613044565b602002602001015160008087815260200190815260200160002081905550611231565b808610156111f357855b8581116111f157836111b48883613127565b815181106111c4576111c4613044565b602090810291909101810151600083815291829052604090912055806111e981613182565b9150506111a2565b505b611231565b808510156112315782828151811061121257611212613044565b6020026020010151600080878152602001908152602001600020819055505b6001548511156112415760018590555b82516040805188815260208101929092527fb68477c768bbb33b4f238a3dfd17c33c499268c59cd042b7936bbc23dc2bdd34910160405180910390a1505b5050505050565b60006008828154811061129b5761129b613044565b600091825260208220600490910201818155600181019190915560030180546001600160f01b03191690555050565b6112fb6040518060400160405280601081526020016f6465706f7369744c697175696469747960801b81525061260b565b61132c6040518060400160405280600f81526020016e02232b837b9b4ba20b6b7bab73a1d1608d1b8152508661242a565b836001600160401b031660000361135657604051635c4ad48d60e11b815260040160405180910390fd5b3360009081526006602052604081205490036113a4576040805160006020808301828152838501855283523382526006815292902081518051929391926113a0928492019061268d565b5050505b80600019146114305760008190506000600882815481106113c7576113c7613044565b6000918252602090912060049091020160038101549091506001600160401b0387811691160361141057868160010160008282546114059190613070565b909155506114299050565b60405163927ce9e760e01b815260040160405180910390fd5b50506115d4565b81600019146114c35760006008838154811061144e5761144e613044565b9060005260206000209060040201905080600101546000146114835760405163721e09df60e01b815260040160405180910390fd5b85815560018101869055600060028201556003018054605085901c600160401b026001600160f01b03199091166001600160401b038716171790556115d4565b6040805160a0810182528681526020810187815260009282018381526001600160401b03808916606085019081526001600160501b0319891660808601908152600880546001810182559752945160049096027ff3f7a9fe364faab93b216da50a3214154f22a0a2b415b23a84c8169e8b636ee381019690965592517ff3f7a9fe364faab93b216da50a3214154f22a0a2b415b23a84c8169e8b636ee486015590517ff3f7a9fe364faab93b216da50a3214154f22a0a2b415b23a84c8169e8b636ee585015590517ff3f7a9fe364faab93b216da50a3214154f22a0a2b415b23a84c8169e8b636ee69093018054925160501c600160401b026001600160f01b031990931693909116929092171790555b3360009081526006602052604090206008546115f290600190613127565b815460018101835560009283526020909220909101556040516323b872dd60e01b8152336004820152306024820152604481018690527f00000000000000000000000000000000000000000000000000000000000000006001600160a01b0316906323b872dd906064015b6020604051808303816000875af115801561167c573d6000803e3d6000fd5b505050506040513d601f19601f820116820180604052508101906116a0919061313a565b505050505050565b3360009081526006602052604090208054859190859081106116cc576116cc613044565b9060005260206000200154146116f557604051630e7fea9d60e01b815260040160405180910390fd5b816001600160401b031660000361171f57604051636e5a187760e11b815260040160405180910390fd5b60006008858154811061173457611734613044565b9060005260206000209060040201905061174d826124fe565b8054600182015414611772576040516391bc6cc360e01b815260040160405180910390fd5b600301805467ffffffffffffffff19166001600160401b039390931692909217909155505050565b6003546001600160a01b031633146117c45760405162461bcd60e51b8152600401610f829061315c565b600980546001600160a01b0319166001600160a01b0392909216919091179055565b600881815481106117f657600080fd5b6000918252602090912060049091020180546001820154600283015460039093015491935091906001600160401b03811690600160401b900460501b85565b60006008828154811061184a5761184a613044565b9060005260206000209060040201600101549050919050565b6007818154811061187357600080fd5b60009182526020909120600b909102018054600182015460028301546003840154600485015460058601546006870154600788015460089098015463ffffffff8089169a506401000000008904811699600160401b8a0490911698600160601b900460ff16976001600160a01b03169695949392918c565b60006007828154811061190057611900613044565b60009182526020909120600b90910201905060028154600160601b900460ff16600481111561193157611931612b1f565b1461194f5760405163b38c767b60e01b815260040160405180910390fd5b80546102589061196c90600160401b900463ffffffff1642613127565b101561198b57604051632d5c37f560e21b815260040160405180910390fd5b60088101546007820154600090815260208190526040902054036119c25760405163c1f6fa5160e01b815260040160405180910390fd5b60006119d14862033450613083565b6005546119de9190613070565b60405163a9059cbb60e01b8152336004820152602481018290529091507f00000000000000000000000000000000000000000000000000000000000000006001600160a01b03169063a9059cbb906044016020604051808303816000875af1158015611a4e573d6000803e3d6000fd5b505050506040513d601f19601f82011682018060405250810190611a72919061313a565b5080826006016000828254611a87919061319b565b9091555050600682015460001315611abe578160060154826005016000828254611ab19190613070565b9091555050600060068301555b6001820154600583015460405163a9059cbb60e01b81526001600160a01b03928316600482015260248101919091527f00000000000000000000000000000000000000000000000000000000000000009091169063a9059cbb906044016020604051808303816000875af1158015611b3a573d6000803e3d6000fd5b505050506040513d601f19601f82011682018060405250810190611b5e919061313a565b508154600160621b60ff60601b1990911617825560038201546040805185815260208101929092527f12245c00d428a4c558061d2f69fe154a203bd2fb4a65b6c3e73e95ccdc735d18910160405180910390a1505050565b600060078881548110611bcb57611bcb613044565b90600052602060002090600b020190506000611cbb6040518061016001604052808a8152602001846002015481526020018460030154815260200184600501546001600160401b0316815260200184600901805490506001600160401b03168152602001611c56611c3b8a61264e565b6001600160401b031660009081526020819052604090205490565b815263ffffffff8a1660208201819052604090910190611c76908a6131c2565b6001600160401b03168152602001611c8e89896131c2565b6001600160401b03168152602001611ca58961264e565b6001600160401b0316815260200186905261235c565b60405163020a49e360e51b81529091506001600160a01b037f000000000000000000000000000000000000000000000000000000000000000016906341493c6090611d2e907f000000000000000000000000000000000000000000000000000000000000000090859088906004016131e1565b60006040518083038186803b158015611d4657600080fd5b505afa158015611d5a573d6000803e3d6000fd5b50611d909250505063ffffffff88166001600160401b0388811690881687611d82848c6131c2565b6001600160401b0316611054565b815460ff60601b1916600160611b1782556000611db048620668a0613083565b600454611dbd9190613070565b60405163a9059cbb60e01b8152336004820152602481018290529091507f00000000000000000000000000000000000000000000000000000000000000006001600160a01b03169063a9059cbb906044016020604051808303816000875af1158015611e2d573d6000803e3d6000fd5b505050506040513d601f19601f82011682018060405250810190611e51919061313a565b50611e7563ffffffff89166001600160401b03808a1690891688611d82848d6131c2565b600083600601541215611ea7578260060154836005016000828254611e9a9190613070565b9091555050600060068401555b600383015460405133917f184abe81dc2f02915b1cd93143dc1987a077040f7de69181dd5eaf9b37bb715c91610f44918e8252602082015260400190565b6003546001600160a01b03163314611f0f5760405162461bcd60e51b8152600401610f829061315c565b600491909155600555565b6040805160208082018352606082526001600160a01b03841660009081526006825283902083518154808402820186018652928101838152939490939192849291849190840182828015611f8d57602002820191906000526020600020905b815481526020019060010190808311611f79575b5050505050815250509050919050565b336000908152600660205260409020805485919085908110611fc157611fc1613044565b906000526020600020015414611fea57604051630e7fea9d60e01b815260040160405180910390fd5b611ff3816124fe565b60085484106120155760405163721e09df60e01b815260040160405180910390fd5b60006008858154811061202a5761202a613044565b90600052602060002090600402019050826001600160c01b03166000148061205e57508060010154836001600160c01b0316115b1561207c5760405163b4e3d41360e01b815260040160405180910390fd5b826001600160c01b03168160010160008282546120999190613127565b92505081905550826001600160c01b03168160020160008282546120bd9190613070565b909155505060405163a9059cbb60e01b81523360048201526001600160c01b03841660248201527f00000000000000000000000000000000000000000000000000000000000000006001600160a01b03169063a9059cbb9060440161165d565b604080516101c08101825260008082526020820181905291810182905260608082018390526080820183905260a0820183905260c0820183905260e0820183905261010082018390526101208201839052610140820183905261016082019290925261018081018290526101a0810191909152600782815481106121a3576121a3613044565b6000918252602091829020604080516101c081018252600b909302909101805463ffffffff80821685526401000000008204811695850195909552600160401b8104909416918301919091529091606083019060ff600160601b90910416600481111561221257612212612b1f565b600481111561222357612223612b1f565b81526020016001820160009054906101000a90046001600160a01b03166001600160a01b03166001600160a01b0316815260200160028201548152602001600382015481526020016004820154815260200160058201548152602001600682015481526020016007820154815260200160088201548152602001600982018054806020026020016040519081016040528092919081815260200182805480156122eb57602002820191906000526020600020905b8154815260200190600101908083116122d7575b50505050508152602001600a8201805480602002602001604051908101604052809291908181526020018280548015611f8d57602002820191906000526020600020905b81546001600160c01b0316815260019091019060200180831161232f575050505050815250509050919050565b60608160405160200161236f9190613216565b6040516020818303038152906040529050919050565b6000818152602081905260409020546123b15760405163fa4a5e4560e01b815260040160405180910390fd5b50565b6003546001600160a01b031633146123de5760405162461bcd60e51b8152600401610f829061315c565b600380546001600160a01b0319166001600160a01b03831690811790915560405133907f8be0079c531659141344cd1fd0a4f28419497f9722a3daafe3b4186f6b6457e090600090a350565b61246f82826040516024016124409291906132eb565b60408051601f198184030181529190526020810180516001600160e01b03166309710a9d60e41b17905261266c565b5050565b60005b815181101561246f57617080600783838151811061249657612496613044565b6020026020010151815481106124ae576124ae613044565b60009182526020909120600b90910201546124d790640100000000900463ffffffff1642613127565b10156124f6576040516326349d6b60e01b815260040160405180910390fd5b600101612476565b60005b815181101561246f5761251382612473565b6000600783838151811061252957612529613044565b60200260200101518154811061254157612541613044565b90600052602060002090600b0201905060005b60098201548110156125f1576000600883600901838154811061257957612579613044565b90600052602060002001548154811061259457612594613044565b9060005260206000209060040201905082600a0182815481106125b9576125b9613044565b60009182526020822001546001830180546001600160c01b039092169290916125e3908490613070565b909155505050600101612554565b50805460ff60601b1916600360601b179055600101612501565b6123b18160405160240161261f9190613031565b60408051601f198184030181529190526020810180516001600160e01b031663104c13eb60e21b17905261266c565b600061265c6107e08361330d565b61266690836131c2565b92915050565b80516a636f6e736f6c652e6c6f67602083016000808483855afa5050505050565b8280548282559060005260206000209081019282156126c8579160200282015b828111156126c85782518255916020019190600101906126ad565b506126d492915061272d565b5090565b8280548282559060005260206000209081019282156126c8579160200282015b828111156126c857825182546001600160c01b0319166001600160c01b039091161782556020909201916001909101906126f8565b5b808211156126d4576000815560010161272e565b634e487b7160e01b600052604160045260246000fd5b60405161016081016001600160401b038111828210171561277b5761277b612742565b60405290565b604051601f8201601f191681016001600160401b03811182821017156127a9576127a9612742565b604052919050565b60006001600160401b038211156127ca576127ca612742565b5060051b60200190565b600082601f8301126127e557600080fd5b81356127f86127f3826127b1565b612781565b8082825260208201915060208360051b86010192508583111561281a57600080fd5b602085015b8381101561283757803583526020928301920161281f565b5095945050505050565b80356001600160c01b038116811461285857600080fd5b919050565b6001600160a01b03811681146123b157600080fd5b80356128588161285d565b600080600080600060a0868803121561289557600080fd5b85356001600160401b038111156128ab57600080fd5b6128b7888289016127d4565b95505060208601356001600160401b038111156128d357600080fd5b8601601f810188136128e457600080fd5b80356128f26127f3826127b1565b8082825260208201915060208360051b85010192508a83111561291457600080fd5b6020840193505b8284101561293d5761292c84612841565b82526020938401939091019061291b565b965061294f9250505060408701612872565b92506060860135915060808601356001600160401b0381111561297157600080fd5b61297d888289016127d4565b9150509295509295909350565b60006020828403121561299c57600080fd5b813560ff811681146129ad57600080fd5b9392505050565b6000602082840312156129c657600080fd5b5035919050565b600080600080600060a086880312156129e557600080fd5b85359450602086013593506040860135925060608601356001600160401b03811115612a1057600080fd5b612a1c888289016127d4565b95989497509295608001359392505050565b80356001600160401b038116811461285857600080fd5b600080600080600060a08688031215612a5d57600080fd5b85359450612a6d60208701612a2e565b935060408601356001600160501b031981168114612a8a57600080fd5b94979396509394606081013594506080013592915050565b60008060008060808587031215612ab857600080fd5b8435935060208501359250612acf60408601612a2e565b915060608501356001600160401b03811115612aea57600080fd5b612af6878288016127d4565b91505092959194509250565b600060208284031215612b1457600080fd5b81356129ad8161285d565b634e487b7160e01b600052602160045260246000fd5b60058110612b5357634e487b7160e01b600052602160045260246000fd5b9052565b63ffffffff8d811682528c811660208301528b1660408201526101808101612b82606083018c612b35565b6001600160a01b0399909916608082015260a081019790975260c087019590955260e086019390935261010085019190915261012084015261014083015261016090910152949350505050565b600082601f830112612be057600080fd5b81356001600160401b03811115612bf957612bf9612742565b612c0c601f8201601f1916602001612781565b818152846020838601011115612c2157600080fd5b816020850160208301376000918101602001919091529392505050565b600080600080600080600060e0888a031215612c5957600080fd5b8735965060208801359550604088013563ffffffff81168114612c7b57600080fd5b9450612c8960608901612a2e565b9350612c9760808901612a2e565b925060a08801356001600160401b03811115612cb257600080fd5b612cbe8a828b016127d4565b92505060c08801356001600160401b03811115612cda57600080fd5b612ce68a828b01612bcf565b91505092959891949750929550565b60008060408385031215612d0857600080fd5b50508035926020909101359150565b600081518084526020840193506020830160005b82811015612d49578151865260209586019590910190600101612d2b565b5093949350505050565b6020815260008251602080840152612d6e6040840182612d17565b949350505050565b60008060008060808587031215612d8c57600080fd5b8435935060208501359250612acf60408601612841565b600081518084526020840193506020830160005b82811015612d495781516001600160c01b0316865260209586019590910190600101612db7565b60208152612df560208201835163ffffffff169052565b60006020830151612e0e604084018263ffffffff169052565b50604083015163ffffffff81166060840152506060830151612e336080840182612b35565b5060808301516001600160a01b03811660a08401525060a083015160c083015260c083015160e083015260e08301516101008301526101008301516101208301526101208301516101408301526101408301516101608301526101608301516101808301526101808301516101c06101a0840152612eb56101e0840182612d17565b90506101a0840151601f19848303016101c0850152612ed48282612da3565b95945050505050565b600060208284031215612eef57600080fd5b81356001600160401b03811115612f0557600080fd5b82016101608185031215612f1857600080fd5b612f20612758565b813581526020808301359082015260408083013590820152612f4460608301612a2e565b6060820152612f5560808301612a2e565b608082015260a08281013590820152612f7060c08301612a2e565b60c0820152612f8160e08301612a2e565b60e0820152612f936101008301612a2e565b610100820152612fa66101208301612a2e565b6101208201526101408201356001600160401b03811115612fc657600080fd5b612fd2868285016127d4565b61014083015250949350505050565b60005b83811015612ffc578181015183820152602001612fe4565b50506000910152565b6000815180845261301d816020860160208601612fe1565b601f01601f19169290920160200192915050565b6020815260006129ad6020830184613005565b634e487b7160e01b600052603260045260246000fd5b634e487b7160e01b600052601160045260246000fd5b808201808211156126665761266661305a565b80820281158282048414176126665761266661305a565b634e487b7160e01b600052601260045260246000fd5b6000826130bf576130bf61309a565b500490565b600082516130d6818460208701612fe1565b9190910192915050565b6000602082840312156130f257600080fd5b5051919050565b6001600160a01b03959095168552602085019390935260408401919091526060830152608082015260a00190565b818103818111156126665761266661305a565b60006020828403121561314c57600080fd5b815180151581146129ad57600080fd5b6020808252600c908201526b15539055551213d49256915160a21b604082015260600190565b6000600182016131945761319461305a565b5060010190565b81810360008312801583831316838312821617156131bb576131bb61305a565b5092915050565b6001600160401b0382811682821603908111156126665761266661305a565b8381526060602082015260006131fa6060830185613005565b828103604084015261320c8185613005565b9695505050505050565b602081528151602082015260208201516040820152604082015160608201526000606083015161325160808401826001600160401b03169052565b5060808301516001600160401b03811660a08401525060a083015160c083015260c083015161328b60e08401826001600160401b03169052565b5060e08301516001600160401b038116610100840152506101008301516001600160401b038116610120840152506101208301516001600160401b0381166101408401525061014083015161016080840152612d6e610180840182612d17565b6040815260006132fe6040830185613005565b90508260208301529392505050565b60006001600160401b038316806133265761332661309a565b806001600160401b038416069150509291505056fea264697066735822122067dd3e5ecad4f2fb919150d211818b1108680ab4775b363fb9e2850772076c2464736f6c634300081a0033","linkReferences":{}},"methodIdentifiers":{"CHALLENGE_PERIOD()":"c3a079ed","DEPOSIT_TOKEN()":"13f66587","MAX_DEPOSIT_OUTPUTS()":"9cdb8e5a","MIN_ORDER_GAS_MULTIPLIER()":"5f5d5b6a","PROOF_GAS_COST()":"eb6c7522","RELEASE_GAS_COST()":"9a64279c","RESERVATION_LOCKUP_PERIOD()":"89a11f7a","SAMPLING_SIZE()":"ad062e55","TOKEN_DECIMALS()":"5b7f415c","addBlock(uint256,uint256,uint256,bytes32[],uint256)":"2d908c02","buildProofPublicInputs((bytes32,bytes32,bytes32,uint64,uint64,bytes32,uint64,uint64,uint64,uint64,bytes32[]))":"e118f0e6","circuitVerificationKey()":"3d7b22b3","currentConfirmationHeight()":"fba78166","currentHeight()":"163de0c5","depositLiquidity(uint256,uint64,bytes22,int256,int256)":"51a7f1cd","depositVaults(uint256)":"5f4d0610","emptyDepositVault(uint256)":"490d4c5f","getBlockHash(uint256)":"ee82ac5e","getDepositVault(uint256)":"276d080e","getDepositVaultUnreservedBalance(uint256)":"6512d057","getDepositVaultsLength()":"7dce5550","getLiquidityProvider(address)":"98f9e757","getReservation(uint256)":"d57763c3","getReservationLength()":"ea6fe03e","owner()":"8da5cb5b","proposeTransactionProof(uint256,bytes32,uint32,uint64,uint64,bytes32[],bytes)":"8f805ac9","protocolFeeBP()":"c5fba0b8","proverReward()":"6dcc17c8","releaseLiquidity(uint256)":"77891907","releaserReward()":"9cc7eab9","reserveLiquidity(uint256[],uint192[],address,uint256,uint256[])":"0140e183","swapReservations(uint256)":"6b994abb","transferOwnership(address)":"f2fde38b","updateExchangeRate(uint256,uint256,uint64,uint256[])":"56fe6f86","updateProtocolAddress(address)":"58e2b676","updateProtocolFee(uint8)":"0a7aa293","updateRewards(uint256,uint256)":"97e50818","validateBlockExists(uint256)":"ed8b2b32","verifierContract()":"cf695688","withdrawLiquidity(uint256,uint256,uint192,uint256[])":"aeacb2e7"},"storageLayout":{"storage":[{"astId":47835,"contract":"src/RiftExchange.sol:RiftExchange","label":"blockchain","offset":0,"slot":"0","type":"t_mapping(t_uint256,t_bytes32)"},{"astId":47837,"contract":"src/RiftExchange.sol:RiftExchange","label":"currentHeight","offset":0,"slot":"1","type":"t_uint256"},{"astId":47839,"contract":"src/RiftExchange.sol:RiftExchange","label":"currentConfirmationHeight","offset":0,"slot":"2","type":"t_uint256"},{"astId":46637,"contract":"src/RiftExchange.sol:RiftExchange","label":"owner","offset":0,"slot":"3","type":"t_address"},{"astId":48572,"contract":"src/RiftExchange.sol:RiftExchange","label":"protocolFeeBP","offset":20,"slot":"3","type":"t_uint8"},{"astId":48574,"contract":"src/RiftExchange.sol:RiftExchange","label":"proverReward","offset":0,"slot":"4","type":"t_uint256"},{"astId":48576,"contract":"src/RiftExchange.sol:RiftExchange","label":"releaserReward","offset":0,"slot":"5","type":"t_uint256"},{"astId":48661,"contract":"src/RiftExchange.sol:RiftExchange","label":"liquidityProviders","offset":0,"slot":"6","type":"t_mapping(t_address,t_struct(LiquidityProvider)48607_storage)"},{"astId":48665,"contract":"src/RiftExchange.sol:RiftExchange","label":"swapReservations","offset":0,"slot":"7","type":"t_array(t_struct(SwapReservation)48656_storage)dyn_storage"},{"astId":48669,"contract":"src/RiftExchange.sol:RiftExchange","label":"depositVaults","offset":0,"slot":"8","type":"t_array(t_struct(DepositVault)48618_storage)dyn_storage"},{"astId":48680,"contract":"src/RiftExchange.sol:RiftExchange","label":"protocolAddress","offset":0,"slot":"9","type":"t_address_payable"}],"types":{"t_address":{"encoding":"inplace","label":"address","numberOfBytes":"20"},"t_address_payable":{"encoding":"inplace","label":"address payable","numberOfBytes":"20"},"t_array(t_struct(DepositVault)48618_storage)dyn_storage":{"encoding":"dynamic_array","label":"struct RiftExchange.DepositVault[]","numberOfBytes":"32","base":"t_struct(DepositVault)48618_storage"},"t_array(t_struct(SwapReservation)48656_storage)dyn_storage":{"encoding":"dynamic_array","label":"struct RiftExchange.SwapReservation[]","numberOfBytes":"32","base":"t_struct(SwapReservation)48656_storage"},"t_array(t_uint192)dyn_storage":{"encoding":"dynamic_array","label":"uint192[]","numberOfBytes":"32","base":"t_uint192"},"t_array(t_uint256)dyn_storage":{"encoding":"dynamic_array","label":"uint256[]","numberOfBytes":"32","base":"t_uint256"},"t_bytes22":{"encoding":"inplace","label":"bytes22","numberOfBytes":"22"},"t_bytes32":{"encoding":"inplace","label":"bytes32","numberOfBytes":"32"},"t_enum(ReservationState)48624":{"encoding":"inplace","label":"enum RiftExchange.ReservationState","numberOfBytes":"1"},"t_int256":{"encoding":"inplace","label":"int256","numberOfBytes":"32"},"t_mapping(t_address,t_struct(LiquidityProvider)48607_storage)":{"encoding":"mapping","key":"t_address","label":"mapping(address => struct RiftExchange.LiquidityProvider)","numberOfBytes":"32","value":"t_struct(LiquidityProvider)48607_storage"},"t_mapping(t_uint256,t_bytes32)":{"encoding":"mapping","key":"t_uint256","label":"mapping(uint256 => bytes32)","numberOfBytes":"32","value":"t_bytes32"},"t_struct(DepositVault)48618_storage":{"encoding":"inplace","label":"struct RiftExchange.DepositVault","numberOfBytes":"128","members":[{"astId":48609,"contract":"src/RiftExchange.sol:RiftExchange","label":"initialBalance","offset":0,"slot":"0","type":"t_uint256"},{"astId":48611,"contract":"src/RiftExchange.sol:RiftExchange","label":"unreservedBalance","offset":0,"slot":"1","type":"t_uint256"},{"astId":48613,"contract":"src/RiftExchange.sol:RiftExchange","label":"withdrawnAmount","offset":0,"slot":"2","type":"t_uint256"},{"astId":48615,"contract":"src/RiftExchange.sol:RiftExchange","label":"exchangeRate","offset":0,"slot":"3","type":"t_uint64"},{"astId":48617,"contract":"src/RiftExchange.sol:RiftExchange","label":"btcPayoutLockingScript","offset":8,"slot":"3","type":"t_bytes22"}]},"t_struct(LiquidityProvider)48607_storage":{"encoding":"inplace","label":"struct RiftExchange.LiquidityProvider","numberOfBytes":"32","members":[{"astId":48606,"contract":"src/RiftExchange.sol:RiftExchange","label":"depositVaultIndexes","offset":0,"slot":"0","type":"t_array(t_uint256)dyn_storage"}]},"t_struct(SwapReservation)48656_storage":{"encoding":"inplace","label":"struct RiftExchange.SwapReservation","numberOfBytes":"352","members":[{"astId":48626,"contract":"src/RiftExchange.sol:RiftExchange","label":"confirmationBlockHeight","offset":0,"slot":"0","type":"t_uint32"},{"astId":48628,"contract":"src/RiftExchange.sol:RiftExchange","label":"reservationTimestamp","offset":4,"slot":"0","type":"t_uint32"},{"astId":48630,"contract":"src/RiftExchange.sol:RiftExchange","label":"unlockTimestamp","offset":8,"slot":"0","type":"t_uint32"},{"astId":48633,"contract":"src/RiftExchange.sol:RiftExchange","label":"state","offset":12,"slot":"0","type":"t_enum(ReservationState)48624"},{"astId":48635,"contract":"src/RiftExchange.sol:RiftExchange","label":"ethPayoutAddress","offset":0,"slot":"1","type":"t_address"},{"astId":48637,"contract":"src/RiftExchange.sol:RiftExchange","label":"lpReservationHash","offset":0,"slot":"2","type":"t_bytes32"},{"astId":48639,"contract":"src/RiftExchange.sol:RiftExchange","label":"nonce","offset":0,"slot":"3","type":"t_bytes32"},{"astId":48641,"contract":"src/RiftExchange.sol:RiftExchange","label":"totalSatsInputInlcudingProxyFee","offset":0,"slot":"4","type":"t_uint256"},{"astId":48643,"contract":"src/RiftExchange.sol:RiftExchange","label":"totalSwapOutputAmount","offset":0,"slot":"5","type":"t_uint256"},{"astId":48645,"contract":"src/RiftExchange.sol:RiftExchange","label":"prepaidFeeAmount","offset":0,"slot":"6","type":"t_int256"},{"astId":48647,"contract":"src/RiftExchange.sol:RiftExchange","label":"proposedBlockHeight","offset":0,"slot":"7","type":"t_uint256"},{"astId":48649,"contract":"src/RiftExchange.sol:RiftExchange","label":"proposedBlockHash","offset":0,"slot":"8","type":"t_bytes32"},{"astId":48652,"contract":"src/RiftExchange.sol:RiftExchange","label":"vaultIndexes","offset":0,"slot":"9","type":"t_array(t_uint256)dyn_storage"},{"astId":48655,"contract":"src/RiftExchange.sol:RiftExchange","label":"amountsToReserve","offset":0,"slot":"10","type":"t_array(t_uint192)dyn_storage"}]},"t_uint192":{"encoding":"inplace","label":"uint192","numberOfBytes":"24"},"t_uint256":{"encoding":"inplace","label":"uint256","numberOfBytes":"32"},"t_uint32":{"encoding":"inplace","label":"uint32","numberOfBytes":"4"},"t_uint64":{"encoding":"inplace","label":"uint64","numberOfBytes":"8"},"t_uint8":{"encoding":"inplace","label":"uint8","numberOfBytes":"1"}}},"id":32}