{"abi":[{"type":"constructor","inputs":[{"name":"initialCheckpointHeight","type":"uint256","internalType":"uint256"},{"name":"initialBlockHash","type":"bytes32","internalType":"bytes32"},{"name":"verifierContractAddress","type":"address","internalType":"address"},{"name":"depositTokenAddress","type":"address","internalType":"address"}],"stateMutability":"nonpayable"},{"type":"function","name":"CHALLENGE_PERIOD","inputs":[],"outputs":[{"name":"","type":"uint256","internalType":"uint256"}],"stateMutability":"view"},{"type":"function","name":"DEPOSIT_TOKEN","inputs":[],"outputs":[{"name":"","type":"address","internalType":"contract IERC20"}],"stateMutability":"view"},{"type":"function","name":"MAX_DEPOSIT_OUTPUTS","inputs":[],"outputs":[{"name":"","type":"uint16","internalType":"uint16"}],"stateMutability":"view"},{"type":"function","name":"MIN_ORDER_GAS_MULTIPLIER","inputs":[],"outputs":[{"name":"","type":"uint256","internalType":"uint256"}],"stateMutability":"view"},{"type":"function","name":"PROOF_GAS_COST","inputs":[],"outputs":[{"name":"","type":"uint256","internalType":"uint256"}],"stateMutability":"view"},{"type":"function","name":"RELEASE_GAS_COST","inputs":[],"outputs":[{"name":"","type":"uint256","internalType":"uint256"}],"stateMutability":"view"},{"type":"function","name":"RESERVATION_LOCKUP_PERIOD","inputs":[],"outputs":[{"name":"","type":"uint256","internalType":"uint256"}],"stateMutability":"view"},{"type":"function","name":"SAMPLING_SIZE","inputs":[],"outputs":[{"name":"","type":"uint8","internalType":"uint8"}],"stateMutability":"view"},{"type":"function","name":"addBlock","inputs":[{"name":"blockCheckpointHeight","type":"uint256","internalType":"uint256"},{"name":"blockHeight","type":"uint256","internalType":"uint256"},{"name":"blockHash","type":"bytes32","internalType":"bytes32"}],"outputs":[],"stateMutability":"nonpayable"},{"type":"function","name":"currentHeight","inputs":[],"outputs":[{"name":"","type":"uint256","internalType":"uint256"}],"stateMutability":"view"},{"type":"function","name":"depositLiquidity","inputs":[{"name":"btcPayoutLockingScript","type":"bytes22","internalType":"bytes22"},{"name":"btcExchangeRate","type":"uint64","internalType":"uint64"},{"name":"vaultIndexToOverwrite","type":"int256","internalType":"int256"},{"name":"depositAmount","type":"uint192","internalType":"uint192"},{"name":"vaultIndexWithSameExchangeRate","type":"int256","internalType":"int256"}],"outputs":[],"stateMutability":"nonpayable"},{"type":"function","name":"depositVaults","inputs":[{"name":"","type":"uint256","internalType":"uint256"}],"outputs":[{"name":"initialBalance","type":"uint256","internalType":"uint256"},{"name":"unreservedBalance","type":"uint192","internalType":"uint192"},{"name":"btcExchangeRate","type":"uint64","internalType":"uint64"},{"name":"btcPayoutLockingScript","type":"bytes22","internalType":"bytes22"}],"stateMutability":"view"},{"type":"function","name":"emptyDepositVault","inputs":[{"name":"vaultIndex","type":"uint256","internalType":"uint256"}],"outputs":[],"stateMutability":"nonpayable"},{"type":"function","name":"getBlockHash","inputs":[{"name":"blockHeight","type":"uint256","internalType":"uint256"}],"outputs":[{"name":"","type":"bytes32","internalType":"bytes32"}],"stateMutability":"view"},{"type":"function","name":"getDepositVault","inputs":[{"name":"depositIndex","type":"uint256","internalType":"uint256"}],"outputs":[{"name":"","type":"tuple","internalType":"struct RiftExchange.DepositVault","components":[{"name":"initialBalance","type":"uint256","internalType":"uint256"},{"name":"unreservedBalance","type":"uint192","internalType":"uint192"},{"name":"btcExchangeRate","type":"uint64","internalType":"uint64"},{"name":"btcPayoutLockingScript","type":"bytes22","internalType":"bytes22"}]}],"stateMutability":"view"},{"type":"function","name":"getDepositVaultUnreservedBalance","inputs":[{"name":"depositIndex","type":"uint256","internalType":"uint256"}],"outputs":[{"name":"","type":"uint256","internalType":"uint256"}],"stateMutability":"view"},{"type":"function","name":"getDepositVaultsLength","inputs":[],"outputs":[{"name":"","type":"uint256","internalType":"uint256"}],"stateMutability":"view"},{"type":"function","name":"getLiquidityProvider","inputs":[{"name":"lpAddress","type":"address","internalType":"address"}],"outputs":[{"name":"","type":"tuple","internalType":"struct RiftExchange.LiquidityProvider","components":[{"name":"depositVaultIndexes","type":"uint256[]","internalType":"uint256[]"}]}],"stateMutability":"view"},{"type":"function","name":"getReservation","inputs":[{"name":"reservationIndex","type":"uint256","internalType":"uint256"}],"outputs":[{"name":"","type":"tuple","internalType":"struct RiftExchange.SwapReservation","components":[{"name":"confirmationBlockHeight","type":"uint32","internalType":"uint32"},{"name":"reservationTimestamp","type":"uint32","internalType":"uint32"},{"name":"unlockTimestamp","type":"uint32","internalType":"uint32"},{"name":"state","type":"uint8","internalType":"enum RiftExchange.ReservationState"},{"name":"ethPayoutAddress","type":"address","internalType":"address"},{"name":"lpReservationHash","type":"bytes32","internalType":"bytes32"},{"name":"nonce","type":"bytes32","internalType":"bytes32"},{"name":"totalSwapAmount","type":"uint256","internalType":"uint256"},{"name":"prepaidFeeAmount","type":"int256","internalType":"int256"},{"name":"vaultIndexes","type":"uint256[]","internalType":"uint256[]"},{"name":"amountsToReserve","type":"uint192[]","internalType":"uint192[]"}]}],"stateMutability":"view"},{"type":"function","name":"getReservationLength","inputs":[],"outputs":[{"name":"","type":"uint256","internalType":"uint256"}],"stateMutability":"view"},{"type":"function","name":"proposeTransactionProof","inputs":[{"name":"swapReservationIndex","type":"uint256","internalType":"uint256"},{"name":"btcBlockHash","type":"bytes32","internalType":"bytes32"},{"name":"blockCheckpointHeight","type":"uint32","internalType":"uint32"},{"name":"confirmationBlockHash","type":"bytes32","internalType":"bytes32"},{"name":"confirmationBlockHeightDelta","type":"uint256","internalType":"uint256"},{"name":"proof","type":"bytes","internalType":"bytes"}],"outputs":[],"stateMutability":"nonpayable"},{"type":"function","name":"protocolFeeBP","inputs":[],"outputs":[{"name":"","type":"uint8","internalType":"uint8"}],"stateMutability":"view"},{"type":"function","name":"proverReward","inputs":[],"outputs":[{"name":"","type":"uint256","internalType":"uint256"}],"stateMutability":"view"},{"type":"function","name":"releaseLiquidity","inputs":[{"name":"swapReservationIndex","type":"uint256","internalType":"uint256"}],"outputs":[],"stateMutability":"nonpayable"},{"type":"function","name":"releaserReward","inputs":[],"outputs":[{"name":"","type":"uint256","internalType":"uint256"}],"stateMutability":"view"},{"type":"function","name":"reserveLiquidity","inputs":[{"name":"vaultIndexesToReserve","type":"uint256[]","internalType":"uint256[]"},{"name":"amountsToReserve","type":"uint192[]","internalType":"uint192[]"},{"name":"totalSwapAmount","type":"uint256","internalType":"uint256"},{"name":"ethPayoutAddress","type":"address","internalType":"address"},{"name":"expiredSwapReservationIndexes","type":"uint256[]","internalType":"uint256[]"}],"outputs":[],"stateMutability":"nonpayable"},{"type":"function","name":"swapReservations","inputs":[{"name":"","type":"uint256","internalType":"uint256"}],"outputs":[{"name":"confirmationBlockHeight","type":"uint32","internalType":"uint32"},{"name":"reservationTimestamp","type":"uint32","internalType":"uint32"},{"name":"unlockTimestamp","type":"uint32","internalType":"uint32"},{"name":"state","type":"uint8","internalType":"enum RiftExchange.ReservationState"},{"name":"ethPayoutAddress","type":"address","internalType":"address"},{"name":"lpReservationHash","type":"bytes32","internalType":"bytes32"},{"name":"nonce","type":"bytes32","internalType":"bytes32"},{"name":"totalSwapAmount","type":"uint256","internalType":"uint256"},{"name":"prepaidFeeAmount","type":"int256","internalType":"int256"}],"stateMutability":"view"},{"type":"function","name":"treasuryFee","inputs":[],"outputs":[{"name":"","type":"uint8","internalType":"uint8"}],"stateMutability":"view"},{"type":"function","name":"updateExchangeRate","inputs":[{"name":"globalVaultIndex","type":"uint256","internalType":"uint256"},{"name":"localVaultIndex","type":"uint256","internalType":"uint256"},{"name":"newBtcExchangeRate","type":"uint64","internalType":"uint64"},{"name":"expiredReservationIndexes","type":"uint256[]","internalType":"uint256[]"}],"outputs":[],"stateMutability":"nonpayable"},{"type":"function","name":"validateBlockExists","inputs":[{"name":"blockHeight","type":"uint256","internalType":"uint256"}],"outputs":[],"stateMutability":"view"},{"type":"function","name":"verifierContract","inputs":[],"outputs":[{"name":"","type":"address","internalType":"contract UltraVerifier"}],"stateMutability":"view"},{"type":"function","name":"withdrawLiquidity","inputs":[{"name":"globalVaultIndex","type":"uint256","internalType":"uint256"},{"name":"localVaultIndex","type":"uint256","internalType":"uint256"},{"name":"amountToWithdraw","type":"uint192","internalType":"uint192"},{"name":"expiredReservationIndexes","type":"uint256[]","internalType":"uint256[]"}],"outputs":[],"stateMutability":"nonpayable"},{"type":"error","name":"BlockDoesNotExist","inputs":[]},{"type":"error","name":"InvaidSameExchangeRatevaultIndex","inputs":[]},{"type":"error","name":"InvalidCheckpoint","inputs":[]},{"type":"error","name":"InvalidOrder","inputs":[]},{"type":"error","name":"InvalidUpdateWithActiveReservations","inputs":[]},{"type":"error","name":"InvalidVaultIndex","inputs":[]},{"type":"error","name":"InvalidVaultUpdate","inputs":[]},{"type":"error","name":"NotEnoughLiquidity","inputs":[]},{"type":"error","name":"NotVaultOwner","inputs":[]},{"type":"error","name":"ReservationAmountTooLow","inputs":[]},{"type":"error","name":"ReservationNotExpired","inputs":[]},{"type":"error","name":"ReservationNotUnlocked","inputs":[]},{"type":"error","name":"StillInChallengePeriod","inputs":[]},{"type":"error","name":"WithdrawalAmountError","inputs":[]},{"type":"error","name":"exchangeRateZero","inputs":[]}],"bytecode":{"object":"0x60c06040526002805461ffff1916606417905566071afd498d000060035565b5e620f48000600455600880546001600160a01b03191673f39fd6e51aad88f6f4ce6ab8827279cfffb9226617905534801561005957600080fd5b50604051612bd0380380612bd0833981016040819052610078916100c3565b6001849055600093845260208490526040909320919091556001600160a01b0390811660a05216608052610109565b80516001600160a01b03811681146100be57600080fd5b919050565b600080600080608085870312156100d957600080fd5b84519350602085015192506100f0604086016100a7565b91506100fe606086016100a7565b905092959194509250565b60805160a051612a6a610166600039600061047e01526000818161020f0152818161084d01528181610a0201528181610dec01528181610ede015281816116600152818161174401528181611b0e0152611baa0152612a6a6000f3fe608060405234801561001057600080fd5b50600436106101f05760003560e01c806398f9e7571161010f578063cc32d176116100a2578063ea6fe03e11610071578063ea6fe03e146104d3578063eb6c7522146104db578063ed8b2b32146104e5578063ee82ac5e146104f857600080fd5b8063cc32d17614610467578063cf69568814610479578063d57763c3146104a0578063e9c6c176146104c057600080fd5b8063ad062e55116100de578063ad062e5514610424578063aeacb2e71461043e578063c3a079ed14610451578063c5fba0b81461045a57600080fd5b806398f9e757146103d65780639a64279c146103f65780639cc7eab9146104005780639cdb8e5a1461040957600080fd5b80635f5d5b6a116101875780637789190711610156578063778919071461039f5780637dce5550146103b257806389a11f7a146103ba5780638f23a97a146103c357600080fd5b80635f5d5b6a146103535780636512d0571461035b5780636b994abb1461036e5780636dcc17c81461039657600080fd5b806328cbee4b116101c357806328cbee4b146102c7578063490d4c5f146102da57806356fe6f86146102ed5780635f4d06101461030057600080fd5b806311d0d28f146101f557806313f665871461020a578063163de0c51461024e578063276d080e14610265575b600080fd5b610208610203366004612201565b610518565b005b6102317f000000000000000000000000000000000000000000000000000000000000000081565b6040516001600160a01b0390911681526020015b60405180910390f35b61025760015481565b604051908152602001610245565b610278610273366004612265565b6108cb565b6040516102459190815181526020808301516001600160c01b0316908201526040808301516001600160401b0316908201526060918201516001600160501b0319169181019190915260800190565b6102086102d53660046122c4565b61096d565b6102086102e8366004612265565b610acd565b6102086102fb36600461242d565b610b11565b61031361030e366004612265565b610c11565b604080519485526001600160c01b0390931660208501526001600160401b03909116918301919091526001600160501b0319166060820152608001610245565b610257600281565b610257610369366004612265565b610c63565b61038161037c366004612265565b610c9b565b604051610245999897969594939291906124c5565b61025760035481565b6102086103ad366004612265565b610d11565b600754610257565b61025761708081565b6102086103d136600461253c565b610f63565b6103e96103e4366004612648565b6117c0565b60405161024591906126a6565b6102576203345081565b61025760045481565b610411603281565b60405161ffff9091168152602001610245565b61042c600a81565b60405160ff9091168152602001610245565b61020861044c3660046126c9565b611843565b61025761025881565b60025461042c9060ff1681565b60025461042c90610100900460ff1681565b6102317f000000000000000000000000000000000000000000000000000000000000000081565b6104b36104ae366004612265565b611be1565b6040516102459190612731565b6102086104ce36600461280c565b611dea565b600654610257565b610257620668a081565b6102086104f3366004612265565b611e70565b610257610506366004612265565b60009081526020819052604090205490565b836001600160401b031660000361054257604051635c4ad48d60e11b815260040160405180910390fd5b3360009081526005602052604081205490036105905760408051600060208083018281528385018552835233825260058152929020815180519293919261058c9284920190612119565b5050505b806000191461065c5760008190506000600782815481106105b3576105b3612838565b90600052602060002090600302019050856001600160401b03168160010160189054906101000a90046001600160401b03166001600160401b03160361063c576001810180548591906000906106139084906001600160c01b0316612864565b92506101000a8154816001600160c01b0302191690836001600160c01b03160217905550610655565b60405163927ce9e760e01b815260040160405180910390fd5b50506107ef565b82600019146106f85760006007848154811061067a5761067a612838565b6000918252602090912060039091020160018101549091506001600160c01b0316156106b95760405163721e09df60e01b815260040160405180910390fd5b6001600160c01b038316808255600160c01b6001600160401b0387160217600182015560020180546001600160b01b031916605087901c1790556107ef565b604080516080810182526001600160c01b03848116808352602083019081526001600160401b038881169484019485526001600160501b03198a16606085019081526007805460018101825560009190915294517fa66cc928b5edb82af9bd49922954155ab7b0942694bea4ce44661d9a8736c6886003909602958601559151945194909216600160c01b9490921693909302177fa66cc928b5edb82af9bd49922954155ab7b0942694bea4ce44661d9a8736c68982015590517fa66cc928b5edb82af9bd49922954155ab7b0942694bea4ce44661d9a8736c68a90910180546001600160b01b03191660509290921c9190911790555b33600090815260056020526040902060075461080d90600190612889565b815460018101835560009283526020909220909101556040516323b872dd60e01b81523360048201523060248201526001600160c01b03831660448201527f00000000000000000000000000000000000000000000000000000000000000006001600160a01b0316906323b872dd906064015b6020604051808303816000875af115801561089f573d6000803e3d6000fd5b505050506040513d601f19601f820116820180604052508101906108c3919061289c565b505050505050565b6040805160808101825260008082526020820181905291810182905260608101919091526007828154811061090257610902612838565b6000918252602091829020604080516080810182526003939093029091018054835260018101546001600160c01b03811694840194909452600160c01b9093046001600160401b03169082015260029091015460501b6001600160501b031916606082015292915050565b60006006878154811061098257610982612838565b906000526020600020906008020190506109a38563ffffffff168486611dea565b8054600160611b6cff0000000000000000ffffffff1990911663ffffffff87161717815560006109d648620668a06128be565b6003546109e391906128d5565b60405163a9059cbb60e01b8152336004820152602481018290529091507f00000000000000000000000000000000000000000000000000000000000000006001600160a01b03169063a9059cbb906044016020604051808303816000875af1158015610a53573d6000803e3d6000fd5b505050506040513d601f19601f82011682018060405250810190610a77919061289c565b5080826005016000828254610a8c91906128e8565b9091555050600582015460001315610ac3578160050154826004016000828254610ab691906128d5565b9091555050600060058301555b5050505050505050565b600060078281548110610ae257610ae2612838565b600091825260208220600390910201818155600181019190915560020180546001600160b01b03191690555050565b336000908152600560205260409020805485919085908110610b3557610b35612838565b906000526020600020015414610b5e57604051630e7fea9d60e01b815260040160405180910390fd5b816001600160401b0316600003610b8857604051636e5a187760e11b815260040160405180910390fd5b600060078581548110610b9d57610b9d612838565b90600052602060002090600302019050610bb682611e9f565b805460018201546001600160c01b031614610be4576040516391bc6cc360e01b815260040160405180910390fd5b60010180546001600160401b03909316600160c01b026001600160c01b0390931692909217909155505050565b60078181548110610c2157600080fd5b60009182526020909120600390910201805460018201546002909201549092506001600160c01b03821691600160c01b90046001600160401b03169060501b84565b600060078281548110610c7857610c78612838565b60009182526020909120600160039092020101546001600160c01b031692915050565b60068181548110610cab57600080fd5b600091825260209091206008909102018054600182015460028301546003840154600485015460059095015463ffffffff80861697506401000000008604811696600160401b870490911695600160601b900460ff16946001600160a01b031693929189565b600060068281548110610d2657610d26612838565b60009182526020909120600890910201905060028154600160601b900460ff166004811115610d5757610d5761248d565b14610d755760405163b38c767b60e01b815260040160405180910390fd5b805461025890610d9290600160401b900463ffffffff1642612889565b1015610db157604051632d5c37f560e21b815260040160405180910390fd5b6000610dc048620334506128be565b600454610dcd91906128d5565b60405163a9059cbb60e01b8152336004820152602481018290529091507f00000000000000000000000000000000000000000000000000000000000000006001600160a01b03169063a9059cbb906044016020604051808303816000875af1158015610e3d573d6000803e3d6000fd5b505050506040513d601f19601f82011682018060405250810190610e61919061289c565b5080826005016000828254610e7691906128e8565b9091555050600582015460001315610ead578160050154826004016000828254610ea091906128d5565b9091555050600060058301555b600182015460048084015460405163a9059cbb60e01b81526001600160a01b039384169281019290925260248201527f00000000000000000000000000000000000000000000000000000000000000009091169063a9059cbb906044016020604051808303816000875af1158015610f29573d6000803e3d6000fd5b505050506040513d601f19601f82011682018060405250810190610f4d919061289c565b5050805460ff60601b1916600160621b17905550565b6000805b8551811015610fa857858181518110610f8257610f82612838565b60200260200101516001600160c01b031682610f9e91906128d5565b9150600101610f67565b50838114610fc95760405163af61069360e01b815260040160405180910390fd5b600254600090610fdf906127109060ff1661290f565b610fed9061ffff16866128be565b90506000600261100048620668a06128be565b61100a91906128be565b60035461101791906128d5565b90506000600261102a48620334506128be565b61103491906128be565b60045461104191906128d5565b90508061104e84846128d5565b61105891906128d5565b871015611078576040516359cf7a8d60e11b815260040160405180910390fd5b6110818561202d565b61108a85611e9f565b6000805b8a5181101561127d5760028a82815181106110ab576110ab612838565b602002602001015160078d84815181106110c7576110c7612838565b6020026020010151815481106110df576110df612838565b906000526020600020906003020160010160189054906101000a90046001600160401b031660078e858151811061111857611118612838565b60200260200101518154811061113057611130612838565b60009182526020918290206002600392909202010154604080516001600160c01b0395909516928501929092526001600160401b03929092169083015260501b6001600160501b03191660608201526080810184905260a00160408051601f19818403018152908290526111a391612965565b602060405180830381855afa1580156111c0573d6000803e3d6000fd5b5050506040513d601f19601f820116820180604052508101906111e39190612981565b915060078b82815181106111f9576111f9612838565b60200260200101518154811061121157611211612838565b60009182526020909120600160039092020101548a516001600160c01b03909116908b908390811061124557611245612838565b60200260200101516001600160c01b0316111561127557604051634323a55560e01b815260040160405180910390fd5b60010161108e565b508551156113bc57600060068760008151811061129c5761129c612838565b6020026020010151815481106112b4576112b4612838565b6000918252602090912060089091020180546001820180546001600160a01b0319166001600160a01b038c16179055600160601b6cffffffffffffffffffffffffff199091166401000000004263ffffffff16026bffffffff00000000ffffffff191617178155905061132783856128d5565b600582015560048101899055600654604080516001600160a01b038b16602082015242918101919091524660608201526080810184905260a081019190915260c00160408051601f19818403018152919052805160209182012060038301558b5161139a916006840191908e0190612119565b5089516113b090600783019060208d0190612164565b506002018190556115a7565b604080516101608101825260008082524263ffffffff1660208301529181019190915260069060608101600181526001600160a01b038a16602080830182905260408084018790526006548151928301939093524290820152466060828101919091526080820187905260a082019290925291019060c0016040516020818303038152906040528051906020012081526020018a8152602001848661146191906128d5565b815260208082018e905260409182018d9052835460018101855560009485529381902083516008909502018054918401519284015163ffffffff908116600160401b026bffffffff0000000000000000199482166401000000000267ffffffffffffffff199094169190961617919091179182168417815560608301519293909291839160ff60601b19166cffffffffff00000000000000001990911617600160601b8360048111156115165761151661248d565b021790555060808201516001820180546001600160a01b0319166001600160a01b0390921691909117905560a0820151600282015560c0820151600382015560e0820151600482015561010082015160058201556101208201518051611586916006840191602090910190612119565b5061014082015180516115a3916007840191602090910190612164565b5050505b60005b8a51811015611655578981815181106115c5576115c5612838565b602002602001015160078c83815181106115e1576115e1612838565b6020026020010151815481106115f9576115f9612838565b60009182526020822060016003909202010180549091906116249084906001600160c01b031661299a565b92506101000a8154816001600160c01b0302191690836001600160c01b0316021790555080806001019150506115aa565b506001600160a01b037f0000000000000000000000000000000000000000000000000000000000000000166323b872dd33308561169289896128d5565b61169c91906128d5565b6040516001600160e01b031960e086901b1681526001600160a01b03938416600482015292909116602483015260448201526064016020604051808303816000875af11580156116f0573d6000803e3d6000fd5b505050506040513d601f19601f82011682018060405250810190611714919061289c565b506008546040516323b872dd60e01b81523060048201526001600160a01b039182166024820152604481018690527f0000000000000000000000000000000000000000000000000000000000000000909116906323b872dd906064016020604051808303816000875af115801561178f573d6000803e3d6000fd5b505050506040513d601f19601f820116820180604052508101906117b3919061289c565b5050505050505050505050565b6040805160208082018352606082526001600160a01b0384166000908152600582528390208351815480840282018601865292810183815293949093919284929184919084018282801561183357602002820191906000526020600020905b81548152602001906001019080831161181f575b5050505050815250509050919050565b33600090815260056020526040902080548591908590811061186757611867612838565b90600052602060002001541461189057604051630e7fea9d60e01b815260040160405180910390fd5b6118be6040518060400160405280600c81526020016b03b30bab63a24b73232bc1d160a51b815250856120b8565b61190b6040518060600160405280604081526020016129f5604091393360009081526005602052604090208054879081106118fb576118fb612838565b90600052602060002001546120b8565b61191481611e9f565b60075484106119365760405163721e09df60e01b815260040160405180910390fd5b60006007858154811061194b5761194b612838565b90600052602060002090600302019050826001600160c01b031660001480611983575060018101546001600160c01b03908116908416115b156119a15760405163b4e3d41360e01b815260040160405180910390fd5b60408051808201909152601a81527f756e726573657276656442616c616e6365206265666f72653a20000000000000602082015260018201546119ed91906001600160c01b03166120b8565b600181018054849190600090611a0d9084906001600160c01b031661299a565b92506101000a8154816001600160c01b0302191690836001600160c01b03160217905550611a906040518060400160405280601981526020017f756e726573657276656442616c616e63652061667465723a20000000000000008152508260010160009054906101000a90046001600160c01b03166001600160c01b03166120b8565b611acd60405180604001604052806012815260200171030b6b7bab73a2a37abb4ba34323930bb9d160751b815250846001600160c01b03166120b8565b6040805180820182526012815271031b7b73a3930b1ba103130b630b731b29d160751b602082015290516370a0823160e01b8152306004820152611b8691907f00000000000000000000000000000000000000000000000000000000000000006001600160a01b0316906370a0823190602401602060405180830381865afa158015611b5d573d6000803e3d6000fd5b505050506040513d601f19601f82011682018060405250810190611b819190612981565b6120b8565b60405163a9059cbb60e01b81523360048201526001600160c01b03841660248201527f00000000000000000000000000000000000000000000000000000000000000006001600160a01b03169063a9059cbb90604401610880565b604080516101608101825260008082526020820181905291810182905260608082018390526080820183905260a0820183905260c0820183905260e08201839052610100820192909252610120810182905261014081019190915260068281548110611c4f57611c4f612838565b600091825260209182902060408051610160810182526008909302909101805463ffffffff80821685526401000000008204811695850195909552600160401b8104909416918301919091529091606083019060ff600160601b909104166004811115611cbe57611cbe61248d565b6004811115611ccf57611ccf61248d565b81526020016001820160009054906101000a90046001600160a01b03166001600160a01b03166001600160a01b031681526020016002820154815260200160038201548152602001600482015481526020016005820154815260200160068201805480602002602001604051908101604052809291908181526020018280548015611d7957602002820191906000526020600020905b815481526020019060010190808311611d65575b505050505081526020016007820180548060200260200160405190810160405280929190818152602001828054801561183357602002820191906000526020600020905b81546001600160c01b03168152600190910190602001808311611dbd575050505050815250509050919050565b60015480841115611e0e57604051630f0f97d160e01b815260040160405180910390fd5b8084108015611e1d5750808310155b15611e5a57835b81811015611e585760008181526020819052604090205415611e50576000818152602081905260408120555b600101611e24565b505b5060008281526020819052604090205560015550565b600081815260208190526040902054611e9c5760405163fa4a5e4560e01b815260040160405180910390fd5b50565b60005b815181101561202957611eb48261202d565b611f0c6040518060400160405280601e81526020017f657870697265645265736572766174696f6e496e64657865735b695d3a200000815250838381518110611eff57611eff612838565b60200260200101516120b8565b60006006838381518110611f2257611f22612838565b602002602001015181548110611f3a57611f3a612838565b9060005260206000209060080201905060005b600682015481101561200f5760006007836006018381548110611f7257611f72612838565b906000526020600020015481548110611f8d57611f8d612838565b90600052602060002090600302019050826007018281548110611fb257611fb2612838565b60009182526020822001546001830180546001600160c01b03928316939192611fdd91859116612864565b92506101000a8154816001600160c01b0302191690836001600160c01b03160217905550508080600101915050611f4d565b50805460ff60601b1916600360601b179055600101611ea2565b5050565b60005b815181101561202957617080600683838151811061205057612050612838565b60200260200101518154811061206857612068612838565b600091825260209091206008909102015461209190640100000000900463ffffffff1642612889565b10156120b0576040516326349d6b60e01b815260040160405180910390fd5b600101612030565b61202982826040516024016120ce9291906129b9565b60408051601f198184030181529190526020810180516001600160e01b03166309710a9d60e41b17905280516a636f6e736f6c652e6c6f67602083016000808483855afa5050505050565b828054828255906000526020600020908101928215612154579160200282015b82811115612154578251825591602001919060010190612139565b506121609291506121b9565b5090565b828054828255906000526020600020908101928215612154579160200282015b8281111561215457825182546001600160c01b0319166001600160c01b03909116178255602090920191600190910190612184565b5b8082111561216057600081556001016121ba565b80356001600160401b03811681146121e557600080fd5b919050565b80356001600160c01b03811681146121e557600080fd5b600080600080600060a0868803121561221957600080fd5b85356001600160501b03198116811461223157600080fd5b945061223f602087016121ce565b935060408601359250612254606087016121ea565b949793965091946080013592915050565b60006020828403121561227757600080fd5b5035919050565b634e487b7160e01b600052604160045260246000fd5b604051601f8201601f191681016001600160401b03811182821017156122bc576122bc61227e565b604052919050565b60008060008060008060c087890312156122dd57600080fd5b8635955060208701359450604087013563ffffffff811681146122ff57600080fd5b9350606087013592506080870135915060a08701356001600160401b0381111561232857600080fd5b8701601f8101891361233957600080fd5b80356001600160401b038111156123525761235261227e565b612365601f8201601f1916602001612294565b8181528a602083850101111561237a57600080fd5b816020840160208301376000602083830101528093505050509295509295509295565b60006001600160401b038211156123b6576123b661227e565b5060051b60200190565b600082601f8301126123d157600080fd5b81356123e46123df8261239d565b612294565b8082825260208201915060208360051b86010192508583111561240657600080fd5b602085015b8381101561242357803583526020928301920161240b565b5095945050505050565b6000806000806080858703121561244357600080fd5b843593506020850135925061245a604086016121ce565b915060608501356001600160401b0381111561247557600080fd5b612481878288016123c0565b91505092959194509250565b634e487b7160e01b600052602160045260246000fd5b600581106124c157634e487b7160e01b600052602160045260246000fd5b9052565b63ffffffff8a8116825289811660208301528816604082015261012081016124f060608301896124a3565b6001600160a01b0396909616608082015260a081019490945260c084019290925260e083015261010090910152949350505050565b80356001600160a01b03811681146121e557600080fd5b600080600080600060a0868803121561255457600080fd5b85356001600160401b0381111561256a57600080fd5b612576888289016123c0565b95505060208601356001600160401b0381111561259257600080fd5b8601601f810188136125a357600080fd5b80356125b16123df8261239d565b8082825260208201915060208360051b85010192508a8311156125d357600080fd5b6020840193505b828410156125fc576125eb846121ea565b8252602093840193909101906125da565b96505050506040860135925061261460608701612525565b915060808601356001600160401b0381111561262f57600080fd5b61263b888289016123c0565b9150509295509295909350565b60006020828403121561265a57600080fd5b61266382612525565b9392505050565b600081518084526020840193506020830160005b8281101561269c57815186526020958601959091019060010161267e565b5093949350505050565b60208152600082516020808401526126c1604084018261266a565b949350505050565b600080600080608085870312156126df57600080fd5b843593506020850135925061245a604086016121ea565b600081518084526020840193506020830160005b8281101561269c5781516001600160c01b031686526020958601959091019060010161270a565b6020815261274860208201835163ffffffff169052565b60006020830151612761604084018263ffffffff169052565b50604083015163ffffffff8116606084015250606083015161278660808401826124a3565b5060808301516001600160a01b03811660a08401525060a083015160c083015260c083015160e083015260e08301516101008301526101008301516101208301526101208301516101606101408401526127e461018084018261266a565b9050610140840151601f198483030161016085015261280382826126f6565b95945050505050565b60008060006060848603121561282157600080fd5b505081359360208301359350604090920135919050565b634e487b7160e01b600052603260045260246000fd5b634e487b7160e01b600052601160045260246000fd5b6001600160c01b0381811683821601908111156128835761288361284e565b92915050565b818103818111156128835761288361284e565b6000602082840312156128ae57600080fd5b8151801515811461266357600080fd5b80820281158282048414176128835761288361284e565b808201808211156128835761288361284e565b81810360008312801583831316838312821617156129085761290861284e565b5092915050565b600061ffff83168061293157634e487b7160e01b600052601260045260246000fd5b8061ffff84160491505092915050565b60005b8381101561295c578181015183820152602001612944565b50506000910152565b60008251612977818460208701612941565b9190910192915050565b60006020828403121561299357600080fd5b5051919050565b6001600160c01b0382811682821603908111156128835761288361284e565b60408152600083518060408401526129d8816060850160208801612941565b602083019390935250601f91909101601f19160160600191905056fe6c697175696469747950726f7669646572735b6d73672e73656e6465725d2e6465706f7369745661756c74496e64657865735b7661756c74496e6465785d3a20a2646970667358221220155627fd6e091a35613a6e758e2a9b0e94a28054fb0b20ea85d7244a4e4a245c64736f6c634300081a0033","linkReferences":{}},"methodIdentifiers":{"CHALLENGE_PERIOD()":"c3a079ed","DEPOSIT_TOKEN()":"13f66587","MAX_DEPOSIT_OUTPUTS()":"9cdb8e5a","MIN_ORDER_GAS_MULTIPLIER()":"5f5d5b6a","PROOF_GAS_COST()":"eb6c7522","RELEASE_GAS_COST()":"9a64279c","RESERVATION_LOCKUP_PERIOD()":"89a11f7a","SAMPLING_SIZE()":"ad062e55","addBlock(uint256,uint256,bytes32)":"e9c6c176","currentHeight()":"163de0c5","depositLiquidity(bytes22,uint64,int256,uint192,int256)":"11d0d28f","depositVaults(uint256)":"5f4d0610","emptyDepositVault(uint256)":"490d4c5f","getBlockHash(uint256)":"ee82ac5e","getDepositVault(uint256)":"276d080e","getDepositVaultUnreservedBalance(uint256)":"6512d057","getDepositVaultsLength()":"7dce5550","getLiquidityProvider(address)":"98f9e757","getReservation(uint256)":"d57763c3","getReservationLength()":"ea6fe03e","proposeTransactionProof(uint256,bytes32,uint32,bytes32,uint256,bytes)":"28cbee4b","protocolFeeBP()":"c5fba0b8","proverReward()":"6dcc17c8","releaseLiquidity(uint256)":"77891907","releaserReward()":"9cc7eab9","reserveLiquidity(uint256[],uint192[],uint256,address,uint256[])":"8f23a97a","swapReservations(uint256)":"6b994abb","treasuryFee()":"cc32d176","updateExchangeRate(uint256,uint256,uint64,uint256[])":"56fe6f86","validateBlockExists(uint256)":"ed8b2b32","verifierContract()":"cf695688","withdrawLiquidity(uint256,uint256,uint192,uint256[])":"aeacb2e7"},"storageLayout":{"storage":[{"astId":43103,"contract":"src/RiftExchange.sol:RiftExchange","label":"blockchain","offset":0,"slot":"0","type":"t_mapping(t_uint256,t_bytes32)"},{"astId":43105,"contract":"src/RiftExchange.sol:RiftExchange","label":"currentHeight","offset":0,"slot":"1","type":"t_uint256"},{"astId":43705,"contract":"src/RiftExchange.sol:RiftExchange","label":"protocolFeeBP","offset":0,"slot":"2","type":"t_uint8"},{"astId":43708,"contract":"src/RiftExchange.sol:RiftExchange","label":"treasuryFee","offset":1,"slot":"2","type":"t_uint8"},{"astId":43711,"contract":"src/RiftExchange.sol:RiftExchange","label":"proverReward","offset":0,"slot":"3","type":"t_uint256"},{"astId":43714,"contract":"src/RiftExchange.sol:RiftExchange","label":"releaserReward","offset":0,"slot":"4","type":"t_uint256"},{"astId":43769,"contract":"src/RiftExchange.sol:RiftExchange","label":"liquidityProviders","offset":0,"slot":"5","type":"t_mapping(t_address,t_struct(LiquidityProvider)43723_storage)"},{"astId":43773,"contract":"src/RiftExchange.sol:RiftExchange","label":"swapReservations","offset":0,"slot":"6","type":"t_array(t_struct(SwapReservation)43764_storage)dyn_storage"},{"astId":43777,"contract":"src/RiftExchange.sol:RiftExchange","label":"depositVaults","offset":0,"slot":"7","type":"t_array(t_struct(DepositVault)43732_storage)dyn_storage"},{"astId":43786,"contract":"src/RiftExchange.sol:RiftExchange","label":"protocolAddress","offset":0,"slot":"8","type":"t_address_payable"}],"types":{"t_address":{"encoding":"inplace","label":"address","numberOfBytes":"20"},"t_address_payable":{"encoding":"inplace","label":"address payable","numberOfBytes":"20"},"t_array(t_struct(DepositVault)43732_storage)dyn_storage":{"encoding":"dynamic_array","label":"struct RiftExchange.DepositVault[]","numberOfBytes":"32","base":"t_struct(DepositVault)43732_storage"},"t_array(t_struct(SwapReservation)43764_storage)dyn_storage":{"encoding":"dynamic_array","label":"struct RiftExchange.SwapReservation[]","numberOfBytes":"32","base":"t_struct(SwapReservation)43764_storage"},"t_array(t_uint192)dyn_storage":{"encoding":"dynamic_array","label":"uint192[]","numberOfBytes":"32","base":"t_uint192"},"t_array(t_uint256)dyn_storage":{"encoding":"dynamic_array","label":"uint256[]","numberOfBytes":"32","base":"t_uint256"},"t_bytes22":{"encoding":"inplace","label":"bytes22","numberOfBytes":"22"},"t_bytes32":{"encoding":"inplace","label":"bytes32","numberOfBytes":"32"},"t_enum(ReservationState)43738":{"encoding":"inplace","label":"enum RiftExchange.ReservationState","numberOfBytes":"1"},"t_int256":{"encoding":"inplace","label":"int256","numberOfBytes":"32"},"t_mapping(t_address,t_struct(LiquidityProvider)43723_storage)":{"encoding":"mapping","key":"t_address","label":"mapping(address => struct RiftExchange.LiquidityProvider)","numberOfBytes":"32","value":"t_struct(LiquidityProvider)43723_storage"},"t_mapping(t_uint256,t_bytes32)":{"encoding":"mapping","key":"t_uint256","label":"mapping(uint256 => bytes32)","numberOfBytes":"32","value":"t_bytes32"},"t_struct(DepositVault)43732_storage":{"encoding":"inplace","label":"struct RiftExchange.DepositVault","numberOfBytes":"96","members":[{"astId":43725,"contract":"src/RiftExchange.sol:RiftExchange","label":"initialBalance","offset":0,"slot":"0","type":"t_uint256"},{"astId":43727,"contract":"src/RiftExchange.sol:RiftExchange","label":"unreservedBalance","offset":0,"slot":"1","type":"t_uint192"},{"astId":43729,"contract":"src/RiftExchange.sol:RiftExchange","label":"btcExchangeRate","offset":24,"slot":"1","type":"t_uint64"},{"astId":43731,"contract":"src/RiftExchange.sol:RiftExchange","label":"btcPayoutLockingScript","offset":0,"slot":"2","type":"t_bytes22"}]},"t_struct(LiquidityProvider)43723_storage":{"encoding":"inplace","label":"struct RiftExchange.LiquidityProvider","numberOfBytes":"32","members":[{"astId":43722,"contract":"src/RiftExchange.sol:RiftExchange","label":"depositVaultIndexes","offset":0,"slot":"0","type":"t_array(t_uint256)dyn_storage"}]},"t_struct(SwapReservation)43764_storage":{"encoding":"inplace","label":"struct RiftExchange.SwapReservation","numberOfBytes":"256","members":[{"astId":43740,"contract":"src/RiftExchange.sol:RiftExchange","label":"confirmationBlockHeight","offset":0,"slot":"0","type":"t_uint32"},{"astId":43742,"contract":"src/RiftExchange.sol:RiftExchange","label":"reservationTimestamp","offset":4,"slot":"0","type":"t_uint32"},{"astId":43744,"contract":"src/RiftExchange.sol:RiftExchange","label":"unlockTimestamp","offset":8,"slot":"0","type":"t_uint32"},{"astId":43747,"contract":"src/RiftExchange.sol:RiftExchange","label":"state","offset":12,"slot":"0","type":"t_enum(ReservationState)43738"},{"astId":43749,"contract":"src/RiftExchange.sol:RiftExchange","label":"ethPayoutAddress","offset":0,"slot":"1","type":"t_address"},{"astId":43751,"contract":"src/RiftExchange.sol:RiftExchange","label":"lpReservationHash","offset":0,"slot":"2","type":"t_bytes32"},{"astId":43753,"contract":"src/RiftExchange.sol:RiftExchange","label":"nonce","offset":0,"slot":"3","type":"t_bytes32"},{"astId":43755,"contract":"src/RiftExchange.sol:RiftExchange","label":"totalSwapAmount","offset":0,"slot":"4","type":"t_uint256"},{"astId":43757,"contract":"src/RiftExchange.sol:RiftExchange","label":"prepaidFeeAmount","offset":0,"slot":"5","type":"t_int256"},{"astId":43760,"contract":"src/RiftExchange.sol:RiftExchange","label":"vaultIndexes","offset":0,"slot":"6","type":"t_array(t_uint256)dyn_storage"},{"astId":43763,"contract":"src/RiftExchange.sol:RiftExchange","label":"amountsToReserve","offset":0,"slot":"7","type":"t_array(t_uint192)dyn_storage"}]},"t_uint192":{"encoding":"inplace","label":"uint192","numberOfBytes":"24"},"t_uint256":{"encoding":"inplace","label":"uint256","numberOfBytes":"32"},"t_uint32":{"encoding":"inplace","label":"uint32","numberOfBytes":"4"},"t_uint64":{"encoding":"inplace","label":"uint64","numberOfBytes":"8"},"t_uint8":{"encoding":"inplace","label":"uint8","numberOfBytes":"1"}}},"id":22}