{"abi":[{"type":"constructor","inputs":[{"name":"initialCheckpointHeight","type":"uint256","internalType":"uint256"},{"name":"initialBlockHash","type":"bytes32","internalType":"bytes32"},{"name":"initialRetargetBlockHash","type":"bytes32","internalType":"bytes32"},{"name":"verifierContractAddress","type":"address","internalType":"address"},{"name":"depositTokenAddress","type":"address","internalType":"address"},{"name":"_proverReward","type":"uint256","internalType":"uint256"},{"name":"_releaserReward","type":"uint256","internalType":"uint256"},{"name":"_protocolAddress","type":"address","internalType":"address payable"},{"name":"_owner","type":"address","internalType":"address"},{"name":"_circuitVerificationKey","type":"bytes32","internalType":"bytes32"}],"stateMutability":"nonpayable"},{"type":"function","name":"CHALLENGE_PERIOD","inputs":[],"outputs":[{"name":"","type":"uint256","internalType":"uint256"}],"stateMutability":"view"},{"type":"function","name":"DEPOSIT_TOKEN","inputs":[],"outputs":[{"name":"","type":"address","internalType":"contract IERC20"}],"stateMutability":"view"},{"type":"function","name":"MAX_DEPOSIT_OUTPUTS","inputs":[],"outputs":[{"name":"","type":"uint16","internalType":"uint16"}],"stateMutability":"view"},{"type":"function","name":"MIN_ORDER_GAS_MULTIPLIER","inputs":[],"outputs":[{"name":"","type":"uint256","internalType":"uint256"}],"stateMutability":"view"},{"type":"function","name":"PROOF_GAS_COST","inputs":[],"outputs":[{"name":"","type":"uint256","internalType":"uint256"}],"stateMutability":"view"},{"type":"function","name":"RELEASE_GAS_COST","inputs":[],"outputs":[{"name":"","type":"uint256","internalType":"uint256"}],"stateMutability":"view"},{"type":"function","name":"RESERVATION_LOCKUP_PERIOD","inputs":[],"outputs":[{"name":"","type":"uint256","internalType":"uint256"}],"stateMutability":"view"},{"type":"function","name":"SAMPLING_SIZE","inputs":[],"outputs":[{"name":"","type":"uint8","internalType":"uint8"}],"stateMutability":"view"},{"type":"function","name":"TOKEN_DECIMALS","inputs":[],"outputs":[{"name":"","type":"uint8","internalType":"uint8"}],"stateMutability":"view"},{"type":"function","name":"addBlock","inputs":[{"name":"safeBlockHeight","type":"uint256","internalType":"uint256"},{"name":"proposedBlockHeight","type":"uint256","internalType":"uint256"},{"name":"confirmationBlockHeight","type":"uint256","internalType":"uint256"},{"name":"blockHashes","type":"bytes32[]","internalType":"bytes32[]"},{"name":"proposedBlockIndex","type":"uint256","internalType":"uint256"}],"outputs":[],"stateMutability":"nonpayable"},{"type":"function","name":"buildProofPublicInputs","inputs":[{"name":"inputs","type":"tuple","internalType":"struct RiftExchange.ProofPublicInputs","components":[{"name":"natural_txid","type":"bytes32","internalType":"bytes32"},{"name":"lp_reservation_hash","type":"bytes32","internalType":"bytes32"},{"name":"order_nonce","type":"bytes32","internalType":"bytes32"},{"name":"expected_payout","type":"uint256","internalType":"uint256"},{"name":"lp_count","type":"uint64","internalType":"uint64"},{"name":"retarget_block_hash","type":"bytes32","internalType":"bytes32"},{"name":"safe_block_height","type":"uint64","internalType":"uint64"},{"name":"safe_block_height_delta","type":"uint64","internalType":"uint64"},{"name":"confirmation_block_height_delta","type":"uint64","internalType":"uint64"},{"name":"retarget_block_height","type":"uint64","internalType":"uint64"},{"name":"block_hashes","type":"bytes32[]","internalType":"bytes32[]"}]}],"outputs":[{"name":"","type":"bytes","internalType":"bytes"}],"stateMutability":"pure"},{"type":"function","name":"circuitVerificationKey","inputs":[],"outputs":[{"name":"","type":"bytes32","internalType":"bytes32"}],"stateMutability":"view"},{"type":"function","name":"currentConfirmationHeight","inputs":[],"outputs":[{"name":"","type":"uint256","internalType":"uint256"}],"stateMutability":"view"},{"type":"function","name":"currentHeight","inputs":[],"outputs":[{"name":"","type":"uint256","internalType":"uint256"}],"stateMutability":"view"},{"type":"function","name":"depositLiquidity","inputs":[{"name":"depositAmount","type":"uint256","internalType":"uint256"},{"name":"exchangeRate","type":"uint64","internalType":"uint64"},{"name":"btcPayoutLockingScript","type":"bytes22","internalType":"bytes22"},{"name":"vaultIndexToOverwrite","type":"int256","internalType":"int256"},{"name":"vaultIndexWithSameExchangeRate","type":"int256","internalType":"int256"}],"outputs":[],"stateMutability":"nonpayable"},{"type":"function","name":"depositVaults","inputs":[{"name":"","type":"uint256","internalType":"uint256"}],"outputs":[{"name":"initialBalance","type":"uint256","internalType":"uint256"},{"name":"unreservedBalance","type":"uint256","internalType":"uint256"},{"name":"withdrawnAmount","type":"uint256","internalType":"uint256"},{"name":"exchangeRate","type":"uint64","internalType":"uint64"},{"name":"btcPayoutLockingScript","type":"bytes22","internalType":"bytes22"}],"stateMutability":"view"},{"type":"function","name":"emptyDepositVault","inputs":[{"name":"vaultIndex","type":"uint256","internalType":"uint256"}],"outputs":[],"stateMutability":"nonpayable"},{"type":"function","name":"getBlockHash","inputs":[{"name":"blockHeight","type":"uint256","internalType":"uint256"}],"outputs":[{"name":"","type":"bytes32","internalType":"bytes32"}],"stateMutability":"view"},{"type":"function","name":"getDepositVault","inputs":[{"name":"depositIndex","type":"uint256","internalType":"uint256"}],"outputs":[{"name":"","type":"tuple","internalType":"struct RiftExchange.DepositVault","components":[{"name":"initialBalance","type":"uint256","internalType":"uint256"},{"name":"unreservedBalance","type":"uint256","internalType":"uint256"},{"name":"withdrawnAmount","type":"uint256","internalType":"uint256"},{"name":"exchangeRate","type":"uint64","internalType":"uint64"},{"name":"btcPayoutLockingScript","type":"bytes22","internalType":"bytes22"}]}],"stateMutability":"view"},{"type":"function","name":"getDepositVaultUnreservedBalance","inputs":[{"name":"depositIndex","type":"uint256","internalType":"uint256"}],"outputs":[{"name":"","type":"uint256","internalType":"uint256"}],"stateMutability":"view"},{"type":"function","name":"getDepositVaultsLength","inputs":[],"outputs":[{"name":"","type":"uint256","internalType":"uint256"}],"stateMutability":"view"},{"type":"function","name":"getLiquidityProvider","inputs":[{"name":"lpAddress","type":"address","internalType":"address"}],"outputs":[{"name":"","type":"tuple","internalType":"struct RiftExchange.LiquidityProvider","components":[{"name":"depositVaultIndexes","type":"uint256[]","internalType":"uint256[]"}]}],"stateMutability":"view"},{"type":"function","name":"getReservation","inputs":[{"name":"reservationIndex","type":"uint256","internalType":"uint256"}],"outputs":[{"name":"","type":"tuple","internalType":"struct RiftExchange.SwapReservation","components":[{"name":"owner","type":"address","internalType":"address"},{"name":"confirmationBlockHeight","type":"uint32","internalType":"uint32"},{"name":"reservationTimestamp","type":"uint32","internalType":"uint32"},{"name":"unlockTimestamp","type":"uint32","internalType":"uint32"},{"name":"state","type":"uint8","internalType":"enum RiftExchange.ReservationState"},{"name":"ethPayoutAddress","type":"address","internalType":"address"},{"name":"lpReservationHash","type":"bytes32","internalType":"bytes32"},{"name":"nonce","type":"bytes32","internalType":"bytes32"},{"name":"totalSatsInputInlcudingProxyFee","type":"uint256","internalType":"uint256"},{"name":"totalSwapOutputAmount","type":"uint256","internalType":"uint256"},{"name":"prepaidFeeAmount","type":"int256","internalType":"int256"},{"name":"proposedBlockHeight","type":"uint256","internalType":"uint256"},{"name":"proposedBlockHash","type":"bytes32","internalType":"bytes32"},{"name":"vaultIndexes","type":"uint256[]","internalType":"uint256[]"},{"name":"amountsToReserve","type":"uint192[]","internalType":"uint192[]"}]}],"stateMutability":"view"},{"type":"function","name":"getReservationLength","inputs":[],"outputs":[{"name":"","type":"uint256","internalType":"uint256"}],"stateMutability":"view"},{"type":"function","name":"owner","inputs":[],"outputs":[{"name":"","type":"address","internalType":"address"}],"stateMutability":"view"},{"type":"function","name":"proposeTransactionProof","inputs":[{"name":"swapReservationIndex","type":"uint256","internalType":"uint256"},{"name":"bitcoinTxId","type":"bytes32","internalType":"bytes32"},{"name":"safeBlockHeight","type":"uint32","internalType":"uint32"},{"name":"proposedBlockHeight","type":"uint64","internalType":"uint64"},{"name":"confirmationBlockHeight","type":"uint64","internalType":"uint64"},{"name":"blockHashes","type":"bytes32[]","internalType":"bytes32[]"},{"name":"proof","type":"bytes","internalType":"bytes"}],"outputs":[],"stateMutability":"nonpayable"},{"type":"function","name":"protocolFeeBP","inputs":[],"outputs":[{"name":"","type":"uint8","internalType":"uint8"}],"stateMutability":"view"},{"type":"function","name":"proverReward","inputs":[],"outputs":[{"name":"","type":"uint256","internalType":"uint256"}],"stateMutability":"view"},{"type":"function","name":"releaseLiquidity","inputs":[{"name":"swapReservationIndex","type":"uint256","internalType":"uint256"}],"outputs":[],"stateMutability":"nonpayable"},{"type":"function","name":"releaserReward","inputs":[],"outputs":[{"name":"","type":"uint256","internalType":"uint256"}],"stateMutability":"view"},{"type":"function","name":"reserveLiquidity","inputs":[{"name":"vaultIndexesToReserve","type":"uint256[]","internalType":"uint256[]"},{"name":"amountsToReserve","type":"uint192[]","internalType":"uint192[]"},{"name":"ethPayoutAddress","type":"address","internalType":"address"},{"name":"totalSatsInputInlcudingProxyFee","type":"uint256","internalType":"uint256"},{"name":"expiredSwapReservationIndexes","type":"uint256[]","internalType":"uint256[]"}],"outputs":[],"stateMutability":"nonpayable"},{"type":"function","name":"swapReservations","inputs":[{"name":"","type":"uint256","internalType":"uint256"}],"outputs":[{"name":"owner","type":"address","internalType":"address"},{"name":"confirmationBlockHeight","type":"uint32","internalType":"uint32"},{"name":"reservationTimestamp","type":"uint32","internalType":"uint32"},{"name":"unlockTimestamp","type":"uint32","internalType":"uint32"},{"name":"state","type":"uint8","internalType":"enum RiftExchange.ReservationState"},{"name":"ethPayoutAddress","type":"address","internalType":"address"},{"name":"lpReservationHash","type":"bytes32","internalType":"bytes32"},{"name":"nonce","type":"bytes32","internalType":"bytes32"},{"name":"totalSatsInputInlcudingProxyFee","type":"uint256","internalType":"uint256"},{"name":"totalSwapOutputAmount","type":"uint256","internalType":"uint256"},{"name":"prepaidFeeAmount","type":"int256","internalType":"int256"},{"name":"proposedBlockHeight","type":"uint256","internalType":"uint256"},{"name":"proposedBlockHash","type":"bytes32","internalType":"bytes32"}],"stateMutability":"view"},{"type":"function","name":"transferOwnership","inputs":[{"name":"newOwner","type":"address","internalType":"address"}],"outputs":[],"stateMutability":"nonpayable"},{"type":"function","name":"updateExchangeRate","inputs":[{"name":"globalVaultIndex","type":"uint256","internalType":"uint256"},{"name":"localVaultIndex","type":"uint256","internalType":"uint256"},{"name":"newexchangeRate","type":"uint64","internalType":"uint64"},{"name":"expiredReservationIndexes","type":"uint256[]","internalType":"uint256[]"}],"outputs":[],"stateMutability":"nonpayable"},{"type":"function","name":"updateProtocolAddress","inputs":[{"name":"newProtocolAddress","type":"address","internalType":"address payable"}],"outputs":[],"stateMutability":"nonpayable"},{"type":"function","name":"updateProtocolFee","inputs":[{"name":"newProtocolFeeBP","type":"uint8","internalType":"uint8"}],"outputs":[],"stateMutability":"nonpayable"},{"type":"function","name":"updateRewards","inputs":[{"name":"newProverReward","type":"uint256","internalType":"uint256"},{"name":"newReleaserReward","type":"uint256","internalType":"uint256"}],"outputs":[],"stateMutability":"nonpayable"},{"type":"function","name":"validateBlockExists","inputs":[{"name":"blockHeight","type":"uint256","internalType":"uint256"}],"outputs":[],"stateMutability":"view"},{"type":"function","name":"verifierContract","inputs":[],"outputs":[{"name":"","type":"address","internalType":"contract ISP1Verifier"}],"stateMutability":"view"},{"type":"function","name":"withdrawLiquidity","inputs":[{"name":"globalVaultIndex","type":"uint256","internalType":"uint256"},{"name":"localVaultIndex","type":"uint256","internalType":"uint256"},{"name":"amountToWithdraw","type":"uint192","internalType":"uint192"},{"name":"expiredReservationIndexes","type":"uint256[]","internalType":"uint256[]"}],"outputs":[],"stateMutability":"nonpayable"},{"type":"event","name":"BlocksAdded","inputs":[{"name":"startBlockHeight","type":"uint256","indexed":false,"internalType":"uint256"},{"name":"count","type":"uint256","indexed":false,"internalType":"uint256"}],"anonymous":false},{"type":"event","name":"LiquidityReserved","inputs":[{"name":"reserver","type":"address","indexed":true,"internalType":"address"},{"name":"swapReservationIndex","type":"uint256","indexed":false,"internalType":"uint256"},{"name":"orderNonce","type":"bytes32","indexed":false,"internalType":"bytes32"}],"anonymous":false},{"type":"event","name":"OwnershipTransferred","inputs":[{"name":"user","type":"address","indexed":true,"internalType":"address"},{"name":"newOwner","type":"address","indexed":true,"internalType":"address"}],"anonymous":false},{"type":"event","name":"ProofProposed","inputs":[{"name":"prover","type":"address","indexed":true,"internalType":"address"},{"name":"swapReservationIndex","type":"uint256","indexed":false,"internalType":"uint256"},{"name":"orderNonce","type":"bytes32","indexed":false,"internalType":"bytes32"}],"anonymous":false},{"type":"event","name":"SwapComplete","inputs":[{"name":"swapReservationIndex","type":"uint256","indexed":false,"internalType":"uint256"},{"name":"orderNonce","type":"bytes32","indexed":false,"internalType":"bytes32"}],"anonymous":false},{"type":"error","name":"BlockDoesNotExist","inputs":[]},{"type":"error","name":"InvaidSameExchangeRatevaultIndex","inputs":[]},{"type":"error","name":"InvalidConfirmationBlock","inputs":[]},{"type":"error","name":"InvalidProposedBlockOverwrite","inputs":[]},{"type":"error","name":"InvalidSafeBlock","inputs":[]},{"type":"error","name":"InvalidUpdateWithActiveReservations","inputs":[]},{"type":"error","name":"InvalidVaultIndex","inputs":[]},{"type":"error","name":"InvalidVaultUpdate","inputs":[]},{"type":"error","name":"NotEnoughLiquidity","inputs":[]},{"type":"error","name":"NotVaultOwner","inputs":[]},{"type":"error","name":"OverwrittenProposedBlock","inputs":[]},{"type":"error","name":"ReservationNotExpired","inputs":[]},{"type":"error","name":"ReservationNotUnlocked","inputs":[]},{"type":"error","name":"StillInChallengePeriod","inputs":[]},{"type":"error","name":"WithdrawalAmountError","inputs":[]},{"type":"error","name":"exchangeRateZero","inputs":[]}],"bytecode":{"object":"0x61010060405260038054600560a11b60ff60a01b19909116179055600980546001600160a01b03191673f39fd6e51aad88f6f4ce6ab8827279cfffb9226617905534801561004c57600080fd5b50604051613c11380380613c1183398101604081905261006b91610367565b60018a905560008a81526020819052604081208a905582908b908b908b9081908061009586610234565b6001600160401b0316815260208101919091526040908101600090812092909255600380546001600160a01b0319166001600160a01b03881690811790915590519094509092507f8be0079c531659141344cd1fd0a4f28419497f9722a3daafe3b4186f6b6457e091508290a35060e08190526001600160a01b0380881660c052861660805260408051808201909152600f81526e02222a827a9a4aa2faa27a5a2a71d1608d1b602082015261014a90610252565b6080516101569061029c565b6080516001600160a01b031663313ce5676040518163ffffffff1660e01b8152600401602060405180830381865afa158015610196573d6000803e3d6000fd5b505050506040513d601f19601f820116820180604052508101906101ba919061040d565b60ff1660a05260408051808201909152601081526f02a27a5a2a72fa222a1a4a6a0a6299d160851b60208201526101f090610252565b60a0516101ff9060ff166102e8565b5050600492909255600555600980546001600160a01b0319166001600160a01b03909216919091179055506104ef9350505050565b60006102426107e083610437565b61024c9083610474565b92915050565b6102998160405160240161026691906104a1565b60408051601f198184030181529190526020810180516001600160e01b0390811663104c13eb60e21b1790915261033116565b50565b6040516001600160a01b03821660248201526102999060440160408051601f198184030181529190526020810180516001600160e01b0390811663161765e160e11b1790915261033116565b610299816040516024016102fe91815260200190565b60408051601f198184030181529190526020810180516001600160e01b0390811663f5b1bba960e01b1790915261033116565b80516a636f6e736f6c652e6c6f67602083016000808483855afa5050505050565b6001600160a01b038116811461029957600080fd5b6000806000806000806000806000806101408b8d03121561038757600080fd5b8a5160208c015160408d015160608e0151929c50909a5098506103a981610352565b60808c01519097506103ba81610352565b60a08c015160c08d015160e08e015192985090965094506103da81610352565b6101008c01519093506103ec81610352565b8092505060006101208c01519050809150509295989b9194979a5092959850565b60006020828403121561041f57600080fd5b815160ff8116811461043057600080fd5b9392505050565b60006001600160401b0383168061045e57634e487b7160e01b600052601260045260246000fd5b6001600160401b03929092169190910692915050565b6001600160401b03828116828216039081111561024c57634e487b7160e01b600052601160045260246000fd5b602081526000825180602084015260005b818110156104cf57602081860181015160408684010152016104b2565b506000604082850101526040601f19601f83011684010191505092915050565b60805160a05160c05160e05161369561057c6000396000818161036b0152611ec60152600081816105980152611e990152600081816103de015281816106720152818161071c0152611d0201526000818161027a01528181610e6101528181610f3f0152818161170601528181611ae301528181611bdb01528181611f9e01526122a801526136956000f3fe608060405234801561001057600080fd5b50600436106102485760003560e01c806389a11f7a1161013b578063c3a079ed116100b8578063eb6c75221161007c578063eb6c7522146105e2578063ed8b2b32146105ec578063ee82ac5e146105ff578063f2fde38b1461061f578063fba781661461063257600080fd5b8063c3a079ed14610576578063c5fba0b81461057f578063cf69568814610593578063d57763c3146105ba578063ea6fe03e146105da57600080fd5b80639a64279c116100ff5780639a64279c1461052d5780639cc7eab9146105375780639cdb8e5a14610540578063ad062e551461055b578063aeacb2e71461056357600080fd5b806389a11f7a146104cb5780638da5cb5b146104d45780638f805ac9146104e757806397e50818146104fa57806398f9e7571461050d57600080fd5b806356fe6f86116101c95780636512d0571161018d5780636512d057146104685780636b994abb1461047b5780636dcc17c8146104a757806377891907146104b05780637dce5550146104c357600080fd5b806356fe6f86146103b357806358e2b676146103c65780635b7f415c146103d95780635f4d0610146104125780635f5d5b6a1461046057600080fd5b8063276d080e11610210578063276d080e146102f05780632d908c02146103535780633d7b22b314610366578063490d4c5f1461038d57806351a7f1cd146103a057600080fd5b80630140e1831461024d5780630a7aa2931461026257806313f6658714610275578063163de0c5146102b95780631cfff86b146102d0575b600080fd5b61026061025b366004612ab2565b61063b565b005b610260610270366004612bbf565b61100b565b61029c7f000000000000000000000000000000000000000000000000000000000000000081565b6040516001600160a01b0390911681526020015b60405180910390f35b6102c260015481565b6040519081526020016102b0565b6102e36102de366004612bf9565b61105e565b6040516102b09190612d46565b6103036102fe366004612d59565b611087565b6040516102b091908151815260208083015190820152604080830151908201526060808301516001600160401b0316908201526080918201516001600160501b0319169181019190915260a00190565b610260610361366004612d72565b611130565b6102c27f000000000000000000000000000000000000000000000000000000000000000081565b61026061039b366004612d59565b611362565b6102606103ae366004612dd3565b6113a6565b6102606103c1366004612e30565b611784565b6102606103d4366004612e90565b611876565b6104007f000000000000000000000000000000000000000000000000000000000000000081565b60405160ff90911681526020016102b0565b610425610420366004612d59565b6118c2565b604080519586526020860194909452928401919091526001600160401b031660608301526001600160501b031916608082015260a0016102b0565b6102c2600281565b6102c2610476366004612d59565b611911565b61048e610489366004612d59565b61193f565b6040516102b09d9c9b9a99989796959493929190612ee5565b6102c260045481565b6102606104be366004612d59565b6119d5565b6008546102c2565b6102c261708081565b60035461029c906001600160a01b031681565b6102606104f5366004612fdc565b611c9c565b610260610508366004613093565b6120a7565b61052061051b366004612e90565b6120dc565b6040516102b091906130f1565b6102c26203345081565b6102c260055481565b610548603281565b60405161ffff90911681526020016102b0565b610400600a81565b610260610571366004613114565b61215f565b6102c261025881565b60035461040090600160a01b900460ff1681565b61029c7f000000000000000000000000000000000000000000000000000000000000000081565b6105cd6105c8366004612d59565b6122df565b6040516102b0919061317c565b6007546102c2565b6102c2620668a081565b6102606105fa366004612d59565b612539565b6102c261060d366004612d59565b60009081526020819052604090205490565b61026061062d366004612e90565b612568565b6102c260025481565b6000805b855181101561071557600061069687838151811061065f5761065f613292565b60200260200101516001600160c01b03167f00000000000000000000000000000000000000000000000000000000000000006125de565b9050600060088984815181106106ae576106ae613292565b6020026020010151815481106106c6576106c6613292565b600091825260208220600360049092020101546001600160401b031691506106ee838361261c565b90506106fa818361262f565b61070490866132be565b9450506001909201915061063f9050565b50610740817f000000000000000000000000000000000000000000000000000000000000000061263b565b90506107816040518060400160405280601a81526020017f636f6d62696e6564416d6f756e7473546f526573657276653a2000000000000081525082612669565b6000610797670de0b6b3a76400006127106132d1565b600354600160a01b900460ff166107b6670de0b6b3a7640000856132d1565b6107c091906132d1565b6107ca91906132fe565b90506107fb6040518060400160405280600d81526020016c0383937ba37b1b7b62332b29d1609d1b81525082612669565b60045460408051808201909152600b81526a0383937bb32b92332b29d160ad1b602082015261082a9082612669565b60055460408051808201909152600d81526c03932b632b0b9b2b92332b29d1609d1b602082015261085b9082612669565b610864856126b2565b61086d8561273c565b6000805b8a51811015610a4e5760026108918b838151811061065f5761065f613292565b60088d84815181106108a5576108a5613292565b6020026020010151815481106108bd576108bd613292565b906000526020600020906004020160030160009054906101000a90046001600160401b031660088e85815181106108f6576108f6613292565b60200260200101518154811061090e5761090e613292565b906000526020600020906004020160030160089054906101000a900460501b8560405160200161096a94939291909384526001600160401b039290921660208401526001600160501b0319166040830152606082015260800190565b60408051601f198184030181529082905261098491613312565b602060405180830381855afa1580156109a1573d6000803e3d6000fd5b5050506040513d601f19601f820116820180604052508101906109c4919061332e565b915060088b82815181106109da576109da613292565b6020026020010151815481106109f2576109f2613292565b9060005260206000209060040201600101548a8281518110610a1657610a16613292565b60200260200101516001600160c01b03161115610a4657604051634323a55560e01b815260040160405180910390fd5b600101610871565b50600754604080516001600160a01b038b1660208083019190915242828401524660608301526080820185905260a0808301949094528251808303909401845260c09091019091528151910120865115610b99576000600788600081518110610ab957610ab9613292565b602002602001015181548110610ad157610ad1613292565b60009182526020909120600b909102018054600180830180546001600160a01b038f16610100026001600160a81b03199091161790911790556001600160e01b0363ffffffff4216600160c01b02166001600160c01b03331663ffffffff60a01b909216919091171781559050610b4884866132be565b60068201556005810187905560038101829055600481018990558b51610b7790600983019060208f01906128c2565b508a51610b8d90600a83019060208e019061290d565b50600201829055610dce565b604080516101e0810182523381526000602082018190524263ffffffff1692820192909252606081019190915260079060808101600181526020018b6001600160a01b031681526020018481526020018381526020018a81526020018881526020018587610c0791906132be565b8152602001600081526020016000801b81526020018d81526020018c81525090806001815401808255809150506001900390600052602060002090600b020160009091909190915060008201518160000160006101000a8154816001600160a01b0302191690836001600160a01b0316021790555060208201518160000160146101000a81548163ffffffff021916908363ffffffff16021790555060408201518160000160186101000a81548163ffffffff021916908363ffffffff160217905550606082015181600001601c6101000a81548163ffffffff021916908363ffffffff16021790555060808201518160010160006101000a81548160ff02191690836004811115610d1b57610d1b612ead565b021790555060a0820151600182018054610100600160a81b0319166101006001600160a01b03909316830217905560c0830151600283015560e08301516003830155820151600482015561012082015160058201556101408201516006820155610160820151600782015561018082015160088201556101a08201518051610dad9160098401916020909101906128c2565b506101c08201518051610dca91600a84019160209091019061290d565b5050505b60005b8b51811015610e56578a8181518110610dec57610dec613292565b60200260200101516001600160c01b031660088d8381518110610e1157610e11613292565b602002602001015181548110610e2957610e29613292565b90600052602060002090600402016001016000828254610e499190613347565b9091555050600101610dd1565b506001600160a01b037f0000000000000000000000000000000000000000000000000000000000000000166323b872dd333086610e938a8a6132be565b610e9d91906132be565b6040516001600160e01b031960e086901b1681526001600160a01b03938416600482015292909116602483015260448201526064016020604051808303816000875af1158015610ef1573d6000803e3d6000fd5b505050506040513d601f19601f82011682018060405250810190610f15919061335a565b5060095460405163a9059cbb60e01b81526001600160a01b039182166004820152602481018790527f00000000000000000000000000000000000000000000000000000000000000009091169063a9059cbb906044016020604051808303816000875af1158015610f8a573d6000803e3d6000fd5b505050506040513d601f19601f82011682018060405250810190610fae919061335a565b50337f5956135c9be999a50f7ff4ea49ddf1485bc321ab333dc7a0877633eeb47528936001610fdc60075490565b610fe69190613347565b6040805191825260208201859052015b60405180910390a25050505050505050505050565b6003546001600160a01b0316331461103e5760405162461bcd60e51b81526004016110359061337c565b60405180910390fd5b6003805460ff909216600160a01b0260ff60a01b19909216919091179055565b60608160405160200161107191906133a2565b6040516020818303038152906040529050919050565b6040805160a081018252600080825260208201819052918101829052606081018290526080810191909152600882815481106110c5576110c5613292565b60009182526020918290206040805160a0810182526004909302909101805483526001810154938301939093526002830154908201526003909101546001600160401b03811660608301526001600160501b0319600160401b90910460501b16608082015292915050565b600154600561113f8686613347565b101561119a576000848152602081905260409020548351849061116490600190613347565b8151811061117457611174613292565b60200260200101511461119a576040516341305f6360e01b815260040160405180910390fd5b808611156111bb5760405163575f3da360e01b815260040160405180910390fd5b8282815181106111cd576111cd613292565b602002602001015160008087815260200190815260200160002054036111f3575061135b565b6000858152602081905260409020541580159061121257508360025410155b15611230576040516371e98f3d60e11b815260040160405180910390fd5b808511156112d4578086036112745782828151811061125157611251613292565b60200260200101516000808781526020019081526020016000208190555061130d565b808610156112cf57855b8581116112cd57836112908883613347565b815181106112a0576112a0613292565b602090810291909101810151600083815291829052604090912055806112c58161346c565b91505061127e565b505b61130d565b8085101561130d578282815181106112ee576112ee613292565b6020026020010151600080878152602001908152602001600020819055505b60015485111561131d5760018590555b82516040805188815260208101929092527fb68477c768bbb33b4f238a3dfd17c33c499268c59cd042b7936bbc23dc2bdd34910160405180910390a1505b5050505050565b60006008828154811061137757611377613292565b600091825260208220600490910201818155600181019190915560030180546001600160f01b03191690555050565b6113d76040518060400160405280601081526020016f6465706f7369744c697175696469747960801b815250612846565b6114086040518060400160405280600f81526020016e02232b837b9b4ba20b6b7bab73a1d1608d1b81525086612669565b836001600160401b031660000361143257604051635c4ad48d60e11b815260040160405180910390fd5b3360009081526006602052604081205490036114805760408051600060208083018281528385018552835233825260068152929020815180519293919261147c92849201906128c2565b5050505b806000191461150c5760008190506000600882815481106114a3576114a3613292565b6000918252602090912060049091020160038101549091506001600160401b038781169116036114ec57868160010160008282546114e191906132be565b909155506115059050565b60405163927ce9e760e01b815260040160405180910390fd5b50506116b0565b816000191461159f5760006008838154811061152a5761152a613292565b90600052602060002090600402019050806001015460001461155f5760405163721e09df60e01b815260040160405180910390fd5b85815560018101869055600060028201556003018054605085901c600160401b026001600160f01b03199091166001600160401b038716171790556116b0565b6040805160a0810182528681526020810187815260009282018381526001600160401b03808916606085019081526001600160501b0319891660808601908152600880546001810182559752945160049096027ff3f7a9fe364faab93b216da50a3214154f22a0a2b415b23a84c8169e8b636ee381019690965592517ff3f7a9fe364faab93b216da50a3214154f22a0a2b415b23a84c8169e8b636ee486015590517ff3f7a9fe364faab93b216da50a3214154f22a0a2b415b23a84c8169e8b636ee585015590517ff3f7a9fe364faab93b216da50a3214154f22a0a2b415b23a84c8169e8b636ee69093018054925160501c600160401b026001600160f01b031990931693909116929092171790555b3360009081526006602052604090206008546116ce90600190613347565b815460018101835560009283526020909220909101556040516323b872dd60e01b8152336004820152306024820152604481018690527f00000000000000000000000000000000000000000000000000000000000000006001600160a01b0316906323b872dd906064015b6020604051808303816000875af1158015611758573d6000803e3d6000fd5b505050506040513d601f19601f8201168201806040525081019061177c919061335a565b505050505050565b3360009081526006602052604090208054859190859081106117a8576117a8613292565b9060005260206000200154146117d157604051630e7fea9d60e01b815260040160405180910390fd5b816001600160401b03166000036117fb57604051636e5a187760e11b815260040160405180910390fd5b60006008858154811061181057611810613292565b906000526020600020906004020190506118298261273c565b805460018201541461184e576040516391bc6cc360e01b815260040160405180910390fd5b600301805467ffffffffffffffff19166001600160401b039390931692909217909155505050565b6003546001600160a01b031633146118a05760405162461bcd60e51b81526004016110359061337c565b600980546001600160a01b0319166001600160a01b0392909216919091179055565b600881815481106118d257600080fd5b6000918252602090912060049091020180546001820154600283015460039093015491935091906001600160401b03811690600160401b900460501b85565b60006008828154811061192657611926613292565b9060005260206000209060040201600101549050919050565b6007818154811061194f57600080fd5b60009182526020909120600b90910201805460018201546002830154600384015460048501546005860154600687015460078801546008909801546001600160a01b038089169a5063ffffffff600160a01b8a0481169a600160c01b8b0482169a600160e01b90049091169860ff8116986101009091049092169691959194919391928d565b6000600782815481106119ea576119ea613292565b60009182526020909120600b9091020190506002600182015460ff166004811115611a1757611a17612ead565b14611a355760405163b38c767b60e01b815260040160405180910390fd5b805461025890611a5290600160e01b900463ffffffff1642613347565b1015611a7157604051632d5c37f560e21b815260040160405180910390fd5b6008810154600782015460009081526020819052604090205403611aa85760405163c1f6fa5160e01b815260040160405180910390fd5b6000611ab748620334506132d1565b600554611ac491906132be565b60405163a9059cbb60e01b8152336004820152602481018290529091507f00000000000000000000000000000000000000000000000000000000000000006001600160a01b03169063a9059cbb906044016020604051808303816000875af1158015611b34573d6000803e3d6000fd5b505050506040513d601f19601f82011682018060405250810190611b58919061335a565b5080826006016000828254611b6d9190613485565b9091555050600682015460001315611ba4578160060154826005016000828254611b9791906132be565b9091555050600060068301555b6001820154600583015460405163a9059cbb60e01b81526101009092046001600160a01b03908116600484015260248301919091527f0000000000000000000000000000000000000000000000000000000000000000169063a9059cbb906044016020604051808303816000875af1158015611c24573d6000803e3d6000fd5b505050506040513d601f19601f82011682018060405250810190611c48919061335a565b5060018201805460ff1916600417905560038201546040805185815260208101929092527f12245c00d428a4c558061d2f69fe154a203bd2fb4a65b6c3e73e95ccdc735d18910160405180910390a1505050565b600060078881548110611cb157611cb1613292565b90600052602060002090600b020190506000805b600a830154811015611dab576000611d2684600a018381548110611ceb57611ceb613292565b6000918252602090912001546001600160c01b03167f00000000000000000000000000000000000000000000000000000000000000006125de565b905060006008856009018481548110611d4157611d41613292565b906000526020600020015481548110611d5c57611d5c613292565b600091825260208220600360049092020101546001600160401b03169150611d84838361261c565b9050611d90818361262f565b611d9a90866132be565b94505060019092019150611cc59050565b506000611e7f6040518061016001604052808b8152602001856002015481526020018560030154815260200184815260200185600901805490506001600160401b03168152602001611e1a611dff8b612889565b6001600160401b031660009081526020819052604090205490565b815263ffffffff8b1660208201819052604090910190611e3a908b6134ac565b6001600160401b03168152602001611e528a8a6134ac565b6001600160401b03168152602001611e698a612889565b6001600160401b0316815260200187905261105e565b60405163020a49e360e51b81529091506001600160a01b037f000000000000000000000000000000000000000000000000000000000000000016906341493c6090611ef2907f000000000000000000000000000000000000000000000000000000000000000090859089906004016134cb565b60006040518083038186803b158015611f0a57600080fd5b505afa158015611f1e573d6000803e3d6000fd5b50611f549250505063ffffffff89166001600160401b0389811690891688611f46848d6134ac565b6001600160401b0316611130565b60018301805460ff191660021790556000611f7248620668a06132d1565b600454611f7f91906132be565b60405163a9059cbb60e01b8152336004820152602481018290529091507f00000000000000000000000000000000000000000000000000000000000000006001600160a01b03169063a9059cbb906044016020604051808303816000875af1158015611fef573d6000803e3d6000fd5b505050506040513d601f19601f82011682018060405250810190612013919061335a565b5061203763ffffffff8a166001600160401b03808b16908a1689611f46848e6134ac565b60008460060154121561206957836006015484600501600082825461205c91906132be565b9091555050600060068501555b600384015460405133917f184abe81dc2f02915b1cd93143dc1987a077040f7de69181dd5eaf9b37bb715c91610ff6918f8252602082015260400190565b6003546001600160a01b031633146120d15760405162461bcd60e51b81526004016110359061337c565b600491909155600555565b6040805160208082018352606082526001600160a01b0384166000908152600682528390208351815480840282018601865292810183815293949093919284929184919084018282801561214f57602002820191906000526020600020905b81548152602001906001019080831161213b575b5050505050815250509050919050565b33600090815260066020526040902080548591908590811061218357612183613292565b9060005260206000200154146121ac57604051630e7fea9d60e01b815260040160405180910390fd5b6121b58161273c565b60085484106121d75760405163721e09df60e01b815260040160405180910390fd5b6000600885815481106121ec576121ec613292565b90600052602060002090600402019050826001600160c01b03166000148061222057508060010154836001600160c01b0316115b1561223e5760405163b4e3d41360e01b815260040160405180910390fd5b826001600160c01b031681600101600082825461225b9190613347565b92505081905550826001600160c01b031681600201600082825461227f91906132be565b909155505060405163a9059cbb60e01b81523360048201526001600160c01b03841660248201527f00000000000000000000000000000000000000000000000000000000000000006001600160a01b03169063a9059cbb90604401611739565b604080516101e08101825260008082526020820181905291810182905260608082018390526080820183905260a0820183905260c0820183905260e0820183905261010082018390526101208201839052610140820183905261016082018390526101808201929092526101a081018290526101c08101919091526007828154811061236d5761236d613292565b6000918252602091829020604080516101e081018252600b90930290910180546001600160a01b038116845263ffffffff600160a01b8204811695850195909552600160c01b8104851692840192909252600160e01b90910490921660608201526001820154909190608083019060ff1660048111156123ef576123ef612ead565b600481111561240057612400612ead565b81526020016001820160019054906101000a90046001600160a01b03166001600160a01b03166001600160a01b0316815260200160028201548152602001600382015481526020016004820154815260200160058201548152602001600682015481526020016007820154815260200160088201548152602001600982018054806020026020016040519081016040528092919081815260200182805480156124c857602002820191906000526020600020905b8154815260200190600101908083116124b4575b50505050508152602001600a820180548060200260200160405190810160405280929190818152602001828054801561214f57602002820191906000526020600020905b81546001600160c01b0316815260019091019060200180831161250c575050505050815250509050919050565b6000818152602081905260409020546125655760405163fa4a5e4560e01b815260040160405180910390fd5b50565b6003546001600160a01b031633146125925760405162461bcd60e51b81526004016110359061337c565b600380546001600160a01b0319166001600160a01b03831690811790915560405133907f8be0079c531659141344cd1fd0a4f28419497f9722a3daafe3b4186f6b6457e090600090a350565b600060128260ff161015612613576125f7826012613500565b61260290600a613600565b61260c90846132d1565b9050612616565b50815b92915050565b600061262882846132fe565b9392505050565b600061262882846132d1565b600060128260ff16101561261357612654826012613500565b61265f90600a613600565b61260c90846132fe565b6126ae828260405160240161267f92919061360f565b60408051601f198184030181529190526020810180516001600160e01b03166309710a9d60e41b1790526128a1565b5050565b60005b81518110156126ae5761708060078383815181106126d5576126d5613292565b6020026020010151815481106126ed576126ed613292565b60009182526020909120600b909102015461271590600160c01b900463ffffffff1642613347565b1015612734576040516326349d6b60e01b815260040160405180910390fd5b6001016126b5565b60005b81518110156126ae57612751826126b2565b6000600783838151811061276757612767613292565b60200260200101518154811061277f5761277f613292565b90600052602060002090600b0201905060005b600982015481101561282f57600060088360090183815481106127b7576127b7613292565b9060005260206000200154815481106127d2576127d2613292565b9060005260206000209060040201905082600a0182815481106127f7576127f7613292565b60009182526020822001546001830180546001600160c01b039092169290916128219084906132be565b909155505050600101612792565b506001908101805460ff191660031790550161273f565b6125658160405160240161285a9190612d46565b60408051601f198184030181529190526020810180516001600160e01b031663104c13eb60e21b1790526128a1565b60006128976107e083613631565b61261690836134ac565b80516a636f6e736f6c652e6c6f67602083016000808483855afa5050505050565b8280548282559060005260206000209081019282156128fd579160200282015b828111156128fd5782518255916020019190600101906128e2565b50612909929150612962565b5090565b8280548282559060005260206000209081019282156128fd579160200282015b828111156128fd57825182546001600160c01b0319166001600160c01b0390911617825560209092019160019091019061292d565b5b808211156129095760008155600101612963565b634e487b7160e01b600052604160045260246000fd5b60405161016081016001600160401b03811182821017156129b0576129b0612977565b60405290565b604051601f8201601f191681016001600160401b03811182821017156129de576129de612977565b604052919050565b60006001600160401b038211156129ff576129ff612977565b5060051b60200190565b600082601f830112612a1a57600080fd5b8135612a2d612a28826129e6565b6129b6565b8082825260208201915060208360051b860101925085831115612a4f57600080fd5b602085015b83811015612a6c578035835260209283019201612a54565b5095945050505050565b80356001600160c01b0381168114612a8d57600080fd5b919050565b6001600160a01b038116811461256557600080fd5b8035612a8d81612a92565b600080600080600060a08688031215612aca57600080fd5b85356001600160401b03811115612ae057600080fd5b612aec88828901612a09565b95505060208601356001600160401b03811115612b0857600080fd5b8601601f81018813612b1957600080fd5b8035612b27612a28826129e6565b8082825260208201915060208360051b85010192508a831115612b4957600080fd5b6020840193505b82841015612b7257612b6184612a76565b825260209384019390910190612b50565b9650612b849250505060408701612aa7565b92506060860135915060808601356001600160401b03811115612ba657600080fd5b612bb288828901612a09565b9150509295509295909350565b600060208284031215612bd157600080fd5b813560ff8116811461262857600080fd5b80356001600160401b0381168114612a8d57600080fd5b600060208284031215612c0b57600080fd5b81356001600160401b03811115612c2157600080fd5b82016101608185031215612c3457600080fd5b612c3c61298d565b81358152602080830135908201526040808301359082015260608083013590820152612c6a60808301612be2565b608082015260a08281013590820152612c8560c08301612be2565b60c0820152612c9660e08301612be2565b60e0820152612ca86101008301612be2565b610100820152612cbb6101208301612be2565b6101208201526101408201356001600160401b03811115612cdb57600080fd5b612ce786828501612a09565b61014083015250949350505050565b60005b83811015612d11578181015183820152602001612cf9565b50506000910152565b60008151808452612d32816020860160208601612cf6565b601f01601f19169290920160200192915050565b6020815260006126286020830184612d1a565b600060208284031215612d6b57600080fd5b5035919050565b600080600080600060a08688031215612d8a57600080fd5b85359450602086013593506040860135925060608601356001600160401b03811115612db557600080fd5b612dc188828901612a09565b95989497509295608001359392505050565b600080600080600060a08688031215612deb57600080fd5b85359450612dfb60208701612be2565b935060408601356001600160501b031981168114612e1857600080fd5b94979396509394606081013594506080013592915050565b60008060008060808587031215612e4657600080fd5b8435935060208501359250612e5d60408601612be2565b915060608501356001600160401b03811115612e7857600080fd5b612e8487828801612a09565b91505092959194509250565b600060208284031215612ea257600080fd5b813561262881612a92565b634e487b7160e01b600052602160045260246000fd5b60058110612ee157634e487b7160e01b600052602160045260246000fd5b9052565b6001600160a01b038e16815263ffffffff8d811660208301528c811660408301528b1660608201526101a08101612f1f608083018c612ec3565b6001600160a01b038a1660a083015260c082019890985260e0810196909652610100860194909452610120850192909252610140840152610160830152610180909101529695505050505050565b600082601f830112612f7e57600080fd5b81356001600160401b03811115612f9757612f97612977565b612faa601f8201601f19166020016129b6565b818152846020838601011115612fbf57600080fd5b816020850160208301376000918101602001919091529392505050565b600080600080600080600060e0888a031215612ff757600080fd5b8735965060208801359550604088013563ffffffff8116811461301957600080fd5b945061302760608901612be2565b935061303560808901612be2565b925060a08801356001600160401b0381111561305057600080fd5b61305c8a828b01612a09565b92505060c08801356001600160401b0381111561307857600080fd5b6130848a828b01612f6d565b91505092959891949750929550565b600080604083850312156130a657600080fd5b50508035926020909101359150565b600081518084526020840193506020830160005b828110156130e75781518652602095860195909101906001016130c9565b5093949350505050565b602081526000825160208084015261310c60408401826130b5565b949350505050565b6000806000806080858703121561312a57600080fd5b8435935060208501359250612e5d60408601612a76565b600081518084526020840193506020830160005b828110156130e75781516001600160c01b0316865260209586019590910190600101613155565b602081526131966020820183516001600160a01b03169052565b600060208301516131af604084018263ffffffff169052565b50604083015163ffffffff8116606084015250606083015163ffffffff811660808401525060808301516131e660a0840182612ec3565b5060a08301516001600160a01b03811660c08401525060c083015160e083015260e08301516101008301526101008301516101208301526101208301516101408301526101408301516101608301526101608301516101808301526101808301516101a08301526101a08301516101e06101c084015261326a6102008401826130b5565b90506101c0840151601f19848303016101e08501526132898282613141565b95945050505050565b634e487b7160e01b600052603260045260246000fd5b634e487b7160e01b600052601160045260246000fd5b80820180821115612616576126166132a8565b8082028115828204841417612616576126166132a8565b634e487b7160e01b600052601260045260246000fd5b60008261330d5761330d6132e8565b500490565b60008251613324818460208701612cf6565b9190910192915050565b60006020828403121561334057600080fd5b5051919050565b81810381811115612616576126166132a8565b60006020828403121561336c57600080fd5b8151801515811461262857600080fd5b6020808252600c908201526b15539055551213d49256915160a21b604082015260600190565b6020815281516020820152602082015160408201526040820151606082015260608201516080820152600060808301516133e760a08401826001600160401b03169052565b5060a083015160c083015260c083015161340c60e08401826001600160401b03169052565b5060e08301516001600160401b038116610100840152506101008301516001600160401b038116610120840152506101208301516001600160401b038116610140840152506101408301516101608084015261310c6101808401826130b5565b60006001820161347e5761347e6132a8565b5060010190565b81810360008312801583831316838312821617156134a5576134a56132a8565b5092915050565b6001600160401b038281168282160390811115612616576126166132a8565b8381526060602082015260006134e46060830185612d1a565b82810360408401526134f68185612d1a565b9695505050505050565b60ff8281168282160390811115612616576126166132a8565b6001815b600184111561355457808504811115613538576135386132a8565b600184161561354657908102905b60019390931c92800261351d565b935093915050565b60008261356b57506001612616565b8161357857506000612616565b816001811461358e5760028114613598576135b4565b6001915050612616565b60ff8411156135a9576135a96132a8565b50506001821b612616565b5060208310610133831016604e8410600b84101617156135d7575081810a612616565b6135e46000198484613519565b80600019048211156135f8576135f86132a8565b029392505050565b600061262860ff84168361355c565b6040815260006136226040830185612d1a565b90508260208301529392505050565b60006001600160401b0383168061364a5761364a6132e8565b806001600160401b038416069150509291505056fea264697066735822122095eb6e00cbdad189db97e08db30cb9dce38eac333df2c4698853e619dd17a31a64736f6c634300081a0033","linkReferences":{}},"methodIdentifiers":{"CHALLENGE_PERIOD()":"c3a079ed","DEPOSIT_TOKEN()":"13f66587","MAX_DEPOSIT_OUTPUTS()":"9cdb8e5a","MIN_ORDER_GAS_MULTIPLIER()":"5f5d5b6a","PROOF_GAS_COST()":"eb6c7522","RELEASE_GAS_COST()":"9a64279c","RESERVATION_LOCKUP_PERIOD()":"89a11f7a","SAMPLING_SIZE()":"ad062e55","TOKEN_DECIMALS()":"5b7f415c","addBlock(uint256,uint256,uint256,bytes32[],uint256)":"2d908c02","buildProofPublicInputs((bytes32,bytes32,bytes32,uint256,uint64,bytes32,uint64,uint64,uint64,uint64,bytes32[]))":"1cfff86b","circuitVerificationKey()":"3d7b22b3","currentConfirmationHeight()":"fba78166","currentHeight()":"163de0c5","depositLiquidity(uint256,uint64,bytes22,int256,int256)":"51a7f1cd","depositVaults(uint256)":"5f4d0610","emptyDepositVault(uint256)":"490d4c5f","getBlockHash(uint256)":"ee82ac5e","getDepositVault(uint256)":"276d080e","getDepositVaultUnreservedBalance(uint256)":"6512d057","getDepositVaultsLength()":"7dce5550","getLiquidityProvider(address)":"98f9e757","getReservation(uint256)":"d57763c3","getReservationLength()":"ea6fe03e","owner()":"8da5cb5b","proposeTransactionProof(uint256,bytes32,uint32,uint64,uint64,bytes32[],bytes)":"8f805ac9","protocolFeeBP()":"c5fba0b8","proverReward()":"6dcc17c8","releaseLiquidity(uint256)":"77891907","releaserReward()":"9cc7eab9","reserveLiquidity(uint256[],uint192[],address,uint256,uint256[])":"0140e183","swapReservations(uint256)":"6b994abb","transferOwnership(address)":"f2fde38b","updateExchangeRate(uint256,uint256,uint64,uint256[])":"56fe6f86","updateProtocolAddress(address)":"58e2b676","updateProtocolFee(uint8)":"0a7aa293","updateRewards(uint256,uint256)":"97e50818","validateBlockExists(uint256)":"ed8b2b32","verifierContract()":"cf695688","withdrawLiquidity(uint256,uint256,uint192,uint256[])":"aeacb2e7"},"storageLayout":{"storage":[{"astId":47835,"contract":"src/RiftExchange.sol:RiftExchange","label":"blockchain","offset":0,"slot":"0","type":"t_mapping(t_uint256,t_bytes32)"},{"astId":47837,"contract":"src/RiftExchange.sol:RiftExchange","label":"currentHeight","offset":0,"slot":"1","type":"t_uint256"},{"astId":47839,"contract":"src/RiftExchange.sol:RiftExchange","label":"currentConfirmationHeight","offset":0,"slot":"2","type":"t_uint256"},{"astId":46637,"contract":"src/RiftExchange.sol:RiftExchange","label":"owner","offset":0,"slot":"3","type":"t_address"},{"astId":48572,"contract":"src/RiftExchange.sol:RiftExchange","label":"protocolFeeBP","offset":20,"slot":"3","type":"t_uint8"},{"astId":48574,"contract":"src/RiftExchange.sol:RiftExchange","label":"proverReward","offset":0,"slot":"4","type":"t_uint256"},{"astId":48576,"contract":"src/RiftExchange.sol:RiftExchange","label":"releaserReward","offset":0,"slot":"5","type":"t_uint256"},{"astId":48663,"contract":"src/RiftExchange.sol:RiftExchange","label":"liquidityProviders","offset":0,"slot":"6","type":"t_mapping(t_address,t_struct(LiquidityProvider)48607_storage)"},{"astId":48667,"contract":"src/RiftExchange.sol:RiftExchange","label":"swapReservations","offset":0,"slot":"7","type":"t_array(t_struct(SwapReservation)48658_storage)dyn_storage"},{"astId":48671,"contract":"src/RiftExchange.sol:RiftExchange","label":"depositVaults","offset":0,"slot":"8","type":"t_array(t_struct(DepositVault)48618_storage)dyn_storage"},{"astId":48682,"contract":"src/RiftExchange.sol:RiftExchange","label":"protocolAddress","offset":0,"slot":"9","type":"t_address_payable"}],"types":{"t_address":{"encoding":"inplace","label":"address","numberOfBytes":"20"},"t_address_payable":{"encoding":"inplace","label":"address payable","numberOfBytes":"20"},"t_array(t_struct(DepositVault)48618_storage)dyn_storage":{"encoding":"dynamic_array","label":"struct RiftExchange.DepositVault[]","numberOfBytes":"32","base":"t_struct(DepositVault)48618_storage"},"t_array(t_struct(SwapReservation)48658_storage)dyn_storage":{"encoding":"dynamic_array","label":"struct RiftExchange.SwapReservation[]","numberOfBytes":"32","base":"t_struct(SwapReservation)48658_storage"},"t_array(t_uint192)dyn_storage":{"encoding":"dynamic_array","label":"uint192[]","numberOfBytes":"32","base":"t_uint192"},"t_array(t_uint256)dyn_storage":{"encoding":"dynamic_array","label":"uint256[]","numberOfBytes":"32","base":"t_uint256"},"t_bytes22":{"encoding":"inplace","label":"bytes22","numberOfBytes":"22"},"t_bytes32":{"encoding":"inplace","label":"bytes32","numberOfBytes":"32"},"t_enum(ReservationState)48624":{"encoding":"inplace","label":"enum RiftExchange.ReservationState","numberOfBytes":"1"},"t_int256":{"encoding":"inplace","label":"int256","numberOfBytes":"32"},"t_mapping(t_address,t_struct(LiquidityProvider)48607_storage)":{"encoding":"mapping","key":"t_address","label":"mapping(address => struct RiftExchange.LiquidityProvider)","numberOfBytes":"32","value":"t_struct(LiquidityProvider)48607_storage"},"t_mapping(t_uint256,t_bytes32)":{"encoding":"mapping","key":"t_uint256","label":"mapping(uint256 => bytes32)","numberOfBytes":"32","value":"t_bytes32"},"t_struct(DepositVault)48618_storage":{"encoding":"inplace","label":"struct RiftExchange.DepositVault","numberOfBytes":"128","members":[{"astId":48609,"contract":"src/RiftExchange.sol:RiftExchange","label":"initialBalance","offset":0,"slot":"0","type":"t_uint256"},{"astId":48611,"contract":"src/RiftExchange.sol:RiftExchange","label":"unreservedBalance","offset":0,"slot":"1","type":"t_uint256"},{"astId":48613,"contract":"src/RiftExchange.sol:RiftExchange","label":"withdrawnAmount","offset":0,"slot":"2","type":"t_uint256"},{"astId":48615,"contract":"src/RiftExchange.sol:RiftExchange","label":"exchangeRate","offset":0,"slot":"3","type":"t_uint64"},{"astId":48617,"contract":"src/RiftExchange.sol:RiftExchange","label":"btcPayoutLockingScript","offset":8,"slot":"3","type":"t_bytes22"}]},"t_struct(LiquidityProvider)48607_storage":{"encoding":"inplace","label":"struct RiftExchange.LiquidityProvider","numberOfBytes":"32","members":[{"astId":48606,"contract":"src/RiftExchange.sol:RiftExchange","label":"depositVaultIndexes","offset":0,"slot":"0","type":"t_array(t_uint256)dyn_storage"}]},"t_struct(SwapReservation)48658_storage":{"encoding":"inplace","label":"struct RiftExchange.SwapReservation","numberOfBytes":"352","members":[{"astId":48626,"contract":"src/RiftExchange.sol:RiftExchange","label":"owner","offset":0,"slot":"0","type":"t_address"},{"astId":48628,"contract":"src/RiftExchange.sol:RiftExchange","label":"confirmationBlockHeight","offset":20,"slot":"0","type":"t_uint32"},{"astId":48630,"contract":"src/RiftExchange.sol:RiftExchange","label":"reservationTimestamp","offset":24,"slot":"0","type":"t_uint32"},{"astId":48632,"contract":"src/RiftExchange.sol:RiftExchange","label":"unlockTimestamp","offset":28,"slot":"0","type":"t_uint32"},{"astId":48635,"contract":"src/RiftExchange.sol:RiftExchange","label":"state","offset":0,"slot":"1","type":"t_enum(ReservationState)48624"},{"astId":48637,"contract":"src/RiftExchange.sol:RiftExchange","label":"ethPayoutAddress","offset":1,"slot":"1","type":"t_address"},{"astId":48639,"contract":"src/RiftExchange.sol:RiftExchange","label":"lpReservationHash","offset":0,"slot":"2","type":"t_bytes32"},{"astId":48641,"contract":"src/RiftExchange.sol:RiftExchange","label":"nonce","offset":0,"slot":"3","type":"t_bytes32"},{"astId":48643,"contract":"src/RiftExchange.sol:RiftExchange","label":"totalSatsInputInlcudingProxyFee","offset":0,"slot":"4","type":"t_uint256"},{"astId":48645,"contract":"src/RiftExchange.sol:RiftExchange","label":"totalSwapOutputAmount","offset":0,"slot":"5","type":"t_uint256"},{"astId":48647,"contract":"src/RiftExchange.sol:RiftExchange","label":"prepaidFeeAmount","offset":0,"slot":"6","type":"t_int256"},{"astId":48649,"contract":"src/RiftExchange.sol:RiftExchange","label":"proposedBlockHeight","offset":0,"slot":"7","type":"t_uint256"},{"astId":48651,"contract":"src/RiftExchange.sol:RiftExchange","label":"proposedBlockHash","offset":0,"slot":"8","type":"t_bytes32"},{"astId":48654,"contract":"src/RiftExchange.sol:RiftExchange","label":"vaultIndexes","offset":0,"slot":"9","type":"t_array(t_uint256)dyn_storage"},{"astId":48657,"contract":"src/RiftExchange.sol:RiftExchange","label":"amountsToReserve","offset":0,"slot":"10","type":"t_array(t_uint192)dyn_storage"}]},"t_uint192":{"encoding":"inplace","label":"uint192","numberOfBytes":"24"},"t_uint256":{"encoding":"inplace","label":"uint256","numberOfBytes":"32"},"t_uint32":{"encoding":"inplace","label":"uint32","numberOfBytes":"4"},"t_uint64":{"encoding":"inplace","label":"uint64","numberOfBytes":"8"},"t_uint8":{"encoding":"inplace","label":"uint8","numberOfBytes":"1"}}},"id":32}