{"abi":[{"type":"constructor","inputs":[{"name":"initialCheckpointHeight","type":"uint256","internalType":"uint256"},{"name":"initialBlockHash","type":"bytes32","internalType":"bytes32"},{"name":"initialRetargetBlockHash","type":"bytes32","internalType":"bytes32"},{"name":"verifierContractAddress","type":"address","internalType":"address"},{"name":"depositTokenAddress","type":"address","internalType":"address"},{"name":"_proverReward","type":"uint256","internalType":"uint256"},{"name":"_releaserReward","type":"uint256","internalType":"uint256"},{"name":"_protocolAddress","type":"address","internalType":"address payable"},{"name":"_owner","type":"address","internalType":"address"},{"name":"_circuitVerificationKey","type":"bytes32","internalType":"bytes32"}],"stateMutability":"nonpayable"},{"type":"function","name":"CHALLENGE_PERIOD","inputs":[],"outputs":[{"name":"","type":"uint256","internalType":"uint256"}],"stateMutability":"view"},{"type":"function","name":"DEPOSIT_TOKEN","inputs":[],"outputs":[{"name":"","type":"address","internalType":"contract IERC20"}],"stateMutability":"view"},{"type":"function","name":"MAX_DEPOSIT_OUTPUTS","inputs":[],"outputs":[{"name":"","type":"uint16","internalType":"uint16"}],"stateMutability":"view"},{"type":"function","name":"MIN_ORDER_GAS_MULTIPLIER","inputs":[],"outputs":[{"name":"","type":"uint256","internalType":"uint256"}],"stateMutability":"view"},{"type":"function","name":"PROOF_GAS_COST","inputs":[],"outputs":[{"name":"","type":"uint256","internalType":"uint256"}],"stateMutability":"view"},{"type":"function","name":"RELEASE_GAS_COST","inputs":[],"outputs":[{"name":"","type":"uint256","internalType":"uint256"}],"stateMutability":"view"},{"type":"function","name":"RESERVATION_LOCKUP_PERIOD","inputs":[],"outputs":[{"name":"","type":"uint256","internalType":"uint256"}],"stateMutability":"view"},{"type":"function","name":"SAMPLING_SIZE","inputs":[],"outputs":[{"name":"","type":"uint8","internalType":"uint8"}],"stateMutability":"view"},{"type":"function","name":"TOKEN_DECIMALS","inputs":[],"outputs":[{"name":"","type":"uint8","internalType":"uint8"}],"stateMutability":"view"},{"type":"function","name":"addBlock","inputs":[{"name":"safeBlockHeight","type":"uint256","internalType":"uint256"},{"name":"proposedBlockHeight","type":"uint256","internalType":"uint256"},{"name":"confirmationBlockHeight","type":"uint256","internalType":"uint256"},{"name":"blockHashes","type":"bytes32[]","internalType":"bytes32[]"},{"name":"proposedBlockIndex","type":"uint256","internalType":"uint256"}],"outputs":[],"stateMutability":"nonpayable"},{"type":"function","name":"buildProofPublicInputs","inputs":[{"name":"inputs","type":"tuple","internalType":"struct RiftExchange.ProofPublicInputs","components":[{"name":"natural_txid","type":"bytes32","internalType":"bytes32"},{"name":"lp_reservation_hash","type":"bytes32","internalType":"bytes32"},{"name":"order_nonce","type":"bytes32","internalType":"bytes32"},{"name":"lp_count","type":"uint64","internalType":"uint64"},{"name":"retarget_block_hash","type":"bytes32","internalType":"bytes32"},{"name":"safe_block_height","type":"uint64","internalType":"uint64"},{"name":"safe_block_height_delta","type":"uint64","internalType":"uint64"},{"name":"confirmation_block_height_delta","type":"uint64","internalType":"uint64"},{"name":"retarget_block_height","type":"uint64","internalType":"uint64"},{"name":"block_hashes","type":"bytes32[]","internalType":"bytes32[]"}]}],"outputs":[{"name":"","type":"bytes","internalType":"bytes"}],"stateMutability":"pure"},{"type":"function","name":"circuitVerificationKey","inputs":[],"outputs":[{"name":"","type":"bytes32","internalType":"bytes32"}],"stateMutability":"view"},{"type":"function","name":"currentConfirmationHeight","inputs":[],"outputs":[{"name":"","type":"uint256","internalType":"uint256"}],"stateMutability":"view"},{"type":"function","name":"currentHeight","inputs":[],"outputs":[{"name":"","type":"uint256","internalType":"uint256"}],"stateMutability":"view"},{"type":"function","name":"depositLiquidity","inputs":[{"name":"depositAmount","type":"uint256","internalType":"uint256"},{"name":"exchangeRate","type":"uint64","internalType":"uint64"},{"name":"btcPayoutLockingScript","type":"bytes22","internalType":"bytes22"},{"name":"vaultIndexToOverwrite","type":"int256","internalType":"int256"},{"name":"vaultIndexWithSameExchangeRate","type":"int256","internalType":"int256"}],"outputs":[],"stateMutability":"nonpayable"},{"type":"function","name":"depositVaults","inputs":[{"name":"","type":"uint256","internalType":"uint256"}],"outputs":[{"name":"initialBalance","type":"uint256","internalType":"uint256"},{"name":"unreservedBalance","type":"uint256","internalType":"uint256"},{"name":"withdrawnAmount","type":"uint256","internalType":"uint256"},{"name":"exchangeRate","type":"uint64","internalType":"uint64"},{"name":"btcPayoutLockingScript","type":"bytes22","internalType":"bytes22"}],"stateMutability":"view"},{"type":"function","name":"emptyDepositVault","inputs":[{"name":"vaultIndex","type":"uint256","internalType":"uint256"}],"outputs":[],"stateMutability":"nonpayable"},{"type":"function","name":"getBlockHash","inputs":[{"name":"blockHeight","type":"uint256","internalType":"uint256"}],"outputs":[{"name":"","type":"bytes32","internalType":"bytes32"}],"stateMutability":"view"},{"type":"function","name":"getDepositVault","inputs":[{"name":"depositIndex","type":"uint256","internalType":"uint256"}],"outputs":[{"name":"","type":"tuple","internalType":"struct RiftExchange.DepositVault","components":[{"name":"initialBalance","type":"uint256","internalType":"uint256"},{"name":"unreservedBalance","type":"uint256","internalType":"uint256"},{"name":"withdrawnAmount","type":"uint256","internalType":"uint256"},{"name":"exchangeRate","type":"uint64","internalType":"uint64"},{"name":"btcPayoutLockingScript","type":"bytes22","internalType":"bytes22"}]}],"stateMutability":"view"},{"type":"function","name":"getDepositVaultUnreservedBalance","inputs":[{"name":"depositIndex","type":"uint256","internalType":"uint256"}],"outputs":[{"name":"","type":"uint256","internalType":"uint256"}],"stateMutability":"view"},{"type":"function","name":"getDepositVaultsLength","inputs":[],"outputs":[{"name":"","type":"uint256","internalType":"uint256"}],"stateMutability":"view"},{"type":"function","name":"getLiquidityProvider","inputs":[{"name":"lpAddress","type":"address","internalType":"address"}],"outputs":[{"name":"","type":"tuple","internalType":"struct RiftExchange.LiquidityProvider","components":[{"name":"depositVaultIndexes","type":"uint256[]","internalType":"uint256[]"}]}],"stateMutability":"view"},{"type":"function","name":"getReservation","inputs":[{"name":"reservationIndex","type":"uint256","internalType":"uint256"}],"outputs":[{"name":"","type":"tuple","internalType":"struct RiftExchange.SwapReservation","components":[{"name":"owner","type":"address","internalType":"address"},{"name":"confirmationBlockHeight","type":"uint32","internalType":"uint32"},{"name":"reservationTimestamp","type":"uint32","internalType":"uint32"},{"name":"unlockTimestamp","type":"uint32","internalType":"uint32"},{"name":"state","type":"uint8","internalType":"enum RiftExchange.ReservationState"},{"name":"ethPayoutAddress","type":"address","internalType":"address"},{"name":"lpReservationHash","type":"bytes32","internalType":"bytes32"},{"name":"nonce","type":"bytes32","internalType":"bytes32"},{"name":"totalSatsInputInlcudingProxyFee","type":"uint256","internalType":"uint256"},{"name":"totalSwapOutputAmount","type":"uint256","internalType":"uint256"},{"name":"prepaidFeeAmount","type":"int256","internalType":"int256"},{"name":"proposedBlockHeight","type":"uint256","internalType":"uint256"},{"name":"proposedBlockHash","type":"bytes32","internalType":"bytes32"},{"name":"vaultIndexes","type":"uint256[]","internalType":"uint256[]"},{"name":"amountsToReserve","type":"uint192[]","internalType":"uint192[]"},{"name":"expectedSatsOutput","type":"uint64[]","internalType":"uint64[]"}]}],"stateMutability":"view"},{"type":"function","name":"getReservationLength","inputs":[],"outputs":[{"name":"","type":"uint256","internalType":"uint256"}],"stateMutability":"view"},{"type":"function","name":"owner","inputs":[],"outputs":[{"name":"","type":"address","internalType":"address"}],"stateMutability":"view"},{"type":"function","name":"proposeTransactionProof","inputs":[{"name":"swapReservationIndex","type":"uint256","internalType":"uint256"},{"name":"bitcoinTxId","type":"bytes32","internalType":"bytes32"},{"name":"safeBlockHeight","type":"uint32","internalType":"uint32"},{"name":"proposedBlockHeight","type":"uint64","internalType":"uint64"},{"name":"confirmationBlockHeight","type":"uint64","internalType":"uint64"},{"name":"blockHashes","type":"bytes32[]","internalType":"bytes32[]"},{"name":"proof","type":"bytes","internalType":"bytes"}],"outputs":[],"stateMutability":"nonpayable"},{"type":"function","name":"protocolFeeBP","inputs":[],"outputs":[{"name":"","type":"uint8","internalType":"uint8"}],"stateMutability":"view"},{"type":"function","name":"proverReward","inputs":[],"outputs":[{"name":"","type":"uint256","internalType":"uint256"}],"stateMutability":"view"},{"type":"function","name":"releaseLiquidity","inputs":[{"name":"swapReservationIndex","type":"uint256","internalType":"uint256"}],"outputs":[],"stateMutability":"nonpayable"},{"type":"function","name":"releaserReward","inputs":[],"outputs":[{"name":"","type":"uint256","internalType":"uint256"}],"stateMutability":"view"},{"type":"function","name":"reserveLiquidity","inputs":[{"name":"vaultIndexesToReserve","type":"uint256[]","internalType":"uint256[]"},{"name":"amountsToReserve","type":"uint192[]","internalType":"uint192[]"},{"name":"ethPayoutAddress","type":"address","internalType":"address"},{"name":"totalSatsInputInlcudingProxyFee","type":"uint256","internalType":"uint256"},{"name":"expiredSwapReservationIndexes","type":"uint256[]","internalType":"uint256[]"}],"outputs":[],"stateMutability":"nonpayable"},{"type":"function","name":"setSwapReservationState","inputs":[{"name":"swapReservationIndex","type":"uint256","internalType":"uint256"},{"name":"state","type":"uint8","internalType":"enum RiftExchange.ReservationState"}],"outputs":[],"stateMutability":"nonpayable"},{"type":"function","name":"swapReservations","inputs":[{"name":"","type":"uint256","internalType":"uint256"}],"outputs":[{"name":"owner","type":"address","internalType":"address"},{"name":"confirmationBlockHeight","type":"uint32","internalType":"uint32"},{"name":"reservationTimestamp","type":"uint32","internalType":"uint32"},{"name":"unlockTimestamp","type":"uint32","internalType":"uint32"},{"name":"state","type":"uint8","internalType":"enum RiftExchange.ReservationState"},{"name":"ethPayoutAddress","type":"address","internalType":"address"},{"name":"lpReservationHash","type":"bytes32","internalType":"bytes32"},{"name":"nonce","type":"bytes32","internalType":"bytes32"},{"name":"totalSatsInputInlcudingProxyFee","type":"uint256","internalType":"uint256"},{"name":"totalSwapOutputAmount","type":"uint256","internalType":"uint256"},{"name":"prepaidFeeAmount","type":"int256","internalType":"int256"},{"name":"proposedBlockHeight","type":"uint256","internalType":"uint256"},{"name":"proposedBlockHash","type":"bytes32","internalType":"bytes32"}],"stateMutability":"view"},{"type":"function","name":"transferOwnership","inputs":[{"name":"newOwner","type":"address","internalType":"address"}],"outputs":[],"stateMutability":"nonpayable"},{"type":"function","name":"updateExchangeRate","inputs":[{"name":"globalVaultIndex","type":"uint256","internalType":"uint256"},{"name":"localVaultIndex","type":"uint256","internalType":"uint256"},{"name":"newexchangeRate","type":"uint64","internalType":"uint64"},{"name":"expiredReservationIndexes","type":"uint256[]","internalType":"uint256[]"}],"outputs":[],"stateMutability":"nonpayable"},{"type":"function","name":"updateProtocolAddress","inputs":[{"name":"newProtocolAddress","type":"address","internalType":"address payable"}],"outputs":[],"stateMutability":"nonpayable"},{"type":"function","name":"updateProtocolFee","inputs":[{"name":"newProtocolFeeBP","type":"uint8","internalType":"uint8"}],"outputs":[],"stateMutability":"nonpayable"},{"type":"function","name":"updateRewards","inputs":[{"name":"newProverReward","type":"uint256","internalType":"uint256"},{"name":"newReleaserReward","type":"uint256","internalType":"uint256"}],"outputs":[],"stateMutability":"nonpayable"},{"type":"function","name":"validateBlockExists","inputs":[{"name":"blockHeight","type":"uint256","internalType":"uint256"}],"outputs":[],"stateMutability":"view"},{"type":"function","name":"verifierContract","inputs":[],"outputs":[{"name":"","type":"address","internalType":"contract ISP1Verifier"}],"stateMutability":"view"},{"type":"function","name":"withdrawLiquidity","inputs":[{"name":"globalVaultIndex","type":"uint256","internalType":"uint256"},{"name":"localVaultIndex","type":"uint256","internalType":"uint256"},{"name":"amountToWithdraw","type":"uint192","internalType":"uint192"},{"name":"expiredReservationIndexes","type":"uint256[]","internalType":"uint256[]"}],"outputs":[],"stateMutability":"nonpayable"},{"type":"event","name":"BlocksAdded","inputs":[{"name":"startBlockHeight","type":"uint256","indexed":false,"internalType":"uint256"},{"name":"count","type":"uint256","indexed":false,"internalType":"uint256"}],"anonymous":false},{"type":"event","name":"LiquidityReserved","inputs":[{"name":"reserver","type":"address","indexed":true,"internalType":"address"},{"name":"swapReservationIndex","type":"uint256","indexed":false,"internalType":"uint256"},{"name":"orderNonce","type":"bytes32","indexed":false,"internalType":"bytes32"}],"anonymous":false},{"type":"event","name":"OwnershipTransferred","inputs":[{"name":"user","type":"address","indexed":true,"internalType":"address"},{"name":"newOwner","type":"address","indexed":true,"internalType":"address"}],"anonymous":false},{"type":"event","name":"ProofProposed","inputs":[{"name":"prover","type":"address","indexed":true,"internalType":"address"},{"name":"swapReservationIndex","type":"uint256","indexed":false,"internalType":"uint256"},{"name":"orderNonce","type":"bytes32","indexed":false,"internalType":"bytes32"}],"anonymous":false},{"type":"event","name":"SwapComplete","inputs":[{"name":"swapReservationIndex","type":"uint256","indexed":false,"internalType":"uint256"},{"name":"orderNonce","type":"bytes32","indexed":false,"internalType":"bytes32"}],"anonymous":false},{"type":"error","name":"BlockDoesNotExist","inputs":[]},{"type":"error","name":"InvaidSameExchangeRatevaultIndex","inputs":[]},{"type":"error","name":"InvalidConfirmationBlock","inputs":[]},{"type":"error","name":"InvalidProposedBlockOverwrite","inputs":[]},{"type":"error","name":"InvalidSafeBlock","inputs":[]},{"type":"error","name":"InvalidUpdateWithActiveReservations","inputs":[]},{"type":"error","name":"InvalidVaultIndex","inputs":[]},{"type":"error","name":"InvalidVaultUpdate","inputs":[]},{"type":"error","name":"NotEnoughLiquidity","inputs":[]},{"type":"error","name":"NotVaultOwner","inputs":[]},{"type":"error","name":"OverwrittenProposedBlock","inputs":[]},{"type":"error","name":"ReservationNotExpired","inputs":[]},{"type":"error","name":"ReservationNotUnlocked","inputs":[]},{"type":"error","name":"StillInChallengePeriod","inputs":[]},{"type":"error","name":"WithdrawalAmountError","inputs":[]},{"type":"error","name":"exchangeRateZero","inputs":[]}],"bytecode":{"object":"0x61010060405260038054600560a11b60ff60a01b19909116179055600980546001600160a01b03191673f39fd6e51aad88f6f4ce6ab8827279cfffb9226617905534801561004c57600080fd5b50604051613d6e380380613d6e83398101604081905261006b91610367565b60018a905560008a81526020819052604081208a905582908b908b908b9081908061009586610234565b6001600160401b0316815260208101919091526040908101600090812092909255600380546001600160a01b0319166001600160a01b03881690811790915590519094509092507f8be0079c531659141344cd1fd0a4f28419497f9722a3daafe3b4186f6b6457e091508290a35060e08190526001600160a01b0380881660c052861660805260408051808201909152600f81526e02222a827a9a4aa2faa27a5a2a71d1608d1b602082015261014a90610252565b6080516101569061029c565b6080516001600160a01b031663313ce5676040518163ffffffff1660e01b8152600401602060405180830381865afa158015610196573d6000803e3d6000fd5b505050506040513d601f19601f820116820180604052508101906101ba919061040d565b60ff1660a05260408051808201909152601081526f02a27a5a2a72fa222a1a4a6a0a6299d160851b60208201526101f090610252565b60a0516101ff9060ff166102e8565b5050600492909255600555600980546001600160a01b0319166001600160a01b03909216919091179055506104ef9350505050565b60006102426107e083610437565b61024c9083610474565b92915050565b6102998160405160240161026691906104a1565b60408051601f198184030181529190526020810180516001600160e01b0390811663104c13eb60e21b1790915261033116565b50565b6040516001600160a01b03821660248201526102999060440160408051601f198184030181529190526020810180516001600160e01b0390811663161765e160e11b1790915261033116565b610299816040516024016102fe91815260200190565b60408051601f198184030181529190526020810180516001600160e01b0390811663f5b1bba960e01b1790915261033116565b80516a636f6e736f6c652e6c6f67602083016000808483855afa5050505050565b6001600160a01b038116811461029957600080fd5b6000806000806000806000806000806101408b8d03121561038757600080fd5b8a5160208c015160408d015160608e0151929c50909a5098506103a981610352565b60808c01519097506103ba81610352565b60a08c015160c08d015160e08e015192985090965094506103da81610352565b6101008c01519093506103ec81610352565b8092505060006101208c01519050809150509295989b9194979a5092959850565b60006020828403121561041f57600080fd5b815160ff8116811461043057600080fd5b9392505050565b60006001600160401b0383168061045e57634e487b7160e01b600052601260045260246000fd5b6001600160401b03929092169190910692915050565b6001600160401b03828116828216039081111561024c57634e487b7160e01b600052601160045260246000fd5b602081526000825180602084015260005b818110156104cf57602081860181015160408684010152016104b2565b506000604082850101526040601f19601f83011684010191505092915050565b60805160a05160c05160e0516138076105676000396000610356015260006105b60152600081816103c90152818161075a0152611da301526000818161028501528181610eb201528181610f900152818161172f01528181611b0c01528181611c0401528181611f9701526122b601526138076000f3fe608060405234801561001057600080fd5b50600436106102535760003560e01c80637e38d04c11610146578063aeacb2e7116100c3578063ea6fe03e11610087578063ea6fe03e146105f8578063eb6c752214610600578063ed8b2b321461060a578063ee82ac5e1461061d578063f2fde38b1461063d578063fba781661461065057600080fd5b8063aeacb2e714610581578063c3a079ed14610594578063c5fba0b81461059d578063cf695688146105b1578063d57763c3146105d857600080fd5b806398f9e7571161010a57806398f9e7571461052b5780639a64279c1461054b5780639cc7eab9146105555780639cdb8e5a1461055e578063ad062e551461057957600080fd5b80637e38d04c146104c957806389a11f7a146104e95780638da5cb5b146104f25780638f805ac91461050557806397e508181461051857600080fd5b806358e2b676116101d45780636b994abb116101985780636b994abb146104665780636dcc17c814610492578063778919071461049b5780637b93291f146104ae5780637dce5550146104c157600080fd5b806358e2b676146103b15780635b7f415c146103c45780635f4d0610146103fd5780635f5d5b6a1461044b5780636512d0571461045357600080fd5b80632d908c021161021b5780632d908c021461033e5780633d7b22b314610351578063490d4c5f1461037857806351a7f1cd1461038b57806356fe6f861461039e57600080fd5b80630140e183146102585780630a7aa2931461026d57806313f6658714610280578063163de0c5146102c4578063276d080e146102db575b600080fd5b61026b610266366004612be2565b610659565b005b61026b61027b366004612cef565b61105d565b6102a77f000000000000000000000000000000000000000000000000000000000000000081565b6040516001600160a01b0390911681526020015b60405180910390f35b6102cd60015481565b6040519081526020016102bb565b6102ee6102e9366004612d12565b6110b0565b6040516102bb91908151815260208083015190820152604080830151908201526060808301516001600160401b0316908201526080918201516001600160501b0319169181019190915260a00190565b61026b61034c366004612d2b565b611159565b6102cd7f000000000000000000000000000000000000000000000000000000000000000081565b61026b610386366004612d12565b61138b565b61026b610399366004612da3565b6113cf565b61026b6103ac366004612e00565b6117ad565b61026b6103bf366004612e60565b61189f565b6103eb7f000000000000000000000000000000000000000000000000000000000000000081565b60405160ff90911681526020016102bb565b61041061040b366004612d12565b6118eb565b604080519586526020860194909452928401919091526001600160401b031660608301526001600160501b031916608082015260a0016102bb565b6102cd600281565b6102cd610461366004612d12565b61193a565b610479610474366004612d12565b611968565b6040516102bb9d9c9b9a99989796959493929190612eb5565b6102cd60045481565b61026b6104a9366004612d12565b6119fe565b61026b6104bc366004612f3d565b611cc5565b6008546102cd565b6104dc6104d7366004612f71565b611d14565b6040516102bb91906130b2565b6102cd61708081565b6003546102a7906001600160a01b031681565b61026b610513366004613134565b611d3d565b61026b6105263660046131eb565b6120b5565b61053e610539366004612e60565b6120ea565b6040516102bb9190613249565b6102cd6203345081565b6102cd60055481565b610566603281565b60405161ffff90911681526020016102bb565b6103eb600a81565b61026b61058f36600461326c565b61216d565b6102cd61025881565b6003546103eb90600160a01b900460ff1681565b6102a77f000000000000000000000000000000000000000000000000000000000000000081565b6105eb6105e6366004612d12565b6122ed565b6040516102bb919061330f565b6007546102cd565b6102cd620668a081565b61026b610618366004612d12565b6125e8565b6102cd61062b366004612d12565b60009081526020819052604090205490565b61026b61064b366004612e60565b612617565b6102cd60025481565b600080600087516001600160401b0381111561067757610677612aa7565b6040519080825280602002602001820160405280156106a0578160200160208202803683370190505b50905060005b87518110156107d157600060088a83815181106106c5576106c5613445565b6020026020010151815481106106dd576106dd613445565b600091825260209091206003600490920201015489516001600160401b03909116915089908390811061071257610712613445565b60200260200101516001600160c01b03168561072e9190613471565b9450600061077e8a848151811061074757610747613445565b60200260200101516001600160c01b03167f000000000000000000000000000000000000000000000000000000000000000061268d565b9050600061078c838361349a565b90506107988187613471565b9550808585815181106107ad576107ad613445565b6001600160401b0392909216602092830291909101909101525050506001016106a6565b5060006107e8670de0b6b3a76400006127106134ae565b600354600160a01b900460ff16610807670de0b6b3a7640000876134ae565b61081191906134ae565b61081b919061349a565b905061084c6040518060400160405280600d81526020016c0383937ba37b1b7b62332b29d1609d1b815250826126cb565b60045460408051808201909152600b81526a0383937bb32b92332b29d160ad1b602082015261087b90826126cb565b60055460408051808201909152600d81526c03932b632b0b9b2b92332b29d1609d1b60208201526108ac90826126cb565b6108b587612714565b6108be8761279e565b6000805b8c51811015610a455760028682815181106108df576108df613445565b602002602001015160088f84815181106108fb576108fb613445565b60200260200101518154811061091357610913613445565b600091825260209182902060036004909202010154604080516001600160401b03909416928401929092526001600160501b0319600160401b90910460501b16908201526060810184905260800160408051601f198184030181529082905261097b916134c5565b602060405180830381855afa158015610998573d6000803e3d6000fd5b5050506040513d601f19601f820116820180604052508101906109bb91906134e1565b915060088d82815181106109d1576109d1613445565b6020026020010151815481106109e9576109e9613445565b9060005260206000209060040201600101548c8281518110610a0d57610a0d613445565b60200260200101516001600160c01b03161115610a3d57604051634323a55560e01b815260040160405180910390fd5b6001016108c2565b50600754604080516001600160a01b038d1660208083019190915242828401524660608301526080820185905260a0808301949094528251808303909401845260c09091019091528151910120885115610bc757600060078a600081518110610ab057610ab0613445565b602002602001015181548110610ac857610ac8613445565b60009182526020909120600c9091020180546001600160a01b0319163317815560018082018054929350909160ff191682800217905550600181018054610100600160a81b0319166101006001600160a01b038f160217905580546001600160c01b0316600160c01b4263ffffffff16026001600160e01b0316178155610b4f8486613471565b81600601819055508881600501819055508181600301819055508a81600401819055508d816009019080519060200190610b8a929190612943565b508c81600a019080519060200190610ba392919061298e565b50600281018390558651610bc090600b83019060208a01906129e3565b5050610e1f565b60408051610200810182523381526000602082018190524263ffffffff1692820192909252606081019190915260079060808101600181526020018d6001600160a01b031681526020018481526020018381526020018c81526020018a81526020018587610c359190613471565b8152602001600081526020016000801b81526020018f81526020018e81526020018881525090806001815401808255809150506001900390600052602060002090600c020160009091909190915060008201518160000160006101000a8154816001600160a01b0302191690836001600160a01b0316021790555060208201518160000160146101000a81548163ffffffff021916908363ffffffff16021790555060408201518160000160186101000a81548163ffffffff021916908363ffffffff160217905550606082015181600001601c6101000a81548163ffffffff021916908363ffffffff16021790555060808201518160010160006101000a81548160ff02191690836004811115610d4f57610d4f612e7d565b021790555060a0820151600182018054610100600160a81b0319166101006001600160a01b03909316830217905560c0830151600283015560e08301516003830155820151600482015561012082015160058201556101408201516006820155610160820151600782015561018082015160088201556101a08201518051610de1916009840191602090910190612943565b506101c08201518051610dfe91600a84019160209091019061298e565b506101e08201518051610e1b91600b8401916020909101906129e3565b5050505b60005b8d51811015610ea7578c8181518110610e3d57610e3d613445565b60200260200101516001600160c01b031660088f8381518110610e6257610e62613445565b602002602001015181548110610e7a57610e7a613445565b90600052602060002090600402016001016000828254610e9a91906134fa565b9091555050600101610e22565b506001600160a01b037f0000000000000000000000000000000000000000000000000000000000000000166323b872dd333086610ee48a8a613471565b610eee9190613471565b6040516001600160e01b031960e086901b1681526001600160a01b03938416600482015292909116602483015260448201526064016020604051808303816000875af1158015610f42573d6000803e3d6000fd5b505050506040513d601f19601f82011682018060405250810190610f66919061350d565b5060095460405163a9059cbb60e01b81526001600160a01b039182166004820152602481018790527f00000000000000000000000000000000000000000000000000000000000000009091169063a9059cbb906044016020604051808303816000875af1158015610fdb573d6000803e3d6000fd5b505050506040513d601f19601f82011682018060405250810190610fff919061350d565b50337f5956135c9be999a50f7ff4ea49ddf1485bc321ab333dc7a0877633eeb4752893600161102d60075490565b61103791906134fa565b60408051918252602082018590520160405180910390a250505050505050505050505050565b6003546001600160a01b031633146110905760405162461bcd60e51b81526004016110879061352f565b60405180910390fd5b6003805460ff909216600160a01b0260ff60a01b19909216919091179055565b6040805160a081018252600080825260208201819052918101829052606081018290526080810191909152600882815481106110ee576110ee613445565b60009182526020918290206040805160a0810182526004909302909101805483526001810154938301939093526002830154908201526003909101546001600160401b03811660608301526001600160501b0319600160401b90910460501b16608082015292915050565b600180549061116886866134fa565b10156111c3576000848152602081905260409020548351849061118d906001906134fa565b8151811061119d5761119d613445565b6020026020010151146111c3576040516341305f6360e01b815260040160405180910390fd5b808611156111e45760405163575f3da360e01b815260040160405180910390fd5b8282815181106111f6576111f6613445565b6020026020010151600080878152602001908152602001600020540361121c5750611384565b6000858152602081905260409020541580159061123b57508360025410155b15611259576040516371e98f3d60e11b815260040160405180910390fd5b808511156112fd5780860361129d5782828151811061127a5761127a613445565b602002602001015160008087815260200190815260200160002081905550611336565b808610156112f857855b8581116112f657836112b988836134fa565b815181106112c9576112c9613445565b602090810291909101810151600083815291829052604090912055806112ee81613555565b9150506112a7565b505b611336565b808510156113365782828151811061131757611317613445565b6020026020010151600080878152602001908152602001600020819055505b6001548511156113465760018590555b82516040805188815260208101929092527fb68477c768bbb33b4f238a3dfd17c33c499268c59cd042b7936bbc23dc2bdd34910160405180910390a1505b5050505050565b6000600882815481106113a0576113a0613445565b600091825260208220600490910201818155600181019190915560030180546001600160f01b03191690555050565b6114006040518060400160405280601081526020016f6465706f7369744c697175696469747960801b8152506128a8565b6114316040518060400160405280600f81526020016e02232b837b9b4ba20b6b7bab73a1d1608d1b815250866126cb565b836001600160401b031660000361145b57604051635c4ad48d60e11b815260040160405180910390fd5b3360009081526006602052604081205490036114a9576040805160006020808301828152838501855283523382526006815292902081518051929391926114a59284920190612943565b5050505b80600019146115355760008190506000600882815481106114cc576114cc613445565b6000918252602090912060049091020160038101549091506001600160401b03878116911603611515578681600101600082825461150a9190613471565b9091555061152e9050565b60405163927ce9e760e01b815260040160405180910390fd5b50506116d9565b81600019146115c85760006008838154811061155357611553613445565b9060005260206000209060040201905080600101546000146115885760405163721e09df60e01b815260040160405180910390fd5b85815560018101869055600060028201556003018054605085901c600160401b026001600160f01b03199091166001600160401b038716171790556116d9565b6040805160a0810182528681526020810187815260009282018381526001600160401b03808916606085019081526001600160501b0319891660808601908152600880546001810182559752945160049096027ff3f7a9fe364faab93b216da50a3214154f22a0a2b415b23a84c8169e8b636ee381019690965592517ff3f7a9fe364faab93b216da50a3214154f22a0a2b415b23a84c8169e8b636ee486015590517ff3f7a9fe364faab93b216da50a3214154f22a0a2b415b23a84c8169e8b636ee585015590517ff3f7a9fe364faab93b216da50a3214154f22a0a2b415b23a84c8169e8b636ee69093018054925160501c600160401b026001600160f01b031990931693909116929092171790555b3360009081526006602052604090206008546116f7906001906134fa565b815460018101835560009283526020909220909101556040516323b872dd60e01b8152336004820152306024820152604481018690527f00000000000000000000000000000000000000000000000000000000000000006001600160a01b0316906323b872dd906064015b6020604051808303816000875af1158015611781573d6000803e3d6000fd5b505050506040513d601f19601f820116820180604052508101906117a5919061350d565b505050505050565b3360009081526006602052604090208054859190859081106117d1576117d1613445565b9060005260206000200154146117fa57604051630e7fea9d60e01b815260040160405180910390fd5b816001600160401b031660000361182457604051636e5a187760e11b815260040160405180910390fd5b60006008858154811061183957611839613445565b906000526020600020906004020190506118528261279e565b8054600182015414611877576040516391bc6cc360e01b815260040160405180910390fd5b600301805467ffffffffffffffff19166001600160401b039390931692909217909155505050565b6003546001600160a01b031633146118c95760405162461bcd60e51b81526004016110879061352f565b600980546001600160a01b0319166001600160a01b0392909216919091179055565b600881815481106118fb57600080fd5b6000918252602090912060049091020180546001820154600283015460039093015491935091906001600160401b03811690600160401b900460501b85565b60006008828154811061194f5761194f613445565b9060005260206000209060040201600101549050919050565b6007818154811061197857600080fd5b60009182526020909120600c90910201805460018201546002830154600384015460048501546005860154600687015460078801546008909801546001600160a01b038089169a5063ffffffff600160a01b8a0481169a600160c01b8b0482169a600160e01b90049091169860ff8116986101009091049092169691959194919391928d565b600060078281548110611a1357611a13613445565b60009182526020909120600c9091020190506002600182015460ff166004811115611a4057611a40612e7d565b14611a5e5760405163b38c767b60e01b815260040160405180910390fd5b805461025890611a7b90600160e01b900463ffffffff16426134fa565b1015611a9a57604051632d5c37f560e21b815260040160405180910390fd5b6008810154600782015460009081526020819052604090205403611ad15760405163c1f6fa5160e01b815260040160405180910390fd5b6000611ae048620334506134ae565b600554611aed9190613471565b60405163a9059cbb60e01b8152336004820152602481018290529091507f00000000000000000000000000000000000000000000000000000000000000006001600160a01b03169063a9059cbb906044016020604051808303816000875af1158015611b5d573d6000803e3d6000fd5b505050506040513d601f19601f82011682018060405250810190611b81919061350d565b5080826006016000828254611b96919061356e565b9091555050600682015460001315611bcd578160060154826005016000828254611bc09190613471565b9091555050600060068301555b6001820154600583015460405163a9059cbb60e01b81526101009092046001600160a01b03908116600484015260248301919091527f0000000000000000000000000000000000000000000000000000000000000000169063a9059cbb906044016020604051808303816000875af1158015611c4d573d6000803e3d6000fd5b505050506040513d601f19601f82011682018060405250810190611c71919061350d565b5060018201805460ff1916600417905560038201546040805185815260208101929092527f12245c00d428a4c558061d2f69fe154a203bd2fb4a65b6c3e73e95ccdc735d18910160405180910390a1505050565b8060078381548110611cd957611cd9613445565b90600052602060002090600c020160010160006101000a81548160ff02191690836004811115611d0b57611d0b612e7d565b02179055505050565b606081604051602001611d279190613595565b6040516020818303038152906040529050919050565b600060078881548110611d5257611d52613445565b90600052602060002090600c020190506000805b600a830154811015611e4c576000611dc784600a018381548110611d8c57611d8c613445565b6000918252602090912001546001600160c01b03167f000000000000000000000000000000000000000000000000000000000000000061268d565b905060006008856009018481548110611de257611de2613445565b906000526020600020015481548110611dfd57611dfd613445565b600091825260208220600360049092020101546001600160401b03169150611e2583836128eb565b9050611e3181836128fe565b611e3b9086613471565b94505060019092019150611d669050565b506000611f1a6040518061014001604052808b8152602001856002015481526020018560030154815260200185600901805490506001600160401b03168152602001611eb5611e9a8b61290a565b6001600160401b031660009081526020819052604090205490565b815263ffffffff8b1660208201819052604090910190611ed5908b613653565b6001600160401b03168152602001611eed8a8a613653565b6001600160401b03168152602001611f048a61290a565b6001600160401b03168152602001879052611d14565b9050611f4d63ffffffff89166001600160401b03808a1690891688611f3f848d613653565b6001600160401b0316611159565b60018301805460ff191660021790556000611f6b48620668a06134ae565b600454611f789190613471565b60405163a9059cbb60e01b8152336004820152602481018290529091507f00000000000000000000000000000000000000000000000000000000000000006001600160a01b03169063a9059cbb906044016020604051808303816000875af1158015611fe8573d6000803e3d6000fd5b505050506040513d601f19601f8201168201806040525081019061200c919061350d565b5061203063ffffffff8a166001600160401b03808b16908a1689611f3f848e613653565b6000846006015412156120625783600601548460050160008282546120559190613471565b9091555050600060068501555b600384015460405133917f184abe81dc2f02915b1cd93143dc1987a077040f7de69181dd5eaf9b37bb715c916120a0918f8252602082015260400190565b60405180910390a25050505050505050505050565b6003546001600160a01b031633146120df5760405162461bcd60e51b81526004016110879061352f565b600491909155600555565b6040805160208082018352606082526001600160a01b0384166000908152600682528390208351815480840282018601865292810183815293949093919284929184919084018282801561215d57602002820191906000526020600020905b815481526020019060010190808311612149575b5050505050815250509050919050565b33600090815260066020526040902080548591908590811061219157612191613445565b9060005260206000200154146121ba57604051630e7fea9d60e01b815260040160405180910390fd5b6121c38161279e565b60085484106121e55760405163721e09df60e01b815260040160405180910390fd5b6000600885815481106121fa576121fa613445565b90600052602060002090600402019050826001600160c01b03166000148061222e57508060010154836001600160c01b0316115b1561224c5760405163b4e3d41360e01b815260040160405180910390fd5b826001600160c01b031681600101600082825461226991906134fa565b92505081905550826001600160c01b031681600201600082825461228d9190613471565b909155505060405163a9059cbb60e01b81523360048201526001600160c01b03841660248201527f00000000000000000000000000000000000000000000000000000000000000006001600160a01b03169063a9059cbb90604401611762565b61237f604080516102008101825260008082526020820181905291810182905260608101829052906080820190815260200160006001600160a01b03168152602001600080191681526020016000801916815260200160008152602001600081526020016000815260200160008152602001600080191681526020016060815260200160608152602001606081525090565b6007828154811061239257612392613445565b60009182526020918290206040805161020081018252600c90930290910180546001600160a01b038116845263ffffffff600160a01b8204811695850195909552600160c01b8104851692840192909252600160e01b90910490921660608201526001820154909190608083019060ff16600481111561241457612414612e7d565b600481111561242557612425612e7d565b81526020016001820160019054906101000a90046001600160a01b03166001600160a01b03166001600160a01b0316815260200160028201548152602001600382015481526020016004820154815260200160058201548152602001600682015481526020016007820154815260200160088201548152602001600982018054806020026020016040519081016040528092919081815260200182805480156124ed57602002820191906000526020600020905b8154815260200190600101908083116124d9575b50505050508152602001600a820180548060200260200160405190810160405280929190818152602001828054801561254f57602002820191906000526020600020905b81546001600160c01b03168152600190910190602001808311612531575b50505050508152602001600b820180548060200260200160405190810160405280929190818152602001828054801561215d57602002820191906000526020600020906000905b82829054906101000a90046001600160401b03166001600160401b0316815260200190600801906020826007010492830192600103820291508084116125965790505050505050815250509050919050565b6000818152602081905260409020546126145760405163fa4a5e4560e01b815260040160405180910390fd5b50565b6003546001600160a01b031633146126415760405162461bcd60e51b81526004016110879061352f565b600380546001600160a01b0319166001600160a01b03831690811790915560405133907f8be0079c531659141344cd1fd0a4f28419497f9722a3daafe3b4186f6b6457e090600090a350565b600060128260ff1610156126c2576126a6826012613672565b6126b190600a613772565b6126bb90846134ae565b90506126c5565b50815b92915050565b61271082826040516024016126e1929190613781565b60408051601f198184030181529190526020810180516001600160e01b03166309710a9d60e41b179052612922565b5050565b60005b815181101561271057617080600783838151811061273757612737613445565b60200260200101518154811061274f5761274f613445565b60009182526020909120600c909102015461277790600160c01b900463ffffffff16426134fa565b1015612796576040516326349d6b60e01b815260040160405180910390fd5b600101612717565b60005b8151811015612710576127b382612714565b600060078383815181106127c9576127c9613445565b6020026020010151815481106127e1576127e1613445565b90600052602060002090600c0201905060005b6009820154811015612891576000600883600901838154811061281957612819613445565b90600052602060002001548154811061283457612834613445565b9060005260206000209060040201905082600a01828154811061285957612859613445565b60009182526020822001546001830180546001600160c01b03909216929091612883908490613471565b9091555050506001016127f4565b506001908101805460ff19166003179055016127a1565b612614816040516024016128bc91906130b2565b60408051601f198184030181529190526020810180516001600160e01b031663104c13eb60e21b179052612922565b60006128f7828461349a565b9392505050565b60006128f782846134ae565b60006129186107e0836137a3565b6126c59083613653565b80516a636f6e736f6c652e6c6f67602083016000808483855afa5050505050565b82805482825590600052602060002090810192821561297e579160200282015b8281111561297e578251825591602001919060010190612963565b5061298a929150612a92565b5090565b82805482825590600052602060002090810192821561297e579160200282015b8281111561297e57825182546001600160c01b0319166001600160c01b039091161782556020909201916001909101906129ae565b8280548282559060005260206000209060030160049004810192821561297e5791602002820160005b83821115612a5657835183826101000a8154816001600160401b0302191690836001600160401b031602179055509260200192600801602081600701049283019260010302612a0c565b8015612a895782816101000a8154906001600160401b030219169055600801602081600701049283019260010302612a56565b505061298a9291505b5b8082111561298a5760008155600101612a93565b634e487b7160e01b600052604160045260246000fd5b60405161014081016001600160401b0381118282101715612ae057612ae0612aa7565b60405290565b604051601f8201601f191681016001600160401b0381118282101715612b0e57612b0e612aa7565b604052919050565b60006001600160401b03821115612b2f57612b2f612aa7565b5060051b60200190565b600082601f830112612b4a57600080fd5b8135612b5d612b5882612b16565b612ae6565b8082825260208201915060208360051b860101925085831115612b7f57600080fd5b602085015b83811015612b9c578035835260209283019201612b84565b5095945050505050565b80356001600160c01b0381168114612bbd57600080fd5b919050565b6001600160a01b038116811461261457600080fd5b8035612bbd81612bc2565b600080600080600060a08688031215612bfa57600080fd5b85356001600160401b03811115612c1057600080fd5b612c1c88828901612b39565b95505060208601356001600160401b03811115612c3857600080fd5b8601601f81018813612c4957600080fd5b8035612c57612b5882612b16565b8082825260208201915060208360051b85010192508a831115612c7957600080fd5b6020840193505b82841015612ca257612c9184612ba6565b825260209384019390910190612c80565b9650612cb49250505060408701612bd7565b92506060860135915060808601356001600160401b03811115612cd657600080fd5b612ce288828901612b39565b9150509295509295909350565b600060208284031215612d0157600080fd5b813560ff811681146128f757600080fd5b600060208284031215612d2457600080fd5b5035919050565b600080600080600060a08688031215612d4357600080fd5b85359450602086013593506040860135925060608601356001600160401b03811115612d6e57600080fd5b612d7a88828901612b39565b95989497509295608001359392505050565b80356001600160401b0381168114612bbd57600080fd5b600080600080600060a08688031215612dbb57600080fd5b85359450612dcb60208701612d8c565b935060408601356001600160501b031981168114612de857600080fd5b94979396509394606081013594506080013592915050565b60008060008060808587031215612e1657600080fd5b8435935060208501359250612e2d60408601612d8c565b915060608501356001600160401b03811115612e4857600080fd5b612e5487828801612b39565b91505092959194509250565b600060208284031215612e7257600080fd5b81356128f781612bc2565b634e487b7160e01b600052602160045260246000fd5b60058110612eb157634e487b7160e01b600052602160045260246000fd5b9052565b6001600160a01b038e16815263ffffffff8d811660208301528c811660408301528b1660608201526101a08101612eef608083018c612e93565b6001600160a01b038a1660a083015260c082019890985260e0810196909652610100860194909452610120850192909252610140840152610160830152610180909101529695505050505050565b60008060408385031215612f5057600080fd5b82359150602083013560058110612f6657600080fd5b809150509250929050565b600060208284031215612f8357600080fd5b81356001600160401b03811115612f9957600080fd5b82016101408185031215612fac57600080fd5b612fb4612abd565b813581526020808301359082015260408083013590820152612fd860608301612d8c565b606082015260808281013590820152612ff360a08301612d8c565b60a082015261300460c08301612d8c565b60c082015261301560e08301612d8c565b60e08201526130276101008301612d8c565b6101008201526101208201356001600160401b0381111561304757600080fd5b61305386828501612b39565b61012083015250949350505050565b60005b8381101561307d578181015183820152602001613065565b50506000910152565b6000815180845261309e816020860160208601613062565b601f01601f19169290920160200192915050565b6020815260006128f76020830184613086565b600082601f8301126130d657600080fd5b81356001600160401b038111156130ef576130ef612aa7565b613102601f8201601f1916602001612ae6565b81815284602083860101111561311757600080fd5b816020850160208301376000918101602001919091529392505050565b600080600080600080600060e0888a03121561314f57600080fd5b8735965060208801359550604088013563ffffffff8116811461317157600080fd5b945061317f60608901612d8c565b935061318d60808901612d8c565b925060a08801356001600160401b038111156131a857600080fd5b6131b48a828b01612b39565b92505060c08801356001600160401b038111156131d057600080fd5b6131dc8a828b016130c5565b91505092959891949750929550565b600080604083850312156131fe57600080fd5b50508035926020909101359150565b600081518084526020840193506020830160005b8281101561323f578151865260209586019590910190600101613221565b5093949350505050565b6020815260008251602080840152613264604084018261320d565b949350505050565b6000806000806080858703121561328257600080fd5b8435935060208501359250612e2d60408601612ba6565b600081518084526020840193506020830160005b8281101561323f5781516001600160c01b03168652602095860195909101906001016132ad565b600081518084526020840193506020830160005b8281101561323f5781516001600160401b03168652602095860195909101906001016132e8565b602081526133296020820183516001600160a01b03169052565b60006020830151613342604084018263ffffffff169052565b50604083015163ffffffff8116606084015250606083015163ffffffff8116608084015250608083015161337960a0840182612e93565b5060a08301516001600160a01b03811660c08401525060c083015160e083015260e08301516101008301526101008301516101208301526101208301516101408301526101408301516101608301526101608301516101808301526101808301516101a08301526101a08301516102006101c08401526133fd61022084018261320d565b90506101c0840151601f19848303016101e085015261341c8282613299565b9150506101e0840151601f198483030161020085015261343c82826132d4565b95945050505050565b634e487b7160e01b600052603260045260246000fd5b634e487b7160e01b600052601160045260246000fd5b808201808211156126c5576126c561345b565b634e487b7160e01b600052601260045260246000fd5b6000826134a9576134a9613484565b500490565b80820281158282048414176126c5576126c561345b565b600082516134d7818460208701613062565b9190910192915050565b6000602082840312156134f357600080fd5b5051919050565b818103818111156126c5576126c561345b565b60006020828403121561351f57600080fd5b815180151581146128f757600080fd5b6020808252600c908201526b15539055551213d49256915160a21b604082015260600190565b6000600182016135675761356761345b565b5060010190565b818103600083128015838313168383128216171561358e5761358e61345b565b5092915050565b60208152815160208201526020820151604082015260408201516060820152600060608301516135d060808401826001600160401b03169052565b50608083015160a083015260a08301516135f560c08401826001600160401b03169052565b5060c08301516001600160401b03811660e08401525060e08301516001600160401b038116610100840152506101008301516001600160401b038116610120840152506101208301516101408084015261326461016084018261320d565b6001600160401b0382811682821603908111156126c5576126c561345b565b60ff82811682821603908111156126c5576126c561345b565b6001815b60018411156136c6578085048111156136aa576136aa61345b565b60018416156136b857908102905b60019390931c92800261368f565b935093915050565b6000826136dd575060016126c5565b816136ea575060006126c5565b8160018114613700576002811461370a57613726565b60019150506126c5565b60ff84111561371b5761371b61345b565b50506001821b6126c5565b5060208310610133831016604e8410600b8410161715613749575081810a6126c5565b613756600019848461368b565b806000190482111561376a5761376a61345b565b029392505050565b60006128f760ff8416836136ce565b6040815260006137946040830185613086565b90508260208301529392505050565b60006001600160401b038316806137bc576137bc613484565b806001600160401b038416069150509291505056fea26469706673582212200022b64995eda32128cc189283897160b22c6161c7fccd2b2ee4e99e6c83484664736f6c634300081a0033","linkReferences":{}},"methodIdentifiers":{"CHALLENGE_PERIOD()":"c3a079ed","DEPOSIT_TOKEN()":"13f66587","MAX_DEPOSIT_OUTPUTS()":"9cdb8e5a","MIN_ORDER_GAS_MULTIPLIER()":"5f5d5b6a","PROOF_GAS_COST()":"eb6c7522","RELEASE_GAS_COST()":"9a64279c","RESERVATION_LOCKUP_PERIOD()":"89a11f7a","SAMPLING_SIZE()":"ad062e55","TOKEN_DECIMALS()":"5b7f415c","addBlock(uint256,uint256,uint256,bytes32[],uint256)":"2d908c02","buildProofPublicInputs((bytes32,bytes32,bytes32,uint64,bytes32,uint64,uint64,uint64,uint64,bytes32[]))":"7e38d04c","circuitVerificationKey()":"3d7b22b3","currentConfirmationHeight()":"fba78166","currentHeight()":"163de0c5","depositLiquidity(uint256,uint64,bytes22,int256,int256)":"51a7f1cd","depositVaults(uint256)":"5f4d0610","emptyDepositVault(uint256)":"490d4c5f","getBlockHash(uint256)":"ee82ac5e","getDepositVault(uint256)":"276d080e","getDepositVaultUnreservedBalance(uint256)":"6512d057","getDepositVaultsLength()":"7dce5550","getLiquidityProvider(address)":"98f9e757","getReservation(uint256)":"d57763c3","getReservationLength()":"ea6fe03e","owner()":"8da5cb5b","proposeTransactionProof(uint256,bytes32,uint32,uint64,uint64,bytes32[],bytes)":"8f805ac9","protocolFeeBP()":"c5fba0b8","proverReward()":"6dcc17c8","releaseLiquidity(uint256)":"77891907","releaserReward()":"9cc7eab9","reserveLiquidity(uint256[],uint192[],address,uint256,uint256[])":"0140e183","setSwapReservationState(uint256,uint8)":"7b93291f","swapReservations(uint256)":"6b994abb","transferOwnership(address)":"f2fde38b","updateExchangeRate(uint256,uint256,uint64,uint256[])":"56fe6f86","updateProtocolAddress(address)":"58e2b676","updateProtocolFee(uint8)":"0a7aa293","updateRewards(uint256,uint256)":"97e50818","validateBlockExists(uint256)":"ed8b2b32","verifierContract()":"cf695688","withdrawLiquidity(uint256,uint256,uint192,uint256[])":"aeacb2e7"},"storageLayout":{"storage":[{"astId":47845,"contract":"src/RiftExchange.sol:RiftExchange","label":"blockchain","offset":0,"slot":"0","type":"t_mapping(t_uint256,t_bytes32)"},{"astId":47847,"contract":"src/RiftExchange.sol:RiftExchange","label":"currentHeight","offset":0,"slot":"1","type":"t_uint256"},{"astId":47849,"contract":"src/RiftExchange.sol:RiftExchange","label":"currentConfirmationHeight","offset":0,"slot":"2","type":"t_uint256"},{"astId":46637,"contract":"src/RiftExchange.sol:RiftExchange","label":"owner","offset":0,"slot":"3","type":"t_address"},{"astId":48585,"contract":"src/RiftExchange.sol:RiftExchange","label":"protocolFeeBP","offset":20,"slot":"3","type":"t_uint8"},{"astId":48587,"contract":"src/RiftExchange.sol:RiftExchange","label":"proverReward","offset":0,"slot":"4","type":"t_uint256"},{"astId":48589,"contract":"src/RiftExchange.sol:RiftExchange","label":"releaserReward","offset":0,"slot":"5","type":"t_uint256"},{"astId":48679,"contract":"src/RiftExchange.sol:RiftExchange","label":"liquidityProviders","offset":0,"slot":"6","type":"t_mapping(t_address,t_struct(LiquidityProvider)48620_storage)"},{"astId":48683,"contract":"src/RiftExchange.sol:RiftExchange","label":"swapReservations","offset":0,"slot":"7","type":"t_array(t_struct(SwapReservation)48674_storage)dyn_storage"},{"astId":48687,"contract":"src/RiftExchange.sol:RiftExchange","label":"depositVaults","offset":0,"slot":"8","type":"t_array(t_struct(DepositVault)48631_storage)dyn_storage"},{"astId":48698,"contract":"src/RiftExchange.sol:RiftExchange","label":"protocolAddress","offset":0,"slot":"9","type":"t_address_payable"}],"types":{"t_address":{"encoding":"inplace","label":"address","numberOfBytes":"20"},"t_address_payable":{"encoding":"inplace","label":"address payable","numberOfBytes":"20"},"t_array(t_struct(DepositVault)48631_storage)dyn_storage":{"encoding":"dynamic_array","label":"struct RiftExchange.DepositVault[]","numberOfBytes":"32","base":"t_struct(DepositVault)48631_storage"},"t_array(t_struct(SwapReservation)48674_storage)dyn_storage":{"encoding":"dynamic_array","label":"struct RiftExchange.SwapReservation[]","numberOfBytes":"32","base":"t_struct(SwapReservation)48674_storage"},"t_array(t_uint192)dyn_storage":{"encoding":"dynamic_array","label":"uint192[]","numberOfBytes":"32","base":"t_uint192"},"t_array(t_uint256)dyn_storage":{"encoding":"dynamic_array","label":"uint256[]","numberOfBytes":"32","base":"t_uint256"},"t_array(t_uint64)dyn_storage":{"encoding":"dynamic_array","label":"uint64[]","numberOfBytes":"32","base":"t_uint64"},"t_bytes22":{"encoding":"inplace","label":"bytes22","numberOfBytes":"22"},"t_bytes32":{"encoding":"inplace","label":"bytes32","numberOfBytes":"32"},"t_enum(ReservationState)48637":{"encoding":"inplace","label":"enum RiftExchange.ReservationState","numberOfBytes":"1"},"t_int256":{"encoding":"inplace","label":"int256","numberOfBytes":"32"},"t_mapping(t_address,t_struct(LiquidityProvider)48620_storage)":{"encoding":"mapping","key":"t_address","label":"mapping(address => struct RiftExchange.LiquidityProvider)","numberOfBytes":"32","value":"t_struct(LiquidityProvider)48620_storage"},"t_mapping(t_uint256,t_bytes32)":{"encoding":"mapping","key":"t_uint256","label":"mapping(uint256 => bytes32)","numberOfBytes":"32","value":"t_bytes32"},"t_struct(DepositVault)48631_storage":{"encoding":"inplace","label":"struct RiftExchange.DepositVault","numberOfBytes":"128","members":[{"astId":48622,"contract":"src/RiftExchange.sol:RiftExchange","label":"initialBalance","offset":0,"slot":"0","type":"t_uint256"},{"astId":48624,"contract":"src/RiftExchange.sol:RiftExchange","label":"unreservedBalance","offset":0,"slot":"1","type":"t_uint256"},{"astId":48626,"contract":"src/RiftExchange.sol:RiftExchange","label":"withdrawnAmount","offset":0,"slot":"2","type":"t_uint256"},{"astId":48628,"contract":"src/RiftExchange.sol:RiftExchange","label":"exchangeRate","offset":0,"slot":"3","type":"t_uint64"},{"astId":48630,"contract":"src/RiftExchange.sol:RiftExchange","label":"btcPayoutLockingScript","offset":8,"slot":"3","type":"t_bytes22"}]},"t_struct(LiquidityProvider)48620_storage":{"encoding":"inplace","label":"struct RiftExchange.LiquidityProvider","numberOfBytes":"32","members":[{"astId":48619,"contract":"src/RiftExchange.sol:RiftExchange","label":"depositVaultIndexes","offset":0,"slot":"0","type":"t_array(t_uint256)dyn_storage"}]},"t_struct(SwapReservation)48674_storage":{"encoding":"inplace","label":"struct RiftExchange.SwapReservation","numberOfBytes":"384","members":[{"astId":48639,"contract":"src/RiftExchange.sol:RiftExchange","label":"owner","offset":0,"slot":"0","type":"t_address"},{"astId":48641,"contract":"src/RiftExchange.sol:RiftExchange","label":"confirmationBlockHeight","offset":20,"slot":"0","type":"t_uint32"},{"astId":48643,"contract":"src/RiftExchange.sol:RiftExchange","label":"reservationTimestamp","offset":24,"slot":"0","type":"t_uint32"},{"astId":48645,"contract":"src/RiftExchange.sol:RiftExchange","label":"unlockTimestamp","offset":28,"slot":"0","type":"t_uint32"},{"astId":48648,"contract":"src/RiftExchange.sol:RiftExchange","label":"state","offset":0,"slot":"1","type":"t_enum(ReservationState)48637"},{"astId":48650,"contract":"src/RiftExchange.sol:RiftExchange","label":"ethPayoutAddress","offset":1,"slot":"1","type":"t_address"},{"astId":48652,"contract":"src/RiftExchange.sol:RiftExchange","label":"lpReservationHash","offset":0,"slot":"2","type":"t_bytes32"},{"astId":48654,"contract":"src/RiftExchange.sol:RiftExchange","label":"nonce","offset":0,"slot":"3","type":"t_bytes32"},{"astId":48656,"contract":"src/RiftExchange.sol:RiftExchange","label":"totalSatsInputInlcudingProxyFee","offset":0,"slot":"4","type":"t_uint256"},{"astId":48658,"contract":"src/RiftExchange.sol:RiftExchange","label":"totalSwapOutputAmount","offset":0,"slot":"5","type":"t_uint256"},{"astId":48660,"contract":"src/RiftExchange.sol:RiftExchange","label":"prepaidFeeAmount","offset":0,"slot":"6","type":"t_int256"},{"astId":48662,"contract":"src/RiftExchange.sol:RiftExchange","label":"proposedBlockHeight","offset":0,"slot":"7","type":"t_uint256"},{"astId":48664,"contract":"src/RiftExchange.sol:RiftExchange","label":"proposedBlockHash","offset":0,"slot":"8","type":"t_bytes32"},{"astId":48667,"contract":"src/RiftExchange.sol:RiftExchange","label":"vaultIndexes","offset":0,"slot":"9","type":"t_array(t_uint256)dyn_storage"},{"astId":48670,"contract":"src/RiftExchange.sol:RiftExchange","label":"amountsToReserve","offset":0,"slot":"10","type":"t_array(t_uint192)dyn_storage"},{"astId":48673,"contract":"src/RiftExchange.sol:RiftExchange","label":"expectedSatsOutput","offset":0,"slot":"11","type":"t_array(t_uint64)dyn_storage"}]},"t_uint192":{"encoding":"inplace","label":"uint192","numberOfBytes":"24"},"t_uint256":{"encoding":"inplace","label":"uint256","numberOfBytes":"32"},"t_uint32":{"encoding":"inplace","label":"uint32","numberOfBytes":"4"},"t_uint64":{"encoding":"inplace","label":"uint64","numberOfBytes":"8"},"t_uint8":{"encoding":"inplace","label":"uint8","numberOfBytes":"1"}}},"id":32}