{"abi":[{"type":"constructor","inputs":[{"name":"initialCheckpointHeight","type":"uint256","internalType":"uint256"},{"name":"initialBlockHash","type":"bytes32","internalType":"bytes32"},{"name":"verifierContractAddress","type":"address","internalType":"address"},{"name":"depositTokenAddress","type":"address","internalType":"address"},{"name":"_proverReward","type":"uint256","internalType":"uint256"},{"name":"_releaserReward","type":"uint256","internalType":"uint256"},{"name":"_protocolAddress","type":"address","internalType":"address payable"},{"name":"_owner","type":"address","internalType":"address"}],"stateMutability":"nonpayable"},{"type":"function","name":"CHALLENGE_PERIOD","inputs":[],"outputs":[{"name":"","type":"uint256","internalType":"uint256"}],"stateMutability":"view"},{"type":"function","name":"DEPOSIT_TOKEN","inputs":[],"outputs":[{"name":"","type":"address","internalType":"contract IERC20"}],"stateMutability":"view"},{"type":"function","name":"MAX_DEPOSIT_OUTPUTS","inputs":[],"outputs":[{"name":"","type":"uint16","internalType":"uint16"}],"stateMutability":"view"},{"type":"function","name":"MIN_ORDER_GAS_MULTIPLIER","inputs":[],"outputs":[{"name":"","type":"uint256","internalType":"uint256"}],"stateMutability":"view"},{"type":"function","name":"PROOF_GAS_COST","inputs":[],"outputs":[{"name":"","type":"uint256","internalType":"uint256"}],"stateMutability":"view"},{"type":"function","name":"RELEASE_GAS_COST","inputs":[],"outputs":[{"name":"","type":"uint256","internalType":"uint256"}],"stateMutability":"view"},{"type":"function","name":"RESERVATION_LOCKUP_PERIOD","inputs":[],"outputs":[{"name":"","type":"uint256","internalType":"uint256"}],"stateMutability":"view"},{"type":"function","name":"SAMPLING_SIZE","inputs":[],"outputs":[{"name":"","type":"uint8","internalType":"uint8"}],"stateMutability":"view"},{"type":"function","name":"TOKEN_DECIMALS","inputs":[],"outputs":[{"name":"","type":"uint8","internalType":"uint8"}],"stateMutability":"view"},{"type":"function","name":"addBlock","inputs":[{"name":"safeBlockHeight","type":"uint256","internalType":"uint256"},{"name":"proposedBlockHeight","type":"uint256","internalType":"uint256"},{"name":"confirmationBlockHeight","type":"uint256","internalType":"uint256"},{"name":"blockHashes","type":"bytes32[]","internalType":"bytes32[]"},{"name":"proposedBlockIndex","type":"uint256","internalType":"uint256"}],"outputs":[],"stateMutability":"nonpayable"},{"type":"function","name":"buildProofPublicInputs","inputs":[{"name":"inputs","type":"tuple","internalType":"struct RiftExchange.ProofPublicInputs","components":[{"name":"bitcoinTxId","type":"bytes32","internalType":"bytes32"},{"name":"lpReservationHash","type":"bytes32","internalType":"bytes32"},{"name":"orderNonce","type":"bytes32","internalType":"bytes32"},{"name":"expectedPayout","type":"uint64","internalType":"uint64"},{"name":"lpCount","type":"uint64","internalType":"uint64"},{"name":"confirmationBlockHash","type":"bytes32","internalType":"bytes32"},{"name":"proposedBlockHash","type":"bytes32","internalType":"bytes32"},{"name":"safeBlockHash","type":"bytes32","internalType":"bytes32"},{"name":"retargetBlockHash","type":"bytes32","internalType":"bytes32"},{"name":"safeBlockHeight","type":"uint64","internalType":"uint64"},{"name":"safeBlockHeightDelta","type":"uint64","internalType":"uint64"},{"name":"confirmationBlockHeightDelta","type":"uint64","internalType":"uint64"},{"name":"retargetBlockHeight","type":"uint64","internalType":"uint64"},{"name":"aggregation_object","type":"bytes32[16]","internalType":"bytes32[16]"}]}],"outputs":[{"name":"","type":"bytes32[]","internalType":"bytes32[]"}],"stateMutability":"pure"},{"type":"function","name":"currentConfirmationHeight","inputs":[],"outputs":[{"name":"","type":"uint256","internalType":"uint256"}],"stateMutability":"view"},{"type":"function","name":"currentHeight","inputs":[],"outputs":[{"name":"","type":"uint256","internalType":"uint256"}],"stateMutability":"view"},{"type":"function","name":"depositLiquidity","inputs":[{"name":"depositAmount","type":"uint256","internalType":"uint256"},{"name":"exchangeRate","type":"uint64","internalType":"uint64"},{"name":"btcPayoutLockingScript","type":"bytes22","internalType":"bytes22"},{"name":"vaultIndexToOverwrite","type":"int256","internalType":"int256"},{"name":"vaultIndexWithSameExchangeRate","type":"int256","internalType":"int256"}],"outputs":[],"stateMutability":"nonpayable"},{"type":"function","name":"depositVaults","inputs":[{"name":"","type":"uint256","internalType":"uint256"}],"outputs":[{"name":"initialBalance","type":"uint256","internalType":"uint256"},{"name":"unreservedBalance","type":"uint256","internalType":"uint256"},{"name":"withdrawnAmount","type":"uint256","internalType":"uint256"},{"name":"exchangeRate","type":"uint64","internalType":"uint64"},{"name":"btcPayoutLockingScript","type":"bytes22","internalType":"bytes22"}],"stateMutability":"view"},{"type":"function","name":"emptyDepositVault","inputs":[{"name":"vaultIndex","type":"uint256","internalType":"uint256"}],"outputs":[],"stateMutability":"nonpayable"},{"type":"function","name":"getBlockHash","inputs":[{"name":"blockHeight","type":"uint256","internalType":"uint256"}],"outputs":[{"name":"","type":"bytes32","internalType":"bytes32"}],"stateMutability":"view"},{"type":"function","name":"getDepositVault","inputs":[{"name":"depositIndex","type":"uint256","internalType":"uint256"}],"outputs":[{"name":"","type":"tuple","internalType":"struct RiftExchange.DepositVault","components":[{"name":"initialBalance","type":"uint256","internalType":"uint256"},{"name":"unreservedBalance","type":"uint256","internalType":"uint256"},{"name":"withdrawnAmount","type":"uint256","internalType":"uint256"},{"name":"exchangeRate","type":"uint64","internalType":"uint64"},{"name":"btcPayoutLockingScript","type":"bytes22","internalType":"bytes22"}]}],"stateMutability":"view"},{"type":"function","name":"getDepositVaultUnreservedBalance","inputs":[{"name":"depositIndex","type":"uint256","internalType":"uint256"}],"outputs":[{"name":"","type":"uint256","internalType":"uint256"}],"stateMutability":"view"},{"type":"function","name":"getDepositVaultsLength","inputs":[],"outputs":[{"name":"","type":"uint256","internalType":"uint256"}],"stateMutability":"view"},{"type":"function","name":"getLiquidityProvider","inputs":[{"name":"lpAddress","type":"address","internalType":"address"}],"outputs":[{"name":"","type":"tuple","internalType":"struct RiftExchange.LiquidityProvider","components":[{"name":"depositVaultIndexes","type":"uint256[]","internalType":"uint256[]"}]}],"stateMutability":"view"},{"type":"function","name":"getReservation","inputs":[{"name":"reservationIndex","type":"uint256","internalType":"uint256"}],"outputs":[{"name":"","type":"tuple","internalType":"struct RiftExchange.SwapReservation","components":[{"name":"confirmationBlockHeight","type":"uint32","internalType":"uint32"},{"name":"reservationTimestamp","type":"uint32","internalType":"uint32"},{"name":"unlockTimestamp","type":"uint32","internalType":"uint32"},{"name":"state","type":"uint8","internalType":"enum RiftExchange.ReservationState"},{"name":"ethPayoutAddress","type":"address","internalType":"address"},{"name":"lpReservationHash","type":"bytes32","internalType":"bytes32"},{"name":"nonce","type":"bytes32","internalType":"bytes32"},{"name":"totalSwapAmount","type":"uint256","internalType":"uint256"},{"name":"prepaidFeeAmount","type":"int256","internalType":"int256"},{"name":"proposedBlockHeight","type":"uint256","internalType":"uint256"},{"name":"proposedBlockHash","type":"bytes32","internalType":"bytes32"},{"name":"vaultIndexes","type":"uint256[]","internalType":"uint256[]"},{"name":"amountsToReserve","type":"uint192[]","internalType":"uint192[]"}]}],"stateMutability":"view"},{"type":"function","name":"getReservationLength","inputs":[],"outputs":[{"name":"","type":"uint256","internalType":"uint256"}],"stateMutability":"view"},{"type":"function","name":"owner","inputs":[],"outputs":[{"name":"","type":"address","internalType":"address"}],"stateMutability":"view"},{"type":"function","name":"proposeTransactionProof","inputs":[{"name":"swapReservationIndex","type":"uint256","internalType":"uint256"},{"name":"bitcoinTxId","type":"bytes32","internalType":"bytes32"},{"name":"safeBlockHeight","type":"uint32","internalType":"uint32"},{"name":"proposedBlockHeight","type":"uint64","internalType":"uint64"},{"name":"confirmationBlockHeight","type":"uint64","internalType":"uint64"},{"name":"blockHashes","type":"bytes32[]","internalType":"bytes32[]"},{"name":"aggregation_object","type":"bytes32[16]","internalType":"bytes32[16]"},{"name":"proof","type":"bytes","internalType":"bytes"}],"outputs":[],"stateMutability":"nonpayable"},{"type":"function","name":"protocolFeeBP","inputs":[],"outputs":[{"name":"","type":"uint8","internalType":"uint8"}],"stateMutability":"view"},{"type":"function","name":"proverReward","inputs":[],"outputs":[{"name":"","type":"uint256","internalType":"uint256"}],"stateMutability":"view"},{"type":"function","name":"releaseLiquidity","inputs":[{"name":"swapReservationIndex","type":"uint256","internalType":"uint256"}],"outputs":[],"stateMutability":"nonpayable"},{"type":"function","name":"releaserReward","inputs":[],"outputs":[{"name":"","type":"uint256","internalType":"uint256"}],"stateMutability":"view"},{"type":"function","name":"reserveLiquidity","inputs":[{"name":"vaultIndexesToReserve","type":"uint256[]","internalType":"uint256[]"},{"name":"amountsToReserve","type":"uint192[]","internalType":"uint192[]"},{"name":"ethPayoutAddress","type":"address","internalType":"address"},{"name":"expiredSwapReservationIndexes","type":"uint256[]","internalType":"uint256[]"}],"outputs":[],"stateMutability":"nonpayable"},{"type":"function","name":"swapReservations","inputs":[{"name":"","type":"uint256","internalType":"uint256"}],"outputs":[{"name":"confirmationBlockHeight","type":"uint32","internalType":"uint32"},{"name":"reservationTimestamp","type":"uint32","internalType":"uint32"},{"name":"unlockTimestamp","type":"uint32","internalType":"uint32"},{"name":"state","type":"uint8","internalType":"enum RiftExchange.ReservationState"},{"name":"ethPayoutAddress","type":"address","internalType":"address"},{"name":"lpReservationHash","type":"bytes32","internalType":"bytes32"},{"name":"nonce","type":"bytes32","internalType":"bytes32"},{"name":"totalSwapAmount","type":"uint256","internalType":"uint256"},{"name":"prepaidFeeAmount","type":"int256","internalType":"int256"},{"name":"proposedBlockHeight","type":"uint256","internalType":"uint256"},{"name":"proposedBlockHash","type":"bytes32","internalType":"bytes32"}],"stateMutability":"view"},{"type":"function","name":"transferOwnership","inputs":[{"name":"newOwner","type":"address","internalType":"address"}],"outputs":[],"stateMutability":"nonpayable"},{"type":"function","name":"updateExchangeRate","inputs":[{"name":"globalVaultIndex","type":"uint256","internalType":"uint256"},{"name":"localVaultIndex","type":"uint256","internalType":"uint256"},{"name":"newexchangeRate","type":"uint64","internalType":"uint64"},{"name":"expiredReservationIndexes","type":"uint256[]","internalType":"uint256[]"}],"outputs":[],"stateMutability":"nonpayable"},{"type":"function","name":"updateProtocolAddress","inputs":[{"name":"newProtocolAddress","type":"address","internalType":"address payable"}],"outputs":[],"stateMutability":"nonpayable"},{"type":"function","name":"updateProtocolFee","inputs":[{"name":"newProtocolFeeBP","type":"uint8","internalType":"uint8"}],"outputs":[],"stateMutability":"nonpayable"},{"type":"function","name":"updateRewards","inputs":[{"name":"newProverReward","type":"uint256","internalType":"uint256"},{"name":"newReleaserReward","type":"uint256","internalType":"uint256"}],"outputs":[],"stateMutability":"nonpayable"},{"type":"function","name":"validateBlockExists","inputs":[{"name":"blockHeight","type":"uint256","internalType":"uint256"}],"outputs":[],"stateMutability":"view"},{"type":"function","name":"verifierContract","inputs":[],"outputs":[{"name":"","type":"address","internalType":"contract UltraVerifier"}],"stateMutability":"view"},{"type":"function","name":"withdrawLiquidity","inputs":[{"name":"globalVaultIndex","type":"uint256","internalType":"uint256"},{"name":"localVaultIndex","type":"uint256","internalType":"uint256"},{"name":"amountToWithdraw","type":"uint192","internalType":"uint192"},{"name":"expiredReservationIndexes","type":"uint256[]","internalType":"uint256[]"}],"outputs":[],"stateMutability":"nonpayable"},{"type":"event","name":"OwnershipTransferred","inputs":[{"name":"user","type":"address","indexed":true,"internalType":"address"},{"name":"newOwner","type":"address","indexed":true,"internalType":"address"}],"anonymous":false},{"type":"error","name":"BlockDoesNotExist","inputs":[]},{"type":"error","name":"InvaidSameExchangeRatevaultIndex","inputs":[]},{"type":"error","name":"InvalidConfirmationBlock","inputs":[]},{"type":"error","name":"InvalidProposedBlockOverwrite","inputs":[]},{"type":"error","name":"InvalidSafeBlock","inputs":[]},{"type":"error","name":"InvalidUpdateWithActiveReservations","inputs":[]},{"type":"error","name":"InvalidVaultIndex","inputs":[]},{"type":"error","name":"InvalidVaultUpdate","inputs":[]},{"type":"error","name":"NotEnoughLiquidity","inputs":[]},{"type":"error","name":"NotVaultOwner","inputs":[]},{"type":"error","name":"OverwrittenProposedBlock","inputs":[]},{"type":"error","name":"ReservationNotExpired","inputs":[]},{"type":"error","name":"ReservationNotUnlocked","inputs":[]},{"type":"error","name":"StillInChallengePeriod","inputs":[]},{"type":"error","name":"WithdrawalAmountError","inputs":[]},{"type":"error","name":"exchangeRateZero","inputs":[]}],"bytecode":{"object":"0x60e060405260038054600560a01b60ff60a01b19909116179055600980546001600160a01b03191673f39fd6e51aad88f6f4ce6ab8827279cfffb9226617905534801561004b57600080fd5b5060405161394538038061394583398101604081905261006a91610309565b6001889055600088815260208190526040808220899055600380546001600160a01b0319166001600160a01b03851690811790915590518392907f8be0079c531659141344cd1fd0a4f28419497f9722a3daafe3b4186f6b6457e0908290a3506001600160a01b0380871660c052851660805260408051808201909152600f81526e02222a827a9a4aa2faa27a5a2a71d1608d1b602082015261010c906101f4565b6080516101189061023e565b6080516001600160a01b031663313ce5676040518163ffffffff1660e01b8152600401602060405180830381865afa158015610158573d6000803e3d6000fd5b505050506040513d601f19601f8201168201806040525081019061017c9190610393565b60ff1660a05260408051808201909152601081526f02a27a5a2a72fa222a1a4a6a0a6299d160851b60208201526101b2906101f4565b60a0516101c19060ff1661028a565b50600492909255600555600980546001600160a01b0319166001600160a01b039092169190911790555061040b92505050565b61023b8160405160240161020891906103bd565b60408051601f198184030181529190526020810180516001600160e01b0390811663104c13eb60e21b179091526102d316565b50565b6040516001600160a01b038216602482015261023b9060440160408051601f198184030181529190526020810180516001600160e01b0390811663161765e160e11b179091526102d316565b61023b816040516024016102a091815260200190565b60408051601f198184030181529190526020810180516001600160e01b0390811663f5b1bba960e01b179091526102d316565b80516a636f6e736f6c652e6c6f67602083016000808483855afa5050505050565b6001600160a01b038116811461023b57600080fd5b600080600080600080600080610100898b03121561032657600080fd5b885160208a015160408b01519199509750610340816102f4565b60608a0151909650610351816102f4565b60808a015160a08b015160c08c01519297509095509350610371816102f4565b60e08a0151909250610382816102f4565b809150509295985092959890939650565b6000602082840312156103a557600080fd5b815160ff811681146103b657600080fd5b9392505050565b602081526000825180602084015260005b818110156103eb57602081860181015160408684010152016103ce565b506000604082850101526040601f19601f83011684010191505092915050565b60805160a05160c0516134d361047260003960008181610551015261249c015260006103ac01526000818161025c01528181610dc901528181610ead015281816118b101528181611c7601528181611d6801528181611fee015261256101526134d36000f3fe608060405234801561001057600080fd5b506004361061023d5760003560e01c806389a11f7a1161013b578063c5fba0b8116100b8578063ed8b2b321161007c578063ed8b2b32146105a5578063ee82ac5e146105b8578063f2fde38b146105d8578063f924534c146105eb578063fba78166146105fe57600080fd5b8063c5fba0b814610538578063cf6956881461054c578063d57763c314610573578063ea6fe03e14610593578063eb6c75221461059b57600080fd5b80639cc7eab9116100ff5780639cc7eab9146104f05780639cdb8e5a146104f9578063ad062e5514610514578063aeacb2e71461051c578063c3a079ed1461052f57600080fd5b806389a11f7a146104975780638da5cb5b146104a057806397e50818146104b357806398f9e757146104c65780639a64279c146104e657600080fd5b806356fe6f86116101c95780636512d0571161018d5780636512d057146104365780636b994abb146104495780636dcc17c814610473578063778919071461047c5780637dce55501461048f57600080fd5b806356fe6f861461038157806358e2b676146103945780635b7f415c146103a75780635f4d0610146103e05780635f5d5b6a1461042e57600080fd5b80632d312a4a116102105780632d312a4a146103155780632d908c02146103285780633435d9fe1461033b578063490d4c5f1461035b57806351a7f1cd1461036e57600080fd5b80630a7aa2931461024257806313f6658714610257578063163de0c51461029b578063276d080e146102b2575b600080fd5b61025561025036600461296d565b610607565b005b61027e7f000000000000000000000000000000000000000000000000000000000000000081565b6040516001600160a01b0390911681526020015b60405180910390f35b6102a460015481565b604051908152602001610292565b6102c56102c0366004612997565b61065a565b60405161029291908151815260208083015190820152604080830151908201526060808301516001600160401b0316908201526080918201516001600160501b0319169181019190915260a00190565b610255610323366004612aeb565b610703565b610255610336366004612bee565b610f28565b61034e610349366004612cd5565b61111e565b6040516102929190612dff565b610255610369366004612997565b61150d565b61025561037c366004612e12565b611551565b61025561038f366004612e6f565b611927565b6102556103a2366004612e9c565b611a19565b6103ce7f000000000000000000000000000000000000000000000000000000000000000081565b60405160ff9091168152602001610292565b6103f36103ee366004612997565b611a65565b604080519586526020860194909452928401919091526001600160401b031660608301526001600160501b031916608082015260a001610292565b6102a4600281565b6102a4610444366004612997565b611ab4565b61045c610457366004612997565b611ae2565b6040516102929b9a99989796959493929190612ef1565b6102a460045481565b61025561048a366004612997565b611b64565b6008546102a4565b6102a461708081565b60035461027e906001600160a01b031681565b6102556104c1366004612f60565b611ded565b6104d96104d4366004612e9c565b611e22565b6040516102929190612f82565b6102a46203345081565b6102a460055481565b610501603281565b60405161ffff9091168152602001610292565b6103ce600a81565b61025561052a366004612fa5565b611ea5565b6102a461025881565b6003546103ce90600160a01b900460ff1681565b61027e7f000000000000000000000000000000000000000000000000000000000000000081565b610586610581366004612997565b612025565b604051610292919061300d565b6007546102a4565b6102a4620668a081565b6102556105b3366004612997565b612252565b6102a46105c6366004612997565b60009081526020819052604090205490565b6102556105e6366004612e9c565b612281565b6102556105f936600461316f565b6122f7565b6102a460025481565b6003546001600160a01b0316331461063a5760405162461bcd60e51b815260040161063190613239565b60405180910390fd5b6003805460ff909216600160a01b0260ff60a01b19909216919091179055565b6040805160a081018252600080825260208201819052918101829052606081018290526080810191909152600882815481106106985761069861325f565b60009182526020918290206040805160a0810182526004909302909101805483526001810154938301939093526002830154908201526003909101546001600160401b03811660608301526001600160501b0319600160401b90910460501b16608082015292915050565b6000805b8451811015610748578481815181106107225761072261325f565b60200260200101516001600160c01b03168261073e919061328b565b9150600101610707565b506003546000906107669061271090600160a01b900460ff166132b4565b6107749061ffff16836132d8565b90506000600261078748620668a06132d8565b61079191906132d8565b60045461079e919061328b565b9050600060026107b148620334506132d8565b6107bb91906132d8565b6005546107c8919061328b565b90506107d385612647565b6107dc856126d6565b6000805b89518110156109c45760028982815181106107fd576107fd61325f565b602002602001015160088c84815181106108195761081961325f565b6020026020010151815481106108315761083161325f565b906000526020600020906004020160030160009054906101000a90046001600160401b031660088d858151811061086a5761086a61325f565b6020026020010151815481106108825761088261325f565b600091825260209182902060036004909202010154604080516001600160c01b03909516928501929092526001600160401b03909216908301526001600160501b0319600160401b90910460501b1660608201526080810184905260a00160408051601f19818403018152908290526108fa91613313565b602060405180830381855afa158015610917573d6000803e3d6000fd5b5050506040513d601f19601f8201168201806040525081019061093a919061332f565b915060088a82815181106109505761095061325f565b6020026020010151815481106109685761096861325f565b90600052602060002090600402016001015489828151811061098c5761098c61325f565b60200260200101516001600160c01b031611156109bc57604051634323a55560e01b815260040160405180910390fd5b6001016107e0565b50855115610b035760006007876000815181106109e3576109e361325f565b6020026020010151815481106109fb576109fb61325f565b60009182526020909120600a9091020180546001820180546001600160a01b0319166001600160a01b038c16179055600160601b6cffffffffffffffffff00000000199091166401000000004263ffffffff16026bffffffff00000000000000001916171781559050610a6e838561328b565b600582015560048101869055600754604080516001600160a01b038b16602082015242918101919091524660608201526080810184905260a081019190915260c00160408051601f19818403018152919052805160209182012060038301558a51610ae1916008840191908d01906128b8565b508851610af790600983019060208c0190612903565b50600201819055610d36565b604080516101a08101825260008082524263ffffffff1660208301529181019190915260079060608101600181526001600160a01b038a16602080830182905260408084018790526007548151928301939093524290820152466060828101919091526080820187905260a082019290925291019060c0016040516020818303038152906040528051906020012081526020018781526020018486610ba8919061328b565b8152602001600081526020016000801b81526020018b81526020018a81525090806001815401808255809150506001900390600052602060002090600a020160009091909190915060008201518160000160006101000a81548163ffffffff021916908363ffffffff16021790555060208201518160000160046101000a81548163ffffffff021916908363ffffffff16021790555060408201518160000160086101000a81548163ffffffff021916908363ffffffff160217905550606082015181600001600c6101000a81548160ff02191690836004811115610c8f57610c8f612eb9565b021790555060808201516001820180546001600160a01b0319166001600160a01b0390921691909117905560a0820151600282015560c0820151600382015560e082015160048201556101008201516005820155610120820151600682015561014082015160078201556101608201518051610d159160088401916020909101906128b8565b506101808201518051610d32916009840191602090910190612903565b5050505b60005b8951811015610dbe57888181518110610d5457610d5461325f565b60200260200101516001600160c01b031660088b8381518110610d7957610d7961325f565b602002602001015181548110610d9157610d9161325f565b90600052602060002090600402016001016000828254610db19190613348565b9091555050600101610d39565b506001600160a01b037f0000000000000000000000000000000000000000000000000000000000000000166323b872dd333085610dfb898961328b565b610e05919061328b565b6040516001600160e01b031960e086901b1681526001600160a01b03938416600482015292909116602483015260448201526064016020604051808303816000875af1158015610e59573d6000803e3d6000fd5b505050506040513d601f19601f82011682018060405250810190610e7d919061335b565b506009546040516323b872dd60e01b81523060048201526001600160a01b039182166024820152604481018690527f0000000000000000000000000000000000000000000000000000000000000000909116906323b872dd906064016020604051808303816000875af1158015610ef8573d6000803e3d6000fd5b505050506040513d601f19601f82011682018060405250810190610f1c919061335b565b50505050505050505050565b6001546005610f378686613348565b1015610f925760008481526020819052604090205483518490610f5c90600190613348565b81518110610f6c57610f6c61325f565b602002602001015114610f92576040516341305f6360e01b815260040160405180910390fd5b80861115610fb35760405163575f3da360e01b815260040160405180910390fd5b828281518110610fc557610fc561325f565b60200260200101516000808781526020019081526020016000205403610feb5750611117565b6000858152602081905260409020541580159061100a57508360025410155b15611028576040516371e98f3d60e11b815260040160405180910390fd5b808511156110cc5780860361106c578282815181106110495761104961325f565b602002602001015160008087815260200190815260200160002081905550611105565b808610156110c757855b8581116110c557836110888883613348565b815181106110985761109861325f565b602090810291909101810151600083815291829052604090912055806110bd8161337d565b915050611076565b505b611105565b80851015611105578282815181106110e6576110e661325f565b6020026020010151600080878152602001908152602001600020819055505b6001548511156111155760018590555b505b5050505050565b6040805160248082526104a0820190925260609160009190602082016104808036833701905050905061115483600001516127e3565b816000815181106111675761116761325f565b6020908102919091010152825160ff168160018151811061118a5761118a61325f565b6020026020010181815250506111a383602001516127e3565b816002815181106111b6576111b661325f565b6020026020010181815250506111d0836020015160ff1690565b816003815181106111e3576111e361325f565b6020026020010181815250506111fc83604001516127e3565b8160048151811061120f5761120f61325f565b6020908102919091010152604083015160ff16816005815181106112355761123561325f565b60200260200101818152505082606001516001600160401b031660001b816006815181106112655761126561325f565b60200260200101818152505082608001516001600160401b031660001b816007815181106112955761129561325f565b6020026020010181815250506112ae8360a001516127e3565b816008815181106112c1576112c161325f565b602090810291909101015260a083015160ff16816009815181106112e7576112e761325f565b6020026020010181815250506113008360c001516127e3565b81600a815181106113135761131361325f565b602090810291909101015260c083015160ff1681600b815181106113395761133961325f565b6020026020010181815250506113528360e001516127e3565b81600c815181106113655761136561325f565b602090810291909101015260e083015160ff1681600d8151811061138b5761138b61325f565b6020026020010181815250506113a58361010001516127e3565b81600e815181106113b8576113b861325f565b602090810291909101015261010083015160ff1681600f815181106113df576113df61325f565b6020026020010181815250508261012001516001600160401b031660001b816010815181106114105761141061325f565b6020026020010181815250508261014001516001600160401b031660001b816011815181106114415761144161325f565b6020026020010181815250508261016001516001600160401b031660001b816012815181106114725761147261325f565b6020026020010181815250508261018001516001600160401b031660001b816013815181106114a3576114a361325f565b60200260200101818152505060005b601081101561150657836101a0015181601081106114d2576114d261325f565b6020020151826114e383601461328b565b815181106114f3576114f361325f565b60209081029190910101526001016114b2565b5092915050565b6000600882815481106115225761152261325f565b600091825260208220600490910201818155600181019190915560030180546001600160f01b03191690555050565b6115826040518060400160405280601081526020016f6465706f7369744c697175696469747960801b8152506127f7565b6115b36040518060400160405280600f81526020016e02232b837b9b4ba20b6b7bab73a1d1608d1b8152508661283a565b836001600160401b03166000036115dd57604051635c4ad48d60e11b815260040160405180910390fd5b33600090815260066020526040812054900361162b5760408051600060208083018281528385018552835233825260068152929020815180519293919261162792849201906128b8565b5050505b80600019146116b757600081905060006008828154811061164e5761164e61325f565b6000918252602090912060049091020160038101549091506001600160401b03878116911603611697578681600101600082825461168c919061328b565b909155506116b09050565b60405163927ce9e760e01b815260040160405180910390fd5b505061185b565b816000191461174a576000600883815481106116d5576116d561325f565b90600052602060002090600402019050806001015460001461170a5760405163721e09df60e01b815260040160405180910390fd5b85815560018101869055600060028201556003018054605085901c600160401b026001600160f01b03199091166001600160401b0387161717905561185b565b6040805160a0810182528681526020810187815260009282018381526001600160401b03808916606085019081526001600160501b0319891660808601908152600880546001810182559752945160049096027ff3f7a9fe364faab93b216da50a3214154f22a0a2b415b23a84c8169e8b636ee381019690965592517ff3f7a9fe364faab93b216da50a3214154f22a0a2b415b23a84c8169e8b636ee486015590517ff3f7a9fe364faab93b216da50a3214154f22a0a2b415b23a84c8169e8b636ee585015590517ff3f7a9fe364faab93b216da50a3214154f22a0a2b415b23a84c8169e8b636ee69093018054925160501c600160401b026001600160f01b031990931693909116929092171790555b33600090815260066020526040902060085461187990600190613348565b815460018101835560009283526020909220909101556040516323b872dd60e01b8152336004820152306024820152604481018690527f00000000000000000000000000000000000000000000000000000000000000006001600160a01b0316906323b872dd906064015b6020604051808303816000875af1158015611903573d6000803e3d6000fd5b505050506040513d601f19601f82011682018060405250810190611115919061335b565b33600090815260066020526040902080548591908590811061194b5761194b61325f565b90600052602060002001541461197457604051630e7fea9d60e01b815260040160405180910390fd5b816001600160401b031660000361199e57604051636e5a187760e11b815260040160405180910390fd5b6000600885815481106119b3576119b361325f565b906000526020600020906004020190506119cc826126d6565b80546001820154146119f1576040516391bc6cc360e01b815260040160405180910390fd5b600301805467ffffffffffffffff19166001600160401b039390931692909217909155505050565b6003546001600160a01b03163314611a435760405162461bcd60e51b815260040161063190613239565b600980546001600160a01b0319166001600160a01b0392909216919091179055565b60088181548110611a7557600080fd5b6000918252602090912060049091020180546001820154600283015460039093015491935091906001600160401b03811690600160401b900460501b85565b600060088281548110611ac957611ac961325f565b9060005260206000209060040201600101549050919050565b60078181548110611af257600080fd5b60009182526020909120600a90910201805460018201546002830154600384015460048501546005860154600687015460079097015463ffffffff80881699506401000000008804811698600160401b890490911697600160601b900460ff16966001600160a01b031695949392918b565b600060078281548110611b7957611b7961325f565b60009182526020909120600a90910201905060028154600160601b900460ff166004811115611baa57611baa612eb9565b14611bc85760405163b38c767b60e01b815260040160405180910390fd5b805461025890611be590600160401b900463ffffffff1642613348565b1015611c0457604051632d5c37f560e21b815260040160405180910390fd5b6007810154600682015460009081526020819052604090205403611c3b5760405163c1f6fa5160e01b815260040160405180910390fd5b6000611c4a48620334506132d8565b600554611c57919061328b565b60405163a9059cbb60e01b8152336004820152602481018290529091507f00000000000000000000000000000000000000000000000000000000000000006001600160a01b03169063a9059cbb906044016020604051808303816000875af1158015611cc7573d6000803e3d6000fd5b505050506040513d601f19601f82011682018060405250810190611ceb919061335b565b5080826005016000828254611d009190613396565b9091555050600582015460001315611d37578160050154826004016000828254611d2a919061328b565b9091555050600060058301555b600182015460048084015460405163a9059cbb60e01b81526001600160a01b039384169281019290925260248201527f00000000000000000000000000000000000000000000000000000000000000009091169063a9059cbb906044016020604051808303816000875af1158015611db3573d6000803e3d6000fd5b505050506040513d601f19601f82011682018060405250810190611dd7919061335b565b5050805460ff60601b1916600160621b17905550565b6003546001600160a01b03163314611e175760405162461bcd60e51b815260040161063190613239565b600491909155600555565b6040805160208082018352606082526001600160a01b03841660009081526006825283902083518154808402820186018652928101838152939490939192849291849190840182828015611e9557602002820191906000526020600020905b815481526020019060010190808311611e81575b5050505050815250509050919050565b336000908152600660205260409020805485919085908110611ec957611ec961325f565b906000526020600020015414611ef257604051630e7fea9d60e01b815260040160405180910390fd5b611efb816126d6565b6008548410611f1d5760405163721e09df60e01b815260040160405180910390fd5b600060088581548110611f3257611f3261325f565b90600052602060002090600402019050826001600160c01b031660001480611f6657508060010154836001600160c01b0316115b15611f845760405163b4e3d41360e01b815260040160405180910390fd5b826001600160c01b0316816001016000828254611fa19190613348565b92505081905550826001600160c01b0316816002016000828254611fc5919061328b565b909155505060405163a9059cbb60e01b81523360048201526001600160c01b03841660248201527f00000000000000000000000000000000000000000000000000000000000000006001600160a01b03169063a9059cbb906044016118e4565b604080516101a08101825260008082526020820181905291810182905260608082018390526080820183905260a0820183905260c0820183905260e08201839052610100820183905261012082018390526101408201929092526101608101829052610180810191909152600782815481106120a3576120a361325f565b6000918252602091829020604080516101a081018252600a909302909101805463ffffffff80821685526401000000008204811695850195909552600160401b8104909416918301919091529091606083019060ff600160601b90910416600481111561211257612112612eb9565b600481111561212357612123612eb9565b81526020016001820160009054906101000a90046001600160a01b03166001600160a01b03166001600160a01b03168152602001600282015481526020016003820154815260200160048201548152602001600582015481526020016006820154815260200160078201548152602001600882018054806020026020016040519081016040528092919081815260200182805480156121e157602002820191906000526020600020905b8154815260200190600101908083116121cd575b5050505050815260200160098201805480602002602001604051908101604052809291908181526020018280548015611e9557602002820191906000526020600020905b81546001600160c01b03168152600190910190602001808311612225575050505050815250509050919050565b60008181526020819052604090205461227e5760405163fa4a5e4560e01b815260040160405180910390fd5b50565b6003546001600160a01b031633146122ab5760405162461bcd60e51b815260040161063190613239565b600380546001600160a01b0319166001600160a01b03831690811790915560405133907f8be0079c531659141344cd1fd0a4f28419497f9722a3daafe3b4186f6b6457e090600090a350565b60006007898154811061230c5761230c61325f565b90600052602060002090600a020190506000612482604051806101c001604052808b8152602001846002015481526020018460030154815260200184600401546001600160401b0316815260200184600801805490506001600160401b03168152602001876001895161237f9190613348565b8151811061238f5761238f61325f565b60200260200101518152602001878b63ffffffff168b6123af91906133b6565b6001600160401b0316815181106123c8576123c861325f565b602002602001015181526020016123f18b63ffffffff1660009081526020819052604090205490565b815260200161241d6124028b61287f565b6001600160401b031660009081526020819052604090205490565b815263ffffffff8b166020820181905260409091019061243d908b6133b6565b6001600160401b031681526020016124558a8a6133b6565b6001600160401b0316815260200161246c8a61287f565b6001600160401b0316815260200186905261111e565b604051633a94343960e21b81529091506001600160a01b037f0000000000000000000000000000000000000000000000000000000000000000169063ea50d0e4906124d39086908590600401613401565b602060405180830381865afa1580156124f0573d6000803e3d6000fd5b505050506040513d601f19601f82011682018060405250810190612514919061335b565b50815460ff60601b1916600160611b178255600061253548620668a06132d8565b600454612542919061328b565b60405163a9059cbb60e01b8152336004820152602481018290529091507f00000000000000000000000000000000000000000000000000000000000000006001600160a01b03169063a9059cbb906044016020604051808303816000875af11580156125b2573d6000803e3d6000fd5b505050506040513d601f19601f820116820180604052508101906125d6919061335b565b5061260863ffffffff8a166001600160401b03808b16908a16896125fa848e6133b6565b6001600160401b0316610f28565b60008360050154121561263a57826005015483600401600082825461262d919061328b565b9091555050600060058401555b5050505050505050505050565b60005b81518110156126d257617080600783838151811061266a5761266a61325f565b6020026020010151815481106126825761268261325f565b60009182526020909120600a90910201546126ab90640100000000900463ffffffff1642613348565b10156126ca576040516326349d6b60e01b815260040160405180910390fd5b60010161264a565b5050565b60005b81518110156126d2576126eb82612647565b600060078383815181106127015761270161325f565b6020026020010151815481106127195761271961325f565b90600052602060002090600a0201905060005b60088201548110156127c957600060088360080183815481106127515761275161325f565b90600052602060002001548154811061276c5761276c61325f565b906000526020600020906004020190508260090182815481106127915761279161325f565b60009182526020822001546001830180546001600160c01b039092169290916127bb90849061328b565b90915550505060010161272c565b50805460ff60601b1916600360601b1790556001016126d9565b60006127f161010083613426565b92915050565b61227e8160405160240161280b919061343a565b60408051601f198184030181529190526020810180516001600160e01b031663104c13eb60e21b179052612897565b6126d2828260405160240161285092919061344d565b60408051601f198184030181529190526020810180516001600160e01b03166309710a9d60e41b179052612897565b600061288d6107e08361346f565b6127f190836133b6565b80516a636f6e736f6c652e6c6f67602083016000808483855afa5050505050565b8280548282559060005260206000209081019282156128f3579160200282015b828111156128f35782518255916020019190600101906128d8565b506128ff929150612958565b5090565b8280548282559060005260206000209081019282156128f3579160200282015b828111156128f357825182546001600160c01b0319166001600160c01b03909116178255602090920191600190910190612923565b5b808211156128ff5760008155600101612959565b60006020828403121561297f57600080fd5b813560ff8116811461299057600080fd5b9392505050565b6000602082840312156129a957600080fd5b5035919050565b634e487b7160e01b600052604160045260246000fd5b6040516101c081016001600160401b03811182821017156129e9576129e96129b0565b60405290565b604051601f8201601f191681016001600160401b0381118282101715612a1757612a176129b0565b604052919050565b60006001600160401b03821115612a3857612a386129b0565b5060051b60200190565b600082601f830112612a5357600080fd5b8135612a66612a6182612a1f565b6129ef565b8082825260208201915060208360051b860101925085831115612a8857600080fd5b602085015b83811015612aa5578035835260209283019201612a8d565b5095945050505050565b80356001600160c01b0381168114612ac657600080fd5b919050565b6001600160a01b038116811461227e57600080fd5b8035612ac681612acb565b60008060008060808587031215612b0157600080fd5b84356001600160401b03811115612b1757600080fd5b612b2387828801612a42565b94505060208501356001600160401b03811115612b3f57600080fd5b8501601f81018713612b5057600080fd5b8035612b5e612a6182612a1f565b8082825260208201915060208360051b850101925089831115612b8057600080fd5b6020840193505b82841015612ba957612b9884612aaf565b825260209384019390910190612b87565b9550612bbb9250505060408601612ae0565b915060608501356001600160401b03811115612bd657600080fd5b612be287828801612a42565b91505092959194509250565b600080600080600060a08688031215612c0657600080fd5b85359450602086013593506040860135925060608601356001600160401b03811115612c3157600080fd5b612c3d88828901612a42565b95989497509295608001359392505050565b80356001600160401b0381168114612ac657600080fd5b600082601f830112612c7757600080fd5b60405161020081016001600160401b0381118282101715612c9a57612c9a6129b0565b60405280610200840185811115612cb057600080fd5b845b81811015612cca578035835260209283019201612cb2565b509195945050505050565b60006103a0828403128015612ce957600080fd5b506000612cf46129c6565b833581526020808501359082015260408085013590820152612d1860608501612c4f565b6060820152612d2960808501612c4f565b608082015260a0848101359082015260c0808501359082015260e08085013590820152610100808501359082018190529150612d686101208501612c4f565b610120820152612d7b6101408501612c4f565b610140820152612d8e6101608501612c4f565b610160820152612da16101808501612c4f565b610180820152612db5856101a08601612c66565b6101a0820152949350505050565b600081518084526020840193506020830160005b82811015612df5578151865260209586019590910190600101612dd7565b5093949350505050565b6020815260006129906020830184612dc3565b600080600080600060a08688031215612e2a57600080fd5b85359450612e3a60208701612c4f565b935060408601356001600160501b031981168114612e5757600080fd5b94979396509394606081013594506080013592915050565b60008060008060808587031215612e8557600080fd5b8435935060208501359250612bbb60408601612c4f565b600060208284031215612eae57600080fd5b813561299081612acb565b634e487b7160e01b600052602160045260246000fd5b60058110612eed57634e487b7160e01b600052602160045260246000fd5b9052565b63ffffffff8c811682528b811660208301528a1660408201526101608101612f1c606083018b612ecf565b6001600160a01b0398909816608082015260a081019690965260c086019490945260e085019290925261010084015261012083015261014090910152949350505050565b60008060408385031215612f7357600080fd5b50508035926020909101359150565b6020815260008251602080840152612f9d6040840182612dc3565b949350505050565b60008060008060808587031215612fbb57600080fd5b8435935060208501359250612bbb60408601612aaf565b600081518084526020840193506020830160005b82811015612df55781516001600160c01b0316865260209586019590910190600101612fe6565b6020815261302460208201835163ffffffff169052565b6000602083015161303d604084018263ffffffff169052565b50604083015163ffffffff811660608401525060608301516130626080840182612ecf565b5060808301516001600160a01b03811660a08401525060a083015160c083015260c083015160e083015260e08301516101008301526101008301516101208301526101208301516101408301526101408301516101608301526101608301516101a06101808401526130d86101c0840182612dc3565b9050610180840151601f19848303016101a08501526130f78282612fd2565b95945050505050565b600082601f83011261311157600080fd5b81356001600160401b0381111561312a5761312a6129b0565b61313d601f8201601f19166020016129ef565b81815284602083860101111561315257600080fd5b816020850160208301376000918101602001919091529392505050565b6000806000806000806000806102e0898b03121561318c57600080fd5b8835975060208901359650604089013563ffffffff811681146131ae57600080fd5b95506131bc60608a01612c4f565b94506131ca60808a01612c4f565b935060a08901356001600160401b038111156131e557600080fd5b6131f18b828c01612a42565b9350506132018a60c08b01612c66565b91506102c08901356001600160401b0381111561321d57600080fd5b6132298b828c01613100565b9150509295985092959890939650565b6020808252600c908201526b15539055551213d49256915160a21b604082015260600190565b634e487b7160e01b600052603260045260246000fd5b634e487b7160e01b600052601160045260246000fd5b808201808211156127f1576127f1613275565b634e487b7160e01b600052601260045260246000fd5b600061ffff8316806132c8576132c861329e565b8061ffff84160491505092915050565b80820281158282048414176127f1576127f1613275565b60005b8381101561330a5781810151838201526020016132f2565b50506000910152565b600082516133258184602087016132ef565b9190910192915050565b60006020828403121561334157600080fd5b5051919050565b818103818111156127f1576127f1613275565b60006020828403121561336d57600080fd5b8151801515811461299057600080fd5b60006001820161338f5761338f613275565b5060010190565b818103600083128015838313168383128216171561150657611506613275565b6001600160401b0382811682821603908111156127f1576127f1613275565b600081518084526133ed8160208601602086016132ef565b601f01601f19169290920160200192915050565b60408152600061341460408301856133d5565b82810360208401526130f78185612dc3565b6000826134355761343561329e565b500490565b60208152600061299060208301846133d5565b60408152600061346060408301856133d5565b90508260208301529392505050565b60006001600160401b038316806134885761348861329e565b806001600160401b038416069150509291505056fea2646970667358221220aabc883c2f4fd9d2c8a14a8c67e222be27fb1aeaf508c0d2c7e5e4dee1dae2e564736f6c634300081a0033","linkReferences":{}},"methodIdentifiers":{"CHALLENGE_PERIOD()":"c3a079ed","DEPOSIT_TOKEN()":"13f66587","MAX_DEPOSIT_OUTPUTS()":"9cdb8e5a","MIN_ORDER_GAS_MULTIPLIER()":"5f5d5b6a","PROOF_GAS_COST()":"eb6c7522","RELEASE_GAS_COST()":"9a64279c","RESERVATION_LOCKUP_PERIOD()":"89a11f7a","SAMPLING_SIZE()":"ad062e55","TOKEN_DECIMALS()":"5b7f415c","addBlock(uint256,uint256,uint256,bytes32[],uint256)":"2d908c02","buildProofPublicInputs((bytes32,bytes32,bytes32,uint64,uint64,bytes32,bytes32,bytes32,bytes32,uint64,uint64,uint64,uint64,bytes32[16]))":"3435d9fe","currentConfirmationHeight()":"fba78166","currentHeight()":"163de0c5","depositLiquidity(uint256,uint64,bytes22,int256,int256)":"51a7f1cd","depositVaults(uint256)":"5f4d0610","emptyDepositVault(uint256)":"490d4c5f","getBlockHash(uint256)":"ee82ac5e","getDepositVault(uint256)":"276d080e","getDepositVaultUnreservedBalance(uint256)":"6512d057","getDepositVaultsLength()":"7dce5550","getLiquidityProvider(address)":"98f9e757","getReservation(uint256)":"d57763c3","getReservationLength()":"ea6fe03e","owner()":"8da5cb5b","proposeTransactionProof(uint256,bytes32,uint32,uint64,uint64,bytes32[],bytes32[16],bytes)":"f924534c","protocolFeeBP()":"c5fba0b8","proverReward()":"6dcc17c8","releaseLiquidity(uint256)":"77891907","releaserReward()":"9cc7eab9","reserveLiquidity(uint256[],uint192[],address,uint256[])":"2d312a4a","swapReservations(uint256)":"6b994abb","transferOwnership(address)":"f2fde38b","updateExchangeRate(uint256,uint256,uint64,uint256[])":"56fe6f86","updateProtocolAddress(address)":"58e2b676","updateProtocolFee(uint8)":"0a7aa293","updateRewards(uint256,uint256)":"97e50818","validateBlockExists(uint256)":"ed8b2b32","verifierContract()":"cf695688","withdrawLiquidity(uint256,uint256,uint192,uint256[])":"aeacb2e7"},"storageLayout":{"storage":[{"astId":47216,"contract":"src/RiftExchange.sol:RiftExchange","label":"blockchain","offset":0,"slot":"0","type":"t_mapping(t_uint256,t_bytes32)"},{"astId":47218,"contract":"src/RiftExchange.sol:RiftExchange","label":"currentHeight","offset":0,"slot":"1","type":"t_uint256"},{"astId":47220,"contract":"src/RiftExchange.sol:RiftExchange","label":"currentConfirmationHeight","offset":0,"slot":"2","type":"t_uint256"},{"astId":46598,"contract":"src/RiftExchange.sol:RiftExchange","label":"owner","offset":0,"slot":"3","type":"t_address"},{"astId":47926,"contract":"src/RiftExchange.sol:RiftExchange","label":"protocolFeeBP","offset":20,"slot":"3","type":"t_uint8"},{"astId":47928,"contract":"src/RiftExchange.sol:RiftExchange","label":"proverReward","offset":0,"slot":"4","type":"t_uint256"},{"astId":47930,"contract":"src/RiftExchange.sol:RiftExchange","label":"releaserReward","offset":0,"slot":"5","type":"t_uint256"},{"astId":47991,"contract":"src/RiftExchange.sol:RiftExchange","label":"liquidityProviders","offset":0,"slot":"6","type":"t_mapping(t_address,t_struct(LiquidityProvider)47939_storage)"},{"astId":47995,"contract":"src/RiftExchange.sol:RiftExchange","label":"swapReservations","offset":0,"slot":"7","type":"t_array(t_struct(SwapReservation)47986_storage)dyn_storage"},{"astId":47999,"contract":"src/RiftExchange.sol:RiftExchange","label":"depositVaults","offset":0,"slot":"8","type":"t_array(t_struct(DepositVault)47950_storage)dyn_storage"},{"astId":48008,"contract":"src/RiftExchange.sol:RiftExchange","label":"protocolAddress","offset":0,"slot":"9","type":"t_address_payable"}],"types":{"t_address":{"encoding":"inplace","label":"address","numberOfBytes":"20"},"t_address_payable":{"encoding":"inplace","label":"address payable","numberOfBytes":"20"},"t_array(t_struct(DepositVault)47950_storage)dyn_storage":{"encoding":"dynamic_array","label":"struct RiftExchange.DepositVault[]","numberOfBytes":"32","base":"t_struct(DepositVault)47950_storage"},"t_array(t_struct(SwapReservation)47986_storage)dyn_storage":{"encoding":"dynamic_array","label":"struct RiftExchange.SwapReservation[]","numberOfBytes":"32","base":"t_struct(SwapReservation)47986_storage"},"t_array(t_uint192)dyn_storage":{"encoding":"dynamic_array","label":"uint192[]","numberOfBytes":"32","base":"t_uint192"},"t_array(t_uint256)dyn_storage":{"encoding":"dynamic_array","label":"uint256[]","numberOfBytes":"32","base":"t_uint256"},"t_bytes22":{"encoding":"inplace","label":"bytes22","numberOfBytes":"22"},"t_bytes32":{"encoding":"inplace","label":"bytes32","numberOfBytes":"32"},"t_enum(ReservationState)47956":{"encoding":"inplace","label":"enum RiftExchange.ReservationState","numberOfBytes":"1"},"t_int256":{"encoding":"inplace","label":"int256","numberOfBytes":"32"},"t_mapping(t_address,t_struct(LiquidityProvider)47939_storage)":{"encoding":"mapping","key":"t_address","label":"mapping(address => struct RiftExchange.LiquidityProvider)","numberOfBytes":"32","value":"t_struct(LiquidityProvider)47939_storage"},"t_mapping(t_uint256,t_bytes32)":{"encoding":"mapping","key":"t_uint256","label":"mapping(uint256 => bytes32)","numberOfBytes":"32","value":"t_bytes32"},"t_struct(DepositVault)47950_storage":{"encoding":"inplace","label":"struct RiftExchange.DepositVault","numberOfBytes":"128","members":[{"astId":47941,"contract":"src/RiftExchange.sol:RiftExchange","label":"initialBalance","offset":0,"slot":"0","type":"t_uint256"},{"astId":47943,"contract":"src/RiftExchange.sol:RiftExchange","label":"unreservedBalance","offset":0,"slot":"1","type":"t_uint256"},{"astId":47945,"contract":"src/RiftExchange.sol:RiftExchange","label":"withdrawnAmount","offset":0,"slot":"2","type":"t_uint256"},{"astId":47947,"contract":"src/RiftExchange.sol:RiftExchange","label":"exchangeRate","offset":0,"slot":"3","type":"t_uint64"},{"astId":47949,"contract":"src/RiftExchange.sol:RiftExchange","label":"btcPayoutLockingScript","offset":8,"slot":"3","type":"t_bytes22"}]},"t_struct(LiquidityProvider)47939_storage":{"encoding":"inplace","label":"struct RiftExchange.LiquidityProvider","numberOfBytes":"32","members":[{"astId":47938,"contract":"src/RiftExchange.sol:RiftExchange","label":"depositVaultIndexes","offset":0,"slot":"0","type":"t_array(t_uint256)dyn_storage"}]},"t_struct(SwapReservation)47986_storage":{"encoding":"inplace","label":"struct RiftExchange.SwapReservation","numberOfBytes":"320","members":[{"astId":47958,"contract":"src/RiftExchange.sol:RiftExchange","label":"confirmationBlockHeight","offset":0,"slot":"0","type":"t_uint32"},{"astId":47960,"contract":"src/RiftExchange.sol:RiftExchange","label":"reservationTimestamp","offset":4,"slot":"0","type":"t_uint32"},{"astId":47962,"contract":"src/RiftExchange.sol:RiftExchange","label":"unlockTimestamp","offset":8,"slot":"0","type":"t_uint32"},{"astId":47965,"contract":"src/RiftExchange.sol:RiftExchange","label":"state","offset":12,"slot":"0","type":"t_enum(ReservationState)47956"},{"astId":47967,"contract":"src/RiftExchange.sol:RiftExchange","label":"ethPayoutAddress","offset":0,"slot":"1","type":"t_address"},{"astId":47969,"contract":"src/RiftExchange.sol:RiftExchange","label":"lpReservationHash","offset":0,"slot":"2","type":"t_bytes32"},{"astId":47971,"contract":"src/RiftExchange.sol:RiftExchange","label":"nonce","offset":0,"slot":"3","type":"t_bytes32"},{"astId":47973,"contract":"src/RiftExchange.sol:RiftExchange","label":"totalSwapAmount","offset":0,"slot":"4","type":"t_uint256"},{"astId":47975,"contract":"src/RiftExchange.sol:RiftExchange","label":"prepaidFeeAmount","offset":0,"slot":"5","type":"t_int256"},{"astId":47977,"contract":"src/RiftExchange.sol:RiftExchange","label":"proposedBlockHeight","offset":0,"slot":"6","type":"t_uint256"},{"astId":47979,"contract":"src/RiftExchange.sol:RiftExchange","label":"proposedBlockHash","offset":0,"slot":"7","type":"t_bytes32"},{"astId":47982,"contract":"src/RiftExchange.sol:RiftExchange","label":"vaultIndexes","offset":0,"slot":"8","type":"t_array(t_uint256)dyn_storage"},{"astId":47985,"contract":"src/RiftExchange.sol:RiftExchange","label":"amountsToReserve","offset":0,"slot":"9","type":"t_array(t_uint192)dyn_storage"}]},"t_uint192":{"encoding":"inplace","label":"uint192","numberOfBytes":"24"},"t_uint256":{"encoding":"inplace","label":"uint256","numberOfBytes":"32"},"t_uint32":{"encoding":"inplace","label":"uint32","numberOfBytes":"4"},"t_uint64":{"encoding":"inplace","label":"uint64","numberOfBytes":"8"},"t_uint8":{"encoding":"inplace","label":"uint8","numberOfBytes":"1"}}},"id":29}