{"abi":[{"type":"constructor","inputs":[{"name":"initialCheckpointHeight","type":"uint256","internalType":"uint256"},{"name":"initialBlockHash","type":"bytes32","internalType":"bytes32"},{"name":"initialRetargetBlockHash","type":"bytes32","internalType":"bytes32"},{"name":"verifierContractAddress","type":"address","internalType":"address"},{"name":"depositTokenAddress","type":"address","internalType":"address"},{"name":"_proverReward","type":"uint256","internalType":"uint256"},{"name":"_releaserReward","type":"uint256","internalType":"uint256"},{"name":"_protocolAddress","type":"address","internalType":"address payable"},{"name":"_owner","type":"address","internalType":"address"},{"name":"_circuitVerificationKey","type":"bytes32","internalType":"bytes32"},{"name":"minimumConfirmationDelta","type":"uint8","internalType":"uint8"}],"stateMutability":"nonpayable"},{"type":"function","name":"CHALLENGE_PERIOD","inputs":[],"outputs":[{"name":"","type":"uint32","internalType":"uint32"}],"stateMutability":"view"},{"type":"function","name":"DEPOSIT_TOKEN","inputs":[],"outputs":[{"name":"","type":"address","internalType":"contract IERC20"}],"stateMutability":"view"},{"type":"function","name":"MAX_DEPOSIT_OUTPUTS","inputs":[],"outputs":[{"name":"","type":"uint16","internalType":"uint16"}],"stateMutability":"view"},{"type":"function","name":"MIN_ORDER_GAS_MULTIPLIER","inputs":[],"outputs":[{"name":"","type":"uint256","internalType":"uint256"}],"stateMutability":"view"},{"type":"function","name":"PROOF_GAS_COST","inputs":[],"outputs":[{"name":"","type":"uint256","internalType":"uint256"}],"stateMutability":"view"},{"type":"function","name":"RELEASE_GAS_COST","inputs":[],"outputs":[{"name":"","type":"uint256","internalType":"uint256"}],"stateMutability":"view"},{"type":"function","name":"RESERVATION_LOCKUP_PERIOD","inputs":[],"outputs":[{"name":"","type":"uint32","internalType":"uint32"}],"stateMutability":"view"},{"type":"function","name":"SAMPLING_SIZE","inputs":[],"outputs":[{"name":"","type":"uint8","internalType":"uint8"}],"stateMutability":"view"},{"type":"function","name":"TOKEN_DECIMALS","inputs":[],"outputs":[{"name":"","type":"uint8","internalType":"uint8"}],"stateMutability":"view"},{"type":"function","name":"buildProofPublicInputs","inputs":[{"name":"inputs","type":"tuple","internalType":"struct RiftExchange.ProofPublicInputs","components":[{"name":"natural_txid","type":"bytes32","internalType":"bytes32"},{"name":"lp_reservation_hash","type":"bytes32","internalType":"bytes32"},{"name":"order_nonce","type":"bytes32","internalType":"bytes32"},{"name":"lp_count","type":"uint64","internalType":"uint64"},{"name":"retarget_block_hash","type":"bytes32","internalType":"bytes32"},{"name":"safe_block_height","type":"uint64","internalType":"uint64"},{"name":"safe_block_height_delta","type":"uint64","internalType":"uint64"},{"name":"confirmation_block_height_delta","type":"uint64","internalType":"uint64"},{"name":"retarget_block_height","type":"uint64","internalType":"uint64"},{"name":"block_hashes","type":"bytes32[]","internalType":"bytes32[]"}]}],"outputs":[{"name":"","type":"bytes","internalType":"bytes"}],"stateMutability":"pure"},{"type":"function","name":"calculateRetargetHeight","inputs":[{"name":"blockHeight","type":"uint64","internalType":"uint64"}],"outputs":[{"name":"","type":"uint64","internalType":"uint64"}],"stateMutability":"pure"},{"type":"function","name":"circuitVerificationKey","inputs":[],"outputs":[{"name":"","type":"bytes32","internalType":"bytes32"}],"stateMutability":"view"},{"type":"function","name":"currentConfirmationHeight","inputs":[],"outputs":[{"name":"","type":"uint256","internalType":"uint256"}],"stateMutability":"view"},{"type":"function","name":"currentHeight","inputs":[],"outputs":[{"name":"","type":"uint256","internalType":"uint256"}],"stateMutability":"view"},{"type":"function","name":"depositLiquidity","inputs":[{"name":"depositAmount","type":"uint256","internalType":"uint256"},{"name":"exchangeRate","type":"uint64","internalType":"uint64"},{"name":"btcPayoutLockingScript","type":"bytes22","internalType":"bytes22"},{"name":"vaultIndexToOverwrite","type":"int256","internalType":"int256"},{"name":"vaultIndexWithSameExchangeRate","type":"int256","internalType":"int256"}],"outputs":[],"stateMutability":"nonpayable"},{"type":"function","name":"depositVaults","inputs":[{"name":"","type":"uint256","internalType":"uint256"}],"outputs":[{"name":"owner","type":"address","internalType":"address"},{"name":"initialBalance","type":"uint256","internalType":"uint256"},{"name":"unreservedBalance","type":"uint256","internalType":"uint256"},{"name":"withdrawnAmount","type":"uint256","internalType":"uint256"},{"name":"exchangeRate","type":"uint64","internalType":"uint64"},{"name":"btcPayoutLockingScript","type":"bytes22","internalType":"bytes22"}],"stateMutability":"view"},{"type":"function","name":"emptyDepositVault","inputs":[{"name":"vaultIndex","type":"uint256","internalType":"uint256"}],"outputs":[],"stateMutability":"nonpayable"},{"type":"function","name":"getBlockHash","inputs":[{"name":"blockHeight","type":"uint256","internalType":"uint256"}],"outputs":[{"name":"","type":"bytes32","internalType":"bytes32"}],"stateMutability":"view"},{"type":"function","name":"getDepositVault","inputs":[{"name":"depositIndex","type":"uint256","internalType":"uint256"}],"outputs":[{"name":"","type":"tuple","internalType":"struct RiftExchange.DepositVault","components":[{"name":"owner","type":"address","internalType":"address"},{"name":"initialBalance","type":"uint256","internalType":"uint256"},{"name":"unreservedBalance","type":"uint256","internalType":"uint256"},{"name":"withdrawnAmount","type":"uint256","internalType":"uint256"},{"name":"exchangeRate","type":"uint64","internalType":"uint64"},{"name":"btcPayoutLockingScript","type":"bytes22","internalType":"bytes22"}]}],"stateMutability":"view"},{"type":"function","name":"getDepositVaultUnreservedBalance","inputs":[{"name":"depositIndex","type":"uint256","internalType":"uint256"}],"outputs":[{"name":"","type":"uint256","internalType":"uint256"}],"stateMutability":"view"},{"type":"function","name":"getDepositVaultsLength","inputs":[],"outputs":[{"name":"","type":"uint256","internalType":"uint256"}],"stateMutability":"view"},{"type":"function","name":"getLiquidityProvider","inputs":[{"name":"lpAddress","type":"address","internalType":"address"}],"outputs":[{"name":"","type":"tuple","internalType":"struct RiftExchange.LiquidityProvider","components":[{"name":"depositVaultIndexes","type":"uint256[]","internalType":"uint256[]"}]}],"stateMutability":"view"},{"type":"function","name":"getReservation","inputs":[{"name":"reservationIndex","type":"uint256","internalType":"uint256"}],"outputs":[{"name":"","type":"tuple","internalType":"struct RiftExchange.SwapReservation","components":[{"name":"owner","type":"address","internalType":"address"},{"name":"confirmationBlockHeight","type":"uint32","internalType":"uint32"},{"name":"reservationTimestamp","type":"uint32","internalType":"uint32"},{"name":"unlockTimestamp","type":"uint32","internalType":"uint32"},{"name":"state","type":"uint8","internalType":"enum RiftExchange.ReservationState"},{"name":"ethPayoutAddress","type":"address","internalType":"address"},{"name":"lpReservationHash","type":"bytes32","internalType":"bytes32"},{"name":"nonce","type":"bytes32","internalType":"bytes32"},{"name":"totalSatsInputInlcudingProxyFee","type":"uint256","internalType":"uint256"},{"name":"totalSwapOutputAmount","type":"uint256","internalType":"uint256"},{"name":"prepaidFeeAmount","type":"int256","internalType":"int256"},{"name":"proposedBlockHeight","type":"uint256","internalType":"uint256"},{"name":"proposedBlockHash","type":"bytes32","internalType":"bytes32"},{"name":"vaultIndexes","type":"uint256[]","internalType":"uint256[]"},{"name":"amountsToReserve","type":"uint192[]","internalType":"uint192[]"},{"name":"expectedSatsOutput","type":"uint64[]","internalType":"uint64[]"}]}],"stateMutability":"view"},{"type":"function","name":"getReservationLength","inputs":[],"outputs":[{"name":"","type":"uint256","internalType":"uint256"}],"stateMutability":"view"},{"type":"function","name":"isDepositNewLiquidityPaused","inputs":[],"outputs":[{"name":"","type":"bool","internalType":"bool"}],"stateMutability":"view"},{"type":"function","name":"owner","inputs":[],"outputs":[{"name":"","type":"address","internalType":"address"}],"stateMutability":"view"},{"type":"function","name":"pauseDepositNewLiquidity","inputs":[],"outputs":[],"stateMutability":"nonpayable"},{"type":"function","name":"proposeTransactionProof","inputs":[{"name":"swapReservationIndex","type":"uint256","internalType":"uint256"},{"name":"bitcoinTxId","type":"bytes32","internalType":"bytes32"},{"name":"safeBlockHeight","type":"uint32","internalType":"uint32"},{"name":"proposedBlockHeight","type":"uint64","internalType":"uint64"},{"name":"confirmationBlockHeight","type":"uint64","internalType":"uint64"},{"name":"blockHashes","type":"bytes32[]","internalType":"bytes32[]"},{"name":"proof","type":"bytes","internalType":"bytes"}],"outputs":[],"stateMutability":"nonpayable"},{"type":"function","name":"protocolFeeBP","inputs":[],"outputs":[{"name":"","type":"uint8","internalType":"uint8"}],"stateMutability":"view"},{"type":"function","name":"proverReward","inputs":[],"outputs":[{"name":"","type":"uint256","internalType":"uint256"}],"stateMutability":"view"},{"type":"function","name":"refundAllLPs","inputs":[{"name":"depositVaultStartIndex","type":"uint256","internalType":"uint256"},{"name":"depositVaultEndIndex","type":"uint256","internalType":"uint256"},{"name":"expiredReservationIndexes","type":"uint256[]","internalType":"uint256[]"}],"outputs":[],"stateMutability":"nonpayable"},{"type":"function","name":"releaseLiquidity","inputs":[{"name":"swapReservationIndex","type":"uint256","internalType":"uint256"}],"outputs":[],"stateMutability":"nonpayable"},{"type":"function","name":"releaserReward","inputs":[],"outputs":[{"name":"","type":"uint256","internalType":"uint256"}],"stateMutability":"view"},{"type":"function","name":"reserveLiquidity","inputs":[{"name":"vaultIndexesToReserve","type":"uint256[]","internalType":"uint256[]"},{"name":"amountsToReserve","type":"uint192[]","internalType":"uint192[]"},{"name":"ethPayoutAddress","type":"address","internalType":"address"},{"name":"totalSatsInputInlcudingProxyFee","type":"uint256","internalType":"uint256"},{"name":"expiredSwapReservationIndexes","type":"uint256[]","internalType":"uint256[]"}],"outputs":[],"stateMutability":"nonpayable"},{"type":"function","name":"setSwapReservationState","inputs":[{"name":"swapReservationIndex","type":"uint256","internalType":"uint256"},{"name":"state","type":"uint8","internalType":"enum RiftExchange.ReservationState"}],"outputs":[],"stateMutability":"nonpayable"},{"type":"function","name":"swapReservations","inputs":[{"name":"","type":"uint256","internalType":"uint256"}],"outputs":[{"name":"owner","type":"address","internalType":"address"},{"name":"confirmationBlockHeight","type":"uint32","internalType":"uint32"},{"name":"reservationTimestamp","type":"uint32","internalType":"uint32"},{"name":"unlockTimestamp","type":"uint32","internalType":"uint32"},{"name":"state","type":"uint8","internalType":"enum RiftExchange.ReservationState"},{"name":"ethPayoutAddress","type":"address","internalType":"address"},{"name":"lpReservationHash","type":"bytes32","internalType":"bytes32"},{"name":"nonce","type":"bytes32","internalType":"bytes32"},{"name":"totalSatsInputInlcudingProxyFee","type":"uint256","internalType":"uint256"},{"name":"totalSwapOutputAmount","type":"uint256","internalType":"uint256"},{"name":"prepaidFeeAmount","type":"int256","internalType":"int256"},{"name":"proposedBlockHeight","type":"uint256","internalType":"uint256"},{"name":"proposedBlockHash","type":"bytes32","internalType":"bytes32"}],"stateMutability":"view"},{"type":"function","name":"transferOwnership","inputs":[{"name":"newOwner","type":"address","internalType":"address"}],"outputs":[],"stateMutability":"nonpayable"},{"type":"function","name":"unpauseDepositNewLiquidity","inputs":[],"outputs":[],"stateMutability":"nonpayable"},{"type":"function","name":"updateExchangeRate","inputs":[{"name":"globalVaultIndex","type":"uint256","internalType":"uint256"},{"name":"localVaultIndex","type":"uint256","internalType":"uint256"},{"name":"newexchangeRate","type":"uint64","internalType":"uint64"},{"name":"expiredReservationIndexes","type":"uint256[]","internalType":"uint256[]"}],"outputs":[],"stateMutability":"nonpayable"},{"type":"function","name":"updateProtocolAddress","inputs":[{"name":"newProtocolAddress","type":"address","internalType":"address payable"}],"outputs":[],"stateMutability":"nonpayable"},{"type":"function","name":"updateProtocolFee","inputs":[{"name":"newProtocolFeeBP","type":"uint8","internalType":"uint8"}],"outputs":[],"stateMutability":"nonpayable"},{"type":"function","name":"updateRewards","inputs":[{"name":"newProverReward","type":"uint256","internalType":"uint256"},{"name":"newReleaserReward","type":"uint256","internalType":"uint256"}],"outputs":[],"stateMutability":"nonpayable"},{"type":"function","name":"validateBlockExists","inputs":[{"name":"blockHeight","type":"uint256","internalType":"uint256"}],"outputs":[],"stateMutability":"view"},{"type":"function","name":"verifierContract","inputs":[],"outputs":[{"name":"","type":"address","internalType":"contract ISP1Verifier"}],"stateMutability":"view"},{"type":"function","name":"withdrawLiquidity","inputs":[{"name":"globalVaultIndex","type":"uint256","internalType":"uint256"},{"name":"localVaultIndex","type":"uint256","internalType":"uint256"},{"name":"amountToWithdraw","type":"uint192","internalType":"uint192"},{"name":"expiredReservationIndexes","type":"uint256[]","internalType":"uint256[]"}],"outputs":[],"stateMutability":"nonpayable"},{"type":"event","name":"BlocksAdded","inputs":[{"name":"startBlockHeight","type":"uint256","indexed":false,"internalType":"uint256"},{"name":"count","type":"uint256","indexed":false,"internalType":"uint256"}],"anonymous":false},{"type":"event","name":"LiquidityReserved","inputs":[{"name":"reserver","type":"address","indexed":true,"internalType":"address"},{"name":"swapReservationIndex","type":"uint256","indexed":false,"internalType":"uint256"},{"name":"orderNonce","type":"bytes32","indexed":false,"internalType":"bytes32"}],"anonymous":false},{"type":"event","name":"OwnershipTransferred","inputs":[{"name":"user","type":"address","indexed":true,"internalType":"address"},{"name":"newOwner","type":"address","indexed":true,"internalType":"address"}],"anonymous":false},{"type":"event","name":"ProofProposed","inputs":[{"name":"prover","type":"address","indexed":true,"internalType":"address"},{"name":"swapReservationIndex","type":"uint256","indexed":false,"internalType":"uint256"},{"name":"orderNonce","type":"bytes32","indexed":false,"internalType":"bytes32"}],"anonymous":false},{"type":"event","name":"SwapComplete","inputs":[{"name":"swapReservationIndex","type":"uint256","indexed":false,"internalType":"uint256"},{"name":"orderNonce","type":"bytes32","indexed":false,"internalType":"bytes32"}],"anonymous":false},{"type":"error","name":"BlockDoesNotExist","inputs":[]},{"type":"error","name":"InvaidSameExchangeRatevaultIndex","inputs":[]},{"type":"error","name":"InvalidConfirmationBlock","inputs":[]},{"type":"error","name":"InvalidProposedBlockOverwrite","inputs":[]},{"type":"error","name":"InvalidSafeBlock","inputs":[]},{"type":"error","name":"InvalidUpdateWithActiveReservations","inputs":[]},{"type":"error","name":"InvalidVaultIndex","inputs":[]},{"type":"error","name":"InvalidVaultUpdate","inputs":[]},{"type":"error","name":"NotEnoughLiquidity","inputs":[]},{"type":"error","name":"NotVaultOwner","inputs":[]},{"type":"error","name":"OverwrittenProposedBlock","inputs":[]},{"type":"error","name":"ReservationNotExpired","inputs":[]},{"type":"error","name":"ReservationNotUnlocked","inputs":[]},{"type":"error","name":"StillInChallengePeriod","inputs":[]},{"type":"error","name":"WithdrawalAmountError","inputs":[]},{"type":"error","name":"exchangeRateZero","inputs":[]}],"bytecode":{"object":"0x61012060405260038054600560a91b61ffff60a01b19909116179055600980546001600160a01b03191673f39fd6e51aad88f6f4ce6ab8827279cfffb9226617905534801561004d57600080fd5b50604051613fe1380380613fe183398101604081905261006c91610210565b60018b905560008b81526020819052604081208b905583908c908c908c908590829080610098876101c4565b6001600160401b031681526020810191909152604090810160009081209290925560ff909216608052600380546001600160a01b0388166001600160a01b03199091168117909155915191945092507f8be0079c531659141344cd1fd0a4f28419497f9722a3daafe3b4186f6b6457e091508290a3506101008290526001600160a01b0380891660e052871660a08190526040805163313ce56760e01b8152905163313ce567916004808201926020929091908290030181865afa158015610164573d6000803e3d6000fd5b505050506040513d601f19601f8201168201806040525081019061018891906102c1565b60ff1660c052505050600492909255600555600980546001600160a01b0319166001600160a01b039092169190911790555061034d9350505050565b60006101d26107e0836102e3565b6101dc9083610320565b92915050565b6001600160a01b03811681146101f757600080fd5b50565b805160ff8116811461020b57600080fd5b919050565b60008060008060008060008060008060006101608c8e03121561023257600080fd5b8b5160208d015160408e015160608f0151929d50909b509950610254816101e2565b60808d0151909850610265816101e2565b60a08d015160c08e015160e08f01519299509097509550610285816101e2565b6101008d0151909450610297816101e2565b6101208d015190935091506102af6101408d016101fa565b90509295989b509295989b9093969950565b6000602082840312156102d357600080fd5b6102dc826101fa565b9392505050565b60006001600160401b0383168061030a57634e487b7160e01b600052601260045260246000fd5b6001600160401b03929092169190910692915050565b6001600160401b0382811682821603908111156101dc57634e487b7160e01b600052601160045260246000fd5b60805160a05160c05160e05161010051613bfc6103e56000396000818161038a015261206401526000818161064d01526120370152600081816104050152818161081c0152611ea60152600081816102b901528181610eed01528181610fcb015281816116cb01528181611aa801528181611c0e01528181611d060152818161219f01526124be01526000612ab30152613bfc6000f3fe608060405234801561001057600080fd5b506004361061027f5760003560e01c80637e38d04c1161015c578063aeacb2e7116100ce578063ea6fe03e11610087578063ea6fe03e146106ba578063eb6c7522146106c2578063ed8b2b32146106cc578063ee82ac5e146106df578063f2fde38b146106ff578063fba781661461071257600080fd5b8063aeacb2e714610618578063c3a079ed1461062b578063c5fba0b814610634578063cf69568814610648578063d34bb7c11461066f578063d57763c31461069a57600080fd5b806397e508181161012057806397e50818146105af57806398f9e757146105c25780639a64279c146105e25780639cc7eab9146105ec5780639cdb8e5a146105f5578063ad062e551461061057600080fd5b80637e38d04c1461052757806389a11f7a146105475780638cc63cdd146105655780638da5cb5b146105895780638f805ac91461059c57600080fd5b806358e2b676116101f55780636b994abb116101b95780636b994abb146104b15780636dcc17c8146104dd57806370c60e8f146104e657806377891907146104f95780637b93291f1461050c5780637dce55501461051f57600080fd5b806358e2b676146103ed5780635b7f415c146104005780635f4d0610146104395780635f5d5b6a146104965780636512d0571461049e57600080fd5b8063276d080e11610247578063276d080e1461030f5780633d7b22b3146103855780634491ba54146103ac578063490d4c5f146103b457806351a7f1cd146103c757806356fe6f86146103da57600080fd5b80630140e183146102845780630a7aa29314610299578063130d1392146102ac57806313f66587146102b4578063163de0c5146102f8575b600080fd5b610297610292366004612f9f565b61071b565b005b6102976102a73660046130ac565b611098565b6102976110eb565b6102db7f000000000000000000000000000000000000000000000000000000000000000081565b6040516001600160a01b0390911681526020015b60405180910390f35b61030160015481565b6040519081526020016102ef565b61032261031d3660046130cf565b61117e565b6040516102ef919081516001600160a01b031681526020808301519082015260408083015190820152606080830151908201526080808301516001600160401b03169082015260a0918201516001600160501b0319169181019190915260c00190565b6103017f000000000000000000000000000000000000000000000000000000000000000081565b610297611241565b6102976103c23660046130cf565b6112d3565b6102976103d53660046130ff565b61131c565b6102976103e836600461315c565b611749565b6102976103fb3660046131bc565b61183e565b6104277f000000000000000000000000000000000000000000000000000000000000000081565b60405160ff90911681526020016102ef565b61044c6104473660046130cf565b61188a565b604080516001600160a01b03909716875260208701959095529385019290925260608401526001600160401b031660808301526001600160501b03191660a082015260c0016102ef565b610301600281565b6103016104ac3660046130cf565b6118ea565b6104c46104bf3660046130cf565b611918565b6040516102ef9d9c9b9a99989796959493929190613211565b61030160045481565b6102976104f4366004613299565b6119ae565b6102976105073660046130cf565b611b29565b61029761051a3660046132e8565b611dc8565b600854610301565b61053a61053536600461331c565b611e17565b6040516102ef919061345d565b61055061708081565b60405163ffffffff90911681526020016102ef565b60035461057990600160a01b900460ff1681565b60405190151581526020016102ef565b6003546102db906001600160a01b031681565b6102976105aa3660046134df565b611e40565b6102976105bd366004613596565b6122bd565b6105d56105d03660046131bc565b6122f2565b6040516102ef91906135f4565b6103016203345081565b61030160055481565b6105fd603281565b60405161ffff90911681526020016102ef565b610427600a81565b610297610626366004613617565b612375565b61055061025881565b60035461042790600160a81b900460ff1681565b6102db7f000000000000000000000000000000000000000000000000000000000000000081565b61068261067d366004613644565b6124f5565b6040516001600160401b0390911681526020016102ef565b6106ad6106a83660046130cf565b612513565b6040516102ef91906136d5565b600754610301565b610301620668a081565b6102976106da3660046130cf565b61280e565b6103016106ed3660046130cf565b60009081526020819052604090205490565b61029761070d3660046131bc565b61283d565b61030160025481565b600080600087516001600160401b0381111561073957610739612e64565b604051908082528060200260200182016040528015610762578160200160208202803683370190505b50905060005b875181101561089357600060088a83815181106107875761078761380b565b60200260200101518154811061079f5761079f61380b565b600091825260209091206004600590920201015489516001600160401b0390911691508990839081106107d4576107d461380b565b60200260200101516001600160c01b0316856107f09190613837565b945060006108408a84815181106108095761080961380b565b60200260200101516001600160c01b03167f00000000000000000000000000000000000000000000000000000000000000006128b3565b9050600061084e8383613860565b905061085a8187613837565b95508085858151811061086f5761086f61380b565b6001600160401b039290921660209283029190910190910152505050600101610768565b5060006108aa670de0b6b3a7640000612710613874565b600354600160a81b900460ff166108c9670de0b6b3a764000087613874565b6108d39190613874565b6108dd9190613860565b600454600554919250906108f0876128ef565b6108f987612983565b6000805b8c51811015610a8057600286828151811061091a5761091a61380b565b602002602001015160088f84815181106109365761093661380b565b60200260200101518154811061094e5761094e61380b565b600091825260209182902060046005909202010154604080516001600160401b03909416928401929092526001600160501b0319600160401b90910460501b16908201526060810184905260800160408051601f19818403018152908290526109b69161388b565b602060405180830381855afa1580156109d3573d6000803e3d6000fd5b5050506040513d601f19601f820116820180604052508101906109f691906138a7565b915060088d8281518110610a0c57610a0c61380b565b602002602001015181548110610a2457610a2461380b565b9060005260206000209060050201600201548c8281518110610a4857610a4861380b565b60200260200101516001600160c01b03161115610a7857604051634323a55560e01b815260040160405180910390fd5b6001016108fd565b50600754604080516001600160a01b038d1660208083019190915242828401524660608301526080820185905260a0808301949094528251808303909401845260c09091019091528151910120885115610c0257600060078a600081518110610aeb57610aeb61380b565b602002602001015181548110610b0357610b0361380b565b60009182526020909120600c9091020180546001600160a01b0319163317815560018082018054929350909160ff191682800217905550600181018054610100600160a81b0319166101006001600160a01b038f160217905580546001600160c01b0316600160c01b4263ffffffff16026001600160e01b0316178155610b8a8486613837565b81600601819055508881600501819055508181600301819055508a81600401819055508d816009019080519060200190610bc5929190612d00565b508c81600a019080519060200190610bde929190612d4b565b50600281018390558651610bfb90600b83019060208a0190612da0565b5050610e5a565b60408051610200810182523381526000602082018190524263ffffffff1692820192909252606081019190915260079060808101600181526020018d6001600160a01b031681526020018481526020018381526020018c81526020018a81526020018587610c709190613837565b8152602001600081526020016000801b81526020018f81526020018e81526020018881525090806001815401808255809150506001900390600052602060002090600c020160009091909190915060008201518160000160006101000a8154816001600160a01b0302191690836001600160a01b0316021790555060208201518160000160146101000a81548163ffffffff021916908363ffffffff16021790555060408201518160000160186101000a81548163ffffffff021916908363ffffffff160217905550606082015181600001601c6101000a81548163ffffffff021916908363ffffffff16021790555060808201518160010160006101000a81548160ff02191690836004811115610d8a57610d8a6131d9565b021790555060a0820151600182018054610100600160a81b0319166101006001600160a01b03909316830217905560c0830151600283015560e08301516003830155820151600482015561012082015160058201556101408201516006820155610160820151600782015561018082015160088201556101a08201518051610e1c916009840191602090910190612d00565b506101c08201518051610e3991600a840191602090910190612d4b565b506101e08201518051610e5691600b840191602090910190612da0565b5050505b60005b8d51811015610ee2578c8181518110610e7857610e7861380b565b60200260200101516001600160c01b031660088f8381518110610e9d57610e9d61380b565b602002602001015181548110610eb557610eb561380b565b90600052602060002090600502016002016000828254610ed591906138c0565b9091555050600101610e5d565b506001600160a01b037f0000000000000000000000000000000000000000000000000000000000000000166323b872dd333086610f1f8a8a613837565b610f299190613837565b6040516001600160e01b031960e086901b1681526001600160a01b03938416600482015292909116602483015260448201526064016020604051808303816000875af1158015610f7d573d6000803e3d6000fd5b505050506040513d601f19601f82011682018060405250810190610fa191906138d3565b5060095460405163a9059cbb60e01b81526001600160a01b039182166004820152602481018790527f00000000000000000000000000000000000000000000000000000000000000009091169063a9059cbb906044016020604051808303816000875af1158015611016573d6000803e3d6000fd5b505050506040513d601f19601f8201168201806040525081019061103a91906138d3565b50337f5956135c9be999a50f7ff4ea49ddf1485bc321ab333dc7a0877633eeb4752893600161106860075490565b61107291906138c0565b60408051918252602082018590520160405180910390a250505050505050505050505050565b6003546001600160a01b031633146110cb5760405162461bcd60e51b81526004016110c2906138f5565b60405180910390fd5b6003805460ff909216600160a81b0260ff60a81b19909216919091179055565b6003546001600160a01b031633146111155760405162461bcd60e51b81526004016110c2906138f5565b600354600160a01b900460ff16156111695760405162461bcd60e51b81526020600482015260176024820152761b995dc819195c1bdcda5d1cc8185c99481c185d5cd959604a1b60448201526064016110c2565b6003805460ff60a01b1916600160a01b179055565b6040805160c081018252600080825260208201819052918101829052606081018290526080810182905260a0810191909152600882815481106111c3576111c361380b565b60009182526020918290206040805160c081018252600590930290910180546001600160a01b03168352600181015493830193909352600283015490820152600382015460608201526004909101546001600160401b03811660808301526001600160501b0319600160401b90910460501b1660a082015292915050565b6003546001600160a01b0316331461126b5760405162461bcd60e51b81526004016110c2906138f5565b600354600160a01b900460ff166112c45760405162461bcd60e51b815260206004820152601b60248201527f6e6577206465706f7369747320617265206e6f7420706175736564000000000060448201526064016110c2565b6003805460ff60a01b19169055565b6000600882815481106112e8576112e861380b565b6000918252602082206001600590920201908101829055600281019190915560040180546001600160f01b03191690555050565b600354600160a01b900460ff16156113705760405162461bcd60e51b81526020600482015260176024820152761b995dc819195c1bdcda5d1cc8185c99481c185d5cd959604a1b60448201526064016110c2565b836001600160401b031660000361139a57604051635c4ad48d60e11b815260040160405180910390fd5b3360009081526006602052604081205490036113e8576040805160006020808301828152838501855283523382526006815292902081518051929391926113e49284920190612d00565b5050505b806000191461147457600081905060006008828154811061140b5761140b61380b565b6000918252602090912060059091020160048101549091506001600160401b0387811691160361145457868160020160008282546114499190613837565b9091555061146d9050565b60405163927ce9e760e01b815260040160405180910390fd5b5050611675565b816000191461151b576000600883815481106114925761149261380b565b9060005260206000209060050201905080600201546000146114c75760405163721e09df60e01b815260040160405180910390fd5b80546001600160a01b031916331781556001810186905560028101869055600060038201556004018054605085901c600160401b026001600160f01b03199091166001600160401b03871617179055611675565b6040805160c081018252338152602081018781529181018781526000606083018181526001600160401b03808a16608086019081526001600160501b03198a1660a08701908152600880546001810182559552955160059094027ff3f7a9fe364faab93b216da50a3214154f22a0a2b415b23a84c8169e8b636ee3810180546001600160a01b03969096166001600160a01b03199096169590951790945595517ff3f7a9fe364faab93b216da50a3214154f22a0a2b415b23a84c8169e8b636ee484015592517ff3f7a9fe364faab93b216da50a3214154f22a0a2b415b23a84c8169e8b636ee5830155517ff3f7a9fe364faab93b216da50a3214154f22a0a2b415b23a84c8169e8b636ee682015592517ff3f7a9fe364faab93b216da50a3214154f22a0a2b415b23a84c8169e8b636ee79093018054925160501c600160401b026001600160f01b031990931693909116929092171790555b336000908152600660205260409020600854611693906001906138c0565b815460018101835560009283526020909220909101556040516323b872dd60e01b8152336004820152306024820152604481018690527f00000000000000000000000000000000000000000000000000000000000000006001600160a01b0316906323b872dd906064015b6020604051808303816000875af115801561171d573d6000803e3d6000fd5b505050506040513d601f19601f8201168201806040525081019061174191906138d3565b505050505050565b33600090815260066020526040902080548591908590811061176d5761176d61380b565b90600052602060002001541461179657604051630e7fea9d60e01b815260040160405180910390fd5b816001600160401b03166000036117c057604051636e5a187760e11b815260040160405180910390fd5b6000600885815481106117d5576117d561380b565b906000526020600020906005020190506117ee82612983565b8060010154816002015414611816576040516391bc6cc360e01b815260040160405180910390fd5b600401805467ffffffffffffffff19166001600160401b039390931692909217909155505050565b6003546001600160a01b031633146118685760405162461bcd60e51b81526004016110c2906138f5565b600980546001600160a01b0319166001600160a01b0392909216919091179055565b6008818154811061189a57600080fd5b6000918252602090912060059091020180546001820154600283015460038401546004909401546001600160a01b039093169450909290916001600160401b03811690600160401b900460501b86565b6000600882815481106118ff576118ff61380b565b9060005260206000209060050201600201549050919050565b6007818154811061192857600080fd5b60009182526020909120600c90910201805460018201546002830154600384015460048501546005860154600687015460078801546008909801546001600160a01b038089169a5063ffffffff600160a01b8a0481169a600160c01b8b0482169a600160e01b90049091169860ff8116986101009091049092169691959194919391928d565b6003546001600160a01b031633146119d85760405162461bcd60e51b81526004016110c2906138f5565b6008548310611a1f5760405162461bcd60e51b8152602060048201526013602482015272092dcecc2d8d2c840e6e8c2e4e840d2dcc8caf606b1b60448201526064016110c2565b611a2881612983565b600854821115611a385760085491505b825b82811015611b2357600060088281548110611a5757611a5761380b565b906000526020600020906005020190506000816002015490506000811115611b195760006002830155815460405163a9059cbb60e01b81526001600160a01b039182166004820152602481018390527f00000000000000000000000000000000000000000000000000000000000000009091169063a9059cbb906044016020604051808303816000875af1158015611af3573d6000803e3d6000fd5b505050506040513d601f19601f82011682018060405250810190611b1791906138d3565b505b5050600101611a3a565b50505050565b600060078281548110611b3e57611b3e61380b565b60009182526020909120600c9091020190506002600182015460ff166004811115611b6b57611b6b6131d9565b14611b895760405163b38c767b60e01b815260040160405180910390fd5b8054600160e01b900463ffffffff16421015611bb857604051632d5c37f560e21b815260040160405180910390fd5b6008810154600782015460009081526020819052604090205403611bef5760405163c1f6fa5160e01b815260040160405180910390fd5b60055460405163a9059cbb60e01b8152336004820152602481018290527f00000000000000000000000000000000000000000000000000000000000000006001600160a01b03169063a9059cbb906044016020604051808303816000875af1158015611c5f573d6000803e3d6000fd5b505050506040513d601f19601f82011682018060405250810190611c8391906138d3565b5080826006016000828254611c98919061391b565b9091555050600682015460001315611ccf578160060154826005016000828254611cc29190613837565b9091555050600060068301555b6001820154600583015460405163a9059cbb60e01b81526101009092046001600160a01b03908116600484015260248301919091527f0000000000000000000000000000000000000000000000000000000000000000169063a9059cbb906044016020604051808303816000875af1158015611d4f573d6000803e3d6000fd5b505050506040513d601f19601f82011682018060405250810190611d7391906138d3565b5060018201805460ff191660039081179091558201546040805185815260208101929092527f12245c00d428a4c558061d2f69fe154a203bd2fb4a65b6c3e73e95ccdc735d18910160405180910390a1505050565b8060078381548110611ddc57611ddc61380b565b90600052602060002090600c020160010160006101000a81548160ff02191690836004811115611e0e57611e0e6131d9565b02179055505050565b606081604051602001611e2a9190613942565b6040516020818303038152906040529050919050565b600060078881548110611e5557611e5561380b565b90600052602060002090600c020190506000805b600a830154811015611f4f576000611eca84600a018381548110611e8f57611e8f61380b565b6000918252602090912001546001600160c01b03167f00000000000000000000000000000000000000000000000000000000000000006128b3565b905060006008856009018481548110611ee557611ee561380b565b906000526020600020015481548110611f0057611f0061380b565b600091825260208220600460059092020101546001600160401b03169150611f288383612a8d565b9050611f348183612aa0565b611f3e9086613837565b94505060019092019150611e699050565b50600061201d6040518061014001604052808b8152602001856002015481526020018560030154815260200185600901805490506001600160401b03168152602001611fb8611f9d8b6124f5565b6001600160401b031660009081526020819052604090205490565b815263ffffffff8b1660208201819052604090910190611fd8908b613a00565b6001600160401b03168152602001611ff08a8a613a00565b6001600160401b031681526020016120078a6124f5565b6001600160401b03168152602001879052611e17565b60405163020a49e360e51b81529091506001600160a01b037f000000000000000000000000000000000000000000000000000000000000000016906341493c6090612090907f00000000000000000000000000000000000000000000000000000000000000009085908990600401613a1f565b60006040518083038186803b1580156120a857600080fd5b505afa1580156120bc573d6000803e3d6000fd5b506120f29250505063ffffffff89166001600160401b03898116908916886120e4848d613a00565b6001600160401b0316612aac565b60018301805460ff1916600217905561210d61025842613a54565b83546001600160e01b0316600160e01b63ffffffff928316021784556001600160401b03881660078501558590600190612149908b168a613a00565b6121539190613a00565b6001600160401b03168151811061216c5761216c61380b565b602090810291909101015160088401556004805460405163a9059cbb60e01b8152339281019290925260248201819052907f00000000000000000000000000000000000000000000000000000000000000006001600160a01b03169063a9059cbb906044016020604051808303816000875af11580156121f0573d6000803e3d6000fd5b505050506040513d601f19601f8201168201806040525081019061221491906138d3565b5061223863ffffffff8a166001600160401b03808b16908a16896120e4848e613a00565b60008460060154121561226a57836006015484600501600082825461225d9190613837565b9091555050600060068501555b600384015460405133917f184abe81dc2f02915b1cd93143dc1987a077040f7de69181dd5eaf9b37bb715c916122a8918f8252602082015260400190565b60405180910390a25050505050505050505050565b6003546001600160a01b031633146122e75760405162461bcd60e51b81526004016110c2906138f5565b600491909155600555565b6040805160208082018352606082526001600160a01b0384166000908152600682528390208351815480840282018601865292810183815293949093919284929184919084018282801561236557602002820191906000526020600020905b815481526020019060010190808311612351575b5050505050815250509050919050565b3360009081526006602052604090208054859190859081106123995761239961380b565b9060005260206000200154146123c257604051630e7fea9d60e01b815260040160405180910390fd5b6123cb81612983565b60085484106123ed5760405163721e09df60e01b815260040160405180910390fd5b6000600885815481106124025761240261380b565b90600052602060002090600502019050826001600160c01b03166000148061243657508060020154836001600160c01b0316115b156124545760405163b4e3d41360e01b815260040160405180910390fd5b826001600160c01b031681600201600082825461247191906138c0565b92505081905550826001600160c01b03168160030160008282546124959190613837565b909155505060405163a9059cbb60e01b81523360048201526001600160c01b03841660248201527f00000000000000000000000000000000000000000000000000000000000000006001600160a01b03169063a9059cbb906044016116fe565b60006125036107e083613a70565b61250d9083613a00565b92915050565b6125a5604080516102008101825260008082526020820181905291810182905260608101829052906080820190815260200160006001600160a01b03168152602001600080191681526020016000801916815260200160008152602001600081526020016000815260200160008152602001600080191681526020016060815260200160608152602001606081525090565b600782815481106125b8576125b861380b565b60009182526020918290206040805161020081018252600c90930290910180546001600160a01b038116845263ffffffff600160a01b8204811695850195909552600160c01b8104851692840192909252600160e01b90910490921660608201526001820154909190608083019060ff16600481111561263a5761263a6131d9565b600481111561264b5761264b6131d9565b81526020016001820160019054906101000a90046001600160a01b03166001600160a01b03166001600160a01b03168152602001600282015481526020016003820154815260200160048201548152602001600582015481526020016006820154815260200160078201548152602001600882015481526020016009820180548060200260200160405190810160405280929190818152602001828054801561271357602002820191906000526020600020905b8154815260200190600101908083116126ff575b50505050508152602001600a820180548060200260200160405190810160405280929190818152602001828054801561277557602002820191906000526020600020905b81546001600160c01b03168152600190910190602001808311612757575b50505050508152602001600b820180548060200260200160405190810160405280929190818152602001828054801561236557602002820191906000526020600020906000905b82829054906101000a90046001600160401b03166001600160401b0316815260200190600801906020826007010492830192600103820291508084116127bc5790505050505050815250509050919050565b60008181526020819052604090205461283a5760405163fa4a5e4560e01b815260040160405180910390fd5b50565b6003546001600160a01b031633146128675760405162461bcd60e51b81526004016110c2906138f5565b600380546001600160a01b0319166001600160a01b03831690811790915560405133907f8be0079c531659141344cd1fd0a4f28419497f9722a3daafe3b4186f6b6457e090600090a350565b600060128260ff1610156128e8576128cc826012613a9e565b6128d790600a613b9e565b6128e19084613874565b905061250d565b5090919050565b60005b815181101561297f5761708063ffffffff1660078383815181106129185761291861380b565b6020026020010151815481106129305761293061380b565b60009182526020909120600c909102015461295890600160c01b900463ffffffff16426138c0565b1015612977576040516326349d6b60e01b815260040160405180910390fd5b6001016128f2565b5050565b60005b815181101561297f57612998826128ef565b600060078383815181106129ae576129ae61380b565b6020026020010151815481106129c6576129c661380b565b90600052602060002090600c0201905060005b6009820154811015612a7657600060088360090183815481106129fe576129fe61380b565b906000526020600020015481548110612a1957612a1961380b565b9060005260206000209060050201905082600a018281548110612a3e57612a3e61380b565b60009182526020822001546002830180546001600160c01b03909216929091612a68908490613837565b9091555050506001016129d9565b506001908101805460ff1916600417905501612986565b6000612a998284613860565b9392505050565b6000612a998284613874565b60015460ff7f000000000000000000000000000000000000000000000000000000000000000016612add86866138c0565b1015612b385760008481526020819052604090205483518490612b02906001906138c0565b81518110612b1257612b1261380b565b602002602001015114612b38576040516341305f6360e01b815260040160405180910390fd5b80861115612b595760405163575f3da360e01b815260040160405180910390fd5b828281518110612b6b57612b6b61380b565b60200260200101516000808781526020019081526020016000205403612b915750612cf9565b60008581526020819052604090205415801590612bb057508360025410155b15612bce576040516371e98f3d60e11b815260040160405180910390fd5b80851115612c7257808603612c1257828281518110612bef57612bef61380b565b602002602001015160008087815260200190815260200160002081905550612cab565b80861015612c6d57855b858111612c6b5783612c2e88836138c0565b81518110612c3e57612c3e61380b565b60209081029190910181015160008381529182905260409091205580612c6381613bad565b915050612c1c565b505b612cab565b80851015612cab57828281518110612c8c57612c8c61380b565b6020026020010151600080878152602001908152602001600020819055505b600154851115612cbb5760018590555b82516040805188815260208101929092527fb68477c768bbb33b4f238a3dfd17c33c499268c59cd042b7936bbc23dc2bdd34910160405180910390a1505b5050505050565b828054828255906000526020600020908101928215612d3b579160200282015b82811115612d3b578251825591602001919060010190612d20565b50612d47929150612e4f565b5090565b828054828255906000526020600020908101928215612d3b579160200282015b82811115612d3b57825182546001600160c01b0319166001600160c01b03909116178255602090920191600190910190612d6b565b82805482825590600052602060002090600301600490048101928215612d3b5791602002820160005b83821115612e1357835183826101000a8154816001600160401b0302191690836001600160401b031602179055509260200192600801602081600701049283019260010302612dc9565b8015612e465782816101000a8154906001600160401b030219169055600801602081600701049283019260010302612e13565b5050612d479291505b5b80821115612d475760008155600101612e50565b634e487b7160e01b600052604160045260246000fd5b60405161014081016001600160401b0381118282101715612e9d57612e9d612e64565b60405290565b604051601f8201601f191681016001600160401b0381118282101715612ecb57612ecb612e64565b604052919050565b60006001600160401b03821115612eec57612eec612e64565b5060051b60200190565b600082601f830112612f0757600080fd5b8135612f1a612f1582612ed3565b612ea3565b8082825260208201915060208360051b860101925085831115612f3c57600080fd5b602085015b83811015612f59578035835260209283019201612f41565b5095945050505050565b80356001600160c01b0381168114612f7a57600080fd5b919050565b6001600160a01b038116811461283a57600080fd5b8035612f7a81612f7f565b600080600080600060a08688031215612fb757600080fd5b85356001600160401b03811115612fcd57600080fd5b612fd988828901612ef6565b95505060208601356001600160401b03811115612ff557600080fd5b8601601f8101881361300657600080fd5b8035613014612f1582612ed3565b8082825260208201915060208360051b85010192508a83111561303657600080fd5b6020840193505b8284101561305f5761304e84612f63565b82526020938401939091019061303d565b96506130719250505060408701612f94565b92506060860135915060808601356001600160401b0381111561309357600080fd5b61309f88828901612ef6565b9150509295509295909350565b6000602082840312156130be57600080fd5b813560ff81168114612a9957600080fd5b6000602082840312156130e157600080fd5b5035919050565b80356001600160401b0381168114612f7a57600080fd5b600080600080600060a0868803121561311757600080fd5b85359450613127602087016130e8565b935060408601356001600160501b03198116811461314457600080fd5b94979396509394606081013594506080013592915050565b6000806000806080858703121561317257600080fd5b8435935060208501359250613189604086016130e8565b915060608501356001600160401b038111156131a457600080fd5b6131b087828801612ef6565b91505092959194509250565b6000602082840312156131ce57600080fd5b8135612a9981612f7f565b634e487b7160e01b600052602160045260246000fd5b6005811061320d57634e487b7160e01b600052602160045260246000fd5b9052565b6001600160a01b038e16815263ffffffff8d811660208301528c811660408301528b1660608201526101a0810161324b608083018c6131ef565b6001600160a01b038a1660a083015260c082019890985260e0810196909652610100860194909452610120850192909252610140840152610160830152610180909101529695505050505050565b6000806000606084860312156132ae57600080fd5b833592506020840135915060408401356001600160401b038111156132d257600080fd5b6132de86828701612ef6565b9150509250925092565b600080604083850312156132fb57600080fd5b8235915060208301356005811061331157600080fd5b809150509250929050565b60006020828403121561332e57600080fd5b81356001600160401b0381111561334457600080fd5b8201610140818503121561335757600080fd5b61335f612e7a565b813581526020808301359082015260408083013590820152613383606083016130e8565b60608201526080828101359082015261339e60a083016130e8565b60a08201526133af60c083016130e8565b60c08201526133c060e083016130e8565b60e08201526133d261010083016130e8565b6101008201526101208201356001600160401b038111156133f257600080fd5b6133fe86828501612ef6565b61012083015250949350505050565b60005b83811015613428578181015183820152602001613410565b50506000910152565b6000815180845261344981602086016020860161340d565b601f01601f19169290920160200192915050565b602081526000612a996020830184613431565b600082601f83011261348157600080fd5b81356001600160401b0381111561349a5761349a612e64565b6134ad601f8201601f1916602001612ea3565b8181528460208386010111156134c257600080fd5b816020850160208301376000918101602001919091529392505050565b600080600080600080600060e0888a0312156134fa57600080fd5b8735965060208801359550604088013563ffffffff8116811461351c57600080fd5b945061352a606089016130e8565b9350613538608089016130e8565b925060a08801356001600160401b0381111561355357600080fd5b61355f8a828b01612ef6565b92505060c08801356001600160401b0381111561357b57600080fd5b6135878a828b01613470565b91505092959891949750929550565b600080604083850312156135a957600080fd5b50508035926020909101359150565b600081518084526020840193506020830160005b828110156135ea5781518652602095860195909101906001016135cc565b5093949350505050565b602081526000825160208084015261360f60408401826135b8565b949350505050565b6000806000806080858703121561362d57600080fd5b843593506020850135925061318960408601612f63565b60006020828403121561365657600080fd5b612a99826130e8565b600081518084526020840193506020830160005b828110156135ea5781516001600160c01b0316865260209586019590910190600101613673565b600081518084526020840193506020830160005b828110156135ea5781516001600160401b03168652602095860195909101906001016136ae565b602081526136ef6020820183516001600160a01b03169052565b60006020830151613708604084018263ffffffff169052565b50604083015163ffffffff8116606084015250606083015163ffffffff8116608084015250608083015161373f60a08401826131ef565b5060a08301516001600160a01b03811660c08401525060c083015160e083015260e08301516101008301526101008301516101208301526101208301516101408301526101408301516101608301526101608301516101808301526101808301516101a08301526101a08301516102006101c08401526137c36102208401826135b8565b90506101c0840151601f19848303016101e08501526137e2828261365f565b9150506101e0840151601f1984830301610200850152613802828261369a565b95945050505050565b634e487b7160e01b600052603260045260246000fd5b634e487b7160e01b600052601160045260246000fd5b8082018082111561250d5761250d613821565b634e487b7160e01b600052601260045260246000fd5b60008261386f5761386f61384a565b500490565b808202811582820484141761250d5761250d613821565b6000825161389d81846020870161340d565b9190910192915050565b6000602082840312156138b957600080fd5b5051919050565b8181038181111561250d5761250d613821565b6000602082840312156138e557600080fd5b81518015158114612a9957600080fd5b6020808252600c908201526b15539055551213d49256915160a21b604082015260600190565b818103600083128015838313168383128216171561393b5761393b613821565b5092915050565b602081528151602082015260208201516040820152604082015160608201526000606083015161397d60808401826001600160401b03169052565b50608083015160a083015260a08301516139a260c08401826001600160401b03169052565b5060c08301516001600160401b03811660e08401525060e08301516001600160401b038116610100840152506101008301516001600160401b038116610120840152506101208301516101408084015261360f6101608401826135b8565b6001600160401b03828116828216039081111561250d5761250d613821565b838152606060208201526000613a386060830185613431565b8281036040840152613a4a8185613431565b9695505050505050565b63ffffffff818116838216019081111561250d5761250d613821565b60006001600160401b03831680613a8957613a8961384a565b806001600160401b0384160691505092915050565b60ff828116828216039081111561250d5761250d613821565b6001815b6001841115613af257808504811115613ad657613ad6613821565b6001841615613ae457908102905b60019390931c928002613abb565b935093915050565b600082613b095750600161250d565b81613b165750600061250d565b8160018114613b2c5760028114613b3657613b52565b600191505061250d565b60ff841115613b4757613b47613821565b50506001821b61250d565b5060208310610133831016604e8410600b8410161715613b75575081810a61250d565b613b826000198484613ab7565b8060001904821115613b9657613b96613821565b029392505050565b6000612a9960ff841683613afa565b600060018201613bbf57613bbf613821565b506001019056fea264697066735822122067b9e7e86c64a928573639073d2e0e4e3adb2a3adddea84fe87e29ea4550eaca64736f6c634300081a0033","linkReferences":{}},"methodIdentifiers":{"CHALLENGE_PERIOD()":"c3a079ed","DEPOSIT_TOKEN()":"13f66587","MAX_DEPOSIT_OUTPUTS()":"9cdb8e5a","MIN_ORDER_GAS_MULTIPLIER()":"5f5d5b6a","PROOF_GAS_COST()":"eb6c7522","RELEASE_GAS_COST()":"9a64279c","RESERVATION_LOCKUP_PERIOD()":"89a11f7a","SAMPLING_SIZE()":"ad062e55","TOKEN_DECIMALS()":"5b7f415c","buildProofPublicInputs((bytes32,bytes32,bytes32,uint64,bytes32,uint64,uint64,uint64,uint64,bytes32[]))":"7e38d04c","calculateRetargetHeight(uint64)":"d34bb7c1","circuitVerificationKey()":"3d7b22b3","currentConfirmationHeight()":"fba78166","currentHeight()":"163de0c5","depositLiquidity(uint256,uint64,bytes22,int256,int256)":"51a7f1cd","depositVaults(uint256)":"5f4d0610","emptyDepositVault(uint256)":"490d4c5f","getBlockHash(uint256)":"ee82ac5e","getDepositVault(uint256)":"276d080e","getDepositVaultUnreservedBalance(uint256)":"6512d057","getDepositVaultsLength()":"7dce5550","getLiquidityProvider(address)":"98f9e757","getReservation(uint256)":"d57763c3","getReservationLength()":"ea6fe03e","isDepositNewLiquidityPaused()":"8cc63cdd","owner()":"8da5cb5b","pauseDepositNewLiquidity()":"130d1392","proposeTransactionProof(uint256,bytes32,uint32,uint64,uint64,bytes32[],bytes)":"8f805ac9","protocolFeeBP()":"c5fba0b8","proverReward()":"6dcc17c8","refundAllLPs(uint256,uint256,uint256[])":"70c60e8f","releaseLiquidity(uint256)":"77891907","releaserReward()":"9cc7eab9","reserveLiquidity(uint256[],uint192[],address,uint256,uint256[])":"0140e183","setSwapReservationState(uint256,uint8)":"7b93291f","swapReservations(uint256)":"6b994abb","transferOwnership(address)":"f2fde38b","unpauseDepositNewLiquidity()":"4491ba54","updateExchangeRate(uint256,uint256,uint64,uint256[])":"56fe6f86","updateProtocolAddress(address)":"58e2b676","updateProtocolFee(uint8)":"0a7aa293","updateRewards(uint256,uint256)":"97e50818","validateBlockExists(uint256)":"ed8b2b32","verifierContract()":"cf695688","withdrawLiquidity(uint256,uint256,uint192,uint256[])":"aeacb2e7"},"storageLayout":{"storage":[{"astId":47836,"contract":"src/RiftExchange.sol:RiftExchange","label":"blockchain","offset":0,"slot":"0","type":"t_mapping(t_uint256,t_bytes32)"},{"astId":47838,"contract":"src/RiftExchange.sol:RiftExchange","label":"currentHeight","offset":0,"slot":"1","type":"t_uint256"},{"astId":47840,"contract":"src/RiftExchange.sol:RiftExchange","label":"currentConfirmationHeight","offset":0,"slot":"2","type":"t_uint256"},{"astId":46637,"contract":"src/RiftExchange.sol:RiftExchange","label":"owner","offset":0,"slot":"3","type":"t_address"},{"astId":48225,"contract":"src/RiftExchange.sol:RiftExchange","label":"isDepositNewLiquidityPaused","offset":20,"slot":"3","type":"t_bool"},{"astId":48236,"contract":"src/RiftExchange.sol:RiftExchange","label":"protocolFeeBP","offset":21,"slot":"3","type":"t_uint8"},{"astId":48238,"contract":"src/RiftExchange.sol:RiftExchange","label":"proverReward","offset":0,"slot":"4","type":"t_uint256"},{"astId":48240,"contract":"src/RiftExchange.sol:RiftExchange","label":"releaserReward","offset":0,"slot":"5","type":"t_uint256"},{"astId":48332,"contract":"src/RiftExchange.sol:RiftExchange","label":"liquidityProviders","offset":0,"slot":"6","type":"t_mapping(t_address,t_struct(LiquidityProvider)48271_storage)"},{"astId":48336,"contract":"src/RiftExchange.sol:RiftExchange","label":"swapReservations","offset":0,"slot":"7","type":"t_array(t_struct(SwapReservation)48327_storage)dyn_storage"},{"astId":48340,"contract":"src/RiftExchange.sol:RiftExchange","label":"depositVaults","offset":0,"slot":"8","type":"t_array(t_struct(DepositVault)48284_storage)dyn_storage"},{"astId":48351,"contract":"src/RiftExchange.sol:RiftExchange","label":"protocolAddress","offset":0,"slot":"9","type":"t_address_payable"}],"types":{"t_address":{"encoding":"inplace","label":"address","numberOfBytes":"20"},"t_address_payable":{"encoding":"inplace","label":"address payable","numberOfBytes":"20"},"t_array(t_struct(DepositVault)48284_storage)dyn_storage":{"encoding":"dynamic_array","label":"struct RiftExchange.DepositVault[]","numberOfBytes":"32","base":"t_struct(DepositVault)48284_storage"},"t_array(t_struct(SwapReservation)48327_storage)dyn_storage":{"encoding":"dynamic_array","label":"struct RiftExchange.SwapReservation[]","numberOfBytes":"32","base":"t_struct(SwapReservation)48327_storage"},"t_array(t_uint192)dyn_storage":{"encoding":"dynamic_array","label":"uint192[]","numberOfBytes":"32","base":"t_uint192"},"t_array(t_uint256)dyn_storage":{"encoding":"dynamic_array","label":"uint256[]","numberOfBytes":"32","base":"t_uint256"},"t_array(t_uint64)dyn_storage":{"encoding":"dynamic_array","label":"uint64[]","numberOfBytes":"32","base":"t_uint64"},"t_bool":{"encoding":"inplace","label":"bool","numberOfBytes":"1"},"t_bytes22":{"encoding":"inplace","label":"bytes22","numberOfBytes":"22"},"t_bytes32":{"encoding":"inplace","label":"bytes32","numberOfBytes":"32"},"t_enum(ReservationState)48290":{"encoding":"inplace","label":"enum RiftExchange.ReservationState","numberOfBytes":"1"},"t_int256":{"encoding":"inplace","label":"int256","numberOfBytes":"32"},"t_mapping(t_address,t_struct(LiquidityProvider)48271_storage)":{"encoding":"mapping","key":"t_address","label":"mapping(address => struct RiftExchange.LiquidityProvider)","numberOfBytes":"32","value":"t_struct(LiquidityProvider)48271_storage"},"t_mapping(t_uint256,t_bytes32)":{"encoding":"mapping","key":"t_uint256","label":"mapping(uint256 => bytes32)","numberOfBytes":"32","value":"t_bytes32"},"t_struct(DepositVault)48284_storage":{"encoding":"inplace","label":"struct RiftExchange.DepositVault","numberOfBytes":"160","members":[{"astId":48273,"contract":"src/RiftExchange.sol:RiftExchange","label":"owner","offset":0,"slot":"0","type":"t_address"},{"astId":48275,"contract":"src/RiftExchange.sol:RiftExchange","label":"initialBalance","offset":0,"slot":"1","type":"t_uint256"},{"astId":48277,"contract":"src/RiftExchange.sol:RiftExchange","label":"unreservedBalance","offset":0,"slot":"2","type":"t_uint256"},{"astId":48279,"contract":"src/RiftExchange.sol:RiftExchange","label":"withdrawnAmount","offset":0,"slot":"3","type":"t_uint256"},{"astId":48281,"contract":"src/RiftExchange.sol:RiftExchange","label":"exchangeRate","offset":0,"slot":"4","type":"t_uint64"},{"astId":48283,"contract":"src/RiftExchange.sol:RiftExchange","label":"btcPayoutLockingScript","offset":8,"slot":"4","type":"t_bytes22"}]},"t_struct(LiquidityProvider)48271_storage":{"encoding":"inplace","label":"struct RiftExchange.LiquidityProvider","numberOfBytes":"32","members":[{"astId":48270,"contract":"src/RiftExchange.sol:RiftExchange","label":"depositVaultIndexes","offset":0,"slot":"0","type":"t_array(t_uint256)dyn_storage"}]},"t_struct(SwapReservation)48327_storage":{"encoding":"inplace","label":"struct RiftExchange.SwapReservation","numberOfBytes":"384","members":[{"astId":48292,"contract":"src/RiftExchange.sol:RiftExchange","label":"owner","offset":0,"slot":"0","type":"t_address"},{"astId":48294,"contract":"src/RiftExchange.sol:RiftExchange","label":"confirmationBlockHeight","offset":20,"slot":"0","type":"t_uint32"},{"astId":48296,"contract":"src/RiftExchange.sol:RiftExchange","label":"reservationTimestamp","offset":24,"slot":"0","type":"t_uint32"},{"astId":48298,"contract":"src/RiftExchange.sol:RiftExchange","label":"unlockTimestamp","offset":28,"slot":"0","type":"t_uint32"},{"astId":48301,"contract":"src/RiftExchange.sol:RiftExchange","label":"state","offset":0,"slot":"1","type":"t_enum(ReservationState)48290"},{"astId":48303,"contract":"src/RiftExchange.sol:RiftExchange","label":"ethPayoutAddress","offset":1,"slot":"1","type":"t_address"},{"astId":48305,"contract":"src/RiftExchange.sol:RiftExchange","label":"lpReservationHash","offset":0,"slot":"2","type":"t_bytes32"},{"astId":48307,"contract":"src/RiftExchange.sol:RiftExchange","label":"nonce","offset":0,"slot":"3","type":"t_bytes32"},{"astId":48309,"contract":"src/RiftExchange.sol:RiftExchange","label":"totalSatsInputInlcudingProxyFee","offset":0,"slot":"4","type":"t_uint256"},{"astId":48311,"contract":"src/RiftExchange.sol:RiftExchange","label":"totalSwapOutputAmount","offset":0,"slot":"5","type":"t_uint256"},{"astId":48313,"contract":"src/RiftExchange.sol:RiftExchange","label":"prepaidFeeAmount","offset":0,"slot":"6","type":"t_int256"},{"astId":48315,"contract":"src/RiftExchange.sol:RiftExchange","label":"proposedBlockHeight","offset":0,"slot":"7","type":"t_uint256"},{"astId":48317,"contract":"src/RiftExchange.sol:RiftExchange","label":"proposedBlockHash","offset":0,"slot":"8","type":"t_bytes32"},{"astId":48320,"contract":"src/RiftExchange.sol:RiftExchange","label":"vaultIndexes","offset":0,"slot":"9","type":"t_array(t_uint256)dyn_storage"},{"astId":48323,"contract":"src/RiftExchange.sol:RiftExchange","label":"amountsToReserve","offset":0,"slot":"10","type":"t_array(t_uint192)dyn_storage"},{"astId":48326,"contract":"src/RiftExchange.sol:RiftExchange","label":"expectedSatsOutput","offset":0,"slot":"11","type":"t_array(t_uint64)dyn_storage"}]},"t_uint192":{"encoding":"inplace","label":"uint192","numberOfBytes":"24"},"t_uint256":{"encoding":"inplace","label":"uint256","numberOfBytes":"32"},"t_uint32":{"encoding":"inplace","label":"uint32","numberOfBytes":"4"},"t_uint64":{"encoding":"inplace","label":"uint64","numberOfBytes":"8"},"t_uint8":{"encoding":"inplace","label":"uint8","numberOfBytes":"1"}}},"id":31}