{"abi":[{"type":"constructor","inputs":[{"name":"initialCheckpointHeight","type":"uint256","internalType":"uint256"},{"name":"initialBlockHash","type":"bytes32","internalType":"bytes32"},{"name":"initialRetargetBlockHash","type":"bytes32","internalType":"bytes32"},{"name":"initialChainwork","type":"uint256","internalType":"uint256"},{"name":"verifierContractAddress","type":"address","internalType":"address"},{"name":"depositTokenAddress","type":"address","internalType":"address"},{"name":"initialFeeRouterAddress","type":"address","internalType":"address"},{"name":"owner","type":"address","internalType":"address"},{"name":"circuitVerificationKey","type":"bytes32","internalType":"bytes32"},{"name":"minimumConfirmationDelta","type":"uint8","internalType":"uint8"}],"stateMutability":"nonpayable"},{"type":"function","name":"BP_SCALE","inputs":[],"outputs":[{"name":"","type":"uint256","internalType":"uint256"}],"stateMutability":"view"},{"type":"function","name":"CHALLENGE_PERIOD","inputs":[],"outputs":[{"name":"","type":"uint32","internalType":"uint32"}],"stateMutability":"view"},{"type":"function","name":"CIRCUIT_VERIFICATION_KEY","inputs":[],"outputs":[{"name":"","type":"bytes32","internalType":"bytes32"}],"stateMutability":"view"},{"type":"function","name":"DEPOSIT_TOKEN","inputs":[],"outputs":[{"name":"","type":"address","internalType":"contract IERC20"}],"stateMutability":"view"},{"type":"function","name":"RESERVATION_LOCKUP_PERIOD","inputs":[],"outputs":[{"name":"","type":"uint32","internalType":"uint32"}],"stateMutability":"view"},{"type":"function","name":"SCALE","inputs":[],"outputs":[{"name":"","type":"uint256","internalType":"uint256"}],"stateMutability":"view"},{"type":"function","name":"TOKEN_DECIMALS","inputs":[],"outputs":[{"name":"","type":"uint8","internalType":"uint8"}],"stateMutability":"view"},{"type":"function","name":"VERIFIER_CONTRACT","inputs":[],"outputs":[{"name":"","type":"address","internalType":"contract ISP1Verifier"}],"stateMutability":"view"},{"type":"function","name":"buildPublicInputs","inputs":[{"name":"swapReservationIndex","type":"uint256","internalType":"uint256"},{"name":"bitcoinTxId","type":"bytes32","internalType":"bytes32"},{"name":"merkleRoot","type":"bytes32","internalType":"bytes32"},{"name":"safeBlockHeight","type":"uint32","internalType":"uint32"},{"name":"proposedBlockHeight","type":"uint64","internalType":"uint64"},{"name":"confirmationBlockHeight","type":"uint64","internalType":"uint64"},{"name":"blockHashes","type":"bytes32[]","internalType":"bytes32[]"},{"name":"blockChainworks","type":"uint256[]","internalType":"uint256[]"},{"name":"isTransactionProof","type":"bool","internalType":"bool"}],"outputs":[{"name":"","type":"tuple","internalType":"struct RiftExchange.ProofPublicInputs","components":[{"name":"natural_txid","type":"bytes32","internalType":"bytes32"},{"name":"merkle_root","type":"bytes32","internalType":"bytes32"},{"name":"lp_reservation_hash","type":"bytes32","internalType":"bytes32"},{"name":"order_nonce","type":"bytes32","internalType":"bytes32"},{"name":"lp_count","type":"uint64","internalType":"uint64"},{"name":"retarget_block_hash","type":"bytes32","internalType":"bytes32"},{"name":"safe_block_height","type":"uint64","internalType":"uint64"},{"name":"safe_block_height_delta","type":"uint64","internalType":"uint64"},{"name":"confirmation_block_height_delta","type":"uint64","internalType":"uint64"},{"name":"block_hashes","type":"bytes32[]","internalType":"bytes32[]"},{"name":"block_chainworks","type":"uint256[]","internalType":"uint256[]"},{"name":"is_transaction_proof","type":"bool","internalType":"bool"}]}],"stateMutability":"view"},{"type":"function","name":"calculateRetargetHeight","inputs":[{"name":"blockHeight","type":"uint256","internalType":"uint256"}],"outputs":[{"name":"","type":"uint256","internalType":"uint256"}],"stateMutability":"pure"},{"type":"function","name":"currentHeight","inputs":[],"outputs":[{"name":"","type":"uint256","internalType":"uint256"}],"stateMutability":"view"},{"type":"function","name":"depositLiquidity","inputs":[{"name":"depositAmount","type":"uint256","internalType":"uint256"},{"name":"exchangeRate","type":"uint64","internalType":"uint64"},{"name":"btcPayoutLockingScript","type":"bytes22","internalType":"bytes22"}],"outputs":[],"stateMutability":"nonpayable"},{"type":"function","name":"depositVaults","inputs":[{"name":"","type":"uint256","internalType":"uint256"}],"outputs":[{"name":"owner","type":"address","internalType":"address"},{"name":"depositTimestamp","type":"uint64","internalType":"uint64"},{"name":"initialBalance","type":"uint256","internalType":"uint256"},{"name":"unreservedBalance","type":"uint256","internalType":"uint256"},{"name":"withdrawnAmount","type":"uint256","internalType":"uint256"},{"name":"exchangeRate","type":"uint64","internalType":"uint64"},{"name":"btcPayoutLockingScript","type":"bytes22","internalType":"bytes22"}],"stateMutability":"view"},{"type":"function","name":"getAreDepositsPaused","inputs":[],"outputs":[{"name":"","type":"bool","internalType":"bool"}],"stateMutability":"view"},{"type":"function","name":"getBlockHash","inputs":[{"name":"blockHeight","type":"uint256","internalType":"uint256"}],"outputs":[{"name":"","type":"bytes32","internalType":"bytes32"}],"stateMutability":"view"},{"type":"function","name":"getChainwork","inputs":[{"name":"blockHeight","type":"uint256","internalType":"uint256"}],"outputs":[{"name":"","type":"uint256","internalType":"uint256"}],"stateMutability":"view"},{"type":"function","name":"getDepositVault","inputs":[{"name":"depositIndex","type":"uint256","internalType":"uint256"}],"outputs":[{"name":"","type":"tuple","internalType":"struct RiftExchange.DepositVault","components":[{"name":"owner","type":"address","internalType":"address"},{"name":"depositTimestamp","type":"uint64","internalType":"uint64"},{"name":"initialBalance","type":"uint256","internalType":"uint256"},{"name":"unreservedBalance","type":"uint256","internalType":"uint256"},{"name":"withdrawnAmount","type":"uint256","internalType":"uint256"},{"name":"exchangeRate","type":"uint64","internalType":"uint64"},{"name":"btcPayoutLockingScript","type":"bytes22","internalType":"bytes22"}]}],"stateMutability":"view"},{"type":"function","name":"getDepositVaultUnreservedBalance","inputs":[{"name":"depositIndex","type":"uint256","internalType":"uint256"}],"outputs":[{"name":"","type":"uint256","internalType":"uint256"}],"stateMutability":"view"},{"type":"function","name":"getDepositVaultsLength","inputs":[],"outputs":[{"name":"","type":"uint256","internalType":"uint256"}],"stateMutability":"view"},{"type":"function","name":"getLiquidityProvider","inputs":[{"name":"lpAddress","type":"address","internalType":"address"}],"outputs":[{"name":"","type":"tuple","internalType":"struct RiftExchange.LiquidityProvider","components":[{"name":"depositVaultIndexes","type":"uint256[]","internalType":"uint256[]"}]}],"stateMutability":"view"},{"type":"function","name":"getReservation","inputs":[{"name":"reservationIndex","type":"uint256","internalType":"uint256"}],"outputs":[{"name":"","type":"tuple","internalType":"struct RiftExchange.SwapReservation","components":[{"name":"owner","type":"address","internalType":"address"},{"name":"confirmationBlockHeight","type":"uint32","internalType":"uint32"},{"name":"reservationTimestamp","type":"uint64","internalType":"uint64"},{"name":"liquidityUnlockedTimestamp","type":"uint64","internalType":"uint64"},{"name":"state","type":"uint8","internalType":"enum RiftExchange.ReservationState"},{"name":"ethPayoutAddress","type":"address","internalType":"address"},{"name":"lpReservationHash","type":"bytes32","internalType":"bytes32"},{"name":"nonce","type":"bytes32","internalType":"bytes32"},{"name":"totalSatsInputIncludingProxyFee","type":"uint256","internalType":"uint256"},{"name":"totalSwapOutputAmount","type":"uint256","internalType":"uint256"},{"name":"proposedBlockHeight","type":"uint256","internalType":"uint256"},{"name":"proposedBlockHash","type":"bytes32","internalType":"bytes32"},{"name":"vaultIndexes","type":"uint256[]","internalType":"uint256[]"},{"name":"amountsToReserve","type":"uint192[]","internalType":"uint192[]"},{"name":"expectedSatsOutput","type":"uint64[]","internalType":"uint64[]"}]}],"stateMutability":"view"},{"type":"function","name":"getReservationLength","inputs":[],"outputs":[{"name":"","type":"uint256","internalType":"uint256"}],"stateMutability":"view"},{"type":"function","name":"isDepositNewLiquidityPaused","inputs":[],"outputs":[{"name":"","type":"bool","internalType":"bool"}],"stateMutability":"view"},{"type":"function","name":"owner","inputs":[],"outputs":[{"name":"","type":"address","internalType":"address"}],"stateMutability":"view"},{"type":"function","name":"protocolFeeBP","inputs":[],"outputs":[{"name":"","type":"uint8","internalType":"uint8"}],"stateMutability":"view"},{"type":"function","name":"proveBlocks","inputs":[{"name":"safeBlockHeight","type":"uint32","internalType":"uint32"},{"name":"proposedBlockHeight","type":"uint64","internalType":"uint64"},{"name":"confirmationBlockHeight","type":"uint64","internalType":"uint64"},{"name":"blockHashes","type":"bytes32[]","internalType":"bytes32[]"},{"name":"blockChainworks","type":"uint256[]","internalType":"uint256[]"},{"name":"proof","type":"bytes","internalType":"bytes"}],"outputs":[],"stateMutability":"nonpayable"},{"type":"function","name":"releaseLiquidity","inputs":[{"name":"swapReservationIndex","type":"uint256","internalType":"uint256"}],"outputs":[],"stateMutability":"nonpayable"},{"type":"function","name":"reserveLiquidity","inputs":[{"name":"reservationOwner","type":"address","internalType":"address"},{"name":"vaultIndexesToReserve","type":"uint256[]","internalType":"uint256[]"},{"name":"amountsToReserve","type":"uint192[]","internalType":"uint192[]"},{"name":"ethPayoutAddress","type":"address","internalType":"address"},{"name":"totalSatsInputIncludingProxyFee","type":"uint256","internalType":"uint256"},{"name":"expiredSwapReservationIndexes","type":"uint256[]","internalType":"uint256[]"}],"outputs":[],"stateMutability":"nonpayable"},{"type":"function","name":"submitSwapProof","inputs":[{"name":"swapReservationIndex","type":"uint256","internalType":"uint256"},{"name":"bitcoinTxId","type":"bytes32","internalType":"bytes32"},{"name":"merkleRoot","type":"bytes32","internalType":"bytes32"},{"name":"safeBlockHeight","type":"uint32","internalType":"uint32"},{"name":"proposedBlockHeight","type":"uint64","internalType":"uint64"},{"name":"confirmationBlockHeight","type":"uint64","internalType":"uint64"},{"name":"blockHashes","type":"bytes32[]","internalType":"bytes32[]"},{"name":"blockChainworks","type":"uint256[]","internalType":"uint256[]"},{"name":"proof","type":"bytes","internalType":"bytes"}],"outputs":[],"stateMutability":"nonpayable"},{"type":"function","name":"swapReservations","inputs":[{"name":"","type":"uint256","internalType":"uint256"}],"outputs":[{"name":"owner","type":"address","internalType":"address"},{"name":"confirmationBlockHeight","type":"uint32","internalType":"uint32"},{"name":"reservationTimestamp","type":"uint64","internalType":"uint64"},{"name":"liquidityUnlockedTimestamp","type":"uint64","internalType":"uint64"},{"name":"state","type":"uint8","internalType":"enum RiftExchange.ReservationState"},{"name":"ethPayoutAddress","type":"address","internalType":"address"},{"name":"lpReservationHash","type":"bytes32","internalType":"bytes32"},{"name":"nonce","type":"bytes32","internalType":"bytes32"},{"name":"totalSatsInputIncludingProxyFee","type":"uint256","internalType":"uint256"},{"name":"totalSwapOutputAmount","type":"uint256","internalType":"uint256"},{"name":"proposedBlockHeight","type":"uint256","internalType":"uint256"},{"name":"proposedBlockHash","type":"bytes32","internalType":"bytes32"}],"stateMutability":"view"},{"type":"function","name":"transferOwnership","inputs":[{"name":"newOwner","type":"address","internalType":"address"}],"outputs":[],"stateMutability":"nonpayable"},{"type":"function","name":"updateExchangeRate","inputs":[{"name":"globalVaultIndex","type":"uint256","internalType":"uint256"},{"name":"newExchangeRate","type":"uint64","internalType":"uint64"},{"name":"expiredSwapReservationIndexes","type":"uint256[]","internalType":"uint256[]"}],"outputs":[],"stateMutability":"nonpayable"},{"type":"function","name":"updateFeeRouter","inputs":[{"name":"newProtocolAddress","type":"address","internalType":"address payable"}],"outputs":[],"stateMutability":"nonpayable"},{"type":"function","name":"updateNewLiquidityDepositsPaused","inputs":[{"name":"newPauseState","type":"bool","internalType":"bool"}],"outputs":[],"stateMutability":"nonpayable"},{"type":"function","name":"updateProtocolFee","inputs":[{"name":"newProtocolFeeBP","type":"uint8","internalType":"uint8"}],"outputs":[],"stateMutability":"nonpayable"},{"type":"function","name":"validateBlockExists","inputs":[{"name":"blockHeight","type":"uint256","internalType":"uint256"}],"outputs":[],"stateMutability":"view"},{"type":"function","name":"withdrawLiquidity","inputs":[{"name":"globalVaultIndex","type":"uint256","internalType":"uint256"},{"name":"amountToWithdraw","type":"uint192","internalType":"uint192"},{"name":"expiredSwapReservationIndexes","type":"uint256[]","internalType":"uint256[]"}],"outputs":[],"stateMutability":"nonpayable"},{"type":"event","name":"BlocksAdded","inputs":[{"name":"startBlockHeight","type":"uint256","indexed":false,"internalType":"uint256"},{"name":"count","type":"uint256","indexed":false,"internalType":"uint256"}],"anonymous":false},{"type":"event","name":"LiquidityDeposited","inputs":[{"name":"depositor","type":"address","indexed":true,"internalType":"address"},{"name":"depositVaultIndex","type":"uint256","indexed":false,"internalType":"uint256"},{"name":"amount","type":"uint256","indexed":false,"internalType":"uint256"},{"name":"exchangeRate","type":"uint64","indexed":false,"internalType":"uint64"}],"anonymous":false},{"type":"event","name":"LiquidityReserved","inputs":[{"name":"reserver","type":"address","indexed":true,"internalType":"address"},{"name":"swapReservationIndex","type":"uint256","indexed":false,"internalType":"uint256"},{"name":"orderNonce","type":"bytes32","indexed":false,"internalType":"bytes32"}],"anonymous":false},{"type":"event","name":"OwnershipTransferred","inputs":[{"name":"user","type":"address","indexed":true,"internalType":"address"},{"name":"newOwner","type":"address","indexed":true,"internalType":"address"}],"anonymous":false},{"type":"event","name":"ProofSubmitted","inputs":[{"name":"prover","type":"address","indexed":true,"internalType":"address"},{"name":"swapReservationIndex","type":"uint256","indexed":false,"internalType":"uint256"},{"name":"orderNonce","type":"bytes32","indexed":false,"internalType":"bytes32"}],"anonymous":false},{"type":"event","name":"SwapComplete","inputs":[{"name":"swapReservationIndex","type":"uint256","indexed":false,"internalType":"uint256"},{"name":"orderNonce","type":"bytes32","indexed":false,"internalType":"bytes32"}],"anonymous":false},{"type":"error","name":"AmountToReserveTooLow","inputs":[{"name":"index","type":"uint256","internalType":"uint256"}]},{"type":"error","name":"BlockArraysMismatch","inputs":[]},{"type":"error","name":"BlockDoesNotExist","inputs":[]},{"type":"error","name":"InvalidBlockHeights","inputs":[]},{"type":"error","name":"InvalidChainwork","inputs":[]},{"type":"error","name":"InvalidConfirmationBlock","inputs":[]},{"type":"error","name":"InvalidExchangeRate","inputs":[]},{"type":"error","name":"InvalidInputArrays","inputs":[]},{"type":"error","name":"InvalidReservationState","inputs":[]},{"type":"error","name":"InvalidSafeBlock","inputs":[]},{"type":"error","name":"NewDepositsPaused","inputs":[]},{"type":"error","name":"NotEnoughLiquidity","inputs":[]},{"type":"error","name":"NotVaultOwner","inputs":[]},{"type":"error","name":"OverwrittenProposedBlock","inputs":[]},{"type":"error","name":"ReservationNotExpired","inputs":[]},{"type":"error","name":"ReservationNotProved","inputs":[]},{"type":"error","name":"StillInChallengePeriod","inputs":[]},{"type":"error","name":"UpdateExchangeRateError","inputs":[]},{"type":"error","name":"WithdrawalAmountError","inputs":[]}],"bytecode":{"object":"0x6101206040526003805461ffff60a01b1916600560a91b179055348015610024575f80fd5b50604051613bd0380380613bd0833981016040819052610043916101df565b60028a90555f8a81526001602090815260408083208a90559082905281208a905583908b9089908c908c90869082908061007c88610197565b8152602081019190915260409081015f9081209290925560ff909216608052600380546001600160a01b0389166001600160a01b03199091168117909155915191955093507f8be0079c531659141344cd1fd0a4f28419497f9722a3daafe3b4186f6b6457e09250839150a35060e08290526001600160a01b0380871661010052851660a08190526040805163313ce56760e01b8152905163313ce567916004808201926020929091908290030181865afa15801561013d573d5f803e3d5ffd5b505050506040513d601f19601f820116820180604052508101906101619190610273565b60ff1660c0525050600480546001600160a01b0319166001600160a01b039390931692909217909155506102d195505050505050565b5f6101a46107e083610293565b6101ae90836102b2565b92915050565b80516001600160a01b03811681146101ca575f80fd5b919050565b805160ff811681146101ca575f80fd5b5f805f805f805f805f806101408b8d0312156101f9575f80fd5b8a5160208c015160408d015160608e0151929c50909a509850965061022060808c016101b4565b955061022e60a08c016101b4565b945061023c60c08c016101b4565b935061024a60e08c016101b4565b6101008c015190935091506102626101208c016101cf565b90509295989b9194979a5092959850565b5f60208284031215610283575f80fd5b61028c826101cf565b9392505050565b5f826102ad57634e487b7160e01b5f52601260045260245ffd5b500690565b818103818111156101ae57634e487b7160e01b5f52601160045260245ffd5b60805160a05160c05160e0516101005161388361034d5f395f818161052c0152818161207801526121dd01525f81816104ad015281816120a5015261220a01525f81816103390152611a9201525f818161023c01528181610df201528181610e61015281816111f2015261146c01525f61267e01526138835ff3fe608060405234801561000f575f80fd5b506004361061021e575f3560e01c806398f9e7571161012a578063d57763c3116100b4578063ecdea06f11610079578063ecdea06f14610614578063eced552614610627578063ed8b2b3214610636578063ee82ac5e14610649578063f2fde38b14610668575f80fd5b8063d57763c3146105bd578063d8418403146105dd578063d8b4cf4e146105f0578063e102f9c1146105f9578063ea6fe03e1461060c575f80fd5b8063b9b2a982116100fa578063b9b2a9821461054e578063c3a079ed14610561578063c5fba0b81461056a578063c7785af01461057e578063cda7d82c1461059e575f80fd5b806398f9e757146104e2578063a3db99d914610502578063b01c27d114610515578063b8b2459214610527575f80fd5b806373e149e6116101ab578063803d5f621161017b578063803d5f621461045357806389a11f7a146104665780638cc63cdd146104845780638d5ca052146104a85780638da5cb5b146104cf575f80fd5b806373e149e61461041257806377891907146104255780637a9059a2146104385780637dce55501461044b575f80fd5b8063505675dd116101f1578063505675dd146103215780635b7f415c146103345780635f4d06101461036d5780636512d057146103d45780636b994abb146103e7575f80fd5b80630a7aa2931461022257806313f6658714610237578063163de0c51461027b578063276d080e14610292575b5f80fd5b610235610230366004612b03565b61067b565b005b61025e7f000000000000000000000000000000000000000000000000000000000000000081565b6040516001600160a01b0390911681526020015b60405180910390f35b61028460025481565b604051908152602001610272565b6102a56102a0366004612b2a565b6106ce565b60405161027291905f60e08201905060018060a01b0383511682526001600160401b0360208401511660208301526040830151604083015260608301516060830152608083015160808301526001600160401b0360a08401511660a083015269ffffffffffffffffffff1960c08401511660c083015292915050565b61023561032f366004612c2c565b6107a9565b61035b7f000000000000000000000000000000000000000000000000000000000000000081565b60405160ff9091168152602001610272565b61038061037b366004612b2a565b610a95565b604080516001600160a01b0390981688526001600160401b039687166020890152870194909452606086019290925260808501529190911660a08301526001600160501b03191660c082015260e001610272565b6102846103e2366004612b2a565b610afe565b6103fa6103f5366004612b2a565b610b29565b6040516102729c9b9a99989796959493929190612cb2565b610235610420366004612d4d565b610bbe565b610235610433366004612b2a565b610c0a565b610235610446366004612d75565b610f67565b600554610284565b610235610461366004612d90565b610faf565b61046f61384081565b60405163ffffffff9091168152602001610272565b60035461049890600160a01b900460ff1681565b6040519015158152602001610272565b6102847f000000000000000000000000000000000000000000000000000000000000000081565b60035461025e906001600160a01b031681565b6104f56104f0366004612d4d565b6112c4565b6040516102729190612e1e565b610235610510366004612e56565b611344565b600354600160a01b900460ff16610498565b61025e7f000000000000000000000000000000000000000000000000000000000000000081565b61028461055c366004612b2a565b6114de565b61046f61012c81565b60035461035b90600160a81b900460ff1681565b61059161058c366004612e8b565b6114fb565b6040516102729190612f4e565b6102846105ac366004612b2a565b5f9081526001602052604090205490565b6105d06105cb366004612b2a565b611638565b60405161027291906130b3565b6102356105eb3660046131d9565b611910565b61028461271081565b6102356106073660046132ee565b61202f565b600654610284565b610235610622366004613449565b61212f565b610284670de0b6b3a764000081565b610235610644366004612b2a565b612356565b610284610657366004612b2a565b5f9081526020819052604090205490565b610235610676366004612d4d565b612384565b6003546001600160a01b031633146106ae5760405162461bcd60e51b81526004016106a590613521565b60405180910390fd5b6003805460ff909216600160a81b0260ff60a81b19909216919091179055565b6040805160e0810182525f80825260208201819052918101829052606081018290526080810182905260a0810182905260c08101919091526005828154811061071957610719613547565b5f9182526020918290206040805160e08101825260059390930290910180546001600160a01b0381168452600160a01b90046001600160401b039081169484019490945260018101549183019190915260028101546060830152600381015460808301526004015491821660a0820152600160401b90910460501b6001600160501b03191660c082015292915050565b336001600160a01b0316600584815481106107c6576107c6613547565b5f9182526020909120600590910201546001600160a01b0316146107fd57604051630e7fea9d60e01b815260040160405180910390fd5b816001600160401b03165f036108265760405163a2ec3a5560e01b815260040160405180910390fd5b5f6005848154811061083a5761083a613547565b905f5260205f20906005020190505f81600201549050610859836123f9565b816001015481036108875760048201805467ffffffffffffffff19166001600160401b038616179055610a8e565b805f036108a757604051632b5daf8960e01b815260040160405180910390fd5b6040805160e08101825283546001600160a01b0390811682526001600160401b0342811660208401908152938301858152606084018681525f608086018181528b851660a0880190815260048b01546001600160501b0319600160401b91829004605090811b9190911660c08b01908152600580546001810182558188529b519b027f036b6384b5eca791c62761152d0c79bb0604c104a5fb6f4eb0703f3154bb3db0810180549d518b16600160a01b026001600160e01b0319909e169c909b169b909b179b909b1790985594517f036b6384b5eca791c62761152d0c79bb0604c104a5fb6f4eb0703f3154bb3db189015592517f036b6384b5eca791c62761152d0c79bb0604c104a5fb6f4eb0703f3154bb3db2880155517f036b6384b5eca791c62761152d0c79bb0604c104a5fb6f4eb0703f3154bb3db387015590517f036b6384b5eca791c62761152d0c79bb0604c104a5fb6f4eb0703f3154bb3db49095018054965190941c9091026001600160f01b0319909516939091169290921792909217909155600383018054839290610a4390849061356f565b90915550505f6002830155600554610a8e903390610a6390600190613582565b6001600160a01b039091165f9081526007602090815260408220805460018101825590835291200155565b5050505050565b60058181548110610aa4575f80fd5b5f918252602090912060059091020180546001820154600283015460038401546004909401546001600160a01b03841695506001600160401b03600160a01b9094048416949293919291811690600160401b900460501b87565b5f60058281548110610b1257610b12613547565b905f5260205f209060050201600201549050919050565b60068181548110610b38575f80fd5b5f9182526020909120600b9091020180546001820154600283015460038401546004850154600586015460068701546007909701546001600160a01b03808816995063ffffffff600160a01b890416986001600160401b03600160c01b90990489169888169760ff600160401b82041697600160481b909104909216959194919391928c565b6003546001600160a01b03163314610be85760405162461bcd60e51b81526004016106a590613521565b600480546001600160a01b0319166001600160a01b0392909216919091179055565b5f60068281548110610c1e57610c1e613547565b5f9182526020909120600b90910201905060026001820154600160401b900460ff166004811115610c5157610c51612c7e565b14610c6f576040516320d55f6760e21b815260040160405180910390fd5b60018101546001600160401b0316421015610c9d57604051632d5c37f560e21b815260040160405180910390fd5b610cdb6040518060400160405280601881526020017f70726f706f736564426c6f636b486173682061637475616c0000000000000000815250612507565b610cfc610cf782600601545f9081526020819052604090205490565b61254a565b610d3a6040518060400160405280601a81526020017f70726f706f736564426c6f636b48617368206578706563746564000000000000815250612507565b610d47816007015461254a565b600781015460068201545f9081526020819052604090205414610d7d5760405163c1f6fa5160e01b815260040160405180910390fd5b60018101805460ff60401b19166803000000000000000017905560035460058201545f9161271091610db991600160a81b900460ff1690613595565b610dc391906135c0565b6004805460405163a9059cbb60e01b81526001600160a01b0391821692810192909252602482018390529192507f00000000000000000000000000000000000000000000000000000000000000009091169063a9059cbb906044016020604051808303815f875af1158015610e3a573d5f803e3d5ffd5b505050506040513d601f19601f82011682018060405250810190610e5e91906135d3565b507f00000000000000000000000000000000000000000000000000000000000000006001600160a01b031663a9059cbb8360010160099054906101000a90046001600160a01b0316838560050154610eb69190613582565b6040516001600160e01b031960e085901b1681526001600160a01b03909216600483015260248201526044016020604051808303815f875af1158015610efe573d5f803e3d5ffd5b505050506040513d601f19601f82011682018060405250810190610f2291906135d3565b5060038201546040805185815260208101929092527f12245c00d428a4c558061d2f69fe154a203bd2fb4a65b6c3e73e95ccdc735d18910160405180910390a1505050565b6003546001600160a01b03163314610f915760405162461bcd60e51b81526004016106a590613521565b60038054911515600160a01b0260ff60a01b19909216919091179055565b600354600160a01b900460ff1615610fda576040516348010c6560e11b815260040160405180910390fd5b816001600160401b03165f036110035760405163a2ec3a5560e01b815260040160405180910390fd5b335f90815260076020526040812054900361104f57604080515f60208083018281528385018552835233825260078152929020815180519293919261104b92849201906129a7565b5050505b6040805160e081018252338082526001600160401b0342811660208401908152938301878152606084018881525f6080860181815289851660a088019081526001600160501b03198a1660c0890190815260058054600181810183559582905299519981027f036b6384b5eca791c62761152d0c79bb0604c104a5fb6f4eb0703f3154bb3db0810180549c518a16600160a01b026001600160e01b0319909d166001600160a01b039c909c169b909b179b909b1790995594517f036b6384b5eca791c62761152d0c79bb0604c104a5fb6f4eb0703f3154bb3db18a015592517f036b6384b5eca791c62761152d0c79bb0604c104a5fb6f4eb0703f3154bb3db2890155517f036b6384b5eca791c62761152d0c79bb0604c104a5fb6f4eb0703f3154bb3db388015590517f036b6384b5eca791c62761152d0c79bb0604c104a5fb6f4eb0703f3154bb3db49096018054925160501c600160401b026001600160f01b0319909316969093169590951717905590546111d092610a6391613582565b6040516323b872dd60e01b8152336004820152306024820152604481018490527f00000000000000000000000000000000000000000000000000000000000000006001600160a01b0316906323b872dd906064016020604051808303815f875af1158015611240573d5f803e3d5ffd5b505050506040513d601f19601f8201168201806040525081019061126491906135d3565b5060055433907ffd5ab8914e1dca355d18ae7fe50627d3afe042f323e1b0ae31f3a9d2cd19de379061129890600190613582565b60408051918252602082018790526001600160401b0386169082015260600160405180910390a2505050565b6040805160208082018352606082526001600160a01b0384165f908152600782528390208351815480840282018601865292810183815293949093919284929184919084018282801561133457602002820191905f5260205f20905b815481526020019060010190808311611320575b5050505050815250509050919050565b336001600160a01b03166005848154811061136157611361613547565b5f9182526020909120600590910201546001600160a01b03161461139857604051630e7fea9d60e01b815260040160405180910390fd5b6113a1816123f9565b5f600584815481106113b5576113b5613547565b905f5260205f2090600502019050826001600160c01b03165f14806113e657508060020154836001600160c01b0316115b156114045760405163b4e3d41360e01b815260040160405180910390fd5b826001600160c01b0316816002015f8282546114209190613582565b92505081905550826001600160c01b0316816003015f828254611443919061356f565b909155505060405163a9059cbb60e01b81523360048201526001600160c01b03841660248201527f00000000000000000000000000000000000000000000000000000000000000006001600160a01b03169063a9059cbb906044016020604051808303815f875af11580156114ba573d5f803e3d5ffd5b505050506040513d601f19601f82011682018060405250810190610a8e91906135d3565b5f6114eb6107e0836135ee565b6114f59083613582565b92915050565b60408051610180810182525f8082526020820181905291810182905260608082018390526080820183905260a0820183905260c0820183905260e08201839052610100820183905261012082018190526101408201526101608101919091525f60068b8154811061156e5761156e613547565b905f5260205f2090600b020190506040518061018001604052808b81526020018a8152602001826002015481526020018260030154815260200182600801805490506001600160401b031681526020016115d06106578b63ffffffff166114de565b815263ffffffff8a16602082018190526040909101906115f0908a613601565b6001600160401b031681526020016116088989613601565b6001600160401b031681526020018681526020018581526020018415158152509150509998505050505050505050565b604080516101e0810182525f8082526020820181905291810182905260608082018390526080820183905260a0820183905260c0820183905260e0820183905261010082018390526101208201839052610140820183905261016082019290925261018081018290526101a081018290526101c0810191909152600682815481106116c5576116c5613547565b5f918252602091829020604080516101e081018252600b90930290910180546001600160a01b038116845263ffffffff600160a01b820416948401949094526001600160401b03600160c01b909404841691830191909152600181015492831660608301529091608083019060ff600160401b90910416600481111561174d5761174d612c7e565b600481111561175e5761175e612c7e565b81526020016001820160099054906101000a90046001600160a01b03166001600160a01b03166001600160a01b031681526020016002820154815260200160038201548152602001600482015481526020016005820154815260200160068201548152602001600782015481526020016008820180548060200260200160405190810160405280929190818152602001828054801561181a57602002820191905f5260205f20905b815481526020019060010190808311611806575b505050505081526020016009820180548060200260200160405190810160405280929190818152602001828054801561187a57602002820191905f5260205f20905b81546001600160c01b0316815260019091019060200180831161185c575b50505050508152602001600a820180548060200260200160405190810160405280929190818152602001828054801561133457602002820191905f5260205f20905f905b82829054906101000a90046001600160401b03166001600160401b0316815260200190600801906020826007010492830192600103820291508084116118be5790505050505050815250509050919050565b8451158061192057508351855114155b1561193e5760405163744bba7b60e01b815260040160405180910390fd5b5f5b84518110156119965784818151811061195b5761195b613547565b60200260200101516001600160c01b03165f0361198e57604051633143436b60e11b8152600481018290526024016106a5565b600101611940565b505f805f87516001600160401b038111156119b3576119b3612b5c565b6040519080825280602002602001820160405280156119dc578160200160208202803683370190505b5090505f5b8751811015611b08575f60058a83815181106119ff576119ff613547565b602002602001015181548110611a1757611a17613547565b5f91825260209091206004600590920201015489516001600160401b039091169150899083908110611a4b57611a4b613547565b60200260200101516001600160c01b031685611a67919061356f565b94505f611ab68a8481518110611a7f57611a7f613547565b60200260200101516001600160c01b03167f000000000000000000000000000000000000000000000000000000000000000061258f565b90505f611ac383836135c0565b9050611acf818761356f565b955080858581518110611ae457611ae4613547565b6001600160401b0392909216602092830291909101909101525050506001016119e1565b50611b12846123f9565b5f805b8951811015611c93576002838281518110611b3257611b32613547565b602002602001015160058c8481518110611b4e57611b4e613547565b602002602001015181548110611b6657611b66613547565b5f91825260209182902060046005909202010154604080516001600160401b03909416928401929092526001600160501b0319600160401b90910460501b16908201526060810184905260800160408051601f1981840301815290829052611bcd91613620565b602060405180830381855afa158015611be8573d5f803e3d5ffd5b5050506040513d601f19601f82011682018060405250810190611c0b9190613636565b915060058a8281518110611c2157611c21613547565b602002602001015181548110611c3957611c39613547565b905f5260205f20906005020160020154898281518110611c5b57611c5b613547565b60200260200101516001600160c01b03161115611c8b57604051634323a55560e01b815260040160405180910390fd5b600101611b15565b50600654604080516001600160a01b038a16602082015242918101919091524660608201526080810183905260a08101919091525f9060c00160408051601f1981840301815282825280516020918201206101e0840183526001600160a01b038f1684525f9184018290526001600160401b034216928401929092526060830152915060069060808101600181526020018a6001600160a01b031681526020018481526020018381526020018981526020018781526020015f81526020015f801b81526020018c81526020018b815260200185815250908060018154018082558091505060019003905f5260205f2090600b02015f909190919091505f820151815f015f6101000a8154816001600160a01b0302191690836001600160a01b031602179055506020820151815f0160146101000a81548163ffffffff021916908363ffffffff1602179055506040820151815f0160186101000a8154816001600160401b0302191690836001600160401b031602179055506060820151816001015f6101000a8154816001600160401b0302191690836001600160401b0316021790555060808201518160010160086101000a81548160ff02191690836004811115611e6157611e61612c7e565b021790555060a08201516001820180546001600160a01b03909216600160481b027fffffff0000000000000000000000000000000000000000ffffffffffffffffff90921691909117905560c0820151600282015560e0820151600382015561010082015160048201556101208201516005820155610140820151600682015561016082015160078201556101808201518051611f089160088401916020909101906129a7565b506101a08201518051611f259160098401916020909101906129f0565b506101c08201518051611f4291600a840191602090910190612a43565b5050505f5b8a51811015611fc957898181518110611f6257611f62613547565b60200260200101516001600160c01b031660058c8381518110611f8757611f87613547565b602002602001015181548110611f9f57611f9f613547565b905f5260205f2090600502016002015f828254611fbc9190613582565b9091555050600101611f47565b508a6001600160a01b03167f5956135c9be999a50f7ff4ea49ddf1485bc321ab333dc7a0877633eeb4752893600161200060065490565b61200a9190613582565b6040805191825260208201859052015b60405180910390a25050505050505050505050565b5f6120418180808b8b8b8b8b856114fb565b6040516020016120519190612f4e565b60408051601f198184030181529082905263020a49e360e51b825291506001600160a01b037f000000000000000000000000000000000000000000000000000000000000000016906341493c60906120d3907f00000000000000000000000000000000000000000000000000000000000000009085908890889060040161367b565b5f6040518083038186803b1580156120e9575f80fd5b505afa1580156120fb573d5f803e3d5ffd5b505050506121248863ffffffff16886001600160401b0316886001600160401b031688886125ca565b505050505050505050565b5f60068a8154811061214357612143613547565b5f9182526020909120600b909102019050600180820154600160401b900460ff16600481111561217557612175612c7e565b1461219357604051639085371960e01b815260040160405180910390fd5b5f6121a68b8b8b8b8b8b8b8b60016114fb565b6040516020016121b69190612f4e565b60408051601f198184030181529082905263020a49e360e51b825291506001600160a01b037f000000000000000000000000000000000000000000000000000000000000000016906341493c6090612236907f000000000000000000000000000000000000000000000000000000000000000090859088906004016136c6565b5f6040518083038186803b15801561224c575f80fd5b505afa15801561225e573d5f803e3d5ffd5b505050506122878863ffffffff16886001600160401b0316886001600160401b031688886125ca565b5060018201805460ff60401b1916680200000000000000001790556122ae61012c426136fa565b60018301805467ffffffffffffffff19166001600160401b0392831617905587166006830155846122e563ffffffff8a1689613601565b6001600160401b0316815181106122fe576122fe613547565b60200260200101518260070181905550336001600160a01b03167f8bcdab581a6176f792fa96b0c57d32273bcd8621b0548c15a9c6379dc246e26c8c846003015460405161201a929190918252602082015260400190565b5f818152602081905260409020546123815760405163fa4a5e4560e01b815260040160405180910390fd5b50565b6003546001600160a01b031633146123ae5760405162461bcd60e51b81526004016106a590613521565b600380546001600160a01b0319166001600160a01b03831690811790915560405133907f8be0079c531659141344cd1fd0a4f28419497f9722a3daafe3b4186f6b6457e0905f90a350565b61240281612891565b5f5b8151811015612503575f600683838151811061242257612422613547565b60200260200101518154811061243a5761243a613547565b905f5260205f2090600b020190505f5b60088201548110156124e1575f600583600801838154811061246e5761246e613547565b905f5260205f2001548154811061248757612487613547565b905f5260205f20906005020190508260090182815481106124aa576124aa613547565b5f9182526020822001546002830180546001600160c01b039092169290916124d390849061356f565b90915550505060010161244a565b506001908101805460ff60401b19166804000000000000000017905501612404565b5050565b6123818160405160240161251b9190613719565b60408051601f198184030181529190526020810180516001600160e01b031663104c13eb60e21b179052612987565b6123818160405160240161256091815260200190565b60408051601f198184030181529190526020810180516001600160e01b03166327b7cf8560e01b179052612987565b5f60128260ff1610156125c3576125a782601261372b565b6125b290600a613827565b6125bc9084613595565b90506114f5565b5090919050565b6002545f8181526001602052604081205490919086881015806125ed5750858710155b1561260b5760405163f198a75d60e01b815260040160405180910390fd5b5f888152602081905260409020546126365760405163575f3da360e01b815260040160405180910390fd5b8351855114158061265c575061264c8887613582565b61265790600161356f565b855114155b1561267a5760405163d4d34e9960e01b815260040160405180910390fd5b60ff7f0000000000000000000000000000000000000000000000000000000000000000166126a88888613582565b10156126c7576040516341305f6360e01b815260040160405180910390fd5b5f600186516126d69190613582565b90505f6126e38a8a613582565b90508681815181106126f7576126f7613547565b60200260200101515f808b81526020019081526020015f205403612721575f945050505050612888565b8286838151811061273457612734613547565b6020026020010151111561286f575f61274e8b600161356f565b90505b8881116127d557876127638c83613582565b8151811061277357612773613547565b6020908102919091018101515f83815291829052604090912055866127988c83613582565b815181106127a8576127a8613547565b6020908102919091018101515f8381526001909252604090912055806127cd81613835565b915050612751565b5083881015612821575f6127ea89600161356f565b90505b84811161281f575f8181526020818152604080832083905560019091528120558061281781613835565b9150506127ed565b505b60028890558651604080518c815260208101929092527fb68477c768bbb33b4f238a3dfd17c33c499268c59cd042b7936bbc23dc2bdd34910160405180910390a16001945050505050612888565b604051631f17929160e21b815260040160405180910390fd5b95945050505050565b5f5b81518110156125035761384063ffffffff1660068383815181106128b9576128b9613547565b6020026020010151815481106128d1576128d1613547565b5f9182526020909120600b90910201546128fb90600160c01b90046001600160401b031642613582565b108061296157506001600683838151811061291857612918613547565b60200260200101518154811061293057612930613547565b905f5260205f2090600b020160010160089054906101000a900460ff16600481111561295e5761295e612c7e565b14155b1561297f576040516326349d6b60e01b815260040160405180910390fd5b600101612893565b80516a636f6e736f6c652e6c6f67602083015f808483855afa5050505050565b828054828255905f5260205f209081019282156129e0579160200282015b828111156129e05782518255916020019190600101906129c5565b506129ec929150612aef565b5090565b828054828255905f5260205f209081019282156129e0579160200282015b828111156129e057825182546001600160c01b0319166001600160c01b03909116178255602090920191600190910190612a0e565b828054828255905f5260205f20906003016004900481019282156129e0579160200282015f5b83821115612ab357835183826101000a8154816001600160401b0302191690836001600160401b031602179055509260200192600801602081600701049283019260010302612a69565b8015612ae65782816101000a8154906001600160401b030219169055600801602081600701049283019260010302612ab3565b50506129ec9291505b5b808211156129ec575f8155600101612af0565b5f60208284031215612b13575f80fd5b813560ff81168114612b23575f80fd5b9392505050565b5f60208284031215612b3a575f80fd5b5035919050565b80356001600160401b0381168114612b57575f80fd5b919050565b634e487b7160e01b5f52604160045260245ffd5b604051601f8201601f191681016001600160401b0381118282101715612b9857612b98612b5c565b604052919050565b5f6001600160401b03821115612bb857612bb8612b5c565b5060051b60200190565b5f82601f830112612bd1575f80fd5b8135612be4612bdf82612ba0565b612b70565b8082825260208201915060208360051b860101925085831115612c05575f80fd5b602085015b83811015612c22578035835260209283019201612c0a565b5095945050505050565b5f805f60608486031215612c3e575f80fd5b83359250612c4e60208501612b41565b915060408401356001600160401b03811115612c68575f80fd5b612c7486828701612bc2565b9150509250925092565b634e487b7160e01b5f52602160045260245ffd5b60058110612cae57634e487b7160e01b5f52602160045260245ffd5b9052565b6001600160a01b038d16815263ffffffff8c1660208201526001600160401b038b811660408301528a1660608201526101808101612cf3608083018b612c92565b6001600160a01b039890981660a082015260c081019690965260e08601949094526101008501929092526101208401526101408301526101609091015295945050505050565b6001600160a01b0381168114612381575f80fd5b5f60208284031215612d5d575f80fd5b8135612b2381612d39565b8015158114612381575f80fd5b5f60208284031215612d85575f80fd5b8135612b2381612d68565b5f805f60608486031215612da2575f80fd5b83359250612db260208501612b41565b915060408401356001600160501b031981168114612dce575f80fd5b809150509250925092565b8035612b5781612d39565b5f8151808452602084019350602083015f5b82811015612e14578151865260209586019590910190600101612df6565b5093949350505050565b602081525f8251602080840152612e386040840182612de4565b949350505050565b80356001600160c01b0381168114612b57575f80fd5b5f805f60608486031215612e68575f80fd5b83359250612c4e60208501612e40565b803563ffffffff81168114612b57575f80fd5b5f805f805f805f805f6101208a8c031215612ea4575f80fd5b8935985060208a0135975060408a01359650612ec260608b01612e78565b9550612ed060808b01612b41565b9450612ede60a08b01612b41565b935060c08a01356001600160401b03811115612ef8575f80fd5b612f048c828d01612bc2565b93505060e08a01356001600160401b03811115612f1f575f80fd5b612f2b8c828d01612bc2565b9250506101008a0135612f3d81612d68565b809150509295985092959850929598565b60208152815160208201526020820151604082015260408201516060820152606082015160808201525f6080830151612f9260a08401826001600160401b03169052565b5060a083015160c083015260c0830151612fb760e08401826001600160401b03169052565b5060e08301516001600160401b038116610100840152506101008301516001600160401b038116610120840152506101208301516101806101408401526130026101a0840182612de4565b9050610140840151601f19848303016101608501526130218282612de4565b91505061016084015161303961018085018215159052565b509392505050565b5f8151808452602084019350602083015f5b82811015612e145781516001600160c01b0316865260209586019590910190600101613053565b5f8151808452602084019350602083015f5b82811015612e145781516001600160401b031686526020958601959091019060010161308c565b602081526130cd6020820183516001600160a01b03169052565b5f60208301516130e5604084018263ffffffff169052565b5060408301516001600160401b03811660608401525060608301516001600160401b038116608084015250608083015161312260a0840182612c92565b5060a08301516001600160a01b03811660c08401525060c083015160e083015260e08301516101008301526101008301516101208301526101208301516101408301526101408301516101608301526101608301516101808301526101808301516101e06101a084015261319a610200840182612de4565b90506101a0840151601f19848303016101c08501526131b98282613041565b9150506101c0840151601f19848303016101e0850152612888828261307a565b5f805f805f8060c087890312156131ee575f80fd5b86356131f981612d39565b955060208701356001600160401b03811115613213575f80fd5b61321f89828a01612bc2565b95505060408701356001600160401b0381111561323a575f80fd5b8701601f8101891361324a575f80fd5b8035613258612bdf82612ba0565b8082825260208201915060208360051b85010192508b831115613279575f80fd5b6020840193505b828410156132a25761329184612e40565b825260209384019390910190613280565b96506132b49250505060608801612dd9565b92506080870135915060a08701356001600160401b038111156132d5575f80fd5b6132e189828a01612bc2565b9150509295509295509295565b5f805f805f805f60c0888a031215613304575f80fd5b61330d88612e78565b965061331b60208901612b41565b955061332960408901612b41565b945060608801356001600160401b03811115613343575f80fd5b61334f8a828b01612bc2565b94505060808801356001600160401b0381111561336a575f80fd5b6133768a828b01612bc2565b93505060a08801356001600160401b03811115613391575f80fd5b8801601f81018a136133a1575f80fd5b80356001600160401b038111156133b6575f80fd5b8a60208284010111156133c7575f80fd5b602082019350809250505092959891949750929550565b5f82601f8301126133ed575f80fd5b81356001600160401b0381111561340657613406612b5c565b613419601f8201601f1916602001612b70565b81815284602083860101111561342d575f80fd5b816020850160208301375f918101602001919091529392505050565b5f805f805f805f805f6101208a8c031215613462575f80fd5b8935985060208a0135975060408a0135965061348060608b01612e78565b955061348e60808b01612b41565b945061349c60a08b01612b41565b935060c08a01356001600160401b038111156134b6575f80fd5b6134c28c828d01612bc2565b93505060e08a01356001600160401b038111156134dd575f80fd5b6134e98c828d01612bc2565b9250506101008a01356001600160401b03811115613505575f80fd5b6135118c828d016133de565b9150509295985092959850929598565b6020808252600c908201526b15539055551213d49256915160a21b604082015260600190565b634e487b7160e01b5f52603260045260245ffd5b634e487b7160e01b5f52601160045260245ffd5b808201808211156114f5576114f561355b565b818103818111156114f5576114f561355b565b80820281158282048414176114f5576114f561355b565b634e487b7160e01b5f52601260045260245ffd5b5f826135ce576135ce6135ac565b500490565b5f602082840312156135e3575f80fd5b8151612b2381612d68565b5f826135fc576135fc6135ac565b500690565b6001600160401b0382811682821603908111156114f5576114f561355b565b5f82518060208501845e5f920191825250919050565b5f60208284031215613646575f80fd5b5051919050565b5f81518084528060208401602086015e5f602082860101526020601f19601f83011685010191505092915050565b848152606060208201525f613693606083018661364d565b8281036040840152838152838560208301375f602085830101526020601f19601f86011682010191505095945050505050565b838152606060208201525f6136de606083018561364d565b82810360408401526136f0818561364d565b9695505050505050565b6001600160401b0381811683821601908111156114f5576114f561355b565b602081525f612b23602083018461364d565b60ff82811682821603908111156114f5576114f561355b565b6001815b600184111561377f578085048111156137635761376361355b565b600184161561377157908102905b60019390931c928002613748565b935093915050565b5f82613795575060016114f5565b816137a157505f6114f5565b81600181146137b757600281146137c1576137dd565b60019150506114f5565b60ff8411156137d2576137d261355b565b50506001821b6114f5565b5060208310610133831016604e8410600b8410161715613800575081810a6114f5565b61380c5f198484613744565b805f190482111561381f5761381f61355b565b029392505050565b5f612b2360ff841683613787565b5f600182016138465761384661355b565b506001019056fea2646970667358221220018c85d0ffb3d86bf7685963e06e0a07df3111f677873290ed97917e9713ab9264736f6c634300081a0033","linkReferences":{}},"methodIdentifiers":{"BP_SCALE()":"d8b4cf4e","CHALLENGE_PERIOD()":"c3a079ed","CIRCUIT_VERIFICATION_KEY()":"8d5ca052","DEPOSIT_TOKEN()":"13f66587","RESERVATION_LOCKUP_PERIOD()":"89a11f7a","SCALE()":"eced5526","TOKEN_DECIMALS()":"5b7f415c","VERIFIER_CONTRACT()":"b8b24592","buildPublicInputs(uint256,bytes32,bytes32,uint32,uint64,uint64,bytes32[],uint256[],bool)":"c7785af0","calculateRetargetHeight(uint256)":"b9b2a982","currentHeight()":"163de0c5","depositLiquidity(uint256,uint64,bytes22)":"803d5f62","depositVaults(uint256)":"5f4d0610","getAreDepositsPaused()":"b01c27d1","getBlockHash(uint256)":"ee82ac5e","getChainwork(uint256)":"cda7d82c","getDepositVault(uint256)":"276d080e","getDepositVaultUnreservedBalance(uint256)":"6512d057","getDepositVaultsLength()":"7dce5550","getLiquidityProvider(address)":"98f9e757","getReservation(uint256)":"d57763c3","getReservationLength()":"ea6fe03e","isDepositNewLiquidityPaused()":"8cc63cdd","owner()":"8da5cb5b","protocolFeeBP()":"c5fba0b8","proveBlocks(uint32,uint64,uint64,bytes32[],uint256[],bytes)":"e102f9c1","releaseLiquidity(uint256)":"77891907","reserveLiquidity(address,uint256[],uint192[],address,uint256,uint256[])":"d8418403","submitSwapProof(uint256,bytes32,bytes32,uint32,uint64,uint64,bytes32[],uint256[],bytes)":"ecdea06f","swapReservations(uint256)":"6b994abb","transferOwnership(address)":"f2fde38b","updateExchangeRate(uint256,uint64,uint256[])":"505675dd","updateFeeRouter(address)":"73e149e6","updateNewLiquidityDepositsPaused(bool)":"7a9059a2","updateProtocolFee(uint8)":"0a7aa293","validateBlockExists(uint256)":"ed8b2b32","withdrawLiquidity(uint256,uint192,uint256[])":"a3db99d9"},"storageLayout":{"storage":[{"astId":47998,"contract":"src/RiftExchange.sol:RiftExchange","label":"blockchain","offset":0,"slot":"0","type":"t_mapping(t_uint256,t_bytes32)"},{"astId":48002,"contract":"src/RiftExchange.sol:RiftExchange","label":"chainworks","offset":0,"slot":"1","type":"t_mapping(t_uint256,t_uint256)"},{"astId":48004,"contract":"src/RiftExchange.sol:RiftExchange","label":"currentHeight","offset":0,"slot":"2","type":"t_uint256"},{"astId":46637,"contract":"src/RiftExchange.sol:RiftExchange","label":"owner","offset":0,"slot":"3","type":"t_address"},{"astId":49397,"contract":"src/RiftExchange.sol:RiftExchange","label":"isDepositNewLiquidityPaused","offset":20,"slot":"3","type":"t_bool"},{"astId":49400,"contract":"src/RiftExchange.sol:RiftExchange","label":"protocolFeeBP","offset":21,"slot":"3","type":"t_uint8"},{"astId":49402,"contract":"src/RiftExchange.sol:RiftExchange","label":"feeRouterAddress","offset":0,"slot":"4","type":"t_address"},{"astId":49406,"contract":"src/RiftExchange.sol:RiftExchange","label":"depositVaults","offset":0,"slot":"5","type":"t_array(t_struct(DepositVault)49345_storage)dyn_storage"},{"astId":49410,"contract":"src/RiftExchange.sol:RiftExchange","label":"swapReservations","offset":0,"slot":"6","type":"t_array(t_struct(SwapReservation)49326_storage)dyn_storage"},{"astId":49415,"contract":"src/RiftExchange.sol:RiftExchange","label":"liquidityProviders","offset":0,"slot":"7","type":"t_mapping(t_address,t_struct(LiquidityProvider)49330_storage)"}],"types":{"t_address":{"encoding":"inplace","label":"address","numberOfBytes":"20"},"t_array(t_struct(DepositVault)49345_storage)dyn_storage":{"encoding":"dynamic_array","label":"struct RiftExchange.DepositVault[]","numberOfBytes":"32","base":"t_struct(DepositVault)49345_storage"},"t_array(t_struct(SwapReservation)49326_storage)dyn_storage":{"encoding":"dynamic_array","label":"struct RiftExchange.SwapReservation[]","numberOfBytes":"32","base":"t_struct(SwapReservation)49326_storage"},"t_array(t_uint192)dyn_storage":{"encoding":"dynamic_array","label":"uint192[]","numberOfBytes":"32","base":"t_uint192"},"t_array(t_uint256)dyn_storage":{"encoding":"dynamic_array","label":"uint256[]","numberOfBytes":"32","base":"t_uint256"},"t_array(t_uint64)dyn_storage":{"encoding":"dynamic_array","label":"uint64[]","numberOfBytes":"32","base":"t_uint64"},"t_bool":{"encoding":"inplace","label":"bool","numberOfBytes":"1"},"t_bytes22":{"encoding":"inplace","label":"bytes22","numberOfBytes":"22"},"t_bytes32":{"encoding":"inplace","label":"bytes32","numberOfBytes":"32"},"t_enum(ReservationState)49291":{"encoding":"inplace","label":"enum RiftExchange.ReservationState","numberOfBytes":"1"},"t_mapping(t_address,t_struct(LiquidityProvider)49330_storage)":{"encoding":"mapping","key":"t_address","label":"mapping(address => struct RiftExchange.LiquidityProvider)","numberOfBytes":"32","value":"t_struct(LiquidityProvider)49330_storage"},"t_mapping(t_uint256,t_bytes32)":{"encoding":"mapping","key":"t_uint256","label":"mapping(uint256 => bytes32)","numberOfBytes":"32","value":"t_bytes32"},"t_mapping(t_uint256,t_uint256)":{"encoding":"mapping","key":"t_uint256","label":"mapping(uint256 => uint256)","numberOfBytes":"32","value":"t_uint256"},"t_struct(DepositVault)49345_storage":{"encoding":"inplace","label":"struct RiftExchange.DepositVault","numberOfBytes":"160","members":[{"astId":49332,"contract":"src/RiftExchange.sol:RiftExchange","label":"owner","offset":0,"slot":"0","type":"t_address"},{"astId":49334,"contract":"src/RiftExchange.sol:RiftExchange","label":"depositTimestamp","offset":20,"slot":"0","type":"t_uint64"},{"astId":49336,"contract":"src/RiftExchange.sol:RiftExchange","label":"initialBalance","offset":0,"slot":"1","type":"t_uint256"},{"astId":49338,"contract":"src/RiftExchange.sol:RiftExchange","label":"unreservedBalance","offset":0,"slot":"2","type":"t_uint256"},{"astId":49340,"contract":"src/RiftExchange.sol:RiftExchange","label":"withdrawnAmount","offset":0,"slot":"3","type":"t_uint256"},{"astId":49342,"contract":"src/RiftExchange.sol:RiftExchange","label":"exchangeRate","offset":0,"slot":"4","type":"t_uint64"},{"astId":49344,"contract":"src/RiftExchange.sol:RiftExchange","label":"btcPayoutLockingScript","offset":8,"slot":"4","type":"t_bytes22"}]},"t_struct(LiquidityProvider)49330_storage":{"encoding":"inplace","label":"struct RiftExchange.LiquidityProvider","numberOfBytes":"32","members":[{"astId":49329,"contract":"src/RiftExchange.sol:RiftExchange","label":"depositVaultIndexes","offset":0,"slot":"0","type":"t_array(t_uint256)dyn_storage"}]},"t_struct(SwapReservation)49326_storage":{"encoding":"inplace","label":"struct RiftExchange.SwapReservation","numberOfBytes":"352","members":[{"astId":49293,"contract":"src/RiftExchange.sol:RiftExchange","label":"owner","offset":0,"slot":"0","type":"t_address"},{"astId":49295,"contract":"src/RiftExchange.sol:RiftExchange","label":"confirmationBlockHeight","offset":20,"slot":"0","type":"t_uint32"},{"astId":49297,"contract":"src/RiftExchange.sol:RiftExchange","label":"reservationTimestamp","offset":24,"slot":"0","type":"t_uint64"},{"astId":49299,"contract":"src/RiftExchange.sol:RiftExchange","label":"liquidityUnlockedTimestamp","offset":0,"slot":"1","type":"t_uint64"},{"astId":49302,"contract":"src/RiftExchange.sol:RiftExchange","label":"state","offset":8,"slot":"1","type":"t_enum(ReservationState)49291"},{"astId":49304,"contract":"src/RiftExchange.sol:RiftExchange","label":"ethPayoutAddress","offset":9,"slot":"1","type":"t_address"},{"astId":49306,"contract":"src/RiftExchange.sol:RiftExchange","label":"lpReservationHash","offset":0,"slot":"2","type":"t_bytes32"},{"astId":49308,"contract":"src/RiftExchange.sol:RiftExchange","label":"nonce","offset":0,"slot":"3","type":"t_bytes32"},{"astId":49310,"contract":"src/RiftExchange.sol:RiftExchange","label":"totalSatsInputIncludingProxyFee","offset":0,"slot":"4","type":"t_uint256"},{"astId":49312,"contract":"src/RiftExchange.sol:RiftExchange","label":"totalSwapOutputAmount","offset":0,"slot":"5","type":"t_uint256"},{"astId":49314,"contract":"src/RiftExchange.sol:RiftExchange","label":"proposedBlockHeight","offset":0,"slot":"6","type":"t_uint256"},{"astId":49316,"contract":"src/RiftExchange.sol:RiftExchange","label":"proposedBlockHash","offset":0,"slot":"7","type":"t_bytes32"},{"astId":49319,"contract":"src/RiftExchange.sol:RiftExchange","label":"vaultIndexes","offset":0,"slot":"8","type":"t_array(t_uint256)dyn_storage"},{"astId":49322,"contract":"src/RiftExchange.sol:RiftExchange","label":"amountsToReserve","offset":0,"slot":"9","type":"t_array(t_uint192)dyn_storage"},{"astId":49325,"contract":"src/RiftExchange.sol:RiftExchange","label":"expectedSatsOutput","offset":0,"slot":"10","type":"t_array(t_uint64)dyn_storage"}]},"t_uint192":{"encoding":"inplace","label":"uint192","numberOfBytes":"24"},"t_uint256":{"encoding":"inplace","label":"uint256","numberOfBytes":"32"},"t_uint32":{"encoding":"inplace","label":"uint32","numberOfBytes":"4"},"t_uint64":{"encoding":"inplace","label":"uint64","numberOfBytes":"8"},"t_uint8":{"encoding":"inplace","label":"uint8","numberOfBytes":"1"}}},"id":32}