{"abi":[{"type":"constructor","inputs":[{"name":"initialCheckpointHeight","type":"uint256","internalType":"uint256"},{"name":"initialBlockHash","type":"bytes32","internalType":"bytes32"},{"name":"initialRetargetBlockHash","type":"bytes32","internalType":"bytes32"},{"name":"initialChainwork","type":"uint256","internalType":"uint256"},{"name":"verifierContractAddress","type":"address","internalType":"address"},{"name":"depositTokenAddress","type":"address","internalType":"address"},{"name":"initialFeeRouterAddress","type":"address","internalType":"address"},{"name":"owner","type":"address","internalType":"address"},{"name":"circuitVerificationKey","type":"bytes32","internalType":"bytes32"},{"name":"minimumConfirmationDelta","type":"uint8","internalType":"uint8"}],"stateMutability":"nonpayable"},{"type":"function","name":"CHALLENGE_PERIOD","inputs":[],"outputs":[{"name":"","type":"uint32","internalType":"uint32"}],"stateMutability":"view"},{"type":"function","name":"CIRCUIT_VERIFICATION_KEY","inputs":[],"outputs":[{"name":"","type":"bytes32","internalType":"bytes32"}],"stateMutability":"view"},{"type":"function","name":"DEPOSIT_TOKEN","inputs":[],"outputs":[{"name":"","type":"address","internalType":"contract IERC20"}],"stateMutability":"view"},{"type":"function","name":"RESERVATION_LOCKUP_PERIOD","inputs":[],"outputs":[{"name":"","type":"uint32","internalType":"uint32"}],"stateMutability":"view"},{"type":"function","name":"TOKEN_DECIMALS","inputs":[],"outputs":[{"name":"","type":"uint8","internalType":"uint8"}],"stateMutability":"view"},{"type":"function","name":"VERIFIER_CONTRACT","inputs":[],"outputs":[{"name":"","type":"address","internalType":"contract ISP1Verifier"}],"stateMutability":"view"},{"type":"function","name":"calculateRetargetHeight","inputs":[{"name":"blockHeight","type":"uint256","internalType":"uint256"}],"outputs":[{"name":"","type":"uint256","internalType":"uint256"}],"stateMutability":"pure"},{"type":"function","name":"currentConfirmationHeight","inputs":[],"outputs":[{"name":"","type":"uint256","internalType":"uint256"}],"stateMutability":"view"},{"type":"function","name":"currentHeight","inputs":[],"outputs":[{"name":"","type":"uint256","internalType":"uint256"}],"stateMutability":"view"},{"type":"function","name":"depositLiquidity","inputs":[{"name":"depositAmount","type":"uint256","internalType":"uint256"},{"name":"exchangeRate","type":"uint64","internalType":"uint64"},{"name":"btcPayoutLockingScript","type":"bytes22","internalType":"bytes22"}],"outputs":[],"stateMutability":"nonpayable"},{"type":"function","name":"getAreDepositsPaused","inputs":[],"outputs":[{"name":"","type":"bool","internalType":"bool"}],"stateMutability":"view"},{"type":"function","name":"getBlockHash","inputs":[{"name":"blockHeight","type":"uint256","internalType":"uint256"}],"outputs":[{"name":"","type":"bytes32","internalType":"bytes32"}],"stateMutability":"view"},{"type":"function","name":"getChainwork","inputs":[{"name":"blockHeight","type":"uint256","internalType":"uint256"}],"outputs":[{"name":"","type":"uint256","internalType":"uint256"}],"stateMutability":"view"},{"type":"function","name":"getDepositVault","inputs":[{"name":"depositIndex","type":"uint256","internalType":"uint256"}],"outputs":[{"name":"","type":"tuple","internalType":"struct RiftExchange.DepositVault","components":[{"name":"owner","type":"address","internalType":"address"},{"name":"depositTimestamp","type":"uint64","internalType":"uint64"},{"name":"initialBalance","type":"uint256","internalType":"uint256"},{"name":"unreservedBalance","type":"uint256","internalType":"uint256"},{"name":"withdrawnAmount","type":"uint256","internalType":"uint256"},{"name":"exchangeRate","type":"uint64","internalType":"uint64"},{"name":"btcPayoutLockingScript","type":"bytes22","internalType":"bytes22"}]}],"stateMutability":"view"},{"type":"function","name":"getDepositVaultUnreservedBalance","inputs":[{"name":"depositIndex","type":"uint256","internalType":"uint256"}],"outputs":[{"name":"","type":"uint256","internalType":"uint256"}],"stateMutability":"view"},{"type":"function","name":"getDepositVaultsLength","inputs":[],"outputs":[{"name":"","type":"uint256","internalType":"uint256"}],"stateMutability":"view"},{"type":"function","name":"getLiquidityProvider","inputs":[{"name":"lpAddress","type":"address","internalType":"address"}],"outputs":[{"name":"","type":"tuple","internalType":"struct RiftExchange.LiquidityProvider","components":[{"name":"depositVaultIndexes","type":"uint256[]","internalType":"uint256[]"}]}],"stateMutability":"view"},{"type":"function","name":"getReservation","inputs":[{"name":"reservationIndex","type":"uint256","internalType":"uint256"}],"outputs":[{"name":"","type":"tuple","internalType":"struct RiftExchange.SwapReservation","components":[{"name":"owner","type":"address","internalType":"address"},{"name":"confirmationBlockHeight","type":"uint32","internalType":"uint32"},{"name":"reservationTimestamp","type":"uint64","internalType":"uint64"},{"name":"liquidityUnlockedTimestamp","type":"uint64","internalType":"uint64"},{"name":"state","type":"uint8","internalType":"enum RiftExchange.ReservationState"},{"name":"ethPayoutAddress","type":"address","internalType":"address"},{"name":"lpReservationHash","type":"bytes32","internalType":"bytes32"},{"name":"nonce","type":"bytes32","internalType":"bytes32"},{"name":"totalSatsInputIncludingProxyFee","type":"uint256","internalType":"uint256"},{"name":"totalSwapOutputAmount","type":"uint256","internalType":"uint256"},{"name":"proposedBlockHeight","type":"uint256","internalType":"uint256"},{"name":"proposedBlockHash","type":"bytes32","internalType":"bytes32"},{"name":"vaultIndexes","type":"uint256[]","internalType":"uint256[]"},{"name":"amountsToReserve","type":"uint192[]","internalType":"uint192[]"},{"name":"expectedSatsOutput","type":"uint64[]","internalType":"uint64[]"}]}],"stateMutability":"view"},{"type":"function","name":"getReservationLength","inputs":[],"outputs":[{"name":"","type":"uint256","internalType":"uint256"}],"stateMutability":"view"},{"type":"function","name":"isDepositNewLiquidityPaused","inputs":[],"outputs":[{"name":"","type":"bool","internalType":"bool"}],"stateMutability":"view"},{"type":"function","name":"owner","inputs":[],"outputs":[{"name":"","type":"address","internalType":"address"}],"stateMutability":"view"},{"type":"function","name":"protocolFeeBP","inputs":[],"outputs":[{"name":"","type":"uint8","internalType":"uint8"}],"stateMutability":"view"},{"type":"function","name":"releaseLiquidity","inputs":[{"name":"swapReservationIndex","type":"uint256","internalType":"uint256"}],"outputs":[],"stateMutability":"nonpayable"},{"type":"function","name":"reserveLiquidity","inputs":[{"name":"reservationOwner","type":"address","internalType":"address"},{"name":"vaultIndexesToReserve","type":"uint256[]","internalType":"uint256[]"},{"name":"amountsToReserve","type":"uint192[]","internalType":"uint192[]"},{"name":"ethPayoutAddress","type":"address","internalType":"address"},{"name":"totalSatsInputIncludingProxyFee","type":"uint256","internalType":"uint256"},{"name":"expiredSwapReservationIndexes","type":"uint256[]","internalType":"uint256[]"}],"outputs":[],"stateMutability":"nonpayable"},{"type":"function","name":"submitSwapProof","inputs":[{"name":"swapReservationIndex","type":"uint256","internalType":"uint256"},{"name":"bitcoinTxId","type":"bytes32","internalType":"bytes32"},{"name":"merkleRoot","type":"bytes32","internalType":"bytes32"},{"name":"safeBlockHeight","type":"uint32","internalType":"uint32"},{"name":"proposedBlockHeight","type":"uint64","internalType":"uint64"},{"name":"confirmationBlockHeight","type":"uint64","internalType":"uint64"},{"name":"blockHashes","type":"bytes32[]","internalType":"bytes32[]"},{"name":"blockChainworks","type":"uint256[]","internalType":"uint256[]"},{"name":"proof","type":"bytes","internalType":"bytes"}],"outputs":[],"stateMutability":"nonpayable"},{"type":"function","name":"transferOwnership","inputs":[{"name":"newOwner","type":"address","internalType":"address"}],"outputs":[],"stateMutability":"nonpayable"},{"type":"function","name":"updateExchangeRate","inputs":[{"name":"globalVaultIndex","type":"uint256","internalType":"uint256"},{"name":"localVaultIndex","type":"uint256","internalType":"uint256"},{"name":"newExchangeRate","type":"uint64","internalType":"uint64"},{"name":"expiredSwapReservationIndexes","type":"uint256[]","internalType":"uint256[]"}],"outputs":[],"stateMutability":"nonpayable"},{"type":"function","name":"updateFeeRouter","inputs":[{"name":"newProtocolAddress","type":"address","internalType":"address payable"}],"outputs":[],"stateMutability":"nonpayable"},{"type":"function","name":"updateNewLiquidityDepositsPaused","inputs":[{"name":"newPauseState","type":"bool","internalType":"bool"}],"outputs":[],"stateMutability":"nonpayable"},{"type":"function","name":"updateProtocolFee","inputs":[{"name":"newProtocolFeeBP","type":"uint8","internalType":"uint8"}],"outputs":[],"stateMutability":"nonpayable"},{"type":"function","name":"validateBlockExists","inputs":[{"name":"blockHeight","type":"uint256","internalType":"uint256"}],"outputs":[],"stateMutability":"view"},{"type":"function","name":"withdrawLiquidity","inputs":[{"name":"globalVaultIndex","type":"uint256","internalType":"uint256"},{"name":"localVaultIndex","type":"uint256","internalType":"uint256"},{"name":"amountToWithdraw","type":"uint192","internalType":"uint192"},{"name":"expiredSwapReservationIndexes","type":"uint256[]","internalType":"uint256[]"}],"outputs":[],"stateMutability":"nonpayable"},{"type":"event","name":"BlocksAdded","inputs":[{"name":"startBlockHeight","type":"uint256","indexed":false,"internalType":"uint256"},{"name":"count","type":"uint256","indexed":false,"internalType":"uint256"}],"anonymous":false},{"type":"event","name":"LiquidityDeposited","inputs":[{"name":"depositor","type":"address","indexed":true,"internalType":"address"},{"name":"depositVaultIndex","type":"uint256","indexed":false,"internalType":"uint256"},{"name":"amount","type":"uint256","indexed":false,"internalType":"uint256"},{"name":"exchangeRate","type":"uint64","indexed":false,"internalType":"uint64"}],"anonymous":false},{"type":"event","name":"LiquidityReserved","inputs":[{"name":"reserver","type":"address","indexed":true,"internalType":"address"},{"name":"swapReservationIndex","type":"uint256","indexed":false,"internalType":"uint256"},{"name":"orderNonce","type":"bytes32","indexed":false,"internalType":"bytes32"}],"anonymous":false},{"type":"event","name":"OwnershipTransferred","inputs":[{"name":"user","type":"address","indexed":true,"internalType":"address"},{"name":"newOwner","type":"address","indexed":true,"internalType":"address"}],"anonymous":false},{"type":"event","name":"ProofSubmitted","inputs":[{"name":"prover","type":"address","indexed":true,"internalType":"address"},{"name":"swapReservationIndex","type":"uint256","indexed":false,"internalType":"uint256"},{"name":"orderNonce","type":"bytes32","indexed":false,"internalType":"bytes32"}],"anonymous":false},{"type":"event","name":"SwapComplete","inputs":[{"name":"swapReservationIndex","type":"uint256","indexed":false,"internalType":"uint256"},{"name":"orderNonce","type":"bytes32","indexed":false,"internalType":"bytes32"}],"anonymous":false},{"type":"error","name":"AmountToReserveTooLow","inputs":[{"name":"index","type":"uint256","internalType":"uint256"}]},{"type":"error","name":"BlockDoesNotExist","inputs":[]},{"type":"error","name":"InvalidConfirmationBlock","inputs":[]},{"type":"error","name":"InvalidExchangeRate","inputs":[]},{"type":"error","name":"InvalidInputArrays","inputs":[]},{"type":"error","name":"InvalidProposedBlockOverwrite","inputs":[]},{"type":"error","name":"InvalidReservationState","inputs":[]},{"type":"error","name":"InvalidSafeBlock","inputs":[]},{"type":"error","name":"NewDepositsPaused","inputs":[]},{"type":"error","name":"NotEnoughLiquidity","inputs":[]},{"type":"error","name":"NotVaultOwner","inputs":[]},{"type":"error","name":"OverwrittenProposedBlock","inputs":[]},{"type":"error","name":"ReservationNotExpired","inputs":[]},{"type":"error","name":"ReservationNotProved","inputs":[]},{"type":"error","name":"StillInChallengePeriod","inputs":[]},{"type":"error","name":"WithdrawalAmountError","inputs":[]}],"bytecode":{"object":"0x6101206040526004805461ffff60a01b1916600560a91b179055348015610024575f80fd5b506040516135a03803806135a0833981016040819052610043916101df565b60028a90555f8a81526001602090815260408083208a90559082905281208a905583908b9089908c908c90869082908061007c88610197565b8152602081019190915260409081015f9081209290925560ff909216608052600480546001600160a01b0389166001600160a01b03199091168117909155915191955093507f8be0079c531659141344cd1fd0a4f28419497f9722a3daafe3b4186f6b6457e09250839150a35060e08290526001600160a01b0380871661010052851660a08190526040805163313ce56760e01b8152905163313ce567916004808201926020929091908290030181865afa15801561013d573d5f803e3d5ffd5b505050506040513d601f19601f820116820180604052508101906101619190610273565b60ff1660c0525050600580546001600160a01b0319166001600160a01b039390931692909217909155506102d195505050505050565b5f6101a46107e083610293565b6101ae90836102b2565b92915050565b80516001600160a01b03811681146101ca575f80fd5b919050565b805160ff811681146101ca575f80fd5b5f805f805f805f805f806101408b8d0312156101f9575f80fd5b8a5160208c015160408d015160608e0151929c50909a509850965061022060808c016101b4565b955061022e60a08c016101b4565b945061023c60c08c016101b4565b935061024a60e08c016101b4565b6101008c015190935091506102626101208c016101cf565b90509295989b9194979a5092959850565b5f60208284031215610283575f80fd5b61028c826101cf565b9392505050565b5f826102ad57634e487b7160e01b5f52601260045260245ffd5b500690565b818103818111156101ae57634e487b7160e01b5f52601160045260245ffd5b60805160a05160c05160e0516101005161326161033f5f395f81816104630152611dc401525f81816103e40152611df101525f818161030201526116e101525f818161020501528181610b6b01528181610bd801528181610f8801526111f801525f6121d301526132615ff3fe608060405234801561000f575f80fd5b50600436106101e7575f3560e01c806398f9e75711610109578063d57763c31161009e578063ed8b2b321161006e578063ed8b2b3214610522578063ee82ac5e14610535578063f2fde38b14610554578063fba7816614610567575f80fd5b8063d57763c3146104d4578063d8418403146104f4578063ea6fe03e14610507578063ecdea06f1461050f575f80fd5b8063b9b2a982116100d9578063b9b2a98214610485578063c3a079ed14610498578063c5fba0b8146104a1578063cda7d82c146104b5575f80fd5b806398f9e75714610419578063aeacb2e714610439578063b01c27d11461044c578063b8b245921461045e575f80fd5b8063778919071161017f57806389a11f7a1161014f57806389a11f7a1461039d5780638cc63cdd146103bb5780638d5ca052146103df5780638da5cb5b14610406575f80fd5b8063778919071461035c5780637a9059a21461036f5780637dce555014610382578063803d5f621461038a575f80fd5b806356fe6f86116101ba57806356fe6f86146102ea5780635b7f415c146102fd5780636512d0571461033657806373e149e614610349575f80fd5b80630a7aa293146101eb57806313f6658714610200578063163de0c514610244578063276d080e1461025b575b5f80fd5b6101fe6101f936600461276b565b610570565b005b6102277f000000000000000000000000000000000000000000000000000000000000000081565b6040516001600160a01b0390911681526020015b60405180910390f35b61024d60025481565b60405190815260200161023b565b61026e610269366004612792565b6105c3565b60405161023b91905f60e08201905060018060a01b0383511682526001600160401b0360208401511660208301526040830151604083015260608301516060830152608083015160808301526001600160401b0360a08401511660a083015269ffffffffffffffffffff1960c08401511660c083015292915050565b6101fe6102f8366004612894565b61069e565b6103247f000000000000000000000000000000000000000000000000000000000000000081565b60405160ff909116815260200161023b565b61024d610344366004612792565b610925565b6101fe610357366004612904565b610950565b6101fe61036a366004612792565b61099c565b6101fe61037d36600461292c565b610cde565b60065461024d565b6101fe610398366004612947565b610d26565b6103a661708081565b60405163ffffffff909116815260200161023b565b6004546103cf90600160a01b900460ff1681565b604051901515815260200161023b565b61024d7f000000000000000000000000000000000000000000000000000000000000000081565b600454610227906001600160a01b031681565b61042c610427366004612904565b61105a565b60405161023b91906129d5565b6101fe610447366004612a0d565b6110da565b600454600160a01b900460ff166103cf565b6102277f000000000000000000000000000000000000000000000000000000000000000081565b61024d610493366004612792565b61126a565b6103a661012c81565b60045461032490600160a81b900460ff1681565b61024d6104c3366004612792565b5f9081526001602052604090205490565b6104e76104e2366004612792565b611287565b60405161023b9190612add565b6101fe610502366004612c0c565b61155f565b60075461024d565b6101fe61051d366004612d9f565b611c84565b6101fe610530366004612792565b611f4a565b61024d610543366004612792565b5f9081526020819052604090205490565b6101fe610562366004612904565b611f78565b61024d60035481565b6004546001600160a01b031633146105a35760405162461bcd60e51b815260040161059a90612e77565b60405180910390fd5b6004805460ff909216600160a81b0260ff60a81b19909216919091179055565b6040805160e0810182525f80825260208201819052918101829052606081018290526080810182905260a0810182905260c08101919091526006828154811061060e5761060e612e9d565b5f9182526020918290206040805160e08101825260059390930290910180546001600160a01b0381168452600160a01b90046001600160401b039081169484019490945260018101549183019190915260028101546060830152600381015460808301526004015491821660a0820152600160401b90910460501b6001600160501b03191660c082015292915050565b335f9081526008602052604090208054859190859081106106c1576106c1612e9d565b905f5260205f200154146106e857604051630e7fea9d60e01b815260040160405180910390fd5b816001600160401b03165f036107115760405163a2ec3a5560e01b815260040160405180910390fd5b5f6006858154811061072557610725612e9d565b905f5260205f20906005020190505f8160020154905061074483611fed565b816001015481036107725760048201805467ffffffffffffffff19166001600160401b03861617905561091d565b6040805160e08101825283546001600160a01b0390811682526001600160401b0342811660208401908152938301858152606084018681525f608086018181528b851660a0880190815260048b01546001600160501b0319600160401b91829004605090811b9190911660c08b01908152600680546001810182559087529a516005909b027ff652222313e28459528d920b65115c16c04f3efc82aaedc97be59f3f377c0d3f810180549d518b16600160a01b026001600160e01b0319909e169c909b169b909b179b909b1790985594517ff652222313e28459528d920b65115c16c04f3efc82aaedc97be59f3f377c0d4089015592517ff652222313e28459528d920b65115c16c04f3efc82aaedc97be59f3f377c0d41880155517ff652222313e28459528d920b65115c16c04f3efc82aaedc97be59f3f377c0d4287015590517ff652222313e28459528d920b65115c16c04f3efc82aaedc97be59f3f377c0d439095018054965190941c9091026001600160f01b0319909516939091169290921792909217909155600383018054839290610911908490612ec5565b90915550505f60028301555b505050505050565b5f6006828154811061093957610939612e9d565b905f5260205f209060050201600201549050919050565b6004546001600160a01b0316331461097a5760405162461bcd60e51b815260040161059a90612e77565b600580546001600160a01b0319166001600160a01b0392909216919091179055565b5f600782815481106109b0576109b0612e9d565b5f9182526020909120600b90910201905060026001820154600160401b900460ff1660048111156109e3576109e3612a37565b14610a01576040516320d55f6760e21b815260040160405180910390fd5b60018101546001600160401b0316421015610a2f57604051632d5c37f560e21b815260040160405180910390fd5b610a63604051806040016040528060138152602001721c1c9bdc1bdcd959109b1bd8dad2195a59da1d606a1b8152506120fb565b610a84610a7f82600601545f9081526020819052604090205490565b61213e565b610ab6604051806040016040528060118152602001700e0e4dee0dee6cac884d8dec6d690c2e6d607b1b8152506120fb565b610ac3816007015461213e565b600781015460068201545f9081526020819052604090205414610af95760405163c1f6fa5160e01b815260040160405180910390fd5b60018101805460ff60401b19166803000000000000000017905560045460058201545f9161271091610b3591600160a81b900460ff1690612ed8565b610b3f9190612f03565b60055460405163a9059cbb60e01b81526001600160a01b039182166004820152602481018390529192507f0000000000000000000000000000000000000000000000000000000000000000169063a9059cbb906044016020604051808303815f875af1158015610bb1573d5f803e3d5ffd5b505050506040513d601f19601f82011682018060405250810190610bd59190612f16565b507f00000000000000000000000000000000000000000000000000000000000000006001600160a01b031663a9059cbb8360010160099054906101000a90046001600160a01b0316838560050154610c2d9190612f31565b6040516001600160e01b031960e085901b1681526001600160a01b03909216600483015260248201526044016020604051808303815f875af1158015610c75573d5f803e3d5ffd5b505050506040513d601f19601f82011682018060405250810190610c999190612f16565b5060038201546040805185815260208101929092527f12245c00d428a4c558061d2f69fe154a203bd2fb4a65b6c3e73e95ccdc735d18910160405180910390a1505050565b6004546001600160a01b03163314610d085760405162461bcd60e51b815260040161059a90612e77565b60048054911515600160a01b0260ff60a01b19909216919091179055565b600454600160a01b900460ff1615610d51576040516348010c6560e11b815260040160405180910390fd5b816001600160401b03165f03610d7a5760405163a2ec3a5560e01b815260040160405180910390fd5b335f908152600860205260408120549003610dc657604080515f602080830182815283850185528352338252600881529290208151805192939192610dc2928492019061260f565b5050505b6040805160e081018252338082526001600160401b034281166020808501918252848601898152606086018a81525f608088018181528b871660a08a019081526001600160501b03198c1660c08b0190815260068054600181810183558287529c5160059091027ff652222313e28459528d920b65115c16c04f3efc82aaedc97be59f3f377c0d3f810180549b518d16600160a01b026001600160e01b0319909c166001600160a01b0393909316929092179a909a17905595517ff652222313e28459528d920b65115c16c04f3efc82aaedc97be59f3f377c0d4089015593517ff652222313e28459528d920b65115c16c04f3efc82aaedc97be59f3f377c0d4188015590517ff652222313e28459528d920b65115c16c04f3efc82aaedc97be59f3f377c0d42870155517ff652222313e28459528d920b65115c16c04f3efc82aaedc97be59f3f377c0d439095018054925160501c600160401b026001600160f01b031990931695909616949094171790935592815260089092529290209154610f519190612f31565b81546001810183555f9283526020909220909101556040516323b872dd60e01b8152336004820152306024820152604481018490527f00000000000000000000000000000000000000000000000000000000000000006001600160a01b0316906323b872dd906064016020604051808303815f875af1158015610fd6573d5f803e3d5ffd5b505050506040513d601f19601f82011682018060405250810190610ffa9190612f16565b5060065433907ffd5ab8914e1dca355d18ae7fe50627d3afe042f323e1b0ae31f3a9d2cd19de379061102e90600190612f31565b60408051918252602082018790526001600160401b0386169082015260600160405180910390a2505050565b6040805160208082018352606082526001600160a01b0384165f90815260088252839020835181548084028201860186529281018381529394909391928492918491908401828280156110ca57602002820191905f5260205f20905b8154815260200190600101908083116110b6575b5050505050815250509050919050565b335f9081526008602052604090208054859190859081106110fd576110fd612e9d565b905f5260205f2001541461112457604051630e7fea9d60e01b815260040160405180910390fd5b61112d81611fed565b5f6006858154811061114157611141612e9d565b905f5260205f2090600502019050826001600160c01b03165f148061117257508060020154836001600160c01b0316115b156111905760405163b4e3d41360e01b815260040160405180910390fd5b826001600160c01b0316816002015f8282546111ac9190612f31565b92505081905550826001600160c01b0316816003015f8282546111cf9190612ec5565b909155505060405163a9059cbb60e01b81523360048201526001600160c01b03841660248201527f00000000000000000000000000000000000000000000000000000000000000006001600160a01b03169063a9059cbb906044016020604051808303815f875af1158015611246573d5f803e3d5ffd5b505050506040513d601f19601f8201168201806040525081019061091d9190612f16565b5f6112776107e083612f44565b6112819083612f31565b92915050565b604080516101e0810182525f8082526020820181905291810182905260608082018390526080820183905260a0820183905260c0820183905260e0820183905261010082018390526101208201839052610140820183905261016082019290925261018081018290526101a081018290526101c08101919091526007828154811061131457611314612e9d565b5f918252602091829020604080516101e081018252600b90930290910180546001600160a01b038116845263ffffffff600160a01b820416948401949094526001600160401b03600160c01b909404841691830191909152600181015492831660608301529091608083019060ff600160401b90910416600481111561139c5761139c612a37565b60048111156113ad576113ad612a37565b81526020016001820160099054906101000a90046001600160a01b03166001600160a01b03166001600160a01b031681526020016002820154815260200160038201548152602001600482015481526020016005820154815260200160068201548152602001600782015481526020016008820180548060200260200160405190810160405280929190818152602001828054801561146957602002820191905f5260205f20905b815481526020019060010190808311611455575b50505050508152602001600982018054806020026020016040519081016040528092919081815260200182805480156114c957602002820191905f5260205f20905b81546001600160c01b031681526001909101906020018083116114ab575b50505050508152602001600a82018054806020026020016040519081016040528092919081815260200182805480156110ca57602002820191905f5260205f20905f905b82829054906101000a90046001600160401b03166001600160401b03168152602001906008019060208260070104928301926001038202915080841161150d5790505050505050815250509050919050565b8451158061156f57508351855114155b1561158d5760405163744bba7b60e01b815260040160405180910390fd5b5f5b84518110156115e5578481815181106115aa576115aa612e9d565b60200260200101516001600160c01b03165f036115dd57604051633143436b60e11b81526004810182905260240161059a565b60010161158f565b505f805f87516001600160401b03811115611602576116026127c4565b60405190808252806020026020018201604052801561162b578160200160208202803683370190505b5090505f5b8751811015611757575f60068a838151811061164e5761164e612e9d565b60200260200101518154811061166657611666612e9d565b5f91825260209091206004600590920201015489516001600160401b03909116915089908390811061169a5761169a612e9d565b60200260200101516001600160c01b0316856116b69190612ec5565b94505f6117058a84815181106116ce576116ce612e9d565b60200260200101516001600160c01b03167f0000000000000000000000000000000000000000000000000000000000000000612183565b90505f6117128383612f03565b905061171e8187612ec5565b95508085858151811061173357611733612e9d565b6001600160401b039290921660209283029190910190910152505050600101611630565b5061176184611fed565b5f805b89518110156118e257600283828151811061178157611781612e9d565b602002602001015160068c848151811061179d5761179d612e9d565b6020026020010151815481106117b5576117b5612e9d565b5f91825260209182902060046005909202010154604080516001600160401b03909416928401929092526001600160501b0319600160401b90910460501b16908201526060810184905260800160408051601f198184030181529082905261181c91612f57565b602060405180830381855afa158015611837573d5f803e3d5ffd5b5050506040513d601f19601f8201168201806040525081019061185a9190612f6d565b915060068a828151811061187057611870612e9d565b60200260200101518154811061188857611888612e9d565b905f5260205f209060050201600201548982815181106118aa576118aa612e9d565b60200260200101516001600160c01b031611156118da57604051634323a55560e01b815260040160405180910390fd5b600101611764565b50600754604080516001600160a01b038a16602082015242918101919091524660608201526080810183905260a08101919091525f9060c00160408051601f1981840301815282825280516020918201206101e0840183526001600160a01b038f1684525f9184018290526001600160401b034216928401929092526060830152915060079060808101600181526020018a6001600160a01b031681526020018481526020018381526020018981526020018781526020015f81526020015f801b81526020018c81526020018b815260200185815250908060018154018082558091505060019003905f5260205f2090600b02015f909190919091505f820151815f015f6101000a8154816001600160a01b0302191690836001600160a01b031602179055506020820151815f0160146101000a81548163ffffffff021916908363ffffffff1602179055506040820151815f0160186101000a8154816001600160401b0302191690836001600160401b031602179055506060820151816001015f6101000a8154816001600160401b0302191690836001600160401b0316021790555060808201518160010160086101000a81548160ff02191690836004811115611ab057611ab0612a37565b021790555060a08201516001820180546001600160a01b039092166901000000000000000000027fffffff0000000000000000000000000000000000000000ffffffffffffffffff90921691909117905560c0820151600282015560e0820151600382015561010082015160048201556101208201516005820155610140820151600682015561016082015160078201556101808201518051611b5d91600884019160209091019061260f565b506101a08201518051611b7a916009840191602090910190612658565b506101c08201518051611b9791600a8401916020909101906126ab565b5050505f5b8a51811015611c1e57898181518110611bb757611bb7612e9d565b60200260200101516001600160c01b031660068c8381518110611bdc57611bdc612e9d565b602002602001015181548110611bf457611bf4612e9d565b905f5260205f2090600502016002015f828254611c119190612f31565b9091555050600101611b9c565b508a6001600160a01b03167f5956135c9be999a50f7ff4ea49ddf1485bc321ab333dc7a0877633eeb47528936001611c5560075490565b611c5f9190612f31565b6040805191825260208201859052015b60405180910390a25050505050505050505050565b5f60078a81548110611c9857611c98612e9d565b5f9182526020909120600b909102019050600180820154600160401b900460ff166004811115611cca57611cca612a37565b14611ce857604051639085371960e01b815260040160405180910390fd5b5f6040518061016001604052808b81526020018a8152602001836002015481526020018360030154815260200183600801805490506001600160401b03168152602001611d3d6105438b63ffffffff1661126a565b815263ffffffff8a1660208201819052604090910190611d5d908a612f84565b6001600160401b03168152602001611d758989612f84565b6001600160401b0316815260200186815260200185815250604051602001611d9d9190612fa3565b60408051601f198184030181529082905263020a49e360e51b825291506001600160a01b037f000000000000000000000000000000000000000000000000000000000000000016906341493c6090611e1d907f000000000000000000000000000000000000000000000000000000000000000090859088906004016130a4565b5f6040518083038186803b158015611e33575f80fd5b505afa158015611e45573d5f803e3d5ffd5b50611e7c9250505063ffffffff89166001600160401b038981169089168888611e6e858e612f84565b6001600160401b03166121be565b60018201805460ff60401b191668020000000000000000179055611ea261012c426130d8565b60018301805467ffffffffffffffff19166001600160401b039283161790558716600683015584611ed963ffffffff8a1689612f84565b6001600160401b031681518110611ef257611ef2612e9d565b60200260200101518260070181905550336001600160a01b03167f8bcdab581a6176f792fa96b0c57d32273bcd8621b0548c15a9c6379dc246e26c8c8460030154604051611c6f929190918252602082015260400190565b5f81815260208190526040902054611f755760405163fa4a5e4560e01b815260040160405180910390fd5b50565b6004546001600160a01b03163314611fa25760405162461bcd60e51b815260040161059a90612e77565b600480546001600160a01b0319166001600160a01b03831690811790915560405133907f8be0079c531659141344cd1fd0a4f28419497f9722a3daafe3b4186f6b6457e0905f90a350565b611ff68161255e565b5f5b81518110156120f7575f600783838151811061201657612016612e9d565b60200260200101518154811061202e5761202e612e9d565b905f5260205f2090600b020190505f5b60088201548110156120d5575f600683600801838154811061206257612062612e9d565b905f5260205f2001548154811061207b5761207b612e9d565b905f5260205f209060050201905082600901828154811061209e5761209e612e9d565b5f9182526020822001546002830180546001600160c01b039092169290916120c7908490612ec5565b90915550505060010161203e565b506001908101805460ff60401b19166804000000000000000017905501611ff8565b5050565b611f758160405160240161210f91906130f7565b60408051601f198184030181529190526020810180516001600160e01b031663104c13eb60e21b1790526125ef565b611f758160405160240161215491815260200190565b60408051601f198184030181529190526020810180516001600160e01b03166327b7cf8560e01b1790526125ef565b5f60128260ff1610156121b75761219b826012613109565b6121a690600a613205565b6121b09084612ed8565b9050611281565b5090919050565b6002545f8181526001602052604090205460ff7f0000000000000000000000000000000000000000000000000000000000000000166121fd8888612f31565b1015612257575f868152602081905260409020548551869061222190600190612f31565b8151811061223157612231612e9d565b602002602001015114612257576040516341305f6360e01b815260040160405180910390fd5b818811156122785760405163575f3da360e01b815260040160405180910390fd5b84838151811061228a5761228a612e9d565b60200260200101515f808981526020019081526020015f2054036122af57505061091d565b5f87815260208190526040902054158015906122f1575083600185516122d59190612f31565b815181106122e5576122e5612e9d565b60200260200101518110155b1561230f576040516371e98f3d60e11b815260040160405180910390fd5b81871115612415578188036123805784838151811061233057612330612e9d565b60200260200101515f808981526020019081526020015f208190555083838151811061235e5761235e612e9d565b602002602001015160015f8981526020019081526020015f208190555061247b565b8188101561241057875b87811161240e578561239c8a83612f31565b815181106123ac576123ac612e9d565b6020908102919091018101515f83815291829052604090912055846123d18a83612f31565b815181106123e1576123e1612e9d565b6020908102919091018101515f83815260019092526040909120558061240681613213565b91505061238a565b505b61247b565b8187101561247b5784838151811061242f5761242f612e9d565b60200260200101515f808981526020019081526020015f208190555083838151811061245d5761245d612e9d565b602002602001015160015f8981526020019081526020015f20819055505b60025487111561248b5760028790555b5f6124958861126a565b90505f6124a18861126a565b9050818114612516575f6124b5828a612f31565b90508781815181106124c9576124c9612e9d565b60200260200101515f808481526020019081526020015f20819055508681815181106124f7576124f7612e9d565b602002602001015160015f8481526020019081526020015f2081905550505b8651604080518c815260208101929092527fb68477c768bbb33b4f238a3dfd17c33c499268c59cd042b7936bbc23dc2bdd34910160405180910390a150505050505050505050565b5f5b81518110156120f75761708063ffffffff16600783838151811061258657612586612e9d565b60200260200101518154811061259e5761259e612e9d565b5f9182526020909120600b90910201546125c890600160c01b90046001600160401b031642612f31565b10156125e7576040516326349d6b60e01b815260040160405180910390fd5b600101612560565b80516a636f6e736f6c652e6c6f67602083015f808483855afa5050505050565b828054828255905f5260205f20908101928215612648579160200282015b8281111561264857825182559160200191906001019061262d565b50612654929150612757565b5090565b828054828255905f5260205f20908101928215612648579160200282015b8281111561264857825182546001600160c01b0319166001600160c01b03909116178255602090920191600190910190612676565b828054828255905f5260205f2090600301600490048101928215612648579160200282015f5b8382111561271b57835183826101000a8154816001600160401b0302191690836001600160401b0316021790555092602001926008016020816007010492830192600103026126d1565b801561274e5782816101000a8154906001600160401b03021916905560080160208160070104928301926001030261271b565b50506126549291505b5b80821115612654575f8155600101612758565b5f6020828403121561277b575f80fd5b813560ff8116811461278b575f80fd5b9392505050565b5f602082840312156127a2575f80fd5b5035919050565b80356001600160401b03811681146127bf575f80fd5b919050565b634e487b7160e01b5f52604160045260245ffd5b604051601f8201601f191681016001600160401b0381118282101715612800576128006127c4565b604052919050565b5f6001600160401b03821115612820576128206127c4565b5060051b60200190565b5f82601f830112612839575f80fd5b813561284c61284782612808565b6127d8565b8082825260208201915060208360051b86010192508583111561286d575f80fd5b602085015b8381101561288a578035835260209283019201612872565b5095945050505050565b5f805f80608085870312156128a7575f80fd5b84359350602085013592506128be604086016127a9565b915060608501356001600160401b038111156128d8575f80fd5b6128e48782880161282a565b91505092959194509250565b6001600160a01b0381168114611f75575f80fd5b5f60208284031215612914575f80fd5b813561278b816128f0565b8015158114611f75575f80fd5b5f6020828403121561293c575f80fd5b813561278b8161291f565b5f805f60608486031215612959575f80fd5b83359250612969602085016127a9565b915060408401356001600160501b031981168114612985575f80fd5b809150509250925092565b80356127bf816128f0565b5f8151808452602084019350602083015f5b828110156129cb5781518652602095860195909101906001016129ad565b5093949350505050565b602081525f82516020808401526129ef604084018261299b565b949350505050565b80356001600160c01b03811681146127bf575f80fd5b5f805f8060808587031215612a20575f80fd5b84359350602085013592506128be604086016129f7565b634e487b7160e01b5f52602160045260245ffd5b60058110612a6757634e487b7160e01b5f52602160045260245ffd5b9052565b5f8151808452602084019350602083015f5b828110156129cb5781516001600160c01b0316865260209586019590910190600101612a7d565b5f8151808452602084019350602083015f5b828110156129cb5781516001600160401b0316865260209586019590910190600101612ab6565b60208152612af76020820183516001600160a01b03169052565b5f6020830151612b0f604084018263ffffffff169052565b5060408301516001600160401b03811660608401525060608301516001600160401b0381166080840152506080830151612b4c60a0840182612a4b565b5060a08301516001600160a01b03811660c08401525060c083015160e083015260e08301516101008301526101008301516101208301526101208301516101408301526101408301516101608301526101608301516101808301526101808301516101e06101a0840152612bc461020084018261299b565b90506101a0840151601f19848303016101c0850152612be38282612a6b565b9150506101c0840151601f19848303016101e0850152612c038282612aa4565b95945050505050565b5f805f805f8060c08789031215612c21575f80fd5b8635612c2c816128f0565b955060208701356001600160401b03811115612c46575f80fd5b612c5289828a0161282a565b95505060408701356001600160401b03811115612c6d575f80fd5b8701601f81018913612c7d575f80fd5b8035612c8b61284782612808565b8082825260208201915060208360051b85010192508b831115612cac575f80fd5b6020840193505b82841015612cd557612cc4846129f7565b825260209384019390910190612cb3565b9650612ce79250505060608801612990565b92506080870135915060a08701356001600160401b03811115612d08575f80fd5b612d1489828a0161282a565b9150509295509295509295565b803563ffffffff811681146127bf575f80fd5b5f82601f830112612d43575f80fd5b81356001600160401b03811115612d5c57612d5c6127c4565b612d6f601f8201601f19166020016127d8565b818152846020838601011115612d83575f80fd5b816020850160208301375f918101602001919091529392505050565b5f805f805f805f805f6101208a8c031215612db8575f80fd5b8935985060208a0135975060408a01359650612dd660608b01612d21565b9550612de460808b016127a9565b9450612df260a08b016127a9565b935060c08a01356001600160401b03811115612e0c575f80fd5b612e188c828d0161282a565b93505060e08a01356001600160401b03811115612e33575f80fd5b612e3f8c828d0161282a565b9250506101008a01356001600160401b03811115612e5b575f80fd5b612e678c828d01612d34565b9150509295985092959850929598565b6020808252600c908201526b15539055551213d49256915160a21b604082015260600190565b634e487b7160e01b5f52603260045260245ffd5b634e487b7160e01b5f52601160045260245ffd5b8082018082111561128157611281612eb1565b808202811582820484141761128157611281612eb1565b634e487b7160e01b5f52601260045260245ffd5b5f82612f1157612f11612eef565b500490565b5f60208284031215612f26575f80fd5b815161278b8161291f565b8181038181111561128157611281612eb1565b5f82612f5257612f52612eef565b500690565b5f82518060208501845e5f920191825250919050565b5f60208284031215612f7d575f80fd5b5051919050565b6001600160401b03828116828216039081111561128157611281612eb1565b60208152815160208201526020820151604082015260408201516060820152606082015160808201525f6080830151612fe760a08401826001600160401b03169052565b5060a083015160c083015260c083015161300c60e08401826001600160401b03169052565b5060e08301516001600160401b038116610100840152506101008301516001600160401b0381166101208401525061012083015161016061014084015261305761018084018261299b565b9050610140840151601f1984830301610160850152612c03828261299b565b5f81518084528060208401602086015e5f602082860101526020601f19601f83011685010191505092915050565b838152606060208201525f6130bc6060830185613076565b82810360408401526130ce8185613076565b9695505050505050565b6001600160401b03818116838216019081111561128157611281612eb1565b602081525f61278b6020830184613076565b60ff828116828216039081111561128157611281612eb1565b6001815b600184111561315d5780850481111561314157613141612eb1565b600184161561314f57908102905b60019390931c928002613126565b935093915050565b5f8261317357506001611281565b8161317f57505f611281565b8160018114613195576002811461319f576131bb565b6001915050611281565b60ff8411156131b0576131b0612eb1565b50506001821b611281565b5060208310610133831016604e8410600b84101617156131de575081810a611281565b6131ea5f198484613122565b805f19048211156131fd576131fd612eb1565b029392505050565b5f61278b60ff841683613165565b5f6001820161322457613224612eb1565b506001019056fea26469706673582212204d51d537ea0639dfb73aadc11b3382a7bef2b970e7934cb7ea3e613906a14bea64736f6c634300081a0033","linkReferences":{}},"methodIdentifiers":{"CHALLENGE_PERIOD()":"c3a079ed","CIRCUIT_VERIFICATION_KEY()":"8d5ca052","DEPOSIT_TOKEN()":"13f66587","RESERVATION_LOCKUP_PERIOD()":"89a11f7a","TOKEN_DECIMALS()":"5b7f415c","VERIFIER_CONTRACT()":"b8b24592","calculateRetargetHeight(uint256)":"b9b2a982","currentConfirmationHeight()":"fba78166","currentHeight()":"163de0c5","depositLiquidity(uint256,uint64,bytes22)":"803d5f62","getAreDepositsPaused()":"b01c27d1","getBlockHash(uint256)":"ee82ac5e","getChainwork(uint256)":"cda7d82c","getDepositVault(uint256)":"276d080e","getDepositVaultUnreservedBalance(uint256)":"6512d057","getDepositVaultsLength()":"7dce5550","getLiquidityProvider(address)":"98f9e757","getReservation(uint256)":"d57763c3","getReservationLength()":"ea6fe03e","isDepositNewLiquidityPaused()":"8cc63cdd","owner()":"8da5cb5b","protocolFeeBP()":"c5fba0b8","releaseLiquidity(uint256)":"77891907","reserveLiquidity(address,uint256[],uint192[],address,uint256,uint256[])":"d8418403","submitSwapProof(uint256,bytes32,bytes32,uint32,uint64,uint64,bytes32[],uint256[],bytes)":"ecdea06f","transferOwnership(address)":"f2fde38b","updateExchangeRate(uint256,uint256,uint64,uint256[])":"56fe6f86","updateFeeRouter(address)":"73e149e6","updateNewLiquidityDepositsPaused(bool)":"7a9059a2","updateProtocolFee(uint8)":"0a7aa293","validateBlockExists(uint256)":"ed8b2b32","withdrawLiquidity(uint256,uint256,uint192,uint256[])":"aeacb2e7"},"storageLayout":{"storage":[{"astId":47993,"contract":"src/RiftExchange.sol:RiftExchange","label":"blockchain","offset":0,"slot":"0","type":"t_mapping(t_uint256,t_bytes32)"},{"astId":47997,"contract":"src/RiftExchange.sol:RiftExchange","label":"chainworks","offset":0,"slot":"1","type":"t_mapping(t_uint256,t_uint256)"},{"astId":47999,"contract":"src/RiftExchange.sol:RiftExchange","label":"currentHeight","offset":0,"slot":"2","type":"t_uint256"},{"astId":48001,"contract":"src/RiftExchange.sol:RiftExchange","label":"currentConfirmationHeight","offset":0,"slot":"3","type":"t_uint256"},{"astId":46637,"contract":"src/RiftExchange.sol:RiftExchange","label":"owner","offset":0,"slot":"4","type":"t_address"},{"astId":49398,"contract":"src/RiftExchange.sol:RiftExchange","label":"isDepositNewLiquidityPaused","offset":20,"slot":"4","type":"t_bool"},{"astId":49401,"contract":"src/RiftExchange.sol:RiftExchange","label":"protocolFeeBP","offset":21,"slot":"4","type":"t_uint8"},{"astId":49403,"contract":"src/RiftExchange.sol:RiftExchange","label":"feeRouterAddress","offset":0,"slot":"5","type":"t_address"},{"astId":49407,"contract":"src/RiftExchange.sol:RiftExchange","label":"depositVaults","offset":0,"slot":"6","type":"t_array(t_struct(DepositVault)49348_storage)dyn_storage"},{"astId":49411,"contract":"src/RiftExchange.sol:RiftExchange","label":"swapReservations","offset":0,"slot":"7","type":"t_array(t_struct(SwapReservation)49329_storage)dyn_storage"},{"astId":49416,"contract":"src/RiftExchange.sol:RiftExchange","label":"liquidityProviders","offset":0,"slot":"8","type":"t_mapping(t_address,t_struct(LiquidityProvider)49333_storage)"}],"types":{"t_address":{"encoding":"inplace","label":"address","numberOfBytes":"20"},"t_array(t_struct(DepositVault)49348_storage)dyn_storage":{"encoding":"dynamic_array","label":"struct RiftExchange.DepositVault[]","numberOfBytes":"32","base":"t_struct(DepositVault)49348_storage"},"t_array(t_struct(SwapReservation)49329_storage)dyn_storage":{"encoding":"dynamic_array","label":"struct RiftExchange.SwapReservation[]","numberOfBytes":"32","base":"t_struct(SwapReservation)49329_storage"},"t_array(t_uint192)dyn_storage":{"encoding":"dynamic_array","label":"uint192[]","numberOfBytes":"32","base":"t_uint192"},"t_array(t_uint256)dyn_storage":{"encoding":"dynamic_array","label":"uint256[]","numberOfBytes":"32","base":"t_uint256"},"t_array(t_uint64)dyn_storage":{"encoding":"dynamic_array","label":"uint64[]","numberOfBytes":"32","base":"t_uint64"},"t_bool":{"encoding":"inplace","label":"bool","numberOfBytes":"1"},"t_bytes22":{"encoding":"inplace","label":"bytes22","numberOfBytes":"22"},"t_bytes32":{"encoding":"inplace","label":"bytes32","numberOfBytes":"32"},"t_enum(ReservationState)49294":{"encoding":"inplace","label":"enum RiftExchange.ReservationState","numberOfBytes":"1"},"t_mapping(t_address,t_struct(LiquidityProvider)49333_storage)":{"encoding":"mapping","key":"t_address","label":"mapping(address => struct RiftExchange.LiquidityProvider)","numberOfBytes":"32","value":"t_struct(LiquidityProvider)49333_storage"},"t_mapping(t_uint256,t_bytes32)":{"encoding":"mapping","key":"t_uint256","label":"mapping(uint256 => bytes32)","numberOfBytes":"32","value":"t_bytes32"},"t_mapping(t_uint256,t_uint256)":{"encoding":"mapping","key":"t_uint256","label":"mapping(uint256 => uint256)","numberOfBytes":"32","value":"t_uint256"},"t_struct(DepositVault)49348_storage":{"encoding":"inplace","label":"struct RiftExchange.DepositVault","numberOfBytes":"160","members":[{"astId":49335,"contract":"src/RiftExchange.sol:RiftExchange","label":"owner","offset":0,"slot":"0","type":"t_address"},{"astId":49337,"contract":"src/RiftExchange.sol:RiftExchange","label":"depositTimestamp","offset":20,"slot":"0","type":"t_uint64"},{"astId":49339,"contract":"src/RiftExchange.sol:RiftExchange","label":"initialBalance","offset":0,"slot":"1","type":"t_uint256"},{"astId":49341,"contract":"src/RiftExchange.sol:RiftExchange","label":"unreservedBalance","offset":0,"slot":"2","type":"t_uint256"},{"astId":49343,"contract":"src/RiftExchange.sol:RiftExchange","label":"withdrawnAmount","offset":0,"slot":"3","type":"t_uint256"},{"astId":49345,"contract":"src/RiftExchange.sol:RiftExchange","label":"exchangeRate","offset":0,"slot":"4","type":"t_uint64"},{"astId":49347,"contract":"src/RiftExchange.sol:RiftExchange","label":"btcPayoutLockingScript","offset":8,"slot":"4","type":"t_bytes22"}]},"t_struct(LiquidityProvider)49333_storage":{"encoding":"inplace","label":"struct RiftExchange.LiquidityProvider","numberOfBytes":"32","members":[{"astId":49332,"contract":"src/RiftExchange.sol:RiftExchange","label":"depositVaultIndexes","offset":0,"slot":"0","type":"t_array(t_uint256)dyn_storage"}]},"t_struct(SwapReservation)49329_storage":{"encoding":"inplace","label":"struct RiftExchange.SwapReservation","numberOfBytes":"352","members":[{"astId":49296,"contract":"src/RiftExchange.sol:RiftExchange","label":"owner","offset":0,"slot":"0","type":"t_address"},{"astId":49298,"contract":"src/RiftExchange.sol:RiftExchange","label":"confirmationBlockHeight","offset":20,"slot":"0","type":"t_uint32"},{"astId":49300,"contract":"src/RiftExchange.sol:RiftExchange","label":"reservationTimestamp","offset":24,"slot":"0","type":"t_uint64"},{"astId":49302,"contract":"src/RiftExchange.sol:RiftExchange","label":"liquidityUnlockedTimestamp","offset":0,"slot":"1","type":"t_uint64"},{"astId":49305,"contract":"src/RiftExchange.sol:RiftExchange","label":"state","offset":8,"slot":"1","type":"t_enum(ReservationState)49294"},{"astId":49307,"contract":"src/RiftExchange.sol:RiftExchange","label":"ethPayoutAddress","offset":9,"slot":"1","type":"t_address"},{"astId":49309,"contract":"src/RiftExchange.sol:RiftExchange","label":"lpReservationHash","offset":0,"slot":"2","type":"t_bytes32"},{"astId":49311,"contract":"src/RiftExchange.sol:RiftExchange","label":"nonce","offset":0,"slot":"3","type":"t_bytes32"},{"astId":49313,"contract":"src/RiftExchange.sol:RiftExchange","label":"totalSatsInputIncludingProxyFee","offset":0,"slot":"4","type":"t_uint256"},{"astId":49315,"contract":"src/RiftExchange.sol:RiftExchange","label":"totalSwapOutputAmount","offset":0,"slot":"5","type":"t_uint256"},{"astId":49317,"contract":"src/RiftExchange.sol:RiftExchange","label":"proposedBlockHeight","offset":0,"slot":"6","type":"t_uint256"},{"astId":49319,"contract":"src/RiftExchange.sol:RiftExchange","label":"proposedBlockHash","offset":0,"slot":"7","type":"t_bytes32"},{"astId":49322,"contract":"src/RiftExchange.sol:RiftExchange","label":"vaultIndexes","offset":0,"slot":"8","type":"t_array(t_uint256)dyn_storage"},{"astId":49325,"contract":"src/RiftExchange.sol:RiftExchange","label":"amountsToReserve","offset":0,"slot":"9","type":"t_array(t_uint192)dyn_storage"},{"astId":49328,"contract":"src/RiftExchange.sol:RiftExchange","label":"expectedSatsOutput","offset":0,"slot":"10","type":"t_array(t_uint64)dyn_storage"}]},"t_uint192":{"encoding":"inplace","label":"uint192","numberOfBytes":"24"},"t_uint256":{"encoding":"inplace","label":"uint256","numberOfBytes":"32"},"t_uint32":{"encoding":"inplace","label":"uint32","numberOfBytes":"4"},"t_uint64":{"encoding":"inplace","label":"uint64","numberOfBytes":"8"},"t_uint8":{"encoding":"inplace","label":"uint8","numberOfBytes":"1"}}},"id":32}