{"abi":[{"type":"constructor","inputs":[{"name":"initialCheckpointHeight","type":"uint256","internalType":"uint256"},{"name":"initialBlockHash","type":"bytes32","internalType":"bytes32"},{"name":"initialRetargetBlockHash","type":"bytes32","internalType":"bytes32"},{"name":"initialChainwork","type":"uint256","internalType":"uint256"},{"name":"verifierContractAddress","type":"address","internalType":"address"},{"name":"depositTokenAddress","type":"address","internalType":"address"},{"name":"initialFeeRouterAddress","type":"address","internalType":"address"},{"name":"owner","type":"address","internalType":"address"},{"name":"circuitVerificationKey","type":"bytes32","internalType":"bytes32"},{"name":"minimumConfirmationDelta","type":"uint8","internalType":"uint8"}],"stateMutability":"nonpayable"},{"type":"function","name":"CHALLENGE_PERIOD","inputs":[],"outputs":[{"name":"","type":"uint32","internalType":"uint32"}],"stateMutability":"view"},{"type":"function","name":"CIRCUIT_VERIFICATION_KEY","inputs":[],"outputs":[{"name":"","type":"bytes32","internalType":"bytes32"}],"stateMutability":"view"},{"type":"function","name":"DEPOSIT_TOKEN","inputs":[],"outputs":[{"name":"","type":"address","internalType":"contract IERC20"}],"stateMutability":"view"},{"type":"function","name":"RESERVATION_LOCKUP_PERIOD","inputs":[],"outputs":[{"name":"","type":"uint32","internalType":"uint32"}],"stateMutability":"view"},{"type":"function","name":"TOKEN_DECIMALS","inputs":[],"outputs":[{"name":"","type":"uint8","internalType":"uint8"}],"stateMutability":"view"},{"type":"function","name":"VERIFIER_CONTRACT","inputs":[],"outputs":[{"name":"","type":"address","internalType":"contract ISP1Verifier"}],"stateMutability":"view"},{"type":"function","name":"calculateRetargetHeight","inputs":[{"name":"blockHeight","type":"uint256","internalType":"uint256"}],"outputs":[{"name":"","type":"uint256","internalType":"uint256"}],"stateMutability":"pure"},{"type":"function","name":"currentConfirmationHeight","inputs":[],"outputs":[{"name":"","type":"uint256","internalType":"uint256"}],"stateMutability":"view"},{"type":"function","name":"currentHeight","inputs":[],"outputs":[{"name":"","type":"uint256","internalType":"uint256"}],"stateMutability":"view"},{"type":"function","name":"depositLiquidity","inputs":[{"name":"depositAmount","type":"uint256","internalType":"uint256"},{"name":"exchangeRate","type":"uint64","internalType":"uint64"},{"name":"btcPayoutLockingScript","type":"bytes22","internalType":"bytes22"}],"outputs":[],"stateMutability":"nonpayable"},{"type":"function","name":"depositVaults","inputs":[{"name":"","type":"uint256","internalType":"uint256"}],"outputs":[{"name":"owner","type":"address","internalType":"address"},{"name":"depositTimestamp","type":"uint64","internalType":"uint64"},{"name":"initialBalance","type":"uint256","internalType":"uint256"},{"name":"unreservedBalance","type":"uint256","internalType":"uint256"},{"name":"withdrawnAmount","type":"uint256","internalType":"uint256"},{"name":"exchangeRate","type":"uint64","internalType":"uint64"},{"name":"btcPayoutLockingScript","type":"bytes22","internalType":"bytes22"}],"stateMutability":"view"},{"type":"function","name":"getAreDepositsPaused","inputs":[],"outputs":[{"name":"","type":"bool","internalType":"bool"}],"stateMutability":"view"},{"type":"function","name":"getBlockHash","inputs":[{"name":"blockHeight","type":"uint256","internalType":"uint256"}],"outputs":[{"name":"","type":"bytes32","internalType":"bytes32"}],"stateMutability":"view"},{"type":"function","name":"getChainwork","inputs":[{"name":"blockHeight","type":"uint256","internalType":"uint256"}],"outputs":[{"name":"","type":"uint256","internalType":"uint256"}],"stateMutability":"view"},{"type":"function","name":"getDepositVault","inputs":[{"name":"depositIndex","type":"uint256","internalType":"uint256"}],"outputs":[{"name":"","type":"tuple","internalType":"struct RiftExchange.DepositVault","components":[{"name":"owner","type":"address","internalType":"address"},{"name":"depositTimestamp","type":"uint64","internalType":"uint64"},{"name":"initialBalance","type":"uint256","internalType":"uint256"},{"name":"unreservedBalance","type":"uint256","internalType":"uint256"},{"name":"withdrawnAmount","type":"uint256","internalType":"uint256"},{"name":"exchangeRate","type":"uint64","internalType":"uint64"},{"name":"btcPayoutLockingScript","type":"bytes22","internalType":"bytes22"}]}],"stateMutability":"view"},{"type":"function","name":"getDepositVaultUnreservedBalance","inputs":[{"name":"depositIndex","type":"uint256","internalType":"uint256"}],"outputs":[{"name":"","type":"uint256","internalType":"uint256"}],"stateMutability":"view"},{"type":"function","name":"getDepositVaultsLength","inputs":[],"outputs":[{"name":"","type":"uint256","internalType":"uint256"}],"stateMutability":"view"},{"type":"function","name":"getLiquidityProvider","inputs":[{"name":"lpAddress","type":"address","internalType":"address"}],"outputs":[{"name":"","type":"tuple","internalType":"struct RiftExchange.LiquidityProvider","components":[{"name":"depositVaultIndexes","type":"uint256[]","internalType":"uint256[]"}]}],"stateMutability":"view"},{"type":"function","name":"getReservation","inputs":[{"name":"reservationIndex","type":"uint256","internalType":"uint256"}],"outputs":[{"name":"","type":"tuple","internalType":"struct RiftExchange.SwapReservation","components":[{"name":"owner","type":"address","internalType":"address"},{"name":"confirmationBlockHeight","type":"uint32","internalType":"uint32"},{"name":"reservationTimestamp","type":"uint64","internalType":"uint64"},{"name":"liquidityUnlockedTimestamp","type":"uint64","internalType":"uint64"},{"name":"state","type":"uint8","internalType":"enum RiftExchange.ReservationState"},{"name":"ethPayoutAddress","type":"address","internalType":"address"},{"name":"lpReservationHash","type":"bytes32","internalType":"bytes32"},{"name":"nonce","type":"bytes32","internalType":"bytes32"},{"name":"totalSatsInputIncludingProxyFee","type":"uint256","internalType":"uint256"},{"name":"totalSwapOutputAmount","type":"uint256","internalType":"uint256"},{"name":"proposedBlockHeight","type":"uint256","internalType":"uint256"},{"name":"proposedBlockHash","type":"bytes32","internalType":"bytes32"},{"name":"vaultIndexes","type":"uint256[]","internalType":"uint256[]"},{"name":"amountsToReserve","type":"uint192[]","internalType":"uint192[]"},{"name":"expectedSatsOutput","type":"uint64[]","internalType":"uint64[]"}]}],"stateMutability":"view"},{"type":"function","name":"getReservationLength","inputs":[],"outputs":[{"name":"","type":"uint256","internalType":"uint256"}],"stateMutability":"view"},{"type":"function","name":"isDepositNewLiquidityPaused","inputs":[],"outputs":[{"name":"","type":"bool","internalType":"bool"}],"stateMutability":"view"},{"type":"function","name":"owner","inputs":[],"outputs":[{"name":"","type":"address","internalType":"address"}],"stateMutability":"view"},{"type":"function","name":"protocolFeeBP","inputs":[],"outputs":[{"name":"","type":"uint8","internalType":"uint8"}],"stateMutability":"view"},{"type":"function","name":"releaseLiquidity","inputs":[{"name":"swapReservationIndex","type":"uint256","internalType":"uint256"}],"outputs":[],"stateMutability":"nonpayable"},{"type":"function","name":"reserveLiquidity","inputs":[{"name":"reservationOwner","type":"address","internalType":"address"},{"name":"vaultIndexesToReserve","type":"uint256[]","internalType":"uint256[]"},{"name":"amountsToReserve","type":"uint192[]","internalType":"uint192[]"},{"name":"ethPayoutAddress","type":"address","internalType":"address"},{"name":"totalSatsInputIncludingProxyFee","type":"uint256","internalType":"uint256"},{"name":"expiredSwapReservationIndexes","type":"uint256[]","internalType":"uint256[]"}],"outputs":[],"stateMutability":"nonpayable"},{"type":"function","name":"submitSwapProof","inputs":[{"name":"swapReservationIndex","type":"uint256","internalType":"uint256"},{"name":"bitcoinTxId","type":"bytes32","internalType":"bytes32"},{"name":"merkleRoot","type":"bytes32","internalType":"bytes32"},{"name":"safeBlockHeight","type":"uint32","internalType":"uint32"},{"name":"proposedBlockHeight","type":"uint64","internalType":"uint64"},{"name":"confirmationBlockHeight","type":"uint64","internalType":"uint64"},{"name":"blockHashes","type":"bytes32[]","internalType":"bytes32[]"},{"name":"blockChainworks","type":"uint256[]","internalType":"uint256[]"},{"name":"proof","type":"bytes","internalType":"bytes"}],"outputs":[],"stateMutability":"nonpayable"},{"type":"function","name":"swapReservations","inputs":[{"name":"","type":"uint256","internalType":"uint256"}],"outputs":[{"name":"owner","type":"address","internalType":"address"},{"name":"confirmationBlockHeight","type":"uint32","internalType":"uint32"},{"name":"reservationTimestamp","type":"uint64","internalType":"uint64"},{"name":"liquidityUnlockedTimestamp","type":"uint64","internalType":"uint64"},{"name":"state","type":"uint8","internalType":"enum RiftExchange.ReservationState"},{"name":"ethPayoutAddress","type":"address","internalType":"address"},{"name":"lpReservationHash","type":"bytes32","internalType":"bytes32"},{"name":"nonce","type":"bytes32","internalType":"bytes32"},{"name":"totalSatsInputIncludingProxyFee","type":"uint256","internalType":"uint256"},{"name":"totalSwapOutputAmount","type":"uint256","internalType":"uint256"},{"name":"proposedBlockHeight","type":"uint256","internalType":"uint256"},{"name":"proposedBlockHash","type":"bytes32","internalType":"bytes32"}],"stateMutability":"view"},{"type":"function","name":"transferOwnership","inputs":[{"name":"newOwner","type":"address","internalType":"address"}],"outputs":[],"stateMutability":"nonpayable"},{"type":"function","name":"updateExchangeRate","inputs":[{"name":"globalVaultIndex","type":"uint256","internalType":"uint256"},{"name":"newExchangeRate","type":"uint64","internalType":"uint64"},{"name":"expiredSwapReservationIndexes","type":"uint256[]","internalType":"uint256[]"}],"outputs":[],"stateMutability":"nonpayable"},{"type":"function","name":"updateFeeRouter","inputs":[{"name":"newProtocolAddress","type":"address","internalType":"address payable"}],"outputs":[],"stateMutability":"nonpayable"},{"type":"function","name":"updateNewLiquidityDepositsPaused","inputs":[{"name":"newPauseState","type":"bool","internalType":"bool"}],"outputs":[],"stateMutability":"nonpayable"},{"type":"function","name":"updateProtocolFee","inputs":[{"name":"newProtocolFeeBP","type":"uint8","internalType":"uint8"}],"outputs":[],"stateMutability":"nonpayable"},{"type":"function","name":"validateBlockExists","inputs":[{"name":"blockHeight","type":"uint256","internalType":"uint256"}],"outputs":[],"stateMutability":"view"},{"type":"function","name":"withdrawLiquidity","inputs":[{"name":"globalVaultIndex","type":"uint256","internalType":"uint256"},{"name":"localVaultIndex","type":"uint256","internalType":"uint256"},{"name":"amountToWithdraw","type":"uint192","internalType":"uint192"},{"name":"expiredSwapReservationIndexes","type":"uint256[]","internalType":"uint256[]"}],"outputs":[],"stateMutability":"nonpayable"},{"type":"event","name":"BlocksAdded","inputs":[{"name":"startBlockHeight","type":"uint256","indexed":false,"internalType":"uint256"},{"name":"count","type":"uint256","indexed":false,"internalType":"uint256"}],"anonymous":false},{"type":"event","name":"LiquidityDeposited","inputs":[{"name":"depositor","type":"address","indexed":true,"internalType":"address"},{"name":"depositVaultIndex","type":"uint256","indexed":false,"internalType":"uint256"},{"name":"amount","type":"uint256","indexed":false,"internalType":"uint256"},{"name":"exchangeRate","type":"uint64","indexed":false,"internalType":"uint64"}],"anonymous":false},{"type":"event","name":"LiquidityReserved","inputs":[{"name":"reserver","type":"address","indexed":true,"internalType":"address"},{"name":"swapReservationIndex","type":"uint256","indexed":false,"internalType":"uint256"},{"name":"orderNonce","type":"bytes32","indexed":false,"internalType":"bytes32"}],"anonymous":false},{"type":"event","name":"OwnershipTransferred","inputs":[{"name":"user","type":"address","indexed":true,"internalType":"address"},{"name":"newOwner","type":"address","indexed":true,"internalType":"address"}],"anonymous":false},{"type":"event","name":"ProofSubmitted","inputs":[{"name":"prover","type":"address","indexed":true,"internalType":"address"},{"name":"swapReservationIndex","type":"uint256","indexed":false,"internalType":"uint256"},{"name":"orderNonce","type":"bytes32","indexed":false,"internalType":"bytes32"}],"anonymous":false},{"type":"event","name":"SwapComplete","inputs":[{"name":"swapReservationIndex","type":"uint256","indexed":false,"internalType":"uint256"},{"name":"orderNonce","type":"bytes32","indexed":false,"internalType":"bytes32"}],"anonymous":false},{"type":"error","name":"AmountToReserveTooLow","inputs":[{"name":"index","type":"uint256","internalType":"uint256"}]},{"type":"error","name":"BlockDoesNotExist","inputs":[]},{"type":"error","name":"InvalidConfirmationBlock","inputs":[]},{"type":"error","name":"InvalidExchangeRate","inputs":[]},{"type":"error","name":"InvalidInputArrays","inputs":[]},{"type":"error","name":"InvalidProposedBlockOverwrite","inputs":[]},{"type":"error","name":"InvalidReservationState","inputs":[]},{"type":"error","name":"InvalidSafeBlock","inputs":[]},{"type":"error","name":"NewDepositsPaused","inputs":[]},{"type":"error","name":"NotEnoughLiquidity","inputs":[]},{"type":"error","name":"NotVaultOwner","inputs":[]},{"type":"error","name":"OverwrittenProposedBlock","inputs":[]},{"type":"error","name":"ReservationNotExpired","inputs":[]},{"type":"error","name":"ReservationNotProved","inputs":[]},{"type":"error","name":"StillInChallengePeriod","inputs":[]},{"type":"error","name":"UpdateExchangeRateError","inputs":[]},{"type":"error","name":"WithdrawalAmountError","inputs":[]}],"bytecode":{"object":"0x6101206040526004805461ffff60a01b1916600560a91b179055348015610024575f80fd5b50604051613885380380613885833981016040819052610043916101df565b60028a90555f8a81526001602090815260408083208a90559082905281208a905583908b9089908c908c90869082908061007c88610197565b8152602081019190915260409081015f9081209290925560ff909216608052600480546001600160a01b0389166001600160a01b03199091168117909155915191955093507f8be0079c531659141344cd1fd0a4f28419497f9722a3daafe3b4186f6b6457e09250839150a35060e08290526001600160a01b0380871661010052851660a08190526040805163313ce56760e01b8152905163313ce567916004808201926020929091908290030181865afa15801561013d573d5f803e3d5ffd5b505050506040513d601f19601f820116820180604052508101906101619190610273565b60ff1660c0525050600580546001600160a01b0319166001600160a01b039390931692909217909155506102d195505050505050565b5f6101a46107e083610293565b6101ae90836102b2565b92915050565b80516001600160a01b03811681146101ca575f80fd5b919050565b805160ff811681146101ca575f80fd5b5f805f805f805f805f806101408b8d0312156101f9575f80fd5b8a5160208c015160408d015160608e0151929c50909a509850965061022060808c016101b4565b955061022e60a08c016101b4565b945061023c60c08c016101b4565b935061024a60e08c016101b4565b6101008c015190935091506102626101208c016101cf565b90509295989b9194979a5092959850565b5f60208284031215610283575f80fd5b61028c826101cf565b9392505050565b5f826102ad57634e487b7160e01b5f52601260045260245ffd5b500690565b818103818111156101ae57634e487b7160e01b5f52601160045260245ffd5b60805160a05160c05160e0516101005161354661033f5f395f818161050b0152611f9501525f818161048c0152611fc201525f818161031801526118b801525f818161021b01528181610d3a01528181610da70152818161115701526113c701525f6123a401526135465ff3fe608060405234801561000f575f80fd5b50600436106101fd575f3560e01c80638da5cb5b11610114578063cda7d82c116100a9578063ecdea06f11610079578063ecdea06f146105b7578063ed8b2b32146105ca578063ee82ac5e146105dd578063f2fde38b146105fc578063fba781661461060f575f80fd5b8063cda7d82c1461055d578063d57763c31461057c578063d84184031461059c578063ea6fe03e146105af575f80fd5b8063b8b24592116100e4578063b8b2459214610506578063b9b2a9821461052d578063c3a079ed14610540578063c5fba0b814610549575f80fd5b80638da5cb5b146104ae57806398f9e757146104c1578063aeacb2e7146104e1578063b01c27d1146104f4575f80fd5b80636b994abb116101955780637dce5550116101655780637dce55501461042a578063803d5f621461043257806389a11f7a146104455780638cc63cdd146104635780638d5ca05214610487575f80fd5b80636b994abb146103c657806373e149e6146103f157806377891907146104045780637a9059a214610417575f80fd5b8063505675dd116101d0578063505675dd146103005780635b7f415c146103135780635f4d06101461034c5780636512d057146103b3575f80fd5b80630a7aa2931461020157806313f6658714610216578063163de0c51461025a578063276d080e14610271575b5f80fd5b61021461020f3660046129a1565b610618565b005b61023d7f000000000000000000000000000000000000000000000000000000000000000081565b6040516001600160a01b0390911681526020015b60405180910390f35b61026360025481565b604051908152602001610251565b61028461027f3660046129c8565b61066b565b60405161025191905f60e08201905060018060a01b0383511682526001600160401b0360208401511660208301526040830151604083015260608301516060830152608083015160808301526001600160401b0360a08401511660a083015269ffffffffffffffffffff1960c08401511660c083015292915050565b61021461030e366004612aca565b610746565b61033a7f000000000000000000000000000000000000000000000000000000000000000081565b60405160ff9091168152602001610251565b61035f61035a3660046129c8565b6109f6565b604080516001600160a01b0390981688526001600160401b039687166020890152870194909452606086019290925260808501529190911660a08301526001600160501b03191660c082015260e001610251565b6102636103c13660046129c8565b610a5f565b6103d96103d43660046129c8565b610a8a565b6040516102519c9b9a99989796959493929190612b50565b6102146103ff366004612beb565b610b1f565b6102146104123660046129c8565b610b6b565b610214610425366004612c13565b610ead565b600654610263565b610214610440366004612c2e565b610ef5565b61044e61384081565b60405163ffffffff9091168152602001610251565b60045461047790600160a01b900460ff1681565b6040519015158152602001610251565b6102637f000000000000000000000000000000000000000000000000000000000000000081565b60045461023d906001600160a01b031681565b6104d46104cf366004612beb565b611229565b6040516102519190612cbc565b6102146104ef366004612cf4565b6112a9565b600454600160a01b900460ff16610477565b61023d7f000000000000000000000000000000000000000000000000000000000000000081565b61026361053b3660046129c8565b611441565b61044e61012c81565b60045461033a90600160a81b900460ff1681565b61026361056b3660046129c8565b5f9081526001602052604090205490565b61058f61058a3660046129c8565b61145e565b6040516102519190612dc2565b6102146105aa366004612ef1565b611736565b600754610263565b6102146105c5366004613084565b611e55565b6102146105d83660046129c8565b61211b565b6102636105eb3660046129c8565b5f9081526020819052604090205490565b61021461060a366004612beb565b612149565b61026360035481565b6004546001600160a01b0316331461064b5760405162461bcd60e51b81526004016106429061315c565b60405180910390fd5b6004805460ff909216600160a81b0260ff60a81b19909216919091179055565b6040805160e0810182525f80825260208201819052918101829052606081018290526080810182905260a0810182905260c0810191909152600682815481106106b6576106b6613182565b5f9182526020918290206040805160e08101825260059390930290910180546001600160a01b0381168452600160a01b90046001600160401b039081169484019490945260018101549183019190915260028101546060830152600381015460808301526004015491821660a0820152600160401b90910460501b6001600160501b03191660c082015292915050565b336001600160a01b03166006848154811061076357610763613182565b5f9182526020909120600590910201546001600160a01b03161461079a57604051630e7fea9d60e01b815260040160405180910390fd5b816001600160401b03165f036107c35760405163a2ec3a5560e01b815260040160405180910390fd5b5f600684815481106107d7576107d7613182565b905f5260205f20906005020190505f816002015490506107f6836121be565b816001015481036108245760048201805467ffffffffffffffff19166001600160401b0386161790556109ef565b805f0361084457604051632b5daf8960e01b815260040160405180910390fd5b6040805160e08101825283546001600160a01b0390811682526001600160401b0342811660208401908152938301858152606084018681525f608086018181528b851660a0880190815260048b01546001600160501b0319600160401b91829004605090811b9190911660c08b01908152600680546001810182559087529a516005909b027ff652222313e28459528d920b65115c16c04f3efc82aaedc97be59f3f377c0d3f810180549d518b16600160a01b026001600160e01b0319909e169c909b169b909b179b909b1790985594517ff652222313e28459528d920b65115c16c04f3efc82aaedc97be59f3f377c0d4089015592517ff652222313e28459528d920b65115c16c04f3efc82aaedc97be59f3f377c0d41880155517ff652222313e28459528d920b65115c16c04f3efc82aaedc97be59f3f377c0d4287015590517ff652222313e28459528d920b65115c16c04f3efc82aaedc97be59f3f377c0d439095018054965190941c9091026001600160f01b03199095169390911692909217929092179091556003830180548392906109e39084906131aa565b90915550505f60028301555b5050505050565b60068181548110610a05575f80fd5b5f918252602090912060059091020180546001820154600283015460038401546004909401546001600160a01b03841695506001600160401b03600160a01b9094048416949293919291811690600160401b900460501b87565b5f60068281548110610a7357610a73613182565b905f5260205f209060050201600201549050919050565b60078181548110610a99575f80fd5b5f9182526020909120600b9091020180546001820154600283015460038401546004850154600586015460068701546007909701546001600160a01b03808816995063ffffffff600160a01b890416986001600160401b03600160c01b90990489169888169760ff600160401b82041697600160481b909104909216959194919391928c565b6004546001600160a01b03163314610b495760405162461bcd60e51b81526004016106429061315c565b600580546001600160a01b0319166001600160a01b0392909216919091179055565b5f60078281548110610b7f57610b7f613182565b5f9182526020909120600b90910201905060026001820154600160401b900460ff166004811115610bb257610bb2612b1c565b14610bd0576040516320d55f6760e21b815260040160405180910390fd5b60018101546001600160401b0316421015610bfe57604051632d5c37f560e21b815260040160405180910390fd5b610c32604051806040016040528060138152602001721c1c9bdc1bdcd959109b1bd8dad2195a59da1d606a1b8152506122cc565b610c53610c4e82600601545f9081526020819052604090205490565b61230f565b610c85604051806040016040528060118152602001700e0e4dee0dee6cac884d8dec6d690c2e6d607b1b8152506122cc565b610c92816007015461230f565b600781015460068201545f9081526020819052604090205414610cc85760405163c1f6fa5160e01b815260040160405180910390fd5b60018101805460ff60401b19166803000000000000000017905560045460058201545f9161271091610d0491600160a81b900460ff16906131bd565b610d0e91906131e8565b60055460405163a9059cbb60e01b81526001600160a01b039182166004820152602481018390529192507f0000000000000000000000000000000000000000000000000000000000000000169063a9059cbb906044016020604051808303815f875af1158015610d80573d5f803e3d5ffd5b505050506040513d601f19601f82011682018060405250810190610da491906131fb565b507f00000000000000000000000000000000000000000000000000000000000000006001600160a01b031663a9059cbb8360010160099054906101000a90046001600160a01b0316838560050154610dfc9190613216565b6040516001600160e01b031960e085901b1681526001600160a01b03909216600483015260248201526044016020604051808303815f875af1158015610e44573d5f803e3d5ffd5b505050506040513d601f19601f82011682018060405250810190610e6891906131fb565b5060038201546040805185815260208101929092527f12245c00d428a4c558061d2f69fe154a203bd2fb4a65b6c3e73e95ccdc735d18910160405180910390a1505050565b6004546001600160a01b03163314610ed75760405162461bcd60e51b81526004016106429061315c565b60048054911515600160a01b0260ff60a01b19909216919091179055565b600454600160a01b900460ff1615610f20576040516348010c6560e11b815260040160405180910390fd5b816001600160401b03165f03610f495760405163a2ec3a5560e01b815260040160405180910390fd5b335f908152600860205260408120549003610f9557604080515f602080830182815283850185528352338252600881529290208151805192939192610f919284920190612845565b5050505b6040805160e081018252338082526001600160401b034281166020808501918252848601898152606086018a81525f608088018181528b871660a08a019081526001600160501b03198c1660c08b0190815260068054600181810183558287529c5160059091027ff652222313e28459528d920b65115c16c04f3efc82aaedc97be59f3f377c0d3f810180549b518d16600160a01b026001600160e01b0319909c166001600160a01b0393909316929092179a909a17905595517ff652222313e28459528d920b65115c16c04f3efc82aaedc97be59f3f377c0d4089015593517ff652222313e28459528d920b65115c16c04f3efc82aaedc97be59f3f377c0d4188015590517ff652222313e28459528d920b65115c16c04f3efc82aaedc97be59f3f377c0d42870155517ff652222313e28459528d920b65115c16c04f3efc82aaedc97be59f3f377c0d439095018054925160501c600160401b026001600160f01b0319909316959096169490941717909355928152600890925292902091546111209190613216565b81546001810183555f9283526020909220909101556040516323b872dd60e01b8152336004820152306024820152604481018490527f00000000000000000000000000000000000000000000000000000000000000006001600160a01b0316906323b872dd906064016020604051808303815f875af11580156111a5573d5f803e3d5ffd5b505050506040513d601f19601f820116820180604052508101906111c991906131fb565b5060065433907ffd5ab8914e1dca355d18ae7fe50627d3afe042f323e1b0ae31f3a9d2cd19de37906111fd90600190613216565b60408051918252602082018790526001600160401b0386169082015260600160405180910390a2505050565b6040805160208082018352606082526001600160a01b0384165f908152600882528390208351815480840282018601865292810183815293949093919284929184919084018282801561129957602002820191905f5260205f20905b815481526020019060010190808311611285575b5050505050815250509050919050565b335f9081526008602052604090208054859190859081106112cc576112cc613182565b905f5260205f200154146112f357604051630e7fea9d60e01b815260040160405180910390fd5b6112fc816121be565b5f6006858154811061131057611310613182565b905f5260205f2090600502019050826001600160c01b03165f148061134157508060020154836001600160c01b0316115b1561135f5760405163b4e3d41360e01b815260040160405180910390fd5b826001600160c01b0316816002015f82825461137b9190613216565b92505081905550826001600160c01b0316816003015f82825461139e91906131aa565b909155505060405163a9059cbb60e01b81523360048201526001600160c01b03841660248201527f00000000000000000000000000000000000000000000000000000000000000006001600160a01b03169063a9059cbb906044016020604051808303815f875af1158015611415573d5f803e3d5ffd5b505050506040513d601f19601f8201168201806040525081019061143991906131fb565b505050505050565b5f61144e6107e083613229565b6114589083613216565b92915050565b604080516101e0810182525f8082526020820181905291810182905260608082018390526080820183905260a0820183905260c0820183905260e0820183905261010082018390526101208201839052610140820183905261016082019290925261018081018290526101a081018290526101c0810191909152600782815481106114eb576114eb613182565b5f918252602091829020604080516101e081018252600b90930290910180546001600160a01b038116845263ffffffff600160a01b820416948401949094526001600160401b03600160c01b909404841691830191909152600181015492831660608301529091608083019060ff600160401b90910416600481111561157357611573612b1c565b600481111561158457611584612b1c565b81526020016001820160099054906101000a90046001600160a01b03166001600160a01b03166001600160a01b031681526020016002820154815260200160038201548152602001600482015481526020016005820154815260200160068201548152602001600782015481526020016008820180548060200260200160405190810160405280929190818152602001828054801561164057602002820191905f5260205f20905b81548152602001906001019080831161162c575b50505050508152602001600982018054806020026020016040519081016040528092919081815260200182805480156116a057602002820191905f5260205f20905b81546001600160c01b03168152600190910190602001808311611682575b50505050508152602001600a820180548060200260200160405190810160405280929190818152602001828054801561129957602002820191905f5260205f20905f905b82829054906101000a90046001600160401b03166001600160401b0316815260200190600801906020826007010492830192600103820291508084116116e45790505050505050815250509050919050565b8451158061174657508351855114155b156117645760405163744bba7b60e01b815260040160405180910390fd5b5f5b84518110156117bc5784818151811061178157611781613182565b60200260200101516001600160c01b03165f036117b457604051633143436b60e11b815260048101829052602401610642565b600101611766565b505f805f87516001600160401b038111156117d9576117d96129fa565b604051908082528060200260200182016040528015611802578160200160208202803683370190505b5090505f5b875181101561192e575f60068a838151811061182557611825613182565b60200260200101518154811061183d5761183d613182565b5f91825260209091206004600590920201015489516001600160401b03909116915089908390811061187157611871613182565b60200260200101516001600160c01b03168561188d91906131aa565b94505f6118dc8a84815181106118a5576118a5613182565b60200260200101516001600160c01b03167f0000000000000000000000000000000000000000000000000000000000000000612354565b90505f6118e983836131e8565b90506118f581876131aa565b95508085858151811061190a5761190a613182565b6001600160401b039290921660209283029190910190910152505050600101611807565b50611938846121be565b5f805b8951811015611ab957600283828151811061195857611958613182565b602002602001015160068c848151811061197457611974613182565b60200260200101518154811061198c5761198c613182565b5f91825260209182902060046005909202010154604080516001600160401b03909416928401929092526001600160501b0319600160401b90910460501b16908201526060810184905260800160408051601f19818403018152908290526119f39161323c565b602060405180830381855afa158015611a0e573d5f803e3d5ffd5b5050506040513d601f19601f82011682018060405250810190611a319190613252565b915060068a8281518110611a4757611a47613182565b602002602001015181548110611a5f57611a5f613182565b905f5260205f20906005020160020154898281518110611a8157611a81613182565b60200260200101516001600160c01b03161115611ab157604051634323a55560e01b815260040160405180910390fd5b60010161193b565b50600754604080516001600160a01b038a16602082015242918101919091524660608201526080810183905260a08101919091525f9060c00160408051601f1981840301815282825280516020918201206101e0840183526001600160a01b038f1684525f9184018290526001600160401b034216928401929092526060830152915060079060808101600181526020018a6001600160a01b031681526020018481526020018381526020018981526020018781526020015f81526020015f801b81526020018c81526020018b815260200185815250908060018154018082558091505060019003905f5260205f2090600b02015f909190919091505f820151815f015f6101000a8154816001600160a01b0302191690836001600160a01b031602179055506020820151815f0160146101000a81548163ffffffff021916908363ffffffff1602179055506040820151815f0160186101000a8154816001600160401b0302191690836001600160401b031602179055506060820151816001015f6101000a8154816001600160401b0302191690836001600160401b0316021790555060808201518160010160086101000a81548160ff02191690836004811115611c8757611c87612b1c565b021790555060a08201516001820180546001600160a01b03909216600160481b027fffffff0000000000000000000000000000000000000000ffffffffffffffffff90921691909117905560c0820151600282015560e0820151600382015561010082015160048201556101208201516005820155610140820151600682015561016082015160078201556101808201518051611d2e916008840191602090910190612845565b506101a08201518051611d4b91600984019160209091019061288e565b506101c08201518051611d6891600a8401916020909101906128e1565b5050505f5b8a51811015611def57898181518110611d8857611d88613182565b60200260200101516001600160c01b031660068c8381518110611dad57611dad613182565b602002602001015181548110611dc557611dc5613182565b905f5260205f2090600502016002015f828254611de29190613216565b9091555050600101611d6d565b508a6001600160a01b03167f5956135c9be999a50f7ff4ea49ddf1485bc321ab333dc7a0877633eeb47528936001611e2660075490565b611e309190613216565b6040805191825260208201859052015b60405180910390a25050505050505050505050565b5f60078a81548110611e6957611e69613182565b5f9182526020909120600b909102019050600180820154600160401b900460ff166004811115611e9b57611e9b612b1c565b14611eb957604051639085371960e01b815260040160405180910390fd5b5f6040518061016001604052808b81526020018a8152602001836002015481526020018360030154815260200183600801805490506001600160401b03168152602001611f0e6105eb8b63ffffffff16611441565b815263ffffffff8a1660208201819052604090910190611f2e908a613269565b6001600160401b03168152602001611f468989613269565b6001600160401b0316815260200186815260200185815250604051602001611f6e9190613288565b60408051601f198184030181529082905263020a49e360e51b825291506001600160a01b037f000000000000000000000000000000000000000000000000000000000000000016906341493c6090611fee907f00000000000000000000000000000000000000000000000000000000000000009085908890600401613389565b5f6040518083038186803b158015612004575f80fd5b505afa158015612016573d5f803e3d5ffd5b5061204d9250505063ffffffff89166001600160401b03898116908916888861203f858e613269565b6001600160401b031661238f565b60018201805460ff60401b19166802000000000000000017905561207361012c426133bd565b60018301805467ffffffffffffffff19166001600160401b0392831617905587166006830155846120aa63ffffffff8a1689613269565b6001600160401b0316815181106120c3576120c3613182565b60200260200101518260070181905550336001600160a01b03167f8bcdab581a6176f792fa96b0c57d32273bcd8621b0548c15a9c6379dc246e26c8c8460030154604051611e40929190918252602082015260400190565b5f818152602081905260409020546121465760405163fa4a5e4560e01b815260040160405180910390fd5b50565b6004546001600160a01b031633146121735760405162461bcd60e51b81526004016106429061315c565b600480546001600160a01b0319166001600160a01b03831690811790915560405133907f8be0079c531659141344cd1fd0a4f28419497f9722a3daafe3b4186f6b6457e0905f90a350565b6121c78161272f565b5f5b81518110156122c8575f60078383815181106121e7576121e7613182565b6020026020010151815481106121ff576121ff613182565b905f5260205f2090600b020190505f5b60088201548110156122a6575f600683600801838154811061223357612233613182565b905f5260205f2001548154811061224c5761224c613182565b905f5260205f209060050201905082600901828154811061226f5761226f613182565b5f9182526020822001546002830180546001600160c01b039092169290916122989084906131aa565b90915550505060010161220f565b506001908101805460ff60401b191668040000000000000000179055016121c9565b5050565b612146816040516024016122e091906133dc565b60408051601f198184030181529190526020810180516001600160e01b031663104c13eb60e21b179052612825565b6121468160405160240161232591815260200190565b60408051601f198184030181529190526020810180516001600160e01b03166327b7cf8560e01b179052612825565b5f60128260ff1610156123885761236c8260126133ee565b61237790600a6134ea565b61238190846131bd565b9050611458565b5090919050565b6002545f8181526001602052604090205460ff7f0000000000000000000000000000000000000000000000000000000000000000166123ce8888613216565b1015612428575f86815260208190526040902054855186906123f290600190613216565b8151811061240257612402613182565b602002602001015114612428576040516341305f6360e01b815260040160405180910390fd5b818811156124495760405163575f3da360e01b815260040160405180910390fd5b84838151811061245b5761245b613182565b60200260200101515f808981526020019081526020015f205403612480575050611439565b5f87815260208190526040902054158015906124c2575083600185516124a69190613216565b815181106124b6576124b6613182565b60200260200101518110155b156124e0576040516371e98f3d60e11b815260040160405180910390fd5b818711156125e6578188036125515784838151811061250157612501613182565b60200260200101515f808981526020019081526020015f208190555083838151811061252f5761252f613182565b602002602001015160015f8981526020019081526020015f208190555061264c565b818810156125e157875b8781116125df578561256d8a83613216565b8151811061257d5761257d613182565b6020908102919091018101515f83815291829052604090912055846125a28a83613216565b815181106125b2576125b2613182565b6020908102919091018101515f8381526001909252604090912055806125d7816134f8565b91505061255b565b505b61264c565b8187101561264c5784838151811061260057612600613182565b60200260200101515f808981526020019081526020015f208190555083838151811061262e5761262e613182565b602002602001015160015f8981526020019081526020015f20819055505b60025487111561265c5760028790555b5f61266688611441565b90505f61267288611441565b90508181146126e7575f612686828a613216565b905087818151811061269a5761269a613182565b60200260200101515f808481526020019081526020015f20819055508681815181106126c8576126c8613182565b602002602001015160015f8481526020019081526020015f2081905550505b8651604080518c815260208101929092527fb68477c768bbb33b4f238a3dfd17c33c499268c59cd042b7936bbc23dc2bdd34910160405180910390a150505050505050505050565b5f5b81518110156122c85761384063ffffffff16600783838151811061275757612757613182565b60200260200101518154811061276f5761276f613182565b5f9182526020909120600b909102015461279990600160c01b90046001600160401b031642613216565b10806127ff5750600160078383815181106127b6576127b6613182565b6020026020010151815481106127ce576127ce613182565b905f5260205f2090600b020160010160089054906101000a900460ff1660048111156127fc576127fc612b1c565b14155b1561281d576040516326349d6b60e01b815260040160405180910390fd5b600101612731565b80516a636f6e736f6c652e6c6f67602083015f808483855afa5050505050565b828054828255905f5260205f2090810192821561287e579160200282015b8281111561287e578251825591602001919060010190612863565b5061288a92915061298d565b5090565b828054828255905f5260205f2090810192821561287e579160200282015b8281111561287e57825182546001600160c01b0319166001600160c01b039091161782556020909201916001909101906128ac565b828054828255905f5260205f209060030160049004810192821561287e579160200282015f5b8382111561295157835183826101000a8154816001600160401b0302191690836001600160401b031602179055509260200192600801602081600701049283019260010302612907565b80156129845782816101000a8154906001600160401b030219169055600801602081600701049283019260010302612951565b505061288a9291505b5b8082111561288a575f815560010161298e565b5f602082840312156129b1575f80fd5b813560ff811681146129c1575f80fd5b9392505050565b5f602082840312156129d8575f80fd5b5035919050565b80356001600160401b03811681146129f5575f80fd5b919050565b634e487b7160e01b5f52604160045260245ffd5b604051601f8201601f191681016001600160401b0381118282101715612a3657612a366129fa565b604052919050565b5f6001600160401b03821115612a5657612a566129fa565b5060051b60200190565b5f82601f830112612a6f575f80fd5b8135612a82612a7d82612a3e565b612a0e565b8082825260208201915060208360051b860101925085831115612aa3575f80fd5b602085015b83811015612ac0578035835260209283019201612aa8565b5095945050505050565b5f805f60608486031215612adc575f80fd5b83359250612aec602085016129df565b915060408401356001600160401b03811115612b06575f80fd5b612b1286828701612a60565b9150509250925092565b634e487b7160e01b5f52602160045260245ffd5b60058110612b4c57634e487b7160e01b5f52602160045260245ffd5b9052565b6001600160a01b038d16815263ffffffff8c1660208201526001600160401b038b811660408301528a1660608201526101808101612b91608083018b612b30565b6001600160a01b039890981660a082015260c081019690965260e08601949094526101008501929092526101208401526101408301526101609091015295945050505050565b6001600160a01b0381168114612146575f80fd5b5f60208284031215612bfb575f80fd5b81356129c181612bd7565b8015158114612146575f80fd5b5f60208284031215612c23575f80fd5b81356129c181612c06565b5f805f60608486031215612c40575f80fd5b83359250612c50602085016129df565b915060408401356001600160501b031981168114612c6c575f80fd5b809150509250925092565b80356129f581612bd7565b5f8151808452602084019350602083015f5b82811015612cb2578151865260209586019590910190600101612c94565b5093949350505050565b602081525f8251602080840152612cd66040840182612c82565b949350505050565b80356001600160c01b03811681146129f5575f80fd5b5f805f8060808587031215612d07575f80fd5b8435935060208501359250612d1e60408601612cde565b915060608501356001600160401b03811115612d38575f80fd5b612d4487828801612a60565b91505092959194509250565b5f8151808452602084019350602083015f5b82811015612cb25781516001600160c01b0316865260209586019590910190600101612d62565b5f8151808452602084019350602083015f5b82811015612cb25781516001600160401b0316865260209586019590910190600101612d9b565b60208152612ddc6020820183516001600160a01b03169052565b5f6020830151612df4604084018263ffffffff169052565b5060408301516001600160401b03811660608401525060608301516001600160401b0381166080840152506080830151612e3160a0840182612b30565b5060a08301516001600160a01b03811660c08401525060c083015160e083015260e08301516101008301526101008301516101208301526101208301516101408301526101408301516101608301526101608301516101808301526101808301516101e06101a0840152612ea9610200840182612c82565b90506101a0840151601f19848303016101c0850152612ec88282612d50565b9150506101c0840151601f19848303016101e0850152612ee88282612d89565b95945050505050565b5f805f805f8060c08789031215612f06575f80fd5b8635612f1181612bd7565b955060208701356001600160401b03811115612f2b575f80fd5b612f3789828a01612a60565b95505060408701356001600160401b03811115612f52575f80fd5b8701601f81018913612f62575f80fd5b8035612f70612a7d82612a3e565b8082825260208201915060208360051b85010192508b831115612f91575f80fd5b6020840193505b82841015612fba57612fa984612cde565b825260209384019390910190612f98565b9650612fcc9250505060608801612c77565b92506080870135915060a08701356001600160401b03811115612fed575f80fd5b612ff989828a01612a60565b9150509295509295509295565b803563ffffffff811681146129f5575f80fd5b5f82601f830112613028575f80fd5b81356001600160401b03811115613041576130416129fa565b613054601f8201601f1916602001612a0e565b818152846020838601011115613068575f80fd5b816020850160208301375f918101602001919091529392505050565b5f805f805f805f805f6101208a8c03121561309d575f80fd5b8935985060208a0135975060408a013596506130bb60608b01613006565b95506130c960808b016129df565b94506130d760a08b016129df565b935060c08a01356001600160401b038111156130f1575f80fd5b6130fd8c828d01612a60565b93505060e08a01356001600160401b03811115613118575f80fd5b6131248c828d01612a60565b9250506101008a01356001600160401b03811115613140575f80fd5b61314c8c828d01613019565b9150509295985092959850929598565b6020808252600c908201526b15539055551213d49256915160a21b604082015260600190565b634e487b7160e01b5f52603260045260245ffd5b634e487b7160e01b5f52601160045260245ffd5b8082018082111561145857611458613196565b808202811582820484141761145857611458613196565b634e487b7160e01b5f52601260045260245ffd5b5f826131f6576131f66131d4565b500490565b5f6020828403121561320b575f80fd5b81516129c181612c06565b8181038181111561145857611458613196565b5f82613237576132376131d4565b500690565b5f82518060208501845e5f920191825250919050565b5f60208284031215613262575f80fd5b5051919050565b6001600160401b03828116828216039081111561145857611458613196565b60208152815160208201526020820151604082015260408201516060820152606082015160808201525f60808301516132cc60a08401826001600160401b03169052565b5060a083015160c083015260c08301516132f160e08401826001600160401b03169052565b5060e08301516001600160401b038116610100840152506101008301516001600160401b0381166101208401525061012083015161016061014084015261333c610180840182612c82565b9050610140840151601f1984830301610160850152612ee88282612c82565b5f81518084528060208401602086015e5f602082860101526020601f19601f83011685010191505092915050565b838152606060208201525f6133a1606083018561335b565b82810360408401526133b3818561335b565b9695505050505050565b6001600160401b03818116838216019081111561145857611458613196565b602081525f6129c1602083018461335b565b60ff828116828216039081111561145857611458613196565b6001815b60018411156134425780850481111561342657613426613196565b600184161561343457908102905b60019390931c92800261340b565b935093915050565b5f8261345857506001611458565b8161346457505f611458565b816001811461347a5760028114613484576134a0565b6001915050611458565b60ff84111561349557613495613196565b50506001821b611458565b5060208310610133831016604e8410600b84101617156134c3575081810a611458565b6134cf5f198484613407565b805f19048211156134e2576134e2613196565b029392505050565b5f6129c160ff84168361344a565b5f6001820161350957613509613196565b506001019056fea26469706673582212201effef98a4e51038c4bbab625ac8ba25750f26d7a1c8911718e987fe093b10c764736f6c634300081a0033","linkReferences":{}},"methodIdentifiers":{"CHALLENGE_PERIOD()":"c3a079ed","CIRCUIT_VERIFICATION_KEY()":"8d5ca052","DEPOSIT_TOKEN()":"13f66587","RESERVATION_LOCKUP_PERIOD()":"89a11f7a","TOKEN_DECIMALS()":"5b7f415c","VERIFIER_CONTRACT()":"b8b24592","calculateRetargetHeight(uint256)":"b9b2a982","currentConfirmationHeight()":"fba78166","currentHeight()":"163de0c5","depositLiquidity(uint256,uint64,bytes22)":"803d5f62","depositVaults(uint256)":"5f4d0610","getAreDepositsPaused()":"b01c27d1","getBlockHash(uint256)":"ee82ac5e","getChainwork(uint256)":"cda7d82c","getDepositVault(uint256)":"276d080e","getDepositVaultUnreservedBalance(uint256)":"6512d057","getDepositVaultsLength()":"7dce5550","getLiquidityProvider(address)":"98f9e757","getReservation(uint256)":"d57763c3","getReservationLength()":"ea6fe03e","isDepositNewLiquidityPaused()":"8cc63cdd","owner()":"8da5cb5b","protocolFeeBP()":"c5fba0b8","releaseLiquidity(uint256)":"77891907","reserveLiquidity(address,uint256[],uint192[],address,uint256,uint256[])":"d8418403","submitSwapProof(uint256,bytes32,bytes32,uint32,uint64,uint64,bytes32[],uint256[],bytes)":"ecdea06f","swapReservations(uint256)":"6b994abb","transferOwnership(address)":"f2fde38b","updateExchangeRate(uint256,uint64,uint256[])":"505675dd","updateFeeRouter(address)":"73e149e6","updateNewLiquidityDepositsPaused(bool)":"7a9059a2","updateProtocolFee(uint8)":"0a7aa293","validateBlockExists(uint256)":"ed8b2b32","withdrawLiquidity(uint256,uint256,uint192,uint256[])":"aeacb2e7"},"storageLayout":{"storage":[{"astId":47993,"contract":"src/RiftExchange.sol:RiftExchange","label":"blockchain","offset":0,"slot":"0","type":"t_mapping(t_uint256,t_bytes32)"},{"astId":47997,"contract":"src/RiftExchange.sol:RiftExchange","label":"chainworks","offset":0,"slot":"1","type":"t_mapping(t_uint256,t_uint256)"},{"astId":47999,"contract":"src/RiftExchange.sol:RiftExchange","label":"currentHeight","offset":0,"slot":"2","type":"t_uint256"},{"astId":48001,"contract":"src/RiftExchange.sol:RiftExchange","label":"currentConfirmationHeight","offset":0,"slot":"3","type":"t_uint256"},{"astId":46637,"contract":"src/RiftExchange.sol:RiftExchange","label":"owner","offset":0,"slot":"4","type":"t_address"},{"astId":49400,"contract":"src/RiftExchange.sol:RiftExchange","label":"isDepositNewLiquidityPaused","offset":20,"slot":"4","type":"t_bool"},{"astId":49403,"contract":"src/RiftExchange.sol:RiftExchange","label":"protocolFeeBP","offset":21,"slot":"4","type":"t_uint8"},{"astId":49405,"contract":"src/RiftExchange.sol:RiftExchange","label":"feeRouterAddress","offset":0,"slot":"5","type":"t_address"},{"astId":49409,"contract":"src/RiftExchange.sol:RiftExchange","label":"depositVaults","offset":0,"slot":"6","type":"t_array(t_struct(DepositVault)49350_storage)dyn_storage"},{"astId":49413,"contract":"src/RiftExchange.sol:RiftExchange","label":"swapReservations","offset":0,"slot":"7","type":"t_array(t_struct(SwapReservation)49331_storage)dyn_storage"},{"astId":49418,"contract":"src/RiftExchange.sol:RiftExchange","label":"liquidityProviders","offset":0,"slot":"8","type":"t_mapping(t_address,t_struct(LiquidityProvider)49335_storage)"}],"types":{"t_address":{"encoding":"inplace","label":"address","numberOfBytes":"20"},"t_array(t_struct(DepositVault)49350_storage)dyn_storage":{"encoding":"dynamic_array","label":"struct RiftExchange.DepositVault[]","numberOfBytes":"32","base":"t_struct(DepositVault)49350_storage"},"t_array(t_struct(SwapReservation)49331_storage)dyn_storage":{"encoding":"dynamic_array","label":"struct RiftExchange.SwapReservation[]","numberOfBytes":"32","base":"t_struct(SwapReservation)49331_storage"},"t_array(t_uint192)dyn_storage":{"encoding":"dynamic_array","label":"uint192[]","numberOfBytes":"32","base":"t_uint192"},"t_array(t_uint256)dyn_storage":{"encoding":"dynamic_array","label":"uint256[]","numberOfBytes":"32","base":"t_uint256"},"t_array(t_uint64)dyn_storage":{"encoding":"dynamic_array","label":"uint64[]","numberOfBytes":"32","base":"t_uint64"},"t_bool":{"encoding":"inplace","label":"bool","numberOfBytes":"1"},"t_bytes22":{"encoding":"inplace","label":"bytes22","numberOfBytes":"22"},"t_bytes32":{"encoding":"inplace","label":"bytes32","numberOfBytes":"32"},"t_enum(ReservationState)49296":{"encoding":"inplace","label":"enum RiftExchange.ReservationState","numberOfBytes":"1"},"t_mapping(t_address,t_struct(LiquidityProvider)49335_storage)":{"encoding":"mapping","key":"t_address","label":"mapping(address => struct RiftExchange.LiquidityProvider)","numberOfBytes":"32","value":"t_struct(LiquidityProvider)49335_storage"},"t_mapping(t_uint256,t_bytes32)":{"encoding":"mapping","key":"t_uint256","label":"mapping(uint256 => bytes32)","numberOfBytes":"32","value":"t_bytes32"},"t_mapping(t_uint256,t_uint256)":{"encoding":"mapping","key":"t_uint256","label":"mapping(uint256 => uint256)","numberOfBytes":"32","value":"t_uint256"},"t_struct(DepositVault)49350_storage":{"encoding":"inplace","label":"struct RiftExchange.DepositVault","numberOfBytes":"160","members":[{"astId":49337,"contract":"src/RiftExchange.sol:RiftExchange","label":"owner","offset":0,"slot":"0","type":"t_address"},{"astId":49339,"contract":"src/RiftExchange.sol:RiftExchange","label":"depositTimestamp","offset":20,"slot":"0","type":"t_uint64"},{"astId":49341,"contract":"src/RiftExchange.sol:RiftExchange","label":"initialBalance","offset":0,"slot":"1","type":"t_uint256"},{"astId":49343,"contract":"src/RiftExchange.sol:RiftExchange","label":"unreservedBalance","offset":0,"slot":"2","type":"t_uint256"},{"astId":49345,"contract":"src/RiftExchange.sol:RiftExchange","label":"withdrawnAmount","offset":0,"slot":"3","type":"t_uint256"},{"astId":49347,"contract":"src/RiftExchange.sol:RiftExchange","label":"exchangeRate","offset":0,"slot":"4","type":"t_uint64"},{"astId":49349,"contract":"src/RiftExchange.sol:RiftExchange","label":"btcPayoutLockingScript","offset":8,"slot":"4","type":"t_bytes22"}]},"t_struct(LiquidityProvider)49335_storage":{"encoding":"inplace","label":"struct RiftExchange.LiquidityProvider","numberOfBytes":"32","members":[{"astId":49334,"contract":"src/RiftExchange.sol:RiftExchange","label":"depositVaultIndexes","offset":0,"slot":"0","type":"t_array(t_uint256)dyn_storage"}]},"t_struct(SwapReservation)49331_storage":{"encoding":"inplace","label":"struct RiftExchange.SwapReservation","numberOfBytes":"352","members":[{"astId":49298,"contract":"src/RiftExchange.sol:RiftExchange","label":"owner","offset":0,"slot":"0","type":"t_address"},{"astId":49300,"contract":"src/RiftExchange.sol:RiftExchange","label":"confirmationBlockHeight","offset":20,"slot":"0","type":"t_uint32"},{"astId":49302,"contract":"src/RiftExchange.sol:RiftExchange","label":"reservationTimestamp","offset":24,"slot":"0","type":"t_uint64"},{"astId":49304,"contract":"src/RiftExchange.sol:RiftExchange","label":"liquidityUnlockedTimestamp","offset":0,"slot":"1","type":"t_uint64"},{"astId":49307,"contract":"src/RiftExchange.sol:RiftExchange","label":"state","offset":8,"slot":"1","type":"t_enum(ReservationState)49296"},{"astId":49309,"contract":"src/RiftExchange.sol:RiftExchange","label":"ethPayoutAddress","offset":9,"slot":"1","type":"t_address"},{"astId":49311,"contract":"src/RiftExchange.sol:RiftExchange","label":"lpReservationHash","offset":0,"slot":"2","type":"t_bytes32"},{"astId":49313,"contract":"src/RiftExchange.sol:RiftExchange","label":"nonce","offset":0,"slot":"3","type":"t_bytes32"},{"astId":49315,"contract":"src/RiftExchange.sol:RiftExchange","label":"totalSatsInputIncludingProxyFee","offset":0,"slot":"4","type":"t_uint256"},{"astId":49317,"contract":"src/RiftExchange.sol:RiftExchange","label":"totalSwapOutputAmount","offset":0,"slot":"5","type":"t_uint256"},{"astId":49319,"contract":"src/RiftExchange.sol:RiftExchange","label":"proposedBlockHeight","offset":0,"slot":"6","type":"t_uint256"},{"astId":49321,"contract":"src/RiftExchange.sol:RiftExchange","label":"proposedBlockHash","offset":0,"slot":"7","type":"t_bytes32"},{"astId":49324,"contract":"src/RiftExchange.sol:RiftExchange","label":"vaultIndexes","offset":0,"slot":"8","type":"t_array(t_uint256)dyn_storage"},{"astId":49327,"contract":"src/RiftExchange.sol:RiftExchange","label":"amountsToReserve","offset":0,"slot":"9","type":"t_array(t_uint192)dyn_storage"},{"astId":49330,"contract":"src/RiftExchange.sol:RiftExchange","label":"expectedSatsOutput","offset":0,"slot":"10","type":"t_array(t_uint64)dyn_storage"}]},"t_uint192":{"encoding":"inplace","label":"uint192","numberOfBytes":"24"},"t_uint256":{"encoding":"inplace","label":"uint256","numberOfBytes":"32"},"t_uint32":{"encoding":"inplace","label":"uint32","numberOfBytes":"4"},"t_uint64":{"encoding":"inplace","label":"uint64","numberOfBytes":"8"},"t_uint8":{"encoding":"inplace","label":"uint8","numberOfBytes":"1"}}},"id":32}