{"abi":[{"type":"constructor","inputs":[{"name":"initialCheckpointHeight","type":"uint256","internalType":"uint256"},{"name":"initialBlockHash","type":"bytes32","internalType":"bytes32"},{"name":"initialRetargetBlockHash","type":"bytes32","internalType":"bytes32"},{"name":"initialChainwork","type":"uint256","internalType":"uint256"},{"name":"verifierContractAddress","type":"address","internalType":"address"},{"name":"depositTokenAddress","type":"address","internalType":"address"},{"name":"initialFeeRouterAddress","type":"address","internalType":"address"},{"name":"owner","type":"address","internalType":"address"},{"name":"circuitVerificationKey","type":"bytes32","internalType":"bytes32"},{"name":"minimumConfirmationDelta","type":"uint8","internalType":"uint8"}],"stateMutability":"nonpayable"},{"type":"function","name":"CHALLENGE_PERIOD","inputs":[],"outputs":[{"name":"","type":"uint32","internalType":"uint32"}],"stateMutability":"view"},{"type":"function","name":"CIRCUIT_VERIFICATION_KEY","inputs":[],"outputs":[{"name":"","type":"bytes32","internalType":"bytes32"}],"stateMutability":"view"},{"type":"function","name":"DEPOSIT_TOKEN","inputs":[],"outputs":[{"name":"","type":"address","internalType":"contract IERC20"}],"stateMutability":"view"},{"type":"function","name":"RESERVATION_LOCKUP_PERIOD","inputs":[],"outputs":[{"name":"","type":"uint32","internalType":"uint32"}],"stateMutability":"view"},{"type":"function","name":"TOKEN_DECIMALS","inputs":[],"outputs":[{"name":"","type":"uint8","internalType":"uint8"}],"stateMutability":"view"},{"type":"function","name":"VERIFIER_CONTRACT","inputs":[],"outputs":[{"name":"","type":"address","internalType":"contract ISP1Verifier"}],"stateMutability":"view"},{"type":"function","name":"buildPublicInputs","inputs":[{"name":"swapReservationIndex","type":"uint256","internalType":"uint256"},{"name":"bitcoinTxId","type":"bytes32","internalType":"bytes32"},{"name":"merkleRoot","type":"bytes32","internalType":"bytes32"},{"name":"safeBlockHeight","type":"uint32","internalType":"uint32"},{"name":"proposedBlockHeight","type":"uint64","internalType":"uint64"},{"name":"confirmationBlockHeight","type":"uint64","internalType":"uint64"},{"name":"blockHashes","type":"bytes32[]","internalType":"bytes32[]"},{"name":"blockChainworks","type":"uint256[]","internalType":"uint256[]"}],"outputs":[{"name":"","type":"tuple","internalType":"struct RiftExchange.ProofPublicInputs","components":[{"name":"natural_txid","type":"bytes32","internalType":"bytes32"},{"name":"merkle_root","type":"bytes32","internalType":"bytes32"},{"name":"lp_reservation_hash","type":"bytes32","internalType":"bytes32"},{"name":"order_nonce","type":"bytes32","internalType":"bytes32"},{"name":"lp_count","type":"uint64","internalType":"uint64"},{"name":"retarget_block_hash","type":"bytes32","internalType":"bytes32"},{"name":"safe_block_height","type":"uint64","internalType":"uint64"},{"name":"safe_block_height_delta","type":"uint64","internalType":"uint64"},{"name":"confirmation_block_height_delta","type":"uint64","internalType":"uint64"},{"name":"block_hashes","type":"bytes32[]","internalType":"bytes32[]"},{"name":"block_chainworks","type":"uint256[]","internalType":"uint256[]"}]}],"stateMutability":"view"},{"type":"function","name":"calculateRetargetHeight","inputs":[{"name":"blockHeight","type":"uint256","internalType":"uint256"}],"outputs":[{"name":"","type":"uint256","internalType":"uint256"}],"stateMutability":"pure"},{"type":"function","name":"currentConfirmationHeight","inputs":[],"outputs":[{"name":"","type":"uint256","internalType":"uint256"}],"stateMutability":"view"},{"type":"function","name":"currentHeight","inputs":[],"outputs":[{"name":"","type":"uint256","internalType":"uint256"}],"stateMutability":"view"},{"type":"function","name":"depositLiquidity","inputs":[{"name":"depositAmount","type":"uint256","internalType":"uint256"},{"name":"exchangeRate","type":"uint64","internalType":"uint64"},{"name":"btcPayoutLockingScript","type":"bytes22","internalType":"bytes22"}],"outputs":[],"stateMutability":"nonpayable"},{"type":"function","name":"depositVaults","inputs":[{"name":"","type":"uint256","internalType":"uint256"}],"outputs":[{"name":"owner","type":"address","internalType":"address"},{"name":"depositTimestamp","type":"uint64","internalType":"uint64"},{"name":"initialBalance","type":"uint256","internalType":"uint256"},{"name":"unreservedBalance","type":"uint256","internalType":"uint256"},{"name":"withdrawnAmount","type":"uint256","internalType":"uint256"},{"name":"exchangeRate","type":"uint64","internalType":"uint64"},{"name":"btcPayoutLockingScript","type":"bytes22","internalType":"bytes22"}],"stateMutability":"view"},{"type":"function","name":"getAreDepositsPaused","inputs":[],"outputs":[{"name":"","type":"bool","internalType":"bool"}],"stateMutability":"view"},{"type":"function","name":"getBlockHash","inputs":[{"name":"blockHeight","type":"uint256","internalType":"uint256"}],"outputs":[{"name":"","type":"bytes32","internalType":"bytes32"}],"stateMutability":"view"},{"type":"function","name":"getChainwork","inputs":[{"name":"blockHeight","type":"uint256","internalType":"uint256"}],"outputs":[{"name":"","type":"uint256","internalType":"uint256"}],"stateMutability":"view"},{"type":"function","name":"getDepositVault","inputs":[{"name":"depositIndex","type":"uint256","internalType":"uint256"}],"outputs":[{"name":"","type":"tuple","internalType":"struct RiftExchange.DepositVault","components":[{"name":"owner","type":"address","internalType":"address"},{"name":"depositTimestamp","type":"uint64","internalType":"uint64"},{"name":"initialBalance","type":"uint256","internalType":"uint256"},{"name":"unreservedBalance","type":"uint256","internalType":"uint256"},{"name":"withdrawnAmount","type":"uint256","internalType":"uint256"},{"name":"exchangeRate","type":"uint64","internalType":"uint64"},{"name":"btcPayoutLockingScript","type":"bytes22","internalType":"bytes22"}]}],"stateMutability":"view"},{"type":"function","name":"getDepositVaultUnreservedBalance","inputs":[{"name":"depositIndex","type":"uint256","internalType":"uint256"}],"outputs":[{"name":"","type":"uint256","internalType":"uint256"}],"stateMutability":"view"},{"type":"function","name":"getDepositVaultsLength","inputs":[],"outputs":[{"name":"","type":"uint256","internalType":"uint256"}],"stateMutability":"view"},{"type":"function","name":"getLiquidityProvider","inputs":[{"name":"lpAddress","type":"address","internalType":"address"}],"outputs":[{"name":"","type":"tuple","internalType":"struct RiftExchange.LiquidityProvider","components":[{"name":"depositVaultIndexes","type":"uint256[]","internalType":"uint256[]"}]}],"stateMutability":"view"},{"type":"function","name":"getReservation","inputs":[{"name":"reservationIndex","type":"uint256","internalType":"uint256"}],"outputs":[{"name":"","type":"tuple","internalType":"struct RiftExchange.SwapReservation","components":[{"name":"owner","type":"address","internalType":"address"},{"name":"confirmationBlockHeight","type":"uint32","internalType":"uint32"},{"name":"reservationTimestamp","type":"uint64","internalType":"uint64"},{"name":"liquidityUnlockedTimestamp","type":"uint64","internalType":"uint64"},{"name":"state","type":"uint8","internalType":"enum RiftExchange.ReservationState"},{"name":"ethPayoutAddress","type":"address","internalType":"address"},{"name":"lpReservationHash","type":"bytes32","internalType":"bytes32"},{"name":"nonce","type":"bytes32","internalType":"bytes32"},{"name":"totalSatsInputIncludingProxyFee","type":"uint256","internalType":"uint256"},{"name":"totalSwapOutputAmount","type":"uint256","internalType":"uint256"},{"name":"proposedBlockHeight","type":"uint256","internalType":"uint256"},{"name":"proposedBlockHash","type":"bytes32","internalType":"bytes32"},{"name":"vaultIndexes","type":"uint256[]","internalType":"uint256[]"},{"name":"amountsToReserve","type":"uint192[]","internalType":"uint192[]"},{"name":"expectedSatsOutput","type":"uint64[]","internalType":"uint64[]"}]}],"stateMutability":"view"},{"type":"function","name":"getReservationLength","inputs":[],"outputs":[{"name":"","type":"uint256","internalType":"uint256"}],"stateMutability":"view"},{"type":"function","name":"isDepositNewLiquidityPaused","inputs":[],"outputs":[{"name":"","type":"bool","internalType":"bool"}],"stateMutability":"view"},{"type":"function","name":"owner","inputs":[],"outputs":[{"name":"","type":"address","internalType":"address"}],"stateMutability":"view"},{"type":"function","name":"protocolFeeBP","inputs":[],"outputs":[{"name":"","type":"uint8","internalType":"uint8"}],"stateMutability":"view"},{"type":"function","name":"releaseLiquidity","inputs":[{"name":"swapReservationIndex","type":"uint256","internalType":"uint256"}],"outputs":[],"stateMutability":"nonpayable"},{"type":"function","name":"reserveLiquidity","inputs":[{"name":"reservationOwner","type":"address","internalType":"address"},{"name":"vaultIndexesToReserve","type":"uint256[]","internalType":"uint256[]"},{"name":"amountsToReserve","type":"uint192[]","internalType":"uint192[]"},{"name":"ethPayoutAddress","type":"address","internalType":"address"},{"name":"totalSatsInputIncludingProxyFee","type":"uint256","internalType":"uint256"},{"name":"expiredSwapReservationIndexes","type":"uint256[]","internalType":"uint256[]"}],"outputs":[],"stateMutability":"nonpayable"},{"type":"function","name":"submitSwapProof","inputs":[{"name":"swapReservationIndex","type":"uint256","internalType":"uint256"},{"name":"bitcoinTxId","type":"bytes32","internalType":"bytes32"},{"name":"merkleRoot","type":"bytes32","internalType":"bytes32"},{"name":"safeBlockHeight","type":"uint32","internalType":"uint32"},{"name":"proposedBlockHeight","type":"uint64","internalType":"uint64"},{"name":"confirmationBlockHeight","type":"uint64","internalType":"uint64"},{"name":"blockHashes","type":"bytes32[]","internalType":"bytes32[]"},{"name":"blockChainworks","type":"uint256[]","internalType":"uint256[]"},{"name":"proof","type":"bytes","internalType":"bytes"}],"outputs":[],"stateMutability":"nonpayable"},{"type":"function","name":"swapReservations","inputs":[{"name":"","type":"uint256","internalType":"uint256"}],"outputs":[{"name":"owner","type":"address","internalType":"address"},{"name":"confirmationBlockHeight","type":"uint32","internalType":"uint32"},{"name":"reservationTimestamp","type":"uint64","internalType":"uint64"},{"name":"liquidityUnlockedTimestamp","type":"uint64","internalType":"uint64"},{"name":"state","type":"uint8","internalType":"enum RiftExchange.ReservationState"},{"name":"ethPayoutAddress","type":"address","internalType":"address"},{"name":"lpReservationHash","type":"bytes32","internalType":"bytes32"},{"name":"nonce","type":"bytes32","internalType":"bytes32"},{"name":"totalSatsInputIncludingProxyFee","type":"uint256","internalType":"uint256"},{"name":"totalSwapOutputAmount","type":"uint256","internalType":"uint256"},{"name":"proposedBlockHeight","type":"uint256","internalType":"uint256"},{"name":"proposedBlockHash","type":"bytes32","internalType":"bytes32"}],"stateMutability":"view"},{"type":"function","name":"transferOwnership","inputs":[{"name":"newOwner","type":"address","internalType":"address"}],"outputs":[],"stateMutability":"nonpayable"},{"type":"function","name":"updateExchangeRate","inputs":[{"name":"globalVaultIndex","type":"uint256","internalType":"uint256"},{"name":"newExchangeRate","type":"uint64","internalType":"uint64"},{"name":"expiredSwapReservationIndexes","type":"uint256[]","internalType":"uint256[]"}],"outputs":[],"stateMutability":"nonpayable"},{"type":"function","name":"updateFeeRouter","inputs":[{"name":"newProtocolAddress","type":"address","internalType":"address payable"}],"outputs":[],"stateMutability":"nonpayable"},{"type":"function","name":"updateNewLiquidityDepositsPaused","inputs":[{"name":"newPauseState","type":"bool","internalType":"bool"}],"outputs":[],"stateMutability":"nonpayable"},{"type":"function","name":"updateProtocolFee","inputs":[{"name":"newProtocolFeeBP","type":"uint8","internalType":"uint8"}],"outputs":[],"stateMutability":"nonpayable"},{"type":"function","name":"validateBlockExists","inputs":[{"name":"blockHeight","type":"uint256","internalType":"uint256"}],"outputs":[],"stateMutability":"view"},{"type":"function","name":"withdrawLiquidity","inputs":[{"name":"globalVaultIndex","type":"uint256","internalType":"uint256"},{"name":"amountToWithdraw","type":"uint192","internalType":"uint192"},{"name":"expiredSwapReservationIndexes","type":"uint256[]","internalType":"uint256[]"}],"outputs":[],"stateMutability":"nonpayable"},{"type":"event","name":"BlocksAdded","inputs":[{"name":"startBlockHeight","type":"uint256","indexed":false,"internalType":"uint256"},{"name":"count","type":"uint256","indexed":false,"internalType":"uint256"}],"anonymous":false},{"type":"event","name":"LiquidityDeposited","inputs":[{"name":"depositor","type":"address","indexed":true,"internalType":"address"},{"name":"depositVaultIndex","type":"uint256","indexed":false,"internalType":"uint256"},{"name":"amount","type":"uint256","indexed":false,"internalType":"uint256"},{"name":"exchangeRate","type":"uint64","indexed":false,"internalType":"uint64"}],"anonymous":false},{"type":"event","name":"LiquidityReserved","inputs":[{"name":"reserver","type":"address","indexed":true,"internalType":"address"},{"name":"swapReservationIndex","type":"uint256","indexed":false,"internalType":"uint256"},{"name":"orderNonce","type":"bytes32","indexed":false,"internalType":"bytes32"}],"anonymous":false},{"type":"event","name":"OwnershipTransferred","inputs":[{"name":"user","type":"address","indexed":true,"internalType":"address"},{"name":"newOwner","type":"address","indexed":true,"internalType":"address"}],"anonymous":false},{"type":"event","name":"ProofSubmitted","inputs":[{"name":"prover","type":"address","indexed":true,"internalType":"address"},{"name":"swapReservationIndex","type":"uint256","indexed":false,"internalType":"uint256"},{"name":"orderNonce","type":"bytes32","indexed":false,"internalType":"bytes32"}],"anonymous":false},{"type":"event","name":"SwapComplete","inputs":[{"name":"swapReservationIndex","type":"uint256","indexed":false,"internalType":"uint256"},{"name":"orderNonce","type":"bytes32","indexed":false,"internalType":"bytes32"}],"anonymous":false},{"type":"error","name":"AmountToReserveTooLow","inputs":[{"name":"index","type":"uint256","internalType":"uint256"}]},{"type":"error","name":"BlockDoesNotExist","inputs":[]},{"type":"error","name":"InvalidConfirmationBlock","inputs":[]},{"type":"error","name":"InvalidExchangeRate","inputs":[]},{"type":"error","name":"InvalidInputArrays","inputs":[]},{"type":"error","name":"InvalidProposedBlockOverwrite","inputs":[]},{"type":"error","name":"InvalidReservationState","inputs":[]},{"type":"error","name":"InvalidSafeBlock","inputs":[]},{"type":"error","name":"NewDepositsPaused","inputs":[]},{"type":"error","name":"NotEnoughLiquidity","inputs":[]},{"type":"error","name":"NotVaultOwner","inputs":[]},{"type":"error","name":"OverwrittenProposedBlock","inputs":[]},{"type":"error","name":"ReservationNotExpired","inputs":[]},{"type":"error","name":"ReservationNotProved","inputs":[]},{"type":"error","name":"StillInChallengePeriod","inputs":[]},{"type":"error","name":"UpdateExchangeRateError","inputs":[]},{"type":"error","name":"WithdrawalAmountError","inputs":[]}],"bytecode":{"object":"0x6101206040526004805461ffff60a01b1916600560a91b179055348015610024575f80fd5b506040516139e43803806139e4833981016040819052610043916101df565b60028a90555f8a81526001602090815260408083208a90559082905281208a905583908b9089908c908c90869082908061007c88610197565b8152602081019190915260409081015f9081209290925560ff909216608052600480546001600160a01b0389166001600160a01b03199091168117909155915191955093507f8be0079c531659141344cd1fd0a4f28419497f9722a3daafe3b4186f6b6457e09250839150a35060e08290526001600160a01b0380871661010052851660a08190526040805163313ce56760e01b8152905163313ce567916004808201926020929091908290030181865afa15801561013d573d5f803e3d5ffd5b505050506040513d601f19601f820116820180604052508101906101619190610273565b60ff1660c0525050600580546001600160a01b0319166001600160a01b039390931692909217909155506102d195505050505050565b5f6101a46107e083610293565b6101ae90836102b2565b92915050565b80516001600160a01b03811681146101ca575f80fd5b919050565b805160ff811681146101ca575f80fd5b5f805f805f805f805f806101408b8d0312156101f9575f80fd5b8a5160208c015160408d015160608e0151929c50909a509850965061022060808c016101b4565b955061022e60a08c016101b4565b945061023c60c08c016101b4565b935061024a60e08c016101b4565b6101008c015190935091506102626101208c016101cf565b90509295989b9194979a5092959850565b5f60208284031215610283575f80fd5b61028c826101cf565b9392505050565b5f826102ad57634e487b7160e01b5f52601260045260245ffd5b500690565b818103818111156101ae57634e487b7160e01b5f52601160045260245ffd5b60805160a05160c05160e051610100516136a561033f5f395f8181610536015261207e01525f81816104b701526120ab01525f81816103430152611a3501525f818161022601528181610ed201528181610f3f015281816112d2015261154c01525f61248d01526136a55ff3fe608060405234801561000f575f80fd5b5060043610610208575f3560e01c80638d5ca0521161011f578063cda7d82c116100a9578063ecdea06f11610079578063ecdea06f146105e2578063ed8b2b32146105f5578063ee82ac5e14610608578063f2fde38b14610627578063fba781661461063a575f80fd5b8063cda7d82c14610588578063d57763c3146105a7578063d8418403146105c7578063ea6fe03e146105da575f80fd5b8063b01c27d1116100ef578063b01c27d11461051f578063b8b2459214610531578063b9b2a98214610558578063c3a079ed1461056b578063c5fba0b814610574575f80fd5b80638d5ca052146104b25780638da5cb5b146104d957806398f9e757146104ec578063a3db99d91461050c575f80fd5b80636512d057116101a05780637a9059a2116101705780637a9059a2146104425780637dce555014610455578063803d5f621461045d57806389a11f7a146104705780638cc63cdd1461048e575f80fd5b80636512d057146103de5780636b994abb146103f157806373e149e61461041c578063778919071461042f575f80fd5b8063276d080e116101db578063276d080e1461029c578063505675dd1461032b5780635b7f415c1461033e5780635f4d061014610377575f80fd5b80630a7aa2931461020c57806313f6658714610221578063163de0c5146102655780631753b4e11461027c575b5f80fd5b61021f61021a366004612a8b565b610643565b005b6102487f000000000000000000000000000000000000000000000000000000000000000081565b6040516001600160a01b0390911681526020015b60405180910390f35b61026e60025481565b60405190815260200161025c565b61028f61028a366004612bb0565b610696565b60405161025c9190612c99565b6102af6102aa366004612d75565b6107c4565b60405161025c91905f60e08201905060018060a01b0383511682526001600160401b0360208401511660208301526040830151604083015260608301516060830152608083015160808301526001600160401b0360a08401511660a083015269ffffffffffffffffffff1960c08401511660c083015292915050565b61021f610339366004612d8c565b61089f565b6103657f000000000000000000000000000000000000000000000000000000000000000081565b60405160ff909116815260200161025c565b61038a610385366004612d75565b610b8e565b604080516001600160a01b0390981688526001600160401b039687166020890152870194909452606086019290925260808501529190911660a08301526001600160501b03191660c082015260e00161025c565b61026e6103ec366004612d75565b610bf7565b6104046103ff366004612d75565b610c22565b60405161025c9c9b9a99989796959493929190612e12565b61021f61042a366004612ead565b610cb7565b61021f61043d366004612d75565b610d03565b61021f610450366004612ed5565b611045565b60065461026e565b61021f61046b366004612ef0565b61108d565b61047961384081565b60405163ffffffff909116815260200161025c565b6004546104a290600160a01b900460ff1681565b604051901515815260200161025c565b61026e7f000000000000000000000000000000000000000000000000000000000000000081565b600454610248906001600160a01b031681565b6104ff6104fa366004612ead565b6113a4565b60405161025c9190612f44565b61021f61051a366004612f7c565b611424565b600454600160a01b900460ff166104a2565b6102487f000000000000000000000000000000000000000000000000000000000000000081565b61026e610566366004612d75565b6115be565b61047961012c81565b60045461036590600160a81b900460ff1681565b61026e610596366004612d75565b5f9081526001602052604090205490565b6105ba6105b5366004612d75565b6115db565b60405161025c9190613010565b61021f6105d5366004613136565b6118b3565b60075461026e565b61021f6105f03660046132b6565b611fd2565b61021f610603366004612d75565b612204565b61026e610616366004612d75565b5f9081526020819052604090205490565b61021f610635366004612ead565b612232565b61026e60035481565b6004546001600160a01b031633146106765760405162461bcd60e51b815260040161066d9061338e565b60405180910390fd5b6004805460ff909216600160a81b0260ff60a81b19909216919091179055565b60408051610160810182525f8082526020820181905291810182905260608082018390526080820183905260a0820183905260c0820183905260e0820183905261010082018390526101208201819052610140820152600780549192918b908110610703576107036133b4565b905f5260205f2090600b020190506040518061016001604052808a8152602001898152602001826002015481526020018260030154815260200182600801805490506001600160401b031681526020016107656106168a63ffffffff166115be565b815263ffffffff89166020820181905260409091019061078590896133dc565b6001600160401b0316815260200161079d88886133dc565b6001600160401b031681526020018581526020018481525091505098975050505050505050565b6040805160e0810182525f80825260208201819052918101829052606081018290526080810182905260a0810182905260c08101919091526006828154811061080f5761080f6133b4565b5f9182526020918290206040805160e08101825260059390930290910180546001600160a01b0381168452600160a01b90046001600160401b039081169484019490945260018101549183019190915260028101546060830152600381015460808301526004015491821660a0820152600160401b90910460501b6001600160501b03191660c082015292915050565b336001600160a01b0316600684815481106108bc576108bc6133b4565b5f9182526020909120600590910201546001600160a01b0316146108f357604051630e7fea9d60e01b815260040160405180910390fd5b816001600160401b03165f0361091c5760405163a2ec3a5560e01b815260040160405180910390fd5b5f60068481548110610930576109306133b4565b905f5260205f20906005020190505f8160020154905061094f836122a7565b8160010154810361097d5760048201805467ffffffffffffffff19166001600160401b038616179055610b87565b805f0361099d57604051632b5daf8960e01b815260040160405180910390fd5b6040805160e08101825283546001600160a01b0390811682526001600160401b0342811660208401908152938301858152606084018681525f608086018181528b851660a0880190815260048b01546001600160501b0319600160401b91829004605090811b9190911660c08b01908152600680546001810182559087529a516005909b027ff652222313e28459528d920b65115c16c04f3efc82aaedc97be59f3f377c0d3f810180549d518b16600160a01b026001600160e01b0319909e169c909b169b909b179b909b1790985594517ff652222313e28459528d920b65115c16c04f3efc82aaedc97be59f3f377c0d4089015592517ff652222313e28459528d920b65115c16c04f3efc82aaedc97be59f3f377c0d41880155517ff652222313e28459528d920b65115c16c04f3efc82aaedc97be59f3f377c0d4287015590517ff652222313e28459528d920b65115c16c04f3efc82aaedc97be59f3f377c0d439095018054965190941c9091026001600160f01b0319909516939091169290921792909217909155600383018054839290610b3c9084906133fb565b90915550505f6002830155600654610b87903390610b5c9060019061340e565b6001600160a01b039091165f9081526008602090815260408220805460018101825590835291200155565b5050505050565b60068181548110610b9d575f80fd5b5f918252602090912060059091020180546001820154600283015460038401546004909401546001600160a01b03841695506001600160401b03600160a01b9094048416949293919291811690600160401b900460501b87565b5f60068281548110610c0b57610c0b6133b4565b905f5260205f209060050201600201549050919050565b60078181548110610c31575f80fd5b5f9182526020909120600b9091020180546001820154600283015460038401546004850154600586015460068701546007909701546001600160a01b03808816995063ffffffff600160a01b890416986001600160401b03600160c01b90990489169888169760ff600160401b82041697600160481b909104909216959194919391928c565b6004546001600160a01b03163314610ce15760405162461bcd60e51b815260040161066d9061338e565b600580546001600160a01b0319166001600160a01b0392909216919091179055565b5f60078281548110610d1757610d176133b4565b5f9182526020909120600b90910201905060026001820154600160401b900460ff166004811115610d4a57610d4a612dde565b14610d68576040516320d55f6760e21b815260040160405180910390fd5b60018101546001600160401b0316421015610d9657604051632d5c37f560e21b815260040160405180910390fd5b610dca604051806040016040528060138152602001721c1c9bdc1bdcd959109b1bd8dad2195a59da1d606a1b8152506123b5565b610deb610de682600601545f9081526020819052604090205490565b6123f8565b610e1d604051806040016040528060118152602001700e0e4dee0dee6cac884d8dec6d690c2e6d607b1b8152506123b5565b610e2a81600701546123f8565b600781015460068201545f9081526020819052604090205414610e605760405163c1f6fa5160e01b815260040160405180910390fd5b60018101805460ff60401b19166803000000000000000017905560045460058201545f9161271091610e9c91600160a81b900460ff1690613421565b610ea6919061344c565b60055460405163a9059cbb60e01b81526001600160a01b039182166004820152602481018390529192507f0000000000000000000000000000000000000000000000000000000000000000169063a9059cbb906044016020604051808303815f875af1158015610f18573d5f803e3d5ffd5b505050506040513d601f19601f82011682018060405250810190610f3c919061345f565b507f00000000000000000000000000000000000000000000000000000000000000006001600160a01b031663a9059cbb8360010160099054906101000a90046001600160a01b0316838560050154610f94919061340e565b6040516001600160e01b031960e085901b1681526001600160a01b03909216600483015260248201526044016020604051808303815f875af1158015610fdc573d5f803e3d5ffd5b505050506040513d601f19601f82011682018060405250810190611000919061345f565b5060038201546040805185815260208101929092527f12245c00d428a4c558061d2f69fe154a203bd2fb4a65b6c3e73e95ccdc735d18910160405180910390a1505050565b6004546001600160a01b0316331461106f5760405162461bcd60e51b815260040161066d9061338e565b60048054911515600160a01b0260ff60a01b19909216919091179055565b600454600160a01b900460ff16156110b8576040516348010c6560e11b815260040160405180910390fd5b816001600160401b03165f036110e15760405163a2ec3a5560e01b815260040160405180910390fd5b335f90815260086020526040812054900361112d57604080515f602080830182815283850185528352338252600881529290208151805192939192611129928492019061292f565b5050505b6040805160e081018252338082526001600160401b0342811660208401908152938301878152606084018881525f6080860181815289851660a088019081526001600160501b03198a1660c0890190815260068054600181810183559582905299516005909a027ff652222313e28459528d920b65115c16c04f3efc82aaedc97be59f3f377c0d3f810180549c518a16600160a01b026001600160e01b0319909d166001600160a01b039c909c169b909b179b909b1790995594517ff652222313e28459528d920b65115c16c04f3efc82aaedc97be59f3f377c0d408a015592517ff652222313e28459528d920b65115c16c04f3efc82aaedc97be59f3f377c0d41890155517ff652222313e28459528d920b65115c16c04f3efc82aaedc97be59f3f377c0d4288015590517ff652222313e28459528d920b65115c16c04f3efc82aaedc97be59f3f377c0d439096018054925160501c600160401b026001600160f01b0319909316969093169590951717905590546112b092610b5c9161340e565b6040516323b872dd60e01b8152336004820152306024820152604481018490527f00000000000000000000000000000000000000000000000000000000000000006001600160a01b0316906323b872dd906064016020604051808303815f875af1158015611320573d5f803e3d5ffd5b505050506040513d601f19601f82011682018060405250810190611344919061345f565b5060065433907ffd5ab8914e1dca355d18ae7fe50627d3afe042f323e1b0ae31f3a9d2cd19de37906113789060019061340e565b60408051918252602082018790526001600160401b0386169082015260600160405180910390a2505050565b6040805160208082018352606082526001600160a01b0384165f908152600882528390208351815480840282018601865292810183815293949093919284929184919084018282801561141457602002820191905f5260205f20905b815481526020019060010190808311611400575b5050505050815250509050919050565b336001600160a01b031660068481548110611441576114416133b4565b5f9182526020909120600590910201546001600160a01b03161461147857604051630e7fea9d60e01b815260040160405180910390fd5b611481816122a7565b5f60068481548110611495576114956133b4565b905f5260205f2090600502019050826001600160c01b03165f14806114c657508060020154836001600160c01b0316115b156114e45760405163b4e3d41360e01b815260040160405180910390fd5b826001600160c01b0316816002015f828254611500919061340e565b92505081905550826001600160c01b0316816003015f82825461152391906133fb565b909155505060405163a9059cbb60e01b81523360048201526001600160c01b03841660248201527f00000000000000000000000000000000000000000000000000000000000000006001600160a01b03169063a9059cbb906044016020604051808303815f875af115801561159a573d5f803e3d5ffd5b505050506040513d601f19601f82011682018060405250810190610b87919061345f565b5f6115cb6107e08361347a565b6115d5908361340e565b92915050565b604080516101e0810182525f8082526020820181905291810182905260608082018390526080820183905260a0820183905260c0820183905260e0820183905261010082018390526101208201839052610140820183905261016082019290925261018081018290526101a081018290526101c081019190915260078281548110611668576116686133b4565b5f918252602091829020604080516101e081018252600b90930290910180546001600160a01b038116845263ffffffff600160a01b820416948401949094526001600160401b03600160c01b909404841691830191909152600181015492831660608301529091608083019060ff600160401b9091041660048111156116f0576116f0612dde565b600481111561170157611701612dde565b81526020016001820160099054906101000a90046001600160a01b03166001600160a01b03166001600160a01b03168152602001600282015481526020016003820154815260200160048201548152602001600582015481526020016006820154815260200160078201548152602001600882018054806020026020016040519081016040528092919081815260200182805480156117bd57602002820191905f5260205f20905b8154815260200190600101908083116117a9575b505050505081526020016009820180548060200260200160405190810160405280929190818152602001828054801561181d57602002820191905f5260205f20905b81546001600160c01b031681526001909101906020018083116117ff575b50505050508152602001600a820180548060200260200160405190810160405280929190818152602001828054801561141457602002820191905f5260205f20905f905b82829054906101000a90046001600160401b03166001600160401b0316815260200190600801906020826007010492830192600103820291508084116118615790505050505050815250509050919050565b845115806118c357508351855114155b156118e15760405163744bba7b60e01b815260040160405180910390fd5b5f5b8451811015611939578481815181106118fe576118fe6133b4565b60200260200101516001600160c01b03165f0361193157604051633143436b60e11b81526004810182905260240161066d565b6001016118e3565b505f805f87516001600160401b0381111561195657611956612ae0565b60405190808252806020026020018201604052801561197f578160200160208202803683370190505b5090505f5b8751811015611aab575f60068a83815181106119a2576119a26133b4565b6020026020010151815481106119ba576119ba6133b4565b5f91825260209091206004600590920201015489516001600160401b0390911691508990839081106119ee576119ee6133b4565b60200260200101516001600160c01b031685611a0a91906133fb565b94505f611a598a8481518110611a2257611a226133b4565b60200260200101516001600160c01b03167f000000000000000000000000000000000000000000000000000000000000000061243d565b90505f611a66838361344c565b9050611a7281876133fb565b955080858581518110611a8757611a876133b4565b6001600160401b039290921660209283029190910190910152505050600101611984565b50611ab5846122a7565b5f805b8951811015611c36576002838281518110611ad557611ad56133b4565b602002602001015160068c8481518110611af157611af16133b4565b602002602001015181548110611b0957611b096133b4565b5f91825260209182902060046005909202010154604080516001600160401b03909416928401929092526001600160501b0319600160401b90910460501b16908201526060810184905260800160408051601f1981840301815290829052611b709161348d565b602060405180830381855afa158015611b8b573d5f803e3d5ffd5b5050506040513d601f19601f82011682018060405250810190611bae91906134a3565b915060068a8281518110611bc457611bc46133b4565b602002602001015181548110611bdc57611bdc6133b4565b905f5260205f20906005020160020154898281518110611bfe57611bfe6133b4565b60200260200101516001600160c01b03161115611c2e57604051634323a55560e01b815260040160405180910390fd5b600101611ab8565b50600754604080516001600160a01b038a16602082015242918101919091524660608201526080810183905260a08101919091525f9060c00160408051601f1981840301815282825280516020918201206101e0840183526001600160a01b038f1684525f9184018290526001600160401b034216928401929092526060830152915060079060808101600181526020018a6001600160a01b031681526020018481526020018381526020018981526020018781526020015f81526020015f801b81526020018c81526020018b815260200185815250908060018154018082558091505060019003905f5260205f2090600b02015f909190919091505f820151815f015f6101000a8154816001600160a01b0302191690836001600160a01b031602179055506020820151815f0160146101000a81548163ffffffff021916908363ffffffff1602179055506040820151815f0160186101000a8154816001600160401b0302191690836001600160401b031602179055506060820151816001015f6101000a8154816001600160401b0302191690836001600160401b0316021790555060808201518160010160086101000a81548160ff02191690836004811115611e0457611e04612dde565b021790555060a08201516001820180546001600160a01b03909216600160481b027fffffff0000000000000000000000000000000000000000ffffffffffffffffff90921691909117905560c0820151600282015560e0820151600382015561010082015160048201556101208201516005820155610140820151600682015561016082015160078201556101808201518051611eab91600884019160209091019061292f565b506101a08201518051611ec8916009840191602090910190612978565b506101c08201518051611ee591600a8401916020909101906129cb565b5050505f5b8a51811015611f6c57898181518110611f0557611f056133b4565b60200260200101516001600160c01b031660068c8381518110611f2a57611f2a6133b4565b602002602001015181548110611f4257611f426133b4565b905f5260205f2090600502016002015f828254611f5f919061340e565b9091555050600101611eea565b508a6001600160a01b03167f5956135c9be999a50f7ff4ea49ddf1485bc321ab333dc7a0877633eeb47528936001611fa360075490565b611fad919061340e565b6040805191825260208201859052015b60405180910390a25050505050505050505050565b5f60078a81548110611fe657611fe66133b4565b5f9182526020909120600b909102019050600180820154600160401b900460ff16600481111561201857612018612dde565b1461203657604051639085371960e01b815260040160405180910390fd5b5f6120478b8b8b8b8b8b8b8b610696565b6040516020016120579190612c99565b60408051601f198184030181529082905263020a49e360e51b825291506001600160a01b037f000000000000000000000000000000000000000000000000000000000000000016906341493c60906120d7907f000000000000000000000000000000000000000000000000000000000000000090859088906004016134e8565b5f6040518083038186803b1580156120ed575f80fd5b505afa1580156120ff573d5f803e3d5ffd5b506121369250505063ffffffff89166001600160401b038981169089168888612128858e6133dc565b6001600160401b0316612478565b60018201805460ff60401b19166802000000000000000017905561215c61012c4261351c565b60018301805467ffffffffffffffff19166001600160401b03928316179055871660068301558461219363ffffffff8a16896133dc565b6001600160401b0316815181106121ac576121ac6133b4565b60200260200101518260070181905550336001600160a01b03167f8bcdab581a6176f792fa96b0c57d32273bcd8621b0548c15a9c6379dc246e26c8c8460030154604051611fbd929190918252602082015260400190565b5f8181526020819052604090205461222f5760405163fa4a5e4560e01b815260040160405180910390fd5b50565b6004546001600160a01b0316331461225c5760405162461bcd60e51b815260040161066d9061338e565b600480546001600160a01b0319166001600160a01b03831690811790915560405133907f8be0079c531659141344cd1fd0a4f28419497f9722a3daafe3b4186f6b6457e0905f90a350565b6122b081612819565b5f5b81518110156123b1575f60078383815181106122d0576122d06133b4565b6020026020010151815481106122e8576122e86133b4565b905f5260205f2090600b020190505f5b600882015481101561238f575f600683600801838154811061231c5761231c6133b4565b905f5260205f20015481548110612335576123356133b4565b905f5260205f2090600502019050826009018281548110612358576123586133b4565b5f9182526020822001546002830180546001600160c01b039092169290916123819084906133fb565b9091555050506001016122f8565b506001908101805460ff60401b191668040000000000000000179055016122b2565b5050565b61222f816040516024016123c9919061353b565b60408051601f198184030181529190526020810180516001600160e01b031663104c13eb60e21b17905261290f565b61222f8160405160240161240e91815260200190565b60408051601f198184030181529190526020810180516001600160e01b03166327b7cf8560e01b17905261290f565b5f60128260ff1610156124715761245582601261354d565b61246090600a613649565b61246a9084613421565b90506115d5565b5090919050565b6002545f8181526001602052604090205460ff7f0000000000000000000000000000000000000000000000000000000000000000166124b7888861340e565b1015612511575f86815260208190526040902054855186906124db9060019061340e565b815181106124eb576124eb6133b4565b602002602001015114612511576040516341305f6360e01b815260040160405180910390fd5b818811156125325760405163575f3da360e01b815260040160405180910390fd5b848381518110612544576125446133b4565b60200260200101515f808981526020019081526020015f205403612569575050612811565b5f87815260208190526040902054158015906125ab5750836001855161258f919061340e565b8151811061259f5761259f6133b4565b60200260200101518110155b156125c9576040516371e98f3d60e11b815260040160405180910390fd5b818711156126cf5781880361263a578483815181106125ea576125ea6133b4565b60200260200101515f808981526020019081526020015f2081905550838381518110612618576126186133b4565b602002602001015160015f8981526020019081526020015f2081905550612735565b818810156126ca57875b8781116126c857856126568a8361340e565b81518110612666576126666133b4565b6020908102919091018101515f838152918290526040909120558461268b8a8361340e565b8151811061269b5761269b6133b4565b6020908102919091018101515f8381526001909252604090912055806126c081613657565b915050612644565b505b612735565b81871015612735578483815181106126e9576126e96133b4565b60200260200101515f808981526020019081526020015f2081905550838381518110612717576127176133b4565b602002602001015160015f8981526020019081526020015f20819055505b6002548711156127455760028790555b5f61274f886115be565b90505f61275b886115be565b90508181146127d0575f61276f828a61340e565b9050878181518110612783576127836133b4565b60200260200101515f808481526020019081526020015f20819055508681815181106127b1576127b16133b4565b602002602001015160015f8481526020019081526020015f2081905550505b8651604080518c815260208101929092527fb68477c768bbb33b4f238a3dfd17c33c499268c59cd042b7936bbc23dc2bdd34910160405180910390a1505050505b505050505050565b5f5b81518110156123b15761384063ffffffff166007838381518110612841576128416133b4565b602002602001015181548110612859576128596133b4565b5f9182526020909120600b909102015461288390600160c01b90046001600160401b03164261340e565b10806128e95750600160078383815181106128a0576128a06133b4565b6020026020010151815481106128b8576128b86133b4565b905f5260205f2090600b020160010160089054906101000a900460ff1660048111156128e6576128e6612dde565b14155b15612907576040516326349d6b60e01b815260040160405180910390fd5b60010161281b565b80516a636f6e736f6c652e6c6f67602083015f808483855afa5050505050565b828054828255905f5260205f20908101928215612968579160200282015b8281111561296857825182559160200191906001019061294d565b50612974929150612a77565b5090565b828054828255905f5260205f20908101928215612968579160200282015b8281111561296857825182546001600160c01b0319166001600160c01b03909116178255602090920191600190910190612996565b828054828255905f5260205f2090600301600490048101928215612968579160200282015f5b83821115612a3b57835183826101000a8154816001600160401b0302191690836001600160401b0316021790555092602001926008016020816007010492830192600103026129f1565b8015612a6e5782816101000a8154906001600160401b030219169055600801602081600701049283019260010302612a3b565b50506129749291505b5b80821115612974575f8155600101612a78565b5f60208284031215612a9b575f80fd5b813560ff81168114612aab575f80fd5b9392505050565b803563ffffffff81168114612ac5575f80fd5b919050565b80356001600160401b0381168114612ac5575f80fd5b634e487b7160e01b5f52604160045260245ffd5b604051601f8201601f191681016001600160401b0381118282101715612b1c57612b1c612ae0565b604052919050565b5f6001600160401b03821115612b3c57612b3c612ae0565b5060051b60200190565b5f82601f830112612b55575f80fd5b8135612b68612b6382612b24565b612af4565b8082825260208201915060208360051b860101925085831115612b89575f80fd5b602085015b83811015612ba6578035835260209283019201612b8e565b5095945050505050565b5f805f805f805f80610100898b031215612bc8575f80fd5b883597506020890135965060408901359550612be660608a01612ab2565b9450612bf460808a01612aca565b9350612c0260a08a01612aca565b925060c08901356001600160401b03811115612c1c575f80fd5b612c288b828c01612b46565b92505060e08901356001600160401b03811115612c43575f80fd5b612c4f8b828c01612b46565b9150509295985092959890939650565b5f8151808452602084019350602083015f5b82811015612c8f578151865260209586019590910190600101612c71565b5093949350505050565b60208152815160208201526020820151604082015260408201516060820152606082015160808201525f6080830151612cdd60a08401826001600160401b03169052565b5060a083015160c083015260c0830151612d0260e08401826001600160401b03169052565b5060e08301516001600160401b038116610100840152506101008301516001600160401b03811661012084015250610120830151610160610140840152612d4d610180840182612c5f565b9050610140840151601f1984830301610160850152612d6c8282612c5f565b95945050505050565b5f60208284031215612d85575f80fd5b5035919050565b5f805f60608486031215612d9e575f80fd5b83359250612dae60208501612aca565b915060408401356001600160401b03811115612dc8575f80fd5b612dd486828701612b46565b9150509250925092565b634e487b7160e01b5f52602160045260245ffd5b60058110612e0e57634e487b7160e01b5f52602160045260245ffd5b9052565b6001600160a01b038d16815263ffffffff8c1660208201526001600160401b038b811660408301528a1660608201526101808101612e53608083018b612df2565b6001600160a01b039890981660a082015260c081019690965260e08601949094526101008501929092526101208401526101408301526101609091015295945050505050565b6001600160a01b038116811461222f575f80fd5b5f60208284031215612ebd575f80fd5b8135612aab81612e99565b801515811461222f575f80fd5b5f60208284031215612ee5575f80fd5b8135612aab81612ec8565b5f805f60608486031215612f02575f80fd5b83359250612f1260208501612aca565b915060408401356001600160501b031981168114612f2e575f80fd5b809150509250925092565b8035612ac581612e99565b602081525f8251602080840152612f5e6040840182612c5f565b949350505050565b80356001600160c01b0381168114612ac5575f80fd5b5f805f60608486031215612f8e575f80fd5b83359250612dae60208501612f66565b5f8151808452602084019350602083015f5b82811015612c8f5781516001600160c01b0316865260209586019590910190600101612fb0565b5f8151808452602084019350602083015f5b82811015612c8f5781516001600160401b0316865260209586019590910190600101612fe9565b6020815261302a6020820183516001600160a01b03169052565b5f6020830151613042604084018263ffffffff169052565b5060408301516001600160401b03811660608401525060608301516001600160401b038116608084015250608083015161307f60a0840182612df2565b5060a08301516001600160a01b03811660c08401525060c083015160e083015260e08301516101008301526101008301516101208301526101208301516101408301526101408301516101608301526101608301516101808301526101808301516101e06101a08401526130f7610200840182612c5f565b90506101a0840151601f19848303016101c08501526131168282612f9e565b9150506101c0840151601f19848303016101e0850152612d6c8282612fd7565b5f805f805f8060c0878903121561314b575f80fd5b863561315681612e99565b955060208701356001600160401b03811115613170575f80fd5b61317c89828a01612b46565b95505060408701356001600160401b03811115613197575f80fd5b8701601f810189136131a7575f80fd5b80356131b5612b6382612b24565b8082825260208201915060208360051b85010192508b8311156131d6575f80fd5b6020840193505b828410156131ff576131ee84612f66565b8252602093840193909101906131dd565b96506132119250505060608801612f39565b92506080870135915060a08701356001600160401b03811115613232575f80fd5b61323e89828a01612b46565b9150509295509295509295565b5f82601f83011261325a575f80fd5b81356001600160401b0381111561327357613273612ae0565b613286601f8201601f1916602001612af4565b81815284602083860101111561329a575f80fd5b816020850160208301375f918101602001919091529392505050565b5f805f805f805f805f6101208a8c0312156132cf575f80fd5b8935985060208a0135975060408a013596506132ed60608b01612ab2565b95506132fb60808b01612aca565b945061330960a08b01612aca565b935060c08a01356001600160401b03811115613323575f80fd5b61332f8c828d01612b46565b93505060e08a01356001600160401b0381111561334a575f80fd5b6133568c828d01612b46565b9250506101008a01356001600160401b03811115613372575f80fd5b61337e8c828d0161324b565b9150509295985092959850929598565b6020808252600c908201526b15539055551213d49256915160a21b604082015260600190565b634e487b7160e01b5f52603260045260245ffd5b634e487b7160e01b5f52601160045260245ffd5b6001600160401b0382811682821603908111156115d5576115d56133c8565b808201808211156115d5576115d56133c8565b818103818111156115d5576115d56133c8565b80820281158282048414176115d5576115d56133c8565b634e487b7160e01b5f52601260045260245ffd5b5f8261345a5761345a613438565b500490565b5f6020828403121561346f575f80fd5b8151612aab81612ec8565b5f8261348857613488613438565b500690565b5f82518060208501845e5f920191825250919050565b5f602082840312156134b3575f80fd5b5051919050565b5f81518084528060208401602086015e5f602082860101526020601f19601f83011685010191505092915050565b838152606060208201525f61350060608301856134ba565b828103604084015261351281856134ba565b9695505050505050565b6001600160401b0381811683821601908111156115d5576115d56133c8565b602081525f612aab60208301846134ba565b60ff82811682821603908111156115d5576115d56133c8565b6001815b60018411156135a157808504811115613585576135856133c8565b600184161561359357908102905b60019390931c92800261356a565b935093915050565b5f826135b7575060016115d5565b816135c357505f6115d5565b81600181146135d957600281146135e3576135ff565b60019150506115d5565b60ff8411156135f4576135f46133c8565b50506001821b6115d5565b5060208310610133831016604e8410600b8410161715613622575081810a6115d5565b61362e5f198484613566565b805f1904821115613641576136416133c8565b029392505050565b5f612aab60ff8416836135a9565b5f60018201613668576136686133c8565b506001019056fea2646970667358221220a92302e594d6b7b12fe688e6f3e9bae1e2f33b9e70e3f6dc2427071134d37de164736f6c634300081a0033","linkReferences":{}},"methodIdentifiers":{"CHALLENGE_PERIOD()":"c3a079ed","CIRCUIT_VERIFICATION_KEY()":"8d5ca052","DEPOSIT_TOKEN()":"13f66587","RESERVATION_LOCKUP_PERIOD()":"89a11f7a","TOKEN_DECIMALS()":"5b7f415c","VERIFIER_CONTRACT()":"b8b24592","buildPublicInputs(uint256,bytes32,bytes32,uint32,uint64,uint64,bytes32[],uint256[])":"1753b4e1","calculateRetargetHeight(uint256)":"b9b2a982","currentConfirmationHeight()":"fba78166","currentHeight()":"163de0c5","depositLiquidity(uint256,uint64,bytes22)":"803d5f62","depositVaults(uint256)":"5f4d0610","getAreDepositsPaused()":"b01c27d1","getBlockHash(uint256)":"ee82ac5e","getChainwork(uint256)":"cda7d82c","getDepositVault(uint256)":"276d080e","getDepositVaultUnreservedBalance(uint256)":"6512d057","getDepositVaultsLength()":"7dce5550","getLiquidityProvider(address)":"98f9e757","getReservation(uint256)":"d57763c3","getReservationLength()":"ea6fe03e","isDepositNewLiquidityPaused()":"8cc63cdd","owner()":"8da5cb5b","protocolFeeBP()":"c5fba0b8","releaseLiquidity(uint256)":"77891907","reserveLiquidity(address,uint256[],uint192[],address,uint256,uint256[])":"d8418403","submitSwapProof(uint256,bytes32,bytes32,uint32,uint64,uint64,bytes32[],uint256[],bytes)":"ecdea06f","swapReservations(uint256)":"6b994abb","transferOwnership(address)":"f2fde38b","updateExchangeRate(uint256,uint64,uint256[])":"505675dd","updateFeeRouter(address)":"73e149e6","updateNewLiquidityDepositsPaused(bool)":"7a9059a2","updateProtocolFee(uint8)":"0a7aa293","validateBlockExists(uint256)":"ed8b2b32","withdrawLiquidity(uint256,uint192,uint256[])":"a3db99d9"},"storageLayout":{"storage":[{"astId":47993,"contract":"src/RiftExchange.sol:RiftExchange","label":"blockchain","offset":0,"slot":"0","type":"t_mapping(t_uint256,t_bytes32)"},{"astId":47997,"contract":"src/RiftExchange.sol:RiftExchange","label":"chainworks","offset":0,"slot":"1","type":"t_mapping(t_uint256,t_uint256)"},{"astId":47999,"contract":"src/RiftExchange.sol:RiftExchange","label":"currentHeight","offset":0,"slot":"2","type":"t_uint256"},{"astId":48001,"contract":"src/RiftExchange.sol:RiftExchange","label":"currentConfirmationHeight","offset":0,"slot":"3","type":"t_uint256"},{"astId":46637,"contract":"src/RiftExchange.sol:RiftExchange","label":"owner","offset":0,"slot":"4","type":"t_address"},{"astId":49366,"contract":"src/RiftExchange.sol:RiftExchange","label":"isDepositNewLiquidityPaused","offset":20,"slot":"4","type":"t_bool"},{"astId":49369,"contract":"src/RiftExchange.sol:RiftExchange","label":"protocolFeeBP","offset":21,"slot":"4","type":"t_uint8"},{"astId":49371,"contract":"src/RiftExchange.sol:RiftExchange","label":"feeRouterAddress","offset":0,"slot":"5","type":"t_address"},{"astId":49375,"contract":"src/RiftExchange.sol:RiftExchange","label":"depositVaults","offset":0,"slot":"6","type":"t_array(t_struct(DepositVault)49316_storage)dyn_storage"},{"astId":49379,"contract":"src/RiftExchange.sol:RiftExchange","label":"swapReservations","offset":0,"slot":"7","type":"t_array(t_struct(SwapReservation)49297_storage)dyn_storage"},{"astId":49384,"contract":"src/RiftExchange.sol:RiftExchange","label":"liquidityProviders","offset":0,"slot":"8","type":"t_mapping(t_address,t_struct(LiquidityProvider)49301_storage)"}],"types":{"t_address":{"encoding":"inplace","label":"address","numberOfBytes":"20"},"t_array(t_struct(DepositVault)49316_storage)dyn_storage":{"encoding":"dynamic_array","label":"struct RiftExchange.DepositVault[]","numberOfBytes":"32","base":"t_struct(DepositVault)49316_storage"},"t_array(t_struct(SwapReservation)49297_storage)dyn_storage":{"encoding":"dynamic_array","label":"struct RiftExchange.SwapReservation[]","numberOfBytes":"32","base":"t_struct(SwapReservation)49297_storage"},"t_array(t_uint192)dyn_storage":{"encoding":"dynamic_array","label":"uint192[]","numberOfBytes":"32","base":"t_uint192"},"t_array(t_uint256)dyn_storage":{"encoding":"dynamic_array","label":"uint256[]","numberOfBytes":"32","base":"t_uint256"},"t_array(t_uint64)dyn_storage":{"encoding":"dynamic_array","label":"uint64[]","numberOfBytes":"32","base":"t_uint64"},"t_bool":{"encoding":"inplace","label":"bool","numberOfBytes":"1"},"t_bytes22":{"encoding":"inplace","label":"bytes22","numberOfBytes":"22"},"t_bytes32":{"encoding":"inplace","label":"bytes32","numberOfBytes":"32"},"t_enum(ReservationState)49262":{"encoding":"inplace","label":"enum RiftExchange.ReservationState","numberOfBytes":"1"},"t_mapping(t_address,t_struct(LiquidityProvider)49301_storage)":{"encoding":"mapping","key":"t_address","label":"mapping(address => struct RiftExchange.LiquidityProvider)","numberOfBytes":"32","value":"t_struct(LiquidityProvider)49301_storage"},"t_mapping(t_uint256,t_bytes32)":{"encoding":"mapping","key":"t_uint256","label":"mapping(uint256 => bytes32)","numberOfBytes":"32","value":"t_bytes32"},"t_mapping(t_uint256,t_uint256)":{"encoding":"mapping","key":"t_uint256","label":"mapping(uint256 => uint256)","numberOfBytes":"32","value":"t_uint256"},"t_struct(DepositVault)49316_storage":{"encoding":"inplace","label":"struct RiftExchange.DepositVault","numberOfBytes":"160","members":[{"astId":49303,"contract":"src/RiftExchange.sol:RiftExchange","label":"owner","offset":0,"slot":"0","type":"t_address"},{"astId":49305,"contract":"src/RiftExchange.sol:RiftExchange","label":"depositTimestamp","offset":20,"slot":"0","type":"t_uint64"},{"astId":49307,"contract":"src/RiftExchange.sol:RiftExchange","label":"initialBalance","offset":0,"slot":"1","type":"t_uint256"},{"astId":49309,"contract":"src/RiftExchange.sol:RiftExchange","label":"unreservedBalance","offset":0,"slot":"2","type":"t_uint256"},{"astId":49311,"contract":"src/RiftExchange.sol:RiftExchange","label":"withdrawnAmount","offset":0,"slot":"3","type":"t_uint256"},{"astId":49313,"contract":"src/RiftExchange.sol:RiftExchange","label":"exchangeRate","offset":0,"slot":"4","type":"t_uint64"},{"astId":49315,"contract":"src/RiftExchange.sol:RiftExchange","label":"btcPayoutLockingScript","offset":8,"slot":"4","type":"t_bytes22"}]},"t_struct(LiquidityProvider)49301_storage":{"encoding":"inplace","label":"struct RiftExchange.LiquidityProvider","numberOfBytes":"32","members":[{"astId":49300,"contract":"src/RiftExchange.sol:RiftExchange","label":"depositVaultIndexes","offset":0,"slot":"0","type":"t_array(t_uint256)dyn_storage"}]},"t_struct(SwapReservation)49297_storage":{"encoding":"inplace","label":"struct RiftExchange.SwapReservation","numberOfBytes":"352","members":[{"astId":49264,"contract":"src/RiftExchange.sol:RiftExchange","label":"owner","offset":0,"slot":"0","type":"t_address"},{"astId":49266,"contract":"src/RiftExchange.sol:RiftExchange","label":"confirmationBlockHeight","offset":20,"slot":"0","type":"t_uint32"},{"astId":49268,"contract":"src/RiftExchange.sol:RiftExchange","label":"reservationTimestamp","offset":24,"slot":"0","type":"t_uint64"},{"astId":49270,"contract":"src/RiftExchange.sol:RiftExchange","label":"liquidityUnlockedTimestamp","offset":0,"slot":"1","type":"t_uint64"},{"astId":49273,"contract":"src/RiftExchange.sol:RiftExchange","label":"state","offset":8,"slot":"1","type":"t_enum(ReservationState)49262"},{"astId":49275,"contract":"src/RiftExchange.sol:RiftExchange","label":"ethPayoutAddress","offset":9,"slot":"1","type":"t_address"},{"astId":49277,"contract":"src/RiftExchange.sol:RiftExchange","label":"lpReservationHash","offset":0,"slot":"2","type":"t_bytes32"},{"astId":49279,"contract":"src/RiftExchange.sol:RiftExchange","label":"nonce","offset":0,"slot":"3","type":"t_bytes32"},{"astId":49281,"contract":"src/RiftExchange.sol:RiftExchange","label":"totalSatsInputIncludingProxyFee","offset":0,"slot":"4","type":"t_uint256"},{"astId":49283,"contract":"src/RiftExchange.sol:RiftExchange","label":"totalSwapOutputAmount","offset":0,"slot":"5","type":"t_uint256"},{"astId":49285,"contract":"src/RiftExchange.sol:RiftExchange","label":"proposedBlockHeight","offset":0,"slot":"6","type":"t_uint256"},{"astId":49287,"contract":"src/RiftExchange.sol:RiftExchange","label":"proposedBlockHash","offset":0,"slot":"7","type":"t_bytes32"},{"astId":49290,"contract":"src/RiftExchange.sol:RiftExchange","label":"vaultIndexes","offset":0,"slot":"8","type":"t_array(t_uint256)dyn_storage"},{"astId":49293,"contract":"src/RiftExchange.sol:RiftExchange","label":"amountsToReserve","offset":0,"slot":"9","type":"t_array(t_uint192)dyn_storage"},{"astId":49296,"contract":"src/RiftExchange.sol:RiftExchange","label":"expectedSatsOutput","offset":0,"slot":"10","type":"t_array(t_uint64)dyn_storage"}]},"t_uint192":{"encoding":"inplace","label":"uint192","numberOfBytes":"24"},"t_uint256":{"encoding":"inplace","label":"uint256","numberOfBytes":"32"},"t_uint32":{"encoding":"inplace","label":"uint32","numberOfBytes":"4"},"t_uint64":{"encoding":"inplace","label":"uint64","numberOfBytes":"8"},"t_uint8":{"encoding":"inplace","label":"uint8","numberOfBytes":"1"}}},"id":32}