{"abi":[{"type":"constructor","inputs":[{"name":"initialCheckpointHeight","type":"uint256","internalType":"uint256"},{"name":"initialBlockHash","type":"bytes32","internalType":"bytes32"},{"name":"initialRetargetBlockHash","type":"bytes32","internalType":"bytes32"},{"name":"initialChainwork","type":"uint256","internalType":"uint256"},{"name":"verifierContractAddress","type":"address","internalType":"address"},{"name":"depositTokenAddress","type":"address","internalType":"address"},{"name":"_proverReward","type":"uint256","internalType":"uint256"},{"name":"_releaserReward","type":"uint256","internalType":"uint256"},{"name":"_protocolAddress","type":"address","internalType":"address payable"},{"name":"_owner","type":"address","internalType":"address"},{"name":"_circuitVerificationKey","type":"bytes32","internalType":"bytes32"},{"name":"minimumConfirmationDelta","type":"uint8","internalType":"uint8"}],"stateMutability":"nonpayable"},{"type":"function","name":"CHALLENGE_PERIOD","inputs":[],"outputs":[{"name":"","type":"uint32","internalType":"uint32"}],"stateMutability":"view"},{"type":"function","name":"DEPOSIT_TOKEN","inputs":[],"outputs":[{"name":"","type":"address","internalType":"contract IERC20"}],"stateMutability":"view"},{"type":"function","name":"MAX_DEPOSIT_OUTPUTS","inputs":[],"outputs":[{"name":"","type":"uint16","internalType":"uint16"}],"stateMutability":"view"},{"type":"function","name":"MIN_ORDER_GAS_MULTIPLIER","inputs":[],"outputs":[{"name":"","type":"uint256","internalType":"uint256"}],"stateMutability":"view"},{"type":"function","name":"PROOF_GAS_COST","inputs":[],"outputs":[{"name":"","type":"uint256","internalType":"uint256"}],"stateMutability":"view"},{"type":"function","name":"RELEASE_GAS_COST","inputs":[],"outputs":[{"name":"","type":"uint256","internalType":"uint256"}],"stateMutability":"view"},{"type":"function","name":"RESERVATION_LOCKUP_PERIOD","inputs":[],"outputs":[{"name":"","type":"uint32","internalType":"uint32"}],"stateMutability":"view"},{"type":"function","name":"SAMPLING_SIZE","inputs":[],"outputs":[{"name":"","type":"uint8","internalType":"uint8"}],"stateMutability":"view"},{"type":"function","name":"TOKEN_DECIMALS","inputs":[],"outputs":[{"name":"","type":"uint8","internalType":"uint8"}],"stateMutability":"view"},{"type":"function","name":"buildProofPublicInputs","inputs":[{"name":"inputs","type":"tuple","internalType":"struct RiftExchange.ProofPublicInputs","components":[{"name":"natural_txid","type":"bytes32","internalType":"bytes32"},{"name":"merkle_root","type":"bytes32","internalType":"bytes32"},{"name":"lp_reservation_hash","type":"bytes32","internalType":"bytes32"},{"name":"order_nonce","type":"bytes32","internalType":"bytes32"},{"name":"lp_count","type":"uint64","internalType":"uint64"},{"name":"retarget_block_hash","type":"bytes32","internalType":"bytes32"},{"name":"safe_block_height","type":"uint64","internalType":"uint64"},{"name":"safe_block_height_delta","type":"uint64","internalType":"uint64"},{"name":"confirmation_block_height_delta","type":"uint64","internalType":"uint64"},{"name":"block_hashes","type":"bytes32[]","internalType":"bytes32[]"},{"name":"block_chainworks","type":"uint256[]","internalType":"uint256[]"}]}],"outputs":[{"name":"","type":"bytes","internalType":"bytes"}],"stateMutability":"pure"},{"type":"function","name":"calculateRetargetHeight","inputs":[{"name":"blockHeight","type":"uint256","internalType":"uint256"}],"outputs":[{"name":"","type":"uint256","internalType":"uint256"}],"stateMutability":"pure"},{"type":"function","name":"circuitVerificationKey","inputs":[],"outputs":[{"name":"","type":"bytes32","internalType":"bytes32"}],"stateMutability":"view"},{"type":"function","name":"currentConfirmationHeight","inputs":[],"outputs":[{"name":"","type":"uint256","internalType":"uint256"}],"stateMutability":"view"},{"type":"function","name":"currentHeight","inputs":[],"outputs":[{"name":"","type":"uint256","internalType":"uint256"}],"stateMutability":"view"},{"type":"function","name":"depositLiquidity","inputs":[{"name":"depositAmount","type":"uint256","internalType":"uint256"},{"name":"exchangeRate","type":"uint64","internalType":"uint64"},{"name":"btcPayoutLockingScript","type":"bytes22","internalType":"bytes22"},{"name":"vaultIndexToOverwrite","type":"int256","internalType":"int256"},{"name":"vaultIndexWithSameExchangeRate","type":"int256","internalType":"int256"}],"outputs":[],"stateMutability":"nonpayable"},{"type":"function","name":"depositVaults","inputs":[{"name":"","type":"uint256","internalType":"uint256"}],"outputs":[{"name":"owner","type":"address","internalType":"address"},{"name":"initialBalance","type":"uint256","internalType":"uint256"},{"name":"unreservedBalance","type":"uint256","internalType":"uint256"},{"name":"withdrawnAmount","type":"uint256","internalType":"uint256"},{"name":"exchangeRate","type":"uint64","internalType":"uint64"},{"name":"btcPayoutLockingScript","type":"bytes22","internalType":"bytes22"}],"stateMutability":"view"},{"type":"function","name":"emptyDepositVault","inputs":[{"name":"vaultIndex","type":"uint256","internalType":"uint256"}],"outputs":[],"stateMutability":"nonpayable"},{"type":"function","name":"getAreDepositsPaused","inputs":[],"outputs":[{"name":"","type":"bool","internalType":"bool"}],"stateMutability":"view"},{"type":"function","name":"getBlockHash","inputs":[{"name":"blockHeight","type":"uint256","internalType":"uint256"}],"outputs":[{"name":"","type":"bytes32","internalType":"bytes32"}],"stateMutability":"view"},{"type":"function","name":"getChainwork","inputs":[{"name":"blockHeight","type":"uint256","internalType":"uint256"}],"outputs":[{"name":"","type":"uint256","internalType":"uint256"}],"stateMutability":"view"},{"type":"function","name":"getDepositVault","inputs":[{"name":"depositIndex","type":"uint256","internalType":"uint256"}],"outputs":[{"name":"","type":"tuple","internalType":"struct RiftExchange.DepositVault","components":[{"name":"owner","type":"address","internalType":"address"},{"name":"initialBalance","type":"uint256","internalType":"uint256"},{"name":"unreservedBalance","type":"uint256","internalType":"uint256"},{"name":"withdrawnAmount","type":"uint256","internalType":"uint256"},{"name":"exchangeRate","type":"uint64","internalType":"uint64"},{"name":"btcPayoutLockingScript","type":"bytes22","internalType":"bytes22"}]}],"stateMutability":"view"},{"type":"function","name":"getDepositVaultUnreservedBalance","inputs":[{"name":"depositIndex","type":"uint256","internalType":"uint256"}],"outputs":[{"name":"","type":"uint256","internalType":"uint256"}],"stateMutability":"view"},{"type":"function","name":"getDepositVaultsLength","inputs":[],"outputs":[{"name":"","type":"uint256","internalType":"uint256"}],"stateMutability":"view"},{"type":"function","name":"getLiquidityProvider","inputs":[{"name":"lpAddress","type":"address","internalType":"address"}],"outputs":[{"name":"","type":"tuple","internalType":"struct RiftExchange.LiquidityProvider","components":[{"name":"depositVaultIndexes","type":"uint256[]","internalType":"uint256[]"}]}],"stateMutability":"view"},{"type":"function","name":"getReservation","inputs":[{"name":"reservationIndex","type":"uint256","internalType":"uint256"}],"outputs":[{"name":"","type":"tuple","internalType":"struct RiftExchange.SwapReservation","components":[{"name":"owner","type":"address","internalType":"address"},{"name":"confirmationBlockHeight","type":"uint32","internalType":"uint32"},{"name":"reservationTimestamp","type":"uint32","internalType":"uint32"},{"name":"unlockTimestamp","type":"uint32","internalType":"uint32"},{"name":"state","type":"uint8","internalType":"enum RiftExchange.ReservationState"},{"name":"ethPayoutAddress","type":"address","internalType":"address"},{"name":"lpReservationHash","type":"bytes32","internalType":"bytes32"},{"name":"nonce","type":"bytes32","internalType":"bytes32"},{"name":"totalSatsInputInlcudingProxyFee","type":"uint256","internalType":"uint256"},{"name":"totalSwapOutputAmount","type":"uint256","internalType":"uint256"},{"name":"prepaidFeeAmount","type":"int256","internalType":"int256"},{"name":"proposedBlockHeight","type":"uint256","internalType":"uint256"},{"name":"proposedBlockHash","type":"bytes32","internalType":"bytes32"},{"name":"vaultIndexes","type":"uint256[]","internalType":"uint256[]"},{"name":"amountsToReserve","type":"uint192[]","internalType":"uint192[]"},{"name":"expectedSatsOutput","type":"uint64[]","internalType":"uint64[]"}]}],"stateMutability":"view"},{"type":"function","name":"getReservationLength","inputs":[],"outputs":[{"name":"","type":"uint256","internalType":"uint256"}],"stateMutability":"view"},{"type":"function","name":"isDepositNewLiquidityPaused","inputs":[],"outputs":[{"name":"","type":"bool","internalType":"bool"}],"stateMutability":"view"},{"type":"function","name":"owner","inputs":[],"outputs":[{"name":"","type":"address","internalType":"address"}],"stateMutability":"view"},{"type":"function","name":"pauseDepositNewLiquidity","inputs":[],"outputs":[],"stateMutability":"nonpayable"},{"type":"function","name":"proposeTransactionProof","inputs":[{"name":"swapReservationIndex","type":"uint256","internalType":"uint256"},{"name":"bitcoinTxId","type":"bytes32","internalType":"bytes32"},{"name":"merkleRoot","type":"bytes32","internalType":"bytes32"},{"name":"safeBlockHeight","type":"uint32","internalType":"uint32"},{"name":"proposedBlockHeight","type":"uint64","internalType":"uint64"},{"name":"confirmationBlockHeight","type":"uint64","internalType":"uint64"},{"name":"blockHashes","type":"bytes32[]","internalType":"bytes32[]"},{"name":"blockChainworks","type":"uint256[]","internalType":"uint256[]"},{"name":"proof","type":"bytes","internalType":"bytes"}],"outputs":[],"stateMutability":"nonpayable"},{"type":"function","name":"protocolFeeBP","inputs":[],"outputs":[{"name":"","type":"uint8","internalType":"uint8"}],"stateMutability":"view"},{"type":"function","name":"proverReward","inputs":[],"outputs":[{"name":"","type":"uint256","internalType":"uint256"}],"stateMutability":"view"},{"type":"function","name":"refundAllLPs","inputs":[{"name":"depositVaultStartIndex","type":"uint256","internalType":"uint256"},{"name":"depositVaultEndIndex","type":"uint256","internalType":"uint256"},{"name":"expiredReservationIndexes","type":"uint256[]","internalType":"uint256[]"}],"outputs":[],"stateMutability":"nonpayable"},{"type":"function","name":"releaseLiquidity","inputs":[{"name":"swapReservationIndex","type":"uint256","internalType":"uint256"}],"outputs":[],"stateMutability":"nonpayable"},{"type":"function","name":"releaserReward","inputs":[],"outputs":[{"name":"","type":"uint256","internalType":"uint256"}],"stateMutability":"view"},{"type":"function","name":"reserveLiquidity","inputs":[{"name":"vaultIndexesToReserve","type":"uint256[]","internalType":"uint256[]"},{"name":"amountsToReserve","type":"uint192[]","internalType":"uint192[]"},{"name":"ethPayoutAddress","type":"address","internalType":"address"},{"name":"totalSatsInputInlcudingProxyFee","type":"uint256","internalType":"uint256"},{"name":"expiredSwapReservationIndexes","type":"uint256[]","internalType":"uint256[]"}],"outputs":[],"stateMutability":"nonpayable"},{"type":"function","name":"setSwapReservationState","inputs":[{"name":"swapReservationIndex","type":"uint256","internalType":"uint256"},{"name":"state","type":"uint8","internalType":"enum RiftExchange.ReservationState"}],"outputs":[],"stateMutability":"nonpayable"},{"type":"function","name":"swapReservations","inputs":[{"name":"","type":"uint256","internalType":"uint256"}],"outputs":[{"name":"owner","type":"address","internalType":"address"},{"name":"confirmationBlockHeight","type":"uint32","internalType":"uint32"},{"name":"reservationTimestamp","type":"uint32","internalType":"uint32"},{"name":"unlockTimestamp","type":"uint32","internalType":"uint32"},{"name":"state","type":"uint8","internalType":"enum RiftExchange.ReservationState"},{"name":"ethPayoutAddress","type":"address","internalType":"address"},{"name":"lpReservationHash","type":"bytes32","internalType":"bytes32"},{"name":"nonce","type":"bytes32","internalType":"bytes32"},{"name":"totalSatsInputInlcudingProxyFee","type":"uint256","internalType":"uint256"},{"name":"totalSwapOutputAmount","type":"uint256","internalType":"uint256"},{"name":"prepaidFeeAmount","type":"int256","internalType":"int256"},{"name":"proposedBlockHeight","type":"uint256","internalType":"uint256"},{"name":"proposedBlockHash","type":"bytes32","internalType":"bytes32"}],"stateMutability":"view"},{"type":"function","name":"transferOwnership","inputs":[{"name":"newOwner","type":"address","internalType":"address"}],"outputs":[],"stateMutability":"nonpayable"},{"type":"function","name":"unpauseDepositNewLiquidity","inputs":[],"outputs":[],"stateMutability":"nonpayable"},{"type":"function","name":"updateExchangeRate","inputs":[{"name":"globalVaultIndex","type":"uint256","internalType":"uint256"},{"name":"localVaultIndex","type":"uint256","internalType":"uint256"},{"name":"newexchangeRate","type":"uint64","internalType":"uint64"},{"name":"expiredReservationIndexes","type":"uint256[]","internalType":"uint256[]"}],"outputs":[],"stateMutability":"nonpayable"},{"type":"function","name":"updateProtocolAddress","inputs":[{"name":"newProtocolAddress","type":"address","internalType":"address payable"}],"outputs":[],"stateMutability":"nonpayable"},{"type":"function","name":"updateProtocolFee","inputs":[{"name":"newProtocolFeeBP","type":"uint8","internalType":"uint8"}],"outputs":[],"stateMutability":"nonpayable"},{"type":"function","name":"updateRewards","inputs":[{"name":"newProverReward","type":"uint256","internalType":"uint256"},{"name":"newReleaserReward","type":"uint256","internalType":"uint256"}],"outputs":[],"stateMutability":"nonpayable"},{"type":"function","name":"validateBlockExists","inputs":[{"name":"blockHeight","type":"uint256","internalType":"uint256"}],"outputs":[],"stateMutability":"view"},{"type":"function","name":"verifierContract","inputs":[],"outputs":[{"name":"","type":"address","internalType":"contract ISP1Verifier"}],"stateMutability":"view"},{"type":"function","name":"withdrawLiquidity","inputs":[{"name":"globalVaultIndex","type":"uint256","internalType":"uint256"},{"name":"localVaultIndex","type":"uint256","internalType":"uint256"},{"name":"amountToWithdraw","type":"uint192","internalType":"uint192"},{"name":"expiredReservationIndexes","type":"uint256[]","internalType":"uint256[]"}],"outputs":[],"stateMutability":"nonpayable"},{"type":"event","name":"BlocksAdded","inputs":[{"name":"startBlockHeight","type":"uint256","indexed":false,"internalType":"uint256"},{"name":"count","type":"uint256","indexed":false,"internalType":"uint256"}],"anonymous":false},{"type":"event","name":"LiquidityReserved","inputs":[{"name":"reserver","type":"address","indexed":true,"internalType":"address"},{"name":"swapReservationIndex","type":"uint256","indexed":false,"internalType":"uint256"},{"name":"orderNonce","type":"bytes32","indexed":false,"internalType":"bytes32"}],"anonymous":false},{"type":"event","name":"OwnershipTransferred","inputs":[{"name":"user","type":"address","indexed":true,"internalType":"address"},{"name":"newOwner","type":"address","indexed":true,"internalType":"address"}],"anonymous":false},{"type":"event","name":"ProofProposed","inputs":[{"name":"prover","type":"address","indexed":true,"internalType":"address"},{"name":"swapReservationIndex","type":"uint256","indexed":false,"internalType":"uint256"},{"name":"orderNonce","type":"bytes32","indexed":false,"internalType":"bytes32"}],"anonymous":false},{"type":"event","name":"SwapComplete","inputs":[{"name":"swapReservationIndex","type":"uint256","indexed":false,"internalType":"uint256"},{"name":"orderNonce","type":"bytes32","indexed":false,"internalType":"bytes32"}],"anonymous":false},{"type":"error","name":"BlockDoesNotExist","inputs":[]},{"type":"error","name":"InvaidSameExchangeRatevaultIndex","inputs":[]},{"type":"error","name":"InvalidConfirmationBlock","inputs":[]},{"type":"error","name":"InvalidProposedBlockOverwrite","inputs":[]},{"type":"error","name":"InvalidSafeBlock","inputs":[]},{"type":"error","name":"InvalidUpdateWithActiveReservations","inputs":[]},{"type":"error","name":"InvalidVaultIndex","inputs":[]},{"type":"error","name":"InvalidVaultUpdate","inputs":[]},{"type":"error","name":"NotEnoughLiquidity","inputs":[]},{"type":"error","name":"NotVaultOwner","inputs":[]},{"type":"error","name":"OverwrittenProposedBlock","inputs":[]},{"type":"error","name":"ReservationNotExpired","inputs":[]},{"type":"error","name":"ReservationNotUnlocked","inputs":[]},{"type":"error","name":"StillInChallengePeriod","inputs":[]},{"type":"error","name":"WithdrawalAmountError","inputs":[]},{"type":"error","name":"exchangeRateZero","inputs":[]}],"bytecode":{"object":"0x61012060405260048054600560a91b61ffff60a01b19909116179055600a80546001600160a01b03191673f39fd6e51aad88f6f4ce6ab8827279cfffb922661790553480156200004d575f80fd5b5060405162003f6838038062003f68833981016040819052620000709162000220565b60028c90555f8c81526001602090815260408083208c90559082905281208c905583908d908b908e908e908690829080620000ab88620001d1565b8152602081019190915260409081015f9081209290925560ff909216608052600480546001600160a01b0389166001600160a01b03199091168117909155915191955093507f8be0079c531659141344cd1fd0a4f28419497f9722a3daafe3b4186f6b6457e09250839150a3506101008290526001600160a01b0380891660e052871660a08190526040805163313ce56760e01b8152905163313ce567916004808201926020929091908290030181865afa1580156200016d573d5f803e3d5ffd5b505050506040513d601f19601f82011682018060405250810190620001939190620002dc565b60ff1660c052505050600592909255600655600a80546001600160a01b0319166001600160a01b03909216919091179055506200033f945050505050565b5f620001e06107e083620002ff565b620001ec90836200031f565b92915050565b6001600160a01b038116811462000207575f80fd5b50565b805160ff811681146200021b575f80fd5b919050565b5f805f805f805f805f805f806101808d8f0312156200023d575f80fd5b8c519b5060208d01519a5060408d0151995060608d0151985060808d01516200026681620001f2565b60a08e01519098506200027981620001f2565b8097505060c08d0151955060e08d015194506101008d01516200029c81620001f2565b6101208e0151909450620002b081620001f2565b6101408e01519093509150620002ca6101608e016200020a565b90509295989b509295989b509295989b565b5f60208284031215620002ed575f80fd5b620002f8826200020a565b9392505050565b5f826200031a57634e487b7160e01b5f52601260045260245ffd5b500690565b81810381811115620001ec57634e487b7160e01b5f52601160045260245ffd5b60805160a05160c05160e05161010051613b97620003d15f395f8181610396015261255901525f818161068a015261252c01525f81816104110152818161083a01526123bf01525f81816102c501528181610eef01528181610fca015281816116b301528181611a7901528181611bd901528181611cca01528181611ff3015261268d01525f6129e00152613b975ff3fe608060405234801561000f575f80fd5b506004361061028c575f3560e01c80638cc63cdd11610161578063c3a079ed116100ca578063eb6c752211610084578063eb6c7522146106d4578063ed8b2b32146106de578063edd67b72146106f1578063ee82ac5e14610704578063f2fde38b14610723578063fba7816614610736575f80fd5b8063c3a079ed14610649578063c5fba0b814610652578063cda7d82c14610666578063cf69568814610685578063d57763c3146106ac578063ea6fe03e146106cc575f80fd5b80639cc7eab91161011b5780639cc7eab9146105e55780639cdb8e5a146105ee578063ad062e5514610609578063aeacb2e714610611578063b01c27d114610624578063b9b2a98214610636575f80fd5b80638cc63cdd146105515780638da5cb5b146105755780638f1546b41461058857806397e50818146105a857806398f9e757146105bb5780639a64279c146105db575f80fd5b806358e2b676116102035780636dcc17c8116101bd5780636dcc17c8146104e957806370c60e8f146104f257806377891907146105055780637b93291f146105185780637dce55501461052b57806389a11f7a14610533575f80fd5b806358e2b676146103f95780635b7f415c1461040c5780635f4d0610146104455780635f5d5b6a146104a25780636512d057146104aa5780636b994abb146104bd575f80fd5b8063276d080e11610254578063276d080e1461031b5780633d7b22b3146103915780634491ba54146103b8578063490d4c5f146103c057806351a7f1cd146103d357806356fe6f86146103e6575f80fd5b80630140e183146102905780630a7aa293146102a5578063130d1392146102b857806313f66587146102c0578063163de0c514610304575b5f80fd5b6102a361029e366004612f6f565b61073f565b005b6102a36102b3366004613064565b611095565b6102a36110e8565b6102e77f000000000000000000000000000000000000000000000000000000000000000081565b6040516001600160a01b0390911681526020015b60405180910390f35b61030d60025481565b6040519081526020016102fb565b61032e610329366004613084565b61117b565b6040516102fb919081516001600160a01b031681526020808301519082015260408083015190820152606080830151908201526080808301516001600160401b03169082015260a0918201516001600160501b0319169181019190915260c00190565b61030d7f000000000000000000000000000000000000000000000000000000000000000081565b6102a361123c565b6102a36103ce366004613084565b6112ce565b6102a36103e13660046130b1565b611315565b6102a36103f4366004613109565b61172e565b6102a3610407366004613165565b61181c565b6104337f000000000000000000000000000000000000000000000000000000000000000081565b60405160ff90911681526020016102fb565b610458610453366004613084565b611868565b604080516001600160a01b03909716875260208701959095529385019290925260608401526001600160401b031660808301526001600160501b03191660a082015260c0016102fb565b61030d600281565b61030d6104b8366004613084565b6118c6565b6104d06104cb366004613084565b6118f1565b6040516102fb9d9c9b9a999897969594939291906131b4565b61030d60055481565b6102a361050036600461323d565b611985565b6102a3610513366004613084565b611af7565b6102a3610526366004613288565b611d89565b60095461030d565b61053c61708081565b60405163ffffffff90911681526020016102fb565b60045461056590600160a01b900460ff1681565b60405190151581526020016102fb565b6004546102e7906001600160a01b031681565b61059b6105963660046132b9565b611dd5565b6040516102fb919061340e565b6102a36105b6366004613420565b611dfe565b6105ce6105c9366004613165565b611e33565b6040516102fb919061347a565b61030d6203345081565b61030d60065481565b6105f6603281565b60405161ffff90911681526020016102fb565b610433600a81565b6102a361061f36600461349c565b611eb3565b600454600160a01b900460ff16610565565b61030d610644366004613084565b61202a565b61053c61025881565b60045461043390600160a81b900460ff1681565b61030d610674366004613084565b5f9081526001602052604090205490565b6102e77f000000000000000000000000000000000000000000000000000000000000000081565b6106bf6106ba366004613084565b612047565b6040516102fb9190613536565b60085461030d565b61030d620668a081565b6102a36106ec366004613084565b612331565b6102a36106ff3660046136f3565b61235f565b61030d610712366004613084565b5f9081526020819052604090205490565b6102a3610731366004613165565b61276d565b61030d60035481565b5f805f87516001600160401b0381111561075b5761075b612e3a565b604051908082528060200260200182016040528015610784578160200160208202803683370190505b5090505f5b87518110156108b0575f60098a83815181106107a7576107a76137c1565b6020026020010151815481106107bf576107bf6137c1565b5f91825260209091206004600590920201015489516001600160401b0390911691508990839081106107f3576107f36137c1565b60200260200101516001600160c01b03168561080f91906137e9565b94505f61085e8a8481518110610827576108276137c1565b60200260200101516001600160c01b03167f00000000000000000000000000000000000000000000000000000000000000006127e2565b90505f61086b8383613810565b905061087781876137e9565b95508085858151811061088c5761088c6137c1565b6001600160401b039290921660209283029190910190910152505050600101610789565b505f6108c6670de0b6b3a7640000612710613823565b600454600160a81b900460ff166108e5670de0b6b3a764000087613823565b6108ef9190613823565b6108f99190613810565b6005546006549192509061090c8761281d565b610915876128af565b5f805b8c51811015610a96576002868281518110610935576109356137c1565b602002602001015160098f8481518110610951576109516137c1565b602002602001015181548110610969576109696137c1565b5f91825260209182902060046005909202010154604080516001600160401b03909416928401929092526001600160501b0319600160401b90910460501b16908201526060810184905260800160408051601f19818403018152908290526109d09161383a565b602060405180830381855afa1580156109eb573d5f803e3d5ffd5b5050506040513d601f19601f82011682018060405250810190610a0e9190613855565b915060098d8281518110610a2457610a246137c1565b602002602001015181548110610a3c57610a3c6137c1565b905f5260205f209060050201600201548c8281518110610a5e57610a5e6137c1565b60200260200101516001600160c01b03161115610a8e57604051634323a55560e01b815260040160405180910390fd5b600101610918565b50600854604080516001600160a01b038d1660208083019190915242828401524660608301526080820185905260a0808301949094528251808303909401845260c09091019091528151910120885115610c15575f60088a5f81518110610aff57610aff6137c1565b602002602001015181548110610b1757610b176137c1565b5f9182526020909120600c9091020180546001600160a01b0319163317815560018082018054929350909160ff191682800217905550600181018054610100600160a81b0319166101006001600160a01b038f160217905580546001600160c01b0316600160c01b4263ffffffff16026001600160e01b0316178155610b9d84866137e9565b81600601819055508881600501819055508181600301819055508a81600401819055508d816009019080519060200190610bd8929190612cde565b508c81600a019080519060200190610bf1929190612d27565b50600281018390558651610c0e90600b83019060208a0190612d7a565b5050610e60565b60408051610200810182523381525f602082018190524263ffffffff1692820192909252606081019190915260089060808101600181526020018d6001600160a01b031681526020018481526020018381526020018c81526020018a81526020018587610c8291906137e9565b81526020015f81526020015f801b81526020018f81526020018e815260200188815250908060018154018082558091505060019003905f5260205f2090600c02015f909190919091505f820151815f015f6101000a8154816001600160a01b0302191690836001600160a01b031602179055506020820151815f0160146101000a81548163ffffffff021916908363ffffffff1602179055506040820151815f0160186101000a81548163ffffffff021916908363ffffffff1602179055506060820151815f01601c6101000a81548163ffffffff021916908363ffffffff1602179055506080820151816001015f6101000a81548160ff02191690836004811115610d9057610d90613180565b021790555060a0820151600182018054610100600160a81b0319166101006001600160a01b03909316830217905560c0830151600283015560e08301516003830155820151600482015561012082015160058201556101408201516006820155610160820151600782015561018082015160088201556101a08201518051610e22916009840191602090910190612cde565b506101c08201518051610e3f91600a840191602090910190612d27565b506101e08201518051610e5c91600b840191602090910190612d7a565b5050505b5f5b8d51811015610ee4578c8181518110610e7d57610e7d6137c1565b60200260200101516001600160c01b031660098f8381518110610ea257610ea26137c1565b602002602001015181548110610eba57610eba6137c1565b905f5260205f2090600502016002015f828254610ed7919061386c565b9091555050600101610e62565b506001600160a01b037f0000000000000000000000000000000000000000000000000000000000000000166323b872dd333086610f218a8a6137e9565b610f2b91906137e9565b6040516001600160e01b031960e086901b1681526001600160a01b03938416600482015292909116602483015260448201526064016020604051808303815f875af1158015610f7c573d5f803e3d5ffd5b505050506040513d601f19601f82011682018060405250810190610fa0919061387f565b50600a5460405163a9059cbb60e01b81526001600160a01b039182166004820152602481018790527f00000000000000000000000000000000000000000000000000000000000000009091169063a9059cbb906044016020604051808303815f875af1158015611012573d5f803e3d5ffd5b505050506040513d601f19601f82011682018060405250810190611036919061387f565b50337f5956135c9be999a50f7ff4ea49ddf1485bc321ab333dc7a0877633eeb4752893600161106460085490565b61106e919061386c565b6040805191825260208201859052015b60405180910390a250505050505050505050505050565b6004546001600160a01b031633146110c85760405162461bcd60e51b81526004016110bf9061389e565b60405180910390fd5b6004805460ff909216600160a81b0260ff60a81b19909216919091179055565b6004546001600160a01b031633146111125760405162461bcd60e51b81526004016110bf9061389e565b600454600160a01b900460ff16156111665760405162461bcd60e51b81526020600482015260176024820152761b995dc819195c1bdcda5d1cc8185c99481c185d5cd959604a1b60448201526064016110bf565b6004805460ff60a01b1916600160a01b179055565b6040805160c0810182525f80825260208201819052918101829052606081018290526080810182905260a0810191909152600982815481106111bf576111bf6137c1565b5f9182526020918290206040805160c081018252600590930290910180546001600160a01b03168352600181015493830193909352600283015490820152600382015460608201526004909101546001600160401b03811660808301526001600160501b0319600160401b90910460501b1660a082015292915050565b6004546001600160a01b031633146112665760405162461bcd60e51b81526004016110bf9061389e565b600454600160a01b900460ff166112bf5760405162461bcd60e51b815260206004820152601b60248201527f6e6577206465706f7369747320617265206e6f7420706175736564000000000060448201526064016110bf565b6004805460ff60a01b19169055565b5f600982815481106112e2576112e26137c1565b5f918252602082206001600590920201908101829055600281019190915560040180546001600160f01b03191690555050565b600454600160a01b900460ff16156113695760405162461bcd60e51b81526020600482015260176024820152761b995dc819195c1bdcda5d1cc8185c99481c185d5cd959604a1b60448201526064016110bf565b836001600160401b03165f0361139257604051635c4ad48d60e11b815260040160405180910390fd5b335f9081526007602052604081205490036113de57604080515f6020808301828152838501855283523382526007815292902081518051929391926113da9284920190612cde565b5050505b805f1914611465575f8190505f600982815481106113fe576113fe6137c1565b5f918252602090912060059091020160048101549091506001600160401b038781169116036114455786816002015f82825461143a91906137e9565b9091555061145e9050565b60405163927ce9e760e01b815260040160405180910390fd5b505061165f565b815f1914611506575f60098381548110611481576114816137c1565b905f5260205f209060050201905080600201545f146114b35760405163721e09df60e01b815260040160405180910390fd5b80546001600160a01b0319163317815560018101869055600281018690555f60038201556004018054605085901c600160401b026001600160f01b03199091166001600160401b0387161717905561165f565b6040805160c081018252338152602081018781529181018781525f606083018181526001600160401b03808a16608086019081526001600160501b03198a1660a08701908152600980546001810182559552955160059094027f6e1540171b6c0c960b71a7020d9f60077f6af931a8bbf590da0223dacf75c7af810180546001600160a01b03969096166001600160a01b03199096169590951790945595517f6e1540171b6c0c960b71a7020d9f60077f6af931a8bbf590da0223dacf75c7b084015592517f6e1540171b6c0c960b71a7020d9f60077f6af931a8bbf590da0223dacf75c7b1830155517f6e1540171b6c0c960b71a7020d9f60077f6af931a8bbf590da0223dacf75c7b282015592517f6e1540171b6c0c960b71a7020d9f60077f6af931a8bbf590da0223dacf75c7b39093018054925160501c600160401b026001600160f01b031990931693909116929092171790555b335f90815260076020526040902060095461167c9060019061386c565b81546001810183555f9283526020909220909101556040516323b872dd60e01b8152336004820152306024820152604481018690527f00000000000000000000000000000000000000000000000000000000000000006001600160a01b0316906323b872dd906064015b6020604051808303815f875af1158015611702573d5f803e3d5ffd5b505050506040513d601f19601f82011682018060405250810190611726919061387f565b505050505050565b335f908152600760205260409020805485919085908110611751576117516137c1565b905f5260205f2001541461177857604051630e7fea9d60e01b815260040160405180910390fd5b816001600160401b03165f036117a157604051636e5a187760e11b815260040160405180910390fd5b5f600985815481106117b5576117b56137c1565b905f5260205f20906005020190506117cc826128af565b80600101548160020154146117f4576040516391bc6cc360e01b815260040160405180910390fd5b600401805467ffffffffffffffff19166001600160401b039390931692909217909155505050565b6004546001600160a01b031633146118465760405162461bcd60e51b81526004016110bf9061389e565b600a80546001600160a01b0319166001600160a01b0392909216919091179055565b60098181548110611877575f80fd5b5f918252602090912060059091020180546001820154600283015460038401546004909401546001600160a01b039093169450909290916001600160401b03811690600160401b900460501b86565b5f600982815481106118da576118da6137c1565b905f5260205f209060050201600201549050919050565b60088181548110611900575f80fd5b5f9182526020909120600c90910201805460018201546002830154600384015460048501546005860154600687015460078801546008909801546001600160a01b038089169a5063ffffffff600160a01b8a0481169a600160c01b8b0482169a600160e01b90049091169860ff8116986101009091049092169691959194919391928d565b6004546001600160a01b031633146119af5760405162461bcd60e51b81526004016110bf9061389e565b60095483106119f65760405162461bcd60e51b8152602060048201526013602482015272092dcecc2d8d2c840e6e8c2e4e840d2dcc8caf606b1b60448201526064016110bf565b6119ff816128af565b600954821115611a0f5760095491505b825b82811015611af1575f60098281548110611a2d57611a2d6137c1565b905f5260205f20906005020190505f816002015490505f811115611ae7575f6002830155815460405163a9059cbb60e01b81526001600160a01b039182166004820152602481018390527f00000000000000000000000000000000000000000000000000000000000000009091169063a9059cbb906044016020604051808303815f875af1158015611ac1573d5f803e3d5ffd5b505050506040513d601f19601f82011682018060405250810190611ae5919061387f565b505b5050600101611a11565b50505050565b5f60088281548110611b0b57611b0b6137c1565b5f9182526020909120600c9091020190506002600182015460ff166004811115611b3757611b37613180565b14611b555760405163b38c767b60e01b815260040160405180910390fd5b8054600160e01b900463ffffffff16421015611b8457604051632d5c37f560e21b815260040160405180910390fd5b600881015460078201545f9081526020819052604090205403611bba5760405163c1f6fa5160e01b815260040160405180910390fd5b60065460405163a9059cbb60e01b8152336004820152602481018290527f00000000000000000000000000000000000000000000000000000000000000006001600160a01b03169063a9059cbb906044016020604051808303815f875af1158015611c27573d5f803e3d5ffd5b505050506040513d601f19601f82011682018060405250810190611c4b919061387f565b5080826006015f828254611c5f91906138c4565b909155505060068201545f1315611c93578160060154826005015f828254611c8791906137e9565b90915550505f60068301555b6001820154600583015460405163a9059cbb60e01b81526101009092046001600160a01b03908116600484015260248301919091527f0000000000000000000000000000000000000000000000000000000000000000169063a9059cbb906044016020604051808303815f875af1158015611d10573d5f803e3d5ffd5b505050506040513d601f19601f82011682018060405250810190611d34919061387f565b5060018201805460ff191660039081179091558201546040805185815260208101929092527f12245c00d428a4c558061d2f69fe154a203bd2fb4a65b6c3e73e95ccdc735d18910160405180910390a1505050565b8060088381548110611d9d57611d9d6137c1565b905f5260205f2090600c02016001015f6101000a81548160ff02191690836004811115611dcc57611dcc613180565b02179055505050565b606081604051602001611de891906138ea565b6040516020818303038152906040529050919050565b6004546001600160a01b03163314611e285760405162461bcd60e51b81526004016110bf9061389e565b600591909155600655565b6040805160208082018352606082526001600160a01b0384165f9081526007825283902083518154808402820186018652928101838152939490939192849291849190840182828015611ea357602002820191905f5260205f20905b815481526020019060010190808311611e8f575b5050505050815250509050919050565b335f908152600760205260409020805485919085908110611ed657611ed66137c1565b905f5260205f20015414611efd57604051630e7fea9d60e01b815260040160405180910390fd5b611f06816128af565b6009548410611f285760405163721e09df60e01b815260040160405180910390fd5b5f60098581548110611f3c57611f3c6137c1565b905f5260205f2090600502019050826001600160c01b03165f1480611f6d57508060020154836001600160c01b0316115b15611f8b5760405163b4e3d41360e01b815260040160405180910390fd5b826001600160c01b0316816002015f828254611fa7919061386c565b92505081905550826001600160c01b0316816003015f828254611fca91906137e9565b909155505060405163a9059cbb60e01b81523360048201526001600160c01b03841660248201527f00000000000000000000000000000000000000000000000000000000000000006001600160a01b03169063a9059cbb906044016116e6565b5f6120376107e0836139c8565b612041908361386c565b92915050565b6120d060408051610200810182525f808252602082018190529181018290526060810182905290608082019081526020015f6001600160a01b031681526020015f80191681526020015f80191681526020015f81526020015f81526020015f81526020015f81526020015f80191681526020016060815260200160608152602001606081525090565b600882815481106120e3576120e36137c1565b5f9182526020918290206040805161020081018252600c90930290910180546001600160a01b038116845263ffffffff600160a01b8204811695850195909552600160c01b8104851692840192909252600160e01b90910490921660608201526001820154909190608083019060ff16600481111561216457612164613180565b600481111561217557612175613180565b81526020016001820160019054906101000a90046001600160a01b03166001600160a01b03166001600160a01b03168152602001600282015481526020016003820154815260200160048201548152602001600582015481526020016006820154815260200160078201548152602001600882015481526020016009820180548060200260200160405190810160405280929190818152602001828054801561223b57602002820191905f5260205f20905b815481526020019060010190808311612227575b50505050508152602001600a820180548060200260200160405190810160405280929190818152602001828054801561229b57602002820191905f5260205f20905b81546001600160c01b0316815260019091019060200180831161227d575b50505050508152602001600b8201805480602002602001604051908101604052809291908181526020018280548015611ea357602002820191905f5260205f20905f905b82829054906101000a90046001600160401b03166001600160401b0316815260200190600801906020826007010492830192600103820291508084116122df5790505050505050815250509050919050565b5f8181526020819052604090205461235c5760405163fa4a5e4560e01b815260040160405180910390fd5b50565b5f60088a81548110612373576123736137c1565b905f5260205f2090600c020190505f805b600a830154811015612464575f6123e384600a0183815481106123a9576123a96137c1565b5f918252602090912001546001600160c01b03167f00000000000000000000000000000000000000000000000000000000000000006127e2565b90505f60098560090184815481106123fd576123fd6137c1565b905f5260205f20015481548110612416576124166137c1565b5f91825260208220600460059092020101546001600160401b0316915061243d83836129ae565b905061244981836129c0565b61245390866137e9565b945050600190920191506123849050565b505f6125126040518061016001604052808d81526020018c8152602001856002015481526020018560030154815260200185600901805490506001600160401b031681526020016124bd6107128d63ffffffff1661202a565b815263ffffffff8c16602082018190526040909101906124dd908c6139db565b6001600160401b031681526020016124f58b8b6139db565b6001600160401b0316815260200188815260200187815250611dd5565b60405163020a49e360e51b81529091506001600160a01b037f000000000000000000000000000000000000000000000000000000000000000016906341493c6090612585907f000000000000000000000000000000000000000000000000000000000000000090859089906004016139fb565b5f6040518083038186803b15801561259b575f80fd5b505afa1580156125ad573d5f803e3d5ffd5b506125e49250505063ffffffff8a166001600160401b038a8116908a1689896125d6858f6139db565b6001600160401b03166129cb565b60018301805460ff191660021790556125ff61025842613a25565b83546001600160e01b0316600160e01b63ffffffff928316021784556001600160401b0389166007850155869060019061263b908c168b6139db565b61264591906139db565b6001600160401b03168151811061265e5761265e6137c1565b6020908102919091010151600884015560055460405163a9059cbb60e01b8152336004820152602481018290527f00000000000000000000000000000000000000000000000000000000000000006001600160a01b03169063a9059cbb906044016020604051808303815f875af11580156126db573d5f803e3d5ffd5b505050506040513d601f19601f820116820180604052508101906126ff919061387f565b505f8460060154121561272f578360060154846005015f82825461272391906137e9565b90915550505f60068501555b6003840154604080518f8152602081019290925233917f184abe81dc2f02915b1cd93143dc1987a077040f7de69181dd5eaf9b37bb715c910161107e565b6004546001600160a01b031633146127975760405162461bcd60e51b81526004016110bf9061389e565b600480546001600160a01b0319166001600160a01b03831690811790915560405133907f8be0079c531659141344cd1fd0a4f28419497f9722a3daafe3b4186f6b6457e0905f90a350565b5f60128260ff161015612816576127fa826012613a42565b61280590600a613b3b565b61280f9084613823565b9050612041565b5090919050565b5f5b81518110156128ab5761708063ffffffff166008838381518110612845576128456137c1565b60200260200101518154811061285d5761285d6137c1565b5f9182526020909120600c909102015461288490600160c01b900463ffffffff164261386c565b10156128a3576040516326349d6b60e01b815260040160405180910390fd5b60010161281f565b5050565b5f5b81518110156128ab576128c38261281d565b5f60088383815181106128d8576128d86137c1565b6020026020010151815481106128f0576128f06137c1565b905f5260205f2090600c020190505f5b6009820154811015612997575f6009836009018381548110612924576129246137c1565b905f5260205f2001548154811061293d5761293d6137c1565b905f5260205f209060050201905082600a018281548110612960576129606137c1565b5f9182526020822001546002830180546001600160c01b039092169290916129899084906137e9565b909155505050600101612900565b506001908101805460ff19166004179055016128b1565b5f6129b98284613810565b9392505050565b5f6129b98284613823565b6002545f8181526001602052604090205460ff7f000000000000000000000000000000000000000000000000000000000000000016612a0a888861386c565b1015612a64575f8681526020819052604090205485518690612a2e9060019061386c565b81518110612a3e57612a3e6137c1565b602002602001015114612a64576040516341305f6360e01b815260040160405180910390fd5b81881115612a855760405163575f3da360e01b815260040160405180910390fd5b848381518110612a9757612a976137c1565b60200260200101515f808981526020019081526020015f205403612abc575050611726565b5f8781526020819052604090205415801590612afe57508360018551612ae2919061386c565b81518110612af257612af26137c1565b60200260200101518110155b15612b1c576040516371e98f3d60e11b815260040160405180910390fd5b81871115612c2257818803612b8d57848381518110612b3d57612b3d6137c1565b60200260200101515f808981526020019081526020015f2081905550838381518110612b6b57612b6b6137c1565b602002602001015160015f8981526020019081526020015f2081905550612c88565b81881015612c1d57875b878111612c1b5785612ba98a8361386c565b81518110612bb957612bb96137c1565b6020908102919091018101515f8381529182905260409091205584612bde8a8361386c565b81518110612bee57612bee6137c1565b6020908102919091018101515f838152600190925260409091205580612c1381613b49565b915050612b97565b505b612c88565b81871015612c8857848381518110612c3c57612c3c6137c1565b60200260200101515f808981526020019081526020015f2081905550838381518110612c6a57612c6a6137c1565b602002602001015160015f8981526020019081526020015f20819055505b600254871115612c985760028790555b8451604080518a815260208101929092527fb68477c768bbb33b4f238a3dfd17c33c499268c59cd042b7936bbc23dc2bdd34910160405180910390a15050505050505050565b828054828255905f5260205f20908101928215612d17579160200282015b82811115612d17578251825591602001919060010190612cfc565b50612d23929150612e26565b5090565b828054828255905f5260205f20908101928215612d17579160200282015b82811115612d1757825182546001600160c01b0319166001600160c01b03909116178255602090920191600190910190612d45565b828054828255905f5260205f2090600301600490048101928215612d17579160200282015f5b83821115612dea57835183826101000a8154816001600160401b0302191690836001600160401b031602179055509260200192600801602081600701049283019260010302612da0565b8015612e1d5782816101000a8154906001600160401b030219169055600801602081600701049283019260010302612dea565b5050612d239291505b5b80821115612d23575f8155600101612e27565b634e487b7160e01b5f52604160045260245ffd5b60405161016081016001600160401b0381118282101715612e7157612e71612e3a565b60405290565b604051601f8201601f191681016001600160401b0381118282101715612e9f57612e9f612e3a565b604052919050565b5f6001600160401b03821115612ebf57612ebf612e3a565b5060051b60200190565b5f82601f830112612ed8575f80fd5b81356020612eed612ee883612ea7565b612e77565b8083825260208201915060208460051b870101935086841115612f0e575f80fd5b602086015b84811015612f2a5780358352918301918301612f13565b509695505050505050565b80356001600160c01b0381168114612f4b575f80fd5b919050565b6001600160a01b038116811461235c575f80fd5b8035612f4b81612f50565b5f805f805f60a08688031215612f83575f80fd5b85356001600160401b0380821115612f99575f80fd5b612fa589838a01612ec9565b9650602091508188013581811115612fbb575f80fd5b8801601f81018a13612fcb575f80fd5b8035612fd9612ee882612ea7565b81815260059190911b8201840190848101908c831115612ff7575f80fd5b928501925b8284101561301c5761300d84612f35565b82529285019290850190612ffc565b985061302e9250505060408901612f64565b945060608801359350608088013591508082111561304a575f80fd5b5061305788828901612ec9565b9150509295509295909350565b5f60208284031215613074575f80fd5b813560ff811681146129b9575f80fd5b5f60208284031215613094575f80fd5b5035919050565b80356001600160401b0381168114612f4b575f80fd5b5f805f805f60a086880312156130c5575f80fd5b853594506130d56020870161309b565b935060408601356001600160501b0319811681146130f1575f80fd5b94979396509394606081013594506080013592915050565b5f805f806080858703121561311c575f80fd5b84359350602085013592506131336040860161309b565b915060608501356001600160401b0381111561314d575f80fd5b61315987828801612ec9565b91505092959194509250565b5f60208284031215613175575f80fd5b81356129b981612f50565b634e487b7160e01b5f52602160045260245ffd5b600581106131b057634e487b7160e01b5f52602160045260245ffd5b9052565b6001600160a01b038e16815263ffffffff8d811660208301528c811660408301528b1660608201526101a081016131ee608083018c613194565b6001600160a01b039990991660a082015260c081019790975260e08701959095526101008601939093526101208501919091526101408401526101608301526101809091015295945050505050565b5f805f6060848603121561324f575f80fd5b833592506020840135915060408401356001600160401b03811115613272575f80fd5b61327e86828701612ec9565b9150509250925092565b5f8060408385031215613299575f80fd5b823591506020830135600581106132ae575f80fd5b809150509250929050565b5f602082840312156132c9575f80fd5b81356001600160401b03808211156132df575f80fd5b9083019061016082860312156132f3575f80fd5b6132fb612e4e565b823581526020830135602082015260408301356040820152606083013560608201526133296080840161309b565b608082015260a083013560a082015261334460c0840161309b565b60c082015261335560e0840161309b565b60e082015261010061336881850161309b565b90820152610120838101358381111561337f575f80fd5b61338b88828701612ec9565b82840152505061014080840135838111156133a4575f80fd5b6133b088828701612ec9565b918301919091525095945050505050565b5f5b838110156133db5781810151838201526020016133c3565b50505f910152565b5f81518084526133fa8160208601602086016133c1565b601f01601f19169290920160200192915050565b602081525f6129b960208301846133e3565b5f8060408385031215613431575f80fd5b50508035926020909101359150565b5f815180845260208085019450602084015f5b8381101561346f57815187529582019590820190600101613453565b509495945050505050565b602081525f82516020808401526134946040840182613440565b949350505050565b5f805f80608085870312156134af575f80fd5b843593506020850135925061313360408601612f35565b5f815180845260208085019450602084015f5b8381101561346f5781516001600160c01b0316875295820195908201906001016134d9565b5f815180845260208085019450602084015f5b8381101561346f5781516001600160401b031687529582019590820190600101613511565b602081526135506020820183516001600160a01b03169052565b5f6020830151613568604084018263ffffffff169052565b50604083015163ffffffff8116606084015250606083015163ffffffff8116608084015250608083015161359f60a0840182613194565b5060a08301516001600160a01b03811660c08401525060c083015160e08381019190915283015161010080840191909152830151610120808401919091528301516101408084019190915283015161016080840191909152830151610180808401919091528301516101a0808401919091528301516102006101c080850182905261362e610220860184613440565b9250808601519050601f196101e081878603018188015261364f85846134c6565b90880151878203909201848801529350905061366b83826134fe565b9695505050505050565b803563ffffffff81168114612f4b575f80fd5b5f82601f830112613697575f80fd5b81356001600160401b038111156136b0576136b0612e3a565b6136c3601f8201601f1916602001612e77565b8181528460208386010111156136d7575f80fd5b816020850160208301375f918101602001919091529392505050565b5f805f805f805f805f6101208a8c03121561370c575f80fd5b8935985060208a0135975060408a0135965061372a60608b01613675565b955061373860808b0161309b565b945061374660a08b0161309b565b935060c08a01356001600160401b0380821115613761575f80fd5b61376d8d838e01612ec9565b945060e08c0135915080821115613782575f80fd5b61378e8d838e01612ec9565b93506101008c01359150808211156137a4575f80fd5b506137b18c828d01613688565b9150509295985092959850929598565b634e487b7160e01b5f52603260045260245ffd5b634e487b7160e01b5f52601160045260245ffd5b80820180821115612041576120416137d5565b634e487b7160e01b5f52601260045260245ffd5b5f8261381e5761381e6137fc565b500490565b8082028115828204841417612041576120416137d5565b5f825161384b8184602087016133c1565b9190910192915050565b5f60208284031215613865575f80fd5b5051919050565b81810381811115612041576120416137d5565b5f6020828403121561388f575f80fd5b815180151581146129b9575f80fd5b6020808252600c908201526b15539055551213d49256915160a21b604082015260600190565b8181035f8312801583831316838312821617156138e3576138e36137d5565b5092915050565b60208152815160208201526020820151604082015260408201516060820152606082015160808201525f608083015161392e60a08401826001600160401b03169052565b5060a083015160c083015260c083015161395360e08401826001600160401b03169052565b5060e0830151610100613970818501836001600160401b03169052565b840151905061012061398c848201836001600160401b03169052565b8085015191505061016061014081818601526139ac610180860184613440565b90860151858203601f19018387015290925061366b8382613440565b5f826139d6576139d66137fc565b500690565b6001600160401b038281168282160390808211156138e3576138e36137d5565b838152606060208201525f613a1360608301856133e3565b828103604084015261366b81856133e3565b63ffffffff8181168382160190808211156138e3576138e36137d5565b60ff8281168282160390811115612041576120416137d5565b600181815b80851115613a9557815f1904821115613a7b57613a7b6137d5565b80851615613a8857918102915b93841c9390800290613a60565b509250929050565b5f82613aab57506001612041565b81613ab757505f612041565b8160018114613acd5760028114613ad757613af3565b6001915050612041565b60ff841115613ae857613ae86137d5565b50506001821b612041565b5060208310610133831016604e8410600b8410161715613b16575081810a612041565b613b208383613a5b565b805f1904821115613b3357613b336137d5565b029392505050565b5f6129b960ff841683613a9d565b5f60018201613b5a57613b5a6137d5565b506001019056fea26469706673582212205fdaf6c061024ff79a9a51788262de4e1012fc8051d434f6d1fa55bbe83d1e5164736f6c63430008180033","linkReferences":{}},"methodIdentifiers":{"CHALLENGE_PERIOD()":"c3a079ed","DEPOSIT_TOKEN()":"13f66587","MAX_DEPOSIT_OUTPUTS()":"9cdb8e5a","MIN_ORDER_GAS_MULTIPLIER()":"5f5d5b6a","PROOF_GAS_COST()":"eb6c7522","RELEASE_GAS_COST()":"9a64279c","RESERVATION_LOCKUP_PERIOD()":"89a11f7a","SAMPLING_SIZE()":"ad062e55","TOKEN_DECIMALS()":"5b7f415c","buildProofPublicInputs((bytes32,bytes32,bytes32,bytes32,uint64,bytes32,uint64,uint64,uint64,bytes32[],uint256[]))":"8f1546b4","calculateRetargetHeight(uint256)":"b9b2a982","circuitVerificationKey()":"3d7b22b3","currentConfirmationHeight()":"fba78166","currentHeight()":"163de0c5","depositLiquidity(uint256,uint64,bytes22,int256,int256)":"51a7f1cd","depositVaults(uint256)":"5f4d0610","emptyDepositVault(uint256)":"490d4c5f","getAreDepositsPaused()":"b01c27d1","getBlockHash(uint256)":"ee82ac5e","getChainwork(uint256)":"cda7d82c","getDepositVault(uint256)":"276d080e","getDepositVaultUnreservedBalance(uint256)":"6512d057","getDepositVaultsLength()":"7dce5550","getLiquidityProvider(address)":"98f9e757","getReservation(uint256)":"d57763c3","getReservationLength()":"ea6fe03e","isDepositNewLiquidityPaused()":"8cc63cdd","owner()":"8da5cb5b","pauseDepositNewLiquidity()":"130d1392","proposeTransactionProof(uint256,bytes32,bytes32,uint32,uint64,uint64,bytes32[],uint256[],bytes)":"edd67b72","protocolFeeBP()":"c5fba0b8","proverReward()":"6dcc17c8","refundAllLPs(uint256,uint256,uint256[])":"70c60e8f","releaseLiquidity(uint256)":"77891907","releaserReward()":"9cc7eab9","reserveLiquidity(uint256[],uint192[],address,uint256,uint256[])":"0140e183","setSwapReservationState(uint256,uint8)":"7b93291f","swapReservations(uint256)":"6b994abb","transferOwnership(address)":"f2fde38b","unpauseDepositNewLiquidity()":"4491ba54","updateExchangeRate(uint256,uint256,uint64,uint256[])":"56fe6f86","updateProtocolAddress(address)":"58e2b676","updateProtocolFee(uint8)":"0a7aa293","updateRewards(uint256,uint256)":"97e50818","validateBlockExists(uint256)":"ed8b2b32","verifierContract()":"cf695688","withdrawLiquidity(uint256,uint256,uint192,uint256[])":"aeacb2e7"},"storageLayout":{"storage":[{"astId":47958,"contract":"src/RiftExchange.sol:RiftExchange","label":"blockchain","offset":0,"slot":"0","type":"t_mapping(t_uint256,t_bytes32)"},{"astId":47962,"contract":"src/RiftExchange.sol:RiftExchange","label":"chainworks","offset":0,"slot":"1","type":"t_mapping(t_uint256,t_uint256)"},{"astId":47964,"contract":"src/RiftExchange.sol:RiftExchange","label":"currentHeight","offset":0,"slot":"2","type":"t_uint256"},{"astId":47966,"contract":"src/RiftExchange.sol:RiftExchange","label":"currentConfirmationHeight","offset":0,"slot":"3","type":"t_uint256"},{"astId":46637,"contract":"src/RiftExchange.sol:RiftExchange","label":"owner","offset":0,"slot":"4","type":"t_address"},{"astId":49276,"contract":"src/RiftExchange.sol:RiftExchange","label":"isDepositNewLiquidityPaused","offset":20,"slot":"4","type":"t_bool"},{"astId":49287,"contract":"src/RiftExchange.sol:RiftExchange","label":"protocolFeeBP","offset":21,"slot":"4","type":"t_uint8"},{"astId":49289,"contract":"src/RiftExchange.sol:RiftExchange","label":"proverReward","offset":0,"slot":"5","type":"t_uint256"},{"astId":49291,"contract":"src/RiftExchange.sol:RiftExchange","label":"releaserReward","offset":0,"slot":"6","type":"t_uint256"},{"astId":49383,"contract":"src/RiftExchange.sol:RiftExchange","label":"liquidityProviders","offset":0,"slot":"7","type":"t_mapping(t_address,t_struct(LiquidityProvider)49322_storage)"},{"astId":49387,"contract":"src/RiftExchange.sol:RiftExchange","label":"swapReservations","offset":0,"slot":"8","type":"t_array(t_struct(SwapReservation)49378_storage)dyn_storage"},{"astId":49391,"contract":"src/RiftExchange.sol:RiftExchange","label":"depositVaults","offset":0,"slot":"9","type":"t_array(t_struct(DepositVault)49335_storage)dyn_storage"},{"astId":49402,"contract":"src/RiftExchange.sol:RiftExchange","label":"protocolAddress","offset":0,"slot":"10","type":"t_address_payable"}],"types":{"t_address":{"encoding":"inplace","label":"address","numberOfBytes":"20"},"t_address_payable":{"encoding":"inplace","label":"address payable","numberOfBytes":"20"},"t_array(t_struct(DepositVault)49335_storage)dyn_storage":{"encoding":"dynamic_array","label":"struct RiftExchange.DepositVault[]","numberOfBytes":"32","base":"t_struct(DepositVault)49335_storage"},"t_array(t_struct(SwapReservation)49378_storage)dyn_storage":{"encoding":"dynamic_array","label":"struct RiftExchange.SwapReservation[]","numberOfBytes":"32","base":"t_struct(SwapReservation)49378_storage"},"t_array(t_uint192)dyn_storage":{"encoding":"dynamic_array","label":"uint192[]","numberOfBytes":"32","base":"t_uint192"},"t_array(t_uint256)dyn_storage":{"encoding":"dynamic_array","label":"uint256[]","numberOfBytes":"32","base":"t_uint256"},"t_array(t_uint64)dyn_storage":{"encoding":"dynamic_array","label":"uint64[]","numberOfBytes":"32","base":"t_uint64"},"t_bool":{"encoding":"inplace","label":"bool","numberOfBytes":"1"},"t_bytes22":{"encoding":"inplace","label":"bytes22","numberOfBytes":"22"},"t_bytes32":{"encoding":"inplace","label":"bytes32","numberOfBytes":"32"},"t_enum(ReservationState)49341":{"encoding":"inplace","label":"enum RiftExchange.ReservationState","numberOfBytes":"1"},"t_int256":{"encoding":"inplace","label":"int256","numberOfBytes":"32"},"t_mapping(t_address,t_struct(LiquidityProvider)49322_storage)":{"encoding":"mapping","key":"t_address","label":"mapping(address => struct RiftExchange.LiquidityProvider)","numberOfBytes":"32","value":"t_struct(LiquidityProvider)49322_storage"},"t_mapping(t_uint256,t_bytes32)":{"encoding":"mapping","key":"t_uint256","label":"mapping(uint256 => bytes32)","numberOfBytes":"32","value":"t_bytes32"},"t_mapping(t_uint256,t_uint256)":{"encoding":"mapping","key":"t_uint256","label":"mapping(uint256 => uint256)","numberOfBytes":"32","value":"t_uint256"},"t_struct(DepositVault)49335_storage":{"encoding":"inplace","label":"struct RiftExchange.DepositVault","numberOfBytes":"160","members":[{"astId":49324,"contract":"src/RiftExchange.sol:RiftExchange","label":"owner","offset":0,"slot":"0","type":"t_address"},{"astId":49326,"contract":"src/RiftExchange.sol:RiftExchange","label":"initialBalance","offset":0,"slot":"1","type":"t_uint256"},{"astId":49328,"contract":"src/RiftExchange.sol:RiftExchange","label":"unreservedBalance","offset":0,"slot":"2","type":"t_uint256"},{"astId":49330,"contract":"src/RiftExchange.sol:RiftExchange","label":"withdrawnAmount","offset":0,"slot":"3","type":"t_uint256"},{"astId":49332,"contract":"src/RiftExchange.sol:RiftExchange","label":"exchangeRate","offset":0,"slot":"4","type":"t_uint64"},{"astId":49334,"contract":"src/RiftExchange.sol:RiftExchange","label":"btcPayoutLockingScript","offset":8,"slot":"4","type":"t_bytes22"}]},"t_struct(LiquidityProvider)49322_storage":{"encoding":"inplace","label":"struct RiftExchange.LiquidityProvider","numberOfBytes":"32","members":[{"astId":49321,"contract":"src/RiftExchange.sol:RiftExchange","label":"depositVaultIndexes","offset":0,"slot":"0","type":"t_array(t_uint256)dyn_storage"}]},"t_struct(SwapReservation)49378_storage":{"encoding":"inplace","label":"struct RiftExchange.SwapReservation","numberOfBytes":"384","members":[{"astId":49343,"contract":"src/RiftExchange.sol:RiftExchange","label":"owner","offset":0,"slot":"0","type":"t_address"},{"astId":49345,"contract":"src/RiftExchange.sol:RiftExchange","label":"confirmationBlockHeight","offset":20,"slot":"0","type":"t_uint32"},{"astId":49347,"contract":"src/RiftExchange.sol:RiftExchange","label":"reservationTimestamp","offset":24,"slot":"0","type":"t_uint32"},{"astId":49349,"contract":"src/RiftExchange.sol:RiftExchange","label":"unlockTimestamp","offset":28,"slot":"0","type":"t_uint32"},{"astId":49352,"contract":"src/RiftExchange.sol:RiftExchange","label":"state","offset":0,"slot":"1","type":"t_enum(ReservationState)49341"},{"astId":49354,"contract":"src/RiftExchange.sol:RiftExchange","label":"ethPayoutAddress","offset":1,"slot":"1","type":"t_address"},{"astId":49356,"contract":"src/RiftExchange.sol:RiftExchange","label":"lpReservationHash","offset":0,"slot":"2","type":"t_bytes32"},{"astId":49358,"contract":"src/RiftExchange.sol:RiftExchange","label":"nonce","offset":0,"slot":"3","type":"t_bytes32"},{"astId":49360,"contract":"src/RiftExchange.sol:RiftExchange","label":"totalSatsInputInlcudingProxyFee","offset":0,"slot":"4","type":"t_uint256"},{"astId":49362,"contract":"src/RiftExchange.sol:RiftExchange","label":"totalSwapOutputAmount","offset":0,"slot":"5","type":"t_uint256"},{"astId":49364,"contract":"src/RiftExchange.sol:RiftExchange","label":"prepaidFeeAmount","offset":0,"slot":"6","type":"t_int256"},{"astId":49366,"contract":"src/RiftExchange.sol:RiftExchange","label":"proposedBlockHeight","offset":0,"slot":"7","type":"t_uint256"},{"astId":49368,"contract":"src/RiftExchange.sol:RiftExchange","label":"proposedBlockHash","offset":0,"slot":"8","type":"t_bytes32"},{"astId":49371,"contract":"src/RiftExchange.sol:RiftExchange","label":"vaultIndexes","offset":0,"slot":"9","type":"t_array(t_uint256)dyn_storage"},{"astId":49374,"contract":"src/RiftExchange.sol:RiftExchange","label":"amountsToReserve","offset":0,"slot":"10","type":"t_array(t_uint192)dyn_storage"},{"astId":49377,"contract":"src/RiftExchange.sol:RiftExchange","label":"expectedSatsOutput","offset":0,"slot":"11","type":"t_array(t_uint64)dyn_storage"}]},"t_uint192":{"encoding":"inplace","label":"uint192","numberOfBytes":"24"},"t_uint256":{"encoding":"inplace","label":"uint256","numberOfBytes":"32"},"t_uint32":{"encoding":"inplace","label":"uint32","numberOfBytes":"4"},"t_uint64":{"encoding":"inplace","label":"uint64","numberOfBytes":"8"},"t_uint8":{"encoding":"inplace","label":"uint8","numberOfBytes":"1"}}},"id":32}