{"abi":[{"type":"constructor","inputs":[{"name":"initialCheckpointHeight","type":"uint256","internalType":"uint256"},{"name":"initialBlockHash","type":"bytes32","internalType":"bytes32"},{"name":"initialRetargetBlockHash","type":"bytes32","internalType":"bytes32"},{"name":"initialChainwork","type":"uint256","internalType":"uint256"},{"name":"verifierContractAddress","type":"address","internalType":"address"},{"name":"depositTokenAddress","type":"address","internalType":"address"},{"name":"initialFeeRouterAddress","type":"address","internalType":"address"},{"name":"owner","type":"address","internalType":"address"},{"name":"circuitVerificationKey","type":"bytes32","internalType":"bytes32"},{"name":"minimumConfirmationDelta","type":"uint8","internalType":"uint8"}],"stateMutability":"nonpayable"},{"type":"function","name":"BP_SCALE","inputs":[],"outputs":[{"name":"","type":"uint256","internalType":"uint256"}],"stateMutability":"view"},{"type":"function","name":"CHALLENGE_PERIOD","inputs":[],"outputs":[{"name":"","type":"uint32","internalType":"uint32"}],"stateMutability":"view"},{"type":"function","name":"CIRCUIT_VERIFICATION_KEY","inputs":[],"outputs":[{"name":"","type":"bytes32","internalType":"bytes32"}],"stateMutability":"view"},{"type":"function","name":"DEPOSIT_TOKEN","inputs":[],"outputs":[{"name":"","type":"address","internalType":"contract IERC20"}],"stateMutability":"view"},{"type":"function","name":"RESERVATION_LOCKUP_PERIOD","inputs":[],"outputs":[{"name":"","type":"uint32","internalType":"uint32"}],"stateMutability":"view"},{"type":"function","name":"SCALE","inputs":[],"outputs":[{"name":"","type":"uint256","internalType":"uint256"}],"stateMutability":"view"},{"type":"function","name":"TOKEN_DECIMALS","inputs":[],"outputs":[{"name":"","type":"uint8","internalType":"uint8"}],"stateMutability":"view"},{"type":"function","name":"VERIFIER_CONTRACT","inputs":[],"outputs":[{"name":"","type":"address","internalType":"contract ISP1Verifier"}],"stateMutability":"view"},{"type":"function","name":"buildPublicInputs","inputs":[{"name":"swapReservationIndex","type":"uint256","internalType":"uint256"},{"name":"bitcoinTxId","type":"bytes32","internalType":"bytes32"},{"name":"merkleRoot","type":"bytes32","internalType":"bytes32"},{"name":"safeBlockHeight","type":"uint32","internalType":"uint32"},{"name":"proposedBlockHeight","type":"uint64","internalType":"uint64"},{"name":"confirmationBlockHeight","type":"uint64","internalType":"uint64"},{"name":"blockHashes","type":"bytes32[]","internalType":"bytes32[]"},{"name":"blockChainworks","type":"uint256[]","internalType":"uint256[]"},{"name":"isTransactionProof","type":"bool","internalType":"bool"}],"outputs":[{"name":"","type":"tuple","internalType":"struct RiftExchange.ProofPublicInputs","components":[{"name":"natural_txid","type":"bytes32","internalType":"bytes32"},{"name":"merkle_root","type":"bytes32","internalType":"bytes32"},{"name":"lp_reservation_hash","type":"bytes32","internalType":"bytes32"},{"name":"order_nonce","type":"bytes32","internalType":"bytes32"},{"name":"lp_count","type":"uint64","internalType":"uint64"},{"name":"retarget_block_hash","type":"bytes32","internalType":"bytes32"},{"name":"safe_block_height","type":"uint64","internalType":"uint64"},{"name":"safe_block_height_delta","type":"uint64","internalType":"uint64"},{"name":"confirmation_block_height_delta","type":"uint64","internalType":"uint64"},{"name":"block_hashes","type":"bytes32[]","internalType":"bytes32[]"},{"name":"block_chainworks","type":"uint256[]","internalType":"uint256[]"},{"name":"is_transaction_proof","type":"bool","internalType":"bool"}]}],"stateMutability":"view"},{"type":"function","name":"calculateRetargetHeight","inputs":[{"name":"blockHeight","type":"uint256","internalType":"uint256"}],"outputs":[{"name":"","type":"uint256","internalType":"uint256"}],"stateMutability":"pure"},{"type":"function","name":"currentHeight","inputs":[],"outputs":[{"name":"","type":"uint256","internalType":"uint256"}],"stateMutability":"view"},{"type":"function","name":"depositLiquidity","inputs":[{"name":"depositAmount","type":"uint256","internalType":"uint256"},{"name":"exchangeRate","type":"uint64","internalType":"uint64"},{"name":"btcPayoutLockingScript","type":"bytes22","internalType":"bytes22"}],"outputs":[],"stateMutability":"nonpayable"},{"type":"function","name":"depositVaults","inputs":[{"name":"","type":"uint256","internalType":"uint256"}],"outputs":[{"name":"owner","type":"address","internalType":"address"},{"name":"depositTimestamp","type":"uint64","internalType":"uint64"},{"name":"initialBalance","type":"uint256","internalType":"uint256"},{"name":"unreservedBalance","type":"uint256","internalType":"uint256"},{"name":"withdrawnAmount","type":"uint256","internalType":"uint256"},{"name":"exchangeRate","type":"uint64","internalType":"uint64"},{"name":"btcPayoutLockingScript","type":"bytes22","internalType":"bytes22"}],"stateMutability":"view"},{"type":"function","name":"getAreDepositsPaused","inputs":[],"outputs":[{"name":"","type":"bool","internalType":"bool"}],"stateMutability":"view"},{"type":"function","name":"getBlockHash","inputs":[{"name":"blockHeight","type":"uint256","internalType":"uint256"}],"outputs":[{"name":"","type":"bytes32","internalType":"bytes32"}],"stateMutability":"view"},{"type":"function","name":"getChainwork","inputs":[{"name":"blockHeight","type":"uint256","internalType":"uint256"}],"outputs":[{"name":"","type":"uint256","internalType":"uint256"}],"stateMutability":"view"},{"type":"function","name":"getDepositVault","inputs":[{"name":"depositIndex","type":"uint256","internalType":"uint256"}],"outputs":[{"name":"","type":"tuple","internalType":"struct RiftExchange.DepositVault","components":[{"name":"owner","type":"address","internalType":"address"},{"name":"depositTimestamp","type":"uint64","internalType":"uint64"},{"name":"initialBalance","type":"uint256","internalType":"uint256"},{"name":"unreservedBalance","type":"uint256","internalType":"uint256"},{"name":"withdrawnAmount","type":"uint256","internalType":"uint256"},{"name":"exchangeRate","type":"uint64","internalType":"uint64"},{"name":"btcPayoutLockingScript","type":"bytes22","internalType":"bytes22"}]}],"stateMutability":"view"},{"type":"function","name":"getDepositVaultUnreservedBalance","inputs":[{"name":"depositIndex","type":"uint256","internalType":"uint256"}],"outputs":[{"name":"","type":"uint256","internalType":"uint256"}],"stateMutability":"view"},{"type":"function","name":"getDepositVaultsLength","inputs":[],"outputs":[{"name":"","type":"uint256","internalType":"uint256"}],"stateMutability":"view"},{"type":"function","name":"getLiquidityProvider","inputs":[{"name":"lpAddress","type":"address","internalType":"address"}],"outputs":[{"name":"","type":"tuple","internalType":"struct RiftExchange.LiquidityProvider","components":[{"name":"depositVaultIndexes","type":"uint256[]","internalType":"uint256[]"}]}],"stateMutability":"view"},{"type":"function","name":"getReservation","inputs":[{"name":"reservationIndex","type":"uint256","internalType":"uint256"}],"outputs":[{"name":"","type":"tuple","internalType":"struct RiftExchange.SwapReservation","components":[{"name":"owner","type":"address","internalType":"address"},{"name":"confirmationBlockHeight","type":"uint32","internalType":"uint32"},{"name":"reservationTimestamp","type":"uint64","internalType":"uint64"},{"name":"liquidityUnlockedTimestamp","type":"uint64","internalType":"uint64"},{"name":"state","type":"uint8","internalType":"enum RiftExchange.ReservationState"},{"name":"ethPayoutAddress","type":"address","internalType":"address"},{"name":"lpReservationHash","type":"bytes32","internalType":"bytes32"},{"name":"nonce","type":"bytes32","internalType":"bytes32"},{"name":"totalSatsInputIncludingProxyFee","type":"uint256","internalType":"uint256"},{"name":"totalSwapOutputAmount","type":"uint256","internalType":"uint256"},{"name":"proposedBlockHeight","type":"uint256","internalType":"uint256"},{"name":"proposedBlockHash","type":"bytes32","internalType":"bytes32"},{"name":"vaultIndexes","type":"uint256[]","internalType":"uint256[]"},{"name":"amountsToReserve","type":"uint192[]","internalType":"uint192[]"},{"name":"expectedSatsOutput","type":"uint64[]","internalType":"uint64[]"}]}],"stateMutability":"view"},{"type":"function","name":"getReservationLength","inputs":[],"outputs":[{"name":"","type":"uint256","internalType":"uint256"}],"stateMutability":"view"},{"type":"function","name":"isDepositNewLiquidityPaused","inputs":[],"outputs":[{"name":"","type":"bool","internalType":"bool"}],"stateMutability":"view"},{"type":"function","name":"owner","inputs":[],"outputs":[{"name":"","type":"address","internalType":"address"}],"stateMutability":"view"},{"type":"function","name":"protocolFeeBP","inputs":[],"outputs":[{"name":"","type":"uint8","internalType":"uint8"}],"stateMutability":"view"},{"type":"function","name":"proveBlocks","inputs":[{"name":"safeBlockHeight","type":"uint32","internalType":"uint32"},{"name":"proposedBlockHeight","type":"uint64","internalType":"uint64"},{"name":"confirmationBlockHeight","type":"uint64","internalType":"uint64"},{"name":"blockHashes","type":"bytes32[]","internalType":"bytes32[]"},{"name":"blockChainworks","type":"uint256[]","internalType":"uint256[]"},{"name":"proof","type":"bytes","internalType":"bytes"}],"outputs":[],"stateMutability":"nonpayable"},{"type":"function","name":"releaseLiquidity","inputs":[{"name":"swapReservationIndex","type":"uint256","internalType":"uint256"}],"outputs":[],"stateMutability":"nonpayable"},{"type":"function","name":"reserveLiquidity","inputs":[{"name":"reservationOwner","type":"address","internalType":"address"},{"name":"vaultIndexesToReserve","type":"uint256[]","internalType":"uint256[]"},{"name":"amountsToReserve","type":"uint192[]","internalType":"uint192[]"},{"name":"ethPayoutAddress","type":"address","internalType":"address"},{"name":"totalSatsInputIncludingProxyFee","type":"uint256","internalType":"uint256"},{"name":"expiredSwapReservationIndexes","type":"uint256[]","internalType":"uint256[]"}],"outputs":[],"stateMutability":"nonpayable"},{"type":"function","name":"submitSwapProof","inputs":[{"name":"swapReservationIndex","type":"uint256","internalType":"uint256"},{"name":"bitcoinTxId","type":"bytes32","internalType":"bytes32"},{"name":"merkleRoot","type":"bytes32","internalType":"bytes32"},{"name":"safeBlockHeight","type":"uint32","internalType":"uint32"},{"name":"proposedBlockHeight","type":"uint64","internalType":"uint64"},{"name":"confirmationBlockHeight","type":"uint64","internalType":"uint64"},{"name":"blockHashes","type":"bytes32[]","internalType":"bytes32[]"},{"name":"blockChainworks","type":"uint256[]","internalType":"uint256[]"},{"name":"proof","type":"bytes","internalType":"bytes"}],"outputs":[],"stateMutability":"nonpayable"},{"type":"function","name":"swapReservations","inputs":[{"name":"","type":"uint256","internalType":"uint256"}],"outputs":[{"name":"owner","type":"address","internalType":"address"},{"name":"confirmationBlockHeight","type":"uint32","internalType":"uint32"},{"name":"reservationTimestamp","type":"uint64","internalType":"uint64"},{"name":"liquidityUnlockedTimestamp","type":"uint64","internalType":"uint64"},{"name":"state","type":"uint8","internalType":"enum RiftExchange.ReservationState"},{"name":"ethPayoutAddress","type":"address","internalType":"address"},{"name":"lpReservationHash","type":"bytes32","internalType":"bytes32"},{"name":"nonce","type":"bytes32","internalType":"bytes32"},{"name":"totalSatsInputIncludingProxyFee","type":"uint256","internalType":"uint256"},{"name":"totalSwapOutputAmount","type":"uint256","internalType":"uint256"},{"name":"proposedBlockHeight","type":"uint256","internalType":"uint256"},{"name":"proposedBlockHash","type":"bytes32","internalType":"bytes32"}],"stateMutability":"view"},{"type":"function","name":"transferOwnership","inputs":[{"name":"newOwner","type":"address","internalType":"address"}],"outputs":[],"stateMutability":"nonpayable"},{"type":"function","name":"updateExchangeRate","inputs":[{"name":"globalVaultIndex","type":"uint256","internalType":"uint256"},{"name":"newExchangeRate","type":"uint64","internalType":"uint64"},{"name":"expiredSwapReservationIndexes","type":"uint256[]","internalType":"uint256[]"}],"outputs":[],"stateMutability":"nonpayable"},{"type":"function","name":"updateFeeRouter","inputs":[{"name":"newProtocolAddress","type":"address","internalType":"address payable"}],"outputs":[],"stateMutability":"nonpayable"},{"type":"function","name":"updateNewLiquidityDepositsPaused","inputs":[{"name":"newPauseState","type":"bool","internalType":"bool"}],"outputs":[],"stateMutability":"nonpayable"},{"type":"function","name":"updateProtocolFee","inputs":[{"name":"newProtocolFeeBP","type":"uint8","internalType":"uint8"}],"outputs":[],"stateMutability":"nonpayable"},{"type":"function","name":"validateBlockExists","inputs":[{"name":"blockHeight","type":"uint256","internalType":"uint256"}],"outputs":[],"stateMutability":"view"},{"type":"function","name":"withdrawLiquidity","inputs":[{"name":"globalVaultIndex","type":"uint256","internalType":"uint256"},{"name":"amountToWithdraw","type":"uint192","internalType":"uint192"},{"name":"expiredSwapReservationIndexes","type":"uint256[]","internalType":"uint256[]"}],"outputs":[],"stateMutability":"nonpayable"},{"type":"event","name":"BlocksAdded","inputs":[{"name":"startBlockHeight","type":"uint256","indexed":false,"internalType":"uint256"},{"name":"count","type":"uint256","indexed":false,"internalType":"uint256"}],"anonymous":false},{"type":"event","name":"ExchangeRateUpdated","inputs":[{"name":"globalVaultIndex","type":"uint256","indexed":true,"internalType":"uint256"},{"name":"newExchangeRate","type":"uint64","indexed":false,"internalType":"uint64"},{"name":"unreservedBalance","type":"uint256","indexed":false,"internalType":"uint256"}],"anonymous":false},{"type":"event","name":"LiquidityDeposited","inputs":[{"name":"depositor","type":"address","indexed":true,"internalType":"address"},{"name":"depositVaultIndex","type":"uint256","indexed":false,"internalType":"uint256"},{"name":"amount","type":"uint256","indexed":false,"internalType":"uint256"},{"name":"exchangeRate","type":"uint64","indexed":false,"internalType":"uint64"}],"anonymous":false},{"type":"event","name":"LiquidityReserved","inputs":[{"name":"reserver","type":"address","indexed":true,"internalType":"address"},{"name":"swapReservationIndex","type":"uint256","indexed":false,"internalType":"uint256"},{"name":"orderNonce","type":"bytes32","indexed":false,"internalType":"bytes32"}],"anonymous":false},{"type":"event","name":"LiquidityWithdrawn","inputs":[{"name":"globalVaultIndex","type":"uint256","indexed":true,"internalType":"uint256"},{"name":"amountWithdrawn","type":"uint192","indexed":false,"internalType":"uint192"},{"name":"remainingBalance","type":"uint256","indexed":false,"internalType":"uint256"}],"anonymous":false},{"type":"event","name":"OwnershipTransferred","inputs":[{"name":"user","type":"address","indexed":true,"internalType":"address"},{"name":"newOwner","type":"address","indexed":true,"internalType":"address"}],"anonymous":false},{"type":"event","name":"ProofSubmitted","inputs":[{"name":"prover","type":"address","indexed":true,"internalType":"address"},{"name":"swapReservationIndex","type":"uint256","indexed":false,"internalType":"uint256"},{"name":"orderNonce","type":"bytes32","indexed":false,"internalType":"bytes32"}],"anonymous":false},{"type":"event","name":"SwapComplete","inputs":[{"name":"swapReservation","type":"tuple","indexed":false,"internalType":"struct RiftExchange.SwapReservation","components":[{"name":"owner","type":"address","internalType":"address"},{"name":"confirmationBlockHeight","type":"uint32","internalType":"uint32"},{"name":"reservationTimestamp","type":"uint64","internalType":"uint64"},{"name":"liquidityUnlockedTimestamp","type":"uint64","internalType":"uint64"},{"name":"state","type":"uint8","internalType":"enum RiftExchange.ReservationState"},{"name":"ethPayoutAddress","type":"address","internalType":"address"},{"name":"lpReservationHash","type":"bytes32","internalType":"bytes32"},{"name":"nonce","type":"bytes32","internalType":"bytes32"},{"name":"totalSatsInputIncludingProxyFee","type":"uint256","internalType":"uint256"},{"name":"totalSwapOutputAmount","type":"uint256","internalType":"uint256"},{"name":"proposedBlockHeight","type":"uint256","internalType":"uint256"},{"name":"proposedBlockHash","type":"bytes32","internalType":"bytes32"},{"name":"vaultIndexes","type":"uint256[]","internalType":"uint256[]"},{"name":"amountsToReserve","type":"uint192[]","internalType":"uint192[]"},{"name":"expectedSatsOutput","type":"uint64[]","internalType":"uint64[]"}]},{"name":"protocolFee","type":"uint256","indexed":false,"internalType":"uint256"}],"anonymous":false},{"type":"error","name":"AmountToReserveTooLow","inputs":[{"name":"index","type":"uint256","internalType":"uint256"}]},{"type":"error","name":"BlockArraysMismatch","inputs":[]},{"type":"error","name":"BlockDoesNotExist","inputs":[]},{"type":"error","name":"InvalidBlockHeights","inputs":[]},{"type":"error","name":"InvalidChainwork","inputs":[]},{"type":"error","name":"InvalidConfirmationBlock","inputs":[]},{"type":"error","name":"InvalidExchangeRate","inputs":[]},{"type":"error","name":"InvalidInputArrays","inputs":[]},{"type":"error","name":"InvalidReservationState","inputs":[]},{"type":"error","name":"InvalidSafeBlock","inputs":[]},{"type":"error","name":"NewDepositsPaused","inputs":[]},{"type":"error","name":"NotEnoughLiquidity","inputs":[]},{"type":"error","name":"NotVaultOwner","inputs":[]},{"type":"error","name":"OverwrittenProposedBlock","inputs":[]},{"type":"error","name":"ReservationNotExpired","inputs":[]},{"type":"error","name":"ReservationNotProved","inputs":[]},{"type":"error","name":"StillInChallengePeriod","inputs":[]},{"type":"error","name":"UpdateExchangeRateError","inputs":[]},{"type":"error","name":"WithdrawalAmountError","inputs":[]}],"bytecode":{"object":"0x6101206040526003805461ffff60a01b1916600560a91b179055348015610024575f80fd5b50604051613f16380380613f16833981016040819052610043916101df565b60028a90555f8a81526001602090815260408083208a90559082905281208a905583908b9089908c908c90869082908061007c88610197565b8152602081019190915260409081015f9081209290925560ff909216608052600380546001600160a01b0389166001600160a01b03199091168117909155915191955093507f8be0079c531659141344cd1fd0a4f28419497f9722a3daafe3b4186f6b6457e09250839150a35060e08290526001600160a01b0380871661010052851660a08190526040805163313ce56760e01b8152905163313ce567916004808201926020929091908290030181865afa15801561013d573d5f803e3d5ffd5b505050506040513d601f19601f820116820180604052508101906101619190610273565b60ff1660c0525050600480546001600160a01b0319166001600160a01b039390931692909217909155506102d195505050505050565b5f6101a46107e083610293565b6101ae90836102b2565b92915050565b80516001600160a01b03811681146101ca575f80fd5b919050565b805160ff811681146101ca575f80fd5b5f805f805f805f805f806101408b8d0312156101f9575f80fd5b8a5160208c015160408d015160608e0151929c50909a509850965061022060808c016101b4565b955061022e60a08c016101b4565b945061023c60c08c016101b4565b935061024a60e08c016101b4565b6101008c015190935091506102626101208c016101cf565b90509295989b9194979a5092959850565b5f60208284031215610283575f80fd5b61028c826101cf565b9392505050565b5f826102ad57634e487b7160e01b5f52601260045260245ffd5b500690565b818103818111156101ae57634e487b7160e01b5f52601160045260245ffd5b60805160a05160c05160e05161010051613bc961034d5f395f818161052c0152818161215001526122b501525f81816104ad0152818161217d01526122e201525f81816103390152611b6a01525f818161023c01528181610e5401528181610ec30152818161127901526114f301525f6127560152613bc95ff3fe608060405234801561000f575f80fd5b506004361061021e575f3560e01c806398f9e7571161012a578063d57763c3116100b4578063ecdea06f11610079578063ecdea06f14610614578063eced552614610627578063ed8b2b3214610636578063ee82ac5e14610649578063f2fde38b14610668575f80fd5b8063d57763c3146105bd578063d8418403146105dd578063d8b4cf4e146105f0578063e102f9c1146105f9578063ea6fe03e1461060c575f80fd5b8063b9b2a982116100fa578063b9b2a9821461054e578063c3a079ed14610561578063c5fba0b81461056a578063c7785af01461057e578063cda7d82c1461059e575f80fd5b806398f9e757146104e2578063a3db99d914610502578063b01c27d114610515578063b8b2459214610527575f80fd5b806373e149e6116101ab578063803d5f621161017b578063803d5f621461045357806389a11f7a146104665780638cc63cdd146104845780638d5ca052146104a85780638da5cb5b146104cf575f80fd5b806373e149e61461041257806377891907146104255780637a9059a2146104385780637dce55501461044b575f80fd5b8063505675dd116101f1578063505675dd146103215780635b7f415c146103345780635f4d06101461036d5780636512d057146103d45780636b994abb146103e7575f80fd5b80630a7aa2931461022257806313f6658714610237578063163de0c51461027b578063276d080e14610292575b5f80fd5b610235610230366004612bdb565b61067b565b005b61025e7f000000000000000000000000000000000000000000000000000000000000000081565b6040516001600160a01b0390911681526020015b60405180910390f35b61028460025481565b604051908152602001610272565b6102a56102a0366004612c02565b6106ce565b60405161027291905f60e08201905060018060a01b0383511682526001600160401b0360208401511660208301526040830151604083015260608301516060830152608083015160808301526001600160401b0360a08401511660a083015269ffffffffffffffffffff1960c08401511660c083015292915050565b61023561032f366004612d04565b6107a9565b61035b7f000000000000000000000000000000000000000000000000000000000000000081565b60405160ff9091168152602001610272565b61038061037b366004612c02565b610af7565b604080516001600160a01b0390981688526001600160401b039687166020890152870194909452606086019290925260808501529190911660a08301526001600160501b03191660c082015260e001610272565b6102846103e2366004612c02565b610b60565b6103fa6103f5366004612c02565b610b8b565b6040516102729c9b9a99989796959493929190612d8a565b610235610420366004612e25565b610c20565b610235610433366004612c02565b610c6c565b610235610446366004612e4d565b610fc3565b600554610284565b610235610461366004612e68565b61100b565b61046f61384081565b60405163ffffffff9091168152602001610272565b60035461049890600160a01b900460ff1681565b6040519015158152602001610272565b6102847f000000000000000000000000000000000000000000000000000000000000000081565b60035461025e906001600160a01b031681565b6104f56104f0366004612e25565b61134b565b6040516102729190612ef6565b610235610510366004612f2e565b6113cb565b600354600160a01b900460ff16610498565b61025e7f000000000000000000000000000000000000000000000000000000000000000081565b61028461055c366004612c02565b6115b6565b61046f61012c81565b60035461035b90600160a81b900460ff1681565b61059161058c366004612f63565b6115d3565b6040516102729190613026565b6102846105ac366004612c02565b5f9081526001602052604090205490565b6105d06105cb366004612c02565b611710565b604051610272919061318b565b6102356105eb3660046132b1565b6119e8565b61028461271081565b6102356106073660046133c6565b612107565b600654610284565b610235610622366004613521565b612207565b610284670de0b6b3a764000081565b610235610644366004612c02565b61242e565b610284610657366004612c02565b5f9081526020819052604090205490565b610235610676366004612e25565b61245c565b6003546001600160a01b031633146106ae5760405162461bcd60e51b81526004016106a5906135f9565b60405180910390fd5b6003805460ff909216600160a81b0260ff60a81b19909216919091179055565b6040805160e0810182525f80825260208201819052918101829052606081018290526080810182905260a0810182905260c0810191909152600582815481106107195761071961361f565b5f9182526020918290206040805160e08101825260059390930290910180546001600160a01b0381168452600160a01b90046001600160401b039081169484019490945260018101549183019190915260028101546060830152600381015460808301526004015491821660a0820152600160401b90910460501b6001600160501b03191660c082015292915050565b336001600160a01b0316600584815481106107c6576107c661361f565b5f9182526020909120600590910201546001600160a01b0316146107fd57604051630e7fea9d60e01b815260040160405180910390fd5b816001600160401b03165f036108265760405163a2ec3a5560e01b815260040160405180910390fd5b5f6005848154811061083a5761083a61361f565b905f5260205f20906005020190505f81600201549050610859836124d1565b816001015481036108c55760048201805467ffffffffffffffff19166001600160401b038616908117909155604080519182526020820183905286917fbe7a3aef8ec470b9ef629744038f55b7557d10cd672e7a5982f0433e50866ae7910160405180910390a2610af0565b805f036108e557604051632b5daf8960e01b815260040160405180910390fd5b600580546040805160e08101825285546001600160a01b0390811682526001600160401b0342811660208401908152938301878152606084018881525f608086018181528d851660a0880190815260048d01546001600160501b0319600160401b91829004605090811b9190911660c08b0190815260018d018e558d865299519c8c027f036b6384b5eca791c62761152d0c79bb0604c104a5fb6f4eb0703f3154bb3db0810180549c518a16600160a01b026001600160e01b0319909d169e909a169d909d179a909a1790975593517f036b6384b5eca791c62761152d0c79bb0604c104a5fb6f4eb0703f3154bb3db18b015591517f036b6384b5eca791c62761152d0c79bb0604c104a5fb6f4eb0703f3154bb3db28a015590517f036b6384b5eca791c62761152d0c79bb0604c104a5fb6f4eb0703f3154bb3db389015590517f036b6384b5eca791c62761152d0c79bb0604c104a5fb6f4eb0703f3154bb3db49097018054945190951c9092026001600160f01b031990931695169490941717905560038401805491928492610a7e908490613647565b90915550505f6002840181905533815260076020908152604082208054600181018255908352912001819055604080516001600160401b03871681526020810184905282917fbe7a3aef8ec470b9ef629744038f55b7557d10cd672e7a5982f0433e50866ae7910160405180910390a2505b5050505050565b60058181548110610b06575f80fd5b5f918252602090912060059091020180546001820154600283015460038401546004909401546001600160a01b03841695506001600160401b03600160a01b9094048416949293919291811690600160401b900460501b87565b5f60058281548110610b7457610b7461361f565b905f5260205f209060050201600201549050919050565b60068181548110610b9a575f80fd5b5f9182526020909120600b9091020180546001820154600283015460038401546004850154600586015460068701546007909701546001600160a01b03808816995063ffffffff600160a01b890416986001600160401b03600160c01b90990489169888169760ff600160401b82041697600160481b909104909216959194919391928c565b6003546001600160a01b03163314610c4a5760405162461bcd60e51b81526004016106a5906135f9565b600480546001600160a01b0319166001600160a01b0392909216919091179055565b5f60068281548110610c8057610c8061361f565b5f9182526020909120600b90910201905060026001820154600160401b900460ff166004811115610cb357610cb3612d56565b14610cd1576040516320d55f6760e21b815260040160405180910390fd5b60018101546001600160401b0316421015610cff57604051632d5c37f560e21b815260040160405180910390fd5b610d3d6040518060400160405280601881526020017f70726f706f736564426c6f636b486173682061637475616c00000000000000008152506125df565b610d5e610d5982600601545f9081526020819052604090205490565b612622565b610d9c6040518060400160405280601a81526020017f70726f706f736564426c6f636b486173682065787065637465640000000000008152506125df565b610da98160070154612622565b600781015460068201545f9081526020819052604090205414610ddf5760405163c1f6fa5160e01b815260040160405180910390fd5b60018101805460ff60401b19166803000000000000000017905560035460058201545f9161271091610e1b91600160a81b900460ff169061365a565b610e259190613685565b6004805460405163a9059cbb60e01b81526001600160a01b0391821692810192909252602482018390529192507f00000000000000000000000000000000000000000000000000000000000000009091169063a9059cbb906044016020604051808303815f875af1158015610e9c573d5f803e3d5ffd5b505050506040513d601f19601f82011682018060405250810190610ec09190613698565b507f00000000000000000000000000000000000000000000000000000000000000006001600160a01b031663a9059cbb8360010160099054906101000a90046001600160a01b0316838560050154610f1891906136b3565b6040516001600160e01b031960e085901b1681526001600160a01b03909216600483015260248201526044016020604051808303815f875af1158015610f60573d5f803e3d5ffd5b505050506040513d601f19601f82011682018060405250810190610f849190613698565b507fa3328b2ebfa78e7ce5223ee95848bd80d0515a10002fdf8e21df2e5e76f4bfd98282604051610fb6929190613819565b60405180910390a1505050565b6003546001600160a01b03163314610fed5760405162461bcd60e51b81526004016106a5906135f9565b60038054911515600160a01b0260ff60a01b19909216919091179055565b600354600160a01b900460ff1615611036576040516348010c6560e11b815260040160405180910390fd5b816001600160401b03165f0361105f5760405163a2ec3a5560e01b815260040160405180910390fd5b335f9081526007602052604081205490036110ab57604080515f6020808301828152838501855283523382526007815292902081518051929391926110a79284920190612a7f565b5050505b6040805160e081018252338082526001600160401b0342811660208401908152938301878152606084018881525f6080860181815289851660a088019081526001600160501b03198a1660c0890190815260058054600181810183559582905299519981027f036b6384b5eca791c62761152d0c79bb0604c104a5fb6f4eb0703f3154bb3db0810180549c518a16600160a01b026001600160e01b0319909d166001600160a01b039c909c169b909b179b909b1790995594517f036b6384b5eca791c62761152d0c79bb0604c104a5fb6f4eb0703f3154bb3db18a015592517f036b6384b5eca791c62761152d0c79bb0604c104a5fb6f4eb0703f3154bb3db2890155517f036b6384b5eca791c62761152d0c79bb0604c104a5fb6f4eb0703f3154bb3db388015590517f036b6384b5eca791c62761152d0c79bb0604c104a5fb6f4eb0703f3154bb3db49096018054925160501c600160401b026001600160f01b0319909316969093169590951717905590546112579261122c916136b3565b6001600160a01b039091165f9081526007602090815260408220805460018101825590835291200155565b6040516323b872dd60e01b8152336004820152306024820152604481018490527f00000000000000000000000000000000000000000000000000000000000000006001600160a01b0316906323b872dd906064016020604051808303815f875af11580156112c7573d5f803e3d5ffd5b505050506040513d601f19601f820116820180604052508101906112eb9190613698565b5060055433907ffd5ab8914e1dca355d18ae7fe50627d3afe042f323e1b0ae31f3a9d2cd19de379061131f906001906136b3565b60408051918252602082018790526001600160401b0386169082015260600160405180910390a2505050565b6040805160208082018352606082526001600160a01b0384165f90815260078252839020835181548084028201860186529281018381529394909391928492918491908401828280156113bb57602002820191905f5260205f20905b8154815260200190600101908083116113a7575b5050505050815250509050919050565b336001600160a01b0316600584815481106113e8576113e861361f565b5f9182526020909120600590910201546001600160a01b03161461141f57604051630e7fea9d60e01b815260040160405180910390fd5b611428816124d1565b5f6005848154811061143c5761143c61361f565b905f5260205f2090600502019050826001600160c01b03165f148061146d57508060020154836001600160c01b0316115b1561148b5760405163b4e3d41360e01b815260040160405180910390fd5b826001600160c01b0316816002015f8282546114a791906136b3565b92505081905550826001600160c01b0316816003015f8282546114ca9190613647565b909155505060405163a9059cbb60e01b81523360048201526001600160c01b03841660248201527f00000000000000000000000000000000000000000000000000000000000000006001600160a01b03169063a9059cbb906044016020604051808303815f875af1158015611541573d5f803e3d5ffd5b505050506040513d601f19601f820116820180604052508101906115659190613698565b506002810154604080516001600160c01b0386168152602081019290925285917f2da2870bb581d5fba8ee536c6bc0062e654302bcee5f5b108193a2c6d2f4a899910160405180910390a250505050565b5f6115c36107e083613934565b6115cd90836136b3565b92915050565b60408051610180810182525f8082526020820181905291810182905260608082018390526080820183905260a0820183905260c0820183905260e08201839052610100820183905261012082018190526101408201526101608101919091525f60068b815481106116465761164661361f565b905f5260205f2090600b020190506040518061018001604052808b81526020018a8152602001826002015481526020018260030154815260200182600801805490506001600160401b031681526020016116a86106578b63ffffffff166115b6565b815263ffffffff8a16602082018190526040909101906116c8908a613947565b6001600160401b031681526020016116e08989613947565b6001600160401b031681526020018681526020018581526020018415158152509150509998505050505050505050565b604080516101e0810182525f8082526020820181905291810182905260608082018390526080820183905260a0820183905260c0820183905260e0820183905261010082018390526101208201839052610140820183905261016082019290925261018081018290526101a081018290526101c08101919091526006828154811061179d5761179d61361f565b5f918252602091829020604080516101e081018252600b90930290910180546001600160a01b038116845263ffffffff600160a01b820416948401949094526001600160401b03600160c01b909404841691830191909152600181015492831660608301529091608083019060ff600160401b90910416600481111561182557611825612d56565b600481111561183657611836612d56565b81526020016001820160099054906101000a90046001600160a01b03166001600160a01b03166001600160a01b03168152602001600282015481526020016003820154815260200160048201548152602001600582015481526020016006820154815260200160078201548152602001600882018054806020026020016040519081016040528092919081815260200182805480156118f257602002820191905f5260205f20905b8154815260200190600101908083116118de575b505050505081526020016009820180548060200260200160405190810160405280929190818152602001828054801561195257602002820191905f5260205f20905b81546001600160c01b03168152600190910190602001808311611934575b50505050508152602001600a82018054806020026020016040519081016040528092919081815260200182805480156113bb57602002820191905f5260205f20905f905b82829054906101000a90046001600160401b03166001600160401b0316815260200190600801906020826007010492830192600103820291508084116119965790505050505050815250509050919050565b845115806119f857508351855114155b15611a165760405163744bba7b60e01b815260040160405180910390fd5b5f5b8451811015611a6e57848181518110611a3357611a3361361f565b60200260200101516001600160c01b03165f03611a6657604051633143436b60e11b8152600481018290526024016106a5565b600101611a18565b505f805f87516001600160401b03811115611a8b57611a8b612c34565b604051908082528060200260200182016040528015611ab4578160200160208202803683370190505b5090505f5b8751811015611be0575f60058a8381518110611ad757611ad761361f565b602002602001015181548110611aef57611aef61361f565b5f91825260209091206004600590920201015489516001600160401b039091169150899083908110611b2357611b2361361f565b60200260200101516001600160c01b031685611b3f9190613647565b94505f611b8e8a8481518110611b5757611b5761361f565b60200260200101516001600160c01b03167f0000000000000000000000000000000000000000000000000000000000000000612667565b90505f611b9b8383613685565b9050611ba78187613647565b955080858581518110611bbc57611bbc61361f565b6001600160401b039290921660209283029190910190910152505050600101611ab9565b50611bea846124d1565b5f805b8951811015611d6b576002838281518110611c0a57611c0a61361f565b602002602001015160058c8481518110611c2657611c2661361f565b602002602001015181548110611c3e57611c3e61361f565b5f91825260209182902060046005909202010154604080516001600160401b03909416928401929092526001600160501b0319600160401b90910460501b16908201526060810184905260800160408051601f1981840301815290829052611ca591613966565b602060405180830381855afa158015611cc0573d5f803e3d5ffd5b5050506040513d601f19601f82011682018060405250810190611ce3919061397c565b915060058a8281518110611cf957611cf961361f565b602002602001015181548110611d1157611d1161361f565b905f5260205f20906005020160020154898281518110611d3357611d3361361f565b60200260200101516001600160c01b03161115611d6357604051634323a55560e01b815260040160405180910390fd5b600101611bed565b50600654604080516001600160a01b038a16602082015242918101919091524660608201526080810183905260a08101919091525f9060c00160408051601f1981840301815282825280516020918201206101e0840183526001600160a01b038f1684525f9184018290526001600160401b034216928401929092526060830152915060069060808101600181526020018a6001600160a01b031681526020018481526020018381526020018981526020018781526020015f81526020015f801b81526020018c81526020018b815260200185815250908060018154018082558091505060019003905f5260205f2090600b02015f909190919091505f820151815f015f6101000a8154816001600160a01b0302191690836001600160a01b031602179055506020820151815f0160146101000a81548163ffffffff021916908363ffffffff1602179055506040820151815f0160186101000a8154816001600160401b0302191690836001600160401b031602179055506060820151816001015f6101000a8154816001600160401b0302191690836001600160401b0316021790555060808201518160010160086101000a81548160ff02191690836004811115611f3957611f39612d56565b021790555060a08201516001820180546001600160a01b03909216600160481b027fffffff0000000000000000000000000000000000000000ffffffffffffffffff90921691909117905560c0820151600282015560e0820151600382015561010082015160048201556101208201516005820155610140820151600682015561016082015160078201556101808201518051611fe0916008840191602090910190612a7f565b506101a08201518051611ffd916009840191602090910190612ac8565b506101c0820151805161201a91600a840191602090910190612b1b565b5050505f5b8a518110156120a15789818151811061203a5761203a61361f565b60200260200101516001600160c01b031660058c838151811061205f5761205f61361f565b6020026020010151815481106120775761207761361f565b905f5260205f2090600502016002015f82825461209491906136b3565b909155505060010161201f565b508a6001600160a01b03167f5956135c9be999a50f7ff4ea49ddf1485bc321ab333dc7a0877633eeb475289360016120d860065490565b6120e291906136b3565b6040805191825260208201859052015b60405180910390a25050505050505050505050565b5f6121198180808b8b8b8b8b856115d3565b6040516020016121299190613026565b60408051601f198184030181529082905263020a49e360e51b825291506001600160a01b037f000000000000000000000000000000000000000000000000000000000000000016906341493c60906121ab907f0000000000000000000000000000000000000000000000000000000000000000908590889088906004016139c1565b5f6040518083038186803b1580156121c1575f80fd5b505afa1580156121d3573d5f803e3d5ffd5b505050506121fc8863ffffffff16886001600160401b0316886001600160401b031688886126a2565b505050505050505050565b5f60068a8154811061221b5761221b61361f565b5f9182526020909120600b909102019050600180820154600160401b900460ff16600481111561224d5761224d612d56565b1461226b57604051639085371960e01b815260040160405180910390fd5b5f61227e8b8b8b8b8b8b8b8b60016115d3565b60405160200161228e9190613026565b60408051601f198184030181529082905263020a49e360e51b825291506001600160a01b037f000000000000000000000000000000000000000000000000000000000000000016906341493c609061230e907f00000000000000000000000000000000000000000000000000000000000000009085908890600401613a0c565b5f6040518083038186803b158015612324575f80fd5b505afa158015612336573d5f803e3d5ffd5b5050505061235f8863ffffffff16886001600160401b0316886001600160401b031688886126a2565b5060018201805460ff60401b19166802000000000000000017905561238661012c42613a40565b60018301805467ffffffffffffffff19166001600160401b0392831617905587166006830155846123bd63ffffffff8a1689613947565b6001600160401b0316815181106123d6576123d661361f565b60200260200101518260070181905550336001600160a01b03167f8bcdab581a6176f792fa96b0c57d32273bcd8621b0548c15a9c6379dc246e26c8c84600301546040516120f2929190918252602082015260400190565b5f818152602081905260409020546124595760405163fa4a5e4560e01b815260040160405180910390fd5b50565b6003546001600160a01b031633146124865760405162461bcd60e51b81526004016106a5906135f9565b600380546001600160a01b0319166001600160a01b03831690811790915560405133907f8be0079c531659141344cd1fd0a4f28419497f9722a3daafe3b4186f6b6457e0905f90a350565b6124da81612969565b5f5b81518110156125db575f60068383815181106124fa576124fa61361f565b6020026020010151815481106125125761251261361f565b905f5260205f2090600b020190505f5b60088201548110156125b9575f60058360080183815481106125465761254661361f565b905f5260205f2001548154811061255f5761255f61361f565b905f5260205f20906005020190508260090182815481106125825761258261361f565b5f9182526020822001546002830180546001600160c01b039092169290916125ab908490613647565b909155505050600101612522565b506001908101805460ff60401b191668040000000000000000179055016124dc565b5050565b612459816040516024016125f39190613a5f565b60408051601f198184030181529190526020810180516001600160e01b031663104c13eb60e21b179052612a5f565b6124598160405160240161263891815260200190565b60408051601f198184030181529190526020810180516001600160e01b03166327b7cf8560e01b179052612a5f565b5f60128260ff16101561269b5761267f826012613a71565b61268a90600a613b6d565b612694908461365a565b90506115cd565b5090919050565b6002545f8181526001602052604081205490919086881015806126c55750858710155b156126e35760405163f198a75d60e01b815260040160405180910390fd5b5f8881526020819052604090205461270e5760405163575f3da360e01b815260040160405180910390fd5b83518551141580612734575061272488876136b3565b61272f906001613647565b855114155b156127525760405163d4d34e9960e01b815260040160405180910390fd5b60ff7f00000000000000000000000000000000000000000000000000000000000000001661278088886136b3565b101561279f576040516341305f6360e01b815260040160405180910390fd5b5f600186516127ae91906136b3565b90505f6127bb8a8a6136b3565b90508681815181106127cf576127cf61361f565b60200260200101515f808b81526020019081526020015f2054036127f9575f945050505050612960565b8286838151811061280c5761280c61361f565b60200260200101511115612947575f6128268b6001613647565b90505b8881116128ad578761283b8c836136b3565b8151811061284b5761284b61361f565b6020908102919091018101515f83815291829052604090912055866128708c836136b3565b815181106128805761288061361f565b6020908102919091018101515f8381526001909252604090912055806128a581613b7b565b915050612829565b50838810156128f9575f6128c2896001613647565b90505b8481116128f7575f818152602081815260408083208390556001909152812055806128ef81613b7b565b9150506128c5565b505b60028890558651604080518c815260208101929092527fb68477c768bbb33b4f238a3dfd17c33c499268c59cd042b7936bbc23dc2bdd34910160405180910390a16001945050505050612960565b604051631f17929160e21b815260040160405180910390fd5b95945050505050565b5f5b81518110156125db5761384063ffffffff1660068383815181106129915761299161361f565b6020026020010151815481106129a9576129a961361f565b5f9182526020909120600b90910201546129d390600160c01b90046001600160401b0316426136b3565b1080612a395750600160068383815181106129f0576129f061361f565b602002602001015181548110612a0857612a0861361f565b905f5260205f2090600b020160010160089054906101000a900460ff166004811115612a3657612a36612d56565b14155b15612a57576040516326349d6b60e01b815260040160405180910390fd5b60010161296b565b80516a636f6e736f6c652e6c6f67602083015f808483855afa5050505050565b828054828255905f5260205f20908101928215612ab8579160200282015b82811115612ab8578251825591602001919060010190612a9d565b50612ac4929150612bc7565b5090565b828054828255905f5260205f20908101928215612ab8579160200282015b82811115612ab857825182546001600160c01b0319166001600160c01b03909116178255602090920191600190910190612ae6565b828054828255905f5260205f2090600301600490048101928215612ab8579160200282015f5b83821115612b8b57835183826101000a8154816001600160401b0302191690836001600160401b031602179055509260200192600801602081600701049283019260010302612b41565b8015612bbe5782816101000a8154906001600160401b030219169055600801602081600701049283019260010302612b8b565b5050612ac49291505b5b80821115612ac4575f8155600101612bc8565b5f60208284031215612beb575f80fd5b813560ff81168114612bfb575f80fd5b9392505050565b5f60208284031215612c12575f80fd5b5035919050565b80356001600160401b0381168114612c2f575f80fd5b919050565b634e487b7160e01b5f52604160045260245ffd5b604051601f8201601f191681016001600160401b0381118282101715612c7057612c70612c34565b604052919050565b5f6001600160401b03821115612c9057612c90612c34565b5060051b60200190565b5f82601f830112612ca9575f80fd5b8135612cbc612cb782612c78565b612c48565b8082825260208201915060208360051b860101925085831115612cdd575f80fd5b602085015b83811015612cfa578035835260209283019201612ce2565b5095945050505050565b5f805f60608486031215612d16575f80fd5b83359250612d2660208501612c19565b915060408401356001600160401b03811115612d40575f80fd5b612d4c86828701612c9a565b9150509250925092565b634e487b7160e01b5f52602160045260245ffd5b60058110612d8657634e487b7160e01b5f52602160045260245ffd5b9052565b6001600160a01b038d16815263ffffffff8c1660208201526001600160401b038b811660408301528a1660608201526101808101612dcb608083018b612d6a565b6001600160a01b039890981660a082015260c081019690965260e08601949094526101008501929092526101208401526101408301526101609091015295945050505050565b6001600160a01b0381168114612459575f80fd5b5f60208284031215612e35575f80fd5b8135612bfb81612e11565b8015158114612459575f80fd5b5f60208284031215612e5d575f80fd5b8135612bfb81612e40565b5f805f60608486031215612e7a575f80fd5b83359250612e8a60208501612c19565b915060408401356001600160501b031981168114612ea6575f80fd5b809150509250925092565b8035612c2f81612e11565b5f8151808452602084019350602083015f5b82811015612eec578151865260209586019590910190600101612ece565b5093949350505050565b602081525f8251602080840152612f106040840182612ebc565b949350505050565b80356001600160c01b0381168114612c2f575f80fd5b5f805f60608486031215612f40575f80fd5b83359250612d2660208501612f18565b803563ffffffff81168114612c2f575f80fd5b5f805f805f805f805f6101208a8c031215612f7c575f80fd5b8935985060208a0135975060408a01359650612f9a60608b01612f50565b9550612fa860808b01612c19565b9450612fb660a08b01612c19565b935060c08a01356001600160401b03811115612fd0575f80fd5b612fdc8c828d01612c9a565b93505060e08a01356001600160401b03811115612ff7575f80fd5b6130038c828d01612c9a565b9250506101008a013561301581612e40565b809150509295985092959850929598565b60208152815160208201526020820151604082015260408201516060820152606082015160808201525f608083015161306a60a08401826001600160401b03169052565b5060a083015160c083015260c083015161308f60e08401826001600160401b03169052565b5060e08301516001600160401b038116610100840152506101008301516001600160401b038116610120840152506101208301516101806101408401526130da6101a0840182612ebc565b9050610140840151601f19848303016101608501526130f98282612ebc565b91505061016084015161311161018085018215159052565b509392505050565b5f8151808452602084019350602083015f5b82811015612eec5781516001600160c01b031686526020958601959091019060010161312b565b5f8151808452602084019350602083015f5b82811015612eec5781516001600160401b0316865260209586019590910190600101613164565b602081526131a56020820183516001600160a01b03169052565b5f60208301516131bd604084018263ffffffff169052565b5060408301516001600160401b03811660608401525060608301516001600160401b03811660808401525060808301516131fa60a0840182612d6a565b5060a08301516001600160a01b03811660c08401525060c083015160e083015260e08301516101008301526101008301516101208301526101208301516101408301526101408301516101608301526101608301516101808301526101808301516101e06101a0840152613272610200840182612ebc565b90506101a0840151601f19848303016101c08501526132918282613119565b9150506101c0840151601f19848303016101e08501526129608282613152565b5f805f805f8060c087890312156132c6575f80fd5b86356132d181612e11565b955060208701356001600160401b038111156132eb575f80fd5b6132f789828a01612c9a565b95505060408701356001600160401b03811115613312575f80fd5b8701601f81018913613322575f80fd5b8035613330612cb782612c78565b8082825260208201915060208360051b85010192508b831115613351575f80fd5b6020840193505b8284101561337a5761336984612f18565b825260209384019390910190613358565b965061338c9250505060608801612eb1565b92506080870135915060a08701356001600160401b038111156133ad575f80fd5b6133b989828a01612c9a565b9150509295509295509295565b5f805f805f805f60c0888a0312156133dc575f80fd5b6133e588612f50565b96506133f360208901612c19565b955061340160408901612c19565b945060608801356001600160401b0381111561341b575f80fd5b6134278a828b01612c9a565b94505060808801356001600160401b03811115613442575f80fd5b61344e8a828b01612c9a565b93505060a08801356001600160401b03811115613469575f80fd5b8801601f81018a13613479575f80fd5b80356001600160401b0381111561348e575f80fd5b8a602082840101111561349f575f80fd5b602082019350809250505092959891949750929550565b5f82601f8301126134c5575f80fd5b81356001600160401b038111156134de576134de612c34565b6134f1601f8201601f1916602001612c48565b818152846020838601011115613505575f80fd5b816020850160208301375f918101602001919091529392505050565b5f805f805f805f805f6101208a8c03121561353a575f80fd5b8935985060208a0135975060408a0135965061355860608b01612f50565b955061356660808b01612c19565b945061357460a08b01612c19565b935060c08a01356001600160401b0381111561358e575f80fd5b61359a8c828d01612c9a565b93505060e08a01356001600160401b038111156135b5575f80fd5b6135c18c828d01612c9a565b9250506101008a01356001600160401b038111156135dd575f80fd5b6135e98c828d016134b6565b9150509295985092959850929598565b6020808252600c908201526b15539055551213d49256915160a21b604082015260600190565b634e487b7160e01b5f52603260045260245ffd5b634e487b7160e01b5f52601160045260245ffd5b808201808211156115cd576115cd613633565b80820281158282048414176115cd576115cd613633565b634e487b7160e01b5f52601260045260245ffd5b5f8261369357613693613671565b500490565b5f602082840312156136a8575f80fd5b8151612bfb81612e40565b818103818111156115cd576115cd613633565b5f8154808452602084019350825f5260205f205f5b82811015612eec5781548652602090950194600191820191016136db565b5f8154808452602084019350825f5260205f205f5b82811015612eec5781546001600160c01b031686526020909501946001918201910161370e565b80548083525f8281526020808220940193909190825b8260038201101561379a5781546001600160401b038082168852604082811c821660208a0152608083811c9092169089015260c09190911c60608801529095019460019091019060040161374b565b905490828110156137bb576001600160401b03821686526020909501946001015b828110156137dd576001600160401b03604083901c1686526020909501946001015b828110156137ff576001600160401b03608083901c1686526020909501946001015b82811015612eec575060c01c845250506020909101919050565b604080825283545f9161383f9084016001600160a01b0383166001600160a01b03169052565b60a081901c63ffffffff16606084015260c081901c60808401525060018401546001600160401b03811660a084015261388160c0840160ff8360401c16612d6a565b60481c6001600160a01b031660e08301526002840154610100830152600384015461012083015260048401546101408301526005840154610160830152600684015461018083015260078401546101a08301526101e06101c08301526138ee6102208301600886016136c6565b828103603f19016101e084015261390881600987016136f9565b838103603f1901610200850152905061392481600a8701613735565b9150508260208301529392505050565b5f8261394257613942613671565b500690565b6001600160401b0382811682821603908111156115cd576115cd613633565b5f82518060208501845e5f920191825250919050565b5f6020828403121561398c575f80fd5b5051919050565b5f81518084528060208401602086015e5f602082860101526020601f19601f83011685010191505092915050565b848152606060208201525f6139d96060830186613993565b8281036040840152838152838560208301375f602085830101526020601f19601f86011682010191505095945050505050565b838152606060208201525f613a246060830185613993565b8281036040840152613a368185613993565b9695505050505050565b6001600160401b0381811683821601908111156115cd576115cd613633565b602081525f612bfb6020830184613993565b60ff82811682821603908111156115cd576115cd613633565b6001815b6001841115613ac557808504811115613aa957613aa9613633565b6001841615613ab757908102905b60019390931c928002613a8e565b935093915050565b5f82613adb575060016115cd565b81613ae757505f6115cd565b8160018114613afd5760028114613b0757613b23565b60019150506115cd565b60ff841115613b1857613b18613633565b50506001821b6115cd565b5060208310610133831016604e8410600b8410161715613b46575081810a6115cd565b613b525f198484613a8a565b805f1904821115613b6557613b65613633565b029392505050565b5f612bfb60ff841683613acd565b5f60018201613b8c57613b8c613633565b506001019056fea26469706673582212203f7e4f7b2dc24642dc7c5d63fca0279a9447bf05624d42e020fd865926d0f5af64736f6c634300081a0033","linkReferences":{}},"methodIdentifiers":{"BP_SCALE()":"d8b4cf4e","CHALLENGE_PERIOD()":"c3a079ed","CIRCUIT_VERIFICATION_KEY()":"8d5ca052","DEPOSIT_TOKEN()":"13f66587","RESERVATION_LOCKUP_PERIOD()":"89a11f7a","SCALE()":"eced5526","TOKEN_DECIMALS()":"5b7f415c","VERIFIER_CONTRACT()":"b8b24592","buildPublicInputs(uint256,bytes32,bytes32,uint32,uint64,uint64,bytes32[],uint256[],bool)":"c7785af0","calculateRetargetHeight(uint256)":"b9b2a982","currentHeight()":"163de0c5","depositLiquidity(uint256,uint64,bytes22)":"803d5f62","depositVaults(uint256)":"5f4d0610","getAreDepositsPaused()":"b01c27d1","getBlockHash(uint256)":"ee82ac5e","getChainwork(uint256)":"cda7d82c","getDepositVault(uint256)":"276d080e","getDepositVaultUnreservedBalance(uint256)":"6512d057","getDepositVaultsLength()":"7dce5550","getLiquidityProvider(address)":"98f9e757","getReservation(uint256)":"d57763c3","getReservationLength()":"ea6fe03e","isDepositNewLiquidityPaused()":"8cc63cdd","owner()":"8da5cb5b","protocolFeeBP()":"c5fba0b8","proveBlocks(uint32,uint64,uint64,bytes32[],uint256[],bytes)":"e102f9c1","releaseLiquidity(uint256)":"77891907","reserveLiquidity(address,uint256[],uint192[],address,uint256,uint256[])":"d8418403","submitSwapProof(uint256,bytes32,bytes32,uint32,uint64,uint64,bytes32[],uint256[],bytes)":"ecdea06f","swapReservations(uint256)":"6b994abb","transferOwnership(address)":"f2fde38b","updateExchangeRate(uint256,uint64,uint256[])":"505675dd","updateFeeRouter(address)":"73e149e6","updateNewLiquidityDepositsPaused(bool)":"7a9059a2","updateProtocolFee(uint8)":"0a7aa293","validateBlockExists(uint256)":"ed8b2b32","withdrawLiquidity(uint256,uint192,uint256[])":"a3db99d9"},"storageLayout":{"storage":[{"astId":47998,"contract":"src/RiftExchange.sol:RiftExchange","label":"blockchain","offset":0,"slot":"0","type":"t_mapping(t_uint256,t_bytes32)"},{"astId":48002,"contract":"src/RiftExchange.sol:RiftExchange","label":"chainworks","offset":0,"slot":"1","type":"t_mapping(t_uint256,t_uint256)"},{"astId":48004,"contract":"src/RiftExchange.sol:RiftExchange","label":"currentHeight","offset":0,"slot":"2","type":"t_uint256"},{"astId":46637,"contract":"src/RiftExchange.sol:RiftExchange","label":"owner","offset":0,"slot":"3","type":"t_address"},{"astId":49397,"contract":"src/RiftExchange.sol:RiftExchange","label":"isDepositNewLiquidityPaused","offset":20,"slot":"3","type":"t_bool"},{"astId":49400,"contract":"src/RiftExchange.sol:RiftExchange","label":"protocolFeeBP","offset":21,"slot":"3","type":"t_uint8"},{"astId":49402,"contract":"src/RiftExchange.sol:RiftExchange","label":"feeRouterAddress","offset":0,"slot":"4","type":"t_address"},{"astId":49406,"contract":"src/RiftExchange.sol:RiftExchange","label":"depositVaults","offset":0,"slot":"5","type":"t_array(t_struct(DepositVault)49345_storage)dyn_storage"},{"astId":49410,"contract":"src/RiftExchange.sol:RiftExchange","label":"swapReservations","offset":0,"slot":"6","type":"t_array(t_struct(SwapReservation)49326_storage)dyn_storage"},{"astId":49415,"contract":"src/RiftExchange.sol:RiftExchange","label":"liquidityProviders","offset":0,"slot":"7","type":"t_mapping(t_address,t_struct(LiquidityProvider)49330_storage)"}],"types":{"t_address":{"encoding":"inplace","label":"address","numberOfBytes":"20"},"t_array(t_struct(DepositVault)49345_storage)dyn_storage":{"encoding":"dynamic_array","label":"struct RiftExchange.DepositVault[]","numberOfBytes":"32","base":"t_struct(DepositVault)49345_storage"},"t_array(t_struct(SwapReservation)49326_storage)dyn_storage":{"encoding":"dynamic_array","label":"struct RiftExchange.SwapReservation[]","numberOfBytes":"32","base":"t_struct(SwapReservation)49326_storage"},"t_array(t_uint192)dyn_storage":{"encoding":"dynamic_array","label":"uint192[]","numberOfBytes":"32","base":"t_uint192"},"t_array(t_uint256)dyn_storage":{"encoding":"dynamic_array","label":"uint256[]","numberOfBytes":"32","base":"t_uint256"},"t_array(t_uint64)dyn_storage":{"encoding":"dynamic_array","label":"uint64[]","numberOfBytes":"32","base":"t_uint64"},"t_bool":{"encoding":"inplace","label":"bool","numberOfBytes":"1"},"t_bytes22":{"encoding":"inplace","label":"bytes22","numberOfBytes":"22"},"t_bytes32":{"encoding":"inplace","label":"bytes32","numberOfBytes":"32"},"t_enum(ReservationState)49291":{"encoding":"inplace","label":"enum RiftExchange.ReservationState","numberOfBytes":"1"},"t_mapping(t_address,t_struct(LiquidityProvider)49330_storage)":{"encoding":"mapping","key":"t_address","label":"mapping(address => struct RiftExchange.LiquidityProvider)","numberOfBytes":"32","value":"t_struct(LiquidityProvider)49330_storage"},"t_mapping(t_uint256,t_bytes32)":{"encoding":"mapping","key":"t_uint256","label":"mapping(uint256 => bytes32)","numberOfBytes":"32","value":"t_bytes32"},"t_mapping(t_uint256,t_uint256)":{"encoding":"mapping","key":"t_uint256","label":"mapping(uint256 => uint256)","numberOfBytes":"32","value":"t_uint256"},"t_struct(DepositVault)49345_storage":{"encoding":"inplace","label":"struct RiftExchange.DepositVault","numberOfBytes":"160","members":[{"astId":49332,"contract":"src/RiftExchange.sol:RiftExchange","label":"owner","offset":0,"slot":"0","type":"t_address"},{"astId":49334,"contract":"src/RiftExchange.sol:RiftExchange","label":"depositTimestamp","offset":20,"slot":"0","type":"t_uint64"},{"astId":49336,"contract":"src/RiftExchange.sol:RiftExchange","label":"initialBalance","offset":0,"slot":"1","type":"t_uint256"},{"astId":49338,"contract":"src/RiftExchange.sol:RiftExchange","label":"unreservedBalance","offset":0,"slot":"2","type":"t_uint256"},{"astId":49340,"contract":"src/RiftExchange.sol:RiftExchange","label":"withdrawnAmount","offset":0,"slot":"3","type":"t_uint256"},{"astId":49342,"contract":"src/RiftExchange.sol:RiftExchange","label":"exchangeRate","offset":0,"slot":"4","type":"t_uint64"},{"astId":49344,"contract":"src/RiftExchange.sol:RiftExchange","label":"btcPayoutLockingScript","offset":8,"slot":"4","type":"t_bytes22"}]},"t_struct(LiquidityProvider)49330_storage":{"encoding":"inplace","label":"struct RiftExchange.LiquidityProvider","numberOfBytes":"32","members":[{"astId":49329,"contract":"src/RiftExchange.sol:RiftExchange","label":"depositVaultIndexes","offset":0,"slot":"0","type":"t_array(t_uint256)dyn_storage"}]},"t_struct(SwapReservation)49326_storage":{"encoding":"inplace","label":"struct RiftExchange.SwapReservation","numberOfBytes":"352","members":[{"astId":49293,"contract":"src/RiftExchange.sol:RiftExchange","label":"owner","offset":0,"slot":"0","type":"t_address"},{"astId":49295,"contract":"src/RiftExchange.sol:RiftExchange","label":"confirmationBlockHeight","offset":20,"slot":"0","type":"t_uint32"},{"astId":49297,"contract":"src/RiftExchange.sol:RiftExchange","label":"reservationTimestamp","offset":24,"slot":"0","type":"t_uint64"},{"astId":49299,"contract":"src/RiftExchange.sol:RiftExchange","label":"liquidityUnlockedTimestamp","offset":0,"slot":"1","type":"t_uint64"},{"astId":49302,"contract":"src/RiftExchange.sol:RiftExchange","label":"state","offset":8,"slot":"1","type":"t_enum(ReservationState)49291"},{"astId":49304,"contract":"src/RiftExchange.sol:RiftExchange","label":"ethPayoutAddress","offset":9,"slot":"1","type":"t_address"},{"astId":49306,"contract":"src/RiftExchange.sol:RiftExchange","label":"lpReservationHash","offset":0,"slot":"2","type":"t_bytes32"},{"astId":49308,"contract":"src/RiftExchange.sol:RiftExchange","label":"nonce","offset":0,"slot":"3","type":"t_bytes32"},{"astId":49310,"contract":"src/RiftExchange.sol:RiftExchange","label":"totalSatsInputIncludingProxyFee","offset":0,"slot":"4","type":"t_uint256"},{"astId":49312,"contract":"src/RiftExchange.sol:RiftExchange","label":"totalSwapOutputAmount","offset":0,"slot":"5","type":"t_uint256"},{"astId":49314,"contract":"src/RiftExchange.sol:RiftExchange","label":"proposedBlockHeight","offset":0,"slot":"6","type":"t_uint256"},{"astId":49316,"contract":"src/RiftExchange.sol:RiftExchange","label":"proposedBlockHash","offset":0,"slot":"7","type":"t_bytes32"},{"astId":49319,"contract":"src/RiftExchange.sol:RiftExchange","label":"vaultIndexes","offset":0,"slot":"8","type":"t_array(t_uint256)dyn_storage"},{"astId":49322,"contract":"src/RiftExchange.sol:RiftExchange","label":"amountsToReserve","offset":0,"slot":"9","type":"t_array(t_uint192)dyn_storage"},{"astId":49325,"contract":"src/RiftExchange.sol:RiftExchange","label":"expectedSatsOutput","offset":0,"slot":"10","type":"t_array(t_uint64)dyn_storage"}]},"t_uint192":{"encoding":"inplace","label":"uint192","numberOfBytes":"24"},"t_uint256":{"encoding":"inplace","label":"uint256","numberOfBytes":"32"},"t_uint32":{"encoding":"inplace","label":"uint32","numberOfBytes":"4"},"t_uint64":{"encoding":"inplace","label":"uint64","numberOfBytes":"8"},"t_uint8":{"encoding":"inplace","label":"uint8","numberOfBytes":"1"}}},"id":32}