{"abi":[{"type":"constructor","inputs":[{"name":"initialCheckpointHeight","type":"uint256","internalType":"uint256"},{"name":"initialBlockHash","type":"bytes32","internalType":"bytes32"},{"name":"initialRetargetBlockHash","type":"bytes32","internalType":"bytes32"},{"name":"verifierContractAddress","type":"address","internalType":"address"},{"name":"depositTokenAddress","type":"address","internalType":"address"},{"name":"_proverReward","type":"uint256","internalType":"uint256"},{"name":"_releaserReward","type":"uint256","internalType":"uint256"},{"name":"_protocolAddress","type":"address","internalType":"address payable"},{"name":"_owner","type":"address","internalType":"address"},{"name":"_circuitVerificationKey","type":"bytes32","internalType":"bytes32"}],"stateMutability":"nonpayable"},{"type":"function","name":"CHALLENGE_PERIOD","inputs":[],"outputs":[{"name":"","type":"uint256","internalType":"uint256"}],"stateMutability":"view"},{"type":"function","name":"DEPOSIT_TOKEN","inputs":[],"outputs":[{"name":"","type":"address","internalType":"contract IERC20"}],"stateMutability":"view"},{"type":"function","name":"MAX_DEPOSIT_OUTPUTS","inputs":[],"outputs":[{"name":"","type":"uint16","internalType":"uint16"}],"stateMutability":"view"},{"type":"function","name":"MIN_ORDER_GAS_MULTIPLIER","inputs":[],"outputs":[{"name":"","type":"uint256","internalType":"uint256"}],"stateMutability":"view"},{"type":"function","name":"PROOF_GAS_COST","inputs":[],"outputs":[{"name":"","type":"uint256","internalType":"uint256"}],"stateMutability":"view"},{"type":"function","name":"RELEASE_GAS_COST","inputs":[],"outputs":[{"name":"","type":"uint256","internalType":"uint256"}],"stateMutability":"view"},{"type":"function","name":"RESERVATION_LOCKUP_PERIOD","inputs":[],"outputs":[{"name":"","type":"uint256","internalType":"uint256"}],"stateMutability":"view"},{"type":"function","name":"SAMPLING_SIZE","inputs":[],"outputs":[{"name":"","type":"uint8","internalType":"uint8"}],"stateMutability":"view"},{"type":"function","name":"TOKEN_DECIMALS","inputs":[],"outputs":[{"name":"","type":"uint8","internalType":"uint8"}],"stateMutability":"view"},{"type":"function","name":"addBlock","inputs":[{"name":"safeBlockHeight","type":"uint256","internalType":"uint256"},{"name":"proposedBlockHeight","type":"uint256","internalType":"uint256"},{"name":"confirmationBlockHeight","type":"uint256","internalType":"uint256"},{"name":"blockHashes","type":"bytes32[]","internalType":"bytes32[]"},{"name":"proposedBlockIndex","type":"uint256","internalType":"uint256"}],"outputs":[],"stateMutability":"nonpayable"},{"type":"function","name":"buildProofPublicInputs","inputs":[{"name":"inputs","type":"tuple","internalType":"struct RiftExchange.ProofPublicInputs","components":[{"name":"natural_txid","type":"bytes32","internalType":"bytes32"},{"name":"lp_reservation_hash","type":"bytes32","internalType":"bytes32"},{"name":"order_nonce","type":"bytes32","internalType":"bytes32"},{"name":"expected_payout","type":"uint64","internalType":"uint64"},{"name":"lp_count","type":"uint64","internalType":"uint64"},{"name":"retarget_block_hash","type":"bytes32","internalType":"bytes32"},{"name":"safe_block_height","type":"uint64","internalType":"uint64"},{"name":"safe_block_height_delta","type":"uint64","internalType":"uint64"},{"name":"confirmation_block_height_delta","type":"uint64","internalType":"uint64"},{"name":"retarget_block_height","type":"uint64","internalType":"uint64"},{"name":"block_hashes","type":"bytes32[]","internalType":"bytes32[]"}]}],"outputs":[{"name":"","type":"bytes","internalType":"bytes"}],"stateMutability":"pure"},{"type":"function","name":"circuitVerificationKey","inputs":[],"outputs":[{"name":"","type":"bytes32","internalType":"bytes32"}],"stateMutability":"view"},{"type":"function","name":"currentConfirmationHeight","inputs":[],"outputs":[{"name":"","type":"uint256","internalType":"uint256"}],"stateMutability":"view"},{"type":"function","name":"currentHeight","inputs":[],"outputs":[{"name":"","type":"uint256","internalType":"uint256"}],"stateMutability":"view"},{"type":"function","name":"depositLiquidity","inputs":[{"name":"depositAmount","type":"uint256","internalType":"uint256"},{"name":"exchangeRate","type":"uint64","internalType":"uint64"},{"name":"btcPayoutLockingScript","type":"bytes22","internalType":"bytes22"},{"name":"vaultIndexToOverwrite","type":"int256","internalType":"int256"},{"name":"vaultIndexWithSameExchangeRate","type":"int256","internalType":"int256"}],"outputs":[],"stateMutability":"nonpayable"},{"type":"function","name":"depositVaults","inputs":[{"name":"","type":"uint256","internalType":"uint256"}],"outputs":[{"name":"initialBalance","type":"uint256","internalType":"uint256"},{"name":"unreservedBalance","type":"uint256","internalType":"uint256"},{"name":"withdrawnAmount","type":"uint256","internalType":"uint256"},{"name":"exchangeRate","type":"uint64","internalType":"uint64"},{"name":"btcPayoutLockingScript","type":"bytes22","internalType":"bytes22"}],"stateMutability":"view"},{"type":"function","name":"emptyDepositVault","inputs":[{"name":"vaultIndex","type":"uint256","internalType":"uint256"}],"outputs":[],"stateMutability":"nonpayable"},{"type":"function","name":"getBlockHash","inputs":[{"name":"blockHeight","type":"uint256","internalType":"uint256"}],"outputs":[{"name":"","type":"bytes32","internalType":"bytes32"}],"stateMutability":"view"},{"type":"function","name":"getDepositVault","inputs":[{"name":"depositIndex","type":"uint256","internalType":"uint256"}],"outputs":[{"name":"","type":"tuple","internalType":"struct RiftExchange.DepositVault","components":[{"name":"initialBalance","type":"uint256","internalType":"uint256"},{"name":"unreservedBalance","type":"uint256","internalType":"uint256"},{"name":"withdrawnAmount","type":"uint256","internalType":"uint256"},{"name":"exchangeRate","type":"uint64","internalType":"uint64"},{"name":"btcPayoutLockingScript","type":"bytes22","internalType":"bytes22"}]}],"stateMutability":"view"},{"type":"function","name":"getDepositVaultUnreservedBalance","inputs":[{"name":"depositIndex","type":"uint256","internalType":"uint256"}],"outputs":[{"name":"","type":"uint256","internalType":"uint256"}],"stateMutability":"view"},{"type":"function","name":"getDepositVaultsLength","inputs":[],"outputs":[{"name":"","type":"uint256","internalType":"uint256"}],"stateMutability":"view"},{"type":"function","name":"getLiquidityProvider","inputs":[{"name":"lpAddress","type":"address","internalType":"address"}],"outputs":[{"name":"","type":"tuple","internalType":"struct RiftExchange.LiquidityProvider","components":[{"name":"depositVaultIndexes","type":"uint256[]","internalType":"uint256[]"}]}],"stateMutability":"view"},{"type":"function","name":"getReservation","inputs":[{"name":"reservationIndex","type":"uint256","internalType":"uint256"}],"outputs":[{"name":"","type":"tuple","internalType":"struct RiftExchange.SwapReservation","components":[{"name":"confirmationBlockHeight","type":"uint32","internalType":"uint32"},{"name":"reservationTimestamp","type":"uint32","internalType":"uint32"},{"name":"unlockTimestamp","type":"uint32","internalType":"uint32"},{"name":"state","type":"uint8","internalType":"enum RiftExchange.ReservationState"},{"name":"ethPayoutAddress","type":"address","internalType":"address"},{"name":"lpReservationHash","type":"bytes32","internalType":"bytes32"},{"name":"nonce","type":"bytes32","internalType":"bytes32"},{"name":"totalSwapAmount","type":"uint256","internalType":"uint256"},{"name":"prepaidFeeAmount","type":"int256","internalType":"int256"},{"name":"proposedBlockHeight","type":"uint256","internalType":"uint256"},{"name":"proposedBlockHash","type":"bytes32","internalType":"bytes32"},{"name":"vaultIndexes","type":"uint256[]","internalType":"uint256[]"},{"name":"amountsToReserve","type":"uint192[]","internalType":"uint192[]"}]}],"stateMutability":"view"},{"type":"function","name":"getReservationLength","inputs":[],"outputs":[{"name":"","type":"uint256","internalType":"uint256"}],"stateMutability":"view"},{"type":"function","name":"owner","inputs":[],"outputs":[{"name":"","type":"address","internalType":"address"}],"stateMutability":"view"},{"type":"function","name":"proposeTransactionProof","inputs":[{"name":"swapReservationIndex","type":"uint256","internalType":"uint256"},{"name":"bitcoinTxId","type":"bytes32","internalType":"bytes32"},{"name":"safeBlockHeight","type":"uint32","internalType":"uint32"},{"name":"proposedBlockHeight","type":"uint64","internalType":"uint64"},{"name":"confirmationBlockHeight","type":"uint64","internalType":"uint64"},{"name":"blockHashes","type":"bytes32[]","internalType":"bytes32[]"},{"name":"proof","type":"bytes","internalType":"bytes"}],"outputs":[],"stateMutability":"nonpayable"},{"type":"function","name":"protocolFeeBP","inputs":[],"outputs":[{"name":"","type":"uint8","internalType":"uint8"}],"stateMutability":"view"},{"type":"function","name":"proverReward","inputs":[],"outputs":[{"name":"","type":"uint256","internalType":"uint256"}],"stateMutability":"view"},{"type":"function","name":"releaseLiquidity","inputs":[{"name":"swapReservationIndex","type":"uint256","internalType":"uint256"}],"outputs":[],"stateMutability":"nonpayable"},{"type":"function","name":"releaserReward","inputs":[],"outputs":[{"name":"","type":"uint256","internalType":"uint256"}],"stateMutability":"view"},{"type":"function","name":"reserveLiquidity","inputs":[{"name":"vaultIndexesToReserve","type":"uint256[]","internalType":"uint256[]"},{"name":"amountsToReserve","type":"uint192[]","internalType":"uint192[]"},{"name":"ethPayoutAddress","type":"address","internalType":"address"},{"name":"expiredSwapReservationIndexes","type":"uint256[]","internalType":"uint256[]"}],"outputs":[],"stateMutability":"nonpayable"},{"type":"function","name":"swapReservations","inputs":[{"name":"","type":"uint256","internalType":"uint256"}],"outputs":[{"name":"confirmationBlockHeight","type":"uint32","internalType":"uint32"},{"name":"reservationTimestamp","type":"uint32","internalType":"uint32"},{"name":"unlockTimestamp","type":"uint32","internalType":"uint32"},{"name":"state","type":"uint8","internalType":"enum RiftExchange.ReservationState"},{"name":"ethPayoutAddress","type":"address","internalType":"address"},{"name":"lpReservationHash","type":"bytes32","internalType":"bytes32"},{"name":"nonce","type":"bytes32","internalType":"bytes32"},{"name":"totalSwapAmount","type":"uint256","internalType":"uint256"},{"name":"prepaidFeeAmount","type":"int256","internalType":"int256"},{"name":"proposedBlockHeight","type":"uint256","internalType":"uint256"},{"name":"proposedBlockHash","type":"bytes32","internalType":"bytes32"}],"stateMutability":"view"},{"type":"function","name":"transferOwnership","inputs":[{"name":"newOwner","type":"address","internalType":"address"}],"outputs":[],"stateMutability":"nonpayable"},{"type":"function","name":"updateExchangeRate","inputs":[{"name":"globalVaultIndex","type":"uint256","internalType":"uint256"},{"name":"localVaultIndex","type":"uint256","internalType":"uint256"},{"name":"newexchangeRate","type":"uint64","internalType":"uint64"},{"name":"expiredReservationIndexes","type":"uint256[]","internalType":"uint256[]"}],"outputs":[],"stateMutability":"nonpayable"},{"type":"function","name":"updateProtocolAddress","inputs":[{"name":"newProtocolAddress","type":"address","internalType":"address payable"}],"outputs":[],"stateMutability":"nonpayable"},{"type":"function","name":"updateProtocolFee","inputs":[{"name":"newProtocolFeeBP","type":"uint8","internalType":"uint8"}],"outputs":[],"stateMutability":"nonpayable"},{"type":"function","name":"updateRewards","inputs":[{"name":"newProverReward","type":"uint256","internalType":"uint256"},{"name":"newReleaserReward","type":"uint256","internalType":"uint256"}],"outputs":[],"stateMutability":"nonpayable"},{"type":"function","name":"validateBlockExists","inputs":[{"name":"blockHeight","type":"uint256","internalType":"uint256"}],"outputs":[],"stateMutability":"view"},{"type":"function","name":"verifierContract","inputs":[],"outputs":[{"name":"","type":"address","internalType":"contract ISP1Verifier"}],"stateMutability":"view"},{"type":"function","name":"withdrawLiquidity","inputs":[{"name":"globalVaultIndex","type":"uint256","internalType":"uint256"},{"name":"localVaultIndex","type":"uint256","internalType":"uint256"},{"name":"amountToWithdraw","type":"uint192","internalType":"uint192"},{"name":"expiredReservationIndexes","type":"uint256[]","internalType":"uint256[]"}],"outputs":[],"stateMutability":"nonpayable"},{"type":"event","name":"LiquidityReserved","inputs":[{"name":"reserver","type":"address","indexed":true,"internalType":"address"},{"name":"swapReservationIndex","type":"uint256","indexed":false,"internalType":"uint256"},{"name":"orderNonce","type":"bytes32","indexed":false,"internalType":"bytes32"}],"anonymous":false},{"type":"event","name":"OwnershipTransferred","inputs":[{"name":"user","type":"address","indexed":true,"internalType":"address"},{"name":"newOwner","type":"address","indexed":true,"internalType":"address"}],"anonymous":false},{"type":"error","name":"BlockDoesNotExist","inputs":[]},{"type":"error","name":"InvaidSameExchangeRatevaultIndex","inputs":[]},{"type":"error","name":"InvalidConfirmationBlock","inputs":[]},{"type":"error","name":"InvalidProposedBlockOverwrite","inputs":[]},{"type":"error","name":"InvalidSafeBlock","inputs":[]},{"type":"error","name":"InvalidUpdateWithActiveReservations","inputs":[]},{"type":"error","name":"InvalidVaultIndex","inputs":[]},{"type":"error","name":"InvalidVaultUpdate","inputs":[]},{"type":"error","name":"NotEnoughLiquidity","inputs":[]},{"type":"error","name":"NotVaultOwner","inputs":[]},{"type":"error","name":"OverwrittenProposedBlock","inputs":[]},{"type":"error","name":"ReservationNotExpired","inputs":[]},{"type":"error","name":"ReservationNotUnlocked","inputs":[]},{"type":"error","name":"StillInChallengePeriod","inputs":[]},{"type":"error","name":"WithdrawalAmountError","inputs":[]},{"type":"error","name":"exchangeRateZero","inputs":[]}],"bytecode":{"object":"0x61010060405260038054600560a11b60ff60a01b19909116179055600980546001600160a01b03191673f39fd6e51aad88f6f4ce6ab8827279cfffb9226617905534801561004c57600080fd5b506040516137af3803806137af83398101604081905261006b91610367565b60018a905560008a81526020819052604081208a905582908b908b908b9081908061009586610234565b6001600160401b0316815260208101919091526040908101600090812092909255600380546001600160a01b0319166001600160a01b03881690811790915590519094509092507f8be0079c531659141344cd1fd0a4f28419497f9722a3daafe3b4186f6b6457e091508290a35060e08190526001600160a01b0380881660c052861660805260408051808201909152600f81526e02222a827a9a4aa2faa27a5a2a71d1608d1b602082015261014a90610252565b6080516101569061029c565b6080516001600160a01b031663313ce5676040518163ffffffff1660e01b8152600401602060405180830381865afa158015610196573d6000803e3d6000fd5b505050506040513d601f19601f820116820180604052508101906101ba919061040d565b60ff1660a05260408051808201909152601081526f02a27a5a2a72fa222a1a4a6a0a6299d160851b60208201526101f090610252565b60a0516101ff9060ff166102e8565b5050600492909255600555600980546001600160a01b0319166001600160a01b03909216919091179055506104ef9350505050565b60006102426107e083610437565b61024c9083610474565b92915050565b6102998160405160240161026691906104a1565b60408051601f198184030181529190526020810180516001600160e01b0390811663104c13eb60e21b1790915261033116565b50565b6040516001600160a01b03821660248201526102999060440160408051601f198184030181529190526020810180516001600160e01b0390811663161765e160e11b1790915261033116565b610299816040516024016102fe91815260200190565b60408051601f198184030181529190526020810180516001600160e01b0390811663f5b1bba960e01b1790915261033116565b80516a636f6e736f6c652e6c6f67602083016000808483855afa5050505050565b6001600160a01b038116811461029957600080fd5b6000806000806000806000806000806101408b8d03121561038757600080fd5b8a5160208c015160408d015160608e0151929c50909a5098506103a981610352565b60808c01519097506103ba81610352565b60a08c015160c08d015160e08e015192985090965094506103da81610352565b6101008c01519093506103ec81610352565b8092505060006101208c01519050809150509295989b9194979a5092959850565b60006020828403121561041f57600080fd5b815160ff8116811461043057600080fd5b9392505050565b60006001600160401b0383168061045e57634e487b7160e01b600052601260045260246000fd5b6001600160401b03929092169190910692915050565b6001600160401b03828116828216039081111561024c57634e487b7160e01b600052601160045260246000fd5b602081526000825180602084015260005b818110156104cf57602081860181015160408684010152016104b2565b506000604082850101526040601f19601f83011684010191505092915050565b60805160a05160c05160e0516132486105676000396000818161034b0152611c9d0152600081816105760152611c70015260006103be01526000818161026701528181610e9301528181610f7101528181611615015281816119da01528181611acc01528181611d77015261204f01526132486000f3fe608060405234801561001057600080fd5b50600436106102485760003560e01c80638da5cb5b1161013b578063c5fba0b8116100b8578063eb6c75221161007c578063eb6c7522146105e0578063ed8b2b32146105ea578063ee82ac5e146105fd578063f2fde38b1461061d578063fba781661461063057600080fd5b8063c5fba0b81461055d578063cf69568814610571578063d57763c314610598578063e118f0e6146105b8578063ea6fe03e146105d857600080fd5b80639cc7eab9116100ff5780639cc7eab9146105155780639cdb8e5a1461051e578063ad062e5514610539578063aeacb2e714610541578063c3a079ed1461055457600080fd5b80638da5cb5b146104b25780638f805ac9146104c557806397e50818146104d857806398f9e757146104eb5780639a64279c1461050b57600080fd5b806358e2b676116101c95780636b994abb1161018d5780636b994abb1461045b5780636dcc17c814610485578063778919071461048e5780637dce5550146104a157806389a11f7a146104a957600080fd5b806358e2b676146103a65780635b7f415c146103b95780635f4d0610146103f25780635f5d5b6a146104405780636512d0571461044857600080fd5b80632d908c02116102105780632d908c02146103335780633d7b22b314610346578063490d4c5f1461036d57806351a7f1cd1461038057806356fe6f861461039357600080fd5b80630a7aa2931461024d57806313f6658714610262578063163de0c5146102a6578063276d080e146102bd5780632d312a4a14610320575b600080fd5b61026061025b366004612699565b610639565b005b6102897f000000000000000000000000000000000000000000000000000000000000000081565b6040516001600160a01b0390911681526020015b60405180910390f35b6102af60015481565b60405190815260200161029d565b6102d06102cb3660046126c3565b61068c565b60405161029d91908151815260208083015190820152604080830151908201526060808301516001600160401b0316908201526080918201516001600160501b0319169181019190915260a00190565b61026061032e366004612817565b610735565b61026061034136600461291a565b61107b565b6102af7f000000000000000000000000000000000000000000000000000000000000000081565b61026061037b3660046126c3565b611271565b61026061038e366004612992565b6112b5565b6102606103a13660046129ef565b61168b565b6102606103b4366004612a1c565b61177d565b6103e07f000000000000000000000000000000000000000000000000000000000000000081565b60405160ff909116815260200161029d565b6104056104003660046126c3565b6117c9565b604080519586526020860194909452928401919091526001600160401b031660608301526001600160501b031916608082015260a00161029d565b6102af600281565b6102af6104563660046126c3565b611818565b61046e6104693660046126c3565b611846565b60405161029d9b9a99989796959493929190612a71565b6102af60045481565b61026061049c3660046126c3565b6118c8565b6008546102af565b6102af61708081565b600354610289906001600160a01b031681565b6102606104d3366004612b4f565b611b51565b6102606104e6366004612c06565b611e4e565b6104fe6104f9366004612a1c565b611e83565b60405161029d9190612c64565b6102af6203345081565b6102af60055481565b610526603281565b60405161ffff909116815260200161029d565b6103e0600a81565b61026061054f366004612c87565b611f06565b6102af61025881565b6003546103e090600160a01b900460ff1681565b6102897f000000000000000000000000000000000000000000000000000000000000000081565b6105ab6105a63660046126c3565b612086565b60405161029d9190612cef565b6105cb6105c6366004612de2565b6122b3565b60405161029d9190612f36565b6007546102af565b6102af620668a081565b6102606105f83660046126c3565b6122dc565b6102af61060b3660046126c3565b60009081526020819052604090205490565b61026061062b366004612a1c565b61230b565b6102af60025481565b6003546001600160a01b0316331461066c5760405162461bcd60e51b815260040161066390612f49565b60405180910390fd5b6003805460ff909216600160a01b0260ff60a01b19909216919091179055565b6040805160a081018252600080825260208201819052918101829052606081018290526080810191909152600882815481106106ca576106ca612f6f565b60009182526020918290206040805160a0810182526004909302909101805483526001810154938301939093526002830154908201526003909101546001600160401b03811660608301526001600160501b0319600160401b90910460501b16608082015292915050565b6000805b845181101561077a5784818151811061075457610754612f6f565b60200260200101516001600160c01b0316826107709190612f9b565b9150600101610739565b506107ba6040518060400160405280601a81526020017f636f6d62696e6564416d6f756e7473546f526573657276653a2000000000000081525082612381565b60006107d0670de0b6b3a7640000612710612fae565b600354600160a01b900460ff166107ef670de0b6b3a764000085612fae565b6107f99190612fae565b6108039190612fdb565b90506108346040518060400160405280600d81526020016c0383937ba37b1b7b62332b29d1609d1b81525082612381565b60045460408051808201909152600b81526a0383937bb32b92332b29d160ad1b60208201526108639082612381565b60055460408051808201909152600d81526c03932b632b0b9b2b92332b29d1609d1b60208201526108949082612381565b61089d856123ca565b6108a685612455565b6000805b8951811015610a8e5760028982815181106108c7576108c7612f6f565b602002602001015160088c84815181106108e3576108e3612f6f565b6020026020010151815481106108fb576108fb612f6f565b906000526020600020906004020160030160009054906101000a90046001600160401b031660088d858151811061093457610934612f6f565b60200260200101518154811061094c5761094c612f6f565b600091825260209182902060036004909202010154604080516001600160c01b03909516928501929092526001600160401b03909216908301526001600160501b0319600160401b90910460501b1660608201526080810184905260a00160408051601f19818403018152908290526109c491612fef565b602060405180830381855afa1580156109e1573d6000803e3d6000fd5b5050506040513d601f19601f82011682018060405250810190610a04919061300b565b915060088a8281518110610a1a57610a1a612f6f565b602002602001015181548110610a3257610a32612f6f565b906000526020600020906004020160010154898281518110610a5657610a56612f6f565b60200260200101516001600160c01b03161115610a8657604051634323a55560e01b815260040160405180910390fd5b6001016108aa565b50855115610bcd576000600787600081518110610aad57610aad612f6f565b602002602001015181548110610ac557610ac5612f6f565b60009182526020909120600a9091020180546001820180546001600160a01b0319166001600160a01b038c16179055600160601b6cffffffffffffffffff00000000199091166401000000004263ffffffff16026bffffffff00000000000000001916171781559050610b388385612f9b565b600582015560048101869055600754604080516001600160a01b038b16602082015242918101919091524660608201526080810184905260a081019190915260c00160408051601f19818403018152919052805160209182012060038301558a51610bab916008840191908d01906125e4565b508851610bc190600983019060208c019061262f565b50600201819055610e00565b604080516101a08101825260008082524263ffffffff1660208301529181019190915260079060608101600181526001600160a01b038a16602080830182905260408084018790526007548151928301939093524290820152466060828101919091526080820187905260a082019290925291019060c0016040516020818303038152906040528051906020012081526020018781526020018486610c729190612f9b565b8152602001600081526020016000801b81526020018b81526020018a81525090806001815401808255809150506001900390600052602060002090600a020160009091909190915060008201518160000160006101000a81548163ffffffff021916908363ffffffff16021790555060208201518160000160046101000a81548163ffffffff021916908363ffffffff16021790555060408201518160000160086101000a81548163ffffffff021916908363ffffffff160217905550606082015181600001600c6101000a81548160ff02191690836004811115610d5957610d59612a39565b021790555060808201516001820180546001600160a01b0319166001600160a01b0390921691909117905560a0820151600282015560c0820151600382015560e082015160048201556101008201516005820155610120820151600682015561014082015160078201556101608201518051610ddf9160088401916020909101906125e4565b506101808201518051610dfc91600984019160209091019061262f565b5050505b60005b8951811015610e8857888181518110610e1e57610e1e612f6f565b60200260200101516001600160c01b031660088b8381518110610e4357610e43612f6f565b602002602001015181548110610e5b57610e5b612f6f565b90600052602060002090600402016001016000828254610e7b9190613024565b9091555050600101610e03565b506001600160a01b037f0000000000000000000000000000000000000000000000000000000000000000166323b872dd333085610ec58989612f9b565b610ecf9190612f9b565b6040516001600160e01b031960e086901b1681526001600160a01b03938416600482015292909116602483015260448201526064016020604051808303816000875af1158015610f23573d6000803e3d6000fd5b505050506040513d601f19601f82011682018060405250810190610f479190613037565b5060095460405163a9059cbb60e01b81526001600160a01b039182166004820152602481018690527f00000000000000000000000000000000000000000000000000000000000000009091169063a9059cbb906044016020604051808303816000875af1158015610fbc573d6000803e3d6000fd5b505050506040513d601f19601f82011682018060405250810190610fe09190613037565b50337f5956135c9be999a50f7ff4ea49ddf1485bc321ab333dc7a0877633eeb4752893600161100e60075490565b6110189190613024565b6007600161102560075490565b61102f9190613024565b8154811061103f5761103f612f6f565b90600052602060002090600a020160030154604051611068929190918252602082015260400190565b60405180910390a2505050505050505050565b600154600561108a8686613024565b10156110e557600084815260208190526040902054835184906110af90600190613024565b815181106110bf576110bf612f6f565b6020026020010151146110e5576040516341305f6360e01b815260040160405180910390fd5b808611156111065760405163575f3da360e01b815260040160405180910390fd5b82828151811061111857611118612f6f565b6020026020010151600080878152602001908152602001600020540361113e575061126a565b6000858152602081905260409020541580159061115d57508360025410155b1561117b576040516371e98f3d60e11b815260040160405180910390fd5b8085111561121f578086036111bf5782828151811061119c5761119c612f6f565b602002602001015160008087815260200190815260200160002081905550611258565b8086101561121a57855b85811161121857836111db8883613024565b815181106111eb576111eb612f6f565b6020908102919091018101516000838152918290526040909120558061121081613059565b9150506111c9565b505b611258565b808510156112585782828151811061123957611239612f6f565b6020026020010151600080878152602001908152602001600020819055505b6001548511156112685760018590555b505b5050505050565b60006008828154811061128657611286612f6f565b600091825260208220600490910201818155600181019190915560030180546001600160f01b03191690555050565b6112e66040518060400160405280601081526020016f6465706f7369744c697175696469747960801b815250612562565b6113176040518060400160405280600f81526020016e02232b837b9b4ba20b6b7bab73a1d1608d1b81525086612381565b836001600160401b031660000361134157604051635c4ad48d60e11b815260040160405180910390fd5b33600090815260066020526040812054900361138f5760408051600060208083018281528385018552835233825260068152929020815180519293919261138b92849201906125e4565b5050505b806000191461141b5760008190506000600882815481106113b2576113b2612f6f565b6000918252602090912060049091020160038101549091506001600160401b038781169116036113fb57868160010160008282546113f09190612f9b565b909155506114149050565b60405163927ce9e760e01b815260040160405180910390fd5b50506115bf565b81600019146114ae5760006008838154811061143957611439612f6f565b90600052602060002090600402019050806001015460001461146e5760405163721e09df60e01b815260040160405180910390fd5b85815560018101869055600060028201556003018054605085901c600160401b026001600160f01b03199091166001600160401b038716171790556115bf565b6040805160a0810182528681526020810187815260009282018381526001600160401b03808916606085019081526001600160501b0319891660808601908152600880546001810182559752945160049096027ff3f7a9fe364faab93b216da50a3214154f22a0a2b415b23a84c8169e8b636ee381019690965592517ff3f7a9fe364faab93b216da50a3214154f22a0a2b415b23a84c8169e8b636ee486015590517ff3f7a9fe364faab93b216da50a3214154f22a0a2b415b23a84c8169e8b636ee585015590517ff3f7a9fe364faab93b216da50a3214154f22a0a2b415b23a84c8169e8b636ee69093018054925160501c600160401b026001600160f01b031990931693909116929092171790555b3360009081526006602052604090206008546115dd90600190613024565b815460018101835560009283526020909220909101556040516323b872dd60e01b8152336004820152306024820152604481018690527f00000000000000000000000000000000000000000000000000000000000000006001600160a01b0316906323b872dd906064015b6020604051808303816000875af1158015611667573d6000803e3d6000fd5b505050506040513d601f19601f820116820180604052508101906112689190613037565b3360009081526006602052604090208054859190859081106116af576116af612f6f565b9060005260206000200154146116d857604051630e7fea9d60e01b815260040160405180910390fd5b816001600160401b031660000361170257604051636e5a187760e11b815260040160405180910390fd5b60006008858154811061171757611717612f6f565b9060005260206000209060040201905061173082612455565b8054600182015414611755576040516391bc6cc360e01b815260040160405180910390fd5b600301805467ffffffffffffffff19166001600160401b039390931692909217909155505050565b6003546001600160a01b031633146117a75760405162461bcd60e51b815260040161066390612f49565b600980546001600160a01b0319166001600160a01b0392909216919091179055565b600881815481106117d957600080fd5b6000918252602090912060049091020180546001820154600283015460039093015491935091906001600160401b03811690600160401b900460501b85565b60006008828154811061182d5761182d612f6f565b9060005260206000209060040201600101549050919050565b6007818154811061185657600080fd5b60009182526020909120600a90910201805460018201546002830154600384015460048501546005860154600687015460079097015463ffffffff80881699506401000000008804811698600160401b890490911697600160601b900460ff16966001600160a01b031695949392918b565b6000600782815481106118dd576118dd612f6f565b60009182526020909120600a90910201905060028154600160601b900460ff16600481111561190e5761190e612a39565b1461192c5760405163b38c767b60e01b815260040160405180910390fd5b80546102589061194990600160401b900463ffffffff1642613024565b101561196857604051632d5c37f560e21b815260040160405180910390fd5b600781015460068201546000908152602081905260409020540361199f5760405163c1f6fa5160e01b815260040160405180910390fd5b60006119ae4862033450612fae565b6005546119bb9190612f9b565b60405163a9059cbb60e01b8152336004820152602481018290529091507f00000000000000000000000000000000000000000000000000000000000000006001600160a01b03169063a9059cbb906044016020604051808303816000875af1158015611a2b573d6000803e3d6000fd5b505050506040513d601f19601f82011682018060405250810190611a4f9190613037565b5080826005016000828254611a649190613072565b9091555050600582015460001315611a9b578160050154826004016000828254611a8e9190612f9b565b9091555050600060058301555b600182015460048084015460405163a9059cbb60e01b81526001600160a01b039384169281019290925260248201527f00000000000000000000000000000000000000000000000000000000000000009091169063a9059cbb906044016020604051808303816000875af1158015611b17573d6000803e3d6000fd5b505050506040513d601f19601f82011682018060405250810190611b3b9190613037565b5050805460ff60601b1916600160621b17905550565b600060078881548110611b6657611b66612f6f565b90600052602060002090600a020190506000611c566040518061016001604052808a8152602001846002015481526020018460030154815260200184600401546001600160401b0316815260200184600801805490506001600160401b03168152602001611bf1611bd68a6125a5565b6001600160401b031660009081526020819052604090205490565b815263ffffffff8a1660208201819052604090910190611c11908a613099565b6001600160401b03168152602001611c298989613099565b6001600160401b03168152602001611c40896125a5565b6001600160401b031681526020018690526122b3565b60405163020a49e360e51b81529091506001600160a01b037f000000000000000000000000000000000000000000000000000000000000000016906341493c6090611cc9907f000000000000000000000000000000000000000000000000000000000000000090859088906004016130b8565b60006040518083038186803b158015611ce157600080fd5b505afa158015611cf5573d6000803e3d6000fd5b50611d2b9250505063ffffffff88166001600160401b0388811690881687611d1d848c613099565b6001600160401b031661107b565b815460ff60601b1916600160611b1782556000611d4b48620668a0612fae565b600454611d589190612f9b565b60405163a9059cbb60e01b8152336004820152602481018290529091507f00000000000000000000000000000000000000000000000000000000000000006001600160a01b03169063a9059cbb906044016020604051808303816000875af1158015611dc8573d6000803e3d6000fd5b505050506040513d601f19601f82011682018060405250810190611dec9190613037565b50611e1063ffffffff89166001600160401b03808a1690891688611d1d848d613099565b600083600501541215611e42578260050154836004016000828254611e359190612f9b565b9091555050600060058401555b50505050505050505050565b6003546001600160a01b03163314611e785760405162461bcd60e51b815260040161066390612f49565b600491909155600555565b6040805160208082018352606082526001600160a01b03841660009081526006825283902083518154808402820186018652928101838152939490939192849291849190840182828015611ef657602002820191906000526020600020905b815481526020019060010190808311611ee2575b5050505050815250509050919050565b336000908152600660205260409020805485919085908110611f2a57611f2a612f6f565b906000526020600020015414611f5357604051630e7fea9d60e01b815260040160405180910390fd5b611f5c81612455565b6008548410611f7e5760405163721e09df60e01b815260040160405180910390fd5b600060088581548110611f9357611f93612f6f565b90600052602060002090600402019050826001600160c01b031660001480611fc757508060010154836001600160c01b0316115b15611fe55760405163b4e3d41360e01b815260040160405180910390fd5b826001600160c01b03168160010160008282546120029190613024565b92505081905550826001600160c01b03168160020160008282546120269190612f9b565b909155505060405163a9059cbb60e01b81523360048201526001600160c01b03841660248201527f00000000000000000000000000000000000000000000000000000000000000006001600160a01b03169063a9059cbb90604401611648565b604080516101a08101825260008082526020820181905291810182905260608082018390526080820183905260a0820183905260c0820183905260e082018390526101008201839052610120820183905261014082019290925261016081018290526101808101919091526007828154811061210457612104612f6f565b6000918252602091829020604080516101a081018252600a909302909101805463ffffffff80821685526401000000008204811695850195909552600160401b8104909416918301919091529091606083019060ff600160601b90910416600481111561217357612173612a39565b600481111561218457612184612a39565b81526020016001820160009054906101000a90046001600160a01b03166001600160a01b03166001600160a01b031681526020016002820154815260200160038201548152602001600482015481526020016005820154815260200160068201548152602001600782015481526020016008820180548060200260200160405190810160405280929190818152602001828054801561224257602002820191906000526020600020905b81548152602001906001019080831161222e575b5050505050815260200160098201805480602002602001604051908101604052809291908181526020018280548015611ef657602002820191906000526020600020905b81546001600160c01b03168152600190910190602001808311612286575050505050815250509050919050565b6060816040516020016122c691906130ed565b6040516020818303038152906040529050919050565b6000818152602081905260409020546123085760405163fa4a5e4560e01b815260040160405180910390fd5b50565b6003546001600160a01b031633146123355760405162461bcd60e51b815260040161066390612f49565b600380546001600160a01b0319166001600160a01b03831690811790915560405133907f8be0079c531659141344cd1fd0a4f28419497f9722a3daafe3b4186f6b6457e090600090a350565b6123c682826040516024016123979291906131c2565b60408051601f198184030181529190526020810180516001600160e01b03166309710a9d60e41b1790526125c3565b5050565b60005b81518110156123c65761708060078383815181106123ed576123ed612f6f565b60200260200101518154811061240557612405612f6f565b60009182526020909120600a909102015461242e90640100000000900463ffffffff1642613024565b101561244d576040516326349d6b60e01b815260040160405180910390fd5b6001016123cd565b60005b81518110156123c65761246a826123ca565b6000600783838151811061248057612480612f6f565b60200260200101518154811061249857612498612f6f565b90600052602060002090600a0201905060005b600882015481101561254857600060088360080183815481106124d0576124d0612f6f565b9060005260206000200154815481106124eb576124eb612f6f565b9060005260206000209060040201905082600901828154811061251057612510612f6f565b60009182526020822001546001830180546001600160c01b0390921692909161253a908490612f9b565b9091555050506001016124ab565b50805460ff60601b1916600360601b179055600101612458565b612308816040516024016125769190612f36565b60408051601f198184030181529190526020810180516001600160e01b031663104c13eb60e21b1790526125c3565b60006125b36107e0836131e4565b6125bd9083613099565b92915050565b80516a636f6e736f6c652e6c6f67602083016000808483855afa5050505050565b82805482825590600052602060002090810192821561261f579160200282015b8281111561261f578251825591602001919060010190612604565b5061262b929150612684565b5090565b82805482825590600052602060002090810192821561261f579160200282015b8281111561261f57825182546001600160c01b0319166001600160c01b0390911617825560209092019160019091019061264f565b5b8082111561262b5760008155600101612685565b6000602082840312156126ab57600080fd5b813560ff811681146126bc57600080fd5b9392505050565b6000602082840312156126d557600080fd5b5035919050565b634e487b7160e01b600052604160045260246000fd5b60405161016081016001600160401b0381118282101715612715576127156126dc565b60405290565b604051601f8201601f191681016001600160401b0381118282101715612743576127436126dc565b604052919050565b60006001600160401b03821115612764576127646126dc565b5060051b60200190565b600082601f83011261277f57600080fd5b813561279261278d8261274b565b61271b565b8082825260208201915060208360051b8601019250858311156127b457600080fd5b602085015b838110156127d15780358352602092830192016127b9565b5095945050505050565b80356001600160c01b03811681146127f257600080fd5b919050565b6001600160a01b038116811461230857600080fd5b80356127f2816127f7565b6000806000806080858703121561282d57600080fd5b84356001600160401b0381111561284357600080fd5b61284f8782880161276e565b94505060208501356001600160401b0381111561286b57600080fd5b8501601f8101871361287c57600080fd5b803561288a61278d8261274b565b8082825260208201915060208360051b8501019250898311156128ac57600080fd5b6020840193505b828410156128d5576128c4846127db565b8252602093840193909101906128b3565b95506128e7925050506040860161280c565b915060608501356001600160401b0381111561290257600080fd5b61290e8782880161276e565b91505092959194509250565b600080600080600060a0868803121561293257600080fd5b85359450602086013593506040860135925060608601356001600160401b0381111561295d57600080fd5b6129698882890161276e565b95989497509295608001359392505050565b80356001600160401b03811681146127f257600080fd5b600080600080600060a086880312156129aa57600080fd5b853594506129ba6020870161297b565b935060408601356001600160501b0319811681146129d757600080fd5b94979396509394606081013594506080013592915050565b60008060008060808587031215612a0557600080fd5b84359350602085013592506128e76040860161297b565b600060208284031215612a2e57600080fd5b81356126bc816127f7565b634e487b7160e01b600052602160045260246000fd5b60058110612a6d57634e487b7160e01b600052602160045260246000fd5b9052565b63ffffffff8c811682528b811660208301528a1660408201526101608101612a9c606083018b612a4f565b6001600160a01b0398909816608082015260a081019690965260c086019490945260e085019290925261010084015261012083015261014090910152949350505050565b600082601f830112612af157600080fd5b81356001600160401b03811115612b0a57612b0a6126dc565b612b1d601f8201601f191660200161271b565b818152846020838601011115612b3257600080fd5b816020850160208301376000918101602001919091529392505050565b600080600080600080600060e0888a031215612b6a57600080fd5b8735965060208801359550604088013563ffffffff81168114612b8c57600080fd5b9450612b9a6060890161297b565b9350612ba86080890161297b565b925060a08801356001600160401b03811115612bc357600080fd5b612bcf8a828b0161276e565b92505060c08801356001600160401b03811115612beb57600080fd5b612bf78a828b01612ae0565b91505092959891949750929550565b60008060408385031215612c1957600080fd5b50508035926020909101359150565b600081518084526020840193506020830160005b82811015612c5a578151865260209586019590910190600101612c3c565b5093949350505050565b6020815260008251602080840152612c7f6040840182612c28565b949350505050565b60008060008060808587031215612c9d57600080fd5b84359350602085013592506128e7604086016127db565b600081518084526020840193506020830160005b82811015612c5a5781516001600160c01b0316865260209586019590910190600101612cc8565b60208152612d0660208201835163ffffffff169052565b60006020830151612d1f604084018263ffffffff169052565b50604083015163ffffffff81166060840152506060830151612d446080840182612a4f565b5060808301516001600160a01b03811660a08401525060a083015160c083015260c083015160e083015260e08301516101008301526101008301516101208301526101208301516101408301526101408301516101608301526101608301516101a0610180840152612dba6101c0840182612c28565b9050610180840151601f19848303016101a0850152612dd98282612cb4565b95945050505050565b600060208284031215612df457600080fd5b81356001600160401b03811115612e0a57600080fd5b82016101608185031215612e1d57600080fd5b612e256126f2565b813581526020808301359082015260408083013590820152612e496060830161297b565b6060820152612e5a6080830161297b565b608082015260a08281013590820152612e7560c0830161297b565b60c0820152612e8660e0830161297b565b60e0820152612e98610100830161297b565b610100820152612eab610120830161297b565b6101208201526101408201356001600160401b03811115612ecb57600080fd5b612ed78682850161276e565b61014083015250949350505050565b60005b83811015612f01578181015183820152602001612ee9565b50506000910152565b60008151808452612f22816020860160208601612ee6565b601f01601f19169290920160200192915050565b6020815260006126bc6020830184612f0a565b6020808252600c908201526b15539055551213d49256915160a21b604082015260600190565b634e487b7160e01b600052603260045260246000fd5b634e487b7160e01b600052601160045260246000fd5b808201808211156125bd576125bd612f85565b80820281158282048414176125bd576125bd612f85565b634e487b7160e01b600052601260045260246000fd5b600082612fea57612fea612fc5565b500490565b60008251613001818460208701612ee6565b9190910192915050565b60006020828403121561301d57600080fd5b5051919050565b818103818111156125bd576125bd612f85565b60006020828403121561304957600080fd5b815180151581146126bc57600080fd5b60006001820161306b5761306b612f85565b5060010190565b818103600083128015838313168383128216171561309257613092612f85565b5092915050565b6001600160401b0382811682821603908111156125bd576125bd612f85565b8381526060602082015260006130d16060830185612f0a565b82810360408401526130e38185612f0a565b9695505050505050565b602081528151602082015260208201516040820152604082015160608201526000606083015161312860808401826001600160401b03169052565b5060808301516001600160401b03811660a08401525060a083015160c083015260c083015161316260e08401826001600160401b03169052565b5060e08301516001600160401b038116610100840152506101008301516001600160401b038116610120840152506101208301516001600160401b0381166101408401525061014083015161016080840152612c7f610180840182612c28565b6040815260006131d56040830185612f0a565b90508260208301529392505050565b60006001600160401b038316806131fd576131fd612fc5565b806001600160401b038416069150509291505056fea26469706673582212203b67716d2d1c421d964405c37248a79cb9a1a00b055b6b1d8c352bc7d170b30f64736f6c634300081a0033","linkReferences":{}},"methodIdentifiers":{"CHALLENGE_PERIOD()":"c3a079ed","DEPOSIT_TOKEN()":"13f66587","MAX_DEPOSIT_OUTPUTS()":"9cdb8e5a","MIN_ORDER_GAS_MULTIPLIER()":"5f5d5b6a","PROOF_GAS_COST()":"eb6c7522","RELEASE_GAS_COST()":"9a64279c","RESERVATION_LOCKUP_PERIOD()":"89a11f7a","SAMPLING_SIZE()":"ad062e55","TOKEN_DECIMALS()":"5b7f415c","addBlock(uint256,uint256,uint256,bytes32[],uint256)":"2d908c02","buildProofPublicInputs((bytes32,bytes32,bytes32,uint64,uint64,bytes32,uint64,uint64,uint64,uint64,bytes32[]))":"e118f0e6","circuitVerificationKey()":"3d7b22b3","currentConfirmationHeight()":"fba78166","currentHeight()":"163de0c5","depositLiquidity(uint256,uint64,bytes22,int256,int256)":"51a7f1cd","depositVaults(uint256)":"5f4d0610","emptyDepositVault(uint256)":"490d4c5f","getBlockHash(uint256)":"ee82ac5e","getDepositVault(uint256)":"276d080e","getDepositVaultUnreservedBalance(uint256)":"6512d057","getDepositVaultsLength()":"7dce5550","getLiquidityProvider(address)":"98f9e757","getReservation(uint256)":"d57763c3","getReservationLength()":"ea6fe03e","owner()":"8da5cb5b","proposeTransactionProof(uint256,bytes32,uint32,uint64,uint64,bytes32[],bytes)":"8f805ac9","protocolFeeBP()":"c5fba0b8","proverReward()":"6dcc17c8","releaseLiquidity(uint256)":"77891907","releaserReward()":"9cc7eab9","reserveLiquidity(uint256[],uint192[],address,uint256[])":"2d312a4a","swapReservations(uint256)":"6b994abb","transferOwnership(address)":"f2fde38b","updateExchangeRate(uint256,uint256,uint64,uint256[])":"56fe6f86","updateProtocolAddress(address)":"58e2b676","updateProtocolFee(uint8)":"0a7aa293","updateRewards(uint256,uint256)":"97e50818","validateBlockExists(uint256)":"ed8b2b32","verifierContract()":"cf695688","withdrawLiquidity(uint256,uint256,uint192,uint256[])":"aeacb2e7"},"storageLayout":{"storage":[{"astId":43357,"contract":"src/RiftExchange.sol:RiftExchange","label":"blockchain","offset":0,"slot":"0","type":"t_mapping(t_uint256,t_bytes32)"},{"astId":43359,"contract":"src/RiftExchange.sol:RiftExchange","label":"currentHeight","offset":0,"slot":"1","type":"t_uint256"},{"astId":43361,"contract":"src/RiftExchange.sol:RiftExchange","label":"currentConfirmationHeight","offset":0,"slot":"2","type":"t_uint256"},{"astId":43047,"contract":"src/RiftExchange.sol:RiftExchange","label":"owner","offset":0,"slot":"3","type":"t_address"},{"astId":44082,"contract":"src/RiftExchange.sol:RiftExchange","label":"protocolFeeBP","offset":20,"slot":"3","type":"t_uint8"},{"astId":44084,"contract":"src/RiftExchange.sol:RiftExchange","label":"proverReward","offset":0,"slot":"4","type":"t_uint256"},{"astId":44086,"contract":"src/RiftExchange.sol:RiftExchange","label":"releaserReward","offset":0,"slot":"5","type":"t_uint256"},{"astId":44155,"contract":"src/RiftExchange.sol:RiftExchange","label":"liquidityProviders","offset":0,"slot":"6","type":"t_mapping(t_address,t_struct(LiquidityProvider)44103_storage)"},{"astId":44159,"contract":"src/RiftExchange.sol:RiftExchange","label":"swapReservations","offset":0,"slot":"7","type":"t_array(t_struct(SwapReservation)44150_storage)dyn_storage"},{"astId":44163,"contract":"src/RiftExchange.sol:RiftExchange","label":"depositVaults","offset":0,"slot":"8","type":"t_array(t_struct(DepositVault)44114_storage)dyn_storage"},{"astId":44174,"contract":"src/RiftExchange.sol:RiftExchange","label":"protocolAddress","offset":0,"slot":"9","type":"t_address_payable"}],"types":{"t_address":{"encoding":"inplace","label":"address","numberOfBytes":"20"},"t_address_payable":{"encoding":"inplace","label":"address payable","numberOfBytes":"20"},"t_array(t_struct(DepositVault)44114_storage)dyn_storage":{"encoding":"dynamic_array","label":"struct RiftExchange.DepositVault[]","numberOfBytes":"32","base":"t_struct(DepositVault)44114_storage"},"t_array(t_struct(SwapReservation)44150_storage)dyn_storage":{"encoding":"dynamic_array","label":"struct RiftExchange.SwapReservation[]","numberOfBytes":"32","base":"t_struct(SwapReservation)44150_storage"},"t_array(t_uint192)dyn_storage":{"encoding":"dynamic_array","label":"uint192[]","numberOfBytes":"32","base":"t_uint192"},"t_array(t_uint256)dyn_storage":{"encoding":"dynamic_array","label":"uint256[]","numberOfBytes":"32","base":"t_uint256"},"t_bytes22":{"encoding":"inplace","label":"bytes22","numberOfBytes":"22"},"t_bytes32":{"encoding":"inplace","label":"bytes32","numberOfBytes":"32"},"t_enum(ReservationState)44120":{"encoding":"inplace","label":"enum RiftExchange.ReservationState","numberOfBytes":"1"},"t_int256":{"encoding":"inplace","label":"int256","numberOfBytes":"32"},"t_mapping(t_address,t_struct(LiquidityProvider)44103_storage)":{"encoding":"mapping","key":"t_address","label":"mapping(address => struct RiftExchange.LiquidityProvider)","numberOfBytes":"32","value":"t_struct(LiquidityProvider)44103_storage"},"t_mapping(t_uint256,t_bytes32)":{"encoding":"mapping","key":"t_uint256","label":"mapping(uint256 => bytes32)","numberOfBytes":"32","value":"t_bytes32"},"t_struct(DepositVault)44114_storage":{"encoding":"inplace","label":"struct RiftExchange.DepositVault","numberOfBytes":"128","members":[{"astId":44105,"contract":"src/RiftExchange.sol:RiftExchange","label":"initialBalance","offset":0,"slot":"0","type":"t_uint256"},{"astId":44107,"contract":"src/RiftExchange.sol:RiftExchange","label":"unreservedBalance","offset":0,"slot":"1","type":"t_uint256"},{"astId":44109,"contract":"src/RiftExchange.sol:RiftExchange","label":"withdrawnAmount","offset":0,"slot":"2","type":"t_uint256"},{"astId":44111,"contract":"src/RiftExchange.sol:RiftExchange","label":"exchangeRate","offset":0,"slot":"3","type":"t_uint64"},{"astId":44113,"contract":"src/RiftExchange.sol:RiftExchange","label":"btcPayoutLockingScript","offset":8,"slot":"3","type":"t_bytes22"}]},"t_struct(LiquidityProvider)44103_storage":{"encoding":"inplace","label":"struct RiftExchange.LiquidityProvider","numberOfBytes":"32","members":[{"astId":44102,"contract":"src/RiftExchange.sol:RiftExchange","label":"depositVaultIndexes","offset":0,"slot":"0","type":"t_array(t_uint256)dyn_storage"}]},"t_struct(SwapReservation)44150_storage":{"encoding":"inplace","label":"struct RiftExchange.SwapReservation","numberOfBytes":"320","members":[{"astId":44122,"contract":"src/RiftExchange.sol:RiftExchange","label":"confirmationBlockHeight","offset":0,"slot":"0","type":"t_uint32"},{"astId":44124,"contract":"src/RiftExchange.sol:RiftExchange","label":"reservationTimestamp","offset":4,"slot":"0","type":"t_uint32"},{"astId":44126,"contract":"src/RiftExchange.sol:RiftExchange","label":"unlockTimestamp","offset":8,"slot":"0","type":"t_uint32"},{"astId":44129,"contract":"src/RiftExchange.sol:RiftExchange","label":"state","offset":12,"slot":"0","type":"t_enum(ReservationState)44120"},{"astId":44131,"contract":"src/RiftExchange.sol:RiftExchange","label":"ethPayoutAddress","offset":0,"slot":"1","type":"t_address"},{"astId":44133,"contract":"src/RiftExchange.sol:RiftExchange","label":"lpReservationHash","offset":0,"slot":"2","type":"t_bytes32"},{"astId":44135,"contract":"src/RiftExchange.sol:RiftExchange","label":"nonce","offset":0,"slot":"3","type":"t_bytes32"},{"astId":44137,"contract":"src/RiftExchange.sol:RiftExchange","label":"totalSwapAmount","offset":0,"slot":"4","type":"t_uint256"},{"astId":44139,"contract":"src/RiftExchange.sol:RiftExchange","label":"prepaidFeeAmount","offset":0,"slot":"5","type":"t_int256"},{"astId":44141,"contract":"src/RiftExchange.sol:RiftExchange","label":"proposedBlockHeight","offset":0,"slot":"6","type":"t_uint256"},{"astId":44143,"contract":"src/RiftExchange.sol:RiftExchange","label":"proposedBlockHash","offset":0,"slot":"7","type":"t_bytes32"},{"astId":44146,"contract":"src/RiftExchange.sol:RiftExchange","label":"vaultIndexes","offset":0,"slot":"8","type":"t_array(t_uint256)dyn_storage"},{"astId":44149,"contract":"src/RiftExchange.sol:RiftExchange","label":"amountsToReserve","offset":0,"slot":"9","type":"t_array(t_uint192)dyn_storage"}]},"t_uint192":{"encoding":"inplace","label":"uint192","numberOfBytes":"24"},"t_uint256":{"encoding":"inplace","label":"uint256","numberOfBytes":"32"},"t_uint32":{"encoding":"inplace","label":"uint32","numberOfBytes":"4"},"t_uint64":{"encoding":"inplace","label":"uint64","numberOfBytes":"8"},"t_uint8":{"encoding":"inplace","label":"uint8","numberOfBytes":"1"}}},"id":24}