{"abi":[{"type":"constructor","inputs":[{"name":"initialCheckpointHeight","type":"uint256","internalType":"uint256"},{"name":"initialBlockHash","type":"bytes32","internalType":"bytes32"},{"name":"verifierContractAddress","type":"address","internalType":"address"},{"name":"depositTokenAddress","type":"address","internalType":"address"}],"stateMutability":"nonpayable"},{"type":"function","name":"CHALLENGE_PERIOD","inputs":[],"outputs":[{"name":"","type":"uint256","internalType":"uint256"}],"stateMutability":"view"},{"type":"function","name":"DEPOSIT_TOKEN","inputs":[],"outputs":[{"name":"","type":"address","internalType":"contract IERC20"}],"stateMutability":"view"},{"type":"function","name":"MAX_DEPOSIT_OUTPUTS","inputs":[],"outputs":[{"name":"","type":"uint16","internalType":"uint16"}],"stateMutability":"view"},{"type":"function","name":"MIN_ORDER_GAS_MULTIPLIER","inputs":[],"outputs":[{"name":"","type":"uint256","internalType":"uint256"}],"stateMutability":"view"},{"type":"function","name":"PROOF_GAS_COST","inputs":[],"outputs":[{"name":"","type":"uint256","internalType":"uint256"}],"stateMutability":"view"},{"type":"function","name":"RELEASE_GAS_COST","inputs":[],"outputs":[{"name":"","type":"uint256","internalType":"uint256"}],"stateMutability":"view"},{"type":"function","name":"RESERVATION_LOCKUP_PERIOD","inputs":[],"outputs":[{"name":"","type":"uint256","internalType":"uint256"}],"stateMutability":"view"},{"type":"function","name":"SAMPLING_SIZE","inputs":[],"outputs":[{"name":"","type":"uint8","internalType":"uint8"}],"stateMutability":"view"},{"type":"function","name":"addBlock","inputs":[{"name":"safeBlockHeight","type":"uint256","internalType":"uint256"},{"name":"blockHeight","type":"uint256","internalType":"uint256"},{"name":"blockHash","type":"bytes32","internalType":"bytes32"}],"outputs":[],"stateMutability":"nonpayable"},{"type":"function","name":"buildProofPublicInputs","inputs":[{"name":"inputs","type":"tuple","internalType":"struct RiftExchange.ProofPublicInputs","components":[{"name":"bitcoinTxId","type":"bytes32","internalType":"bytes32"},{"name":"lpReservationHash","type":"bytes32","internalType":"bytes32"},{"name":"orderNonce","type":"bytes32","internalType":"bytes32"},{"name":"expectedPayout","type":"uint64","internalType":"uint64"},{"name":"lpCount","type":"uint64","internalType":"uint64"},{"name":"confirmationBlockHash","type":"bytes32","internalType":"bytes32"},{"name":"proposedBlockHash","type":"bytes32","internalType":"bytes32"},{"name":"safeBlockHash","type":"bytes32","internalType":"bytes32"},{"name":"retargetBlockHash","type":"bytes32","internalType":"bytes32"},{"name":"safeBlockHeight","type":"uint64","internalType":"uint64"},{"name":"blockHeightDelta","type":"uint64","internalType":"uint64"},{"name":"aggregation_object","type":"bytes32[16]","internalType":"bytes32[16]"}]}],"outputs":[{"name":"","type":"bytes32[]","internalType":"bytes32[]"}],"stateMutability":"pure"},{"type":"function","name":"currentHeight","inputs":[],"outputs":[{"name":"","type":"uint256","internalType":"uint256"}],"stateMutability":"view"},{"type":"function","name":"depositLiquidity","inputs":[{"name":"btcPayoutLockingScript","type":"bytes22","internalType":"bytes22"},{"name":"exchangeRate","type":"uint64","internalType":"uint64"},{"name":"vaultIndexToOverwrite","type":"int256","internalType":"int256"},{"name":"depositAmount","type":"uint192","internalType":"uint192"},{"name":"vaultIndexWithSameExchangeRate","type":"int256","internalType":"int256"}],"outputs":[],"stateMutability":"nonpayable"},{"type":"function","name":"depositVaults","inputs":[{"name":"","type":"uint256","internalType":"uint256"}],"outputs":[{"name":"initialBalance","type":"uint256","internalType":"uint256"},{"name":"unreservedBalance","type":"uint192","internalType":"uint192"},{"name":"exchangeRate","type":"uint64","internalType":"uint64"},{"name":"btcPayoutLockingScript","type":"bytes22","internalType":"bytes22"}],"stateMutability":"view"},{"type":"function","name":"emptyDepositVault","inputs":[{"name":"vaultIndex","type":"uint256","internalType":"uint256"}],"outputs":[],"stateMutability":"nonpayable"},{"type":"function","name":"getBlockHash","inputs":[{"name":"blockHeight","type":"uint256","internalType":"uint256"}],"outputs":[{"name":"","type":"bytes32","internalType":"bytes32"}],"stateMutability":"view"},{"type":"function","name":"getDepositVault","inputs":[{"name":"depositIndex","type":"uint256","internalType":"uint256"}],"outputs":[{"name":"","type":"tuple","internalType":"struct RiftExchange.DepositVault","components":[{"name":"initialBalance","type":"uint256","internalType":"uint256"},{"name":"unreservedBalance","type":"uint192","internalType":"uint192"},{"name":"exchangeRate","type":"uint64","internalType":"uint64"},{"name":"btcPayoutLockingScript","type":"bytes22","internalType":"bytes22"}]}],"stateMutability":"view"},{"type":"function","name":"getDepositVaultUnreservedBalance","inputs":[{"name":"depositIndex","type":"uint256","internalType":"uint256"}],"outputs":[{"name":"","type":"uint256","internalType":"uint256"}],"stateMutability":"view"},{"type":"function","name":"getDepositVaultsLength","inputs":[],"outputs":[{"name":"","type":"uint256","internalType":"uint256"}],"stateMutability":"view"},{"type":"function","name":"getLiquidityProvider","inputs":[{"name":"lpAddress","type":"address","internalType":"address"}],"outputs":[{"name":"","type":"tuple","internalType":"struct RiftExchange.LiquidityProvider","components":[{"name":"depositVaultIndexes","type":"uint256[]","internalType":"uint256[]"}]}],"stateMutability":"view"},{"type":"function","name":"getReservation","inputs":[{"name":"reservationIndex","type":"uint256","internalType":"uint256"}],"outputs":[{"name":"","type":"tuple","internalType":"struct RiftExchange.SwapReservation","components":[{"name":"confirmationBlockHeight","type":"uint32","internalType":"uint32"},{"name":"reservationTimestamp","type":"uint32","internalType":"uint32"},{"name":"unlockTimestamp","type":"uint32","internalType":"uint32"},{"name":"state","type":"uint8","internalType":"enum RiftExchange.ReservationState"},{"name":"ethPayoutAddress","type":"address","internalType":"address"},{"name":"lpReservationHash","type":"bytes32","internalType":"bytes32"},{"name":"nonce","type":"bytes32","internalType":"bytes32"},{"name":"totalSwapAmount","type":"uint256","internalType":"uint256"},{"name":"prepaidFeeAmount","type":"int256","internalType":"int256"},{"name":"vaultIndexes","type":"uint256[]","internalType":"uint256[]"},{"name":"amountsToReserve","type":"uint192[]","internalType":"uint192[]"}]}],"stateMutability":"view"},{"type":"function","name":"getReservationLength","inputs":[],"outputs":[{"name":"","type":"uint256","internalType":"uint256"}],"stateMutability":"view"},{"type":"function","name":"proposeTransactionProof","inputs":[{"name":"bitcoinTxId","type":"bytes32","internalType":"bytes32"},{"name":"confirmationBlockHash","type":"bytes32","internalType":"bytes32"},{"name":"proposedBlockHash","type":"bytes32","internalType":"bytes32"},{"name":"retargetBlockHash","type":"bytes32","internalType":"bytes32"},{"name":"safeBlockHeight","type":"uint32","internalType":"uint32"},{"name":"swapReservationIndex","type":"uint256","internalType":"uint256"},{"name":"proposedBlockHeight","type":"uint64","internalType":"uint64"},{"name":"aggregation_object","type":"bytes32[16]","internalType":"bytes32[16]"},{"name":"proof","type":"bytes","internalType":"bytes"}],"outputs":[],"stateMutability":"nonpayable"},{"type":"function","name":"protocolFeeBP","inputs":[],"outputs":[{"name":"","type":"uint8","internalType":"uint8"}],"stateMutability":"view"},{"type":"function","name":"proverReward","inputs":[],"outputs":[{"name":"","type":"uint256","internalType":"uint256"}],"stateMutability":"view"},{"type":"function","name":"releaseLiquidity","inputs":[{"name":"swapReservationIndex","type":"uint256","internalType":"uint256"}],"outputs":[],"stateMutability":"nonpayable"},{"type":"function","name":"releaserReward","inputs":[],"outputs":[{"name":"","type":"uint256","internalType":"uint256"}],"stateMutability":"view"},{"type":"function","name":"reserveLiquidity","inputs":[{"name":"vaultIndexesToReserve","type":"uint256[]","internalType":"uint256[]"},{"name":"amountsToReserve","type":"uint192[]","internalType":"uint192[]"},{"name":"ethPayoutAddress","type":"address","internalType":"address"},{"name":"expiredSwapReservationIndexes","type":"uint256[]","internalType":"uint256[]"}],"outputs":[],"stateMutability":"nonpayable"},{"type":"function","name":"swapReservations","inputs":[{"name":"","type":"uint256","internalType":"uint256"}],"outputs":[{"name":"confirmationBlockHeight","type":"uint32","internalType":"uint32"},{"name":"reservationTimestamp","type":"uint32","internalType":"uint32"},{"name":"unlockTimestamp","type":"uint32","internalType":"uint32"},{"name":"state","type":"uint8","internalType":"enum RiftExchange.ReservationState"},{"name":"ethPayoutAddress","type":"address","internalType":"address"},{"name":"lpReservationHash","type":"bytes32","internalType":"bytes32"},{"name":"nonce","type":"bytes32","internalType":"bytes32"},{"name":"totalSwapAmount","type":"uint256","internalType":"uint256"},{"name":"prepaidFeeAmount","type":"int256","internalType":"int256"}],"stateMutability":"view"},{"type":"function","name":"treasuryFee","inputs":[],"outputs":[{"name":"","type":"uint8","internalType":"uint8"}],"stateMutability":"view"},{"type":"function","name":"updateExchangeRate","inputs":[{"name":"globalVaultIndex","type":"uint256","internalType":"uint256"},{"name":"localVaultIndex","type":"uint256","internalType":"uint256"},{"name":"newexchangeRate","type":"uint64","internalType":"uint64"},{"name":"expiredReservationIndexes","type":"uint256[]","internalType":"uint256[]"}],"outputs":[],"stateMutability":"nonpayable"},{"type":"function","name":"validateBlockExists","inputs":[{"name":"blockHeight","type":"uint256","internalType":"uint256"}],"outputs":[],"stateMutability":"view"},{"type":"function","name":"verifierContract","inputs":[],"outputs":[{"name":"","type":"address","internalType":"contract UltraVerifier"}],"stateMutability":"view"},{"type":"function","name":"withdrawLiquidity","inputs":[{"name":"globalVaultIndex","type":"uint256","internalType":"uint256"},{"name":"localVaultIndex","type":"uint256","internalType":"uint256"},{"name":"amountToWithdraw","type":"uint192","internalType":"uint192"},{"name":"expiredReservationIndexes","type":"uint256[]","internalType":"uint256[]"}],"outputs":[],"stateMutability":"nonpayable"},{"type":"error","name":"BlockDoesNotExist","inputs":[]},{"type":"error","name":"InvaidSameExchangeRatevaultIndex","inputs":[]},{"type":"error","name":"InvalidSafeBlock","inputs":[]},{"type":"error","name":"InvalidUpdateWithActiveReservations","inputs":[]},{"type":"error","name":"InvalidVaultIndex","inputs":[]},{"type":"error","name":"InvalidVaultUpdate","inputs":[]},{"type":"error","name":"NotEnoughLiquidity","inputs":[]},{"type":"error","name":"NotVaultOwner","inputs":[]},{"type":"error","name":"ReservationNotExpired","inputs":[]},{"type":"error","name":"ReservationNotUnlocked","inputs":[]},{"type":"error","name":"StillInChallengePeriod","inputs":[]},{"type":"error","name":"WithdrawalAmountError","inputs":[]},{"type":"error","name":"exchangeRateZero","inputs":[]}],"bytecode":{"object":"0x60c06040526002805461ffff1916606417905566071afd498d000060035565b5e620f48000600455600880546001600160a01b03191673f39fd6e51aad88f6f4ce6ab8827279cfffb9226617905534801561005957600080fd5b50604051612f27380380612f27833981016040819052610078916100c3565b6001849055600093845260208490526040909320919091556001600160a01b0390811660a05216608052610109565b80516001600160a01b03811681146100be57600080fd5b919050565b600080600080608085870312156100d957600080fd5b84519350602085015192506100f0604086016100a7565b91506100fe606086016100a7565b905092959194509250565b60805160a051612dc1610166600039600081816104960152611ec901526000818161021a015281816108780152818161104001528181611124015281816114be015281816115b001528181611b850152611fbb0152612dc16000f3fe608060405234801561001057600080fd5b50600436106101fb5760003560e01c806398f9e7571161011a578063cc32d176116100ad578063e9c6c1761161007c578063e9c6c176146104eb578063ea6fe03e146104fe578063eb6c752214610506578063ed8b2b3214610510578063ee82ac5e1461052357600080fd5b8063cc32d1761461047f578063cf69568814610491578063d57763c3146104b8578063e2b5b991146104d857600080fd5b8063ad062e55116100e9578063ad062e551461043c578063aeacb2e714610456578063c3a079ed14610469578063c5fba0b81461047257600080fd5b806398f9e757146103ee5780639a64279c1461040e5780639cc7eab9146104185780639cdb8e5a1461042157600080fd5b80635f5d5b6a11610192578063778919071161016157806377891907146103aa5780637dce5550146103bd57806384a99ace146103c557806389a11f7a146103e557600080fd5b80635f5d5b6a1461035e5780636512d057146103665780636b994abb146103795780636dcc17c8146103a157600080fd5b80632d312a4a116101ce5780632d312a4a146102d2578063490d4c5f146102e557806356fe6f86146102f85780635f4d06101461030b57600080fd5b806311d0d28f1461020057806313f6658714610215578063163de0c514610259578063276d080e14610270575b600080fd5b61021361020e3660046123fc565b610543565b005b61023c7f000000000000000000000000000000000000000000000000000000000000000081565b6040516001600160a01b0390911681526020015b60405180910390f35b61026260015481565b604051908152602001610250565b61028361027e366004612460565b6108f6565b6040516102509190815181526020808301516001600160c01b0316908201526040808301516001600160401b0316908201526060918201516001600160501b0319169181019190915260800190565b6102136102e036600461258f565b610998565b6102136102f3366004612460565b61119f565b610213610306366004612692565b6111e3565b61031e610319366004612460565b6112e3565b604080519485526001600160c01b0390931660208501526001600160401b03909116918301919091526001600160501b0319166060820152608001610250565b610262600281565b610262610374366004612460565b611335565b61038c610387366004612460565b61136d565b604051610250999897969594939291906126f7565b61026260035481565b6102136103b8366004612460565b6113e3565b600754610262565b6103d86103d33660046127c6565b611635565b60405161025091906128ca565b61026261708081565b6104016103fc3660046128e4565b6119c2565b60405161025091906128ff565b6102626203345081565b61026260045481565b610429603281565b60405161ffff9091168152602001610250565b610444600a81565b60405160ff9091168152602001610250565b610213610464366004612922565b611a45565b61026261025881565b6002546104449060ff1681565b60025461044490610100900460ff1681565b61023c7f000000000000000000000000000000000000000000000000000000000000000081565b6104cb6104c6366004612460565b611bbd565b604051610250919061298a565b6102136104e6366004612a65565b611dc6565b6102136104f9366004612b6f565b61208a565b600654610262565b610262620668a081565b61021361051e366004612460565b612110565b610262610531366004612460565b60009081526020819052604090205490565b836001600160401b031660000361056d57604051635c4ad48d60e11b815260040160405180910390fd5b3360009081526005602052604081205490036105bb576040805160006020808301828152838501855283523382526005815292902081518051929391926105b79284920190612314565b5050505b80600019146106875760008190506000600782815481106105de576105de612b9b565b90600052602060002090600302019050856001600160401b03168160010160189054906101000a90046001600160401b03166001600160401b0316036106675760018101805485919060009061063e9084906001600160c01b0316612bc7565b92506101000a8154816001600160c01b0302191690836001600160c01b03160217905550610680565b60405163927ce9e760e01b815260040160405180910390fd5b505061081a565b8260001914610723576000600784815481106106a5576106a5612b9b565b6000918252602090912060039091020160018101549091506001600160c01b0316156106e45760405163721e09df60e01b815260040160405180910390fd5b6001600160c01b038316808255600160c01b6001600160401b0387160217600182015560020180546001600160b01b031916605087901c17905561081a565b604080516080810182526001600160c01b03848116808352602083019081526001600160401b038881169484019485526001600160501b03198a16606085019081526007805460018101825560009190915294517fa66cc928b5edb82af9bd49922954155ab7b0942694bea4ce44661d9a8736c6886003909602958601559151945194909216600160c01b9490921693909302177fa66cc928b5edb82af9bd49922954155ab7b0942694bea4ce44661d9a8736c68982015590517fa66cc928b5edb82af9bd49922954155ab7b0942694bea4ce44661d9a8736c68a90910180546001600160b01b03191660509290921c9190911790555b33600090815260056020526040902060075461083890600190612be6565b815460018101835560009283526020909220909101556040516323b872dd60e01b81523360048201523060248201526001600160c01b03831660448201527f00000000000000000000000000000000000000000000000000000000000000006001600160a01b0316906323b872dd906064015b6020604051808303816000875af11580156108ca573d6000803e3d6000fd5b505050506040513d601f19601f820116820180604052508101906108ee9190612bf9565b505050505050565b6040805160808101825260008082526020820181905291810182905260608101919091526007828154811061092d5761092d612b9b565b6000918252602091829020604080516080810182526003939093029091018054835260018101546001600160c01b03811694840194909452600160c01b9093046001600160401b03169082015260029091015460501b6001600160501b031916606082015292915050565b6000805b84518110156109dd578481815181106109b7576109b7612b9b565b60200260200101516001600160c01b0316826109d39190612c1b565b915060010161099c565b506002546000906109f4906127109060ff16612c44565b610a029061ffff1683612c68565b905060006002610a1548620668a0612c68565b610a1f9190612c68565b600354610a2c9190612c1b565b905060006002610a3f4862033450612c68565b610a499190612c68565b600454610a569190612c1b565b9050610a618561213f565b610a6a856121ce565b6000805b8951811015610c5d576002898281518110610a8b57610a8b612b9b565b602002602001015160078c8481518110610aa757610aa7612b9b565b602002602001015181548110610abf57610abf612b9b565b906000526020600020906003020160010160189054906101000a90046001600160401b031660078d8581518110610af857610af8612b9b565b602002602001015181548110610b1057610b10612b9b565b60009182526020918290206002600392909202010154604080516001600160c01b0395909516928501929092526001600160401b03929092169083015260501b6001600160501b03191660608201526080810184905260a00160408051601f1981840301815290829052610b8391612ca3565b602060405180830381855afa158015610ba0573d6000803e3d6000fd5b5050506040513d601f19601f82011682018060405250810190610bc39190612cbf565b915060078a8281518110610bd957610bd9612b9b565b602002602001015181548110610bf157610bf1612b9b565b600091825260209091206001600390920201015489516001600160c01b03909116908a9083908110610c2557610c25612b9b565b60200260200101516001600160c01b03161115610c5557604051634323a55560e01b815260040160405180910390fd5b600101610a6e565b50855115610d9c576000600687600081518110610c7c57610c7c612b9b565b602002602001015181548110610c9457610c94612b9b565b6000918252602090912060089091020180546001820180546001600160a01b0319166001600160a01b038c16179055600160601b6cffffffffffffffffffffffffff199091166401000000004263ffffffff16026bffffffff00000000ffffffff1916171781559050610d078385612c1b565b600582015560048101869055600654604080516001600160a01b038b16602082015242918101919091524660608201526080810184905260a081019190915260c00160408051601f19818403018152919052805160209182012060038301558a51610d7a916006840191908d0190612314565b508851610d9090600783019060208c019061235f565b50600201819055610f87565b604080516101608101825260008082524263ffffffff1660208301529181019190915260069060608101600181526001600160a01b038a16602080830182905260408084018790526006548151928301939093524290820152466060828101919091526080820187905260a082019290925291019060c0016040516020818303038152906040528051906020012081526020018781526020018486610e419190612c1b565b815260208082018d905260409182018c9052835460018101855560009485529381902083516008909502018054918401519284015163ffffffff908116600160401b026bffffffff0000000000000000199482166401000000000267ffffffffffffffff199094169190961617919091179182168417815560608301519293909291839160ff60601b19166cffffffffff00000000000000001990911617600160601b836004811115610ef657610ef66126bf565b021790555060808201516001820180546001600160a01b0319166001600160a01b0390921691909117905560a0820151600282015560c0820151600382015560e0820151600482015561010082015160058201556101208201518051610f66916006840191602090910190612314565b506101408201518051610f8391600784019160209091019061235f565b5050505b60005b895181101561103557888181518110610fa557610fa5612b9b565b602002602001015160078b8381518110610fc157610fc1612b9b565b602002602001015181548110610fd957610fd9612b9b565b60009182526020822060016003909202010180549091906110049084906001600160c01b0316612cd8565b92506101000a8154816001600160c01b0302191690836001600160c01b031602179055508080600101915050610f8a565b506001600160a01b037f0000000000000000000000000000000000000000000000000000000000000000166323b872dd3330856110728989612c1b565b61107c9190612c1b565b6040516001600160e01b031960e086901b1681526001600160a01b03938416600482015292909116602483015260448201526064016020604051808303816000875af11580156110d0573d6000803e3d6000fd5b505050506040513d601f19601f820116820180604052508101906110f49190612bf9565b506008546040516323b872dd60e01b81523060048201526001600160a01b039182166024820152604481018690527f0000000000000000000000000000000000000000000000000000000000000000909116906323b872dd906064016020604051808303816000875af115801561116f573d6000803e3d6000fd5b505050506040513d601f19601f820116820180604052508101906111939190612bf9565b50505050505050505050565b6000600782815481106111b4576111b4612b9b565b600091825260208220600390910201818155600181019190915560020180546001600160b01b03191690555050565b33600090815260056020526040902080548591908590811061120757611207612b9b565b90600052602060002001541461123057604051630e7fea9d60e01b815260040160405180910390fd5b816001600160401b031660000361125a57604051636e5a187760e11b815260040160405180910390fd5b60006007858154811061126f5761126f612b9b565b90600052602060002090600302019050611288826121ce565b805460018201546001600160c01b0316146112b6576040516391bc6cc360e01b815260040160405180910390fd5b60010180546001600160401b03909316600160c01b026001600160c01b0390931692909217909155505050565b600781815481106112f357600080fd5b60009182526020909120600390910201805460018201546002909201549092506001600160c01b03821691600160c01b90046001600160401b03169060501b84565b60006007828154811061134a5761134a612b9b565b60009182526020909120600160039092020101546001600160c01b031692915050565b6006818154811061137d57600080fd5b600091825260209091206008909102018054600182015460028301546003840154600485015460059095015463ffffffff80861697506401000000008604811696600160401b870490911695600160601b900460ff16946001600160a01b031693929189565b6000600682815481106113f8576113f8612b9b565b60009182526020909120600890910201905060028154600160601b900460ff166004811115611429576114296126bf565b146114475760405163b38c767b60e01b815260040160405180910390fd5b80546102589061146490600160401b900463ffffffff1642612be6565b101561148357604051632d5c37f560e21b815260040160405180910390fd5b60006114924862033450612c68565b60045461149f9190612c1b565b60405163a9059cbb60e01b8152336004820152602481018290529091507f00000000000000000000000000000000000000000000000000000000000000006001600160a01b03169063a9059cbb906044016020604051808303816000875af115801561150f573d6000803e3d6000fd5b505050506040513d601f19601f820116820180604052508101906115339190612bf9565b50808260050160008282546115489190612cf7565b909155505060058201546000131561157f5781600501548260040160008282546115729190612c1b565b9091555050600060058301555b600182015460048084015460405163a9059cbb60e01b81526001600160a01b039384169281019290925260248201527f00000000000000000000000000000000000000000000000000000000000000009091169063a9059cbb906044016020604051808303816000875af11580156115fb573d6000803e3d6000fd5b505050506040513d601f19601f8201168201806040525081019061161f9190612bf9565b5050805460ff60601b1916600160621b17905550565b604080516022808252610460820190925260609160009190602082016104408036833701905050905061166b8360000151612300565b8160008151811061167e5761167e612b9b565b6020908102919091010152825160ff16816001815181106116a1576116a1612b9b565b6020026020010181815250506116ba8360200151612300565b816002815181106116cd576116cd612b9b565b6020026020010181815250506116e7836020015160ff1690565b816003815181106116fa576116fa612b9b565b6020026020010181815250506117138360400151612300565b8160048151811061172657611726612b9b565b6020908102919091010152604083015160ff168160058151811061174c5761174c612b9b565b6020026020010181815250506117658360a00151612300565b8160088151811061177857611778612b9b565b60200260200101818152505082606001516001600160401b031660001b816006815181106117a8576117a8612b9b565b60200260200101818152505082608001516001600160401b031660001b816007815181106117d8576117d8612b9b565b602090810291909101015260a083015160ff16816009815181106117fe576117fe612b9b565b6020026020010181815250506118178360c00151612300565b81600a8151811061182a5761182a612b9b565b602090810291909101015260c083015160ff1681600b8151811061185057611850612b9b565b6020026020010181815250506118698360e00151612300565b81600c8151811061187c5761187c612b9b565b602090810291909101015260e083015160ff1681600d815181106118a2576118a2612b9b565b6020026020010181815250506118bc836101000151612300565b81600e815181106118cf576118cf612b9b565b602090810291909101015261010083015160ff1681600f815181106118f6576118f6612b9b565b6020026020010181815250508261012001516001600160401b031660001b8160108151811061192757611927612b9b565b6020026020010181815250508261014001516001600160401b031660001b8160118151811061195857611958612b9b565b60200260200101818152505060005b60108110156119bb57836101600151816010811061198757611987612b9b565b602002015182611998836012612c1b565b815181106119a8576119a8612b9b565b6020908102919091010152600101611967565b5092915050565b6040805160208082018352606082526001600160a01b03841660009081526005825283902083518154808402820186018652928101838152939490939192849291849190840182828015611a3557602002820191906000526020600020905b815481526020019060010190808311611a21575b5050505050815250509050919050565b336000908152600560205260409020805485919085908110611a6957611a69612b9b565b906000526020600020015414611a9257604051630e7fea9d60e01b815260040160405180910390fd5b611a9b816121ce565b6007548410611abd5760405163721e09df60e01b815260040160405180910390fd5b600060078581548110611ad257611ad2612b9b565b90600052602060002090600302019050826001600160c01b031660001480611b0a575060018101546001600160c01b03908116908416115b15611b285760405163b4e3d41360e01b815260040160405180910390fd5b600181018054849190600090611b489084906001600160c01b0316612cd8565b82546101009290920a6001600160c01b0381810219909316918316021790915560405163a9059cbb60e01b815233600482015290851660248201527f00000000000000000000000000000000000000000000000000000000000000006001600160a01b0316915063a9059cbb906044016108ab565b604080516101608101825260008082526020820181905291810182905260608082018390526080820183905260a0820183905260c0820183905260e08201839052610100820192909252610120810182905261014081019190915260068281548110611c2b57611c2b612b9b565b600091825260209182902060408051610160810182526008909302909101805463ffffffff80821685526401000000008204811695850195909552600160401b8104909416918301919091529091606083019060ff600160601b909104166004811115611c9a57611c9a6126bf565b6004811115611cab57611cab6126bf565b81526020016001820160009054906101000a90046001600160a01b03166001600160a01b03166001600160a01b031681526020016002820154815260200160038201548152602001600482015481526020016005820154815260200160068201805480602002602001604051908101604052809291908181526020018280548015611d5557602002820191906000526020600020905b815481526020019060010190808311611d41575b5050505050815260200160078201805480602002602001604051908101604052809291908181526020018280548015611a3557602002820191906000526020600020905b81546001600160c01b03168152600190910190602001808311611d99575050505050815250509050919050565b600060068581548110611ddb57611ddb612b9b565b906000526020600020906008020190506000611eaf6040518061018001604052808d8152602001846002015481526020018460030154815260200184600401546001600160401b0316815260200184600601805490506001600160401b031681526020018c81526020018b8152602001611e678a63ffffffff1660009081526020819052604090205490565b81526020018a81526020018963ffffffff166001600160401b031681526020018963ffffffff1688611e999190612d17565b6001600160401b03168152602001869052611635565b604051633a94343960e21b81529091506001600160a01b037f0000000000000000000000000000000000000000000000000000000000000000169063ea50d0e490611f009086908590600401612d36565b602060405180830381865afa158015611f1d573d6000803e3d6000fd5b505050506040513d601f19601f82011682018060405250810190611f419190612bf9565b50611f5c8763ffffffff16866001600160401b03168b61208a565b8154600160611b6cff0000000000000000ffffffff1990911663ffffffff8916171782556000611f8f48620668a0612c68565b600354611f9c9190612c1b565b60405163a9059cbb60e01b8152336004820152602481018290529091507f00000000000000000000000000000000000000000000000000000000000000006001600160a01b03169063a9059cbb906044016020604051808303816000875af115801561200c573d6000803e3d6000fd5b505050506040513d601f19601f820116820180604052508101906120309190612bf9565b50808360050160008282546120459190612cf7565b909155505060058301546000131561207c57826005015483600401600082825461206f9190612c1b565b9091555050600060058401555b505050505050505050505050565b600154808411156120ae5760405163575f3da360e01b815260040160405180910390fd5b80841080156120bd5750808310155b156120fa57835b818110156120f857600081815260208190526040902054156120f0576000818152602081905260408120555b6001016120c4565b505b5060008281526020819052604090205560015550565b60008181526020819052604090205461213c5760405163fa4a5e4560e01b815260040160405180910390fd5b50565b60005b81518110156121ca57617080600683838151811061216257612162612b9b565b60200260200101518154811061217a5761217a612b9b565b60009182526020909120600890910201546121a390640100000000900463ffffffff1642612be6565b10156121c2576040516326349d6b60e01b815260040160405180910390fd5b600101612142565b5050565b60005b81518110156121ca576121e38261213f565b600060068383815181106121f9576121f9612b9b565b60200260200101518154811061221157612211612b9b565b9060005260206000209060080201905060005b60068201548110156122e6576000600783600601838154811061224957612249612b9b565b90600052602060002001548154811061226457612264612b9b565b9060005260206000209060030201905082600701828154811061228957612289612b9b565b60009182526020822001546001830180546001600160c01b039283169391926122b491859116612bc7565b92506101000a8154816001600160c01b0302191690836001600160c01b03160217905550508080600101915050612224565b50805460ff60601b1916600360601b1790556001016121d1565b600061230e61010083612d77565b92915050565b82805482825590600052602060002090810192821561234f579160200282015b8281111561234f578251825591602001919060010190612334565b5061235b9291506123b4565b5090565b82805482825590600052602060002090810192821561234f579160200282015b8281111561234f57825182546001600160c01b0319166001600160c01b0390911617825560209092019160019091019061237f565b5b8082111561235b57600081556001016123b5565b80356001600160401b03811681146123e057600080fd5b919050565b80356001600160c01b03811681146123e057600080fd5b600080600080600060a0868803121561241457600080fd5b85356001600160501b03198116811461242c57600080fd5b945061243a602087016123c9565b93506040860135925061244f606087016123e5565b949793965091946080013592915050565b60006020828403121561247257600080fd5b5035919050565b634e487b7160e01b600052604160045260246000fd5b60405161018081016001600160401b03811182821017156124b2576124b2612479565b60405290565b604051601f8201601f191681016001600160401b03811182821017156124e0576124e0612479565b604052919050565b60006001600160401b0382111561250157612501612479565b5060051b60200190565b600082601f83011261251c57600080fd5b813561252f61252a826124e8565b6124b8565b8082825260208201915060208360051b86010192508583111561255157600080fd5b602085015b8381101561256e578035835260209283019201612556565b5095945050505050565b80356001600160a01b03811681146123e057600080fd5b600080600080608085870312156125a557600080fd5b84356001600160401b038111156125bb57600080fd5b6125c78782880161250b565b94505060208501356001600160401b038111156125e357600080fd5b8501601f810187136125f457600080fd5b803561260261252a826124e8565b8082825260208201915060208360051b85010192508983111561262457600080fd5b6020840193505b8284101561264d5761263c846123e5565b82526020938401939091019061262b565b955061265f9250505060408601612578565b915060608501356001600160401b0381111561267a57600080fd5b6126868782880161250b565b91505092959194509250565b600080600080608085870312156126a857600080fd5b843593506020850135925061265f604086016123c9565b634e487b7160e01b600052602160045260246000fd5b600581106126f357634e487b7160e01b600052602160045260246000fd5b9052565b63ffffffff8a81168252898116602083015288166040820152610120810161272260608301896126d5565b6001600160a01b0396909616608082015260a081019490945260c084019290925260e083015261010090910152949350505050565b600082601f83011261276857600080fd5b60405161020081016001600160401b038111828210171561278b5761278b612479565b604052806102008401858111156127a157600080fd5b845b818110156127bb5780358352602092830192016127a3565b509195945050505050565b60006103608284031280156127da57600080fd5b5060006127e561248f565b833581526020808501359082015260408085013590820152612809606085016123c9565b606082015261281a608085016123c9565b608082015260a0848101359082015260c0808501359082015260e0808501359082015261010080850135908201819052915061285961012085016123c9565b61012082015261286c61014085016123c9565b610140820152612880856101608601612757565b610160820152949350505050565b600081518084526020840193506020830160005b828110156128c05781518652602095860195909101906001016128a2565b5093949350505050565b6020815260006128dd602083018461288e565b9392505050565b6000602082840312156128f657600080fd5b6128dd82612578565b602081526000825160208084015261291a604084018261288e565b949350505050565b6000806000806080858703121561293857600080fd5b843593506020850135925061265f604086016123e5565b600081518084526020840193506020830160005b828110156128c05781516001600160c01b0316865260209586019590910190600101612963565b602081526129a160208201835163ffffffff169052565b600060208301516129ba604084018263ffffffff169052565b50604083015163ffffffff811660608401525060608301516129df60808401826126d5565b5060808301516001600160a01b03811660a08401525060a083015160c083015260c083015160e083015260e0830151610100830152610100830151610120830152610120830151610160610140840152612a3d61018084018261288e565b9050610140840151601f1984830301610160850152612a5c828261294f565b95945050505050565b60008060008060008060008060006103008a8c031215612a8457600080fd5b8935985060208a0135975060408a0135965060608a0135955060808a013563ffffffff81168114612ab457600080fd5b945060a08a01359350612ac960c08b016123c9565b9250612ad88b60e08c01612757565b91506102e08a01356001600160401b03811115612af457600080fd5b8a016000601f82018d13612b06578081fd5b81356001600160401b03811115612b1f57612b1f612479565b612b32601f8201601f19166020016124b8565b8181528e6020838601011115612b46578283fd5b816020850160208301378260208383010152809250809450505050509295985092959850929598565b600080600060608486031215612b8457600080fd5b505081359360208301359350604090920135919050565b634e487b7160e01b600052603260045260246000fd5b634e487b7160e01b600052601160045260246000fd5b6001600160c01b03818116838216019081111561230e5761230e612bb1565b8181038181111561230e5761230e612bb1565b600060208284031215612c0b57600080fd5b815180151581146128dd57600080fd5b8082018082111561230e5761230e612bb1565b634e487b7160e01b600052601260045260246000fd5b600061ffff831680612c5857612c58612c2e565b8061ffff84160491505092915050565b808202811582820484141761230e5761230e612bb1565b60005b83811015612c9a578181015183820152602001612c82565b50506000910152565b60008251612cb5818460208701612c7f565b9190910192915050565b600060208284031215612cd157600080fd5b5051919050565b6001600160c01b03828116828216039081111561230e5761230e612bb1565b81810360008312801583831316838312821617156119bb576119bb612bb1565b6001600160401b03828116828216039081111561230e5761230e612bb1565b6040815260008351806040840152612d55816060850160208801612c7f565b601f01601f1916820182810360609081016020850152612a5c9082018561288e565b600082612d8657612d86612c2e565b50049056fea2646970667358221220ade95c00805dd2f00cb0b419243ffecd86377f6c0c43c0b24df5688dafb1176864736f6c634300081a0033","linkReferences":{}},"methodIdentifiers":{"CHALLENGE_PERIOD()":"c3a079ed","DEPOSIT_TOKEN()":"13f66587","MAX_DEPOSIT_OUTPUTS()":"9cdb8e5a","MIN_ORDER_GAS_MULTIPLIER()":"5f5d5b6a","PROOF_GAS_COST()":"eb6c7522","RELEASE_GAS_COST()":"9a64279c","RESERVATION_LOCKUP_PERIOD()":"89a11f7a","SAMPLING_SIZE()":"ad062e55","addBlock(uint256,uint256,bytes32)":"e9c6c176","buildProofPublicInputs((bytes32,bytes32,bytes32,uint64,uint64,bytes32,bytes32,bytes32,bytes32,uint64,uint64,bytes32[16]))":"84a99ace","currentHeight()":"163de0c5","depositLiquidity(bytes22,uint64,int256,uint192,int256)":"11d0d28f","depositVaults(uint256)":"5f4d0610","emptyDepositVault(uint256)":"490d4c5f","getBlockHash(uint256)":"ee82ac5e","getDepositVault(uint256)":"276d080e","getDepositVaultUnreservedBalance(uint256)":"6512d057","getDepositVaultsLength()":"7dce5550","getLiquidityProvider(address)":"98f9e757","getReservation(uint256)":"d57763c3","getReservationLength()":"ea6fe03e","proposeTransactionProof(bytes32,bytes32,bytes32,bytes32,uint32,uint256,uint64,bytes32[16],bytes)":"e2b5b991","protocolFeeBP()":"c5fba0b8","proverReward()":"6dcc17c8","releaseLiquidity(uint256)":"77891907","releaserReward()":"9cc7eab9","reserveLiquidity(uint256[],uint192[],address,uint256[])":"2d312a4a","swapReservations(uint256)":"6b994abb","treasuryFee()":"cc32d176","updateExchangeRate(uint256,uint256,uint64,uint256[])":"56fe6f86","validateBlockExists(uint256)":"ed8b2b32","verifierContract()":"cf695688","withdrawLiquidity(uint256,uint256,uint192,uint256[])":"aeacb2e7"},"storageLayout":{"storage":[{"astId":47263,"contract":"src/RiftExchange.sol:RiftExchange","label":"blockchain","offset":0,"slot":"0","type":"t_mapping(t_uint256,t_bytes32)"},{"astId":47265,"contract":"src/RiftExchange.sol:RiftExchange","label":"currentHeight","offset":0,"slot":"1","type":"t_uint256"},{"astId":47865,"contract":"src/RiftExchange.sol:RiftExchange","label":"protocolFeeBP","offset":0,"slot":"2","type":"t_uint8"},{"astId":47868,"contract":"src/RiftExchange.sol:RiftExchange","label":"treasuryFee","offset":1,"slot":"2","type":"t_uint8"},{"astId":47871,"contract":"src/RiftExchange.sol:RiftExchange","label":"proverReward","offset":0,"slot":"3","type":"t_uint256"},{"astId":47874,"contract":"src/RiftExchange.sol:RiftExchange","label":"releaserReward","offset":0,"slot":"4","type":"t_uint256"},{"astId":47929,"contract":"src/RiftExchange.sol:RiftExchange","label":"liquidityProviders","offset":0,"slot":"5","type":"t_mapping(t_address,t_struct(LiquidityProvider)47883_storage)"},{"astId":47933,"contract":"src/RiftExchange.sol:RiftExchange","label":"swapReservations","offset":0,"slot":"6","type":"t_array(t_struct(SwapReservation)47924_storage)dyn_storage"},{"astId":47937,"contract":"src/RiftExchange.sol:RiftExchange","label":"depositVaults","offset":0,"slot":"7","type":"t_array(t_struct(DepositVault)47892_storage)dyn_storage"},{"astId":47946,"contract":"src/RiftExchange.sol:RiftExchange","label":"protocolAddress","offset":0,"slot":"8","type":"t_address_payable"}],"types":{"t_address":{"encoding":"inplace","label":"address","numberOfBytes":"20"},"t_address_payable":{"encoding":"inplace","label":"address payable","numberOfBytes":"20"},"t_array(t_struct(DepositVault)47892_storage)dyn_storage":{"encoding":"dynamic_array","label":"struct RiftExchange.DepositVault[]","numberOfBytes":"32","base":"t_struct(DepositVault)47892_storage"},"t_array(t_struct(SwapReservation)47924_storage)dyn_storage":{"encoding":"dynamic_array","label":"struct RiftExchange.SwapReservation[]","numberOfBytes":"32","base":"t_struct(SwapReservation)47924_storage"},"t_array(t_uint192)dyn_storage":{"encoding":"dynamic_array","label":"uint192[]","numberOfBytes":"32","base":"t_uint192"},"t_array(t_uint256)dyn_storage":{"encoding":"dynamic_array","label":"uint256[]","numberOfBytes":"32","base":"t_uint256"},"t_bytes22":{"encoding":"inplace","label":"bytes22","numberOfBytes":"22"},"t_bytes32":{"encoding":"inplace","label":"bytes32","numberOfBytes":"32"},"t_enum(ReservationState)47898":{"encoding":"inplace","label":"enum RiftExchange.ReservationState","numberOfBytes":"1"},"t_int256":{"encoding":"inplace","label":"int256","numberOfBytes":"32"},"t_mapping(t_address,t_struct(LiquidityProvider)47883_storage)":{"encoding":"mapping","key":"t_address","label":"mapping(address => struct RiftExchange.LiquidityProvider)","numberOfBytes":"32","value":"t_struct(LiquidityProvider)47883_storage"},"t_mapping(t_uint256,t_bytes32)":{"encoding":"mapping","key":"t_uint256","label":"mapping(uint256 => bytes32)","numberOfBytes":"32","value":"t_bytes32"},"t_struct(DepositVault)47892_storage":{"encoding":"inplace","label":"struct RiftExchange.DepositVault","numberOfBytes":"96","members":[{"astId":47885,"contract":"src/RiftExchange.sol:RiftExchange","label":"initialBalance","offset":0,"slot":"0","type":"t_uint256"},{"astId":47887,"contract":"src/RiftExchange.sol:RiftExchange","label":"unreservedBalance","offset":0,"slot":"1","type":"t_uint192"},{"astId":47889,"contract":"src/RiftExchange.sol:RiftExchange","label":"exchangeRate","offset":24,"slot":"1","type":"t_uint64"},{"astId":47891,"contract":"src/RiftExchange.sol:RiftExchange","label":"btcPayoutLockingScript","offset":0,"slot":"2","type":"t_bytes22"}]},"t_struct(LiquidityProvider)47883_storage":{"encoding":"inplace","label":"struct RiftExchange.LiquidityProvider","numberOfBytes":"32","members":[{"astId":47882,"contract":"src/RiftExchange.sol:RiftExchange","label":"depositVaultIndexes","offset":0,"slot":"0","type":"t_array(t_uint256)dyn_storage"}]},"t_struct(SwapReservation)47924_storage":{"encoding":"inplace","label":"struct RiftExchange.SwapReservation","numberOfBytes":"256","members":[{"astId":47900,"contract":"src/RiftExchange.sol:RiftExchange","label":"confirmationBlockHeight","offset":0,"slot":"0","type":"t_uint32"},{"astId":47902,"contract":"src/RiftExchange.sol:RiftExchange","label":"reservationTimestamp","offset":4,"slot":"0","type":"t_uint32"},{"astId":47904,"contract":"src/RiftExchange.sol:RiftExchange","label":"unlockTimestamp","offset":8,"slot":"0","type":"t_uint32"},{"astId":47907,"contract":"src/RiftExchange.sol:RiftExchange","label":"state","offset":12,"slot":"0","type":"t_enum(ReservationState)47898"},{"astId":47909,"contract":"src/RiftExchange.sol:RiftExchange","label":"ethPayoutAddress","offset":0,"slot":"1","type":"t_address"},{"astId":47911,"contract":"src/RiftExchange.sol:RiftExchange","label":"lpReservationHash","offset":0,"slot":"2","type":"t_bytes32"},{"astId":47913,"contract":"src/RiftExchange.sol:RiftExchange","label":"nonce","offset":0,"slot":"3","type":"t_bytes32"},{"astId":47915,"contract":"src/RiftExchange.sol:RiftExchange","label":"totalSwapAmount","offset":0,"slot":"4","type":"t_uint256"},{"astId":47917,"contract":"src/RiftExchange.sol:RiftExchange","label":"prepaidFeeAmount","offset":0,"slot":"5","type":"t_int256"},{"astId":47920,"contract":"src/RiftExchange.sol:RiftExchange","label":"vaultIndexes","offset":0,"slot":"6","type":"t_array(t_uint256)dyn_storage"},{"astId":47923,"contract":"src/RiftExchange.sol:RiftExchange","label":"amountsToReserve","offset":0,"slot":"7","type":"t_array(t_uint192)dyn_storage"}]},"t_uint192":{"encoding":"inplace","label":"uint192","numberOfBytes":"24"},"t_uint256":{"encoding":"inplace","label":"uint256","numberOfBytes":"32"},"t_uint32":{"encoding":"inplace","label":"uint32","numberOfBytes":"4"},"t_uint64":{"encoding":"inplace","label":"uint64","numberOfBytes":"8"},"t_uint8":{"encoding":"inplace","label":"uint8","numberOfBytes":"1"}}},"id":30}