{"abi":[{"type":"constructor","inputs":[{"name":"initialCheckpointHeight","type":"uint256","internalType":"uint256"},{"name":"initialBlockHash","type":"bytes32","internalType":"bytes32"},{"name":"verifierContractAddress","type":"address","internalType":"address"},{"name":"depositTokenAddress","type":"address","internalType":"address"},{"name":"_proverReward","type":"uint256","internalType":"uint256"},{"name":"_releaserReward","type":"uint256","internalType":"uint256"},{"name":"_protocolAddress","type":"address","internalType":"address payable"},{"name":"_owner","type":"address","internalType":"address"}],"stateMutability":"nonpayable"},{"type":"function","name":"CHALLENGE_PERIOD","inputs":[],"outputs":[{"name":"","type":"uint256","internalType":"uint256"}],"stateMutability":"view"},{"type":"function","name":"DEPOSIT_TOKEN","inputs":[],"outputs":[{"name":"","type":"address","internalType":"contract IERC20"}],"stateMutability":"view"},{"type":"function","name":"MAX_DEPOSIT_OUTPUTS","inputs":[],"outputs":[{"name":"","type":"uint16","internalType":"uint16"}],"stateMutability":"view"},{"type":"function","name":"MIN_ORDER_GAS_MULTIPLIER","inputs":[],"outputs":[{"name":"","type":"uint256","internalType":"uint256"}],"stateMutability":"view"},{"type":"function","name":"PROOF_GAS_COST","inputs":[],"outputs":[{"name":"","type":"uint256","internalType":"uint256"}],"stateMutability":"view"},{"type":"function","name":"RELEASE_GAS_COST","inputs":[],"outputs":[{"name":"","type":"uint256","internalType":"uint256"}],"stateMutability":"view"},{"type":"function","name":"RESERVATION_LOCKUP_PERIOD","inputs":[],"outputs":[{"name":"","type":"uint256","internalType":"uint256"}],"stateMutability":"view"},{"type":"function","name":"SAMPLING_SIZE","inputs":[],"outputs":[{"name":"","type":"uint8","internalType":"uint8"}],"stateMutability":"view"},{"type":"function","name":"TOKEN_DECIMALS","inputs":[],"outputs":[{"name":"","type":"uint8","internalType":"uint8"}],"stateMutability":"view"},{"type":"function","name":"addBlock","inputs":[{"name":"safeBlockHeight","type":"uint256","internalType":"uint256"},{"name":"blockHeight","type":"uint256","internalType":"uint256"},{"name":"blockHash","type":"bytes32","internalType":"bytes32"}],"outputs":[],"stateMutability":"nonpayable"},{"type":"function","name":"buildProofPublicInputs","inputs":[{"name":"inputs","type":"tuple","internalType":"struct RiftExchange.ProofPublicInputs","components":[{"name":"bitcoinTxId","type":"bytes32","internalType":"bytes32"},{"name":"lpReservationHash","type":"bytes32","internalType":"bytes32"},{"name":"orderNonce","type":"bytes32","internalType":"bytes32"},{"name":"expectedPayout","type":"uint64","internalType":"uint64"},{"name":"lpCount","type":"uint64","internalType":"uint64"},{"name":"confirmationBlockHash","type":"bytes32","internalType":"bytes32"},{"name":"proposedBlockHash","type":"bytes32","internalType":"bytes32"},{"name":"safeBlockHash","type":"bytes32","internalType":"bytes32"},{"name":"retargetBlockHash","type":"bytes32","internalType":"bytes32"},{"name":"safeBlockHeight","type":"uint64","internalType":"uint64"},{"name":"safeBlockHeightDelta","type":"uint64","internalType":"uint64"},{"name":"confirmationBlockHeightDelta","type":"uint64","internalType":"uint64"},{"name":"retargetBlockHeight","type":"uint64","internalType":"uint64"},{"name":"aggregation_object","type":"bytes32[16]","internalType":"bytes32[16]"}]}],"outputs":[{"name":"","type":"bytes32[]","internalType":"bytes32[]"}],"stateMutability":"pure"},{"type":"function","name":"currentHeight","inputs":[],"outputs":[{"name":"","type":"uint256","internalType":"uint256"}],"stateMutability":"view"},{"type":"function","name":"depositLiquidity","inputs":[{"name":"btcPayoutLockingScript","type":"bytes22","internalType":"bytes22"},{"name":"exchangeRate","type":"uint64","internalType":"uint64"},{"name":"vaultIndexToOverwrite","type":"int256","internalType":"int256"},{"name":"depositAmount","type":"uint256","internalType":"uint256"},{"name":"vaultIndexWithSameExchangeRate","type":"int256","internalType":"int256"}],"outputs":[],"stateMutability":"nonpayable"},{"type":"function","name":"depositVaults","inputs":[{"name":"","type":"uint256","internalType":"uint256"}],"outputs":[{"name":"initialBalance","type":"uint256","internalType":"uint256"},{"name":"unreservedBalance","type":"uint256","internalType":"uint256"},{"name":"exchangeRate","type":"uint64","internalType":"uint64"},{"name":"btcPayoutLockingScript","type":"bytes22","internalType":"bytes22"}],"stateMutability":"view"},{"type":"function","name":"emptyDepositVault","inputs":[{"name":"vaultIndex","type":"uint256","internalType":"uint256"}],"outputs":[],"stateMutability":"nonpayable"},{"type":"function","name":"getBlockHash","inputs":[{"name":"blockHeight","type":"uint256","internalType":"uint256"}],"outputs":[{"name":"","type":"bytes32","internalType":"bytes32"}],"stateMutability":"view"},{"type":"function","name":"getDepositVault","inputs":[{"name":"depositIndex","type":"uint256","internalType":"uint256"}],"outputs":[{"name":"","type":"tuple","internalType":"struct RiftExchange.DepositVault","components":[{"name":"initialBalance","type":"uint256","internalType":"uint256"},{"name":"unreservedBalance","type":"uint256","internalType":"uint256"},{"name":"exchangeRate","type":"uint64","internalType":"uint64"},{"name":"btcPayoutLockingScript","type":"bytes22","internalType":"bytes22"}]}],"stateMutability":"view"},{"type":"function","name":"getDepositVaultUnreservedBalance","inputs":[{"name":"depositIndex","type":"uint256","internalType":"uint256"}],"outputs":[{"name":"","type":"uint256","internalType":"uint256"}],"stateMutability":"view"},{"type":"function","name":"getDepositVaultUnreservedBalanceInternalPrecision","inputs":[{"name":"depositIndex","type":"uint256","internalType":"uint256"}],"outputs":[{"name":"","type":"uint256","internalType":"uint256"}],"stateMutability":"view"},{"type":"function","name":"getDepositVaultsLength","inputs":[],"outputs":[{"name":"","type":"uint256","internalType":"uint256"}],"stateMutability":"view"},{"type":"function","name":"getLiquidityProvider","inputs":[{"name":"lpAddress","type":"address","internalType":"address"}],"outputs":[{"name":"","type":"tuple","internalType":"struct RiftExchange.LiquidityProvider","components":[{"name":"depositVaultIndexes","type":"uint256[]","internalType":"uint256[]"}]}],"stateMutability":"view"},{"type":"function","name":"getReservation","inputs":[{"name":"reservationIndex","type":"uint256","internalType":"uint256"}],"outputs":[{"name":"","type":"tuple","internalType":"struct RiftExchange.SwapReservation","components":[{"name":"confirmationBlockHeight","type":"uint32","internalType":"uint32"},{"name":"reservationTimestamp","type":"uint32","internalType":"uint32"},{"name":"unlockTimestamp","type":"uint32","internalType":"uint32"},{"name":"state","type":"uint8","internalType":"enum RiftExchange.ReservationState"},{"name":"ethPayoutAddress","type":"address","internalType":"address"},{"name":"lpReservationHash","type":"bytes32","internalType":"bytes32"},{"name":"nonce","type":"bytes32","internalType":"bytes32"},{"name":"totalSwapAmount","type":"uint256","internalType":"uint256"},{"name":"prepaidFeeAmount","type":"int256","internalType":"int256"},{"name":"vaultIndexes","type":"uint256[]","internalType":"uint256[]"},{"name":"amountsToReserve","type":"uint192[]","internalType":"uint192[]"}]}],"stateMutability":"view"},{"type":"function","name":"getReservationLength","inputs":[],"outputs":[{"name":"","type":"uint256","internalType":"uint256"}],"stateMutability":"view"},{"type":"function","name":"owner","inputs":[],"outputs":[{"name":"","type":"address","internalType":"address"}],"stateMutability":"view"},{"type":"function","name":"proposeTransactionProof","inputs":[{"name":"bitcoinTxId","type":"bytes32","internalType":"bytes32"},{"name":"confirmationBlockHash","type":"bytes32","internalType":"bytes32"},{"name":"proposedBlockHash","type":"bytes32","internalType":"bytes32"},{"name":"retargetBlockHash","type":"bytes32","internalType":"bytes32"},{"name":"safeBlockHeight","type":"uint32","internalType":"uint32"},{"name":"swapReservationIndex","type":"uint256","internalType":"uint256"},{"name":"proposedBlockHeight","type":"uint64","internalType":"uint64"},{"name":"confirmationBlockHeight","type":"uint64","internalType":"uint64"},{"name":"aggregation_object","type":"bytes32[16]","internalType":"bytes32[16]"},{"name":"proof","type":"bytes","internalType":"bytes"}],"outputs":[],"stateMutability":"nonpayable"},{"type":"function","name":"protocolFeeBP","inputs":[],"outputs":[{"name":"","type":"uint8","internalType":"uint8"}],"stateMutability":"view"},{"type":"function","name":"proverReward","inputs":[],"outputs":[{"name":"","type":"uint256","internalType":"uint256"}],"stateMutability":"view"},{"type":"function","name":"releaseLiquidity","inputs":[{"name":"swapReservationIndex","type":"uint256","internalType":"uint256"}],"outputs":[],"stateMutability":"nonpayable"},{"type":"function","name":"releaserReward","inputs":[],"outputs":[{"name":"","type":"uint256","internalType":"uint256"}],"stateMutability":"view"},{"type":"function","name":"reserveLiquidity","inputs":[{"name":"vaultIndexesToReserve","type":"uint256[]","internalType":"uint256[]"},{"name":"amountsToReserve","type":"uint192[]","internalType":"uint192[]"},{"name":"ethPayoutAddress","type":"address","internalType":"address"},{"name":"expiredSwapReservationIndexes","type":"uint256[]","internalType":"uint256[]"}],"outputs":[],"stateMutability":"nonpayable"},{"type":"function","name":"swapReservations","inputs":[{"name":"","type":"uint256","internalType":"uint256"}],"outputs":[{"name":"confirmationBlockHeight","type":"uint32","internalType":"uint32"},{"name":"reservationTimestamp","type":"uint32","internalType":"uint32"},{"name":"unlockTimestamp","type":"uint32","internalType":"uint32"},{"name":"state","type":"uint8","internalType":"enum RiftExchange.ReservationState"},{"name":"ethPayoutAddress","type":"address","internalType":"address"},{"name":"lpReservationHash","type":"bytes32","internalType":"bytes32"},{"name":"nonce","type":"bytes32","internalType":"bytes32"},{"name":"totalSwapAmount","type":"uint256","internalType":"uint256"},{"name":"prepaidFeeAmount","type":"int256","internalType":"int256"}],"stateMutability":"view"},{"type":"function","name":"transferOwnership","inputs":[{"name":"newOwner","type":"address","internalType":"address"}],"outputs":[],"stateMutability":"nonpayable"},{"type":"function","name":"updateExchangeRate","inputs":[{"name":"globalVaultIndex","type":"uint256","internalType":"uint256"},{"name":"localVaultIndex","type":"uint256","internalType":"uint256"},{"name":"newexchangeRate","type":"uint64","internalType":"uint64"},{"name":"expiredReservationIndexes","type":"uint256[]","internalType":"uint256[]"}],"outputs":[],"stateMutability":"nonpayable"},{"type":"function","name":"updateProtocolAddress","inputs":[{"name":"newProtocolAddress","type":"address","internalType":"address payable"}],"outputs":[],"stateMutability":"nonpayable"},{"type":"function","name":"updateProtocolFee","inputs":[{"name":"newProtocolFeeBP","type":"uint8","internalType":"uint8"}],"outputs":[],"stateMutability":"nonpayable"},{"type":"function","name":"updateRewards","inputs":[{"name":"newProverReward","type":"uint256","internalType":"uint256"},{"name":"newReleaserReward","type":"uint256","internalType":"uint256"}],"outputs":[],"stateMutability":"nonpayable"},{"type":"function","name":"validateBlockExists","inputs":[{"name":"blockHeight","type":"uint256","internalType":"uint256"}],"outputs":[],"stateMutability":"view"},{"type":"function","name":"verifierContract","inputs":[],"outputs":[{"name":"","type":"address","internalType":"contract UltraVerifier"}],"stateMutability":"view"},{"type":"function","name":"withdrawLiquidity","inputs":[{"name":"globalVaultIndex","type":"uint256","internalType":"uint256"},{"name":"localVaultIndex","type":"uint256","internalType":"uint256"},{"name":"amountToWithdraw","type":"uint192","internalType":"uint192"},{"name":"expiredReservationIndexes","type":"uint256[]","internalType":"uint256[]"}],"outputs":[],"stateMutability":"nonpayable"},{"type":"event","name":"OwnershipTransferred","inputs":[{"name":"user","type":"address","indexed":true,"internalType":"address"},{"name":"newOwner","type":"address","indexed":true,"internalType":"address"}],"anonymous":false},{"type":"error","name":"BlockDoesNotExist","inputs":[]},{"type":"error","name":"InvaidSameExchangeRatevaultIndex","inputs":[]},{"type":"error","name":"InvalidSafeBlock","inputs":[]},{"type":"error","name":"InvalidUpdateWithActiveReservations","inputs":[]},{"type":"error","name":"InvalidVaultIndex","inputs":[]},{"type":"error","name":"InvalidVaultUpdate","inputs":[]},{"type":"error","name":"NotEnoughLiquidity","inputs":[]},{"type":"error","name":"NotVaultOwner","inputs":[]},{"type":"error","name":"ReservationNotExpired","inputs":[]},{"type":"error","name":"ReservationNotUnlocked","inputs":[]},{"type":"error","name":"StillInChallengePeriod","inputs":[]},{"type":"error","name":"WithdrawalAmountError","inputs":[]},{"type":"error","name":"exchangeRateZero","inputs":[]}],"bytecode":{"object":"0x60e060405260028054601960a21b60ff60a01b19909116179055600880546001600160a01b03191673f39fd6e51aad88f6f4ce6ab8827279cfffb9226617905534801561004b57600080fd5b5060405161387a38038061387a83398101604081905261006a91610309565b6001889055600088815260208190526040808220899055600280546001600160a01b0319166001600160a01b03851690811790915590518392907f8be0079c531659141344cd1fd0a4f28419497f9722a3daafe3b4186f6b6457e0908290a3506001600160a01b0380871660c052851660805260408051808201909152600f81526e02222a827a9a4aa2faa27a5a2a71d1608d1b602082015261010c906101f4565b6080516101189061023e565b6080516001600160a01b031663313ce5676040518163ffffffff1660e01b8152600401602060405180830381865afa158015610158573d6000803e3d6000fd5b505050506040513d601f19601f8201168201806040525081019061017c9190610393565b60ff1660a05260408051808201909152601081526f02a27a5a2a72fa222a1a4a6a0a6299d160851b60208201526101b2906101f4565b60a0516101c19060ff1661028a565b50600392909255600455600880546001600160a01b0319166001600160a01b039092169190911790555061040b92505050565b61023b8160405160240161020891906103bd565b60408051601f198184030181529190526020810180516001600160e01b0390811663104c13eb60e21b179091526102d316565b50565b6040516001600160a01b038216602482015261023b9060440160408051601f198184030181529190526020810180516001600160e01b0390811663161765e160e11b179091526102d316565b61023b816040516024016102a091815260200190565b60408051601f198184030181529190526020810180516001600160e01b0390811663f5b1bba960e01b179091526102d316565b80516a636f6e736f6c652e6c6f67602083016000808483855afa5050505050565b6001600160a01b038116811461023b57600080fd5b600080600080600080600080610100898b03121561032657600080fd5b885160208a015160408b01519199509750610340816102f4565b60608a0151909650610351816102f4565b60808a015160a08b015160c08c01519297509095509350610371816102f4565b60e08a0151909250610382816102f4565b809150509295985092959890939650565b6000602082840312156103a557600080fd5b815160ff811681146103b657600080fd5b9392505050565b602081526000825180602084015260005b818110156103eb57602081860181015160408684010152016103ce565b506000604082850101526040601f19601f83011684010191505092915050565b60805160a05160c0516133ec61048e600039600081816105300152611b2d01526000818161037c015281816124080152818161243501528181612624015261265101526000818161025c01528181610d6901528181610e4d01528181611607015281816116dc0152818161195301528181611c1f015261232601526133ec6000f3fe608060405234801561001057600080fd5b506004361061023d5760003560e01c806397e508181161013b578063cf695688116100b8578063eb4f3c171161007c578063eb4f3c17146105a0578063eb6c7522146105b3578063ed8b2b32146105bd578063ee82ac5e146105d0578063f2fde38b146105f057600080fd5b8063cf6956881461052b578063d57763c314610552578063e6a5e60f14610572578063e9c6c17614610585578063ea6fe03e1461059857600080fd5b8063ad062e55116100ff578063ad062e55146104e0578063aeacb2e7146104e8578063b530ffb1146104fb578063c3a079ed1461050e578063c5fba0b81461051757600080fd5b806397e508181461047f57806398f9e757146104925780639a64279c146104b25780639cc7eab9146104bc5780639cdb8e5a146104c557600080fd5b80635b7f415c116101c95780636dcc17c81161018d5780636dcc17c81461043f57806377891907146104485780637dce55501461045b57806389a11f7a146104635780638da5cb5b1461046c57600080fd5b80635b7f415c146103775780635f4d0610146103b05780635f5d5b6a146103fc5780636512d057146104045780636b994abb1461041757600080fd5b80632d312a4a116102105780632d312a4a1461030b5780633435d9fe1461031e578063490d4c5f1461033e57806356fe6f861461035157806358e2b6761461036457600080fd5b80630a7aa2931461024257806313f6658714610257578063163de0c51461029b578063276d080e146102b2575b600080fd5b6102556102503660046127fa565b610603565b005b61027e7f000000000000000000000000000000000000000000000000000000000000000081565b6040516001600160a01b0390911681526020015b60405180910390f35b6102a460015481565b604051908152602001610292565b6102c56102c0366004612824565b610656565b604051610292919081518152602080830151908201526040808301516001600160401b0316908201526060918201516001600160501b0319169181019190915260800190565b610255610319366004612978565b6106f2565b61033161032c366004612b01565b610ec8565b6040516102929190612c2b565b61025561034c366004612824565b6112b7565b61025561035f366004612c3e565b6112fb565b610255610372366004612c6b565b6113ed565b61039e7f000000000000000000000000000000000000000000000000000000000000000081565b60405160ff9091168152602001610292565b6103c36103be366004612824565b611439565b604051610292949392919093845260208401929092526001600160401b031660408301526001600160501b031916606082015260800190565b6102a4600281565b6102a4610412366004612824565b611481565b61042a610425366004612824565b6114b6565b60405161029299989796959493929190612cc0565b6102a460035481565b610255610456366004612824565b61152c565b6007546102a4565b6102a461708081565b60025461027e906001600160a01b031681565b61025561048d366004612d20565b611795565b6104a56104a0366004612c6b565b6117ca565b6040516102929190612d42565b6102a46203345081565b6102a460045481565b6104cd603281565b60405161ffff9091168152602001610292565b61039e600a81565b6102556104f6366004612d65565b61184d565b610255610509366004612e01565b6119fb565b6102a461025881565b60025461039e90600160a01b900460ff1681565b61027e7f000000000000000000000000000000000000000000000000000000000000000081565b610565610560366004612824565b611cef565b6040516102929190612ef9565b6102a4610580366004612824565b611ef8565b610255610593366004612fd4565b611f26565b6006546102a4565b6102556105ae366004613000565b611fac565b6102a4620668a081565b6102556105cb366004612824565b61235d565b6102a46105de366004612824565b60009081526020819052604090205490565b6102556105fe366004612c6b565b61238c565b6002546001600160a01b031633146106365760405162461bcd60e51b815260040161062d9061305c565b60405180910390fd5b6002805460ff909216600160a01b0260ff60a01b19909216919091179055565b6040805160808101825260008082526020820181905291810182905260608101919091526007828154811061068d5761068d613082565b600091825260209182902060408051608081018252600393909302909101805483526001810154938301939093526002909201546001600160401b03811692820192909252600160401b90910460501b6001600160501b031916606082015292915050565b6000805b845181101561073e5761072a85828151811061071457610714613082565b60200260200101516001600160c01b0316612402565b61073490836130ae565b91506001016106f6565b5060025460009061075c9061271090600160a01b900460ff166130d7565b61076a9061ffff16836130fb565b90506000600261077d48620668a06130fb565b61078791906130fb565b60035461079491906130ae565b9050600060026107a748620334506130fb565b6107b191906130fb565b6004546107be91906130ae565b90506107c985612474565b6107d285612503565b6000805b89518110156109ba5760028982815181106107f3576107f3613082565b602002602001015160078c848151811061080f5761080f613082565b60200260200101518154811061082757610827613082565b906000526020600020906003020160020160009054906101000a90046001600160401b031660078d858151811061086057610860613082565b60200260200101518154811061087857610878613082565b600091825260209182902060026003909202010154604080516001600160c01b03909516928501929092526001600160401b03909216908301526001600160501b0319600160401b90910460501b1660608201526080810184905260a00160408051601f19818403018152908290526108f091613136565b602060405180830381855afa15801561090d573d6000803e3d6000fd5b5050506040513d601f19601f820116820180604052508101906109309190613152565b915060078a828151811061094657610946613082565b60200260200101518154811061095e5761095e613082565b90600052602060002090600302016001015489828151811061098257610982613082565b60200260200101516001600160c01b031611156109b257604051634323a55560e01b815260040160405180910390fd5b6001016107d6565b50855115610af95760006006876000815181106109d9576109d9613082565b6020026020010151815481106109f1576109f1613082565b6000918252602090912060089091020180546001820180546001600160a01b0319166001600160a01b038c16179055600160601b6cffffffffffffffffffffffffff199091166401000000004263ffffffff16026bffffffff00000000ffffffff1916171781559050610a6483856130ae565b600582015560048101869055600654604080516001600160a01b038b16602082015242918101919091524660608201526080810184905260a081019190915260c00160408051601f19818403018152919052805160209182012060038301558a51610ad7916006840191908d0190612749565b508851610aed90600783019060208c0190612790565b50600201819055610ce4565b604080516101608101825260008082524263ffffffff1660208301529181019190915260069060608101600181526001600160a01b038a16602080830182905260408084018790526006548151928301939093524290820152466060828101919091526080820187905260a082019290925291019060c0016040516020818303038152906040528051906020012081526020018781526020018486610b9e91906130ae565b815260208082018d905260409182018c9052835460018101855560009485529381902083516008909502018054918401519284015163ffffffff908116600160401b026bffffffff0000000000000000199482166401000000000267ffffffffffffffff199094169190961617919091179182168417815560608301519293909291839160ff60601b19166cffffffffff00000000000000001990911617600160601b836004811115610c5357610c53612c88565b021790555060808201516001820180546001600160a01b0319166001600160a01b0390921691909117905560a0820151600282015560c0820151600382015560e0820151600482015561010082015160058201556101208201518051610cc3916006840191602090910190612749565b506101408201518051610ce0916007840191602090910190612790565b5050505b60005b8951811015610d5e57610d0589828151811061071457610714613082565b60078b8381518110610d1957610d19613082565b602002602001015181548110610d3157610d31613082565b90600052602060002090600302016001016000828254610d51919061316b565b9091555050600101610ce7565b506001600160a01b037f0000000000000000000000000000000000000000000000000000000000000000166323b872dd333085610d9b89896130ae565b610da591906130ae565b6040516001600160e01b031960e086901b1681526001600160a01b03938416600482015292909116602483015260448201526064016020604051808303816000875af1158015610df9573d6000803e3d6000fd5b505050506040513d601f19601f82011682018060405250810190610e1d919061317e565b506008546040516323b872dd60e01b81523060048201526001600160a01b039182166024820152604481018690527f0000000000000000000000000000000000000000000000000000000000000000909116906323b872dd906064016020604051808303816000875af1158015610e98573d6000803e3d6000fd5b505050506040513d601f19601f82011682018060405250810190610ebc919061317e565b50505050505050505050565b6040805160248082526104a08201909252606091600091906020820161048080368337019050509050610efe8360000151612610565b81600081518110610f1157610f11613082565b6020908102919091010152825160ff1681600181518110610f3457610f34613082565b602002602001018181525050610f4d8360200151612610565b81600281518110610f6057610f60613082565b602002602001018181525050610f7a836020015160ff1690565b81600381518110610f8d57610f8d613082565b602002602001018181525050610fa68360400151612610565b81600481518110610fb957610fb9613082565b6020908102919091010152604083015160ff1681600581518110610fdf57610fdf613082565b60200260200101818152505082606001516001600160401b031660001b8160068151811061100f5761100f613082565b60200260200101818152505082608001516001600160401b031660001b8160078151811061103f5761103f613082565b6020026020010181815250506110588360a00151612610565b8160088151811061106b5761106b613082565b602090810291909101015260a083015160ff168160098151811061109157611091613082565b6020026020010181815250506110aa8360c00151612610565b81600a815181106110bd576110bd613082565b602090810291909101015260c083015160ff1681600b815181106110e3576110e3613082565b6020026020010181815250506110fc8360e00151612610565b81600c8151811061110f5761110f613082565b602090810291909101015260e083015160ff1681600d8151811061113557611135613082565b60200260200101818152505061114f836101000151612610565b81600e8151811061116257611162613082565b602090810291909101015261010083015160ff1681600f8151811061118957611189613082565b6020026020010181815250508261012001516001600160401b031660001b816010815181106111ba576111ba613082565b6020026020010181815250508261014001516001600160401b031660001b816011815181106111eb576111eb613082565b6020026020010181815250508261016001516001600160401b031660001b8160128151811061121c5761121c613082565b6020026020010181815250508261018001516001600160401b031660001b8160138151811061124d5761124d613082565b60200260200101818152505060005b60108110156112b057836101a00151816010811061127c5761127c613082565b60200201518261128d8360146130ae565b8151811061129d5761129d613082565b602090810291909101015260010161125c565b5092915050565b6000600782815481106112cc576112cc613082565b600091825260208220600390910201818155600181019190915560020180546001600160f01b03191690555050565b33600090815260056020526040902080548591908590811061131f5761131f613082565b90600052602060002001541461134857604051630e7fea9d60e01b815260040160405180910390fd5b816001600160401b031660000361137257604051636e5a187760e11b815260040160405180910390fd5b60006007858154811061138757611387613082565b906000526020600020906003020190506113a082612503565b80546001820154146113c5576040516391bc6cc360e01b815260040160405180910390fd5b600201805467ffffffffffffffff19166001600160401b039390931692909217909155505050565b6002546001600160a01b031633146114175760405162461bcd60e51b815260040161062d9061305c565b600880546001600160a01b0319166001600160a01b0392909216919091179055565b6007818154811061144957600080fd5b60009182526020909120600390910201805460018201546002909201549092506001600160401b03811690600160401b900460501b84565b60006114b06007838154811061149957611499613082565b90600052602060002090600302016001015461261e565b92915050565b600681815481106114c657600080fd5b600091825260209091206008909102018054600182015460028301546003840154600485015460059095015463ffffffff80861697506401000000008604811696600160401b870490911695600160601b900460ff16946001600160a01b031693929189565b60006006828154811061154157611541613082565b60009182526020909120600890910201905060028154600160601b900460ff16600481111561157257611572612c88565b146115905760405163b38c767b60e01b815260040160405180910390fd5b8054610258906115ad90600160401b900463ffffffff164261316b565b10156115cc57604051632d5c37f560e21b815260040160405180910390fd5b60006115db48620334506130fb565b6004546115e891906130ae565b60405163a9059cbb60e01b8152336004820152602481018290529091507f00000000000000000000000000000000000000000000000000000000000000006001600160a01b03169063a9059cbb906044016020604051808303816000875af1158015611658573d6000803e3d6000fd5b505050506040513d601f19601f8201168201806040525081019061167c919061317e565b508082600501600082825461169191906131a0565b90915550506005820154600013156116c85781600501548260040160008282546116bb91906130ae565b9091555050600060058301555b600182015460048301546001600160a01b037f000000000000000000000000000000000000000000000000000000000000000081169263a9059cbb929116906117109061261e565b6040516001600160e01b031960e085901b1681526001600160a01b03909216600483015260248201526044016020604051808303816000875af115801561175b573d6000803e3d6000fd5b505050506040513d601f19601f8201168201806040525081019061177f919061317e565b5050805460ff60601b1916600160621b17905550565b6002546001600160a01b031633146117bf5760405162461bcd60e51b815260040161062d9061305c565b600391909155600455565b6040805160208082018352606082526001600160a01b0384166000908152600582528390208351815480840282018601865292810183815293949093919284929184919084018282801561183d57602002820191906000526020600020905b815481526020019060010190808311611829575b5050505050815250509050919050565b6000611861836001600160c01b0316612402565b336000908152600560205260409020805491925086918690811061188757611887613082565b9060005260206000200154146118b057604051630e7fea9d60e01b815260040160405180910390fd5b6118b982612503565b60075485106118db5760405163721e09df60e01b815260040160405180910390fd5b6000600786815481106118f0576118f0613082565b9060005260206000209060030201905081600014806119125750806001015482115b156119305760405163b4e3d41360e01b815260040160405180910390fd5b81816001016000828254611944919061316b565b90915550506001600160a01b037f00000000000000000000000000000000000000000000000000000000000000001663a9059cbb336119828561261e565b6040516001600160e01b031960e085901b1681526001600160a01b03909216600483015260248201526044015b6020604051808303816000875af11580156119ce573d6000803e3d6000fd5b505050506040513d601f19601f820116820180604052508101906119f2919061317e565b50505050505050565b600060068681548110611a1057611a10613082565b906000526020600020906008020190506000611b13604051806101c001604052808e8152602001846002015481526020018460030154815260200184600401546001600160401b0316815260200184600601805490506001600160401b031681526020018d81526020018c8152602001611a9c8b63ffffffff1660009081526020819052604090205490565b81526020018b81526020018a63ffffffff166001600160401b031681526020018a63ffffffff1689611ace91906131c0565b6001600160401b03168152602001611ae689896131c0565b6001600160401b03168152602001611afd8961268c565b6001600160401b03168152602001869052610ec8565b604051633a94343960e21b81529091506001600160a01b037f0000000000000000000000000000000000000000000000000000000000000000169063ea50d0e490611b64908690859060040161320b565b602060405180830381865afa158015611b81573d6000803e3d6000fd5b505050506040513d601f19601f82011682018060405250810190611ba5919061317e565b50611bc08863ffffffff16876001600160401b03168c611f26565b8154600160611b6cff0000000000000000ffffffff1990911663ffffffff8a16171782556000611bf348620668a06130fb565b600354611c0091906130ae565b60405163a9059cbb60e01b8152336004820152602481018290529091507f00000000000000000000000000000000000000000000000000000000000000006001600160a01b03169063a9059cbb906044016020604051808303816000875af1158015611c70573d6000803e3d6000fd5b505050506040513d601f19601f82011682018060405250810190611c94919061317e565b5080836005016000828254611ca991906131a0565b9091555050600583015460001315611ce0578260050154836004016000828254611cd391906130ae565b9091555050600060058401555b50505050505050505050505050565b604080516101608101825260008082526020820181905291810182905260608082018390526080820183905260a0820183905260c0820183905260e08201839052610100820192909252610120810182905261014081019190915260068281548110611d5d57611d5d613082565b600091825260209182902060408051610160810182526008909302909101805463ffffffff80821685526401000000008204811695850195909552600160401b8104909416918301919091529091606083019060ff600160601b909104166004811115611dcc57611dcc612c88565b6004811115611ddd57611ddd612c88565b81526020016001820160009054906101000a90046001600160a01b03166001600160a01b03166001600160a01b031681526020016002820154815260200160038201548152602001600482015481526020016005820154815260200160068201805480602002602001604051908101604052809291908181526020018280548015611e8757602002820191906000526020600020905b815481526020019060010190808311611e73575b505050505081526020016007820180548060200260200160405190810160405280929190818152602001828054801561183d57602002820191906000526020600020905b81546001600160c01b03168152600190910190602001808311611ecb575050505050815250509050919050565b600060078281548110611f0d57611f0d613082565b9060005260206000209060030201600101549050919050565b60015480841115611f4a5760405163575f3da360e01b815260040160405180910390fd5b8084108015611f595750808310155b15611f9657835b81811015611f945760008181526020819052604090205415611f8c576000818152602081905260408120555b600101611f60565b505b5060008281526020819052604090205560015550565b611fdd6040518060400160405280601081526020016f6465706f7369744c697175696469747960801b8152506126a4565b61200e6040518060400160405280600f81526020016e02232b837b9b4ba20b6b7bab73a1d1608d1b815250836126e7565b600061201983612402565b905061205a6040518060400160405280601781526020017f696e7465726e616c4465706f736974416d6f756e743a20000000000000000000815250826126e7565b846001600160401b031660000361208457604051635c4ad48d60e11b815260040160405180910390fd5b3360009081526005602052604081205490036120d2576040805160006020808301828152838501855283523382526005815292902081518051929391926120ce9284920190612749565b5050505b816000191461215e5760008290506000600782815481106120f5576120f5613082565b6000918252602090912060039091020160028101549091506001600160401b0388811691160361213e578281600101600082825461213391906130ae565b909155506121579050565b60405163927ce9e760e01b815260040160405180910390fd5b50506122d0565b83600019146121ea5760006007858154811061217c5761217c613082565b9060005260206000209060030201905080600101546000146121b15760405163721e09df60e01b815260040160405180910390fd5b818155600181018290556002018054605088901c600160401b026001600160f01b03199091166001600160401b038816171790556122d0565b60408051608081018252828152602081018381526001600160401b038089169383019384526001600160501b03198a166060840190815260078054600181018255600091909152935160039094027fa66cc928b5edb82af9bd49922954155ab7b0942694bea4ce44661d9a8736c68881019490945591517fa66cc928b5edb82af9bd49922954155ab7b0942694bea4ce44661d9a8736c68984015592517fa66cc928b5edb82af9bd49922954155ab7b0942694bea4ce44661d9a8736c68a9092018054915160501c600160401b026001600160f01b031990921692909316919091171790555b3360009081526005602052604090206007546122ee9060019061316b565b815460018101835560009283526020909220909101556040516323b872dd60e01b8152336004820152306024820152604481018490527f00000000000000000000000000000000000000000000000000000000000000006001600160a01b0316906323b872dd906064016119af565b6000818152602081905260409020546123895760405163fa4a5e4560e01b815260040160405180910390fd5b50565b6002546001600160a01b031633146123b65760405162461bcd60e51b815260040161062d9061305c565b600280546001600160a01b0319166001600160a01b03831690811790915560405133907f8be0079c531659141344cd1fd0a4f28419497f9722a3daafe3b4186f6b6457e090600090a350565b600060127f000000000000000000000000000000000000000000000000000000000000000060ff1610156124705761245b7f00000000000000000000000000000000000000000000000000000000000000006012613230565b61246690600a613330565b6114b090836130fb565b5090565b60005b81518110156124ff57617080600683838151811061249757612497613082565b6020026020010151815481106124af576124af613082565b60009182526020909120600890910201546124d890640100000000900463ffffffff164261316b565b10156124f7576040516326349d6b60e01b815260040160405180910390fd5b600101612477565b5050565b60005b81518110156124ff5761251882612474565b6000600683838151811061252e5761252e613082565b60200260200101518154811061254657612546613082565b9060005260206000209060080201905060005b60068201548110156125f6576000600783600601838154811061257e5761257e613082565b90600052602060002001548154811061259957612599613082565b906000526020600020906003020190508260070182815481106125be576125be613082565b60009182526020822001546001830180546001600160c01b039092169290916125e89084906130ae565b909155505050600101612559565b50805460ff60601b1916600360601b179055600101612506565b60006114b06101008361333f565b600060127f000000000000000000000000000000000000000000000000000000000000000060ff161015612470576126777f00000000000000000000000000000000000000000000000000000000000000006012613230565b61268290600a613330565b6114b0908361333f565b600061269a6107e083613353565b6114b090836131c0565b612389816040516024016126b89190613381565b60408051601f198184030181529190526020810180516001600160e01b031663104c13eb60e21b179052612728565b6124ff82826040516024016126fd929190613394565b60408051601f198184030181529190526020810180516001600160e01b03166309710a9d60e41b1790525b80516a636f6e736f6c652e6c6f67602083016000808483855afa5050505050565b828054828255906000526020600020908101928215612784579160200282015b82811115612784578251825591602001919060010190612769565b506124709291506127e5565b828054828255906000526020600020908101928215612784579160200282015b8281111561278457825182546001600160c01b0319166001600160c01b039091161782556020909201916001909101906127b0565b5b8082111561247057600081556001016127e6565b60006020828403121561280c57600080fd5b813560ff8116811461281d57600080fd5b9392505050565b60006020828403121561283657600080fd5b5035919050565b634e487b7160e01b600052604160045260246000fd5b6040516101c081016001600160401b03811182821017156128765761287661283d565b60405290565b604051601f8201601f191681016001600160401b03811182821017156128a4576128a461283d565b604052919050565b60006001600160401b038211156128c5576128c561283d565b5060051b60200190565b600082601f8301126128e057600080fd5b81356128f36128ee826128ac565b61287c565b8082825260208201915060208360051b86010192508583111561291557600080fd5b602085015b8381101561293257803583526020928301920161291a565b5095945050505050565b80356001600160c01b038116811461295357600080fd5b919050565b6001600160a01b038116811461238957600080fd5b803561295381612958565b6000806000806080858703121561298e57600080fd5b84356001600160401b038111156129a457600080fd5b6129b0878288016128cf565b94505060208501356001600160401b038111156129cc57600080fd5b8501601f810187136129dd57600080fd5b80356129eb6128ee826128ac565b8082825260208201915060208360051b850101925089831115612a0d57600080fd5b6020840193505b82841015612a3657612a258461293c565b825260209384019390910190612a14565b9550612a48925050506040860161296d565b915060608501356001600160401b03811115612a6357600080fd5b612a6f878288016128cf565b91505092959194509250565b80356001600160401b038116811461295357600080fd5b600082601f830112612aa357600080fd5b60405161020081016001600160401b0381118282101715612ac657612ac661283d565b60405280610200840185811115612adc57600080fd5b845b81811015612af6578035835260209283019201612ade565b509195945050505050565b60006103a0828403128015612b1557600080fd5b506000612b20612853565b833581526020808501359082015260408085013590820152612b4460608501612a7b565b6060820152612b5560808501612a7b565b608082015260a0848101359082015260c0808501359082015260e08085013590820152610100808501359082018190529150612b946101208501612a7b565b610120820152612ba76101408501612a7b565b610140820152612bba6101608501612a7b565b610160820152612bcd6101808501612a7b565b610180820152612be1856101a08601612a92565b6101a0820152949350505050565b600081518084526020840193506020830160005b82811015612c21578151865260209586019590910190600101612c03565b5093949350505050565b60208152600061281d6020830184612bef565b60008060008060808587031215612c5457600080fd5b8435935060208501359250612a4860408601612a7b565b600060208284031215612c7d57600080fd5b813561281d81612958565b634e487b7160e01b600052602160045260246000fd5b60058110612cbc57634e487b7160e01b600052602160045260246000fd5b9052565b63ffffffff8a811682528981166020830152881660408201526101208101612ceb6060830189612c9e565b6001600160a01b0396909616608082015260a081019490945260c084019290925260e083015261010090910152949350505050565b60008060408385031215612d3357600080fd5b50508035926020909101359150565b6020815260008251602080840152612d5d6040840182612bef565b949350505050565b60008060008060808587031215612d7b57600080fd5b8435935060208501359250612a486040860161293c565b600082601f830112612da357600080fd5b81356001600160401b03811115612dbc57612dbc61283d565b612dcf601f8201601f191660200161287c565b818152846020838601011115612de457600080fd5b816020850160208301376000918101602001919091529392505050565b6000806000806000806000806000806103208b8d031215612e2157600080fd5b8a35995060208b0135985060408b0135975060608b0135965060808b013563ffffffff81168114612e5157600080fd5b955060a08b01359450612e6660c08c01612a7b565b9350612e7460e08c01612a7b565b9250612e848c6101008d01612a92565b91506103008b01356001600160401b03811115612ea057600080fd5b612eac8d828e01612d92565b9150509295989b9194979a5092959850565b600081518084526020840193506020830160005b82811015612c215781516001600160c01b0316865260209586019590910190600101612ed2565b60208152612f1060208201835163ffffffff169052565b60006020830151612f29604084018263ffffffff169052565b50604083015163ffffffff81166060840152506060830151612f4e6080840182612c9e565b5060808301516001600160a01b03811660a08401525060a083015160c083015260c083015160e083015260e0830151610100830152610100830151610120830152610120830151610160610140840152612fac610180840182612bef565b9050610140840151601f1984830301610160850152612fcb8282612ebe565b95945050505050565b600080600060608486031215612fe957600080fd5b505081359360208301359350604090920135919050565b600080600080600060a0868803121561301857600080fd5b85356001600160501b03198116811461303057600080fd5b945061303e60208701612a7b565b94979496505050506040830135926060810135926080909101359150565b6020808252600c908201526b15539055551213d49256915160a21b604082015260600190565b634e487b7160e01b600052603260045260246000fd5b634e487b7160e01b600052601160045260246000fd5b808201808211156114b0576114b0613098565b634e487b7160e01b600052601260045260246000fd5b600061ffff8316806130eb576130eb6130c1565b8061ffff84160491505092915050565b80820281158282048414176114b0576114b0613098565b60005b8381101561312d578181015183820152602001613115565b50506000910152565b60008251613148818460208701613112565b9190910192915050565b60006020828403121561316457600080fd5b5051919050565b818103818111156114b0576114b0613098565b60006020828403121561319057600080fd5b8151801515811461281d57600080fd5b81810360008312801583831316838312821617156112b0576112b0613098565b6001600160401b0382811682821603908111156114b0576114b0613098565b600081518084526131f7816020860160208601613112565b601f01601f19169290920160200192915050565b60408152600061321e60408301856131df565b8281036020840152612fcb8185612bef565b60ff82811682821603908111156114b0576114b0613098565b6001815b60018411156132845780850481111561326857613268613098565b600184161561327657908102905b60019390931c92800261324d565b935093915050565b60008261329b575060016114b0565b816132a8575060006114b0565b81600181146132be57600281146132c8576132e4565b60019150506114b0565b60ff8411156132d9576132d9613098565b50506001821b6114b0565b5060208310610133831016604e8410600b8410161715613307575081810a6114b0565b6133146000198484613249565b806000190482111561332857613328613098565b029392505050565b600061281d60ff84168361328c565b60008261334e5761334e6130c1565b500490565b60006001600160401b0383168061336c5761336c6130c1565b806001600160401b0384160691505092915050565b60208152600061281d60208301846131df565b6040815260006133a760408301856131df565b9050826020830152939250505056fea2646970667358221220940063939c516e5f31d567f543fa3e549a888b45a5126e7065701c7f91e927d264736f6c634300081a0033","linkReferences":{}},"methodIdentifiers":{"CHALLENGE_PERIOD()":"c3a079ed","DEPOSIT_TOKEN()":"13f66587","MAX_DEPOSIT_OUTPUTS()":"9cdb8e5a","MIN_ORDER_GAS_MULTIPLIER()":"5f5d5b6a","PROOF_GAS_COST()":"eb6c7522","RELEASE_GAS_COST()":"9a64279c","RESERVATION_LOCKUP_PERIOD()":"89a11f7a","SAMPLING_SIZE()":"ad062e55","TOKEN_DECIMALS()":"5b7f415c","addBlock(uint256,uint256,bytes32)":"e9c6c176","buildProofPublicInputs((bytes32,bytes32,bytes32,uint64,uint64,bytes32,bytes32,bytes32,bytes32,uint64,uint64,uint64,uint64,bytes32[16]))":"3435d9fe","currentHeight()":"163de0c5","depositLiquidity(bytes22,uint64,int256,uint256,int256)":"eb4f3c17","depositVaults(uint256)":"5f4d0610","emptyDepositVault(uint256)":"490d4c5f","getBlockHash(uint256)":"ee82ac5e","getDepositVault(uint256)":"276d080e","getDepositVaultUnreservedBalance(uint256)":"6512d057","getDepositVaultUnreservedBalanceInternalPrecision(uint256)":"e6a5e60f","getDepositVaultsLength()":"7dce5550","getLiquidityProvider(address)":"98f9e757","getReservation(uint256)":"d57763c3","getReservationLength()":"ea6fe03e","owner()":"8da5cb5b","proposeTransactionProof(bytes32,bytes32,bytes32,bytes32,uint32,uint256,uint64,uint64,bytes32[16],bytes)":"b530ffb1","protocolFeeBP()":"c5fba0b8","proverReward()":"6dcc17c8","releaseLiquidity(uint256)":"77891907","releaserReward()":"9cc7eab9","reserveLiquidity(uint256[],uint192[],address,uint256[])":"2d312a4a","swapReservations(uint256)":"6b994abb","transferOwnership(address)":"f2fde38b","updateExchangeRate(uint256,uint256,uint64,uint256[])":"56fe6f86","updateProtocolAddress(address)":"58e2b676","updateProtocolFee(uint8)":"0a7aa293","updateRewards(uint256,uint256)":"97e50818","validateBlockExists(uint256)":"ed8b2b32","verifierContract()":"cf695688","withdrawLiquidity(uint256,uint256,uint192,uint256[])":"aeacb2e7"},"storageLayout":{"storage":[{"astId":47212,"contract":"src/RiftExchange.sol:RiftExchange","label":"blockchain","offset":0,"slot":"0","type":"t_mapping(t_uint256,t_bytes32)"},{"astId":47214,"contract":"src/RiftExchange.sol:RiftExchange","label":"currentHeight","offset":0,"slot":"1","type":"t_uint256"},{"astId":46598,"contract":"src/RiftExchange.sol:RiftExchange","label":"owner","offset":0,"slot":"2","type":"t_address"},{"astId":47843,"contract":"src/RiftExchange.sol:RiftExchange","label":"protocolFeeBP","offset":20,"slot":"2","type":"t_uint8"},{"astId":47845,"contract":"src/RiftExchange.sol:RiftExchange","label":"proverReward","offset":0,"slot":"3","type":"t_uint256"},{"astId":47847,"contract":"src/RiftExchange.sol:RiftExchange","label":"releaserReward","offset":0,"slot":"4","type":"t_uint256"},{"astId":47902,"contract":"src/RiftExchange.sol:RiftExchange","label":"liquidityProviders","offset":0,"slot":"5","type":"t_mapping(t_address,t_struct(LiquidityProvider)47856_storage)"},{"astId":47906,"contract":"src/RiftExchange.sol:RiftExchange","label":"swapReservations","offset":0,"slot":"6","type":"t_array(t_struct(SwapReservation)47897_storage)dyn_storage"},{"astId":47910,"contract":"src/RiftExchange.sol:RiftExchange","label":"depositVaults","offset":0,"slot":"7","type":"t_array(t_struct(DepositVault)47865_storage)dyn_storage"},{"astId":47919,"contract":"src/RiftExchange.sol:RiftExchange","label":"protocolAddress","offset":0,"slot":"8","type":"t_address_payable"}],"types":{"t_address":{"encoding":"inplace","label":"address","numberOfBytes":"20"},"t_address_payable":{"encoding":"inplace","label":"address payable","numberOfBytes":"20"},"t_array(t_struct(DepositVault)47865_storage)dyn_storage":{"encoding":"dynamic_array","label":"struct RiftExchange.DepositVault[]","numberOfBytes":"32","base":"t_struct(DepositVault)47865_storage"},"t_array(t_struct(SwapReservation)47897_storage)dyn_storage":{"encoding":"dynamic_array","label":"struct RiftExchange.SwapReservation[]","numberOfBytes":"32","base":"t_struct(SwapReservation)47897_storage"},"t_array(t_uint192)dyn_storage":{"encoding":"dynamic_array","label":"uint192[]","numberOfBytes":"32","base":"t_uint192"},"t_array(t_uint256)dyn_storage":{"encoding":"dynamic_array","label":"uint256[]","numberOfBytes":"32","base":"t_uint256"},"t_bytes22":{"encoding":"inplace","label":"bytes22","numberOfBytes":"22"},"t_bytes32":{"encoding":"inplace","label":"bytes32","numberOfBytes":"32"},"t_enum(ReservationState)47871":{"encoding":"inplace","label":"enum RiftExchange.ReservationState","numberOfBytes":"1"},"t_int256":{"encoding":"inplace","label":"int256","numberOfBytes":"32"},"t_mapping(t_address,t_struct(LiquidityProvider)47856_storage)":{"encoding":"mapping","key":"t_address","label":"mapping(address => struct RiftExchange.LiquidityProvider)","numberOfBytes":"32","value":"t_struct(LiquidityProvider)47856_storage"},"t_mapping(t_uint256,t_bytes32)":{"encoding":"mapping","key":"t_uint256","label":"mapping(uint256 => bytes32)","numberOfBytes":"32","value":"t_bytes32"},"t_struct(DepositVault)47865_storage":{"encoding":"inplace","label":"struct RiftExchange.DepositVault","numberOfBytes":"96","members":[{"astId":47858,"contract":"src/RiftExchange.sol:RiftExchange","label":"initialBalance","offset":0,"slot":"0","type":"t_uint256"},{"astId":47860,"contract":"src/RiftExchange.sol:RiftExchange","label":"unreservedBalance","offset":0,"slot":"1","type":"t_uint256"},{"astId":47862,"contract":"src/RiftExchange.sol:RiftExchange","label":"exchangeRate","offset":0,"slot":"2","type":"t_uint64"},{"astId":47864,"contract":"src/RiftExchange.sol:RiftExchange","label":"btcPayoutLockingScript","offset":8,"slot":"2","type":"t_bytes22"}]},"t_struct(LiquidityProvider)47856_storage":{"encoding":"inplace","label":"struct RiftExchange.LiquidityProvider","numberOfBytes":"32","members":[{"astId":47855,"contract":"src/RiftExchange.sol:RiftExchange","label":"depositVaultIndexes","offset":0,"slot":"0","type":"t_array(t_uint256)dyn_storage"}]},"t_struct(SwapReservation)47897_storage":{"encoding":"inplace","label":"struct RiftExchange.SwapReservation","numberOfBytes":"256","members":[{"astId":47873,"contract":"src/RiftExchange.sol:RiftExchange","label":"confirmationBlockHeight","offset":0,"slot":"0","type":"t_uint32"},{"astId":47875,"contract":"src/RiftExchange.sol:RiftExchange","label":"reservationTimestamp","offset":4,"slot":"0","type":"t_uint32"},{"astId":47877,"contract":"src/RiftExchange.sol:RiftExchange","label":"unlockTimestamp","offset":8,"slot":"0","type":"t_uint32"},{"astId":47880,"contract":"src/RiftExchange.sol:RiftExchange","label":"state","offset":12,"slot":"0","type":"t_enum(ReservationState)47871"},{"astId":47882,"contract":"src/RiftExchange.sol:RiftExchange","label":"ethPayoutAddress","offset":0,"slot":"1","type":"t_address"},{"astId":47884,"contract":"src/RiftExchange.sol:RiftExchange","label":"lpReservationHash","offset":0,"slot":"2","type":"t_bytes32"},{"astId":47886,"contract":"src/RiftExchange.sol:RiftExchange","label":"nonce","offset":0,"slot":"3","type":"t_bytes32"},{"astId":47888,"contract":"src/RiftExchange.sol:RiftExchange","label":"totalSwapAmount","offset":0,"slot":"4","type":"t_uint256"},{"astId":47890,"contract":"src/RiftExchange.sol:RiftExchange","label":"prepaidFeeAmount","offset":0,"slot":"5","type":"t_int256"},{"astId":47893,"contract":"src/RiftExchange.sol:RiftExchange","label":"vaultIndexes","offset":0,"slot":"6","type":"t_array(t_uint256)dyn_storage"},{"astId":47896,"contract":"src/RiftExchange.sol:RiftExchange","label":"amountsToReserve","offset":0,"slot":"7","type":"t_array(t_uint192)dyn_storage"}]},"t_uint192":{"encoding":"inplace","label":"uint192","numberOfBytes":"24"},"t_uint256":{"encoding":"inplace","label":"uint256","numberOfBytes":"32"},"t_uint32":{"encoding":"inplace","label":"uint32","numberOfBytes":"4"},"t_uint64":{"encoding":"inplace","label":"uint64","numberOfBytes":"8"},"t_uint8":{"encoding":"inplace","label":"uint8","numberOfBytes":"1"}}},"id":29}