{"abi":[{"type":"constructor","inputs":[],"stateMutability":"nonpayable"},{"type":"function","name":"UPGRADE_INTERFACE_VERSION","inputs":[],"outputs":[{"name":"","type":"string","internalType":"string"}],"stateMutability":"view"},{"type":"function","name":"addPermissionedHypernode","inputs":[{"name":"hypernode","type":"address","internalType":"address"}],"outputs":[],"stateMutability":"nonpayable"},{"type":"function","name":"bpScale","inputs":[],"outputs":[{"name":"","type":"uint256","internalType":"uint256"}],"stateMutability":"view"},{"type":"function","name":"buildPublicInputs","inputs":[{"name":"swapReservationIndex","type":"uint256","internalType":"uint256"},{"name":"bitcoinTxId","type":"bytes32","internalType":"bytes32"},{"name":"merkleRoot","type":"bytes32","internalType":"bytes32"},{"name":"safeBlockHeight","type":"uint32","internalType":"uint32"},{"name":"proposedBlockHeight","type":"uint64","internalType":"uint64"},{"name":"confirmationBlockHeight","type":"uint64","internalType":"uint64"},{"name":"blockHashes","type":"bytes32[]","internalType":"bytes32[]"},{"name":"blockChainworks","type":"uint256[]","internalType":"uint256[]"},{"name":"isTransactionProof","type":"bool","internalType":"bool"}],"outputs":[{"name":"","type":"tuple","internalType":"struct RiftExchange.ProofPublicInputs","components":[{"name":"natural_txid","type":"bytes32","internalType":"bytes32"},{"name":"merkle_root","type":"bytes32","internalType":"bytes32"},{"name":"lp_reservation_hash","type":"bytes32","internalType":"bytes32"},{"name":"order_nonce","type":"bytes32","internalType":"bytes32"},{"name":"lp_count","type":"uint64","internalType":"uint64"},{"name":"retarget_block_hash","type":"bytes32","internalType":"bytes32"},{"name":"safe_block_height","type":"uint64","internalType":"uint64"},{"name":"safe_block_height_delta","type":"uint64","internalType":"uint64"},{"name":"confirmation_block_height_delta","type":"uint64","internalType":"uint64"},{"name":"block_hashes","type":"bytes32[]","internalType":"bytes32[]"},{"name":"block_chainworks","type":"uint256[]","internalType":"uint256[]"},{"name":"is_transaction_proof","type":"bool","internalType":"bool"}]}],"stateMutability":"view"},{"type":"function","name":"calculateRetargetHeight","inputs":[{"name":"blockHeight","type":"uint256","internalType":"uint256"}],"outputs":[{"name":"","type":"uint256","internalType":"uint256"}],"stateMutability":"pure"},{"type":"function","name":"challengePeriod","inputs":[],"outputs":[{"name":"","type":"uint32","internalType":"uint32"}],"stateMutability":"view"},{"type":"function","name":"circuitVerificationKey","inputs":[],"outputs":[{"name":"","type":"bytes32","internalType":"bytes32"}],"stateMutability":"view"},{"type":"function","name":"currentHeight","inputs":[],"outputs":[{"name":"","type":"uint256","internalType":"uint256"}],"stateMutability":"view"},{"type":"function","name":"depositLiquidity","inputs":[{"name":"depositAmount","type":"uint256","internalType":"uint256"},{"name":"exchangeRate","type":"uint64","internalType":"uint64"},{"name":"btcPayoutLockingScript","type":"bytes22","internalType":"bytes22"}],"outputs":[],"stateMutability":"nonpayable"},{"type":"function","name":"depositToken","inputs":[],"outputs":[{"name":"","type":"address","internalType":"contract IERC20"}],"stateMutability":"view"},{"type":"function","name":"depositVaults","inputs":[{"name":"","type":"uint256","internalType":"uint256"}],"outputs":[{"name":"owner","type":"address","internalType":"address"},{"name":"depositTimestamp","type":"uint64","internalType":"uint64"},{"name":"initialBalance","type":"uint256","internalType":"uint256"},{"name":"unreservedBalance","type":"uint256","internalType":"uint256"},{"name":"withdrawnAmount","type":"uint256","internalType":"uint256"},{"name":"exchangeRate","type":"uint64","internalType":"uint64"},{"name":"btcPayoutLockingScript","type":"bytes22","internalType":"bytes22"}],"stateMutability":"view"},{"type":"function","name":"getAreDepositsPaused","inputs":[],"outputs":[{"name":"","type":"bool","internalType":"bool"}],"stateMutability":"view"},{"type":"function","name":"getBlockHash","inputs":[{"name":"blockHeight","type":"uint256","internalType":"uint256"}],"outputs":[{"name":"","type":"bytes32","internalType":"bytes32"}],"stateMutability":"view"},{"type":"function","name":"getChainwork","inputs":[{"name":"blockHeight","type":"uint256","internalType":"uint256"}],"outputs":[{"name":"","type":"uint256","internalType":"uint256"}],"stateMutability":"view"},{"type":"function","name":"getDepositVault","inputs":[{"name":"depositIndex","type":"uint256","internalType":"uint256"}],"outputs":[{"name":"","type":"tuple","internalType":"struct RiftExchange.DepositVault","components":[{"name":"owner","type":"address","internalType":"address"},{"name":"depositTimestamp","type":"uint64","internalType":"uint64"},{"name":"initialBalance","type":"uint256","internalType":"uint256"},{"name":"unreservedBalance","type":"uint256","internalType":"uint256"},{"name":"withdrawnAmount","type":"uint256","internalType":"uint256"},{"name":"exchangeRate","type":"uint64","internalType":"uint64"},{"name":"btcPayoutLockingScript","type":"bytes22","internalType":"bytes22"}]}],"stateMutability":"view"},{"type":"function","name":"getDepositVaultUnreservedBalance","inputs":[{"name":"depositIndex","type":"uint256","internalType":"uint256"}],"outputs":[{"name":"","type":"uint256","internalType":"uint256"}],"stateMutability":"view"},{"type":"function","name":"getDepositVaultsLength","inputs":[],"outputs":[{"name":"","type":"uint256","internalType":"uint256"}],"stateMutability":"view"},{"type":"function","name":"getLiquidityProvider","inputs":[{"name":"lpAddress","type":"address","internalType":"address"}],"outputs":[{"name":"","type":"tuple","internalType":"struct RiftExchange.LiquidityProvider","components":[{"name":"depositVaultIndexes","type":"uint256[]","internalType":"uint256[]"}]}],"stateMutability":"view"},{"type":"function","name":"getReservation","inputs":[{"name":"reservationIndex","type":"uint256","internalType":"uint256"}],"outputs":[{"name":"","type":"tuple","internalType":"struct RiftExchange.SwapReservation","components":[{"name":"owner","type":"address","internalType":"address"},{"name":"confirmationBlockHeight","type":"uint32","internalType":"uint32"},{"name":"reservationTimestamp","type":"uint64","internalType":"uint64"},{"name":"liquidityUnlockedTimestamp","type":"uint64","internalType":"uint64"},{"name":"state","type":"uint8","internalType":"enum RiftExchange.ReservationState"},{"name":"ethPayoutAddress","type":"address","internalType":"address"},{"name":"lpReservationHash","type":"bytes32","internalType":"bytes32"},{"name":"nonce","type":"bytes32","internalType":"bytes32"},{"name":"totalSatsInputIncludingProxyFee","type":"uint256","internalType":"uint256"},{"name":"totalSwapOutputAmount","type":"uint256","internalType":"uint256"},{"name":"proposedBlockHeight","type":"uint64","internalType":"uint64"},{"name":"proposedBlockHash","type":"bytes32","internalType":"bytes32"},{"name":"vaultIndexes","type":"uint256[]","internalType":"uint256[]"},{"name":"amountsToReserve","type":"uint192[]","internalType":"uint192[]"},{"name":"expectedSatsOutput","type":"uint64[]","internalType":"uint64[]"}]}],"stateMutability":"view"},{"type":"function","name":"getReservationLength","inputs":[],"outputs":[{"name":"","type":"uint256","internalType":"uint256"}],"stateMutability":"view"},{"type":"function","name":"initialize","inputs":[{"name":"initialCheckpointHeight","type":"uint256","internalType":"uint256"},{"name":"initialBlockHash","type":"bytes32","internalType":"bytes32"},{"name":"initialRetargetBlockHash","type":"bytes32","internalType":"bytes32"},{"name":"initialChainwork","type":"uint256","internalType":"uint256"},{"name":"verifierContractAddress","type":"address","internalType":"address"},{"name":"depositTokenAddress","type":"address","internalType":"address"},{"name":"initialFeeRouterAddress","type":"address","internalType":"address payable"},{"name":"initialOwner","type":"address","internalType":"address"},{"name":"verificationKeyHash","type":"bytes32","internalType":"bytes32"},{"name":"initialPermissionedHypernodes","type":"address[]","internalType":"address[]"}],"outputs":[],"stateMutability":"nonpayable"},{"type":"function","name":"isDepositNewLiquidityPaused","inputs":[],"outputs":[{"name":"","type":"bool","internalType":"bool"}],"stateMutability":"view"},{"type":"function","name":"minProtocolFee","inputs":[],"outputs":[{"name":"","type":"uint32","internalType":"uint32"}],"stateMutability":"view"},{"type":"function","name":"owner","inputs":[],"outputs":[{"name":"","type":"address","internalType":"address"}],"stateMutability":"view"},{"type":"function","name":"permissionedHypernodes","inputs":[{"name":"","type":"address","internalType":"address"}],"outputs":[{"name":"","type":"bool","internalType":"bool"}],"stateMutability":"view"},{"type":"function","name":"protocolFeeBP","inputs":[],"outputs":[{"name":"","type":"uint8","internalType":"uint8"}],"stateMutability":"view"},{"type":"function","name":"proveBlocks","inputs":[{"name":"safeBlockHeight","type":"uint32","internalType":"uint32"},{"name":"proposedBlockHeight","type":"uint64","internalType":"uint64"},{"name":"confirmationBlockHeight","type":"uint64","internalType":"uint64"},{"name":"blockHashes","type":"bytes32[]","internalType":"bytes32[]"},{"name":"blockChainworks","type":"uint256[]","internalType":"uint256[]"},{"name":"proof","type":"bytes","internalType":"bytes"}],"outputs":[],"stateMutability":"nonpayable"},{"type":"function","name":"proxiableUUID","inputs":[],"outputs":[{"name":"","type":"bytes32","internalType":"bytes32"}],"stateMutability":"view"},{"type":"function","name":"releaseLiquidity","inputs":[{"name":"swapReservationIndex","type":"uint256","internalType":"uint256"}],"outputs":[],"stateMutability":"nonpayable"},{"type":"function","name":"removePermissionedHypernode","inputs":[{"name":"hypernode","type":"address","internalType":"address"}],"outputs":[],"stateMutability":"nonpayable"},{"type":"function","name":"renounceOwnership","inputs":[],"outputs":[],"stateMutability":"nonpayable"},{"type":"function","name":"reservationLockupPeriod","inputs":[],"outputs":[{"name":"","type":"uint32","internalType":"uint32"}],"stateMutability":"view"},{"type":"function","name":"reserveLiquidity","inputs":[{"name":"reservationOwner","type":"address","internalType":"address"},{"name":"vaultIndexesToReserve","type":"uint256[]","internalType":"uint256[]"},{"name":"amountsToReserve","type":"uint192[]","internalType":"uint192[]"},{"name":"ethPayoutAddress","type":"address","internalType":"address"},{"name":"totalSatsInputIncludingProxyFee","type":"uint256","internalType":"uint256"},{"name":"expiredSwapReservationIndexes","type":"uint256[]","internalType":"uint256[]"}],"outputs":[],"stateMutability":"nonpayable"},{"type":"function","name":"scale","inputs":[],"outputs":[{"name":"","type":"uint256","internalType":"uint256"}],"stateMutability":"view"},{"type":"function","name":"submitSwapProof","inputs":[{"name":"swapReservationIndex","type":"uint256","internalType":"uint256"},{"name":"bitcoinTxId","type":"bytes32","internalType":"bytes32"},{"name":"merkleRoot","type":"bytes32","internalType":"bytes32"},{"name":"safeBlockHeight","type":"uint32","internalType":"uint32"},{"name":"proposedBlockHeight","type":"uint64","internalType":"uint64"},{"name":"confirmationBlockHeight","type":"uint64","internalType":"uint64"},{"name":"blockHashes","type":"bytes32[]","internalType":"bytes32[]"},{"name":"blockChainworks","type":"uint256[]","internalType":"uint256[]"},{"name":"proof","type":"bytes","internalType":"bytes"}],"outputs":[],"stateMutability":"nonpayable"},{"type":"function","name":"swapReservations","inputs":[{"name":"","type":"uint256","internalType":"uint256"}],"outputs":[{"name":"owner","type":"address","internalType":"address"},{"name":"confirmationBlockHeight","type":"uint32","internalType":"uint32"},{"name":"reservationTimestamp","type":"uint64","internalType":"uint64"},{"name":"liquidityUnlockedTimestamp","type":"uint64","internalType":"uint64"},{"name":"state","type":"uint8","internalType":"enum RiftExchange.ReservationState"},{"name":"ethPayoutAddress","type":"address","internalType":"address"},{"name":"lpReservationHash","type":"bytes32","internalType":"bytes32"},{"name":"nonce","type":"bytes32","internalType":"bytes32"},{"name":"totalSatsInputIncludingProxyFee","type":"uint256","internalType":"uint256"},{"name":"totalSwapOutputAmount","type":"uint256","internalType":"uint256"},{"name":"proposedBlockHeight","type":"uint64","internalType":"uint64"},{"name":"proposedBlockHash","type":"bytes32","internalType":"bytes32"}],"stateMutability":"view"},{"type":"function","name":"tokenDecimals","inputs":[],"outputs":[{"name":"","type":"uint8","internalType":"uint8"}],"stateMutability":"view"},{"type":"function","name":"transferOwnership","inputs":[{"name":"newOwner","type":"address","internalType":"address"}],"outputs":[],"stateMutability":"nonpayable"},{"type":"function","name":"updateCircuitVerificationKey","inputs":[{"name":"newVerificationKey","type":"bytes32","internalType":"bytes32"}],"outputs":[],"stateMutability":"nonpayable"},{"type":"function","name":"updateExchangeRate","inputs":[{"name":"globalVaultIndex","type":"uint256","internalType":"uint256"},{"name":"newExchangeRate","type":"uint64","internalType":"uint64"},{"name":"expiredSwapReservationIndexes","type":"uint256[]","internalType":"uint256[]"}],"outputs":[],"stateMutability":"nonpayable"},{"type":"function","name":"updateFeeRouter","inputs":[{"name":"newProtocolAddress","type":"address","internalType":"address payable"}],"outputs":[],"stateMutability":"nonpayable"},{"type":"function","name":"updateNewLiquidityDepositsPaused","inputs":[{"name":"newPauseState","type":"bool","internalType":"bool"}],"outputs":[],"stateMutability":"nonpayable"},{"type":"function","name":"updateProtocolFee","inputs":[{"name":"newProtocolFeeBP","type":"uint8","internalType":"uint8"}],"outputs":[],"stateMutability":"nonpayable"},{"type":"function","name":"updateVerifierContract","inputs":[{"name":"newVerifierContractAddress","type":"address","internalType":"address"}],"outputs":[],"stateMutability":"nonpayable"},{"type":"function","name":"upgradeToAndCall","inputs":[{"name":"newImplementation","type":"address","internalType":"address"},{"name":"data","type":"bytes","internalType":"bytes"}],"outputs":[],"stateMutability":"payable"},{"type":"function","name":"validateBlockExists","inputs":[{"name":"blockHeight","type":"uint256","internalType":"uint256"}],"outputs":[],"stateMutability":"view"},{"type":"function","name":"verifierContract","inputs":[],"outputs":[{"name":"","type":"address","internalType":"contract ISP1Verifier"}],"stateMutability":"view"},{"type":"function","name":"withdrawLiquidity","inputs":[{"name":"globalVaultIndex","type":"uint256","internalType":"uint256"},{"name":"amountToWithdraw","type":"uint192","internalType":"uint192"},{"name":"expiredSwapReservationIndexes","type":"uint256[]","internalType":"uint256[]"}],"outputs":[],"stateMutability":"nonpayable"},{"type":"event","name":"BlocksAdded","inputs":[{"name":"startBlockHeight","type":"uint256","indexed":false,"internalType":"uint256"},{"name":"count","type":"uint256","indexed":false,"internalType":"uint256"}],"anonymous":false},{"type":"event","name":"ExchangeRateUpdated","inputs":[{"name":"globalVaultIndex","type":"uint256","indexed":true,"internalType":"uint256"},{"name":"newExchangeRate","type":"uint64","indexed":false,"internalType":"uint64"},{"name":"unreservedBalance","type":"uint256","indexed":false,"internalType":"uint256"}],"anonymous":false},{"type":"event","name":"Initialized","inputs":[{"name":"version","type":"uint64","indexed":false,"internalType":"uint64"}],"anonymous":false},{"type":"event","name":"LiquidityDeposited","inputs":[{"name":"depositor","type":"address","indexed":true,"internalType":"address"},{"name":"depositVaultIndex","type":"uint256","indexed":false,"internalType":"uint256"},{"name":"amount","type":"uint256","indexed":false,"internalType":"uint256"},{"name":"exchangeRate","type":"uint64","indexed":false,"internalType":"uint64"}],"anonymous":false},{"type":"event","name":"LiquidityReserved","inputs":[{"name":"reserver","type":"address","indexed":true,"internalType":"address"},{"name":"swapReservationIndex","type":"uint256","indexed":false,"internalType":"uint256"},{"name":"orderNonce","type":"bytes32","indexed":false,"internalType":"bytes32"}],"anonymous":false},{"type":"event","name":"LiquidityWithdrawn","inputs":[{"name":"globalVaultIndex","type":"uint256","indexed":true,"internalType":"uint256"},{"name":"amountWithdrawn","type":"uint192","indexed":false,"internalType":"uint192"},{"name":"remainingBalance","type":"uint256","indexed":false,"internalType":"uint256"}],"anonymous":false},{"type":"event","name":"OwnershipTransferred","inputs":[{"name":"previousOwner","type":"address","indexed":true,"internalType":"address"},{"name":"newOwner","type":"address","indexed":true,"internalType":"address"}],"anonymous":false},{"type":"event","name":"ProofSubmitted","inputs":[{"name":"prover","type":"address","indexed":true,"internalType":"address"},{"name":"swapReservationIndex","type":"uint256","indexed":false,"internalType":"uint256"},{"name":"orderNonce","type":"bytes32","indexed":false,"internalType":"bytes32"}],"anonymous":false},{"type":"event","name":"ProtocolFeeUpdated","inputs":[{"name":"newProtocolFeeBP","type":"uint8","indexed":false,"internalType":"uint8"}],"anonymous":false},{"type":"event","name":"SwapComplete","inputs":[{"name":"swapReservationIndex","type":"uint256","indexed":false,"internalType":"uint256"},{"name":"swapReservation","type":"tuple","indexed":false,"internalType":"struct RiftExchange.SwapReservation","components":[{"name":"owner","type":"address","internalType":"address"},{"name":"confirmationBlockHeight","type":"uint32","internalType":"uint32"},{"name":"reservationTimestamp","type":"uint64","internalType":"uint64"},{"name":"liquidityUnlockedTimestamp","type":"uint64","internalType":"uint64"},{"name":"state","type":"uint8","internalType":"enum RiftExchange.ReservationState"},{"name":"ethPayoutAddress","type":"address","internalType":"address"},{"name":"lpReservationHash","type":"bytes32","internalType":"bytes32"},{"name":"nonce","type":"bytes32","internalType":"bytes32"},{"name":"totalSatsInputIncludingProxyFee","type":"uint256","internalType":"uint256"},{"name":"totalSwapOutputAmount","type":"uint256","internalType":"uint256"},{"name":"proposedBlockHeight","type":"uint64","internalType":"uint64"},{"name":"proposedBlockHash","type":"bytes32","internalType":"bytes32"},{"name":"vaultIndexes","type":"uint256[]","internalType":"uint256[]"},{"name":"amountsToReserve","type":"uint192[]","internalType":"uint192[]"},{"name":"expectedSatsOutput","type":"uint64[]","internalType":"uint64[]"}]},{"name":"protocolFee","type":"uint256","indexed":false,"internalType":"uint256"}],"anonymous":false},{"type":"event","name":"Upgraded","inputs":[{"name":"implementation","type":"address","indexed":true,"internalType":"address"}],"anonymous":false},{"type":"error","name":"AddressEmptyCode","inputs":[{"name":"target","type":"address","internalType":"address"}]},{"type":"error","name":"AmountToReserveTooLow","inputs":[{"name":"index","type":"uint256","internalType":"uint256"}]},{"type":"error","name":"BlockArraysMismatch","inputs":[]},{"type":"error","name":"BlockDoesNotExist","inputs":[]},{"type":"error","name":"ERC1967InvalidImplementation","inputs":[{"name":"implementation","type":"address","internalType":"address"}]},{"type":"error","name":"ERC1967NonPayable","inputs":[]},{"type":"error","name":"FailedInnerCall","inputs":[]},{"type":"error","name":"InvalidBlockHeights","inputs":[]},{"type":"error","name":"InvalidChainwork","inputs":[]},{"type":"error","name":"InvalidConfirmationBlock","inputs":[]},{"type":"error","name":"InvalidExchangeRate","inputs":[]},{"type":"error","name":"InvalidFeeRouterAddress","inputs":[]},{"type":"error","name":"InvalidInitialization","inputs":[]},{"type":"error","name":"InvalidInputArrays","inputs":[]},{"type":"error","name":"InvalidReservationState","inputs":[]},{"type":"error","name":"InvalidSafeBlock","inputs":[]},{"type":"error","name":"NewDepositsPaused","inputs":[]},{"type":"error","name":"NotApprovedHypernode","inputs":[]},{"type":"error","name":"NotEnoughLiquidity","inputs":[]},{"type":"error","name":"NotInitializing","inputs":[]},{"type":"error","name":"NotVaultOwner","inputs":[]},{"type":"error","name":"OverwrittenProposedBlock","inputs":[]},{"type":"error","name":"OwnableInvalidOwner","inputs":[{"name":"owner","type":"address","internalType":"address"}]},{"type":"error","name":"OwnableUnauthorizedAccount","inputs":[{"name":"account","type":"address","internalType":"address"}]},{"type":"error","name":"ReservationNotExpired","inputs":[]},{"type":"error","name":"ReservationNotProved","inputs":[]},{"type":"error","name":"StillInChallengePeriod","inputs":[]},{"type":"error","name":"TransferFailed","inputs":[]},{"type":"error","name":"UUPSUnauthorizedCallContext","inputs":[]},{"type":"error","name":"UUPSUnsupportedProxiableUUID","inputs":[{"name":"slot","type":"bytes32","internalType":"bytes32"}]},{"type":"error","name":"UpdateExchangeRateError","inputs":[]},{"type":"error","name":"WithdrawalAmountError","inputs":[]}],"bytecode":{"object":"0x60a06040523461003c57610011610040565b3060805261001d610040565b60405161383190816100d782396080518181816125c701526128210152f35b5f80fd5b5f5160206139085f395f51905f525460ff8160401c166100c7576002600160401b03196001600160401b038216016100755750565b6001600160401b0319166001600160401b039081175f5160206139085f395f51905f52556040519081527fc7f505b2f371ae2175ee4913f4499e1f2633a7b5936321eed1cdaeb6115181d290602090a1565b63f92ee8a960e01b5f5260045ffdfe60806040526004361015610011575f80fd5b5f5f3560e01c806308524ea214612c0b5780630a7aa29314612b98578063163de0c514612b7b578063276d080e14612a7757806335106fab14612a5b5780633b97e85614612a385780633d7b22b314612a1b5780634a8484ea146129da5780634f1ef286146127e4578063505675dd1461261b57806352d1902d146125b55780635f4d06101461251f5780636512d057146124f45780636b994abb14612419578063715018a6146123b257806373e149e614612366578063778919071461207c5780637a9059a2146120375780637dce55501461201a578063803d5f6214611e1a5780638cc63cdd14611b6f5780638da5cb5b14611de657806398f9e75714611d65578063a3db99d914611bdb578063ad3cb1cc14611b94578063b01c27d114611b6f578063b9b2a98214611b43578063bff20f78146117bd578063c5fba0b81461179a578063c7785af014611606578063c89039c5146115de578063cda7d82c146115b4578063cf6956881461158c578063d57763c314611270578063d825a69214611233578063d841840314610a46578063e0dc970e14610a03578063e102f9c11461075b578063e57915961461073e578063e904e09d14610720578063ea6fe03e14610702578063ecdea06f1461033d578063ed8b2b3214610306578063ee82ac5e146102dd578063f2fde38b146102b0578063f3f480d914610293578063f51e181a146102705763f53e31cf1461022a575f80fd5b3461026d57602036600319011261026d57610243612c2c565b61024b613310565b6001600160a01b03168152600a60205260408120805460ff1916600117905580f35b80fd5b503461026d578060031936011261026d576020604051670de0b6b3a76400008152f35b503461026d578060031936011261026d57602060405161012c8152f35b503461026d57602036600319011261026d576102da6102cd612c2c565b6102d5613310565b61329f565b80f35b503461026d57602036600319011261026d57604060209160043581528083522054604051908152f35b503461026d57602036600319011261026d5760043581528060205260408120541561032e5780f35b63fa4a5e4560e01b8152600490fd5b503461026d5761012036600319011261026d5760043561035b612e98565b610363612d48565b61036b612d5e565b9160c4356001600160401b0381116106fe5761038b903690600401612d8b565b9160e4356001600160401b0381116106fa576103ab903690600401612d8b565b93610104356001600160401b0381116106f6576103cc903690600401612cec565b90338852600a60205260ff604089205416156106e7576103eb87612e18565b5095600187019260ff845460401c1660058110156106d3576001036106c4578960405161041781612c94565b8181528160208201528160408201528160608201528160808201528160a08201528160c08201528160e08201528161010082015261012081016060905261014081016060905261016001528961046c8a612e18565b50600281015490600381015490600801546001600160401b03169863ffffffff16986107e08a0661049d908b613225565b84528360205260408420546104b28b8b61327f565b916104bd8b8a61327f565b93604051956104cb87612c94565b6024358752604435602088015260408701526060860152608085015260a08401528960c08401526001600160401b031660e08301526001600160401b031661010082015288610120820152836101408201526101608101600190526040518091602082019061053991612eab565b03601f198101825261054b9082612cb0565b600554600454906001600160a01b0316803b156106c0578392610595926105a76040519788958694859463020a49e360e51b86526004860152606060248601526064850190612e74565b83810360031901604485015290612e74565b03915afa9182156106b3578892610696575b50506001600160401b036105d893166001600160401b0386168761350b565b506802000000000000000060ff60401b1982541617815561012c6001600160401b034216016001600160401b038111610682576106469360039695936001600160401b03938461063f9416851982541617905560068701848216851982541617905561327f565b169061326b565b516007820155015460405191825260208201527f8bcdab581a6176f792fa96b0c57d32273bcd8621b0548c15a9c6379dc246e26c60403392a280f35b634e487b7160e01b88526011600452602488fd5b819250906106a391612cb0565b6106af5785895f6105b9565b8880fd5b50604051903d90823e3d90fd5b8380fd5b639085371960e01b8a5260048afd5b634e487b7160e01b8b52602160045260248bfd5b63901924a360e01b8852600488fd5b8780fd5b8680fd5b8580fd5b503461026d578060031936011261026d576020600854604051908152f35b503461026d578060031936011261026d576020604051620186a08152f35b503461026d578060031936011261026d5760206040516138408152f35b50346109ff5760c03660031901126109ff576004359063ffffffff82168092036109ff57610787612d32565b91604435906001600160401b0382168083036109ff576064356001600160401b0381116109ff576107bc903690600401612d8b565b916084356001600160401b0381116109ff576107dc903690600401612d8b565b9360a435906001600160401b0382116109ff57366023830112156109ff578160040135916001600160401b0383116109ff5736602484830101116109ff5761093c896001600160401b0361092e945f61016060405161083a81612c94565b8281528260208201528260408201528260608201528260808201528260a08201528260c08201528260e0820152826101008201526060610120820152606061014082015201528161088a5f612e18565b5091896002840154956108cc846008600388015497015416916108b16107e0850685613225565b5f525f6020526108c660405f2054948261327f565b9461327f565b94604051976108da89612c94565b5f89525f60208a015260408901526060880152608087015260a08601528960c08601521660e08401521661010082015287610120820152886101408201525f61016082015260405193849160208301612eab565b03601f198101845283612cb0565b60018060a01b036005541660045492813b156109ff5760205f946109879487602498604051998a988997889663020a49e360e51b885260048801526060838801526064870190612e74565b8581036003190160448701528281529301858401378181018401889052601f01601f1916010301915afa80156109f4576109d5575b506001600160401b036109d19596169061350b565b5080f35b6109d195505f6109e491612cb0565b6001600160401b035f95506109bc565b6040513d5f823e3d90fd5b5f80fd5b346109ff5760203660031901126109ff57610a1c612c2c565b610a24613310565b600580546001600160a01b0319166001600160a01b0392909216919091179055005b346109ff5760c03660031901126109ff57610a5f612c2c565b6024356001600160401b0381116109ff57610a7e903690600401612d8b565b604435906001600160401b0382116109ff57366023830112156109ff578160040135610aa981612d74565b92610ab76040519485612cb0565b8184526024602085019260051b820101903682116109ff57602401915b818310611213575050506064356001600160a01b03811693908490036109ff5760a4356001600160401b0381116109ff57610b13903690600401612d8b565b9180518015908115611207575b506111f8575f5b8451811015610b63576001600160c01b03610b42828761326b565b511615610b5157600101610b27565b633143436b60e11b5f5260045260245ffd5b50845f945f92805194610b7586612d74565b95610b836040519788612cb0565b808752610b92601f1991612d74565b0136602088013760ff60035460a01c16935f985b84518a1015610c5257610bee6001600160401b036004610bcf610bc98e8961326b565b51612de8565b50015416916001600160c01b03610be68d8961326b565b51169061308c565b99610c0c876001600160c01b03610c05848a61326b565b51166134c6565b918015610c3e57610c2a6001600160401b039160019404809a61308c565b9816610c36828b61326b565b520198610ba6565b634e487b7160e01b5f52601260045260245ffd5b9391908790610c608a613358565b5f92835b8651851015610d2b575f6020916001600160401b03610c83888861326b565b511690610c93610bc9898c61326b565b5060046001600160501b031991015460101b1690604051918583019384526040830152606082015260608152610cca608082612cb0565b604051918291518091835e8101838152039060025afa156109f4575f51936001600160c01b03610cfa828861326b565b51166002610d0b610bc9848b61326b565b50015410610d1c5760010193610c64565b634323a55560e01b5f5260045ffd5b86939450876008549160405160208101908682524260408201524660608201528260808201528460a082015260a08152610d6660c082612cb0565b5190209660405194610d7786612c78565b60018060a01b03169586865260208601945f865260408701906001600160401b034216825260608801935f855260808901936001855260a08a015260c0890195865260e08901968c88526084356101008b01526101208a01525f6101408a01525f6101608a01528a6101808a01528c6101a08a01526101c0890152600160401b81101561118c57806001610e0e9201600855612e18565b9690966111e55787519051915160a09290921b63ffffffff60a01b166001600160a01b03919091161760c09190911b6001600160c01b031916178555905160018501805467ffffffffffffffff19166001600160401b0392909216919091178155905160058110156111d157815460a087015168010000000000000000600160e81b031990911660409290921b60ff60401b169190911760489190911b6901000000000000000000600160e81b03161790555160028301555160038201556101008201516004820155610120820151600582015561014082015160068201805467ffffffffffffffff19166001600160401b039283161790556101608301516007830155610180830151805191600884019190831161118c57600160401b831161118c57602090610f4484845481865585613248565b01905f5260205f205f5b8381106111bd5750505050600981016101a0830151908151916001600160401b03831161118c57600160401b831161118c57602090610f9284845481865585613248565b01905f5260205f205f5b8381106111a05750505050600a6101c091019101518051906001600160401b03821161118c57600160401b821161118c576020908354838555808410611140575b5001915f5260205f208160021c915f5b8381106110fb575060031981169003806110a3575b505050505f5b825181101561104c576001906001600160c01b03611026828861326b565b5116611044600261103a610bc9858961326b565b5001918254613225565b905501611008565b506008545f198101908490821161108f577f5956135c9be999a50f7ff4ea49ddf1485bc321ab333dc7a0877633eeb47528939160409182519182526020820152a2005b634e487b7160e01b5f52601160045260245ffd5b925f935f5b8181106110bd57505050015584808080611002565b90919460206110f16001926001600160401b03895116908560031b6001600160401b03809160031b9316831b921b19161790565b96019291016110a8565b5f5f5b60048110611113575083820155600101610fed565b86519096916001916020916001600160401b0360068b901b81811b199092169216901b17920196016110fe565b61116d90855f52835f20600380870160021c820192601888831b1680611173575b500160021c0190613232565b88610fdd565b5f198501908154905f19908a03851b1c1690558d611161565b634e487b7160e01b5f52604160045260245ffd5b82516001600160c01b031681830155602090920191600101610f9c565b600190602084519401938184015501610f4e565b634e487b7160e01b5f52602160045260245ffd5b634e487b7160e01b5f525f60045260245ffd5b63744bba7b60e01b5f5260045ffd5b90508451141586610b20565b82356001600160c01b03811681036109ff57815260209283019201610ad4565b346109ff5760203660031901126109ff576001600160a01b03611254612c2c565b165f52600a602052602060ff60405f2054166040519015158152f35b346109ff5760203660031901126109ff5760606101c060405161129281612c78565b5f81525f60208201525f60408201525f838201525f60808201525f60a08201525f60c08201525f60e08201525f6101008201525f6101208201525f6101408201525f61016082015282610180820152826101a082015201526112f5600435612e18565b506040519061130382612c78565b805460018060a01b0381168352602083019263ffffffff8260a01c168452604081019160c01c825260018301549160608201916001600160401b038416835260ff8460401c16926080820160058510156111d1578695869582999895995260a0840190600160a01b600190039060481c168152600285015460c0850190815260038601549060e086019182526004870154926101008701938452600588015494610120880195865260068901546001600160401b031696610140890197885260078a0154986101608101998a52604051806008819d01906113e3916130ac565b036113ee908c612cb0565b61018081019a8b5260405180809e60098291019061140b916130e3565b0361141591612cb0565b6101a081019c8d5260405180600a819e019061143091613123565b0361143b908d612cb0565b6101c081019b8c526040519e8f9e8f9260208452600160a01b6001900390511660208401525163ffffffff166040830152516001600160401b03169060600152516001600160401b031660808d01525160a08c0161149891612e34565b516001600160a01b031660c08b01525160e08a0152516101008901525161012088015251610140870152516001600160401b031661016086015251610180850152516101e06101a08501526114f290610200850190612e41565b915191601f19848203016101c085015282519081815260200192602001905f5b81811061156a575050505190601f19838203016101e0840152602080835192838152019201905f5b818110611548575050500390f35b82516001600160401b031684528594506020938401939092019160010161153a565b82516001600160c01b0316855286955060209485019490920191600101611512565b346109ff575f3660031901126109ff576005546040516001600160a01b039091168152602090f35b346109ff5760203660031901126109ff576004355f526001602052602060405f2054604051908152f35b346109ff575f3660031901126109ff576003546040516001600160a01b039091168152602090f35b346109ff576101203660031901126109ff57611620612e98565b611628612d48565b611630612d5e565b60c4356001600160401b0381116109ff5761164f903690600401612d8b565b60e4356001600160401b0381116109ff5761166e903690600401612d8b565b9061010435928315158094036109ff57611796956001600160401b0380925f61016060405161169c81612c94565b8281528260208201528260408201528260608201528260808201528260a08201528260c08201528260e0820152826101008201526060610120820152606061014082015201526116ed600435612e18565b509260028401549863ffffffff8460086003880154970154169216916117176107e0840684613225565b5f525f60205261173660405f205492611730858261327f565b9561327f565b956040519b6117448d612c94565b6024358d528c602060443591015260408d015260608c015260808b015260a08a015260c08901521660e08701521661010085015261012084015261014083015261016082015260405191829182612eab565b0390f35b346109ff575f3660031901126109ff57602060ff60055460a81c16604051908152f35b346109ff576101403660031901126109ff576004356084356001600160a01b038116908190036109ff5760a4356001600160a01b03811691908290036109ff5760c4356001600160a01b03811691908290036109ff5760e435926001600160a01b03841684036109ff5761012435936001600160401b0385116109ff57366023860112156109ff57846004013561185381612d74565b956118616040519788612cb0565b8187526024602088019260051b820101903682116109ff57602401915b818310611b23575050505f5160206137dc5f395f51905f52549560ff8760401c1615966001600160401b03811680159081611b1b575b6001149081611b11575b159081611b08575b50611af95767ffffffffffffffff1981166001175f5160206137dc5f395f51905f5255611946926119109189611acd575b50611900613712565b611908613712565b6102d5613712565b611918613712565b80600255805f52600160205260643560405f2055805f525f60205260243560405f20556107e0810690613225565b5f525f60205260443560405f205560035490806bffffffffffffffffffffffff60a01b83161760035560405163313ce56760e01b8152602081600481855afa9081156109f4575f91611a91575b506001600160a81b03199092161760a09190911b60ff60a01b161760035561010435600455600554918015611a8257600680546001600160a01b0319169190911790556001600160b01b031990911617600560a91b176005555f5b8151811015611a29576001906001600160a01b03611a0c828561326b565b51165f52600a60205260405f208260ff19825416179055016119ee565b82611a3057005b60ff60401b195f5160206137dc5f395f51905f5254165f5160206137dc5f395f51905f52557fc7f505b2f371ae2175ee4913f4499e1f2633a7b5936321eed1cdaeb6115181d2602060405160018152a1005b631abb799360e31b5f5260045ffd5b90506020813d602011611ac5575b81611aac60209383612cb0565b810103126109ff575160ff811681036109ff5787611993565b3d9150611a9f565b68ffffffffffffffffff191668010000000000000001175f5160206137dc5f395f51905f5255896118f7565b63f92ee8a960e01b5f5260045ffd5b905015896118c6565b303b1591506118be565b8991506118b4565b82356001600160a01b03811681036109ff5781526020928301920161187e565b346109ff5760203660031901126109ff576020611b676004356107e0810690613225565b604051908152f35b346109ff575f3660031901126109ff57602060ff60055460a01c166040519015158152f35b346109ff575f3660031901126109ff57611796604051611bb5604082612cb0565b60058152640352e302e360dc1b6020820152604051918291602083526020830190612e74565b346109ff5760603660031901126109ff576004356024356001600160c01b038116908190036109ff576044356001600160401b0381116109ff57611c23903690600401612d8b565b611c2c83612de8565b50546001600160a01b03163303611d5657611c4690613358565b611c4f82612de8565b509080158015611d49575b611d3a575f927f2da2870bb581d5fba8ee536c6bc0062e654302bcee5f5b108193a2c6d2f4a899604084600360026020970191611c98878454613225565b80935501611ca786825461308c565b905581519085825286820152a260035460405163a9059cbb60e01b815233600482015260248101929092529092839160449183916001600160a01b03165af19081156109f4575f91611d0b575b5015611cfc57005b6312171d8360e31b5f5260045ffd5b611d2d915060203d602011611d33575b611d258183612cb0565b81019061320d565b81611cf4565b503d611d1b565b63b4e3d41360e01b5f5260045ffd5b5060028201548111611c5a565b630e7fea9d60e01b5f5260045ffd5b346109ff5760203660031901126109ff57611d7e612c2c565b6060604051611d8c81612c5d565b5260018060a01b03165f52600960205261179660405f20611dc2611dc960405192611db684612c5d565b604051928380926130ac565b0382612cb0565b815260405191829160208352516020808401526040830190612e41565b346109ff575f3660031901126109ff575f51602061379c5f395f51905f52546040516001600160a01b039091168152602090f35b346109ff5760603660031901126109ff57600435611e36612d32565b604435906001600160501b031982168092036109ff5760ff60055460a01c1661200b576001600160401b0316908115611ffc57335f52600960205260405f205415611f6f575b604051611ec091611e8c82612c42565b3382526001600160401b03421660208301528460408301528460608301525f60808301528360a083015260c0820152612f9e565b6007545f19810190811161108f57611ed8903361347c565b6007545f1981019290831161108f575f92602092604051918252828483015260408201527ffd5ab8914e1dca355d18ae7fe50627d3afe042f323e1b0ae31f3a9d2cd19de3760603392a26003546040516323b872dd60e01b815233600482015230602482015260448101929092529092839160649183916001600160a01b03165af19081156109f4575f91611d0b575015611cfc57005b6020604051611f7e8282612cb0565b5f81525f36813760405190611f9282612c5d565b8152335f526009825260405f209051918251926001600160401b03841161118c57600160401b841161118c578190611fcf85855481875586613248565b01915f52805f20905f5b848110611fea575050505050611e7c565b83518382015592810192600101611fd9565b63a2ec3a5560e01b5f5260045ffd5b6348010c6560e11b5f5260045ffd5b346109ff575f3660031901126109ff576020600754604051908152f35b346109ff5760203660031901126109ff576004358015158091036109ff5761205d613310565b6005805460ff60a01b191660a09290921b60ff60a01b16919091179055005b346109ff5760203660031901126109ff5760043561209981612e18565b506001810191825460ff8160401c1660058110156111d157600203612357576001600160401b031642106123485760068201906001600160401b038254165f525f60205260405f20546007840190815403612339576803000000000000000060ff60401b19865416178555600584019182549161271061212160ff60055460a81c1685613099565b0494620186a0861061232e575b95612241916001600160401b037f2f5e870e987f384af7aa5a516b551286762ae20f2fbbf3b8df2bcb1a73511198969798604051968796875260606020880152845460018060a01b038116606089015263ffffffff8160a01c16608089015260c01c60a08801528b5483811660c08901526121b260e0890160ff8360401c16612e34565b60481c6001600160a01b031661010088015260028501546101208801526003850154610140880152600485015461016088015261018087015254166101a0850152546101c08401526101e080840152600a61222d6122176102408601600885016130ac565b858103605f1901610200870152600984016130e3565b848103605f19016102208601529101613123565b8560408301520390a160035460065460405163a9059cbb60e01b81526001600160a01b0391821660048201526024810185905291602091839160449183915f91165af19081156109f4575f9161230f575b5015611cfc576122f6926122c260209360018060a01b03600354169260018060a01b03905460481c169354613225565b60405163a9059cbb60e01b81526001600160a01b0390931660048401526024830152909283919082905f9082906044820190565b03925af19081156109f4575f91611d0b575015611cfc57005b612328915060203d602011611d3357611d258183612cb0565b84612292565b620186a0955061212e565b63c1f6fa5160e01b5f5260045ffd5b632d5c37f560e21b5f5260045ffd5b6320d55f6760e21b5f5260045ffd5b346109ff5760203660031901126109ff5761237f612c2c565b612387613310565b6001600160a01b03168015611a82576bffffffffffffffffffffffff60a01b60065416176006555f80f35b346109ff575f3660031901126109ff576123ca613310565b5f51602061379c5f395f51905f5280546001600160a01b031981169091555f906001600160a01b03167f8be0079c531659141344cd1fd0a4f28419497f9722a3daafe3b4186f6b6457e08280a3005b346109ff5760203660031901126109ff576004356008548110156109ff5761244361018091612e18565b508054906001810154906002810154600382015460048301549060058401549260076001600160401b03600687015416950154956040519760018060a01b038116895263ffffffff8160a01c1660208a015260c01c60408901526001600160401b03811660608901526124bf6080890160ff8360401c16612e34565b60481c6001600160a01b031660a088015260c087015260e0860152610100850152610120840152610140830152610160820152f35b346109ff5760203660031901126109ff5760206002612514600435612de8565b500154604051908152f35b346109ff5760203660031901126109ff576004356007548110156109ff5761254860e091612de8565b50805490600181015490600281015460046003830154920154926001600160401b036040519560018060a01b038116875260a01c1660208601526040850152606084015260808301526001600160401b03811660a08301526001600160501b03199060101b1660c0820152f35b346109ff575f3660031901126109ff577f00000000000000000000000000000000000000000000000000000000000000006001600160a01b0316300361260c5760206040515f5160206137bc5f395f51905f528152f35b63703e46dd60e11b5f5260045ffd5b346109ff5760603660031901126109ff57600435612637612d32565b906044356001600160401b0381116109ff57612657903690600401612d8b565b61266082612de8565b50546001600160a01b03163303611d56576001600160401b038316928315611ffc5761268b83612de8565b506002810161269b815494613358565b6001820154840361270857509360047fbe7a3aef8ec470b9ef629744038f55b7557d10cd672e7a5982f0433e50866ae7949501906001600160401b031982541617905561270360405192839283602090939291936001600160401b0360408201951681520152565b0390a2005b93508261271e57632b5daf8960e01b5f5260045ffd5b7fbe7a3aef8ec470b9ef629744038f55b7557d10cd672e7a5982f0433e50866ae79360035f926127a86007549860018060a01b03835416906001600160501b0319600485015460101b16906040519261277684612c42565b83526001600160401b034216602084015289604084015289606084015287608084015260a083015260c0820152612f9e565b016127b485825461308c565b9055556127c1843361347c565b604080516001600160401b03909216825260208201929092529081908101612703565b60403660031901126109ff576127f8612c2c565b6024356001600160401b0381116109ff57612817903690600401612cec565b6001600160a01b037f0000000000000000000000000000000000000000000000000000000000000000163081149081156129b8575b5061260c57612859613310565b6040516352d1902d60e01b81526001600160a01b0383169290602081600481875afa5f9181612984575b5061289b5783634c9c8ce360e01b5f5260045260245ffd5b805f5160206137bc5f395f51905f528592036129725750813b15612960575f5160206137bc5f395f51905f5280546001600160a01b031916821790557fbc7cd75a20ee27fd9adebab32041f755214dbc6bffa90cc0225b39da2e5c2d3b5f80a2815115612948575f8083602061293e95519101845af43d15612940573d9161292283612cd1565b926129306040519485612cb0565b83523d5f602085013e61373d565b005b60609161373d565b50503461295157005b63b398979f60e01b5f5260045ffd5b634c9c8ce360e01b5f5260045260245ffd5b632a87526960e21b5f5260045260245ffd5b9091506020813d6020116129b0575b816129a060209383612cb0565b810103126109ff57519085612883565b3d9150612993565b5f5160206137bc5f395f51905f52546001600160a01b0316141590508361284c565b346109ff5760203660031901126109ff576129f3612c2c565b6129fb613310565b6001600160a01b03165f908152600a60205260409020805460ff19169055005b346109ff575f3660031901126109ff576020600454604051908152f35b346109ff575f3660031901126109ff57602060ff60035460a01c16604051908152f35b346109ff575f3660031901126109ff5760206040516127108152f35b346109ff5760203660031901126109ff575f60c0604051612a9781612c42565b8281528260208201528260408201528260608201528260808201528260a0820152015260e0612ac7600435612de8565b50604051612ad481612c42565b6001600160401b0382549160018060a01b0383169384825282602083019460a01c168452600181015460408301908152600282015490606084019182528460046003850154946080870195865201549660c060a0870196838a16885201976001600160501b03199060101b16885260405198895251166020880152516040870152516060860152516080850152511660a08301526001600160501b031990511660c0820152f35b346109ff575f3660031901126109ff576020600254604051908152f35b346109ff5760203660031901126109ff5760043560ff8116908181036109ff577f24a03cde3fd8f5ba3248b379245656e42120de635bd292a7185d3d688d95ef2991602091612be5613310565b6005805460ff60a81b191660a89290921b60ff60a81b16919091179055604051908152a1005b346109ff5760203660031901126109ff57612c24613310565b600480359055005b600435906001600160a01b03821682036109ff57565b60e081019081106001600160401b0382111761118c57604052565b602081019081106001600160401b0382111761118c57604052565b6101e081019081106001600160401b0382111761118c57604052565b61018081019081106001600160401b0382111761118c57604052565b90601f801991011681019081106001600160401b0382111761118c57604052565b6001600160401b03811161118c57601f01601f191660200190565b81601f820112156109ff57803590612d0382612cd1565b92612d116040519485612cb0565b828452602083830101116109ff57815f926020809301838601378301015290565b602435906001600160401b03821682036109ff57565b608435906001600160401b03821682036109ff57565b60a435906001600160401b03821682036109ff57565b6001600160401b03811161118c5760051b60200190565b9080601f830112156109ff578135612da281612d74565b92612db06040519485612cb0565b81845260208085019260051b8201019283116109ff57602001905b828210612dd85750505090565b8135815260209182019101612dcb565b600754811015612e045760075f52600560205f20910201905f90565b634e487b7160e01b5f52603260045260245ffd5b600854811015612e045760085f52600b60205f20910201905f90565b9060058210156111d15752565b90602080835192838152019201905f5b818110612e5e5750505090565b8251845260209384019390920191600101612e51565b805180835260209291819084018484015e5f828201840152601f01601f1916010190565b6064359063ffffffff821682036109ff57565b602081526101a08101825160208301526020830151604083015260408301516060830152606083015160808301526001600160401b0360808401511660a083015260a083015160c08301526001600160401b0360c08401511660e08301526001600160401b0360e0840151166101008301526001600160401b036101008401511661012083015261012083015190610180610140840152815180915260206101c084019201905f5b818110612f8857505050610160612f7d61018092610140860151601f198683030184870152612e41565b930151151591015290565b8251845260209384019390920191600101612f53565b600754600160401b81101561118c5760018101600755600754811015612e045760075f526005027fa66cc928b5edb82af9bd49922954155ab7b0942694bea4ce44661d9a8736c688018151815460208401516001600160e01b03199091166001600160a01b03929092169190911760a091821b67ffffffffffffffff60a01b16178255604083015160018301556060830151600283015560808301516003830155820151600491909101805460c093909301516001600160f01b03199093166001600160401b03929092169190911760109290921c68010000000000000000600160f01b0316919091179055565b9190820180921161108f57565b8181029291811591840414171561108f57565b90602082549182815201915f5260205f20905f5b8181106130cd5750505090565b82548452602090930192600192830192016130c0565b90602082549182815201915f5260205f20905f5b8181106131045750505090565b82546001600160c01b03168452602090930192600192830192016130f7565b80548083525f91825260208083209301925b8160038401106131c15754918181106131a7575b81811061318a575b81811061316d575b10613162575090565b60c01c815260200190565b9260206001916001600160401b038560801c168152019301613159565b9260206001916001600160401b038560401c168152019301613151565b9260206001916001600160401b0385168152019301613149565b926001608060049286546001600160401b03811682526001600160401b038160401c1660208301526001600160401b0381841c16604083015260c01c6060820152019401920191613135565b908160209103126109ff575180151581036109ff5790565b9190820391821161108f57565b81811061323d575050565b5f8155600101613232565b9181811061325557505050565b613269925f5260205f209182019101613232565b565b8051821015612e045760209160051b010190565b906001600160401b03809116911603906001600160401b03821161108f57565b6001600160a01b031680156132fd575f51602061379c5f395f51905f5280546001600160a01b0319811683179091556001600160a01b03167f8be0079c531659141344cd1fd0a4f28419497f9722a3daafe3b4186f6b6457e05f80a3565b631e4fbdf760e01b5f525f60045260245ffd5b5f51602061379c5f395f51905f52546001600160a01b0316330361333057565b63118cdaa760e01b5f523360045260245ffd5b8054821015612e04575f5260205f2001905f90565b5f5b81518110156133cc57613376613370828461326b565b51612e18565b50613840613388825460c01c42613225565b109081156133ad575b5061339e5760010161335a565b6326349d6b60e01b5f5260045ffd5b60ff91506001015460401c1660058110156111d157600114155f613391565b505f915b815183101561347757916133e7613370828461326b565b5091600983019160088401915f5b835481101561344a578061341a61340e60019387613343565b90549060031b1c612de8565b50613442600261342a848a613343565b868060c01b0391549060031b1c16920191825461308c565b9055016133f5565b506001948501805468ff000000000000000019166804000000000000000017905593019391506133d09050565b915050565b6001600160a01b03165f9081526009602052604090208054600160401b81101561118c576134af91600182018155613343565b819291549060031b91821b915f19901b1916179055565b9060ff16601281106134d6575090565b60120360ff811161108f5760ff1690604d821161108f576134fa91600a0a90613099565b90565b5f19811461108f5760010190565b9360025491825f52600160205260405f205490808710801590613708575b6136f957865f525f60205260405f2054156136ea57855183518114908115916136ca575b506136bb57600161355e8287613225565b106136ac5785515f1981019190821161108f5761357b8882613225565b905f525f60205261359160405f2054918861326b565b51146136a1576135a1908361326b565b51116135b657631f17929160e21b5f5260045ffd5b6001850180861161108f575b8381111561365257505080821061360f575b50916040917fb68477c768bbb33b4f238a3dfd17c33c499268c59cd042b7936bbc23dc2bdd34936002555182519182526020820152a1600190565b6001820180831161108f575b8181111561362957506135d4565b8061364d915f525f6020525f6040812055805f5260016020525f60408120556134fd565b61361b565b806136696136638861369c94613225565b8761326b565b51815f525f60205260405f20556136896136838883613225565b8461326b565b51815f52600160205260405f20556134fd565b6135c2565b505050505050505f90565b6341305f6360e01b5f5260045ffd5b63d4d34e9960e01b5f5260045ffd5b90506136d68887613225565b906001820180921161108f5714155f61354d565b63575f3da360e01b5f5260045ffd5b63f198a75d60e01b5f5260045ffd5b5084811015613529565b60ff5f5160206137dc5f395f51905f525460401c161561372e57565b631afcd79f60e31b5f5260045ffd5b90613761575080511561375257805190602001fd5b630a12f52160e11b5f5260045ffd5b81511580613792575b613772575090565b639996b31560e01b5f9081526001600160a01b0391909116600452602490fd5b50803b1561376a56fe9016d09d72d40fdae2fd8ceac6b6234c7706214fd39c1cd1e609a0528c199300360894a13ba1a3210667c828492db98dca3e2076cc3735a920a3ca505d382bbcf0c57e16840df040f15088dc2f81fe391c3923bec73e23a9662efc9c229c6a00a264697066735822122038aff436e2c8d07e8ed567b1e44779b03943a762f77bab5e73c84e34c043370164736f6c634300081b0033f0c57e16840df040f15088dc2f81fe391c3923bec73e23a9662efc9c229c6a00","linkReferences":{}},"methodIdentifiers":{"UPGRADE_INTERFACE_VERSION()":"ad3cb1cc","addPermissionedHypernode(address)":"f53e31cf","bpScale()":"35106fab","buildPublicInputs(uint256,bytes32,bytes32,uint32,uint64,uint64,bytes32[],uint256[],bool)":"c7785af0","calculateRetargetHeight(uint256)":"b9b2a982","challengePeriod()":"f3f480d9","circuitVerificationKey()":"3d7b22b3","currentHeight()":"163de0c5","depositLiquidity(uint256,uint64,bytes22)":"803d5f62","depositToken()":"c89039c5","depositVaults(uint256)":"5f4d0610","getAreDepositsPaused()":"b01c27d1","getBlockHash(uint256)":"ee82ac5e","getChainwork(uint256)":"cda7d82c","getDepositVault(uint256)":"276d080e","getDepositVaultUnreservedBalance(uint256)":"6512d057","getDepositVaultsLength()":"7dce5550","getLiquidityProvider(address)":"98f9e757","getReservation(uint256)":"d57763c3","getReservationLength()":"ea6fe03e","initialize(uint256,bytes32,bytes32,uint256,address,address,address,address,bytes32,address[])":"bff20f78","isDepositNewLiquidityPaused()":"8cc63cdd","minProtocolFee()":"e904e09d","owner()":"8da5cb5b","permissionedHypernodes(address)":"d825a692","protocolFeeBP()":"c5fba0b8","proveBlocks(uint32,uint64,uint64,bytes32[],uint256[],bytes)":"e102f9c1","proxiableUUID()":"52d1902d","releaseLiquidity(uint256)":"77891907","removePermissionedHypernode(address)":"4a8484ea","renounceOwnership()":"715018a6","reservationLockupPeriod()":"e5791596","reserveLiquidity(address,uint256[],uint192[],address,uint256,uint256[])":"d8418403","scale()":"f51e181a","submitSwapProof(uint256,bytes32,bytes32,uint32,uint64,uint64,bytes32[],uint256[],bytes)":"ecdea06f","swapReservations(uint256)":"6b994abb","tokenDecimals()":"3b97e856","transferOwnership(address)":"f2fde38b","updateCircuitVerificationKey(bytes32)":"08524ea2","updateExchangeRate(uint256,uint64,uint256[])":"505675dd","updateFeeRouter(address)":"73e149e6","updateNewLiquidityDepositsPaused(bool)":"7a9059a2","updateProtocolFee(uint8)":"0a7aa293","updateVerifierContract(address)":"e0dc970e","upgradeToAndCall(address,bytes)":"4f1ef286","validateBlockExists(uint256)":"ed8b2b32","verifierContract()":"cf695688","withdrawLiquidity(uint256,uint192,uint256[])":"a3db99d9"},"storageLayout":{"storage":[{"astId":50920,"contract":"src/RiftExchange.sol:RiftExchange","label":"blockchain","offset":0,"slot":"0","type":"t_mapping(t_uint256,t_bytes32)"},{"astId":50924,"contract":"src/RiftExchange.sol:RiftExchange","label":"chainworks","offset":0,"slot":"1","type":"t_mapping(t_uint256,t_uint256)"},{"astId":50926,"contract":"src/RiftExchange.sol:RiftExchange","label":"currentHeight","offset":0,"slot":"2","type":"t_uint256"},{"astId":51450,"contract":"src/RiftExchange.sol:RiftExchange","label":"depositToken","offset":0,"slot":"3","type":"t_contract(IERC20)51338"},{"astId":51452,"contract":"src/RiftExchange.sol:RiftExchange","label":"tokenDecimals","offset":20,"slot":"3","type":"t_uint8"},{"astId":51454,"contract":"src/RiftExchange.sol:RiftExchange","label":"circuitVerificationKey","offset":0,"slot":"4","type":"t_bytes32"},{"astId":51457,"contract":"src/RiftExchange.sol:RiftExchange","label":"verifierContract","offset":0,"slot":"5","type":"t_contract(ISP1Verifier)50175"},{"astId":51459,"contract":"src/RiftExchange.sol:RiftExchange","label":"isDepositNewLiquidityPaused","offset":20,"slot":"5","type":"t_bool"},{"astId":51461,"contract":"src/RiftExchange.sol:RiftExchange","label":"protocolFeeBP","offset":21,"slot":"5","type":"t_uint8"},{"astId":51463,"contract":"src/RiftExchange.sol:RiftExchange","label":"feeRouterAddress","offset":0,"slot":"6","type":"t_address"},{"astId":51467,"contract":"src/RiftExchange.sol:RiftExchange","label":"depositVaults","offset":0,"slot":"7","type":"t_array(t_struct(DepositVault)51405_storage)dyn_storage"},{"astId":51471,"contract":"src/RiftExchange.sol:RiftExchange","label":"swapReservations","offset":0,"slot":"8","type":"t_array(t_struct(SwapReservation)51386_storage)dyn_storage"},{"astId":51476,"contract":"src/RiftExchange.sol:RiftExchange","label":"liquidityProviders","offset":0,"slot":"9","type":"t_mapping(t_address,t_struct(LiquidityProvider)51390_storage)"},{"astId":51480,"contract":"src/RiftExchange.sol:RiftExchange","label":"permissionedHypernodes","offset":0,"slot":"10","type":"t_mapping(t_address,t_bool)"}],"types":{"t_address":{"encoding":"inplace","label":"address","numberOfBytes":"20"},"t_array(t_struct(DepositVault)51405_storage)dyn_storage":{"encoding":"dynamic_array","label":"struct RiftExchange.DepositVault[]","numberOfBytes":"32","base":"t_struct(DepositVault)51405_storage"},"t_array(t_struct(SwapReservation)51386_storage)dyn_storage":{"encoding":"dynamic_array","label":"struct RiftExchange.SwapReservation[]","numberOfBytes":"32","base":"t_struct(SwapReservation)51386_storage"},"t_array(t_uint192)dyn_storage":{"encoding":"dynamic_array","label":"uint192[]","numberOfBytes":"32","base":"t_uint192"},"t_array(t_uint256)dyn_storage":{"encoding":"dynamic_array","label":"uint256[]","numberOfBytes":"32","base":"t_uint256"},"t_array(t_uint64)dyn_storage":{"encoding":"dynamic_array","label":"uint64[]","numberOfBytes":"32","base":"t_uint64"},"t_bool":{"encoding":"inplace","label":"bool","numberOfBytes":"1"},"t_bytes22":{"encoding":"inplace","label":"bytes22","numberOfBytes":"22"},"t_bytes32":{"encoding":"inplace","label":"bytes32","numberOfBytes":"32"},"t_contract(IERC20)51338":{"encoding":"inplace","label":"contract IERC20","numberOfBytes":"20"},"t_contract(ISP1Verifier)50175":{"encoding":"inplace","label":"contract ISP1Verifier","numberOfBytes":"20"},"t_enum(ReservationState)51351":{"encoding":"inplace","label":"enum RiftExchange.ReservationState","numberOfBytes":"1"},"t_mapping(t_address,t_bool)":{"encoding":"mapping","key":"t_address","label":"mapping(address => bool)","numberOfBytes":"32","value":"t_bool"},"t_mapping(t_address,t_struct(LiquidityProvider)51390_storage)":{"encoding":"mapping","key":"t_address","label":"mapping(address => struct RiftExchange.LiquidityProvider)","numberOfBytes":"32","value":"t_struct(LiquidityProvider)51390_storage"},"t_mapping(t_uint256,t_bytes32)":{"encoding":"mapping","key":"t_uint256","label":"mapping(uint256 => bytes32)","numberOfBytes":"32","value":"t_bytes32"},"t_mapping(t_uint256,t_uint256)":{"encoding":"mapping","key":"t_uint256","label":"mapping(uint256 => uint256)","numberOfBytes":"32","value":"t_uint256"},"t_struct(DepositVault)51405_storage":{"encoding":"inplace","label":"struct RiftExchange.DepositVault","numberOfBytes":"160","members":[{"astId":51392,"contract":"src/RiftExchange.sol:RiftExchange","label":"owner","offset":0,"slot":"0","type":"t_address"},{"astId":51394,"contract":"src/RiftExchange.sol:RiftExchange","label":"depositTimestamp","offset":20,"slot":"0","type":"t_uint64"},{"astId":51396,"contract":"src/RiftExchange.sol:RiftExchange","label":"initialBalance","offset":0,"slot":"1","type":"t_uint256"},{"astId":51398,"contract":"src/RiftExchange.sol:RiftExchange","label":"unreservedBalance","offset":0,"slot":"2","type":"t_uint256"},{"astId":51400,"contract":"src/RiftExchange.sol:RiftExchange","label":"withdrawnAmount","offset":0,"slot":"3","type":"t_uint256"},{"astId":51402,"contract":"src/RiftExchange.sol:RiftExchange","label":"exchangeRate","offset":0,"slot":"4","type":"t_uint64"},{"astId":51404,"contract":"src/RiftExchange.sol:RiftExchange","label":"btcPayoutLockingScript","offset":8,"slot":"4","type":"t_bytes22"}]},"t_struct(LiquidityProvider)51390_storage":{"encoding":"inplace","label":"struct RiftExchange.LiquidityProvider","numberOfBytes":"32","members":[{"astId":51389,"contract":"src/RiftExchange.sol:RiftExchange","label":"depositVaultIndexes","offset":0,"slot":"0","type":"t_array(t_uint256)dyn_storage"}]},"t_struct(SwapReservation)51386_storage":{"encoding":"inplace","label":"struct RiftExchange.SwapReservation","numberOfBytes":"352","members":[{"astId":51353,"contract":"src/RiftExchange.sol:RiftExchange","label":"owner","offset":0,"slot":"0","type":"t_address"},{"astId":51355,"contract":"src/RiftExchange.sol:RiftExchange","label":"confirmationBlockHeight","offset":20,"slot":"0","type":"t_uint32"},{"astId":51357,"contract":"src/RiftExchange.sol:RiftExchange","label":"reservationTimestamp","offset":24,"slot":"0","type":"t_uint64"},{"astId":51359,"contract":"src/RiftExchange.sol:RiftExchange","label":"liquidityUnlockedTimestamp","offset":0,"slot":"1","type":"t_uint64"},{"astId":51362,"contract":"src/RiftExchange.sol:RiftExchange","label":"state","offset":8,"slot":"1","type":"t_enum(ReservationState)51351"},{"astId":51364,"contract":"src/RiftExchange.sol:RiftExchange","label":"ethPayoutAddress","offset":9,"slot":"1","type":"t_address"},{"astId":51366,"contract":"src/RiftExchange.sol:RiftExchange","label":"lpReservationHash","offset":0,"slot":"2","type":"t_bytes32"},{"astId":51368,"contract":"src/RiftExchange.sol:RiftExchange","label":"nonce","offset":0,"slot":"3","type":"t_bytes32"},{"astId":51370,"contract":"src/RiftExchange.sol:RiftExchange","label":"totalSatsInputIncludingProxyFee","offset":0,"slot":"4","type":"t_uint256"},{"astId":51372,"contract":"src/RiftExchange.sol:RiftExchange","label":"totalSwapOutputAmount","offset":0,"slot":"5","type":"t_uint256"},{"astId":51374,"contract":"src/RiftExchange.sol:RiftExchange","label":"proposedBlockHeight","offset":0,"slot":"6","type":"t_uint64"},{"astId":51376,"contract":"src/RiftExchange.sol:RiftExchange","label":"proposedBlockHash","offset":0,"slot":"7","type":"t_bytes32"},{"astId":51379,"contract":"src/RiftExchange.sol:RiftExchange","label":"vaultIndexes","offset":0,"slot":"8","type":"t_array(t_uint256)dyn_storage"},{"astId":51382,"contract":"src/RiftExchange.sol:RiftExchange","label":"amountsToReserve","offset":0,"slot":"9","type":"t_array(t_uint192)dyn_storage"},{"astId":51385,"contract":"src/RiftExchange.sol:RiftExchange","label":"expectedSatsOutput","offset":0,"slot":"10","type":"t_array(t_uint64)dyn_storage"}]},"t_uint192":{"encoding":"inplace","label":"uint192","numberOfBytes":"24"},"t_uint256":{"encoding":"inplace","label":"uint256","numberOfBytes":"32"},"t_uint32":{"encoding":"inplace","label":"uint32","numberOfBytes":"4"},"t_uint64":{"encoding":"inplace","label":"uint64","numberOfBytes":"8"},"t_uint8":{"encoding":"inplace","label":"uint8","numberOfBytes":"1"}}},"id":63}