{"abi":[{"type":"constructor","inputs":[{"name":"initialCheckpointHeight","type":"uint256","internalType":"uint256"},{"name":"initialBlockHash","type":"bytes32","internalType":"bytes32"},{"name":"verifierContractAddress","type":"address","internalType":"address"},{"name":"depositTokenAddress","type":"address","internalType":"address"},{"name":"_proverReward","type":"uint256","internalType":"uint256"},{"name":"_releaserReward","type":"uint256","internalType":"uint256"},{"name":"_protocolAddress","type":"address","internalType":"address payable"},{"name":"_owner","type":"address","internalType":"address"}],"stateMutability":"nonpayable"},{"type":"function","name":"CHALLENGE_PERIOD","inputs":[],"outputs":[{"name":"","type":"uint256","internalType":"uint256"}],"stateMutability":"view"},{"type":"function","name":"DEPOSIT_TOKEN","inputs":[],"outputs":[{"name":"","type":"address","internalType":"contract IERC20"}],"stateMutability":"view"},{"type":"function","name":"MAX_DEPOSIT_OUTPUTS","inputs":[],"outputs":[{"name":"","type":"uint16","internalType":"uint16"}],"stateMutability":"view"},{"type":"function","name":"MIN_ORDER_GAS_MULTIPLIER","inputs":[],"outputs":[{"name":"","type":"uint256","internalType":"uint256"}],"stateMutability":"view"},{"type":"function","name":"PROOF_GAS_COST","inputs":[],"outputs":[{"name":"","type":"uint256","internalType":"uint256"}],"stateMutability":"view"},{"type":"function","name":"RELEASE_GAS_COST","inputs":[],"outputs":[{"name":"","type":"uint256","internalType":"uint256"}],"stateMutability":"view"},{"type":"function","name":"RESERVATION_LOCKUP_PERIOD","inputs":[],"outputs":[{"name":"","type":"uint256","internalType":"uint256"}],"stateMutability":"view"},{"type":"function","name":"SAMPLING_SIZE","inputs":[],"outputs":[{"name":"","type":"uint8","internalType":"uint8"}],"stateMutability":"view"},{"type":"function","name":"TOKEN_DECIMALS","inputs":[],"outputs":[{"name":"","type":"uint8","internalType":"uint8"}],"stateMutability":"view"},{"type":"function","name":"addBlock","inputs":[{"name":"safeBlockHeight","type":"uint256","internalType":"uint256"},{"name":"proposedBlockHeight","type":"uint256","internalType":"uint256"},{"name":"confirmationBlockHeight","type":"uint256","internalType":"uint256"},{"name":"blockHashes","type":"bytes32[]","internalType":"bytes32[]"},{"name":"proposedBlockIndex","type":"uint256","internalType":"uint256"}],"outputs":[],"stateMutability":"nonpayable"},{"type":"function","name":"buildProofPublicInputs","inputs":[{"name":"inputs","type":"tuple","internalType":"struct RiftExchange.ProofPublicInputs","components":[{"name":"bitcoinTxId","type":"bytes32","internalType":"bytes32"},{"name":"lpReservationHash","type":"bytes32","internalType":"bytes32"},{"name":"orderNonce","type":"bytes32","internalType":"bytes32"},{"name":"expectedPayout","type":"uint64","internalType":"uint64"},{"name":"lpCount","type":"uint64","internalType":"uint64"},{"name":"confirmationBlockHash","type":"bytes32","internalType":"bytes32"},{"name":"proposedBlockHash","type":"bytes32","internalType":"bytes32"},{"name":"safeBlockHash","type":"bytes32","internalType":"bytes32"},{"name":"retargetBlockHash","type":"bytes32","internalType":"bytes32"},{"name":"safeBlockHeight","type":"uint64","internalType":"uint64"},{"name":"safeBlockHeightDelta","type":"uint64","internalType":"uint64"},{"name":"confirmationBlockHeightDelta","type":"uint64","internalType":"uint64"},{"name":"retargetBlockHeight","type":"uint64","internalType":"uint64"},{"name":"aggregation_object","type":"bytes32[16]","internalType":"bytes32[16]"}]}],"outputs":[{"name":"","type":"bytes32[]","internalType":"bytes32[]"}],"stateMutability":"pure"},{"type":"function","name":"currentConfirmationHeight","inputs":[],"outputs":[{"name":"","type":"uint256","internalType":"uint256"}],"stateMutability":"view"},{"type":"function","name":"currentHeight","inputs":[],"outputs":[{"name":"","type":"uint256","internalType":"uint256"}],"stateMutability":"view"},{"type":"function","name":"depositLiquidity","inputs":[{"name":"depositAmount","type":"uint256","internalType":"uint256"},{"name":"exchangeRate","type":"uint64","internalType":"uint64"},{"name":"btcPayoutLockingScript","type":"bytes22","internalType":"bytes22"},{"name":"vaultIndexToOverwrite","type":"int256","internalType":"int256"},{"name":"vaultIndexWithSameExchangeRate","type":"int256","internalType":"int256"}],"outputs":[],"stateMutability":"nonpayable"},{"type":"function","name":"depositVaults","inputs":[{"name":"","type":"uint256","internalType":"uint256"}],"outputs":[{"name":"initialBalance","type":"uint256","internalType":"uint256"},{"name":"unreservedBalance","type":"uint256","internalType":"uint256"},{"name":"exchangeRate","type":"uint64","internalType":"uint64"},{"name":"btcPayoutLockingScript","type":"bytes22","internalType":"bytes22"}],"stateMutability":"view"},{"type":"function","name":"emptyDepositVault","inputs":[{"name":"vaultIndex","type":"uint256","internalType":"uint256"}],"outputs":[],"stateMutability":"nonpayable"},{"type":"function","name":"getBlockHash","inputs":[{"name":"blockHeight","type":"uint256","internalType":"uint256"}],"outputs":[{"name":"","type":"bytes32","internalType":"bytes32"}],"stateMutability":"view"},{"type":"function","name":"getDepositVault","inputs":[{"name":"depositIndex","type":"uint256","internalType":"uint256"}],"outputs":[{"name":"","type":"tuple","internalType":"struct RiftExchange.DepositVault","components":[{"name":"initialBalance","type":"uint256","internalType":"uint256"},{"name":"unreservedBalance","type":"uint256","internalType":"uint256"},{"name":"exchangeRate","type":"uint64","internalType":"uint64"},{"name":"btcPayoutLockingScript","type":"bytes22","internalType":"bytes22"}]}],"stateMutability":"view"},{"type":"function","name":"getDepositVaultUnreservedBalance","inputs":[{"name":"depositIndex","type":"uint256","internalType":"uint256"}],"outputs":[{"name":"","type":"uint256","internalType":"uint256"}],"stateMutability":"view"},{"type":"function","name":"getDepositVaultUnreservedBalanceInternalPrecision","inputs":[{"name":"depositIndex","type":"uint256","internalType":"uint256"}],"outputs":[{"name":"","type":"uint256","internalType":"uint256"}],"stateMutability":"view"},{"type":"function","name":"getDepositVaultsLength","inputs":[],"outputs":[{"name":"","type":"uint256","internalType":"uint256"}],"stateMutability":"view"},{"type":"function","name":"getLiquidityProvider","inputs":[{"name":"lpAddress","type":"address","internalType":"address"}],"outputs":[{"name":"","type":"tuple","internalType":"struct RiftExchange.LiquidityProvider","components":[{"name":"depositVaultIndexes","type":"uint256[]","internalType":"uint256[]"}]}],"stateMutability":"view"},{"type":"function","name":"getReservation","inputs":[{"name":"reservationIndex","type":"uint256","internalType":"uint256"}],"outputs":[{"name":"","type":"tuple","internalType":"struct RiftExchange.SwapReservation","components":[{"name":"reservationTimestamp","type":"uint32","internalType":"uint32"},{"name":"unlockTimestamp","type":"uint32","internalType":"uint32"},{"name":"state","type":"uint8","internalType":"enum RiftExchange.ReservationState"},{"name":"ethPayoutAddress","type":"address","internalType":"address"},{"name":"lpReservationHash","type":"bytes32","internalType":"bytes32"},{"name":"nonce","type":"bytes32","internalType":"bytes32"},{"name":"totalSwapAmount","type":"uint256","internalType":"uint256"},{"name":"prepaidFeeAmount","type":"int256","internalType":"int256"},{"name":"proposedBlockHeight","type":"uint256","internalType":"uint256"},{"name":"proposedBlockHash","type":"bytes32","internalType":"bytes32"},{"name":"vaultIndexes","type":"uint256[]","internalType":"uint256[]"},{"name":"amountsToReserve","type":"uint192[]","internalType":"uint192[]"}]}],"stateMutability":"view"},{"type":"function","name":"getReservationLength","inputs":[],"outputs":[{"name":"","type":"uint256","internalType":"uint256"}],"stateMutability":"view"},{"type":"function","name":"owner","inputs":[],"outputs":[{"name":"","type":"address","internalType":"address"}],"stateMutability":"view"},{"type":"function","name":"proposeTransactionProof","inputs":[{"name":"bitcoinTxId","type":"bytes32","internalType":"bytes32"},{"name":"confirmationBlockHash","type":"bytes32","internalType":"bytes32"},{"name":"proposedBlockHash","type":"bytes32","internalType":"bytes32"},{"name":"retargetBlockHash","type":"bytes32","internalType":"bytes32"},{"name":"safeBlockHeight","type":"uint32","internalType":"uint32"},{"name":"swapReservationIndex","type":"uint256","internalType":"uint256"},{"name":"proposedBlockHeight","type":"uint64","internalType":"uint64"},{"name":"confirmationBlockHeight","type":"uint64","internalType":"uint64"},{"name":"aggregation_object","type":"bytes32[16]","internalType":"bytes32[16]"},{"name":"proof","type":"bytes","internalType":"bytes"}],"outputs":[],"stateMutability":"nonpayable"},{"type":"function","name":"protocolFeeBP","inputs":[],"outputs":[{"name":"","type":"uint8","internalType":"uint8"}],"stateMutability":"view"},{"type":"function","name":"proverReward","inputs":[],"outputs":[{"name":"","type":"uint256","internalType":"uint256"}],"stateMutability":"view"},{"type":"function","name":"releaseLiquidity","inputs":[{"name":"swapReservationIndex","type":"uint256","internalType":"uint256"}],"outputs":[],"stateMutability":"nonpayable"},{"type":"function","name":"releaserReward","inputs":[],"outputs":[{"name":"","type":"uint256","internalType":"uint256"}],"stateMutability":"view"},{"type":"function","name":"reserveLiquidity","inputs":[{"name":"vaultIndexesToReserve","type":"uint256[]","internalType":"uint256[]"},{"name":"amountsToReserve","type":"uint192[]","internalType":"uint192[]"},{"name":"ethPayoutAddress","type":"address","internalType":"address"},{"name":"expiredSwapReservationIndexes","type":"uint256[]","internalType":"uint256[]"}],"outputs":[],"stateMutability":"nonpayable"},{"type":"function","name":"swapReservations","inputs":[{"name":"","type":"uint256","internalType":"uint256"}],"outputs":[{"name":"reservationTimestamp","type":"uint32","internalType":"uint32"},{"name":"unlockTimestamp","type":"uint32","internalType":"uint32"},{"name":"state","type":"uint8","internalType":"enum RiftExchange.ReservationState"},{"name":"ethPayoutAddress","type":"address","internalType":"address"},{"name":"lpReservationHash","type":"bytes32","internalType":"bytes32"},{"name":"nonce","type":"bytes32","internalType":"bytes32"},{"name":"totalSwapAmount","type":"uint256","internalType":"uint256"},{"name":"prepaidFeeAmount","type":"int256","internalType":"int256"},{"name":"proposedBlockHeight","type":"uint256","internalType":"uint256"},{"name":"proposedBlockHash","type":"bytes32","internalType":"bytes32"}],"stateMutability":"view"},{"type":"function","name":"transferOwnership","inputs":[{"name":"newOwner","type":"address","internalType":"address"}],"outputs":[],"stateMutability":"nonpayable"},{"type":"function","name":"updateExchangeRate","inputs":[{"name":"globalVaultIndex","type":"uint256","internalType":"uint256"},{"name":"localVaultIndex","type":"uint256","internalType":"uint256"},{"name":"newexchangeRate","type":"uint64","internalType":"uint64"},{"name":"expiredReservationIndexes","type":"uint256[]","internalType":"uint256[]"}],"outputs":[],"stateMutability":"nonpayable"},{"type":"function","name":"updateProtocolAddress","inputs":[{"name":"newProtocolAddress","type":"address","internalType":"address payable"}],"outputs":[],"stateMutability":"nonpayable"},{"type":"function","name":"updateProtocolFee","inputs":[{"name":"newProtocolFeeBP","type":"uint8","internalType":"uint8"}],"outputs":[],"stateMutability":"nonpayable"},{"type":"function","name":"updateRewards","inputs":[{"name":"newProverReward","type":"uint256","internalType":"uint256"},{"name":"newReleaserReward","type":"uint256","internalType":"uint256"}],"outputs":[],"stateMutability":"nonpayable"},{"type":"function","name":"validateBlockExists","inputs":[{"name":"blockHeight","type":"uint256","internalType":"uint256"}],"outputs":[],"stateMutability":"view"},{"type":"function","name":"verifierContract","inputs":[],"outputs":[{"name":"","type":"address","internalType":"contract UltraVerifier"}],"stateMutability":"view"},{"type":"function","name":"withdrawLiquidity","inputs":[{"name":"globalVaultIndex","type":"uint256","internalType":"uint256"},{"name":"localVaultIndex","type":"uint256","internalType":"uint256"},{"name":"amountToWithdraw","type":"uint192","internalType":"uint192"},{"name":"expiredReservationIndexes","type":"uint256[]","internalType":"uint256[]"}],"outputs":[],"stateMutability":"nonpayable"},{"type":"event","name":"OwnershipTransferred","inputs":[{"name":"user","type":"address","indexed":true,"internalType":"address"},{"name":"newOwner","type":"address","indexed":true,"internalType":"address"}],"anonymous":false},{"type":"error","name":"BlockDoesNotExist","inputs":[]},{"type":"error","name":"InvaidSameExchangeRatevaultIndex","inputs":[]},{"type":"error","name":"InvalidConfirmationBlock","inputs":[]},{"type":"error","name":"InvalidProposedBlockOverwrite","inputs":[]},{"type":"error","name":"InvalidSafeBlock","inputs":[]},{"type":"error","name":"InvalidUpdateWithActiveReservations","inputs":[]},{"type":"error","name":"InvalidVaultIndex","inputs":[]},{"type":"error","name":"InvalidVaultUpdate","inputs":[]},{"type":"error","name":"NotEnoughLiquidity","inputs":[]},{"type":"error","name":"NotVaultOwner","inputs":[]},{"type":"error","name":"OverwrittenProposedBlock","inputs":[]},{"type":"error","name":"ReservationNotExpired","inputs":[]},{"type":"error","name":"ReservationNotUnlocked","inputs":[]},{"type":"error","name":"StillInChallengePeriod","inputs":[]},{"type":"error","name":"WithdrawalAmountError","inputs":[]},{"type":"error","name":"exchangeRateZero","inputs":[]}],"bytecode":{"object":"0x60e060405260038054601960a21b60ff60a01b19909116179055600980546001600160a01b03191673f39fd6e51aad88f6f4ce6ab8827279cfffb9226617905534801561004b57600080fd5b50604051613abd380380613abd83398101604081905261006a91610309565b6001889055600088815260208190526040808220899055600380546001600160a01b0319166001600160a01b03851690811790915590518392907f8be0079c531659141344cd1fd0a4f28419497f9722a3daafe3b4186f6b6457e0908290a3506001600160a01b0380871660c052851660805260408051808201909152600f81526e02222a827a9a4aa2faa27a5a2a71d1608d1b602082015261010c906101f4565b6080516101189061023e565b6080516001600160a01b031663313ce5676040518163ffffffff1660e01b8152600401602060405180830381865afa158015610158573d6000803e3d6000fd5b505050506040513d601f19601f8201168201806040525081019061017c9190610393565b60ff1660a05260408051808201909152601081526f02a27a5a2a72fa222a1a4a6a0a6299d160851b60208201526101b2906101f4565b60a0516101c19060ff1661028a565b50600492909255600555600980546001600160a01b0319166001600160a01b039092169190911790555061040b92505050565b61023b8160405160240161020891906103bd565b60408051601f198184030181529190526020810180516001600160e01b0390811663104c13eb60e21b179091526102d316565b50565b6040516001600160a01b038216602482015261023b9060440160408051601f198184030181529190526020810180516001600160e01b0390811663161765e160e11b179091526102d316565b61023b816040516024016102a091815260200190565b60408051601f198184030181529190526020810180516001600160e01b0390811663f5b1bba960e01b179091526102d316565b80516a636f6e736f6c652e6c6f67602083016000808483855afa5050505050565b6001600160a01b038116811461023b57600080fd5b600080600080600080600080610100898b03121561032657600080fd5b885160208a015160408b01519199509750610340816102f4565b60608a0151909650610351816102f4565b60808a015160a08b015160c08c01519297509095509350610371816102f4565b60e08a0151909250610382816102f4565b809150509295985092959890939650565b6000602082840312156103a557600080fd5b815160ff811681146103b657600080fd5b9392505050565b602081526000825180602084015260005b818110156103eb57602081860181015160408684010152016103ce565b506000604082850101526040601f19601f83011684010191505092915050565b60805160a05160c05161362f61048e6000396000818161056201526121140152600081816103ad01528181612599015281816125c60152818161283a015261286701526000818161026701528181610d5e01528181610e420152818161186001528181611c2501528181611ce801528181611f8201526121de015261362f6000f3fe608060405234801561001057600080fd5b50600436106102485760003560e01c80638da5cb5b1161013b578063c5fba0b8116100b8578063eb6c75221161007c578063eb6c7522146105bf578063ed8b2b32146105c9578063ee82ac5e146105dc578063f2fde38b146105fc578063fba781661461060f57600080fd5b8063c5fba0b814610549578063cf6956881461055d578063d57763c314610584578063e6a5e60f146105a4578063ea6fe03e146105b757600080fd5b80639cdb8e5a116100ff5780639cdb8e5a146104f7578063ad062e5514610512578063aeacb2e71461051a578063b530ffb11461052d578063c3a079ed1461054057600080fd5b80638da5cb5b1461049e57806397e50818146104b157806398f9e757146104c45780639a64279c146104e45780639cc7eab9146104ee57600080fd5b806358e2b676116101c95780636b994abb1161018d5780636b994abb146104485780636dcc17c814610471578063778919071461047a5780637dce55501461048d57806389a11f7a1461049557600080fd5b806358e2b676146103955780635b7f415c146103a85780635f4d0610146103e15780635f5d5b6a1461042d5780636512d0571461043557600080fd5b80632d908c02116102105780632d908c02146103295780633435d9fe1461033c578063490d4c5f1461035c57806351a7f1cd1461036f57806356fe6f861461038257600080fd5b80630a7aa2931461024d57806313f6658714610262578063163de0c5146102a6578063276d080e146102bd5780632d312a4a14610316575b600080fd5b61026061025b36600461298c565b610618565b005b6102897f000000000000000000000000000000000000000000000000000000000000000081565b6040516001600160a01b0390911681526020015b60405180910390f35b6102af60015481565b60405190815260200161029d565b6102d06102cb3660046129b6565b61066b565b60405161029d919081518152602080830151908201526040808301516001600160401b0316908201526060918201516001600160501b0319169181019190915260800190565b610260610324366004612b0a565b610707565b610260610337366004612c0d565b610ebd565b61034f61034a366004612d4d565b6110b3565b60405161029d9190612e77565b61026061036a3660046129b6565b6114a2565b61026061037d366004612e8a565b6114e6565b610260610390366004612ee7565b6118df565b6102606103a3366004612f14565b6119d1565b6103cf7f000000000000000000000000000000000000000000000000000000000000000081565b60405160ff909116815260200161029d565b6103f46103ef3660046129b6565b611a1d565b60405161029d949392919093845260208401929092526001600160401b031660408301526001600160501b031916606082015260800190565b6102af600281565b6102af6104433660046129b6565b611a65565b61045b6104563660046129b6565b611a9a565b60405161029d9a99989796959493929190612f69565b6102af60045481565b6102606104883660046129b6565b611b12565b6008546102af565b6102af61708081565b600354610289906001600160a01b031681565b6102606104bf366004612fce565b611dc4565b6104d76104d2366004612f14565b611df9565b60405161029d9190612ff0565b6102af6203345081565b6102af60055481565b6104ff603281565b60405161ffff909116815260200161029d565b6103cf600a81565b610260610528366004613013565b611e7c565b61026061053b3660046130af565b611fe2565b6102af61025881565b6003546103cf90600160a01b900460ff1681565b6102897f000000000000000000000000000000000000000000000000000000000000000081565b6105976105923660046129b6565b6122ae565b60405161029d91906131a7565b6102af6105b23660046129b6565b6124c0565b6007546102af565b6102af620668a081565b6102606105d73660046129b6565b6124ee565b6102af6105ea3660046129b6565b60009081526020819052604090205490565b61026061060a366004612f14565b61251d565b6102af60025481565b6003546001600160a01b0316331461064b5760405162461bcd60e51b815260040161064290613286565b60405180910390fd5b6003805460ff909216600160a01b0260ff60a01b19909216919091179055565b604080516080810182526000808252602082018190529181018290526060810191909152600882815481106106a2576106a26132ac565b600091825260209182902060408051608081018252600393909302909101805483526001810154938301939093526002909201546001600160401b03811692820192909252600160401b90910460501b6001600160501b031916606082015292915050565b6000805b84518110156107535761073f858281518110610729576107296132ac565b60200260200101516001600160c01b0316612593565b61074990836132d8565b915060010161070b565b506003546000906107719061271090600160a01b900460ff16613301565b61077f9061ffff1683613325565b90506000600261079248620668a0613325565b61079c9190613325565b6004546107a991906132d8565b9050600060026107bc4862033450613325565b6107c69190613325565b6005546107d391906132d8565b90506107de85612605565b6107e78561268c565b6000805b89518110156109cf576002898281518110610808576108086132ac565b602002602001015160088c8481518110610824576108246132ac565b60200260200101518154811061083c5761083c6132ac565b906000526020600020906003020160020160009054906101000a90046001600160401b031660088d8581518110610875576108756132ac565b60200260200101518154811061088d5761088d6132ac565b600091825260209182902060026003909202010154604080516001600160c01b03909516928501929092526001600160401b03909216908301526001600160501b0319600160401b90910460501b1660608201526080810184905260a00160408051601f198184030181529082905261090591613360565b602060405180830381855afa158015610922573d6000803e3d6000fd5b5050506040513d601f19601f82011682018060405250810190610945919061337c565b915060088a828151811061095b5761095b6132ac565b602002602001015181548110610973576109736132ac565b906000526020600020906003020160010154898281518110610997576109976132ac565b60200260200101516001600160c01b031611156109c757604051634323a55560e01b815260040160405180910390fd5b6001016107eb565b50855115610af15760006007876000815181106109ee576109ee6132ac565b602002602001015181548110610a0657610a066132ac565b6000918252602090912060099091020180544263ffffffff166001600160e81b0319909116600160481b6001600160a01b038c160267ffffffffffffffff19161717600160401b1781559050610a5c83856132d8565b600482015560038101869055600754604080516001600160a01b038b16602082015242918101919091524660608201526080810184905260a081019190915260c00160408051601f19818403018152919052805160209182012060028301558a51610acf916007840191908d01906128db565b508851610ae590600883019060208c0190612922565b50600101819055610cd9565b604080516101808101825263ffffffff42168152600060208201526007918101600181526001600160a01b038a16602080830182905260408084018790526007548151928301939093524290820152466060828101919091526080820187905260a082019290925291019060c0016040516020818303038152906040528051906020012081526020018781526020018486610b8c91906132d8565b8152600060208083018290526040808401839052606084018f905260809093018d9052845460018101865594825290819020835160099095020180549184015163ffffffff9081166401000000000267ffffffffffffffff19909316951694909417178084559082015191929190829060ff60401b1916600160401b836004811115610c1a57610c1a612f31565b0217905550606082015181546001600160a01b03909116600160481b027fffffff0000000000000000000000000000000000000000ffffffffffffffffff9091161781556080820151600182015560a0820151600282015560c0820151600382015560e08201516004820155610100820151600582015561012082015160068201556101408201518051610cb89160078401916020909101906128db565b506101608201518051610cd5916008840191602090910190612922565b5050505b60005b8951811015610d5357610cfa898281518110610729576107296132ac565b60088b8381518110610d0e57610d0e6132ac565b602002602001015181548110610d2657610d266132ac565b90600052602060002090600302016001016000828254610d469190613395565b9091555050600101610cdc565b506001600160a01b037f0000000000000000000000000000000000000000000000000000000000000000166323b872dd333085610d9089896132d8565b610d9a91906132d8565b6040516001600160e01b031960e086901b1681526001600160a01b03938416600482015292909116602483015260448201526064016020604051808303816000875af1158015610dee573d6000803e3d6000fd5b505050506040513d601f19601f82011682018060405250810190610e1291906133a8565b506009546040516323b872dd60e01b81523060048201526001600160a01b039182166024820152604481018690527f0000000000000000000000000000000000000000000000000000000000000000909116906323b872dd906064016020604051808303816000875af1158015610e8d573d6000803e3d6000fd5b505050506040513d601f19601f82011682018060405250810190610eb191906133a8565b50505050505050505050565b6001546005610ecc8686613395565b1015610f275760008481526020819052604090205483518490610ef190600190613395565b81518110610f0157610f016132ac565b602002602001015114610f27576040516341305f6360e01b815260040160405180910390fd5b80861115610f485760405163575f3da360e01b815260040160405180910390fd5b828281518110610f5a57610f5a6132ac565b60200260200101516000808781526020019081526020016000205403610f8057506110ac565b60008581526020819052604090205415801590610f9f57508360025410155b15610fbd576040516371e98f3d60e11b815260040160405180910390fd5b808511156110615780860361100157828281518110610fde57610fde6132ac565b60200260200101516000808781526020019081526020016000208190555061109a565b8086101561105c57855b85811161105a578361101d8883613395565b8151811061102d5761102d6132ac565b60209081029190910181015160008381529182905260409091205580611052816133ca565b91505061100b565b505b61109a565b8085101561109a5782828151811061107b5761107b6132ac565b6020026020010151600080878152602001908152602001600020819055505b6001548511156110aa5760018590555b505b5050505050565b6040805160248082526104a082019092526060916000919060208201610480803683370190505090506110e9836000015161279e565b816000815181106110fc576110fc6132ac565b6020908102919091010152825160ff168160018151811061111f5761111f6132ac565b602002602001018181525050611138836020015161279e565b8160028151811061114b5761114b6132ac565b602002602001018181525050611165836020015160ff1690565b81600381518110611178576111786132ac565b602002602001018181525050611191836040015161279e565b816004815181106111a4576111a46132ac565b6020908102919091010152604083015160ff16816005815181106111ca576111ca6132ac565b60200260200101818152505082606001516001600160401b031660001b816006815181106111fa576111fa6132ac565b60200260200101818152505082608001516001600160401b031660001b8160078151811061122a5761122a6132ac565b6020026020010181815250506112438360a0015161279e565b81600881518110611256576112566132ac565b602090810291909101015260a083015160ff168160098151811061127c5761127c6132ac565b6020026020010181815250506112958360c0015161279e565b81600a815181106112a8576112a86132ac565b602090810291909101015260c083015160ff1681600b815181106112ce576112ce6132ac565b6020026020010181815250506112e78360e0015161279e565b81600c815181106112fa576112fa6132ac565b602090810291909101015260e083015160ff1681600d81518110611320576113206132ac565b60200260200101818152505061133a83610100015161279e565b81600e8151811061134d5761134d6132ac565b602090810291909101015261010083015160ff1681600f81518110611374576113746132ac565b6020026020010181815250508261012001516001600160401b031660001b816010815181106113a5576113a56132ac565b6020026020010181815250508261014001516001600160401b031660001b816011815181106113d6576113d66132ac565b6020026020010181815250508261016001516001600160401b031660001b81601281518110611407576114076132ac565b6020026020010181815250508261018001516001600160401b031660001b81601381518110611438576114386132ac565b60200260200101818152505060005b601081101561149b57836101a001518160108110611467576114676132ac565b6020020151826114788360146132d8565b81518110611488576114886132ac565b6020908102919091010152600101611447565b5092915050565b6000600882815481106114b7576114b76132ac565b600091825260208220600390910201818155600181019190915560020180546001600160f01b03191690555050565b6115176040518060400160405280601081526020016f6465706f7369744c697175696469747960801b8152506127ac565b6115486040518060400160405280600f81526020016e02232b837b9b4ba20b6b7bab73a1d1608d1b815250866127ef565b600061155386612593565b90506115946040518060400160405280601781526020017f696e7465726e616c4465706f736974416d6f756e743a20000000000000000000815250826127ef565b846001600160401b03166000036115be57604051635c4ad48d60e11b815260040160405180910390fd5b33600090815260066020526040812054900361160c5760408051600060208083018281528385018552835233825260068152929020815180519293919261160892849201906128db565b5050505b816000191461169857600082905060006008828154811061162f5761162f6132ac565b6000918252602090912060039091020160028101549091506001600160401b03888116911603611678578781600101600082825461166d91906132d8565b909155506116919050565b60405163927ce9e760e01b815260040160405180910390fd5b505061180a565b8260001914611724576000600884815481106116b6576116b66132ac565b9060005260206000209060030201905080600101546000146116eb5760405163721e09df60e01b815260040160405180910390fd5b868155600181018790556002018054605086901c600160401b026001600160f01b03199091166001600160401b0388161717905561180a565b60408051608081018252878152602081018881526001600160401b038089169383019384526001600160501b031988166060840190815260088054600181018255600091909152935160039094027ff3f7a9fe364faab93b216da50a3214154f22a0a2b415b23a84c8169e8b636ee381019490945591517ff3f7a9fe364faab93b216da50a3214154f22a0a2b415b23a84c8169e8b636ee484015592517ff3f7a9fe364faab93b216da50a3214154f22a0a2b415b23a84c8169e8b636ee59092018054915160501c600160401b026001600160f01b031990921692909316919091171790555b33600090815260066020526040902060085461182890600190613395565b815460018101835560009283526020909220909101556040516323b872dd60e01b8152336004820152306024820152604481018790527f00000000000000000000000000000000000000000000000000000000000000006001600160a01b0316906323b872dd906064015b6020604051808303816000875af11580156118b2573d6000803e3d6000fd5b505050506040513d601f19601f820116820180604052508101906118d691906133a8565b50505050505050565b336000908152600660205260409020805485919085908110611903576119036132ac565b90600052602060002001541461192c57604051630e7fea9d60e01b815260040160405180910390fd5b816001600160401b031660000361195657604051636e5a187760e11b815260040160405180910390fd5b60006008858154811061196b5761196b6132ac565b906000526020600020906003020190506119848261268c565b80546001820154146119a9576040516391bc6cc360e01b815260040160405180910390fd5b600201805467ffffffffffffffff19166001600160401b039390931692909217909155505050565b6003546001600160a01b031633146119fb5760405162461bcd60e51b815260040161064290613286565b600980546001600160a01b0319166001600160a01b0392909216919091179055565b60088181548110611a2d57600080fd5b60009182526020909120600390910201805460018201546002909201549092506001600160401b03811690600160401b900460501b84565b6000611a9460088381548110611a7d57611a7d6132ac565b906000526020600020906003020160010154612834565b92915050565b60078181548110611aaa57600080fd5b6000918252602090912060099091020180546001820154600283015460038401546004850154600586015460069096015463ffffffff808716985064010000000087041696600160401b870460ff1696600160481b90046001600160a01b031695949392918a565b600060078281548110611b2757611b276132ac565b60009182526020909120600990910201905060028154600160401b900460ff166004811115611b5857611b58612f31565b14611b765760405163b38c767b60e01b815260040160405180910390fd5b805461025890611b9490640100000000900463ffffffff1642613395565b1015611bb357604051632d5c37f560e21b815260040160405180910390fd5b6006810154600582015460009081526020819052604090205403611bea5760405163c1f6fa5160e01b815260040160405180910390fd5b6000611bf94862033450613325565b600554611c0691906132d8565b60405163a9059cbb60e01b8152336004820152602481018290529091507f00000000000000000000000000000000000000000000000000000000000000006001600160a01b03169063a9059cbb906044016020604051808303816000875af1158015611c76573d6000803e3d6000fd5b505050506040513d601f19601f82011682018060405250810190611c9a91906133a8565b5080826004016000828254611caf91906133e3565b9091555050600482015460001315611ce6578160040154826003016000828254611cd991906132d8565b9091555050600060048301555b7f00000000000000000000000000000000000000000000000000000000000000006001600160a01b031663a9059cbb8360000160099054906101000a90046001600160a01b0316611d3a8560030154612834565b6040516001600160e01b031960e085901b1681526001600160a01b03909216600483015260248201526044016020604051808303816000875af1158015611d85573d6000803e3d6000fd5b505050506040513d601f19601f82011682018060405250810190611da991906133a8565b5050805460ff60401b19166804000000000000000017905550565b6003546001600160a01b03163314611dee5760405162461bcd60e51b815260040161064290613286565b600491909155600555565b6040805160208082018352606082526001600160a01b03841660009081526006825283902083518154808402820186018652928101838152939490939192849291849190840182828015611e6c57602002820191906000526020600020905b815481526020019060010190808311611e58575b5050505050815250509050919050565b6000611e90836001600160c01b0316612593565b3360009081526006602052604090208054919250869186908110611eb657611eb66132ac565b906000526020600020015414611edf57604051630e7fea9d60e01b815260040160405180910390fd5b611ee88261268c565b6008548510611f0a5760405163721e09df60e01b815260040160405180910390fd5b600060088681548110611f1f57611f1f6132ac565b906000526020600020906003020190508160001480611f415750806001015482115b15611f5f5760405163b4e3d41360e01b815260040160405180910390fd5b81816001016000828254611f739190613395565b90915550506001600160a01b037f00000000000000000000000000000000000000000000000000000000000000001663a9059cbb33611fb185612834565b6040516001600160e01b031960e085901b1681526001600160a01b0390921660048301526024820152604401611893565b600060078681548110611ff757611ff76132ac565b9060005260206000209060090201905060006120fa604051806101c001604052808e8152602001846001015481526020018460020154815260200184600301546001600160401b0316815260200184600701805490506001600160401b031681526020018d81526020018c81526020016120838b63ffffffff1660009081526020819052604090205490565b81526020018b81526020018a63ffffffff166001600160401b031681526020018a63ffffffff16896120b59190613403565b6001600160401b031681526020016120cd8989613403565b6001600160401b031681526020016120e4896128a2565b6001600160401b031681526020018690526110b3565b604051633a94343960e21b81529091506001600160a01b037f0000000000000000000000000000000000000000000000000000000000000000169063ea50d0e49061214b908690859060040161344e565b602060405180830381865afa158015612168573d6000803e3d6000fd5b505050506040513d601f19601f8201168201806040525081019061218c91906133a8565b50815460ff60401b19166802000000000000000017825560006121b248620668a0613325565b6004546121bf91906132d8565b60405163a9059cbb60e01b8152336004820152602481018290529091507f00000000000000000000000000000000000000000000000000000000000000006001600160a01b03169063a9059cbb906044016020604051808303816000875af115801561222f573d6000803e3d6000fd5b505050506040513d601f19601f8201168201806040525081019061225391906133a8565b508083600401600082825461226891906133e3565b909155505060048301546000131561229f57826004015483600301600082825461229291906132d8565b9091555050600060048401555b50505050505050505050505050565b604080516101808101825260008082526020820181905291810182905260608082018390526080820183905260a0820183905260c0820183905260e082018390526101008201839052610120820192909252610140810182905261016081019190915260078281548110612324576123246132ac565b600091825260209182902060408051610180810182526009909302909101805463ffffffff80821685526401000000008204169484019490945291929083019060ff600160401b90910416600481111561238057612380612f31565b600481111561239157612391612f31565b81526020016000820160099054906101000a90046001600160a01b03166001600160a01b03166001600160a01b031681526020016001820154815260200160028201548152602001600382015481526020016004820154815260200160058201548152602001600682015481526020016007820180548060200260200160405190810160405280929190818152602001828054801561244f57602002820191906000526020600020905b81548152602001906001019080831161243b575b5050505050815260200160088201805480602002602001604051908101604052809291908181526020018280548015611e6c57602002820191906000526020600020905b81546001600160c01b03168152600190910190602001808311612493575050505050815250509050919050565b6000600882815481106124d5576124d56132ac565b9060005260206000209060030201600101549050919050565b60008181526020819052604090205461251a5760405163fa4a5e4560e01b815260040160405180910390fd5b50565b6003546001600160a01b031633146125475760405162461bcd60e51b815260040161064290613286565b600380546001600160a01b0319166001600160a01b03831690811790915560405133907f8be0079c531659141344cd1fd0a4f28419497f9722a3daafe3b4186f6b6457e090600090a350565b600060127f000000000000000000000000000000000000000000000000000000000000000060ff161015612601576125ec7f00000000000000000000000000000000000000000000000000000000000000006012613473565b6125f790600a613573565b611a949083613325565b5090565b60005b8151811015612688576170806007838381518110612628576126286132ac565b602002602001015181548110612640576126406132ac565b60009182526020909120600990910201546126619063ffffffff1642613395565b1015612680576040516326349d6b60e01b815260040160405180910390fd5b600101612608565b5050565b60005b8151811015612688576126a182612605565b600060078383815181106126b7576126b76132ac565b6020026020010151815481106126cf576126cf6132ac565b9060005260206000209060090201905060005b600782015481101561277f5760006008836007018381548110612707576127076132ac565b906000526020600020015481548110612722576127226132ac565b90600052602060002090600302019050826008018281548110612747576127476132ac565b60009182526020822001546001830180546001600160c01b039092169290916127719084906132d8565b9091555050506001016126e2565b50805460ff60401b19166803000000000000000017905560010161268f565b6000611a9461010083613582565b61251a816040516024016127c09190613596565b60408051601f198184030181529190526020810180516001600160e01b031663104c13eb60e21b1790526128ba565b61268882826040516024016128059291906135a9565b60408051601f198184030181529190526020810180516001600160e01b03166309710a9d60e41b1790526128ba565b600060127f000000000000000000000000000000000000000000000000000000000000000060ff1610156126015761288d7f00000000000000000000000000000000000000000000000000000000000000006012613473565b61289890600a613573565b611a949083613582565b60006128b06107e0836135cb565b611a949083613403565b80516a636f6e736f6c652e6c6f67602083016000808483855afa5050505050565b828054828255906000526020600020908101928215612916579160200282015b828111156129165782518255916020019190600101906128fb565b50612601929150612977565b828054828255906000526020600020908101928215612916579160200282015b8281111561291657825182546001600160c01b0319166001600160c01b03909116178255602090920191600190910190612942565b5b808211156126015760008155600101612978565b60006020828403121561299e57600080fd5b813560ff811681146129af57600080fd5b9392505050565b6000602082840312156129c857600080fd5b5035919050565b634e487b7160e01b600052604160045260246000fd5b6040516101c081016001600160401b0381118282101715612a0857612a086129cf565b60405290565b604051601f8201601f191681016001600160401b0381118282101715612a3657612a366129cf565b604052919050565b60006001600160401b03821115612a5757612a576129cf565b5060051b60200190565b600082601f830112612a7257600080fd5b8135612a85612a8082612a3e565b612a0e565b8082825260208201915060208360051b860101925085831115612aa757600080fd5b602085015b83811015612ac4578035835260209283019201612aac565b5095945050505050565b80356001600160c01b0381168114612ae557600080fd5b919050565b6001600160a01b038116811461251a57600080fd5b8035612ae581612aea565b60008060008060808587031215612b2057600080fd5b84356001600160401b03811115612b3657600080fd5b612b4287828801612a61565b94505060208501356001600160401b03811115612b5e57600080fd5b8501601f81018713612b6f57600080fd5b8035612b7d612a8082612a3e565b8082825260208201915060208360051b850101925089831115612b9f57600080fd5b6020840193505b82841015612bc857612bb784612ace565b825260209384019390910190612ba6565b9550612bda9250505060408601612aff565b915060608501356001600160401b03811115612bf557600080fd5b612c0187828801612a61565b91505092959194509250565b600080600080600060a08688031215612c2557600080fd5b85359450602086013593506040860135925060608601356001600160401b03811115612c5057600080fd5b8601601f81018813612c6157600080fd5b8035612c6f612a8082612a3e565b8082825260208201915060208360051b85010192508a831115612c9157600080fd5b6020840193505b82841015612cb3578335825260209384019390910190612c98565b979a96995094976080013595945050505050565b80356001600160401b0381168114612ae557600080fd5b600082601f830112612cef57600080fd5b60405161020081016001600160401b0381118282101715612d1257612d126129cf565b60405280610200840185811115612d2857600080fd5b845b81811015612d42578035835260209283019201612d2a565b509195945050505050565b60006103a0828403128015612d6157600080fd5b506000612d6c6129e5565b833581526020808501359082015260408085013590820152612d9060608501612cc7565b6060820152612da160808501612cc7565b608082015260a0848101359082015260c0808501359082015260e08085013590820152610100808501359082018190529150612de06101208501612cc7565b610120820152612df36101408501612cc7565b610140820152612e066101608501612cc7565b610160820152612e196101808501612cc7565b610180820152612e2d856101a08601612cde565b6101a0820152949350505050565b600081518084526020840193506020830160005b82811015612e6d578151865260209586019590910190600101612e4f565b5093949350505050565b6020815260006129af6020830184612e3b565b600080600080600060a08688031215612ea257600080fd5b85359450612eb260208701612cc7565b935060408601356001600160501b031981168114612ecf57600080fd5b94979396509394606081013594506080013592915050565b60008060008060808587031215612efd57600080fd5b8435935060208501359250612bda60408601612cc7565b600060208284031215612f2657600080fd5b81356129af81612aea565b634e487b7160e01b600052602160045260246000fd5b60058110612f6557634e487b7160e01b600052602160045260246000fd5b9052565b63ffffffff8b811682528a1660208201526101408101612f8c604083018b612f47565b6001600160a01b03989098166060820152608081019690965260a086019490945260c085019290925260e0840152610100830152610120909101529392505050565b60008060408385031215612fe157600080fd5b50508035926020909101359150565b602081526000825160208084015261300b6040840182612e3b565b949350505050565b6000806000806080858703121561302957600080fd5b8435935060208501359250612bda60408601612ace565b600082601f83011261305157600080fd5b81356001600160401b0381111561306a5761306a6129cf565b61307d601f8201601f1916602001612a0e565b81815284602083860101111561309257600080fd5b816020850160208301376000918101602001919091529392505050565b6000806000806000806000806000806103208b8d0312156130cf57600080fd5b8a35995060208b0135985060408b0135975060608b0135965060808b013563ffffffff811681146130ff57600080fd5b955060a08b0135945061311460c08c01612cc7565b935061312260e08c01612cc7565b92506131328c6101008d01612cde565b91506103008b01356001600160401b0381111561314e57600080fd5b61315a8d828e01613040565b9150509295989b9194979a5092959850565b600081518084526020840193506020830160005b82811015612e6d5781516001600160c01b0316865260209586019590910190600101613180565b602081526131be60208201835163ffffffff169052565b600060208301516131d7604084018263ffffffff169052565b5060408301516131ea6060840182612f47565b5060608301516001600160a01b038116608084015250608083015160a083015260a083015160c083015260c083015160e083015260e083015161010083015261010083015161012083015261012083015161014083015261014083015161018061016084015261325e6101a0840182612e3b565b9050610160840151601f198483030161018085015261327d828261316c565b95945050505050565b6020808252600c908201526b15539055551213d49256915160a21b604082015260600190565b634e487b7160e01b600052603260045260246000fd5b634e487b7160e01b600052601160045260246000fd5b80820180821115611a9457611a946132c2565b634e487b7160e01b600052601260045260246000fd5b600061ffff831680613315576133156132eb565b8061ffff84160491505092915050565b8082028115828204841417611a9457611a946132c2565b60005b8381101561335757818101518382015260200161333f565b50506000910152565b6000825161337281846020870161333c565b9190910192915050565b60006020828403121561338e57600080fd5b5051919050565b81810381811115611a9457611a946132c2565b6000602082840312156133ba57600080fd5b815180151581146129af57600080fd5b6000600182016133dc576133dc6132c2565b5060010190565b818103600083128015838313168383128216171561149b5761149b6132c2565b6001600160401b038281168282160390811115611a9457611a946132c2565b6000815180845261343a81602086016020860161333c565b601f01601f19169290920160200192915050565b6040815260006134616040830185613422565b828103602084015261327d8185612e3b565b60ff8281168282160390811115611a9457611a946132c2565b6001815b60018411156134c7578085048111156134ab576134ab6132c2565b60018416156134b957908102905b60019390931c928002613490565b935093915050565b6000826134de57506001611a94565b816134eb57506000611a94565b8160018114613501576002811461350b57613527565b6001915050611a94565b60ff84111561351c5761351c6132c2565b50506001821b611a94565b5060208310610133831016604e8410600b841016171561354a575081810a611a94565b613557600019848461348c565b806000190482111561356b5761356b6132c2565b029392505050565b60006129af60ff8416836134cf565b600082613591576135916132eb565b500490565b6020815260006129af6020830184613422565b6040815260006135bc6040830185613422565b90508260208301529392505050565b60006001600160401b038316806135e4576135e46132eb565b806001600160401b038416069150509291505056fea2646970667358221220f95a34a01ee38524af5297599315f89bb82026136461647f3dd8c83cf008962b64736f6c634300081a0033","linkReferences":{}},"methodIdentifiers":{"CHALLENGE_PERIOD()":"c3a079ed","DEPOSIT_TOKEN()":"13f66587","MAX_DEPOSIT_OUTPUTS()":"9cdb8e5a","MIN_ORDER_GAS_MULTIPLIER()":"5f5d5b6a","PROOF_GAS_COST()":"eb6c7522","RELEASE_GAS_COST()":"9a64279c","RESERVATION_LOCKUP_PERIOD()":"89a11f7a","SAMPLING_SIZE()":"ad062e55","TOKEN_DECIMALS()":"5b7f415c","addBlock(uint256,uint256,uint256,bytes32[],uint256)":"2d908c02","buildProofPublicInputs((bytes32,bytes32,bytes32,uint64,uint64,bytes32,bytes32,bytes32,bytes32,uint64,uint64,uint64,uint64,bytes32[16]))":"3435d9fe","currentConfirmationHeight()":"fba78166","currentHeight()":"163de0c5","depositLiquidity(uint256,uint64,bytes22,int256,int256)":"51a7f1cd","depositVaults(uint256)":"5f4d0610","emptyDepositVault(uint256)":"490d4c5f","getBlockHash(uint256)":"ee82ac5e","getDepositVault(uint256)":"276d080e","getDepositVaultUnreservedBalance(uint256)":"6512d057","getDepositVaultUnreservedBalanceInternalPrecision(uint256)":"e6a5e60f","getDepositVaultsLength()":"7dce5550","getLiquidityProvider(address)":"98f9e757","getReservation(uint256)":"d57763c3","getReservationLength()":"ea6fe03e","owner()":"8da5cb5b","proposeTransactionProof(bytes32,bytes32,bytes32,bytes32,uint32,uint256,uint64,uint64,bytes32[16],bytes)":"b530ffb1","protocolFeeBP()":"c5fba0b8","proverReward()":"6dcc17c8","releaseLiquidity(uint256)":"77891907","releaserReward()":"9cc7eab9","reserveLiquidity(uint256[],uint192[],address,uint256[])":"2d312a4a","swapReservations(uint256)":"6b994abb","transferOwnership(address)":"f2fde38b","updateExchangeRate(uint256,uint256,uint64,uint256[])":"56fe6f86","updateProtocolAddress(address)":"58e2b676","updateProtocolFee(uint8)":"0a7aa293","updateRewards(uint256,uint256)":"97e50818","validateBlockExists(uint256)":"ed8b2b32","verifierContract()":"cf695688","withdrawLiquidity(uint256,uint256,uint192,uint256[])":"aeacb2e7"},"storageLayout":{"storage":[{"astId":43350,"contract":"src/RiftExchange.sol:RiftExchange","label":"blockchain","offset":0,"slot":"0","type":"t_mapping(t_uint256,t_bytes32)"},{"astId":43352,"contract":"src/RiftExchange.sol:RiftExchange","label":"currentHeight","offset":0,"slot":"1","type":"t_uint256"},{"astId":43354,"contract":"src/RiftExchange.sol:RiftExchange","label":"currentConfirmationHeight","offset":0,"slot":"2","type":"t_uint256"},{"astId":43047,"contract":"src/RiftExchange.sol:RiftExchange","label":"owner","offset":0,"slot":"3","type":"t_address"},{"astId":44060,"contract":"src/RiftExchange.sol:RiftExchange","label":"protocolFeeBP","offset":20,"slot":"3","type":"t_uint8"},{"astId":44062,"contract":"src/RiftExchange.sol:RiftExchange","label":"proverReward","offset":0,"slot":"4","type":"t_uint256"},{"astId":44064,"contract":"src/RiftExchange.sol:RiftExchange","label":"releaserReward","offset":0,"slot":"5","type":"t_uint256"},{"astId":44121,"contract":"src/RiftExchange.sol:RiftExchange","label":"liquidityProviders","offset":0,"slot":"6","type":"t_mapping(t_address,t_struct(LiquidityProvider)44073_storage)"},{"astId":44125,"contract":"src/RiftExchange.sol:RiftExchange","label":"swapReservations","offset":0,"slot":"7","type":"t_array(t_struct(SwapReservation)44116_storage)dyn_storage"},{"astId":44129,"contract":"src/RiftExchange.sol:RiftExchange","label":"depositVaults","offset":0,"slot":"8","type":"t_array(t_struct(DepositVault)44082_storage)dyn_storage"},{"astId":44138,"contract":"src/RiftExchange.sol:RiftExchange","label":"protocolAddress","offset":0,"slot":"9","type":"t_address_payable"}],"types":{"t_address":{"encoding":"inplace","label":"address","numberOfBytes":"20"},"t_address_payable":{"encoding":"inplace","label":"address payable","numberOfBytes":"20"},"t_array(t_struct(DepositVault)44082_storage)dyn_storage":{"encoding":"dynamic_array","label":"struct RiftExchange.DepositVault[]","numberOfBytes":"32","base":"t_struct(DepositVault)44082_storage"},"t_array(t_struct(SwapReservation)44116_storage)dyn_storage":{"encoding":"dynamic_array","label":"struct RiftExchange.SwapReservation[]","numberOfBytes":"32","base":"t_struct(SwapReservation)44116_storage"},"t_array(t_uint192)dyn_storage":{"encoding":"dynamic_array","label":"uint192[]","numberOfBytes":"32","base":"t_uint192"},"t_array(t_uint256)dyn_storage":{"encoding":"dynamic_array","label":"uint256[]","numberOfBytes":"32","base":"t_uint256"},"t_bytes22":{"encoding":"inplace","label":"bytes22","numberOfBytes":"22"},"t_bytes32":{"encoding":"inplace","label":"bytes32","numberOfBytes":"32"},"t_enum(ReservationState)44088":{"encoding":"inplace","label":"enum RiftExchange.ReservationState","numberOfBytes":"1"},"t_int256":{"encoding":"inplace","label":"int256","numberOfBytes":"32"},"t_mapping(t_address,t_struct(LiquidityProvider)44073_storage)":{"encoding":"mapping","key":"t_address","label":"mapping(address => struct RiftExchange.LiquidityProvider)","numberOfBytes":"32","value":"t_struct(LiquidityProvider)44073_storage"},"t_mapping(t_uint256,t_bytes32)":{"encoding":"mapping","key":"t_uint256","label":"mapping(uint256 => bytes32)","numberOfBytes":"32","value":"t_bytes32"},"t_struct(DepositVault)44082_storage":{"encoding":"inplace","label":"struct RiftExchange.DepositVault","numberOfBytes":"96","members":[{"astId":44075,"contract":"src/RiftExchange.sol:RiftExchange","label":"initialBalance","offset":0,"slot":"0","type":"t_uint256"},{"astId":44077,"contract":"src/RiftExchange.sol:RiftExchange","label":"unreservedBalance","offset":0,"slot":"1","type":"t_uint256"},{"astId":44079,"contract":"src/RiftExchange.sol:RiftExchange","label":"exchangeRate","offset":0,"slot":"2","type":"t_uint64"},{"astId":44081,"contract":"src/RiftExchange.sol:RiftExchange","label":"btcPayoutLockingScript","offset":8,"slot":"2","type":"t_bytes22"}]},"t_struct(LiquidityProvider)44073_storage":{"encoding":"inplace","label":"struct RiftExchange.LiquidityProvider","numberOfBytes":"32","members":[{"astId":44072,"contract":"src/RiftExchange.sol:RiftExchange","label":"depositVaultIndexes","offset":0,"slot":"0","type":"t_array(t_uint256)dyn_storage"}]},"t_struct(SwapReservation)44116_storage":{"encoding":"inplace","label":"struct RiftExchange.SwapReservation","numberOfBytes":"288","members":[{"astId":44090,"contract":"src/RiftExchange.sol:RiftExchange","label":"reservationTimestamp","offset":0,"slot":"0","type":"t_uint32"},{"astId":44092,"contract":"src/RiftExchange.sol:RiftExchange","label":"unlockTimestamp","offset":4,"slot":"0","type":"t_uint32"},{"astId":44095,"contract":"src/RiftExchange.sol:RiftExchange","label":"state","offset":8,"slot":"0","type":"t_enum(ReservationState)44088"},{"astId":44097,"contract":"src/RiftExchange.sol:RiftExchange","label":"ethPayoutAddress","offset":9,"slot":"0","type":"t_address"},{"astId":44099,"contract":"src/RiftExchange.sol:RiftExchange","label":"lpReservationHash","offset":0,"slot":"1","type":"t_bytes32"},{"astId":44101,"contract":"src/RiftExchange.sol:RiftExchange","label":"nonce","offset":0,"slot":"2","type":"t_bytes32"},{"astId":44103,"contract":"src/RiftExchange.sol:RiftExchange","label":"totalSwapAmount","offset":0,"slot":"3","type":"t_uint256"},{"astId":44105,"contract":"src/RiftExchange.sol:RiftExchange","label":"prepaidFeeAmount","offset":0,"slot":"4","type":"t_int256"},{"astId":44107,"contract":"src/RiftExchange.sol:RiftExchange","label":"proposedBlockHeight","offset":0,"slot":"5","type":"t_uint256"},{"astId":44109,"contract":"src/RiftExchange.sol:RiftExchange","label":"proposedBlockHash","offset":0,"slot":"6","type":"t_bytes32"},{"astId":44112,"contract":"src/RiftExchange.sol:RiftExchange","label":"vaultIndexes","offset":0,"slot":"7","type":"t_array(t_uint256)dyn_storage"},{"astId":44115,"contract":"src/RiftExchange.sol:RiftExchange","label":"amountsToReserve","offset":0,"slot":"8","type":"t_array(t_uint192)dyn_storage"}]},"t_uint192":{"encoding":"inplace","label":"uint192","numberOfBytes":"24"},"t_uint256":{"encoding":"inplace","label":"uint256","numberOfBytes":"32"},"t_uint32":{"encoding":"inplace","label":"uint32","numberOfBytes":"4"},"t_uint64":{"encoding":"inplace","label":"uint64","numberOfBytes":"8"},"t_uint8":{"encoding":"inplace","label":"uint8","numberOfBytes":"1"}}},"id":23}